{
  "_format": "hh-sol-artifact-1",
  "contractName": "GenesisNode",
  "sourceName": "contracts/GenesisNode.sol",
  "abi": [
    {
      "inputs": [
        {
          "internalType": "address",
          "name": "_teamOpsWallet",
          "type": "address"
        }
      ],
      "stateMutability": "nonpayable",
      "type": "constructor"
    },
    {
      "inputs": [
        {
          "internalType": "address",
          "name": "target",
          "type": "address"
        }
      ],
      "name": "AddressEmptyCode",
      "type": "error"
    },
    {
      "inputs": [
        {
          "internalType": "address",
          "name": "account",
          "type": "address"
        }
      ],
      "name": "AddressInsufficientBalance",
      "type": "error"
    },
    {
      "inputs": [],
      "name": "ERC721EnumerableForbiddenBatchMint",
      "type": "error"
    },
    {
      "inputs": [
        {
          "internalType": "address",
          "name": "sender",
          "type": "address"
        },
        {
          "internalType": "uint256",
          "name": "tokenId",
          "type": "uint256"
        },
        {
          "internalType": "address",
          "name": "owner",
          "type": "address"
        }
      ],
      "name": "ERC721IncorrectOwner",
      "type": "error"
    },
    {
      "inputs": [
        {
          "internalType": "address",
          "name": "operator",
          "type": "address"
        },
        {
          "internalType": "uint256",
          "name": "tokenId",
          "type": "uint256"
        }
      ],
      "name": "ERC721InsufficientApproval",
      "type": "error"
    },
    {
      "inputs": [
        {
          "internalType": "address",
          "name": "approver",
          "type": "address"
        }
      ],
      "name": "ERC721InvalidApprover",
      "type": "error"
    },
    {
      "inputs": [
        {
          "internalType": "address",
          "name": "operator",
          "type": "address"
        }
      ],
      "name": "ERC721InvalidOperator",
      "type": "error"
    },
    {
      "inputs": [
        {
          "internalType": "address",
          "name": "owner",
          "type": "address"
        }
      ],
      "name": "ERC721InvalidOwner",
      "type": "error"
    },
    {
      "inputs": [
        {
          "internalType": "address",
          "name": "receiver",
          "type": "address"
        }
      ],
      "name": "ERC721InvalidReceiver",
      "type": "error"
    },
    {
      "inputs": [
        {
          "internalType": "address",
          "name": "sender",
          "type": "address"
        }
      ],
      "name": "ERC721InvalidSender",
      "type": "error"
    },
    {
      "inputs": [
        {
          "internalType": "uint256",
          "name": "tokenId",
          "type": "uint256"
        }
      ],
      "name": "ERC721NonexistentToken",
      "type": "error"
    },
    {
      "inputs": [
        {
          "internalType": "address",
          "name": "owner",
          "type": "address"
        },
        {
          "internalType": "uint256",
          "name": "index",
          "type": "uint256"
        }
      ],
      "name": "ERC721OutOfBoundsIndex",
      "type": "error"
    },
    {
      "inputs": [],
      "name": "FailedInnerCall",
      "type": "error"
    },
    {
      "inputs": [
        {
          "internalType": "address",
          "name": "owner",
          "type": "address"
        }
      ],
      "name": "OwnableInvalidOwner",
      "type": "error"
    },
    {
      "inputs": [
        {
          "internalType": "address",
          "name": "account",
          "type": "address"
        }
      ],
      "name": "OwnableUnauthorizedAccount",
      "type": "error"
    },
    {
      "inputs": [],
      "name": "ReentrancyGuardReentrantCall",
      "type": "error"
    },
    {
      "inputs": [
        {
          "internalType": "address",
          "name": "token",
          "type": "address"
        }
      ],
      "name": "SafeERC20FailedOperation",
      "type": "error"
    },
    {
      "anonymous": false,
      "inputs": [
        {
          "indexed": true,
          "internalType": "address",
          "name": "owner",
          "type": "address"
        },
        {
          "indexed": true,
          "internalType": "address",
          "name": "approved",
          "type": "address"
        },
        {
          "indexed": true,
          "internalType": "uint256",
          "name": "tokenId",
          "type": "uint256"
        }
      ],
      "name": "Approval",
      "type": "event"
    },
    {
      "anonymous": false,
      "inputs": [
        {
          "indexed": true,
          "internalType": "address",
          "name": "owner",
          "type": "address"
        },
        {
          "indexed": true,
          "internalType": "address",
          "name": "operator",
          "type": "address"
        },
        {
          "indexed": false,
          "internalType": "bool",
          "name": "approved",
          "type": "bool"
        }
      ],
      "name": "ApprovalForAll",
      "type": "event"
    },
    {
      "anonymous": false,
      "inputs": [
        {
          "indexed": false,
          "internalType": "string",
          "name": "baseURI",
          "type": "string"
        }
      ],
      "name": "BaseURISet",
      "type": "event"
    },
    {
      "anonymous": false,
      "inputs": [
        {
          "indexed": true,
          "internalType": "address",
          "name": "buyer",
          "type": "address"
        },
        {
          "indexed": true,
          "internalType": "uint256",
          "name": "tokenId",
          "type": "uint256"
        },
        {
          "indexed": true,
          "internalType": "address",
          "name": "referrer",
          "type": "address"
        },
        {
          "indexed": false,
          "internalType": "uint256",
          "name": "price",
          "type": "uint256"
        }
      ],
      "name": "NodeMinted",
      "type": "event"
    },
    {
      "anonymous": false,
      "inputs": [
        {
          "indexed": true,
          "internalType": "address",
          "name": "previousOwner",
          "type": "address"
        },
        {
          "indexed": true,
          "internalType": "address",
          "name": "newOwner",
          "type": "address"
        }
      ],
      "name": "OwnershipTransferred",
      "type": "event"
    },
    {
      "anonymous": false,
      "inputs": [
        {
          "indexed": true,
          "internalType": "address",
          "name": "token",
          "type": "address"
        }
      ],
      "name": "PaymentTokenSet",
      "type": "event"
    },
    {
      "anonymous": false,
      "inputs": [
        {
          "indexed": true,
          "internalType": "address",
          "name": "user",
          "type": "address"
        },
        {
          "indexed": true,
          "internalType": "address",
          "name": "referrer",
          "type": "address"
        }
      ],
      "name": "ReferrerBound",
      "type": "event"
    },
    {
      "anonymous": false,
      "inputs": [
        {
          "indexed": true,
          "internalType": "address",
          "name": "wallet",
          "type": "address"
        }
      ],
      "name": "TeamOpsWalletSet",
      "type": "event"
    },
    {
      "anonymous": false,
      "inputs": [
        {
          "indexed": true,
          "internalType": "address",
          "name": "from",
          "type": "address"
        },
        {
          "indexed": true,
          "internalType": "address",
          "name": "to",
          "type": "address"
        },
        {
          "indexed": true,
          "internalType": "uint256",
          "name": "tokenId",
          "type": "uint256"
        }
      ],
      "name": "Transfer",
      "type": "event"
    },
    {
      "inputs": [],
      "name": "BASIS_POINTS",
      "outputs": [
        {
          "internalType": "uint256",
          "name": "",
          "type": "uint256"
        }
      ],
      "stateMutability": "view",
      "type": "function"
    },
    {
      "inputs": [],
      "name": "MAX_SUPPLY",
      "outputs": [
        {
          "internalType": "uint256",
          "name": "",
          "type": "uint256"
        }
      ],
      "stateMutability": "view",
      "type": "function"
    },
    {
      "inputs": [],
      "name": "NODE_PRICE",
      "outputs": [
        {
          "internalType": "uint256",
          "name": "",
          "type": "uint256"
        }
      ],
      "stateMutability": "view",
      "type": "function"
    },
    {
      "inputs": [],
      "name": "SELF_BOOST",
      "outputs": [
        {
          "internalType": "uint256",
          "name": "",
          "type": "uint256"
        }
      ],
      "stateMutability": "view",
      "type": "function"
    },
    {
      "inputs": [],
      "name": "TEAM_AURA",
      "outputs": [
        {
          "internalType": "uint256",
          "name": "",
          "type": "uint256"
        }
      ],
      "stateMutability": "view",
      "type": "function"
    },
    {
      "inputs": [
        {
          "internalType": "address",
          "name": "to",
          "type": "address"
        },
        {
          "internalType": "uint256",
          "name": "tokenId",
          "type": "uint256"
        }
      ],
      "name": "approve",
      "outputs": [],
      "stateMutability": "nonpayable",
      "type": "function"
    },
    {
      "inputs": [
        {
          "internalType": "address",
          "name": "owner",
          "type": "address"
        }
      ],
      "name": "balanceOf",
      "outputs": [
        {
          "internalType": "uint256",
          "name": "",
          "type": "uint256"
        }
      ],
      "stateMutability": "view",
      "type": "function"
    },
    {
      "inputs": [
        {
          "internalType": "address",
          "name": "user",
          "type": "address"
        },
        {
          "internalType": "address",
          "name": "referrer",
          "type": "address"
        }
      ],
      "name": "bindReferrerFromBond",
      "outputs": [],
      "stateMutability": "nonpayable",
      "type": "function"
    },
    {
      "inputs": [
        {
          "internalType": "address",
          "name": "",
          "type": "address"
        }
      ],
      "name": "directReferralCount",
      "outputs": [
        {
          "internalType": "uint256",
          "name": "",
          "type": "uint256"
        }
      ],
      "stateMutability": "view",
      "type": "function"
    },
    {
      "inputs": [
        {
          "internalType": "uint256",
          "name": "tokenId",
          "type": "uint256"
        }
      ],
      "name": "getApproved",
      "outputs": [
        {
          "internalType": "address",
          "name": "",
          "type": "address"
        }
      ],
      "stateMutability": "view",
      "type": "function"
    },
    {
      "inputs": [],
      "name": "getContractStats",
      "outputs": [
        {
          "internalType": "uint256",
          "name": "currentSupply",
          "type": "uint256"
        },
        {
          "internalType": "uint256",
          "name": "maxSupply",
          "type": "uint256"
        },
        {
          "internalType": "uint256",
          "name": "price",
          "type": "uint256"
        },
        {
          "internalType": "uint256",
          "name": "totalVolume",
          "type": "uint256"
        }
      ],
      "stateMutability": "view",
      "type": "function"
    },
    {
      "inputs": [
        {
          "internalType": "address",
          "name": "user",
          "type": "address"
        }
      ],
      "name": "getReferrer",
      "outputs": [
        {
          "internalType": "address",
          "name": "",
          "type": "address"
        }
      ],
      "stateMutability": "view",
      "type": "function"
    },
    {
      "inputs": [
        {
          "internalType": "address",
          "name": "user",
          "type": "address"
        }
      ],
      "name": "getSelfBoost",
      "outputs": [
        {
          "internalType": "uint256",
          "name": "",
          "type": "uint256"
        }
      ],
      "stateMutability": "view",
      "type": "function"
    },
    {
      "inputs": [
        {
          "internalType": "address",
          "name": "user",
          "type": "address"
        }
      ],
      "name": "getTeamAura",
      "outputs": [
        {
          "internalType": "uint256",
          "name": "",
          "type": "uint256"
        }
      ],
      "stateMutability": "view",
      "type": "function"
    },
    {
      "inputs": [
        {
          "internalType": "address",
          "name": "user",
          "type": "address"
        }
      ],
      "name": "getTotalBoost",
      "outputs": [
        {
          "internalType": "uint256",
          "name": "",
          "type": "uint256"
        }
      ],
      "stateMutability": "view",
      "type": "function"
    },
    {
      "inputs": [
        {
          "internalType": "address",
          "name": "user",
          "type": "address"
        }
      ],
      "name": "getUserInfo",
      "outputs": [
        {
          "internalType": "uint256",
          "name": "nftBalance",
          "type": "uint256"
        },
        {
          "internalType": "address",
          "name": "referrer",
          "type": "address"
        },
        {
          "internalType": "uint256",
          "name": "directDownlines",
          "type": "uint256"
        },
        {
          "internalType": "uint256",
          "name": "selfBoost",
          "type": "uint256"
        },
        {
          "internalType": "uint256",
          "name": "teamAura",
          "type": "uint256"
        },
        {
          "internalType": "uint256",
          "name": "totalBoost",
          "type": "uint256"
        }
      ],
      "stateMutability": "view",
      "type": "function"
    },
    {
      "inputs": [
        {
          "internalType": "address",
          "name": "user",
          "type": "address"
        }
      ],
      "name": "hasApprovedMint",
      "outputs": [
        {
          "internalType": "bool",
          "name": "",
          "type": "bool"
        }
      ],
      "stateMutability": "view",
      "type": "function"
    },
    {
      "inputs": [
        {
          "internalType": "address",
          "name": "user",
          "type": "address"
        }
      ],
      "name": "hasReferrer",
      "outputs": [
        {
          "internalType": "bool",
          "name": "",
          "type": "bool"
        }
      ],
      "stateMutability": "view",
      "type": "function"
    },
    {
      "inputs": [
        {
          "internalType": "address",
          "name": "owner",
          "type": "address"
        },
        {
          "internalType": "address",
          "name": "operator",
          "type": "address"
        }
      ],
      "name": "isApprovedForAll",
      "outputs": [
        {
          "internalType": "bool",
          "name": "",
          "type": "bool"
        }
      ],
      "stateMutability": "view",
      "type": "function"
    },
    {
      "inputs": [],
      "name": "ivyBond",
      "outputs": [
        {
          "internalType": "address",
          "name": "",
          "type": "address"
        }
      ],
      "stateMutability": "view",
      "type": "function"
    },
    {
      "inputs": [
        {
          "internalType": "address",
          "name": "referrer",
          "type": "address"
        }
      ],
      "name": "mint",
      "outputs": [],
      "stateMutability": "nonpayable",
      "type": "function"
    },
    {
      "inputs": [],
      "name": "name",
      "outputs": [
        {
          "internalType": "string",
          "name": "",
          "type": "string"
        }
      ],
      "stateMutability": "view",
      "type": "function"
    },
    {
      "inputs": [],
      "name": "owner",
      "outputs": [
        {
          "internalType": "address",
          "name": "",
          "type": "address"
        }
      ],
      "stateMutability": "view",
      "type": "function"
    },
    {
      "inputs": [
        {
          "internalType": "uint256",
          "name": "tokenId",
          "type": "uint256"
        }
      ],
      "name": "ownerOf",
      "outputs": [
        {
          "internalType": "address",
          "name": "",
          "type": "address"
        }
      ],
      "stateMutability": "view",
      "type": "function"
    },
    {
      "inputs": [],
      "name": "paymentToken",
      "outputs": [
        {
          "internalType": "contract IERC20",
          "name": "",
          "type": "address"
        }
      ],
      "stateMutability": "view",
      "type": "function"
    },
    {
      "inputs": [
        {
          "internalType": "address",
          "name": "",
          "type": "address"
        }
      ],
      "name": "referrers",
      "outputs": [
        {
          "internalType": "address",
          "name": "",
          "type": "address"
        }
      ],
      "stateMutability": "view",
      "type": "function"
    },
    {
      "inputs": [],
      "name": "renounceOwnership",
      "outputs": [],
      "stateMutability": "nonpayable",
      "type": "function"
    },
    {
      "inputs": [
        {
          "internalType": "address",
          "name": "from",
          "type": "address"
        },
        {
          "internalType": "address",
          "name": "to",
          "type": "address"
        },
        {
          "internalType": "uint256",
          "name": "tokenId",
          "type": "uint256"
        }
      ],
      "name": "safeTransferFrom",
      "outputs": [],
      "stateMutability": "nonpayable",
      "type": "function"
    },
    {
      "inputs": [
        {
          "internalType": "address",
          "name": "from",
          "type": "address"
        },
        {
          "internalType": "address",
          "name": "to",
          "type": "address"
        },
        {
          "internalType": "uint256",
          "name": "tokenId",
          "type": "uint256"
        },
        {
          "internalType": "bytes",
          "name": "data",
          "type": "bytes"
        }
      ],
      "name": "safeTransferFrom",
      "outputs": [],
      "stateMutability": "nonpayable",
      "type": "function"
    },
    {
      "inputs": [
        {
          "internalType": "address",
          "name": "operator",
          "type": "address"
        },
        {
          "internalType": "bool",
          "name": "approved",
          "type": "bool"
        }
      ],
      "name": "setApprovalForAll",
      "outputs": [],
      "stateMutability": "nonpayable",
      "type": "function"
    },
    {
      "inputs": [
        {
          "internalType": "string",
          "name": "baseURI",
          "type": "string"
        }
      ],
      "name": "setBaseURI",
      "outputs": [],
      "stateMutability": "nonpayable",
      "type": "function"
    },
    {
      "inputs": [
        {
          "internalType": "address",
          "name": "_ivyBond",
          "type": "address"
        }
      ],
      "name": "setIvyBond",
      "outputs": [],
      "stateMutability": "nonpayable",
      "type": "function"
    },
    {
      "inputs": [
        {
          "internalType": "address",
          "name": "_paymentToken",
          "type": "address"
        }
      ],
      "name": "setPaymentToken",
      "outputs": [],
      "stateMutability": "nonpayable",
      "type": "function"
    },
    {
      "inputs": [
        {
          "internalType": "address",
          "name": "user",
          "type": "address"
        },
        {
          "internalType": "address",
          "name": "referrer",
          "type": "address"
        }
      ],
      "name": "setReferrer",
      "outputs": [],
      "stateMutability": "nonpayable",
      "type": "function"
    },
    {
      "inputs": [
        {
          "internalType": "address",
          "name": "_teamOpsWallet",
          "type": "address"
        }
      ],
      "name": "setTeamOpsWallet",
      "outputs": [],
      "stateMutability": "nonpayable",
      "type": "function"
    },
    {
      "inputs": [
        {
          "internalType": "bytes4",
          "name": "interfaceId",
          "type": "bytes4"
        }
      ],
      "name": "supportsInterface",
      "outputs": [
        {
          "internalType": "bool",
          "name": "",
          "type": "bool"
        }
      ],
      "stateMutability": "view",
      "type": "function"
    },
    {
      "inputs": [],
      "name": "symbol",
      "outputs": [
        {
          "internalType": "string",
          "name": "",
          "type": "string"
        }
      ],
      "stateMutability": "view",
      "type": "function"
    },
    {
      "inputs": [],
      "name": "teamOpsWallet",
      "outputs": [
        {
          "internalType": "address",
          "name": "",
          "type": "address"
        }
      ],
      "stateMutability": "view",
      "type": "function"
    },
    {
      "inputs": [
        {
          "internalType": "uint256",
          "name": "index",
          "type": "uint256"
        }
      ],
      "name": "tokenByIndex",
      "outputs": [
        {
          "internalType": "uint256",
          "name": "",
          "type": "uint256"
        }
      ],
      "stateMutability": "view",
      "type": "function"
    },
    {
      "inputs": [
        {
          "internalType": "address",
          "name": "owner",
          "type": "address"
        },
        {
          "internalType": "uint256",
          "name": "index",
          "type": "uint256"
        }
      ],
      "name": "tokenOfOwnerByIndex",
      "outputs": [
        {
          "internalType": "uint256",
          "name": "",
          "type": "uint256"
        }
      ],
      "stateMutability": "view",
      "type": "function"
    },
    {
      "inputs": [
        {
          "internalType": "uint256",
          "name": "tokenId",
          "type": "uint256"
        }
      ],
      "name": "tokenURI",
      "outputs": [
        {
          "internalType": "string",
          "name": "",
          "type": "string"
        }
      ],
      "stateMutability": "view",
      "type": "function"
    },
    {
      "inputs": [],
      "name": "totalSalesVolume",
      "outputs": [
        {
          "internalType": "uint256",
          "name": "",
          "type": "uint256"
        }
      ],
      "stateMutability": "view",
      "type": "function"
    },
    {
      "inputs": [],
      "name": "totalSupply",
      "outputs": [
        {
          "internalType": "uint256",
          "name": "",
          "type": "uint256"
        }
      ],
      "stateMutability": "view",
      "type": "function"
    },
    {
      "inputs": [
        {
          "internalType": "address",
          "name": "from",
          "type": "address"
        },
        {
          "internalType": "address",
          "name": "to",
          "type": "address"
        },
        {
          "internalType": "uint256",
          "name": "tokenId",
          "type": "uint256"
        }
      ],
      "name": "transferFrom",
      "outputs": [],
      "stateMutability": "nonpayable",
      "type": "function"
    },
    {
      "inputs": [
        {
          "internalType": "address",
          "name": "newOwner",
          "type": "address"
        }
      ],
      "name": "transferOwnership",
      "outputs": [],
      "stateMutability": "nonpayable",
      "type": "function"
    }
  ],
  "bytecode": "0x60806040523480156200001157600080fd5b50604051620055ee380380620055ee833981810160405281019062000037919062000343565b336040518060400160405280601081526020017f4976792047656e65736973204e6f6465000000000000000000000000000000008152506040518060400160405280600881526020017f4956592d4e4f44450000000000000000000000000000000000000000000000008152508160009081620000b59190620005ef565b508060019081620000c79190620005ef565b505050600073ffffffffffffffffffffffffffffffffffffffff168173ffffffffffffffffffffffffffffffffffffffff16036200013f5760006040517f1e4fbdf7000000000000000000000000000000000000000000000000000000008152600401620001369190620006e7565b60405180910390fd5b62000150816200021360201b60201c565b506001600b81905550600073ffffffffffffffffffffffffffffffffffffffff168173ffffffffffffffffffffffffffffffffffffffff1603620001cb576040517f08c379a0000000000000000000000000000000000000000000000000000000008152600401620001c29062000765565b60405180910390fd5b80600d60006101000a81548173ffffffffffffffffffffffffffffffffffffffff021916908373ffffffffffffffffffffffffffffffffffffffff1602179055505062000787565b6000600a60009054906101000a900473ffffffffffffffffffffffffffffffffffffffff16905081600a60006101000a81548173ffffffffffffffffffffffffffffffffffffffff021916908373ffffffffffffffffffffffffffffffffffffffff1602179055508173ffffffffffffffffffffffffffffffffffffffff168173ffffffffffffffffffffffffffffffffffffffff167f8be0079c531659141344cd1fd0a4f28419497f9722a3daafe3b4186f6b6457e060405160405180910390a35050565b600080fd5b600073ffffffffffffffffffffffffffffffffffffffff82169050919050565b60006200030b82620002de565b9050919050565b6200031d81620002fe565b81146200032957600080fd5b50565b6000815190506200033d8162000312565b92915050565b6000602082840312156200035c576200035b620002d9565b5b60006200036c848285016200032c565b91505092915050565b600081519050919050565b7f4e487b7100000000000000000000000000000000000000000000000000000000600052604160045260246000fd5b7f4e487b7100000000000000000000000000000000000000000000000000000000600052602260045260246000fd5b60006002820490506001821680620003f757607f821691505b6020821081036200040d576200040c620003af565b5b50919050565b60008190508160005260206000209050919050565b60006020601f8301049050919050565b600082821b905092915050565b600060088302620004777fffffffffffffffffffffffffffffffffffffffffffffffffffffffffffffffff8262000438565b62000483868362000438565b95508019841693508086168417925050509392505050565b6000819050919050565b6000819050919050565b6000620004d0620004ca620004c4846200049b565b620004a5565b6200049b565b9050919050565b6000819050919050565b620004ec83620004af565b62000504620004fb82620004d7565b84845462000445565b825550505050565b600090565b6200051b6200050c565b62000528818484620004e1565b505050565b5b8181101562000550576200054460008262000511565b6001810190506200052e565b5050565b601f8211156200059f57620005698162000413565b620005748462000428565b8101602085101562000584578190505b6200059c620005938562000428565b8301826200052d565b50505b505050565b600082821c905092915050565b6000620005c460001984600802620005a4565b1980831691505092915050565b6000620005df8383620005b1565b9150826002028217905092915050565b620005fa8262000375565b67ffffffffffffffff81111562000616576200061562000380565b5b620006228254620003de565b6200062f82828562000554565b600060209050601f83116001811462000667576000841562000652578287015190505b6200065e8582620005d1565b865550620006ce565b601f198416620006778662000413565b60005b82811015620006a1578489015182556001820191506020850194506020810190506200067a565b86831015620006c15784890151620006bd601f891682620005b1565b8355505b6001600288020188555050505b505050505050565b620006e181620002fe565b82525050565b6000602082019050620006fe6000830184620006d6565b92915050565b600082825260208201905092915050565b7f496e76616c6964205465616d4f70732077616c6c657400000000000000000000600082015250565b60006200074d60168362000704565b91506200075a8262000715565b602082019050919050565b6000602082019050818103600083015262000780816200073e565b9050919050565b614e5780620007976000396000f3fe608060405234801561001057600080fd5b506004361061027e5760003560e01c80636352211e1161015c5780637ff6846d116100ce578063bbddaca311610087578063bbddaca3146107fe578063c87b56dd1461081a578063dfe6b5d61461084a578063e1f1c4a71461086b578063e985e9c514610889578063f2fde38b146108b95761027e565b80637ff6846d1461073c5780638da5cb5b1461075a57806395d89b4114610778578063a22cb46514610796578063b77b7dc9146107b2578063b88d4fde146107e25761027e565b80636a627842116101205780636a6278421461067c5780636d42a9601461069857806370a08231146106b4578063715018a6146106e45780637b159abd146106ee5780637f3cc0e11461071e5761027e565b80636352211e146105af5780636386c1c7146105df578063667f8eab146106145780636905c5d1146106305780636a326ab1146106605761027e565b806329146555116101f55780633633f3c0116101b95780633633f3c0146104b757806342842e0e146104e75780634a3b68cc146105035780634a9fefc7146105335780634f6ccce71461056357806355f804b3146105935761027e565b8063291465551461040f57806329d21dcc1461042d5780632f745c591461044b5780633013ce291461047b57806332cb6b0c146104995761027e565b8063081812fc11610247578063081812fc1461033b578063095ea7b31461036b57806318160ddd1461038757806318452cd8146103a55780632089e9a9146103d557806323b872dd146103f35761027e565b8062d0d86e1461028357806301ffc9a7146102a1578063033d30fe146102d157806304d1334f146102ed57806306fdde031461031d575b600080fd5b61028b6108d5565b6040516102989190613b73565b60405180910390f35b6102bb60048036038101906102b69190613bfa565b6108db565b6040516102c89190613c42565b60405180910390f35b6102eb60048036038101906102e69190613cbb565b610955565b005b61030760048036038101906103029190613cbb565b610a10565b6040516103149190613b73565b60405180910390f35b610325610afa565b6040516103329190613d78565b60405180910390f35b61035560048036038101906103509190613dc6565b610b8c565b6040516103629190613e02565b60405180910390f35b61038560048036038101906103809190613e1d565b610ba8565b005b61038f610bbe565b60405161039c9190613b73565b60405180910390f35b6103bf60048036038101906103ba9190613cbb565b610bcb565b6040516103cc9190613c42565b60405180910390f35b6103dd610c63565b6040516103ea9190613b73565b60405180910390f35b61040d60048036038101906104089190613e5d565b610c68565b005b610417610d6a565b6040516104249190613e02565b60405180910390f35b610435610d90565b6040516104429190613e02565b60405180910390f35b61046560048036038101906104609190613e1d565b610db6565b6040516104729190613b73565b60405180910390f35b610483610e5f565b6040516104909190613f0f565b60405180910390f35b6104a1610e85565b6040516104ae9190613b73565b60405180910390f35b6104d160048036038101906104cc9190613cbb565b610e8b565b6040516104de9190613b73565b60405180910390f35b61050160048036038101906104fc9190613e5d565b610eae565b005b61051d60048036038101906105189190613cbb565b610ece565b60405161052a9190613e02565b60405180910390f35b61054d60048036038101906105489190613cbb565b610f01565b60405161055a9190613e02565b60405180910390f35b61057d60048036038101906105789190613dc6565b610f6a565b60405161058a9190613b73565b60405180910390f35b6105ad60048036038101906105a89190613f8f565b610fe0565b005b6105c960048036038101906105c49190613dc6565b611037565b6040516105d69190613e02565b60405180910390f35b6105f960048036038101906105f49190613cbb565b611049565b60405161060b96959493929190613fdc565b60405180910390f35b61062e60048036038101906106299190613cbb565b61117c565b005b61064a60048036038101906106459190613cbb565b61127a565b6040516106579190613b73565b60405180910390f35b61067a60048036038101906106759190613cbb565b611340565b005b61069660048036038101906106919190613cbb565b61143e565b005b6106b260048036038101906106ad919061403d565b6118e8565b005b6106ce60048036038101906106c99190613cbb565b611c54565b6040516106db9190613b73565b60405180910390f35b6106ec611d0e565b005b61070860048036038101906107039190613cbb565b611d22565b6040516107159190613c42565b60405180910390f35b610726611e34565b6040516107339190613b73565b60405180910390f35b610744611e3a565b6040516107519190613b73565b60405180910390f35b610762611e47565b60405161076f9190613e02565b60405180910390f35b610780611e71565b60405161078d9190613d78565b60405180910390f35b6107b060048036038101906107ab91906140a9565b611f03565b005b6107cc60048036038101906107c79190613cbb565b611f19565b6040516107d99190613b73565b60405180910390f35b6107fc60048036038101906107f79190614219565b611f31565b005b6108186004803603810190610813919061403d565b611f4e565b005b610834600480360381019061082f9190613dc6565b6121c3565b6040516108419190613d78565b60405180910390f35b61085261222c565b604051610862949392919061429c565b60405180910390f35b610873612253565b6040516108809190613b73565b60405180910390f35b6108a3600480360381019061089e919061403d565b612259565b6040516108b09190613c42565b60405180910390f35b6108d360048036038101906108ce9190613cbb565b6122ed565b005b6103e881565b60007f780e9d63000000000000000000000000000000000000000000000000000000007bffffffffffffffffffffffffffffffffffffffffffffffffffffffff1916827bffffffffffffffffffffffffffffffffffffffffffffffffffffffff1916148061094e575061094d82612373565b5b9050919050565b61095d612455565b600073ffffffffffffffffffffffffffffffffffffffff168173ffffffffffffffffffffffffffffffffffffffff16036109cc576040517f08c379a00000000000000000000000000000000000000000000000000000000081526004016109c39061432d565b60405180910390fd5b80601360006101000a81548173ffffffffffffffffffffffffffffffffffffffff021916908373ffffffffffffffffffffffffffffffffffffffff16021790555050565b6000806000610a1e84611c54565b11610a2a576000610a2e565b6103e85b90506000601060008573ffffffffffffffffffffffffffffffffffffffff1673ffffffffffffffffffffffffffffffffffffffff16815260200190815260200160002060009054906101000a900473ffffffffffffffffffffffffffffffffffffffff16905060008073ffffffffffffffffffffffffffffffffffffffff168273ffffffffffffffffffffffffffffffffffffffff1614158015610ada57506000610ad883611c54565b115b15610ae45760c890505b8083610af0919061437c565b9350505050919050565b606060008054610b09906143df565b80601f0160208091040260200160405190810160405280929190818152602001828054610b35906143df565b8015610b825780601f10610b5757610100808354040283529160200191610b82565b820191906000526020600020905b815481529060010190602001808311610b6557829003601f168201915b5050505050905090565b6000610b97826124dc565b50610ba182612564565b9050919050565b610bba8282610bb56125a1565b6125a9565b5050565b6000600880549050905090565b60008073ffffffffffffffffffffffffffffffffffffffff16601060008473ffffffffffffffffffffffffffffffffffffffff1673ffffffffffffffffffffffffffffffffffffffff16815260200190815260200160002060009054906101000a900473ffffffffffffffffffffffffffffffffffffffff1673ffffffffffffffffffffffffffffffffffffffff1614159050919050565b60c881565b600073ffffffffffffffffffffffffffffffffffffffff168273ffffffffffffffffffffffffffffffffffffffff1603610cda5760006040517f64a0ae92000000000000000000000000000000000000000000000000000000008152600401610cd19190613e02565b60405180910390fd5b6000610cee8383610ce96125a1565b6125bb565b90508373ffffffffffffffffffffffffffffffffffffffff168173ffffffffffffffffffffffffffffffffffffffff1614610d64578382826040517f64283d7b000000000000000000000000000000000000000000000000000000008152600401610d5b93929190614410565b60405180910390fd5b50505050565b601360009054906101000a900473ffffffffffffffffffffffffffffffffffffffff1681565b600d60009054906101000a900473ffffffffffffffffffffffffffffffffffffffff1681565b6000610dc183611c54565b8210610e065782826040517fa57d13dc000000000000000000000000000000000000000000000000000000008152600401610dfd929190614447565b60405180910390fd5b600660008473ffffffffffffffffffffffffffffffffffffffff1673ffffffffffffffffffffffffffffffffffffffff168152602001908152602001600020600083815260200190815260200160002054905092915050565b600c60009054906101000a900473ffffffffffffffffffffffffffffffffffffffff1681565b61056a81565b600080610e9783611c54565b11610ea3576000610ea7565b6103e85b9050919050565b610ec983838360405180602001604052806000815250611f31565b505050565b60106020528060005260406000206000915054906101000a900473ffffffffffffffffffffffffffffffffffffffff1681565b6000601060008373ffffffffffffffffffffffffffffffffffffffff1673ffffffffffffffffffffffffffffffffffffffff16815260200190815260200160002060009054906101000a900473ffffffffffffffffffffffffffffffffffffffff169050919050565b6000610f74610bbe565b8210610fba576000826040517fa57d13dc000000000000000000000000000000000000000000000000000000008152600401610fb1929190614447565b60405180910390fd5b60088281548110610fce57610fcd614470565b5b90600052602060002001549050919050565b610fe8612455565b8181600f9182610ff992919061464c565b507ff9c7803e94e0d3c02900d8a90893a6d5e90dd04d32a4cfe825520f82bf9f32f6828260405161102b929190614749565b60405180910390a15050565b6000611042826124dc565b9050919050565b60008060008060008061105b87611c54565b9550601060008873ffffffffffffffffffffffffffffffffffffffff1673ffffffffffffffffffffffffffffffffffffffff16815260200190815260200160002060009054906101000a900473ffffffffffffffffffffffffffffffffffffffff169450601160008873ffffffffffffffffffffffffffffffffffffffff1673ffffffffffffffffffffffffffffffffffffffff16815260200190815260200160002054935060008611611110576000611114565b6103e85b9250600073ffffffffffffffffffffffffffffffffffffffff168573ffffffffffffffffffffffffffffffffffffffff161415801561115b5750600061115986611c54565b115b156111655760c891505b8183611171919061437c565b905091939550919395565b611184612455565b600073ffffffffffffffffffffffffffffffffffffffff168173ffffffffffffffffffffffffffffffffffffffff16036111f3576040517f08c379a00000000000000000000000000000000000000000000000000000000081526004016111ea906147b9565b60405180910390fd5b80600d60006101000a81548173ffffffffffffffffffffffffffffffffffffffff021916908373ffffffffffffffffffffffffffffffffffffffff1602179055508073ffffffffffffffffffffffffffffffffffffffff167fe06f0065e5f6511beeace6af426d46b3f1e64e4703bab5df8d5a3167e5e9222660405160405180910390a250565b600080601060008473ffffffffffffffffffffffffffffffffffffffff1673ffffffffffffffffffffffffffffffffffffffff16815260200190815260200160002060009054906101000a900473ffffffffffffffffffffffffffffffffffffffff169050600073ffffffffffffffffffffffffffffffffffffffff168173ffffffffffffffffffffffffffffffffffffffff160361131d57600091505061133b565b600061132882611c54565b11611334576000611337565b60c85b9150505b919050565b611348612455565b600073ffffffffffffffffffffffffffffffffffffffff168173ffffffffffffffffffffffffffffffffffffffff16036113b7576040517f08c379a00000000000000000000000000000000000000000000000000000000081526004016113ae90614825565b60405180910390fd5b80600c60006101000a81548173ffffffffffffffffffffffffffffffffffffffff021916908373ffffffffffffffffffffffffffffffffffffffff1602179055508073ffffffffffffffffffffffffffffffffffffffff167fcb0aeffe884eb88fb2a31a2f3e4bd1d2763bdee48ba93b28c6e87501228cf74360405160405180910390a250565b6114466126d8565b61056a600e541061148c576040517f08c379a000000000000000000000000000000000000000000000000000000000815260040161148390614891565b60405180910390fd5b600073ffffffffffffffffffffffffffffffffffffffff16600c60009054906101000a900473ffffffffffffffffffffffffffffffffffffffff1673ffffffffffffffffffffffffffffffffffffffff160361151d576040517f08c379a0000000000000000000000000000000000000000000000000000000008152600401611514906148fd565b60405180910390fd5b600033905061157a8130683635c9adc5dea00000600c60009054906101000a900473ffffffffffffffffffffffffffffffffffffffff1673ffffffffffffffffffffffffffffffffffffffff1661271e909392919063ffffffff16565b6115f2600d60009054906101000a900473ffffffffffffffffffffffffffffffffffffffff16683635c9adc5dea00000600c60009054906101000a900473ffffffffffffffffffffffffffffffffffffffff1673ffffffffffffffffffffffffffffffffffffffff166127a09092919063ffffffff16565b600073ffffffffffffffffffffffffffffffffffffffff16601060008373ffffffffffffffffffffffffffffffffffffffff1673ffffffffffffffffffffffffffffffffffffffff16815260200190815260200160002060009054906101000a900473ffffffffffffffffffffffffffffffffffffffff1673ffffffffffffffffffffffffffffffffffffffff161480156116ba5750600073ffffffffffffffffffffffffffffffffffffffff168273ffffffffffffffffffffffffffffffffffffffff1614155b80156116f257508073ffffffffffffffffffffffffffffffffffffffff168273ffffffffffffffffffffffffffffffffffffffff1614155b156118255781601060008373ffffffffffffffffffffffffffffffffffffffff1673ffffffffffffffffffffffffffffffffffffffff16815260200190815260200160002060006101000a81548173ffffffffffffffffffffffffffffffffffffffff021916908373ffffffffffffffffffffffffffffffffffffffff160217905550601160008373ffffffffffffffffffffffffffffffffffffffff1673ffffffffffffffffffffffffffffffffffffffff16815260200190815260200160002060008154809291906117c59061491d565b91905055508173ffffffffffffffffffffffffffffffffffffffff168173ffffffffffffffffffffffffffffffffffffffff167fc4c2ddb91b0f73749131d376ad37ce7b01a69dc1b477abc09377cf0e1d511b1460405160405180910390a35b6000600e600081548092919061183a9061491d565b91905055905061184a828261281f565b683635c9adc5dea0000060126000828254611865919061437c565b925050819055508273ffffffffffffffffffffffffffffffffffffffff16818373ffffffffffffffffffffffffffffffffffffffff167f0af9a342ed913fa4f711bacf7bf8d0cc51cece32ea071fd419408bcbb5ac020f683635c9adc5dea000006040516118d39190613b73565b60405180910390a450506118e561283d565b50565b601360009054906101000a900473ffffffffffffffffffffffffffffffffffffffff1673ffffffffffffffffffffffffffffffffffffffff163373ffffffffffffffffffffffffffffffffffffffff1614611978576040517f08c379a000000000000000000000000000000000000000000000000000000000815260040161196f906149b1565b60405180910390fd5b600073ffffffffffffffffffffffffffffffffffffffff16601060008473ffffffffffffffffffffffffffffffffffffffff1673ffffffffffffffffffffffffffffffffffffffff16815260200190815260200160002060009054906101000a900473ffffffffffffffffffffffffffffffffffffffff1673ffffffffffffffffffffffffffffffffffffffff1614611a46576040517f08c379a0000000000000000000000000000000000000000000000000000000008152600401611a3d90614a1d565b60405180910390fd5b8173ffffffffffffffffffffffffffffffffffffffff168173ffffffffffffffffffffffffffffffffffffffff1603611ab4576040517f08c379a0000000000000000000000000000000000000000000000000000000008152600401611aab90614a89565b60405180910390fd5b600073ffffffffffffffffffffffffffffffffffffffff168173ffffffffffffffffffffffffffffffffffffffff1603611b23576040517f08c379a0000000000000000000000000000000000000000000000000000000008152600401611b1a90614af5565b60405180910390fd5b80601060008473ffffffffffffffffffffffffffffffffffffffff1673ffffffffffffffffffffffffffffffffffffffff16815260200190815260200160002060006101000a81548173ffffffffffffffffffffffffffffffffffffffff021916908373ffffffffffffffffffffffffffffffffffffffff160217905550601160008273ffffffffffffffffffffffffffffffffffffffff1673ffffffffffffffffffffffffffffffffffffffff1681526020019081526020016000206000815480929190611bf19061491d565b91905055508073ffffffffffffffffffffffffffffffffffffffff168273ffffffffffffffffffffffffffffffffffffffff167fc4c2ddb91b0f73749131d376ad37ce7b01a69dc1b477abc09377cf0e1d511b1460405160405180910390a35050565b60008073ffffffffffffffffffffffffffffffffffffffff168273ffffffffffffffffffffffffffffffffffffffff1603611cc75760006040517f89c62b64000000000000000000000000000000000000000000000000000000008152600401611cbe9190613e02565b60405180910390fd5b600360008373ffffffffffffffffffffffffffffffffffffffff1673ffffffffffffffffffffffffffffffffffffffff168152602001908152602001600020549050919050565b611d16612455565b611d206000612847565b565b60008073ffffffffffffffffffffffffffffffffffffffff16600c60009054906101000a900473ffffffffffffffffffffffffffffffffffffffff1673ffffffffffffffffffffffffffffffffffffffff1603611d825760009050611e2f565b683635c9adc5dea00000600c60009054906101000a900473ffffffffffffffffffffffffffffffffffffffff1673ffffffffffffffffffffffffffffffffffffffff1663dd62ed3e84306040518363ffffffff1660e01b8152600401611de9929190614b15565b602060405180830381865afa158015611e06573d6000803e3d6000fd5b505050506040513d601f19601f82011682018060405250810190611e2a9190614b53565b101590505b919050565b60125481565b683635c9adc5dea0000081565b6000600a60009054906101000a900473ffffffffffffffffffffffffffffffffffffffff16905090565b606060018054611e80906143df565b80601f0160208091040260200160405190810160405280929190818152602001828054611eac906143df565b8015611ef95780601f10611ece57610100808354040283529160200191611ef9565b820191906000526020600020905b815481529060010190602001808311611edc57829003601f168201915b5050505050905090565b611f15611f0e6125a1565b838361290d565b5050565b60116020528060005260406000206000915090505481565b611f3c848484610c68565b611f4884848484612a7c565b50505050565b611f56612455565b600073ffffffffffffffffffffffffffffffffffffffff16601060008473ffffffffffffffffffffffffffffffffffffffff1673ffffffffffffffffffffffffffffffffffffffff16815260200190815260200160002060009054906101000a900473ffffffffffffffffffffffffffffffffffffffff1673ffffffffffffffffffffffffffffffffffffffff1614612024576040517f08c379a000000000000000000000000000000000000000000000000000000000815260040161201b90614a1d565b60405180910390fd5b8173ffffffffffffffffffffffffffffffffffffffff168173ffffffffffffffffffffffffffffffffffffffff1603612092576040517f08c379a000000000000000000000000000000000000000000000000000000000815260040161208990614a89565b60405180910390fd5b80601060008473ffffffffffffffffffffffffffffffffffffffff1673ffffffffffffffffffffffffffffffffffffffff16815260200190815260200160002060006101000a81548173ffffffffffffffffffffffffffffffffffffffff021916908373ffffffffffffffffffffffffffffffffffffffff160217905550601160008273ffffffffffffffffffffffffffffffffffffffff1673ffffffffffffffffffffffffffffffffffffffff16815260200190815260200160002060008154809291906121609061491d565b91905055508073ffffffffffffffffffffffffffffffffffffffff168273ffffffffffffffffffffffffffffffffffffffff167fc4c2ddb91b0f73749131d376ad37ce7b01a69dc1b477abc09377cf0e1d511b1460405160405180910390a35050565b60606121ce826124dc565b5060006121d9612c33565b905060008151116121f95760405180602001604052806000815250612224565b8061220384612cc5565b604051602001612214929190614bbc565b6040516020818303038152906040525b915050919050565b600080600080600e5461056a683635c9adc5dea00000601254935093509350935090919293565b61271081565b6000600560008473ffffffffffffffffffffffffffffffffffffffff1673ffffffffffffffffffffffffffffffffffffffff16815260200190815260200160002060008373ffffffffffffffffffffffffffffffffffffffff1673ffffffffffffffffffffffffffffffffffffffff16815260200190815260200160002060009054906101000a900460ff16905092915050565b6122f5612455565b600073ffffffffffffffffffffffffffffffffffffffff168173ffffffffffffffffffffffffffffffffffffffff16036123675760006040517f1e4fbdf700000000000000000000000000000000000000000000000000000000815260040161235e9190613e02565b60405180910390fd5b61237081612847565b50565b60007f80ac58cd000000000000000000000000000000000000000000000000000000007bffffffffffffffffffffffffffffffffffffffffffffffffffffffff1916827bffffffffffffffffffffffffffffffffffffffffffffffffffffffff1916148061243e57507f5b5e139f000000000000000000000000000000000000000000000000000000007bffffffffffffffffffffffffffffffffffffffffffffffffffffffff1916827bffffffffffffffffffffffffffffffffffffffffffffffffffffffff1916145b8061244e575061244d82612d93565b5b9050919050565b61245d6125a1565b73ffffffffffffffffffffffffffffffffffffffff1661247b611e47565b73ffffffffffffffffffffffffffffffffffffffff16146124da5761249e6125a1565b6040517f118cdaa70000000000000000000000000000000000000000000000000000000081526004016124d19190613e02565b60405180910390fd5b565b6000806124e883612dfd565b9050600073ffffffffffffffffffffffffffffffffffffffff168173ffffffffffffffffffffffffffffffffffffffff160361255b57826040517f7e2732890000000000000000000000000000000000000000000000000000000081526004016125529190613b73565b60405180910390fd5b80915050919050565b60006004600083815260200190815260200160002060009054906101000a900473ffffffffffffffffffffffffffffffffffffffff169050919050565b600033905090565b6125b68383836001612e3a565b505050565b6000806125c9858585612fff565b9050600073ffffffffffffffffffffffffffffffffffffffff168173ffffffffffffffffffffffffffffffffffffffff160361260d5761260884613219565b61264c565b8473ffffffffffffffffffffffffffffffffffffffff168173ffffffffffffffffffffffffffffffffffffffff161461264b5761264a8185613262565b5b5b600073ffffffffffffffffffffffffffffffffffffffff168573ffffffffffffffffffffffffffffffffffffffff160361268e57612689846133c3565b6126cd565b8473ffffffffffffffffffffffffffffffffffffffff168173ffffffffffffffffffffffffffffffffffffffff16146126cc576126cb8585613494565b5b5b809150509392505050565b6002600b5403612714576040517f3ee5aeb500000000000000000000000000000000000000000000000000000000815260040160405180910390fd5b6002600b81905550565b61279a848573ffffffffffffffffffffffffffffffffffffffff166323b872dd86868660405160240161275393929190614be0565b604051602081830303815290604052915060e01b6020820180517bffffffffffffffffffffffffffffffffffffffffffffffffffffffff838183161783525050505061351f565b50505050565b61281a838473ffffffffffffffffffffffffffffffffffffffff1663a9059cbb85856040516024016127d3929190614447565b604051602081830303815290604052915060e01b6020820180517bffffffffffffffffffffffffffffffffffffffffffffffffffffffff838183161783525050505061351f565b505050565b6128398282604051806020016040528060008152506135b6565b5050565b6001600b81905550565b6000600a60009054906101000a900473ffffffffffffffffffffffffffffffffffffffff16905081600a60006101000a81548173ffffffffffffffffffffffffffffffffffffffff021916908373ffffffffffffffffffffffffffffffffffffffff1602179055508173ffffffffffffffffffffffffffffffffffffffff168173ffffffffffffffffffffffffffffffffffffffff167f8be0079c531659141344cd1fd0a4f28419497f9722a3daafe3b4186f6b6457e060405160405180910390a35050565b600073ffffffffffffffffffffffffffffffffffffffff168273ffffffffffffffffffffffffffffffffffffffff160361297e57816040517f5b08ba180000000000000000000000000000000000000000000000000000000081526004016129759190613e02565b60405180910390fd5b80600560008573ffffffffffffffffffffffffffffffffffffffff1673ffffffffffffffffffffffffffffffffffffffff16815260200190815260200160002060008473ffffffffffffffffffffffffffffffffffffffff1673ffffffffffffffffffffffffffffffffffffffff16815260200190815260200160002060006101000a81548160ff0219169083151502179055508173ffffffffffffffffffffffffffffffffffffffff168373ffffffffffffffffffffffffffffffffffffffff167f17307eab39ab6107e8899845ad3d59bd9653f200f220920489ca2b5937696c3183604051612a6f9190613c42565b60405180910390a3505050565b60008373ffffffffffffffffffffffffffffffffffffffff163b1115612c2d578273ffffffffffffffffffffffffffffffffffffffff1663150b7a02612ac06125a1565b8685856040518563ffffffff1660e01b8152600401612ae29493929190614c6c565b6020604051808303816000875af1925050508015612b1e57506040513d601f19601f82011682018060405250810190612b1b9190614ccd565b60015b612ba2573d8060008114612b4e576040519150601f19603f3d011682016040523d82523d6000602084013e612b53565b606091505b506000815103612b9a57836040517f64a0ae92000000000000000000000000000000000000000000000000000000008152600401612b919190613e02565b60405180910390fd5b805181602001fd5b63150b7a0260e01b7bffffffffffffffffffffffffffffffffffffffffffffffffffffffff1916817bffffffffffffffffffffffffffffffffffffffffffffffffffffffff191614612c2b57836040517f64a0ae92000000000000000000000000000000000000000000000000000000008152600401612c229190613e02565b60405180910390fd5b505b50505050565b6060600f8054612c42906143df565b80601f0160208091040260200160405190810160405280929190818152602001828054612c6e906143df565b8015612cbb5780601f10612c9057610100808354040283529160200191612cbb565b820191906000526020600020905b815481529060010190602001808311612c9e57829003601f168201915b5050505050905090565b606060006001612cd4846135d2565b01905060008167ffffffffffffffff811115612cf357612cf26140ee565b5b6040519080825280601f01601f191660200182016040528015612d255781602001600182028036833780820191505090505b509050600082602001820190505b600115612d88578080600190039150507f3031323334353637383961626364656600000000000000000000000000000000600a86061a8153600a8581612d7c57612d7b614cfa565b5b04945060008503612d33575b819350505050919050565b60007f01ffc9a7000000000000000000000000000000000000000000000000000000007bffffffffffffffffffffffffffffffffffffffffffffffffffffffff1916827bffffffffffffffffffffffffffffffffffffffffffffffffffffffff1916149050919050565b60006002600083815260200190815260200160002060009054906101000a900473ffffffffffffffffffffffffffffffffffffffff169050919050565b8080612e735750600073ffffffffffffffffffffffffffffffffffffffff168273ffffffffffffffffffffffffffffffffffffffff1614155b15612fa7576000612e83846124dc565b9050600073ffffffffffffffffffffffffffffffffffffffff168373ffffffffffffffffffffffffffffffffffffffff1614158015612eee57508273ffffffffffffffffffffffffffffffffffffffff168173ffffffffffffffffffffffffffffffffffffffff1614155b8015612f015750612eff8184612259565b155b15612f4357826040517fa9fbf51f000000000000000000000000000000000000000000000000000000008152600401612f3a9190613e02565b60405180910390fd5b8115612fa557838573ffffffffffffffffffffffffffffffffffffffff168273ffffffffffffffffffffffffffffffffffffffff167f8c5be1e5ebec7d5bd14f71427d1e84f3dd0314c0f7b2291e5b200ac8c7c3b92560405160405180910390a45b505b836004600085815260200190815260200160002060006101000a81548173ffffffffffffffffffffffffffffffffffffffff021916908373ffffffffffffffffffffffffffffffffffffffff16021790555050505050565b60008061300b84612dfd565b9050600073ffffffffffffffffffffffffffffffffffffffff168373ffffffffffffffffffffffffffffffffffffffff161461304d5761304c818486613725565b5b600073ffffffffffffffffffffffffffffffffffffffff168173ffffffffffffffffffffffffffffffffffffffff16146130de5761308f600085600080612e3a565b6001600360008373ffffffffffffffffffffffffffffffffffffffff1673ffffffffffffffffffffffffffffffffffffffff168152602001908152602001600020600082825403925050819055505b600073ffffffffffffffffffffffffffffffffffffffff168573ffffffffffffffffffffffffffffffffffffffff1614613161576001600360008773ffffffffffffffffffffffffffffffffffffffff1673ffffffffffffffffffffffffffffffffffffffff168152602001908152602001600020600082825401925050819055505b846002600086815260200190815260200160002060006101000a81548173ffffffffffffffffffffffffffffffffffffffff021916908373ffffffffffffffffffffffffffffffffffffffff160217905550838573ffffffffffffffffffffffffffffffffffffffff168273ffffffffffffffffffffffffffffffffffffffff167fddf252ad1be2c89b69c2b068fc378daa952ba7f163c4a11628f55a4df523b3ef60405160405180910390a4809150509392505050565b6008805490506009600083815260200190815260200160002081905550600881908060018154018082558091505060019003906000526020600020016000909190919091505550565b600061326d83611c54565b9050600060076000848152602001908152602001600020549050818114613352576000600660008673ffffffffffffffffffffffffffffffffffffffff1673ffffffffffffffffffffffffffffffffffffffff168152602001908152602001600020600084815260200190815260200160002054905080600660008773ffffffffffffffffffffffffffffffffffffffff1673ffffffffffffffffffffffffffffffffffffffff168152602001908152602001600020600084815260200190815260200160002081905550816007600083815260200190815260200160002081905550505b6007600084815260200190815260200160002060009055600660008573ffffffffffffffffffffffffffffffffffffffff1673ffffffffffffffffffffffffffffffffffffffff16815260200190815260200160002060008381526020019081526020016000206000905550505050565b600060016008805490506133d79190614d29565b905060006009600084815260200190815260200160002054905060006008838154811061340757613406614470565b5b90600052602060002001549050806008838154811061342957613428614470565b5b90600052602060002001819055508160096000838152602001908152602001600020819055506009600085815260200190815260200160002060009055600880548061347857613477614d5d565b5b6001900381819060005260206000200160009055905550505050565b600060016134a184611c54565b6134ab9190614d29565b905081600660008573ffffffffffffffffffffffffffffffffffffffff1673ffffffffffffffffffffffffffffffffffffffff168152602001908152602001600020600083815260200190815260200160002081905550806007600084815260200190815260200160002081905550505050565b600061354a828473ffffffffffffffffffffffffffffffffffffffff166137e990919063ffffffff16565b9050600081511415801561356f57508080602001905181019061356d9190614da1565b155b156135b157826040517f5274afe70000000000000000000000000000000000000000000000000000000081526004016135a89190613e02565b60405180910390fd5b505050565b6135c083836137ff565b6135cd6000848484612a7c565b505050565b600080600090507a184f03e93ff9f4daa797ed6e38ed64bf6a1f0100000000000000008310613630577a184f03e93ff9f4daa797ed6e38ed64bf6a1f010000000000000000838161362657613625614cfa565b5b0492506040810190505b6d04ee2d6d415b85acef8100000000831061366d576d04ee2d6d415b85acef8100000000838161366357613662614cfa565b5b0492506020810190505b662386f26fc10000831061369c57662386f26fc10000838161369257613691614cfa565b5b0492506010810190505b6305f5e10083106136c5576305f5e10083816136bb576136ba614cfa565b5b0492506008810190505b61271083106136ea5761271083816136e0576136df614cfa565b5b0492506004810190505b6064831061370d576064838161370357613702614cfa565b5b0492506002810190505b600a831061371c576001810190505b80915050919050565b6137308383836138f8565b6137e457600073ffffffffffffffffffffffffffffffffffffffff168373ffffffffffffffffffffffffffffffffffffffff16036137a557806040517f7e27328900000000000000000000000000000000000000000000000000000000815260040161379c9190613b73565b60405180910390fd5b81816040517f177e802f0000000000000000000000000000000000000000000000000000000081526004016137db929190614447565b60405180910390fd5b505050565b60606137f7838360006139b9565b905092915050565b600073ffffffffffffffffffffffffffffffffffffffff168273ffffffffffffffffffffffffffffffffffffffff16036138715760006040517f64a0ae920000000000000000000000000000000000000000000000000000000081526004016138689190613e02565b60405180910390fd5b600061387f838360006125bb565b9050600073ffffffffffffffffffffffffffffffffffffffff168173ffffffffffffffffffffffffffffffffffffffff16146138f35760006040517f73c6ac6e0000000000000000000000000000000000000000000000000000000081526004016138ea9190613e02565b60405180910390fd5b505050565b60008073ffffffffffffffffffffffffffffffffffffffff168373ffffffffffffffffffffffffffffffffffffffff16141580156139b057508273ffffffffffffffffffffffffffffffffffffffff168473ffffffffffffffffffffffffffffffffffffffff16148061397157506139708484612259565b5b806139af57508273ffffffffffffffffffffffffffffffffffffffff1661399783612564565b73ffffffffffffffffffffffffffffffffffffffff16145b5b90509392505050565b606081471015613a0057306040517fcd7860590000000000000000000000000000000000000000000000000000000081526004016139f79190613e02565b60405180910390fd5b6000808573ffffffffffffffffffffffffffffffffffffffff168486604051613a299190614e0a565b60006040518083038185875af1925050503d8060008114613a66576040519150601f19603f3d011682016040523d82523d6000602084013e613a6b565b606091505b5091509150613a7b868383613a86565b925050509392505050565b606082613a9b57613a9682613b15565b613b0d565b60008251148015613ac3575060008473ffffffffffffffffffffffffffffffffffffffff163b145b15613b0557836040517f9996b315000000000000000000000000000000000000000000000000000000008152600401613afc9190613e02565b60405180910390fd5b819050613b0e565b5b9392505050565b600081511115613b285780518082602001fd5b6040517f1425ea4200000000000000000000000000000000000000000000000000000000815260040160405180910390fd5b6000819050919050565b613b6d81613b5a565b82525050565b6000602082019050613b886000830184613b64565b92915050565b6000604051905090565b600080fd5b600080fd5b60007fffffffff0000000000000000000000000000000000000000000000000000000082169050919050565b613bd781613ba2565b8114613be257600080fd5b50565b600081359050613bf481613bce565b92915050565b600060208284031215613c1057613c0f613b98565b5b6000613c1e84828501613be5565b91505092915050565b60008115159050919050565b613c3c81613c27565b82525050565b6000602082019050613c576000830184613c33565b92915050565b600073ffffffffffffffffffffffffffffffffffffffff82169050919050565b6000613c8882613c5d565b9050919050565b613c9881613c7d565b8114613ca357600080fd5b50565b600081359050613cb581613c8f565b92915050565b600060208284031215613cd157613cd0613b98565b5b6000613cdf84828501613ca6565b91505092915050565b600081519050919050565b600082825260208201905092915050565b60005b83811015613d22578082015181840152602081019050613d07565b60008484015250505050565b6000601f19601f8301169050919050565b6000613d4a82613ce8565b613d548185613cf3565b9350613d64818560208601613d04565b613d6d81613d2e565b840191505092915050565b60006020820190508181036000830152613d928184613d3f565b905092915050565b613da381613b5a565b8114613dae57600080fd5b50565b600081359050613dc081613d9a565b92915050565b600060208284031215613ddc57613ddb613b98565b5b6000613dea84828501613db1565b91505092915050565b613dfc81613c7d565b82525050565b6000602082019050613e176000830184613df3565b92915050565b60008060408385031215613e3457613e33613b98565b5b6000613e4285828601613ca6565b9250506020613e5385828601613db1565b9150509250929050565b600080600060608486031215613e7657613e75613b98565b5b6000613e8486828701613ca6565b9350506020613e9586828701613ca6565b9250506040613ea686828701613db1565b9150509250925092565b6000819050919050565b6000613ed5613ed0613ecb84613c5d565b613eb0565b613c5d565b9050919050565b6000613ee782613eba565b9050919050565b6000613ef982613edc565b9050919050565b613f0981613eee565b82525050565b6000602082019050613f246000830184613f00565b92915050565b600080fd5b600080fd5b600080fd5b60008083601f840112613f4f57613f4e613f2a565b5b8235905067ffffffffffffffff811115613f6c57613f6b613f2f565b5b602083019150836001820283011115613f8857613f87613f34565b5b9250929050565b60008060208385031215613fa657613fa5613b98565b5b600083013567ffffffffffffffff811115613fc457613fc3613b9d565b5b613fd085828601613f39565b92509250509250929050565b600060c082019050613ff16000830189613b64565b613ffe6020830188613df3565b61400b6040830187613b64565b6140186060830186613b64565b6140256080830185613b64565b61403260a0830184613b64565b979650505050505050565b6000806040838503121561405457614053613b98565b5b600061406285828601613ca6565b925050602061407385828601613ca6565b9150509250929050565b61408681613c27565b811461409157600080fd5b50565b6000813590506140a38161407d565b92915050565b600080604083850312156140c0576140bf613b98565b5b60006140ce85828601613ca6565b92505060206140df85828601614094565b9150509250929050565b600080fd5b7f4e487b7100000000000000000000000000000000000000000000000000000000600052604160045260246000fd5b61412682613d2e565b810181811067ffffffffffffffff82111715614145576141446140ee565b5b80604052505050565b6000614158613b8e565b9050614164828261411d565b919050565b600067ffffffffffffffff821115614184576141836140ee565b5b61418d82613d2e565b9050602081019050919050565b82818337600083830152505050565b60006141bc6141b784614169565b61414e565b9050828152602081018484840111156141d8576141d76140e9565b5b6141e384828561419a565b509392505050565b600082601f830112614200576141ff613f2a565b5b81356142108482602086016141a9565b91505092915050565b6000806000806080858703121561423357614232613b98565b5b600061424187828801613ca6565b945050602061425287828801613ca6565b935050604061426387828801613db1565b925050606085013567ffffffffffffffff81111561428457614283613b9d565b5b614290878288016141eb565b91505092959194509250565b60006080820190506142b16000830187613b64565b6142be6020830186613b64565b6142cb6040830185613b64565b6142d86060830184613b64565b95945050505050565b7f496e76616c696420497679426f6e642061646472657373000000000000000000600082015250565b6000614317601783613cf3565b9150614322826142e1565b602082019050919050565b600060208201905081810360008301526143468161430a565b9050919050565b7f4e487b7100000000000000000000000000000000000000000000000000000000600052601160045260246000fd5b600061438782613b5a565b915061439283613b5a565b92508282019050808211156143aa576143a961434d565b5b92915050565b7f4e487b7100000000000000000000000000000000000000000000000000000000600052602260045260246000fd5b600060028204905060018216806143f757607f821691505b60208210810361440a576144096143b0565b5b50919050565b60006060820190506144256000830186613df3565b6144326020830185613b64565b61443f6040830184613df3565b949350505050565b600060408201905061445c6000830185613df3565b6144696020830184613b64565b9392505050565b7f4e487b7100000000000000000000000000000000000000000000000000000000600052603260045260246000fd5b600082905092915050565b60008190508160005260206000209050919050565b60006020601f8301049050919050565b600082821b905092915050565b60006008830261450c7fffffffffffffffffffffffffffffffffffffffffffffffffffffffffffffffff826144cf565b61451686836144cf565b95508019841693508086168417925050509392505050565b600061454961454461453f84613b5a565b613eb0565b613b5a565b9050919050565b6000819050919050565b6145638361452e565b61457761456f82614550565b8484546144dc565b825550505050565b600090565b61458c61457f565b61459781848461455a565b505050565b5b818110156145bb576145b0600082614584565b60018101905061459d565b5050565b601f821115614600576145d1816144aa565b6145da846144bf565b810160208510156145e9578190505b6145fd6145f5856144bf565b83018261459c565b50505b505050565b600082821c905092915050565b600061462360001984600802614605565b1980831691505092915050565b600061463c8383614612565b9150826002028217905092915050565b614656838361449f565b67ffffffffffffffff81111561466f5761466e6140ee565b5b61467982546143df565b6146848282856145bf565b6000601f8311600181146146b357600084156146a1578287013590505b6146ab8582614630565b865550614713565b601f1984166146c1866144aa565b60005b828110156146e9578489013582556001820191506020850194506020810190506146c4565b868310156147065784890135614702601f891682614612565b8355505b6001600288020188555050505b50505050505050565b60006147288385613cf3565b935061473583858461419a565b61473e83613d2e565b840190509392505050565b6000602082019050818103600083015261476481848661471c565b90509392505050565b7f496e76616c69642077616c6c6574206164647265737300000000000000000000600082015250565b60006147a3601683613cf3565b91506147ae8261476d565b602082019050919050565b600060208201905081810360008301526147d281614796565b9050919050565b7f496e76616c696420746f6b656e20616464726573730000000000000000000000600082015250565b600061480f601583613cf3565b915061481a826147d9565b602082019050919050565b6000602082019050818103600083015261483e81614802565b9050919050565b7f4d617820737570706c7920726561636865640000000000000000000000000000600082015250565b600061487b601283613cf3565b915061488682614845565b602082019050919050565b600060208201905081810360008301526148aa8161486e565b9050919050565b7f5061796d656e7420746f6b656e206e6f74207365740000000000000000000000600082015250565b60006148e7601583613cf3565b91506148f2826148b1565b602082019050919050565b60006020820190508181036000830152614916816148da565b9050919050565b600061492882613b5a565b91507fffffffffffffffffffffffffffffffffffffffffffffffffffffffffffffffff820361495a5761495961434d565b5b600182019050919050565b7f4f6e6c7920497679426f6e642063616e2063616c6c0000000000000000000000600082015250565b600061499b601583613cf3565b91506149a682614965565b602082019050919050565b600060208201905081810360008301526149ca8161498e565b9050919050565b7f526566657272657220616c726561647920736574000000000000000000000000600082015250565b6000614a07601483613cf3565b9150614a12826149d1565b602082019050919050565b60006020820190508181036000830152614a36816149fa565b9050919050565b7f43616e6e6f742073656c662d7265666572000000000000000000000000000000600082015250565b6000614a73601183613cf3565b9150614a7e82614a3d565b602082019050919050565b60006020820190508181036000830152614aa281614a66565b9050919050565b7f496e76616c696420726566657272657200000000000000000000000000000000600082015250565b6000614adf601083613cf3565b9150614aea82614aa9565b602082019050919050565b60006020820190508181036000830152614b0e81614ad2565b9050919050565b6000604082019050614b2a6000830185613df3565b614b376020830184613df3565b9392505050565b600081519050614b4d81613d9a565b92915050565b600060208284031215614b6957614b68613b98565b5b6000614b7784828501614b3e565b91505092915050565b600081905092915050565b6000614b9682613ce8565b614ba08185614b80565b9350614bb0818560208601613d04565b80840191505092915050565b6000614bc88285614b8b565b9150614bd48284614b8b565b91508190509392505050565b6000606082019050614bf56000830186613df3565b614c026020830185613df3565b614c0f6040830184613b64565b949350505050565b600081519050919050565b600082825260208201905092915050565b6000614c3e82614c17565b614c488185614c22565b9350614c58818560208601613d04565b614c6181613d2e565b840191505092915050565b6000608082019050614c816000830187613df3565b614c8e6020830186613df3565b614c9b6040830185613b64565b8181036060830152614cad8184614c33565b905095945050505050565b600081519050614cc781613bce565b92915050565b600060208284031215614ce357614ce2613b98565b5b6000614cf184828501614cb8565b91505092915050565b7f4e487b7100000000000000000000000000000000000000000000000000000000600052601260045260246000fd5b6000614d3482613b5a565b9150614d3f83613b5a565b9250828203905081811115614d5757614d5661434d565b5b92915050565b7f4e487b7100000000000000000000000000000000000000000000000000000000600052603160045260246000fd5b600081519050614d9b8161407d565b92915050565b600060208284031215614db757614db6613b98565b5b6000614dc584828501614d8c565b91505092915050565b600081905092915050565b6000614de482614c17565b614dee8185614dce565b9350614dfe818560208601613d04565b80840191505092915050565b6000614e168284614dd9565b91508190509291505056fea2646970667358221220e433404b4ef65ea19e49a7623718a6bcd184a4414be5fb93e3f185da1e01037264736f6c63430008140033",
  "linkReferences": {},
  "deployedLinkReferences": {}
}