{
  "_format": "hh-sol-artifact-1",
  "contractName": "GenesisNode",
  "sourceName": "contracts/GenesisNode.sol",
  "abi": [
    {
      "inputs": [
        {
          "internalType": "address",
          "name": "_teamOpsWallet",
          "type": "address"
        }
      ],
      "stateMutability": "nonpayable",
      "type": "constructor"
    },
    {
      "inputs": [
        {
          "internalType": "address",
          "name": "target",
          "type": "address"
        }
      ],
      "name": "AddressEmptyCode",
      "type": "error"
    },
    {
      "inputs": [
        {
          "internalType": "address",
          "name": "account",
          "type": "address"
        }
      ],
      "name": "AddressInsufficientBalance",
      "type": "error"
    },
    {
      "inputs": [],
      "name": "ERC721EnumerableForbiddenBatchMint",
      "type": "error"
    },
    {
      "inputs": [
        {
          "internalType": "address",
          "name": "sender",
          "type": "address"
        },
        {
          "internalType": "uint256",
          "name": "tokenId",
          "type": "uint256"
        },
        {
          "internalType": "address",
          "name": "owner",
          "type": "address"
        }
      ],
      "name": "ERC721IncorrectOwner",
      "type": "error"
    },
    {
      "inputs": [
        {
          "internalType": "address",
          "name": "operator",
          "type": "address"
        },
        {
          "internalType": "uint256",
          "name": "tokenId",
          "type": "uint256"
        }
      ],
      "name": "ERC721InsufficientApproval",
      "type": "error"
    },
    {
      "inputs": [
        {
          "internalType": "address",
          "name": "approver",
          "type": "address"
        }
      ],
      "name": "ERC721InvalidApprover",
      "type": "error"
    },
    {
      "inputs": [
        {
          "internalType": "address",
          "name": "operator",
          "type": "address"
        }
      ],
      "name": "ERC721InvalidOperator",
      "type": "error"
    },
    {
      "inputs": [
        {
          "internalType": "address",
          "name": "owner",
          "type": "address"
        }
      ],
      "name": "ERC721InvalidOwner",
      "type": "error"
    },
    {
      "inputs": [
        {
          "internalType": "address",
          "name": "receiver",
          "type": "address"
        }
      ],
      "name": "ERC721InvalidReceiver",
      "type": "error"
    },
    {
      "inputs": [
        {
          "internalType": "address",
          "name": "sender",
          "type": "address"
        }
      ],
      "name": "ERC721InvalidSender",
      "type": "error"
    },
    {
      "inputs": [
        {
          "internalType": "uint256",
          "name": "tokenId",
          "type": "uint256"
        }
      ],
      "name": "ERC721NonexistentToken",
      "type": "error"
    },
    {
      "inputs": [
        {
          "internalType": "address",
          "name": "owner",
          "type": "address"
        },
        {
          "internalType": "uint256",
          "name": "index",
          "type": "uint256"
        }
      ],
      "name": "ERC721OutOfBoundsIndex",
      "type": "error"
    },
    {
      "inputs": [],
      "name": "FailedInnerCall",
      "type": "error"
    },
    {
      "inputs": [
        {
          "internalType": "address",
          "name": "owner",
          "type": "address"
        }
      ],
      "name": "OwnableInvalidOwner",
      "type": "error"
    },
    {
      "inputs": [
        {
          "internalType": "address",
          "name": "account",
          "type": "address"
        }
      ],
      "name": "OwnableUnauthorizedAccount",
      "type": "error"
    },
    {
      "inputs": [],
      "name": "ReentrancyGuardReentrantCall",
      "type": "error"
    },
    {
      "inputs": [
        {
          "internalType": "address",
          "name": "token",
          "type": "address"
        }
      ],
      "name": "SafeERC20FailedOperation",
      "type": "error"
    },
    {
      "anonymous": false,
      "inputs": [
        {
          "indexed": true,
          "internalType": "address",
          "name": "owner",
          "type": "address"
        },
        {
          "indexed": true,
          "internalType": "address",
          "name": "approved",
          "type": "address"
        },
        {
          "indexed": true,
          "internalType": "uint256",
          "name": "tokenId",
          "type": "uint256"
        }
      ],
      "name": "Approval",
      "type": "event"
    },
    {
      "anonymous": false,
      "inputs": [
        {
          "indexed": true,
          "internalType": "address",
          "name": "owner",
          "type": "address"
        },
        {
          "indexed": true,
          "internalType": "address",
          "name": "operator",
          "type": "address"
        },
        {
          "indexed": false,
          "internalType": "bool",
          "name": "approved",
          "type": "bool"
        }
      ],
      "name": "ApprovalForAll",
      "type": "event"
    },
    {
      "anonymous": false,
      "inputs": [
        {
          "indexed": false,
          "internalType": "string",
          "name": "baseURI",
          "type": "string"
        }
      ],
      "name": "BaseURISet",
      "type": "event"
    },
    {
      "anonymous": false,
      "inputs": [
        {
          "indexed": true,
          "internalType": "address",
          "name": "buyer",
          "type": "address"
        },
        {
          "indexed": true,
          "internalType": "uint256",
          "name": "tokenId",
          "type": "uint256"
        },
        {
          "indexed": true,
          "internalType": "address",
          "name": "referrer",
          "type": "address"
        },
        {
          "indexed": false,
          "internalType": "uint256",
          "name": "price",
          "type": "uint256"
        }
      ],
      "name": "NodeMinted",
      "type": "event"
    },
    {
      "anonymous": false,
      "inputs": [
        {
          "indexed": true,
          "internalType": "address",
          "name": "previousOwner",
          "type": "address"
        },
        {
          "indexed": true,
          "internalType": "address",
          "name": "newOwner",
          "type": "address"
        }
      ],
      "name": "OwnershipTransferred",
      "type": "event"
    },
    {
      "anonymous": false,
      "inputs": [
        {
          "indexed": true,
          "internalType": "address",
          "name": "token",
          "type": "address"
        }
      ],
      "name": "PaymentTokenSet",
      "type": "event"
    },
    {
      "anonymous": false,
      "inputs": [
        {
          "indexed": true,
          "internalType": "address",
          "name": "user",
          "type": "address"
        },
        {
          "indexed": true,
          "internalType": "address",
          "name": "referrer",
          "type": "address"
        }
      ],
      "name": "ReferrerBound",
      "type": "event"
    },
    {
      "anonymous": false,
      "inputs": [
        {
          "indexed": true,
          "internalType": "address",
          "name": "wallet",
          "type": "address"
        }
      ],
      "name": "TeamOpsWalletSet",
      "type": "event"
    },
    {
      "anonymous": false,
      "inputs": [
        {
          "indexed": true,
          "internalType": "address",
          "name": "from",
          "type": "address"
        },
        {
          "indexed": true,
          "internalType": "address",
          "name": "to",
          "type": "address"
        },
        {
          "indexed": true,
          "internalType": "uint256",
          "name": "tokenId",
          "type": "uint256"
        }
      ],
      "name": "Transfer",
      "type": "event"
    },
    {
      "inputs": [],
      "name": "BASIS_POINTS",
      "outputs": [
        {
          "internalType": "uint256",
          "name": "",
          "type": "uint256"
        }
      ],
      "stateMutability": "view",
      "type": "function"
    },
    {
      "inputs": [],
      "name": "MAX_SUPPLY",
      "outputs": [
        {
          "internalType": "uint256",
          "name": "",
          "type": "uint256"
        }
      ],
      "stateMutability": "view",
      "type": "function"
    },
    {
      "inputs": [],
      "name": "NODE_PRICE",
      "outputs": [
        {
          "internalType": "uint256",
          "name": "",
          "type": "uint256"
        }
      ],
      "stateMutability": "view",
      "type": "function"
    },
    {
      "inputs": [],
      "name": "SELF_BOOST",
      "outputs": [
        {
          "internalType": "uint256",
          "name": "",
          "type": "uint256"
        }
      ],
      "stateMutability": "view",
      "type": "function"
    },
    {
      "inputs": [],
      "name": "TEAM_AURA",
      "outputs": [
        {
          "internalType": "uint256",
          "name": "",
          "type": "uint256"
        }
      ],
      "stateMutability": "view",
      "type": "function"
    },
    {
      "inputs": [
        {
          "internalType": "address",
          "name": "to",
          "type": "address"
        },
        {
          "internalType": "uint256",
          "name": "tokenId",
          "type": "uint256"
        }
      ],
      "name": "approve",
      "outputs": [],
      "stateMutability": "nonpayable",
      "type": "function"
    },
    {
      "inputs": [
        {
          "internalType": "address",
          "name": "owner",
          "type": "address"
        }
      ],
      "name": "balanceOf",
      "outputs": [
        {
          "internalType": "uint256",
          "name": "",
          "type": "uint256"
        }
      ],
      "stateMutability": "view",
      "type": "function"
    },
    {
      "inputs": [
        {
          "internalType": "address",
          "name": "user",
          "type": "address"
        },
        {
          "internalType": "address",
          "name": "referrer",
          "type": "address"
        }
      ],
      "name": "bindReferrerFromBond",
      "outputs": [],
      "stateMutability": "nonpayable",
      "type": "function"
    },
    {
      "inputs": [
        {
          "internalType": "address",
          "name": "",
          "type": "address"
        }
      ],
      "name": "directReferralCount",
      "outputs": [
        {
          "internalType": "uint256",
          "name": "",
          "type": "uint256"
        }
      ],
      "stateMutability": "view",
      "type": "function"
    },
    {
      "inputs": [
        {
          "internalType": "uint256",
          "name": "tokenId",
          "type": "uint256"
        }
      ],
      "name": "getApproved",
      "outputs": [
        {
          "internalType": "address",
          "name": "",
          "type": "address"
        }
      ],
      "stateMutability": "view",
      "type": "function"
    },
    {
      "inputs": [],
      "name": "getContractStats",
      "outputs": [
        {
          "internalType": "uint256",
          "name": "currentSupply",
          "type": "uint256"
        },
        {
          "internalType": "uint256",
          "name": "maxSupply",
          "type": "uint256"
        },
        {
          "internalType": "uint256",
          "name": "price",
          "type": "uint256"
        },
        {
          "internalType": "uint256",
          "name": "totalVolume",
          "type": "uint256"
        }
      ],
      "stateMutability": "view",
      "type": "function"
    },
    {
      "inputs": [
        {
          "internalType": "address",
          "name": "user",
          "type": "address"
        }
      ],
      "name": "getReferrer",
      "outputs": [
        {
          "internalType": "address",
          "name": "",
          "type": "address"
        }
      ],
      "stateMutability": "view",
      "type": "function"
    },
    {
      "inputs": [
        {
          "internalType": "address",
          "name": "user",
          "type": "address"
        }
      ],
      "name": "getSelfBoost",
      "outputs": [
        {
          "internalType": "uint256",
          "name": "",
          "type": "uint256"
        }
      ],
      "stateMutability": "view",
      "type": "function"
    },
    {
      "inputs": [
        {
          "internalType": "address",
          "name": "user",
          "type": "address"
        }
      ],
      "name": "getTeamAura",
      "outputs": [
        {
          "internalType": "uint256",
          "name": "",
          "type": "uint256"
        }
      ],
      "stateMutability": "view",
      "type": "function"
    },
    {
      "inputs": [
        {
          "internalType": "address",
          "name": "user",
          "type": "address"
        }
      ],
      "name": "getTotalBoost",
      "outputs": [
        {
          "internalType": "uint256",
          "name": "",
          "type": "uint256"
        }
      ],
      "stateMutability": "view",
      "type": "function"
    },
    {
      "inputs": [
        {
          "internalType": "address",
          "name": "user",
          "type": "address"
        }
      ],
      "name": "getUserInfo",
      "outputs": [
        {
          "internalType": "uint256",
          "name": "nftBalance",
          "type": "uint256"
        },
        {
          "internalType": "address",
          "name": "referrer",
          "type": "address"
        },
        {
          "internalType": "uint256",
          "name": "directDownlines",
          "type": "uint256"
        },
        {
          "internalType": "uint256",
          "name": "selfBoost",
          "type": "uint256"
        },
        {
          "internalType": "uint256",
          "name": "teamAura",
          "type": "uint256"
        },
        {
          "internalType": "uint256",
          "name": "totalBoost",
          "type": "uint256"
        }
      ],
      "stateMutability": "view",
      "type": "function"
    },
    {
      "inputs": [
        {
          "internalType": "address",
          "name": "user",
          "type": "address"
        }
      ],
      "name": "hasApprovedMint",
      "outputs": [
        {
          "internalType": "bool",
          "name": "",
          "type": "bool"
        }
      ],
      "stateMutability": "view",
      "type": "function"
    },
    {
      "inputs": [
        {
          "internalType": "address",
          "name": "user",
          "type": "address"
        }
      ],
      "name": "hasReferrer",
      "outputs": [
        {
          "internalType": "bool",
          "name": "",
          "type": "bool"
        }
      ],
      "stateMutability": "view",
      "type": "function"
    },
    {
      "inputs": [
        {
          "internalType": "address",
          "name": "owner",
          "type": "address"
        },
        {
          "internalType": "address",
          "name": "operator",
          "type": "address"
        }
      ],
      "name": "isApprovedForAll",
      "outputs": [
        {
          "internalType": "bool",
          "name": "",
          "type": "bool"
        }
      ],
      "stateMutability": "view",
      "type": "function"
    },
    {
      "inputs": [],
      "name": "ivyBond",
      "outputs": [
        {
          "internalType": "address",
          "name": "",
          "type": "address"
        }
      ],
      "stateMutability": "view",
      "type": "function"
    },
    {
      "inputs": [
        {
          "internalType": "address",
          "name": "referrer",
          "type": "address"
        }
      ],
      "name": "mint",
      "outputs": [],
      "stateMutability": "nonpayable",
      "type": "function"
    },
    {
      "inputs": [],
      "name": "name",
      "outputs": [
        {
          "internalType": "string",
          "name": "",
          "type": "string"
        }
      ],
      "stateMutability": "view",
      "type": "function"
    },
    {
      "inputs": [],
      "name": "owner",
      "outputs": [
        {
          "internalType": "address",
          "name": "",
          "type": "address"
        }
      ],
      "stateMutability": "view",
      "type": "function"
    },
    {
      "inputs": [
        {
          "internalType": "uint256",
          "name": "tokenId",
          "type": "uint256"
        }
      ],
      "name": "ownerOf",
      "outputs": [
        {
          "internalType": "address",
          "name": "",
          "type": "address"
        }
      ],
      "stateMutability": "view",
      "type": "function"
    },
    {
      "inputs": [],
      "name": "paymentToken",
      "outputs": [
        {
          "internalType": "contract IERC20",
          "name": "",
          "type": "address"
        }
      ],
      "stateMutability": "view",
      "type": "function"
    },
    {
      "inputs": [
        {
          "internalType": "address",
          "name": "",
          "type": "address"
        }
      ],
      "name": "referrers",
      "outputs": [
        {
          "internalType": "address",
          "name": "",
          "type": "address"
        }
      ],
      "stateMutability": "view",
      "type": "function"
    },
    {
      "inputs": [],
      "name": "renounceOwnership",
      "outputs": [],
      "stateMutability": "nonpayable",
      "type": "function"
    },
    {
      "inputs": [
        {
          "internalType": "address",
          "name": "from",
          "type": "address"
        },
        {
          "internalType": "address",
          "name": "to",
          "type": "address"
        },
        {
          "internalType": "uint256",
          "name": "tokenId",
          "type": "uint256"
        }
      ],
      "name": "safeTransferFrom",
      "outputs": [],
      "stateMutability": "nonpayable",
      "type": "function"
    },
    {
      "inputs": [
        {
          "internalType": "address",
          "name": "from",
          "type": "address"
        },
        {
          "internalType": "address",
          "name": "to",
          "type": "address"
        },
        {
          "internalType": "uint256",
          "name": "tokenId",
          "type": "uint256"
        },
        {
          "internalType": "bytes",
          "name": "data",
          "type": "bytes"
        }
      ],
      "name": "safeTransferFrom",
      "outputs": [],
      "stateMutability": "nonpayable",
      "type": "function"
    },
    {
      "inputs": [
        {
          "internalType": "address",
          "name": "operator",
          "type": "address"
        },
        {
          "internalType": "bool",
          "name": "approved",
          "type": "bool"
        }
      ],
      "name": "setApprovalForAll",
      "outputs": [],
      "stateMutability": "nonpayable",
      "type": "function"
    },
    {
      "inputs": [
        {
          "internalType": "string",
          "name": "baseURI",
          "type": "string"
        }
      ],
      "name": "setBaseURI",
      "outputs": [],
      "stateMutability": "nonpayable",
      "type": "function"
    },
    {
      "inputs": [
        {
          "internalType": "address",
          "name": "_ivyBond",
          "type": "address"
        }
      ],
      "name": "setIvyBond",
      "outputs": [],
      "stateMutability": "nonpayable",
      "type": "function"
    },
    {
      "inputs": [
        {
          "internalType": "address",
          "name": "_paymentToken",
          "type": "address"
        }
      ],
      "name": "setPaymentToken",
      "outputs": [],
      "stateMutability": "nonpayable",
      "type": "function"
    },
    {
      "inputs": [
        {
          "internalType": "address",
          "name": "user",
          "type": "address"
        },
        {
          "internalType": "address",
          "name": "referrer",
          "type": "address"
        }
      ],
      "name": "setReferrer",
      "outputs": [],
      "stateMutability": "nonpayable",
      "type": "function"
    },
    {
      "inputs": [
        {
          "internalType": "address",
          "name": "_teamOpsWallet",
          "type": "address"
        }
      ],
      "name": "setTeamOpsWallet",
      "outputs": [],
      "stateMutability": "nonpayable",
      "type": "function"
    },
    {
      "inputs": [
        {
          "internalType": "bytes4",
          "name": "interfaceId",
          "type": "bytes4"
        }
      ],
      "name": "supportsInterface",
      "outputs": [
        {
          "internalType": "bool",
          "name": "",
          "type": "bool"
        }
      ],
      "stateMutability": "view",
      "type": "function"
    },
    {
      "inputs": [],
      "name": "symbol",
      "outputs": [
        {
          "internalType": "string",
          "name": "",
          "type": "string"
        }
      ],
      "stateMutability": "view",
      "type": "function"
    },
    {
      "inputs": [],
      "name": "teamOpsWallet",
      "outputs": [
        {
          "internalType": "address",
          "name": "",
          "type": "address"
        }
      ],
      "stateMutability": "view",
      "type": "function"
    },
    {
      "inputs": [
        {
          "internalType": "uint256",
          "name": "index",
          "type": "uint256"
        }
      ],
      "name": "tokenByIndex",
      "outputs": [
        {
          "internalType": "uint256",
          "name": "",
          "type": "uint256"
        }
      ],
      "stateMutability": "view",
      "type": "function"
    },
    {
      "inputs": [
        {
          "internalType": "address",
          "name": "owner",
          "type": "address"
        },
        {
          "internalType": "uint256",
          "name": "index",
          "type": "uint256"
        }
      ],
      "name": "tokenOfOwnerByIndex",
      "outputs": [
        {
          "internalType": "uint256",
          "name": "",
          "type": "uint256"
        }
      ],
      "stateMutability": "view",
      "type": "function"
    },
    {
      "inputs": [
        {
          "internalType": "uint256",
          "name": "tokenId",
          "type": "uint256"
        }
      ],
      "name": "tokenURI",
      "outputs": [
        {
          "internalType": "string",
          "name": "",
          "type": "string"
        }
      ],
      "stateMutability": "view",
      "type": "function"
    },
    {
      "inputs": [],
      "name": "totalSalesVolume",
      "outputs": [
        {
          "internalType": "uint256",
          "name": "",
          "type": "uint256"
        }
      ],
      "stateMutability": "view",
      "type": "function"
    },
    {
      "inputs": [],
      "name": "totalSupply",
      "outputs": [
        {
          "internalType": "uint256",
          "name": "",
          "type": "uint256"
        }
      ],
      "stateMutability": "view",
      "type": "function"
    },
    {
      "inputs": [
        {
          "internalType": "address",
          "name": "from",
          "type": "address"
        },
        {
          "internalType": "address",
          "name": "to",
          "type": "address"
        },
        {
          "internalType": "uint256",
          "name": "tokenId",
          "type": "uint256"
        }
      ],
      "name": "transferFrom",
      "outputs": [],
      "stateMutability": "nonpayable",
      "type": "function"
    },
    {
      "inputs": [
        {
          "internalType": "address",
          "name": "newOwner",
          "type": "address"
        }
      ],
      "name": "transferOwnership",
      "outputs": [],
      "stateMutability": "nonpayable",
      "type": "function"
    }
  ],
  "bytecode": "0x60806040523480156200001157600080fd5b506040516200295c3803806200295c8339810160408190526200003491620001b3565b336040518060400160405280601081526020016f4976792047656e65736973204e6f646560801b815250604051806040016040528060088152602001674956592d4e4f444560c01b81525081600090816200009091906200028a565b5060016200009f82826200028a565b5050506001600160a01b038116620000d257604051631e4fbdf760e01b8152600060048201526024015b60405180910390fd5b620000dd8162000161565b506001600b556001600160a01b0381166200013b5760405162461bcd60e51b815260206004820152601660248201527f496e76616c6964205465616d4f70732077616c6c6574000000000000000000006044820152606401620000c9565b600d80546001600160a01b0319166001600160a01b039290921691909117905562000356565b600a80546001600160a01b038381166001600160a01b0319831681179093556040519116919082907f8be0079c531659141344cd1fd0a4f28419497f9722a3daafe3b4186f6b6457e090600090a35050565b600060208284031215620001c657600080fd5b81516001600160a01b0381168114620001de57600080fd5b9392505050565b634e487b7160e01b600052604160045260246000fd5b600181811c908216806200021057607f821691505b6020821081036200023157634e487b7160e01b600052602260045260246000fd5b50919050565b601f8211156200028557600081815260208120601f850160051c81016020861015620002605750805b601f850160051c820191505b8181101562000281578281556001016200026c565b5050505b505050565b81516001600160401b03811115620002a657620002a6620001e5565b620002be81620002b78454620001fb565b8462000237565b602080601f831160018114620002f65760008415620002dd5750858301515b600019600386901b1c1916600185901b17855562000281565b600085815260208120601f198616915b82811015620003275788860151825594840194600190910190840162000306565b5085821015620003465787850151600019600388901b60f8161c191681555b5050505050600190811b01905550565b6125f680620003666000396000f3fe608060405234801561001057600080fd5b506004361061027e5760003560e01c80636352211e1161015c5780637ff6846d116100ce578063bbddaca311610087578063bbddaca3146105e4578063c87b56dd146105f7578063dfe6b5d61461060a578063e1f1c4a71461063a578063e985e9c514610643578063f2fde38b1461065657600080fd5b80637ff6846d146105755780638da5cb5b1461058557806395d89b4114610596578063a22cb4651461059e578063b77b7dc9146105b1578063b88d4fde146105d157600080fd5b80636a627842116101205780636a627842146105185780636d42a9601461052b57806370a082311461053e578063715018a6146105515780637b159abd146105595780637f3cc0e11461056c57600080fd5b80636352211e146104845780636386c1c714610497578063667f8eab146104df5780636905c5d1146104f25780636a326ab11461050557600080fd5b806329146555116101f55780633633f3c0116101b95780633633f3c0146103e357806342842e0e146103f65780634a3b68cc146104095780634a9fefc7146104325780634f6ccce71461045e57806355f804b31461047157600080fd5b8063291465551461038e57806329d21dcc146103a15780632f745c59146103b45780633013ce29146103c757806332cb6b0c146103da57600080fd5b8063081812fc11610247578063081812fc146102ff578063095ea7b31461032a57806318160ddd1461033d57806318452cd8146103455780632089e9a91461037357806323b872dd1461037b57600080fd5b8062d0d86e1461028357806301ffc9a71461029f578063033d30fe146102c257806304d1334f146102d757806306fdde03146102ea575b600080fd5b61028c6103e881565b6040519081526020015b60405180910390f35b6102b26102ad366004611fe5565b610669565b6040519015158152602001610296565b6102d56102d036600461201e565b610694565b005b61028c6102e536600461201e565b610719565b6102f261078a565b6040516102969190612089565b61031261030d36600461209c565b61081c565b6040516001600160a01b039091168152602001610296565b6102d56103383660046120b5565b610845565b60085461028c565b6102b261035336600461201e565b6001600160a01b0390811660009081526010602052604090205416151590565b61028c60c881565b6102d56103893660046120df565b610854565b601354610312906001600160a01b031681565b600d54610312906001600160a01b031681565b61028c6103c23660046120b5565b6108df565b600c54610312906001600160a01b031681565b61028c61056a81565b61028c6103f136600461201e565b610944565b6102d56104043660046120df565b610965565b61031261041736600461201e565b6010602052600090815260409020546001600160a01b031681565b61031261044036600461201e565b6001600160a01b039081166000908152601060205260409020541690565b61028c61046c36600461209c565b610985565b6102d561047f36600461211b565b6109de565b61031261049236600461209c565b610a31565b6104aa6104a536600461201e565b610a3c565b604080519687526001600160a01b039095166020870152938501929092526060840152608083015260a082015260c001610296565b6102d56104ed36600461201e565b610acd565b61028c61050036600461201e565b610b6e565b6102d561051336600461201e565b610bba565b6102d561052636600461201e565b610c5a565b6102d561053936600461218d565b610ecb565b61028c61054c36600461201e565b6110a9565b6102d56110f1565b6102b261056736600461201e565b611105565b61028c60125481565b61028c683635c9adc5dea0000081565b600a546001600160a01b0316610312565b6102f26111a5565b6102d56105ac3660046121ce565b6111b4565b61028c6105bf36600461201e565b60116020526000908152604090205481565b6102d56105df36600461221b565b6111bf565b6102d56105f236600461218d565b6111d6565b6102f261060536600461209c565b611292565b600e546012546040805192835261056a6020840152683635c9adc5dea00000908301526060820152608001610296565b61028c61271081565b6102b261065136600461218d565b6112f9565b6102d561066436600461201e565b611327565b60006001600160e01b0319821663780e9d6360e01b148061068e575061068e82611362565b92915050565b61069c6113b2565b6001600160a01b0381166106f75760405162461bcd60e51b815260206004820152601760248201527f496e76616c696420497679426f6e64206164647265737300000000000000000060448201526064015b60405180910390fd5b601380546001600160a01b0319166001600160a01b0392909216919091179055565b6000806000610727846110a9565b11610733576000610737565b6103e85b6001600160a01b03808516600090815260106020526040812054929350911690811580159061076e5750600061076c836110a9565b115b15610777575060c85b610781818461230d565b95945050505050565b60606000805461079990612320565b80601f01602080910402602001604051908101604052809291908181526020018280546107c590612320565b80156108125780601f106107e757610100808354040283529160200191610812565b820191906000526020600020905b8154815290600101906020018083116107f557829003601f168201915b5050505050905090565b6000610827826113df565b506000828152600460205260409020546001600160a01b031661068e565b610850828233611418565b5050565b6001600160a01b03821661087e57604051633250574960e11b8152600060048201526024016106ee565b600061088b838333611425565b9050836001600160a01b0316816001600160a01b0316146108d9576040516364283d7b60e01b81526001600160a01b03808616600483015260248201849052821660448201526064016106ee565b50505050565b60006108ea836110a9565b821061091b5760405163295f44f760e21b81526001600160a01b0384166004820152602481018390526044016106ee565b506001600160a01b03919091166000908152600660209081526040808320938352929052205490565b600080610950836110a9565b1161095c57600061068e565b6103e892915050565b610980838383604051806020016040528060008152506111bf565b505050565b600061099060085490565b82106109b95760405163295f44f760e21b815260006004820152602481018390526044016106ee565b600882815481106109cc576109cc61235a565b90600052602060002001549050919050565b6109e66113b2565b600f6109f38284836123be565b507ff9c7803e94e0d3c02900d8a90893a6d5e90dd04d32a4cfe825520f82bf9f32f68282604051610a2592919061247e565b60405180910390a15050565b600061068e826113df565b600080600080600080610a4e876110a9565b6001600160a01b03808916600090815260106020908152604080832054601190925290912054929850169550935085610a88576000610a8c565b6103e85b92506001600160a01b03851615801590610aae57506000610aac866110a9565b115b15610ab85760c891505b610ac2828461230d565b905091939550919395565b610ad56113b2565b6001600160a01b038116610b245760405162461bcd60e51b8152602060048201526016602482015275496e76616c69642077616c6c6574206164647265737360501b60448201526064016106ee565b600d80546001600160a01b0319166001600160a01b0383169081179091556040517fe06f0065e5f6511beeace6af426d46b3f1e64e4703bab5df8d5a3167e5e9222690600090a250565b6001600160a01b0380821660009081526010602052604081205490911680610b995750600092915050565b6000610ba4826110a9565b11610bb0576000610bb3565b60c85b9392505050565b610bc26113b2565b6001600160a01b038116610c105760405162461bcd60e51b8152602060048201526015602482015274496e76616c696420746f6b656e206164647265737360581b60448201526064016106ee565b600c80546001600160a01b0319166001600160a01b0383169081179091556040517fcb0aeffe884eb88fb2a31a2f3e4bd1d2763bdee48ba93b28c6e87501228cf74390600090a250565b610c626114fa565b61056a600e5410610caa5760405162461bcd60e51b815260206004820152601260248201527113585e081cdd5c1c1b1e481c995858da195960721b60448201526064016106ee565b600c546001600160a01b0316610cfa5760405162461bcd60e51b815260206004820152601560248201527414185e5b595b9d081d1bdad95b881b9bdd081cd95d605a1b60448201526064016106ee565b600c543390610d1d906001600160a01b03168230683635c9adc5dea00000611524565b600d54600c54610d43916001600160a01b039182169116683635c9adc5dea0000061158b565b6001600160a01b0381811660009081526010602052604090205416158015610d7357506001600160a01b03821615155b8015610d915750806001600160a01b0316826001600160a01b031614155b15610e22576001600160a01b03818116600090815260106020908152604080832080546001600160a01b031916948716948517905592825260119052908120805491610ddc836124ad565b9190505550816001600160a01b0316816001600160a01b03167fc4c2ddb91b0f73749131d376ad37ce7b01a69dc1b477abc09377cf0e1d511b1460405160405180910390a35b600e805460009182610e33836124ad565b919050559050610e4382826115bc565b683635c9adc5dea0000060126000828254610e5e919061230d565b92505081905550826001600160a01b031681836001600160a01b03167f0af9a342ed913fa4f711bacf7bf8d0cc51cece32ea071fd419408bcbb5ac020f683635c9adc5dea00000604051610eb491815260200190565b60405180910390a45050610ec86001600b55565b50565b6013546001600160a01b03163314610f1d5760405162461bcd60e51b815260206004820152601560248201527413db9b1e48125d9e509bdb990818d85b8818d85b1b605a1b60448201526064016106ee565b6001600160a01b038281166000908152601060205260409020541615610f7c5760405162461bcd60e51b8152602060048201526014602482015273149959995c9c995c88185b1c9958591e481cd95d60621b60448201526064016106ee565b816001600160a01b0316816001600160a01b031603610fd15760405162461bcd60e51b815260206004820152601160248201527021b0b73737ba1039b2b63316b932b332b960791b60448201526064016106ee565b6001600160a01b03811661101a5760405162461bcd60e51b815260206004820152601060248201526f24b73b30b634b2103932b332b93932b960811b60448201526064016106ee565b6001600160a01b03828116600090815260106020908152604080832080546001600160a01b031916948616948517905592825260119052908120805491611060836124ad565b9190505550806001600160a01b0316826001600160a01b03167fc4c2ddb91b0f73749131d376ad37ce7b01a69dc1b477abc09377cf0e1d511b1460405160405180910390a35050565b60006001600160a01b0382166110d5576040516322718ad960e21b8152600060048201526024016106ee565b506001600160a01b031660009081526003602052604090205490565b6110f96113b2565b61110360006115d6565b565b600c546000906001600160a01b031661112057506000919050565b600c54604051636eb1769f60e11b81526001600160a01b038481166004830152306024830152683635c9adc5dea0000092169063dd62ed3e90604401602060405180830381865afa158015611179573d6000803e3d6000fd5b505050506040513d601f19601f8201168201806040525081019061119d91906124c6565b101592915050565b60606001805461079990612320565b610850338383611628565b6111ca848484610854565b6108d9848484846116c7565b6111de6113b2565b6001600160a01b03828116600090815260106020526040902054161561123d5760405162461bcd60e51b8152602060048201526014602482015273149959995c9c995c88185b1c9958591e481cd95d60621b60448201526064016106ee565b816001600160a01b0316816001600160a01b03160361101a5760405162461bcd60e51b815260206004820152601160248201527021b0b73737ba1039b2b63316b932b332b960791b60448201526064016106ee565b606061129d826113df565b5060006112a86117f0565b905060008151116112c85760405180602001604052806000815250610bb3565b806112d2846117ff565b6040516020016112e39291906124df565b6040516020818303038152906040529392505050565b6001600160a01b03918216600090815260056020908152604080832093909416825291909152205460ff1690565b61132f6113b2565b6001600160a01b03811661135957604051631e4fbdf760e01b8152600060048201526024016106ee565b610ec8816115d6565b60006001600160e01b031982166380ac58cd60e01b148061139357506001600160e01b03198216635b5e139f60e01b145b8061068e57506301ffc9a760e01b6001600160e01b031983161461068e565b600a546001600160a01b031633146111035760405163118cdaa760e01b81523360048201526024016106ee565b6000818152600260205260408120546001600160a01b03168061068e57604051637e27328960e01b8152600481018490526024016106ee565b6109808383836001611892565b600080611433858585611998565b90506001600160a01b0381166114905761148b84600880546000838152600960205260408120829055600182018355919091527ff3f7a9fe364faab93b216da50a3214154f22a0a2b415b23a84c8169e8b636ee30155565b6114b3565b846001600160a01b0316816001600160a01b0316146114b3576114b38185611a91565b6001600160a01b0385166114cf576114ca84611b22565b6114f2565b846001600160a01b0316816001600160a01b0316146114f2576114f28585611bd1565b949350505050565b6002600b540361151d57604051633ee5aeb560e01b815260040160405180910390fd5b6002600b55565b6040516001600160a01b0384811660248301528381166044830152606482018390526108d99186918216906323b872dd906084015b604051602081830303815290604052915060e01b6020820180516001600160e01b038381831617835250505050611c21565b6040516001600160a01b0383811660248301526044820183905261098091859182169063a9059cbb90606401611559565b610850828260405180602001604052806000815250611c84565b600a80546001600160a01b038381166001600160a01b0319831681179093556040519116919082907f8be0079c531659141344cd1fd0a4f28419497f9722a3daafe3b4186f6b6457e090600090a35050565b6001600160a01b03821661165a57604051630b61174360e31b81526001600160a01b03831660048201526024016106ee565b6001600160a01b03838116600081815260056020908152604080832094871680845294825291829020805460ff191686151590811790915591519182527f17307eab39ab6107e8899845ad3d59bd9653f200f220920489ca2b5937696c31910160405180910390a3505050565b6001600160a01b0383163b156108d957604051630a85bd0160e11b81526001600160a01b0384169063150b7a029061170990339088908790879060040161250e565b6020604051808303816000875af1925050508015611744575060408051601f3d908101601f1916820190925261174191810190612541565b60015b6117ad573d808015611772576040519150601f19603f3d011682016040523d82523d6000602084013e611777565b606091505b5080516000036117a557604051633250574960e11b81526001600160a01b03851660048201526024016106ee565b805181602001fd5b6001600160e01b03198116630a85bd0160e11b146117e957604051633250574960e11b81526001600160a01b03851660048201526024016106ee565b5050505050565b6060600f805461079990612320565b6060600061180c83611c9b565b600101905060008167ffffffffffffffff81111561182c5761182c612205565b6040519080825280601f01601f191660200182016040528015611856576020820181803683370190505b5090508181016020015b600019016f181899199a1a9b1b9c1cb0b131b232b360811b600a86061a8153600a850494508461186057509392505050565b80806118a657506001600160a01b03821615155b156119685760006118b6846113df565b90506001600160a01b038316158015906118e25750826001600160a01b0316816001600160a01b031614155b80156118f557506118f381846112f9565b155b1561191e5760405163a9fbf51f60e01b81526001600160a01b03841660048201526024016106ee565b81156119665783856001600160a01b0316826001600160a01b03167f8c5be1e5ebec7d5bd14f71427d1e84f3dd0314c0f7b2291e5b200ac8c7c3b92560405160405180910390a45b505b5050600090815260046020526040902080546001600160a01b0319166001600160a01b0392909216919091179055565b6000828152600260205260408120546001600160a01b03908116908316156119c5576119c5818486611d73565b6001600160a01b03811615611a03576119e2600085600080611892565b6001600160a01b038116600090815260036020526040902080546000190190555b6001600160a01b03851615611a32576001600160a01b0385166000908152600360205260409020805460010190555b60008481526002602052604080822080546001600160a01b0319166001600160a01b0389811691821790925591518793918516917fddf252ad1be2c89b69c2b068fc378daa952ba7f163c4a11628f55a4df523b3ef91a4949350505050565b6000611a9c836110a9565b600083815260076020526040902054909150808214611aef576001600160a01b03841660009081526006602090815260408083208584528252808320548484528184208190558352600790915290208190555b5060009182526007602090815260408084208490556001600160a01b039094168352600681528383209183525290812055565b600854600090611b349060019061255e565b60008381526009602052604081205460088054939450909284908110611b5c57611b5c61235a565b906000526020600020015490508060088381548110611b7d57611b7d61235a565b6000918252602080832090910192909255828152600990915260408082208490558582528120556008805480611bb557611bb5612571565b6001900381819060005260206000200160009055905550505050565b60006001611bde846110a9565b611be8919061255e565b6001600160a01b039093166000908152600660209081526040808320868452825280832085905593825260079052919091209190915550565b6000611c366001600160a01b03841683611dd7565b90508051600014158015611c5b575080806020019051810190611c599190612587565b155b1561098057604051635274afe760e01b81526001600160a01b03841660048201526024016106ee565b611c8e8383611de5565b61098060008484846116c7565b60008072184f03e93ff9f4daa797ed6e38ed64bf6a1f0160401b8310611cda5772184f03e93ff9f4daa797ed6e38ed64bf6a1f0160401b830492506040015b6d04ee2d6d415b85acef81000000008310611d06576d04ee2d6d415b85acef8100000000830492506020015b662386f26fc100008310611d2457662386f26fc10000830492506010015b6305f5e1008310611d3c576305f5e100830492506008015b6127108310611d5057612710830492506004015b60648310611d62576064830492506002015b600a831061068e5760010192915050565b611d7e838383611e4a565b610980576001600160a01b038316611dac57604051637e27328960e01b8152600481018290526024016106ee565b60405163177e802f60e01b81526001600160a01b0383166004820152602481018290526044016106ee565b6060610bb383836000611ead565b6001600160a01b038216611e0f57604051633250574960e11b8152600060048201526024016106ee565b6000611e1d83836000611425565b90506001600160a01b03811615610980576040516339e3563760e11b8152600060048201526024016106ee565b60006001600160a01b038316158015906114f25750826001600160a01b0316846001600160a01b03161480611e845750611e8484846112f9565b806114f25750506000908152600460205260409020546001600160a01b03908116911614919050565b606081471015611ed25760405163cd78605960e01b81523060048201526024016106ee565b600080856001600160a01b03168486604051611eee91906125a4565b60006040518083038185875af1925050503d8060008114611f2b576040519150601f19603f3d011682016040523d82523d6000602084013e611f30565b606091505b5091509150611f40868383611f4a565b9695505050505050565b606082611f5f57611f5a82611fa6565b610bb3565b8151158015611f7657506001600160a01b0384163b155b15611f9f57604051639996b31560e01b81526001600160a01b03851660048201526024016106ee565b5080610bb3565b805115611fb65780518082602001fd5b604051630a12f52160e11b815260040160405180910390fd5b6001600160e01b031981168114610ec857600080fd5b600060208284031215611ff757600080fd5b8135610bb381611fcf565b80356001600160a01b038116811461201957600080fd5b919050565b60006020828403121561203057600080fd5b610bb382612002565b60005b8381101561205457818101518382015260200161203c565b50506000910152565b60008151808452612075816020860160208601612039565b601f01601f19169290920160200192915050565b602081526000610bb3602083018461205d565b6000602082840312156120ae57600080fd5b5035919050565b600080604083850312156120c857600080fd5b6120d183612002565b946020939093013593505050565b6000806000606084860312156120f457600080fd5b6120fd84612002565b925061210b60208501612002565b9150604084013590509250925092565b6000806020838503121561212e57600080fd5b823567ffffffffffffffff8082111561214657600080fd5b818501915085601f83011261215a57600080fd5b81358181111561216957600080fd5b86602082850101111561217b57600080fd5b60209290920196919550909350505050565b600080604083850312156121a057600080fd5b6121a983612002565b91506121b760208401612002565b90509250929050565b8015158114610ec857600080fd5b600080604083850312156121e157600080fd5b6121ea83612002565b915060208301356121fa816121c0565b809150509250929050565b634e487b7160e01b600052604160045260246000fd5b6000806000806080858703121561223157600080fd5b61223a85612002565b935061224860208601612002565b925060408501359150606085013567ffffffffffffffff8082111561226c57600080fd5b818701915087601f83011261228057600080fd5b81358181111561229257612292612205565b604051601f8201601f19908116603f011681019083821181831017156122ba576122ba612205565b816040528281528a60208487010111156122d357600080fd5b82602086016020830137600060208483010152809550505050505092959194509250565b634e487b7160e01b600052601160045260246000fd5b8082018082111561068e5761068e6122f7565b600181811c9082168061233457607f821691505b60208210810361235457634e487b7160e01b600052602260045260246000fd5b50919050565b634e487b7160e01b600052603260045260246000fd5b601f82111561098057600081815260208120601f850160051c810160208610156123975750805b601f850160051c820191505b818110156123b6578281556001016123a3565b505050505050565b67ffffffffffffffff8311156123d6576123d6612205565b6123ea836123e48354612320565b83612370565b6000601f84116001811461241e57600085156124065750838201355b600019600387901b1c1916600186901b1783556117e9565b600083815260209020601f19861690835b8281101561244f578685013582556020948501946001909201910161242f565b508682101561246c5760001960f88860031b161c19848701351681555b505060018560011b0183555050505050565b60208152816020820152818360408301376000818301604090810191909152601f909201601f19160101919050565b6000600182016124bf576124bf6122f7565b5060010190565b6000602082840312156124d857600080fd5b5051919050565b600083516124f1818460208801612039565b835190830190612505818360208801612039565b01949350505050565b6001600160a01b0385811682528416602082015260408101839052608060608201819052600090611f409083018461205d565b60006020828403121561255357600080fd5b8151610bb381611fcf565b8181038181111561068e5761068e6122f7565b634e487b7160e01b600052603160045260246000fd5b60006020828403121561259957600080fd5b8151610bb3816121c0565b600082516125b6818460208701612039565b919091019291505056fea264697066735822122076e12cca3c8853b493347bcc6777def3804c8ed45baed21c1c428df65269ceea64736f6c63430008140033",
  "linkReferences": {},
  "deployedLinkReferences": {}
}