{
  "_format": "hh-sol-artifact-1",
  "contractName": "GenesisNode",
  "sourceName": "contracts/GenesisNode.sol",
  "abi": [
    {
      "inputs": [
        {
          "internalType": "address",
          "name": "_daoTreasury",
          "type": "address"
        }
      ],
      "stateMutability": "nonpayable",
      "type": "constructor"
    },
    {
      "inputs": [],
      "name": "ERC721EnumerableForbiddenBatchMint",
      "type": "error"
    },
    {
      "inputs": [
        {
          "internalType": "address",
          "name": "sender",
          "type": "address"
        },
        {
          "internalType": "uint256",
          "name": "tokenId",
          "type": "uint256"
        },
        {
          "internalType": "address",
          "name": "owner",
          "type": "address"
        }
      ],
      "name": "ERC721IncorrectOwner",
      "type": "error"
    },
    {
      "inputs": [
        {
          "internalType": "address",
          "name": "operator",
          "type": "address"
        },
        {
          "internalType": "uint256",
          "name": "tokenId",
          "type": "uint256"
        }
      ],
      "name": "ERC721InsufficientApproval",
      "type": "error"
    },
    {
      "inputs": [
        {
          "internalType": "address",
          "name": "approver",
          "type": "address"
        }
      ],
      "name": "ERC721InvalidApprover",
      "type": "error"
    },
    {
      "inputs": [
        {
          "internalType": "address",
          "name": "operator",
          "type": "address"
        }
      ],
      "name": "ERC721InvalidOperator",
      "type": "error"
    },
    {
      "inputs": [
        {
          "internalType": "address",
          "name": "owner",
          "type": "address"
        }
      ],
      "name": "ERC721InvalidOwner",
      "type": "error"
    },
    {
      "inputs": [
        {
          "internalType": "address",
          "name": "receiver",
          "type": "address"
        }
      ],
      "name": "ERC721InvalidReceiver",
      "type": "error"
    },
    {
      "inputs": [
        {
          "internalType": "address",
          "name": "sender",
          "type": "address"
        }
      ],
      "name": "ERC721InvalidSender",
      "type": "error"
    },
    {
      "inputs": [
        {
          "internalType": "uint256",
          "name": "tokenId",
          "type": "uint256"
        }
      ],
      "name": "ERC721NonexistentToken",
      "type": "error"
    },
    {
      "inputs": [
        {
          "internalType": "address",
          "name": "owner",
          "type": "address"
        },
        {
          "internalType": "uint256",
          "name": "index",
          "type": "uint256"
        }
      ],
      "name": "ERC721OutOfBoundsIndex",
      "type": "error"
    },
    {
      "inputs": [
        {
          "internalType": "address",
          "name": "owner",
          "type": "address"
        }
      ],
      "name": "OwnableInvalidOwner",
      "type": "error"
    },
    {
      "inputs": [
        {
          "internalType": "address",
          "name": "account",
          "type": "address"
        }
      ],
      "name": "OwnableUnauthorizedAccount",
      "type": "error"
    },
    {
      "anonymous": false,
      "inputs": [
        {
          "indexed": true,
          "internalType": "address",
          "name": "owner",
          "type": "address"
        },
        {
          "indexed": true,
          "internalType": "address",
          "name": "approved",
          "type": "address"
        },
        {
          "indexed": true,
          "internalType": "uint256",
          "name": "tokenId",
          "type": "uint256"
        }
      ],
      "name": "Approval",
      "type": "event"
    },
    {
      "anonymous": false,
      "inputs": [
        {
          "indexed": true,
          "internalType": "address",
          "name": "owner",
          "type": "address"
        },
        {
          "indexed": true,
          "internalType": "address",
          "name": "operator",
          "type": "address"
        },
        {
          "indexed": false,
          "internalType": "bool",
          "name": "approved",
          "type": "bool"
        }
      ],
      "name": "ApprovalForAll",
      "type": "event"
    },
    {
      "anonymous": false,
      "inputs": [
        {
          "indexed": true,
          "internalType": "address",
          "name": "previousOwner",
          "type": "address"
        },
        {
          "indexed": true,
          "internalType": "address",
          "name": "newOwner",
          "type": "address"
        }
      ],
      "name": "OwnershipTransferred",
      "type": "event"
    },
    {
      "anonymous": false,
      "inputs": [
        {
          "indexed": true,
          "internalType": "address",
          "name": "from",
          "type": "address"
        },
        {
          "indexed": true,
          "internalType": "address",
          "name": "to",
          "type": "address"
        },
        {
          "indexed": true,
          "internalType": "uint256",
          "name": "tokenId",
          "type": "uint256"
        }
      ],
      "name": "Transfer",
      "type": "event"
    },
    {
      "inputs": [],
      "name": "DAO_TREASURY",
      "outputs": [
        {
          "internalType": "address",
          "name": "",
          "type": "address"
        }
      ],
      "stateMutability": "view",
      "type": "function"
    },
    {
      "inputs": [],
      "name": "EQUAL_LEVEL_BONUS",
      "outputs": [
        {
          "internalType": "uint256",
          "name": "",
          "type": "uint256"
        }
      ],
      "stateMutability": "view",
      "type": "function"
    },
    {
      "inputs": [],
      "name": "INFINITE_RATE",
      "outputs": [
        {
          "internalType": "uint256",
          "name": "",
          "type": "uint256"
        }
      ],
      "stateMutability": "view",
      "type": "function"
    },
    {
      "inputs": [],
      "name": "L1_RATE",
      "outputs": [
        {
          "internalType": "uint256",
          "name": "",
          "type": "uint256"
        }
      ],
      "stateMutability": "view",
      "type": "function"
    },
    {
      "inputs": [],
      "name": "L2_RATE",
      "outputs": [
        {
          "internalType": "uint256",
          "name": "",
          "type": "uint256"
        }
      ],
      "stateMutability": "view",
      "type": "function"
    },
    {
      "inputs": [],
      "name": "MAX_DEPTH",
      "outputs": [
        {
          "internalType": "uint256",
          "name": "",
          "type": "uint256"
        }
      ],
      "stateMutability": "view",
      "type": "function"
    },
    {
      "inputs": [
        {
          "internalType": "address",
          "name": "to",
          "type": "address"
        },
        {
          "internalType": "uint256",
          "name": "tokenId",
          "type": "uint256"
        }
      ],
      "name": "approve",
      "outputs": [],
      "stateMutability": "nonpayable",
      "type": "function"
    },
    {
      "inputs": [
        {
          "internalType": "address",
          "name": "owner",
          "type": "address"
        }
      ],
      "name": "balanceOf",
      "outputs": [
        {
          "internalType": "uint256",
          "name": "",
          "type": "uint256"
        }
      ],
      "stateMutability": "view",
      "type": "function"
    },
    {
      "inputs": [
        {
          "internalType": "address",
          "name": "minter",
          "type": "address"
        },
        {
          "internalType": "uint256",
          "name": "mintAmount",
          "type": "uint256"
        }
      ],
      "name": "distributeRewards",
      "outputs": [],
      "stateMutability": "nonpayable",
      "type": "function"
    },
    {
      "inputs": [
        {
          "internalType": "uint256",
          "name": "tokenId",
          "type": "uint256"
        }
      ],
      "name": "getApproved",
      "outputs": [
        {
          "internalType": "address",
          "name": "",
          "type": "address"
        }
      ],
      "stateMutability": "view",
      "type": "function"
    },
    {
      "inputs": [
        {
          "internalType": "address",
          "name": "user",
          "type": "address"
        }
      ],
      "name": "getSelfBoost",
      "outputs": [
        {
          "internalType": "uint256",
          "name": "",
          "type": "uint256"
        }
      ],
      "stateMutability": "view",
      "type": "function"
    },
    {
      "inputs": [
        {
          "internalType": "address",
          "name": "owner",
          "type": "address"
        },
        {
          "internalType": "address",
          "name": "operator",
          "type": "address"
        }
      ],
      "name": "isApprovedForAll",
      "outputs": [
        {
          "internalType": "bool",
          "name": "",
          "type": "bool"
        }
      ],
      "stateMutability": "view",
      "type": "function"
    },
    {
      "inputs": [
        {
          "internalType": "address",
          "name": "to",
          "type": "address"
        },
        {
          "internalType": "address",
          "name": "referrer",
          "type": "address"
        }
      ],
      "name": "mint",
      "outputs": [],
      "stateMutability": "nonpayable",
      "type": "function"
    },
    {
      "inputs": [],
      "name": "name",
      "outputs": [
        {
          "internalType": "string",
          "name": "",
          "type": "string"
        }
      ],
      "stateMutability": "view",
      "type": "function"
    },
    {
      "inputs": [],
      "name": "owner",
      "outputs": [
        {
          "internalType": "address",
          "name": "",
          "type": "address"
        }
      ],
      "stateMutability": "view",
      "type": "function"
    },
    {
      "inputs": [
        {
          "internalType": "uint256",
          "name": "tokenId",
          "type": "uint256"
        }
      ],
      "name": "ownerOf",
      "outputs": [
        {
          "internalType": "address",
          "name": "",
          "type": "address"
        }
      ],
      "stateMutability": "view",
      "type": "function"
    },
    {
      "inputs": [],
      "name": "renounceOwnership",
      "outputs": [],
      "stateMutability": "nonpayable",
      "type": "function"
    },
    {
      "inputs": [
        {
          "internalType": "address",
          "name": "from",
          "type": "address"
        },
        {
          "internalType": "address",
          "name": "to",
          "type": "address"
        },
        {
          "internalType": "uint256",
          "name": "tokenId",
          "type": "uint256"
        }
      ],
      "name": "safeTransferFrom",
      "outputs": [],
      "stateMutability": "nonpayable",
      "type": "function"
    },
    {
      "inputs": [
        {
          "internalType": "address",
          "name": "from",
          "type": "address"
        },
        {
          "internalType": "address",
          "name": "to",
          "type": "address"
        },
        {
          "internalType": "uint256",
          "name": "tokenId",
          "type": "uint256"
        },
        {
          "internalType": "bytes",
          "name": "data",
          "type": "bytes"
        }
      ],
      "name": "safeTransferFrom",
      "outputs": [],
      "stateMutability": "nonpayable",
      "type": "function"
    },
    {
      "inputs": [
        {
          "internalType": "address",
          "name": "operator",
          "type": "address"
        },
        {
          "internalType": "bool",
          "name": "approved",
          "type": "bool"
        }
      ],
      "name": "setApprovalForAll",
      "outputs": [],
      "stateMutability": "nonpayable",
      "type": "function"
    },
    {
      "inputs": [
        {
          "internalType": "address",
          "name": "user",
          "type": "address"
        },
        {
          "internalType": "address",
          "name": "referrer",
          "type": "address"
        }
      ],
      "name": "setReferrer",
      "outputs": [],
      "stateMutability": "nonpayable",
      "type": "function"
    },
    {
      "inputs": [
        {
          "internalType": "bytes4",
          "name": "interfaceId",
          "type": "bytes4"
        }
      ],
      "name": "supportsInterface",
      "outputs": [
        {
          "internalType": "bool",
          "name": "",
          "type": "bool"
        }
      ],
      "stateMutability": "view",
      "type": "function"
    },
    {
      "inputs": [],
      "name": "symbol",
      "outputs": [
        {
          "internalType": "string",
          "name": "",
          "type": "string"
        }
      ],
      "stateMutability": "view",
      "type": "function"
    },
    {
      "inputs": [
        {
          "internalType": "uint256",
          "name": "index",
          "type": "uint256"
        }
      ],
      "name": "tokenByIndex",
      "outputs": [
        {
          "internalType": "uint256",
          "name": "",
          "type": "uint256"
        }
      ],
      "stateMutability": "view",
      "type": "function"
    },
    {
      "inputs": [
        {
          "internalType": "address",
          "name": "owner",
          "type": "address"
        },
        {
          "internalType": "uint256",
          "name": "index",
          "type": "uint256"
        }
      ],
      "name": "tokenOfOwnerByIndex",
      "outputs": [
        {
          "internalType": "uint256",
          "name": "",
          "type": "uint256"
        }
      ],
      "stateMutability": "view",
      "type": "function"
    },
    {
      "inputs": [
        {
          "internalType": "uint256",
          "name": "tokenId",
          "type": "uint256"
        }
      ],
      "name": "tokenURI",
      "outputs": [
        {
          "internalType": "string",
          "name": "",
          "type": "string"
        }
      ],
      "stateMutability": "view",
      "type": "function"
    },
    {
      "inputs": [],
      "name": "totalSupply",
      "outputs": [
        {
          "internalType": "uint256",
          "name": "",
          "type": "uint256"
        }
      ],
      "stateMutability": "view",
      "type": "function"
    },
    {
      "inputs": [
        {
          "internalType": "address",
          "name": "from",
          "type": "address"
        },
        {
          "internalType": "address",
          "name": "to",
          "type": "address"
        },
        {
          "internalType": "uint256",
          "name": "tokenId",
          "type": "uint256"
        }
      ],
      "name": "transferFrom",
      "outputs": [],
      "stateMutability": "nonpayable",
      "type": "function"
    },
    {
      "inputs": [
        {
          "internalType": "address",
          "name": "newOwner",
          "type": "address"
        }
      ],
      "name": "transferOwnership",
      "outputs": [],
      "stateMutability": "nonpayable",
      "type": "function"
    },
    {
      "inputs": [
        {
          "internalType": "address",
          "name": "",
          "type": "address"
        }
      ],
      "name": "users",
      "outputs": [
        {
          "internalType": "address",
          "name": "referrer",
          "type": "address"
        },
        {
          "internalType": "uint256",
          "name": "totalRewards",
          "type": "uint256"
        }
      ],
      "stateMutability": "view",
      "type": "function"
    }
  ],
  "bytecode": "0x60a06040523480156200001157600080fd5b50604051620039743803806200397483398181016040528101906200003791906200032e565b336040518060400160405280601081526020017f4976792047656e65736973204e6f6465000000000000000000000000000000008152506040518060400160405280600881526020017f4956592d4e4f44450000000000000000000000000000000000000000000000008152508160009081620000b59190620005da565b508060019081620000c79190620005da565b505050600073ffffffffffffffffffffffffffffffffffffffff168173ffffffffffffffffffffffffffffffffffffffff16036200013f5760006040517f1e4fbdf7000000000000000000000000000000000000000000000000000000008152600401620001369190620006d2565b60405180910390fd5b6200015081620001fe60201b60201c565b50600073ffffffffffffffffffffffffffffffffffffffff168173ffffffffffffffffffffffffffffffffffffffff1603620001c3576040517f08c379a0000000000000000000000000000000000000000000000000000000008152600401620001ba9062000750565b60405180910390fd5b8073ffffffffffffffffffffffffffffffffffffffff1660808173ffffffffffffffffffffffffffffffffffffffff16815250505062000772565b6000600a60009054906101000a900473ffffffffffffffffffffffffffffffffffffffff16905081600a60006101000a81548173ffffffffffffffffffffffffffffffffffffffff021916908373ffffffffffffffffffffffffffffffffffffffff1602179055508173ffffffffffffffffffffffffffffffffffffffff168173ffffffffffffffffffffffffffffffffffffffff167f8be0079c531659141344cd1fd0a4f28419497f9722a3daafe3b4186f6b6457e060405160405180910390a35050565b600080fd5b600073ffffffffffffffffffffffffffffffffffffffff82169050919050565b6000620002f682620002c9565b9050919050565b6200030881620002e9565b81146200031457600080fd5b50565b6000815190506200032881620002fd565b92915050565b600060208284031215620003475762000346620002c4565b5b6000620003578482850162000317565b91505092915050565b600081519050919050565b7f4e487b7100000000000000000000000000000000000000000000000000000000600052604160045260246000fd5b7f4e487b7100000000000000000000000000000000000000000000000000000000600052602260045260246000fd5b60006002820490506001821680620003e257607f821691505b602082108103620003f857620003f76200039a565b5b50919050565b60008190508160005260206000209050919050565b60006020601f8301049050919050565b600082821b905092915050565b600060088302620004627fffffffffffffffffffffffffffffffffffffffffffffffffffffffffffffffff8262000423565b6200046e868362000423565b95508019841693508086168417925050509392505050565b6000819050919050565b6000819050919050565b6000620004bb620004b5620004af8462000486565b62000490565b62000486565b9050919050565b6000819050919050565b620004d7836200049a565b620004ef620004e682620004c2565b84845462000430565b825550505050565b600090565b62000506620004f7565b62000513818484620004cc565b505050565b5b818110156200053b576200052f600082620004fc565b60018101905062000519565b5050565b601f8211156200058a576200055481620003fe565b6200055f8462000413565b810160208510156200056f578190505b620005876200057e8562000413565b83018262000518565b50505b505050565b600082821c905092915050565b6000620005af600019846008026200058f565b1980831691505092915050565b6000620005ca83836200059c565b9150826002028217905092915050565b620005e58262000360565b67ffffffffffffffff8111156200060157620006006200036b565b5b6200060d8254620003c9565b6200061a8282856200053f565b600060209050601f8311600181146200065257600084156200063d578287015190505b620006498582620005bc565b865550620006b9565b601f1984166200066286620003fe565b60005b828110156200068c5784890151825560018201915060208501945060208101905062000665565b86831015620006ac5784890151620006a8601f8916826200059c565b8355505b6001600288020188555050505b505050505050565b620006cc81620002e9565b82525050565b6000602082019050620006e96000830184620006c1565b92915050565b600082825260208201905092915050565b7f496e76616c696420547265617375727900000000000000000000000000000000600082015250565b600062000738601083620006ef565b9150620007458262000700565b602082019050919050565b600060208201905081810360008301526200076b8162000729565b9050919050565b6080516131df6200079560003960008181610b590152610f6901526131df6000f3fe608060405234801561001057600080fd5b50600436106101da5760003560e01c80638da5cb5b11610104578063b88d4fde116100a2578063e985e9c511610071578063e985e9c51461056c578063ee1fe2ad1461059c578063f2fde38b146105b8578063f706555b146105d4576101da565b8063b88d4fde146104e6578063bbddaca314610502578063c87b56dd1461051e578063da6510b41461054e576101da565b8063a22cb465116100de578063a22cb4651461045f578063a27154ba1461047b578063a8031a1d14610499578063a87430ba146104b5576101da565b80638da5cb5b1461040557806395d89b41146104235780639dc78ee614610441576101da565b80632f745c591161017c5780635ff871c81161014b5780635ff871c81461037d5780636352211e1461039b57806370a08231146103cb578063715018a6146103fb576101da565b80632f745c59146102d15780633633f3c01461030157806342842e0e146103315780634f6ccce71461034d576101da565b8063095ea7b3116101b8578063095ea7b31461025d57806318160ddd1461027957806323b872dd14610297578063277c19b0146102b3576101da565b806301ffc9a7146101df57806306fdde031461020f578063081812fc1461022d575b600080fd5b6101f960048036038101906101f49190612879565b6105f2565b60405161020691906128c1565b60405180910390f35b61021761066c565b604051610224919061296c565b60405180910390f35b610247600480360381019061024291906129c4565b6106fe565b6040516102549190612a32565b60405180910390f35b61027760048036038101906102729190612a79565b61071a565b005b610281610730565b60405161028e9190612ac8565b60405180910390f35b6102b160048036038101906102ac9190612ae3565b61073d565b005b6102bb61083f565b6040516102c89190612ac8565b60405180910390f35b6102eb60048036038101906102e69190612a79565b610844565b6040516102f89190612ac8565b60405180910390f35b61031b60048036038101906103169190612b36565b6108ed565b6040516103289190612ac8565b60405180910390f35b61034b60048036038101906103469190612ae3565b610920565b005b610367600480360381019061036291906129c4565b610940565b6040516103749190612ac8565b60405180910390f35b6103856109b6565b6040516103929190612ac8565b60405180910390f35b6103b560048036038101906103b091906129c4565b6109bb565b6040516103c29190612a32565b60405180910390f35b6103e560048036038101906103e09190612b36565b6109cd565b6040516103f29190612ac8565b60405180910390f35b610403610a87565b005b61040d610a9b565b60405161041a9190612a32565b60405180910390f35b61042b610ac5565b604051610438919061296c565b60405180910390f35b610449610b57565b6040516104569190612a32565b60405180910390f35b61047960048036038101906104749190612b8f565b610b7b565b005b610483610b91565b6040516104909190612ac8565b60405180910390f35b6104b360048036038101906104ae9190612a79565b610b96565b005b6104cf60048036038101906104ca9190612b36565b610fb2565b6040516104dd929190612bcf565b60405180910390f35b61050060048036038101906104fb9190612d2d565b610ff6565b005b61051c60048036038101906105179190612db0565b611013565b005b610538600480360381019061053391906129c4565b6110a0565b604051610545919061296c565b60405180910390f35b610556611109565b6040516105639190612ac8565b60405180910390f35b61058660048036038101906105819190612db0565b61110f565b60405161059391906128c1565b60405180910390f35b6105b660048036038101906105b19190612db0565b6111a3565b005b6105d260048036038101906105cd9190612b36565b611357565b005b6105dc6113dd565b6040516105e99190612ac8565b60405180910390f35b60007f780e9d63000000000000000000000000000000000000000000000000000000007bffffffffffffffffffffffffffffffffffffffffffffffffffffffff1916827bffffffffffffffffffffffffffffffffffffffffffffffffffffffff191614806106655750610664826113e3565b5b9050919050565b60606000805461067b90612e1f565b80601f01602080910402602001604051908101604052809291908181526020018280546106a790612e1f565b80156106f45780601f106106c9576101008083540402835291602001916106f4565b820191906000526020600020905b8154815290600101906020018083116106d757829003601f168201915b5050505050905090565b6000610709826114c5565b506107138261154d565b9050919050565b61072c828261072761158a565b611592565b5050565b6000600880549050905090565b600073ffffffffffffffffffffffffffffffffffffffff168273ffffffffffffffffffffffffffffffffffffffff16036107af5760006040517f64a0ae920000000000000000000000000000000000000000000000000000000081526004016107a69190612a32565b60405180910390fd5b60006107c383836107be61158a565b6115a4565b90508373ffffffffffffffffffffffffffffffffffffffff168173ffffffffffffffffffffffffffffffffffffffff1614610839578382826040517f64283d7b00000000000000000000000000000000000000000000000000000000815260040161083093929190612e50565b60405180910390fd5b50505050565b60c881565b600061084f836109cd565b82106108945782826040517fa57d13dc00000000000000000000000000000000000000000000000000000000815260040161088b929190612bcf565b60405180910390fd5b600660008473ffffffffffffffffffffffffffffffffffffffff1673ffffffffffffffffffffffffffffffffffffffff168152602001908152602001600020600083815260200190815260200160002054905092915050565b6000806108f9836109cd565b1161090557600061090f565b67016345785d8a00005b67ffffffffffffffff169050919050565b61093b83838360405180602001604052806000815250610ff6565b505050565b600061094a610730565b8210610990576000826040517fa57d13dc000000000000000000000000000000000000000000000000000000008152600401610987929190612bcf565b60405180910390fd5b600882815481106109a4576109a3612e87565b5b90600052602060002001549050919050565b603281565b60006109c6826114c5565b9050919050565b60008073ffffffffffffffffffffffffffffffffffffffff168273ffffffffffffffffffffffffffffffffffffffff1603610a405760006040517f89c62b64000000000000000000000000000000000000000000000000000000008152600401610a379190612a32565b60405180910390fd5b600360008373ffffffffffffffffffffffffffffffffffffffff1673ffffffffffffffffffffffffffffffffffffffff168152602001908152602001600020549050919050565b610a8f6116c1565b610a996000611748565b565b6000600a60009054906101000a900473ffffffffffffffffffffffffffffffffffffffff16905090565b606060018054610ad490612e1f565b80601f0160208091040260200160405190810160405280929190818152602001828054610b0090612e1f565b8015610b4d5780601f10610b2257610100808354040283529160200191610b4d565b820191906000526020600020905b815481529060010190602001808311610b3057829003601f168201915b5050505050905090565b7f000000000000000000000000000000000000000000000000000000000000000081565b610b8d610b8661158a565b838361180e565b5050565b601481565b6000600b60008473ffffffffffffffffffffffffffffffffffffffff1673ffffffffffffffffffffffffffffffffffffffff16815260200190815260200160002060000160009054906101000a900473ffffffffffffffffffffffffffffffffffffffff169050600073ffffffffffffffffffffffffffffffffffffffff168173ffffffffffffffffffffffffffffffffffffffff1603610c375750610fae565b610c5b816127106103e885610c4c9190612ee5565b610c569190612f56565b61197d565b6000600b60008373ffffffffffffffffffffffffffffffffffffffff1673ffffffffffffffffffffffffffffffffffffffff16815260200190815260200160002060000160009054906101000a900473ffffffffffffffffffffffffffffffffffffffff169050600073ffffffffffffffffffffffffffffffffffffffff168173ffffffffffffffffffffffffffffffffffffffff1603610cfd575050610fae565b610d21816127106101f486610d129190612ee5565b610d1c9190612f56565b61197d565b6000600b60008373ffffffffffffffffffffffffffffffffffffffff1673ffffffffffffffffffffffffffffffffffffffff16815260200190815260200160002060000160009054906101000a900473ffffffffffffffffffffffffffffffffffffffff1690506000805b600073ffffffffffffffffffffffffffffffffffffffff168373ffffffffffffffffffffffffffffffffffffffff1614158015610dc7575081155b8015610dd35750601481105b15610f5f576000610de3846109cd565b1115610ee757610e0c8361271060c889610dfd9190612ee5565b610e079190612f56565b61197d565b600191506000600b60008573ffffffffffffffffffffffffffffffffffffffff1673ffffffffffffffffffffffffffffffffffffffff16815260200190815260200160002060000160009054906101000a900473ffffffffffffffffffffffffffffffffffffffff169050600073ffffffffffffffffffffffffffffffffffffffff168173ffffffffffffffffffffffffffffffffffffffff1614158015610ebc57506000610eba826109cd565b115b15610ee557610ee48161271060328a610ed59190612ee5565b610edf9190612f56565b61197d565b5b505b600b60008473ffffffffffffffffffffffffffffffffffffffff1673ffffffffffffffffffffffffffffffffffffffff16815260200190815260200160002060000160009054906101000a900473ffffffffffffffffffffffffffffffffffffffff1692508080610f5790612f87565b915050610d8c565b81610fa857610fa77f000000000000000000000000000000000000000000000000000000000000000061271060c889610f989190612ee5565b610fa29190612f56565b61197d565b5b50505050505b5050565b600b6020528060005260406000206000915090508060000160009054906101000a900473ffffffffffffffffffffffffffffffffffffffff16908060010154905082565b61100184848461073d565b61100d848484846119da565b50505050565b61101b6116c1565b80600b60008473ffffffffffffffffffffffffffffffffffffffff1673ffffffffffffffffffffffffffffffffffffffff16815260200190815260200160002060000160006101000a81548173ffffffffffffffffffffffffffffffffffffffff021916908373ffffffffffffffffffffffffffffffffffffffff1602179055505050565b60606110ab826114c5565b5060006110b6611b91565b905060008151116110d65760405180602001604052806000815250611101565b806110e084611ba8565b6040516020016110f192919061300b565b6040516020818303038152906040525b915050919050565b6101f481565b6000600560008473ffffffffffffffffffffffffffffffffffffffff1673ffffffffffffffffffffffffffffffffffffffff16815260200190815260200160002060008373ffffffffffffffffffffffffffffffffffffffff1673ffffffffffffffffffffffffffffffffffffffff16815260200190815260200160002060009054906101000a900460ff16905092915050565b600073ffffffffffffffffffffffffffffffffffffffff16600b60008473ffffffffffffffffffffffffffffffffffffffff1673ffffffffffffffffffffffffffffffffffffffff16815260200190815260200160002060000160009054906101000a900473ffffffffffffffffffffffffffffffffffffffff1673ffffffffffffffffffffffffffffffffffffffff1614801561126e5750600073ffffffffffffffffffffffffffffffffffffffff168173ffffffffffffffffffffffffffffffffffffffff1614155b80156112a657508173ffffffffffffffffffffffffffffffffffffffff168173ffffffffffffffffffffffffffffffffffffffff1614155b1561132d5780600b60008473ffffffffffffffffffffffffffffffffffffffff1673ffffffffffffffffffffffffffffffffffffffff16815260200190815260200160002060000160006101000a81548173ffffffffffffffffffffffffffffffffffffffff021916908373ffffffffffffffffffffffffffffffffffffffff1602179055505b6000600c600081548092919061134290612f87565b9190505590506113528382611c76565b505050565b61135f6116c1565b600073ffffffffffffffffffffffffffffffffffffffff168173ffffffffffffffffffffffffffffffffffffffff16036113d15760006040517f1e4fbdf70000000000000000000000000000000000000000000000000000000081526004016113c89190612a32565b60405180910390fd5b6113da81611748565b50565b6103e881565b60007f80ac58cd000000000000000000000000000000000000000000000000000000007bffffffffffffffffffffffffffffffffffffffffffffffffffffffff1916827bffffffffffffffffffffffffffffffffffffffffffffffffffffffff191614806114ae57507f5b5e139f000000000000000000000000000000000000000000000000000000007bffffffffffffffffffffffffffffffffffffffffffffffffffffffff1916827bffffffffffffffffffffffffffffffffffffffffffffffffffffffff1916145b806114be57506114bd82611c94565b5b9050919050565b6000806114d183611cfe565b9050600073ffffffffffffffffffffffffffffffffffffffff168173ffffffffffffffffffffffffffffffffffffffff160361154457826040517f7e27328900000000000000000000000000000000000000000000000000000000815260040161153b9190612ac8565b60405180910390fd5b80915050919050565b60006004600083815260200190815260200160002060009054906101000a900473ffffffffffffffffffffffffffffffffffffffff169050919050565b600033905090565b61159f8383836001611d3b565b505050565b6000806115b2858585611f00565b9050600073ffffffffffffffffffffffffffffffffffffffff168173ffffffffffffffffffffffffffffffffffffffff16036115f6576115f18461211a565b611635565b8473ffffffffffffffffffffffffffffffffffffffff168173ffffffffffffffffffffffffffffffffffffffff1614611634576116338185612163565b5b5b600073ffffffffffffffffffffffffffffffffffffffff168573ffffffffffffffffffffffffffffffffffffffff160361167757611672846122c4565b6116b6565b8473ffffffffffffffffffffffffffffffffffffffff168173ffffffffffffffffffffffffffffffffffffffff16146116b5576116b48585612395565b5b5b809150509392505050565b6116c961158a565b73ffffffffffffffffffffffffffffffffffffffff166116e7610a9b565b73ffffffffffffffffffffffffffffffffffffffff16146117465761170a61158a565b6040517f118cdaa700000000000000000000000000000000000000000000000000000000815260040161173d9190612a32565b60405180910390fd5b565b6000600a60009054906101000a900473ffffffffffffffffffffffffffffffffffffffff16905081600a60006101000a81548173ffffffffffffffffffffffffffffffffffffffff021916908373ffffffffffffffffffffffffffffffffffffffff1602179055508173ffffffffffffffffffffffffffffffffffffffff168173ffffffffffffffffffffffffffffffffffffffff167f8be0079c531659141344cd1fd0a4f28419497f9722a3daafe3b4186f6b6457e060405160405180910390a35050565b600073ffffffffffffffffffffffffffffffffffffffff168273ffffffffffffffffffffffffffffffffffffffff160361187f57816040517f5b08ba180000000000000000000000000000000000000000000000000000000081526004016118769190612a32565b60405180910390fd5b80600560008573ffffffffffffffffffffffffffffffffffffffff1673ffffffffffffffffffffffffffffffffffffffff16815260200190815260200160002060008473ffffffffffffffffffffffffffffffffffffffff1673ffffffffffffffffffffffffffffffffffffffff16815260200190815260200160002060006101000a81548160ff0219169083151502179055508173ffffffffffffffffffffffffffffffffffffffff168373ffffffffffffffffffffffffffffffffffffffff167f17307eab39ab6107e8899845ad3d59bd9653f200f220920489ca2b5937696c318360405161197091906128c1565b60405180910390a3505050565b80600b60008473ffffffffffffffffffffffffffffffffffffffff1673ffffffffffffffffffffffffffffffffffffffff16815260200190815260200160002060010160008282546119cf919061302f565b925050819055505050565b60008373ffffffffffffffffffffffffffffffffffffffff163b1115611b8b578273ffffffffffffffffffffffffffffffffffffffff1663150b7a02611a1e61158a565b8685856040518563ffffffff1660e01b8152600401611a4094939291906130b8565b6020604051808303816000875af1925050508015611a7c57506040513d601f19601f82011682018060405250810190611a799190613119565b60015b611b00573d8060008114611aac576040519150601f19603f3d011682016040523d82523d6000602084013e611ab1565b606091505b506000815103611af857836040517f64a0ae92000000000000000000000000000000000000000000000000000000008152600401611aef9190612a32565b60405180910390fd5b805181602001fd5b63150b7a0260e01b7bffffffffffffffffffffffffffffffffffffffffffffffffffffffff1916817bffffffffffffffffffffffffffffffffffffffffffffffffffffffff191614611b8957836040517f64a0ae92000000000000000000000000000000000000000000000000000000008152600401611b809190612a32565b60405180910390fd5b505b50505050565b606060405180602001604052806000815250905090565b606060006001611bb784612420565b01905060008167ffffffffffffffff811115611bd657611bd5612c02565b5b6040519080825280601f01601f191660200182016040528015611c085781602001600182028036833780820191505090505b509050600082602001820190505b600115611c6b578080600190039150507f3031323334353637383961626364656600000000000000000000000000000000600a86061a8153600a8581611c5f57611c5e612f27565b5b04945060008503611c16575b819350505050919050565b611c90828260405180602001604052806000815250612573565b5050565b60007f01ffc9a7000000000000000000000000000000000000000000000000000000007bffffffffffffffffffffffffffffffffffffffffffffffffffffffff1916827bffffffffffffffffffffffffffffffffffffffffffffffffffffffff1916149050919050565b60006002600083815260200190815260200160002060009054906101000a900473ffffffffffffffffffffffffffffffffffffffff169050919050565b8080611d745750600073ffffffffffffffffffffffffffffffffffffffff168273ffffffffffffffffffffffffffffffffffffffff1614155b15611ea8576000611d84846114c5565b9050600073ffffffffffffffffffffffffffffffffffffffff168373ffffffffffffffffffffffffffffffffffffffff1614158015611def57508273ffffffffffffffffffffffffffffffffffffffff168173ffffffffffffffffffffffffffffffffffffffff1614155b8015611e025750611e00818461110f565b155b15611e4457826040517fa9fbf51f000000000000000000000000000000000000000000000000000000008152600401611e3b9190612a32565b60405180910390fd5b8115611ea657838573ffffffffffffffffffffffffffffffffffffffff168273ffffffffffffffffffffffffffffffffffffffff167f8c5be1e5ebec7d5bd14f71427d1e84f3dd0314c0f7b2291e5b200ac8c7c3b92560405160405180910390a45b505b836004600085815260200190815260200160002060006101000a81548173ffffffffffffffffffffffffffffffffffffffff021916908373ffffffffffffffffffffffffffffffffffffffff16021790555050505050565b600080611f0c84611cfe565b9050600073ffffffffffffffffffffffffffffffffffffffff168373ffffffffffffffffffffffffffffffffffffffff1614611f4e57611f4d81848661258f565b5b600073ffffffffffffffffffffffffffffffffffffffff168173ffffffffffffffffffffffffffffffffffffffff1614611fdf57611f90600085600080611d3b565b6001600360008373ffffffffffffffffffffffffffffffffffffffff1673ffffffffffffffffffffffffffffffffffffffff168152602001908152602001600020600082825403925050819055505b600073ffffffffffffffffffffffffffffffffffffffff168573ffffffffffffffffffffffffffffffffffffffff1614612062576001600360008773ffffffffffffffffffffffffffffffffffffffff1673ffffffffffffffffffffffffffffffffffffffff168152602001908152602001600020600082825401925050819055505b846002600086815260200190815260200160002060006101000a81548173ffffffffffffffffffffffffffffffffffffffff021916908373ffffffffffffffffffffffffffffffffffffffff160217905550838573ffffffffffffffffffffffffffffffffffffffff168273ffffffffffffffffffffffffffffffffffffffff167fddf252ad1be2c89b69c2b068fc378daa952ba7f163c4a11628f55a4df523b3ef60405160405180910390a4809150509392505050565b6008805490506009600083815260200190815260200160002081905550600881908060018154018082558091505060019003906000526020600020016000909190919091505550565b600061216e836109cd565b9050600060076000848152602001908152602001600020549050818114612253576000600660008673ffffffffffffffffffffffffffffffffffffffff1673ffffffffffffffffffffffffffffffffffffffff168152602001908152602001600020600084815260200190815260200160002054905080600660008773ffffffffffffffffffffffffffffffffffffffff1673ffffffffffffffffffffffffffffffffffffffff168152602001908152602001600020600084815260200190815260200160002081905550816007600083815260200190815260200160002081905550505b6007600084815260200190815260200160002060009055600660008573ffffffffffffffffffffffffffffffffffffffff1673ffffffffffffffffffffffffffffffffffffffff16815260200190815260200160002060008381526020019081526020016000206000905550505050565b600060016008805490506122d89190613146565b905060006009600084815260200190815260200160002054905060006008838154811061230857612307612e87565b5b90600052602060002001549050806008838154811061232a57612329612e87565b5b9060005260206000200181905550816009600083815260200190815260200160002081905550600960008581526020019081526020016000206000905560088054806123795761237861317a565b5b6001900381819060005260206000200160009055905550505050565b600060016123a2846109cd565b6123ac9190613146565b905081600660008573ffffffffffffffffffffffffffffffffffffffff1673ffffffffffffffffffffffffffffffffffffffff168152602001908152602001600020600083815260200190815260200160002081905550806007600084815260200190815260200160002081905550505050565b600080600090507a184f03e93ff9f4daa797ed6e38ed64bf6a1f010000000000000000831061247e577a184f03e93ff9f4daa797ed6e38ed64bf6a1f010000000000000000838161247457612473612f27565b5b0492506040810190505b6d04ee2d6d415b85acef810000000083106124bb576d04ee2d6d415b85acef810000000083816124b1576124b0612f27565b5b0492506020810190505b662386f26fc1000083106124ea57662386f26fc1000083816124e0576124df612f27565b5b0492506010810190505b6305f5e1008310612513576305f5e100838161250957612508612f27565b5b0492506008810190505b612710831061253857612710838161252e5761252d612f27565b5b0492506004810190505b6064831061255b576064838161255157612550612f27565b5b0492506002810190505b600a831061256a576001810190505b80915050919050565b61257d8383612653565b61258a60008484846119da565b505050565b61259a83838361274c565b61264e57600073ffffffffffffffffffffffffffffffffffffffff168373ffffffffffffffffffffffffffffffffffffffff160361260f57806040517f7e2732890000000000000000000000000000000000000000000000000000000081526004016126069190612ac8565b60405180910390fd5b81816040517f177e802f000000000000000000000000000000000000000000000000000000008152600401612645929190612bcf565b60405180910390fd5b505050565b600073ffffffffffffffffffffffffffffffffffffffff168273ffffffffffffffffffffffffffffffffffffffff16036126c55760006040517f64a0ae920000000000000000000000000000000000000000000000000000000081526004016126bc9190612a32565b60405180910390fd5b60006126d3838360006115a4565b9050600073ffffffffffffffffffffffffffffffffffffffff168173ffffffffffffffffffffffffffffffffffffffff16146127475760006040517f73c6ac6e00000000000000000000000000000000000000000000000000000000815260040161273e9190612a32565b60405180910390fd5b505050565b60008073ffffffffffffffffffffffffffffffffffffffff168373ffffffffffffffffffffffffffffffffffffffff161415801561280457508273ffffffffffffffffffffffffffffffffffffffff168473ffffffffffffffffffffffffffffffffffffffff1614806127c557506127c4848461110f565b5b8061280357508273ffffffffffffffffffffffffffffffffffffffff166127eb8361154d565b73ffffffffffffffffffffffffffffffffffffffff16145b5b90509392505050565b6000604051905090565b600080fd5b600080fd5b60007fffffffff0000000000000000000000000000000000000000000000000000000082169050919050565b61285681612821565b811461286157600080fd5b50565b6000813590506128738161284d565b92915050565b60006020828403121561288f5761288e612817565b5b600061289d84828501612864565b91505092915050565b60008115159050919050565b6128bb816128a6565b82525050565b60006020820190506128d660008301846128b2565b92915050565b600081519050919050565b600082825260208201905092915050565b60005b838110156129165780820151818401526020810190506128fb565b60008484015250505050565b6000601f19601f8301169050919050565b600061293e826128dc565b61294881856128e7565b93506129588185602086016128f8565b61296181612922565b840191505092915050565b600060208201905081810360008301526129868184612933565b905092915050565b6000819050919050565b6129a18161298e565b81146129ac57600080fd5b50565b6000813590506129be81612998565b92915050565b6000602082840312156129da576129d9612817565b5b60006129e8848285016129af565b91505092915050565b600073ffffffffffffffffffffffffffffffffffffffff82169050919050565b6000612a1c826129f1565b9050919050565b612a2c81612a11565b82525050565b6000602082019050612a476000830184612a23565b92915050565b612a5681612a11565b8114612a6157600080fd5b50565b600081359050612a7381612a4d565b92915050565b60008060408385031215612a9057612a8f612817565b5b6000612a9e85828601612a64565b9250506020612aaf858286016129af565b9150509250929050565b612ac28161298e565b82525050565b6000602082019050612add6000830184612ab9565b92915050565b600080600060608486031215612afc57612afb612817565b5b6000612b0a86828701612a64565b9350506020612b1b86828701612a64565b9250506040612b2c868287016129af565b9150509250925092565b600060208284031215612b4c57612b4b612817565b5b6000612b5a84828501612a64565b91505092915050565b612b6c816128a6565b8114612b7757600080fd5b50565b600081359050612b8981612b63565b92915050565b60008060408385031215612ba657612ba5612817565b5b6000612bb485828601612a64565b9250506020612bc585828601612b7a565b9150509250929050565b6000604082019050612be46000830185612a23565b612bf16020830184612ab9565b9392505050565b600080fd5b600080fd5b7f4e487b7100000000000000000000000000000000000000000000000000000000600052604160045260246000fd5b612c3a82612922565b810181811067ffffffffffffffff82111715612c5957612c58612c02565b5b80604052505050565b6000612c6c61280d565b9050612c788282612c31565b919050565b600067ffffffffffffffff821115612c9857612c97612c02565b5b612ca182612922565b9050602081019050919050565b82818337600083830152505050565b6000612cd0612ccb84612c7d565b612c62565b905082815260208101848484011115612cec57612ceb612bfd565b5b612cf7848285612cae565b509392505050565b600082601f830112612d1457612d13612bf8565b5b8135612d24848260208601612cbd565b91505092915050565b60008060008060808587031215612d4757612d46612817565b5b6000612d5587828801612a64565b9450506020612d6687828801612a64565b9350506040612d77878288016129af565b925050606085013567ffffffffffffffff811115612d9857612d9761281c565b5b612da487828801612cff565b91505092959194509250565b60008060408385031215612dc757612dc6612817565b5b6000612dd585828601612a64565b9250506020612de685828601612a64565b9150509250929050565b7f4e487b7100000000000000000000000000000000000000000000000000000000600052602260045260246000fd5b60006002820490506001821680612e3757607f821691505b602082108103612e4a57612e49612df0565b5b50919050565b6000606082019050612e656000830186612a23565b612e726020830185612ab9565b612e7f6040830184612a23565b949350505050565b7f4e487b7100000000000000000000000000000000000000000000000000000000600052603260045260246000fd5b7f4e487b7100000000000000000000000000000000000000000000000000000000600052601160045260246000fd5b6000612ef08261298e565b9150612efb8361298e565b9250828202612f098161298e565b91508282048414831517612f2057612f1f612eb6565b5b5092915050565b7f4e487b7100000000000000000000000000000000000000000000000000000000600052601260045260246000fd5b6000612f618261298e565b9150612f6c8361298e565b925082612f7c57612f7b612f27565b5b828204905092915050565b6000612f928261298e565b91507fffffffffffffffffffffffffffffffffffffffffffffffffffffffffffffffff8203612fc457612fc3612eb6565b5b600182019050919050565b600081905092915050565b6000612fe5826128dc565b612fef8185612fcf565b9350612fff8185602086016128f8565b80840191505092915050565b60006130178285612fda565b91506130238284612fda565b91508190509392505050565b600061303a8261298e565b91506130458361298e565b925082820190508082111561305d5761305c612eb6565b5b92915050565b600081519050919050565b600082825260208201905092915050565b600061308a82613063565b613094818561306e565b93506130a48185602086016128f8565b6130ad81612922565b840191505092915050565b60006080820190506130cd6000830187612a23565b6130da6020830186612a23565b6130e76040830185612ab9565b81810360608301526130f9818461307f565b905095945050505050565b6000815190506131138161284d565b92915050565b60006020828403121561312f5761312e612817565b5b600061313d84828501613104565b91505092915050565b60006131518261298e565b915061315c8361298e565b925082820390508181111561317457613173612eb6565b5b92915050565b7f4e487b7100000000000000000000000000000000000000000000000000000000600052603160045260246000fdfea264697066735822122006c8c95c0345ee66afc0225afcf8357935aa80ca356b6337234f6515f665902e64736f6c63430008140033",
  "linkReferences": {},
  "deployedLinkReferences": {}
}