{
  "_format": "hh-sol-artifact-1",
  "contractName": "GenesisNode",
  "sourceName": "contracts/GenesisNode.sol",
  "abi": [
    {
      "inputs": [
        {
          "internalType": "address",
          "name": "_daoTreasury",
          "type": "address"
        }
      ],
      "stateMutability": "nonpayable",
      "type": "constructor"
    },
    {
      "inputs": [],
      "name": "ERC721EnumerableForbiddenBatchMint",
      "type": "error"
    },
    {
      "inputs": [
        {
          "internalType": "address",
          "name": "sender",
          "type": "address"
        },
        {
          "internalType": "uint256",
          "name": "tokenId",
          "type": "uint256"
        },
        {
          "internalType": "address",
          "name": "owner",
          "type": "address"
        }
      ],
      "name": "ERC721IncorrectOwner",
      "type": "error"
    },
    {
      "inputs": [
        {
          "internalType": "address",
          "name": "operator",
          "type": "address"
        },
        {
          "internalType": "uint256",
          "name": "tokenId",
          "type": "uint256"
        }
      ],
      "name": "ERC721InsufficientApproval",
      "type": "error"
    },
    {
      "inputs": [
        {
          "internalType": "address",
          "name": "approver",
          "type": "address"
        }
      ],
      "name": "ERC721InvalidApprover",
      "type": "error"
    },
    {
      "inputs": [
        {
          "internalType": "address",
          "name": "operator",
          "type": "address"
        }
      ],
      "name": "ERC721InvalidOperator",
      "type": "error"
    },
    {
      "inputs": [
        {
          "internalType": "address",
          "name": "owner",
          "type": "address"
        }
      ],
      "name": "ERC721InvalidOwner",
      "type": "error"
    },
    {
      "inputs": [
        {
          "internalType": "address",
          "name": "receiver",
          "type": "address"
        }
      ],
      "name": "ERC721InvalidReceiver",
      "type": "error"
    },
    {
      "inputs": [
        {
          "internalType": "address",
          "name": "sender",
          "type": "address"
        }
      ],
      "name": "ERC721InvalidSender",
      "type": "error"
    },
    {
      "inputs": [
        {
          "internalType": "uint256",
          "name": "tokenId",
          "type": "uint256"
        }
      ],
      "name": "ERC721NonexistentToken",
      "type": "error"
    },
    {
      "inputs": [
        {
          "internalType": "address",
          "name": "owner",
          "type": "address"
        },
        {
          "internalType": "uint256",
          "name": "index",
          "type": "uint256"
        }
      ],
      "name": "ERC721OutOfBoundsIndex",
      "type": "error"
    },
    {
      "inputs": [
        {
          "internalType": "address",
          "name": "owner",
          "type": "address"
        }
      ],
      "name": "OwnableInvalidOwner",
      "type": "error"
    },
    {
      "inputs": [
        {
          "internalType": "address",
          "name": "account",
          "type": "address"
        }
      ],
      "name": "OwnableUnauthorizedAccount",
      "type": "error"
    },
    {
      "anonymous": false,
      "inputs": [
        {
          "indexed": true,
          "internalType": "address",
          "name": "owner",
          "type": "address"
        },
        {
          "indexed": true,
          "internalType": "address",
          "name": "approved",
          "type": "address"
        },
        {
          "indexed": true,
          "internalType": "uint256",
          "name": "tokenId",
          "type": "uint256"
        }
      ],
      "name": "Approval",
      "type": "event"
    },
    {
      "anonymous": false,
      "inputs": [
        {
          "indexed": true,
          "internalType": "address",
          "name": "owner",
          "type": "address"
        },
        {
          "indexed": true,
          "internalType": "address",
          "name": "operator",
          "type": "address"
        },
        {
          "indexed": false,
          "internalType": "bool",
          "name": "approved",
          "type": "bool"
        }
      ],
      "name": "ApprovalForAll",
      "type": "event"
    },
    {
      "anonymous": false,
      "inputs": [
        {
          "indexed": true,
          "internalType": "address",
          "name": "previousOwner",
          "type": "address"
        },
        {
          "indexed": true,
          "internalType": "address",
          "name": "newOwner",
          "type": "address"
        }
      ],
      "name": "OwnershipTransferred",
      "type": "event"
    },
    {
      "anonymous": false,
      "inputs": [
        {
          "indexed": true,
          "internalType": "address",
          "name": "from",
          "type": "address"
        },
        {
          "indexed": true,
          "internalType": "address",
          "name": "to",
          "type": "address"
        },
        {
          "indexed": true,
          "internalType": "uint256",
          "name": "tokenId",
          "type": "uint256"
        }
      ],
      "name": "Transfer",
      "type": "event"
    },
    {
      "inputs": [],
      "name": "DAO_TREASURY",
      "outputs": [
        {
          "internalType": "address",
          "name": "",
          "type": "address"
        }
      ],
      "stateMutability": "view",
      "type": "function"
    },
    {
      "inputs": [],
      "name": "EQUAL_LEVEL_BONUS",
      "outputs": [
        {
          "internalType": "uint256",
          "name": "",
          "type": "uint256"
        }
      ],
      "stateMutability": "view",
      "type": "function"
    },
    {
      "inputs": [],
      "name": "INFINITE_RATE",
      "outputs": [
        {
          "internalType": "uint256",
          "name": "",
          "type": "uint256"
        }
      ],
      "stateMutability": "view",
      "type": "function"
    },
    {
      "inputs": [],
      "name": "L1_RATE",
      "outputs": [
        {
          "internalType": "uint256",
          "name": "",
          "type": "uint256"
        }
      ],
      "stateMutability": "view",
      "type": "function"
    },
    {
      "inputs": [],
      "name": "L2_RATE",
      "outputs": [
        {
          "internalType": "uint256",
          "name": "",
          "type": "uint256"
        }
      ],
      "stateMutability": "view",
      "type": "function"
    },
    {
      "inputs": [],
      "name": "MAX_DEPTH",
      "outputs": [
        {
          "internalType": "uint256",
          "name": "",
          "type": "uint256"
        }
      ],
      "stateMutability": "view",
      "type": "function"
    },
    {
      "inputs": [
        {
          "internalType": "address",
          "name": "to",
          "type": "address"
        },
        {
          "internalType": "uint256",
          "name": "tokenId",
          "type": "uint256"
        }
      ],
      "name": "approve",
      "outputs": [],
      "stateMutability": "nonpayable",
      "type": "function"
    },
    {
      "inputs": [
        {
          "internalType": "address",
          "name": "owner",
          "type": "address"
        }
      ],
      "name": "balanceOf",
      "outputs": [
        {
          "internalType": "uint256",
          "name": "",
          "type": "uint256"
        }
      ],
      "stateMutability": "view",
      "type": "function"
    },
    {
      "inputs": [
        {
          "internalType": "address",
          "name": "minter",
          "type": "address"
        },
        {
          "internalType": "uint256",
          "name": "mintAmount",
          "type": "uint256"
        }
      ],
      "name": "distributeRewards",
      "outputs": [],
      "stateMutability": "nonpayable",
      "type": "function"
    },
    {
      "inputs": [
        {
          "internalType": "uint256",
          "name": "tokenId",
          "type": "uint256"
        }
      ],
      "name": "getApproved",
      "outputs": [
        {
          "internalType": "address",
          "name": "",
          "type": "address"
        }
      ],
      "stateMutability": "view",
      "type": "function"
    },
    {
      "inputs": [
        {
          "internalType": "address",
          "name": "user",
          "type": "address"
        }
      ],
      "name": "getSelfBoost",
      "outputs": [
        {
          "internalType": "uint256",
          "name": "",
          "type": "uint256"
        }
      ],
      "stateMutability": "view",
      "type": "function"
    },
    {
      "inputs": [
        {
          "internalType": "address",
          "name": "owner",
          "type": "address"
        },
        {
          "internalType": "address",
          "name": "operator",
          "type": "address"
        }
      ],
      "name": "isApprovedForAll",
      "outputs": [
        {
          "internalType": "bool",
          "name": "",
          "type": "bool"
        }
      ],
      "stateMutability": "view",
      "type": "function"
    },
    {
      "inputs": [
        {
          "internalType": "address",
          "name": "to",
          "type": "address"
        },
        {
          "internalType": "address",
          "name": "referrer",
          "type": "address"
        }
      ],
      "name": "mint",
      "outputs": [],
      "stateMutability": "nonpayable",
      "type": "function"
    },
    {
      "inputs": [],
      "name": "name",
      "outputs": [
        {
          "internalType": "string",
          "name": "",
          "type": "string"
        }
      ],
      "stateMutability": "view",
      "type": "function"
    },
    {
      "inputs": [],
      "name": "owner",
      "outputs": [
        {
          "internalType": "address",
          "name": "",
          "type": "address"
        }
      ],
      "stateMutability": "view",
      "type": "function"
    },
    {
      "inputs": [
        {
          "internalType": "uint256",
          "name": "tokenId",
          "type": "uint256"
        }
      ],
      "name": "ownerOf",
      "outputs": [
        {
          "internalType": "address",
          "name": "",
          "type": "address"
        }
      ],
      "stateMutability": "view",
      "type": "function"
    },
    {
      "inputs": [],
      "name": "renounceOwnership",
      "outputs": [],
      "stateMutability": "nonpayable",
      "type": "function"
    },
    {
      "inputs": [
        {
          "internalType": "address",
          "name": "from",
          "type": "address"
        },
        {
          "internalType": "address",
          "name": "to",
          "type": "address"
        },
        {
          "internalType": "uint256",
          "name": "tokenId",
          "type": "uint256"
        }
      ],
      "name": "safeTransferFrom",
      "outputs": [],
      "stateMutability": "nonpayable",
      "type": "function"
    },
    {
      "inputs": [
        {
          "internalType": "address",
          "name": "from",
          "type": "address"
        },
        {
          "internalType": "address",
          "name": "to",
          "type": "address"
        },
        {
          "internalType": "uint256",
          "name": "tokenId",
          "type": "uint256"
        },
        {
          "internalType": "bytes",
          "name": "data",
          "type": "bytes"
        }
      ],
      "name": "safeTransferFrom",
      "outputs": [],
      "stateMutability": "nonpayable",
      "type": "function"
    },
    {
      "inputs": [
        {
          "internalType": "address",
          "name": "operator",
          "type": "address"
        },
        {
          "internalType": "bool",
          "name": "approved",
          "type": "bool"
        }
      ],
      "name": "setApprovalForAll",
      "outputs": [],
      "stateMutability": "nonpayable",
      "type": "function"
    },
    {
      "inputs": [
        {
          "internalType": "string",
          "name": "baseURI",
          "type": "string"
        }
      ],
      "name": "setBaseURI",
      "outputs": [],
      "stateMutability": "nonpayable",
      "type": "function"
    },
    {
      "inputs": [
        {
          "internalType": "address",
          "name": "user",
          "type": "address"
        },
        {
          "internalType": "address",
          "name": "referrer",
          "type": "address"
        }
      ],
      "name": "setReferrer",
      "outputs": [],
      "stateMutability": "nonpayable",
      "type": "function"
    },
    {
      "inputs": [
        {
          "internalType": "bytes4",
          "name": "interfaceId",
          "type": "bytes4"
        }
      ],
      "name": "supportsInterface",
      "outputs": [
        {
          "internalType": "bool",
          "name": "",
          "type": "bool"
        }
      ],
      "stateMutability": "view",
      "type": "function"
    },
    {
      "inputs": [],
      "name": "symbol",
      "outputs": [
        {
          "internalType": "string",
          "name": "",
          "type": "string"
        }
      ],
      "stateMutability": "view",
      "type": "function"
    },
    {
      "inputs": [
        {
          "internalType": "uint256",
          "name": "index",
          "type": "uint256"
        }
      ],
      "name": "tokenByIndex",
      "outputs": [
        {
          "internalType": "uint256",
          "name": "",
          "type": "uint256"
        }
      ],
      "stateMutability": "view",
      "type": "function"
    },
    {
      "inputs": [
        {
          "internalType": "address",
          "name": "owner",
          "type": "address"
        },
        {
          "internalType": "uint256",
          "name": "index",
          "type": "uint256"
        }
      ],
      "name": "tokenOfOwnerByIndex",
      "outputs": [
        {
          "internalType": "uint256",
          "name": "",
          "type": "uint256"
        }
      ],
      "stateMutability": "view",
      "type": "function"
    },
    {
      "inputs": [
        {
          "internalType": "uint256",
          "name": "tokenId",
          "type": "uint256"
        }
      ],
      "name": "tokenURI",
      "outputs": [
        {
          "internalType": "string",
          "name": "",
          "type": "string"
        }
      ],
      "stateMutability": "view",
      "type": "function"
    },
    {
      "inputs": [],
      "name": "totalSupply",
      "outputs": [
        {
          "internalType": "uint256",
          "name": "",
          "type": "uint256"
        }
      ],
      "stateMutability": "view",
      "type": "function"
    },
    {
      "inputs": [
        {
          "internalType": "address",
          "name": "from",
          "type": "address"
        },
        {
          "internalType": "address",
          "name": "to",
          "type": "address"
        },
        {
          "internalType": "uint256",
          "name": "tokenId",
          "type": "uint256"
        }
      ],
      "name": "transferFrom",
      "outputs": [],
      "stateMutability": "nonpayable",
      "type": "function"
    },
    {
      "inputs": [
        {
          "internalType": "address",
          "name": "newOwner",
          "type": "address"
        }
      ],
      "name": "transferOwnership",
      "outputs": [],
      "stateMutability": "nonpayable",
      "type": "function"
    },
    {
      "inputs": [
        {
          "internalType": "address",
          "name": "",
          "type": "address"
        }
      ],
      "name": "users",
      "outputs": [
        {
          "internalType": "address",
          "name": "referrer",
          "type": "address"
        },
        {
          "internalType": "uint256",
          "name": "totalRewards",
          "type": "uint256"
        }
      ],
      "stateMutability": "view",
      "type": "function"
    }
  ],
  "bytecode": "0x60a06040523480156200001157600080fd5b5060405162003d6838038062003d6883398181016040528101906200003791906200032e565b336040518060400160405280601081526020017f4976792047656e65736973204e6f6465000000000000000000000000000000008152506040518060400160405280600881526020017f4956592d4e4f44450000000000000000000000000000000000000000000000008152508160009081620000b59190620005da565b508060019081620000c79190620005da565b505050600073ffffffffffffffffffffffffffffffffffffffff168173ffffffffffffffffffffffffffffffffffffffff16036200013f5760006040517f1e4fbdf7000000000000000000000000000000000000000000000000000000008152600401620001369190620006d2565b60405180910390fd5b6200015081620001fe60201b60201c565b50600073ffffffffffffffffffffffffffffffffffffffff168173ffffffffffffffffffffffffffffffffffffffff1603620001c3576040517f08c379a0000000000000000000000000000000000000000000000000000000008152600401620001ba9062000750565b60405180910390fd5b8073ffffffffffffffffffffffffffffffffffffffff1660808173ffffffffffffffffffffffffffffffffffffffff16815250505062000772565b6000600a60009054906101000a900473ffffffffffffffffffffffffffffffffffffffff16905081600a60006101000a81548173ffffffffffffffffffffffffffffffffffffffff021916908373ffffffffffffffffffffffffffffffffffffffff1602179055508173ffffffffffffffffffffffffffffffffffffffff168173ffffffffffffffffffffffffffffffffffffffff167f8be0079c531659141344cd1fd0a4f28419497f9722a3daafe3b4186f6b6457e060405160405180910390a35050565b600080fd5b600073ffffffffffffffffffffffffffffffffffffffff82169050919050565b6000620002f682620002c9565b9050919050565b6200030881620002e9565b81146200031457600080fd5b50565b6000815190506200032881620002fd565b92915050565b600060208284031215620003475762000346620002c4565b5b6000620003578482850162000317565b91505092915050565b600081519050919050565b7f4e487b7100000000000000000000000000000000000000000000000000000000600052604160045260246000fd5b7f4e487b7100000000000000000000000000000000000000000000000000000000600052602260045260246000fd5b60006002820490506001821680620003e257607f821691505b602082108103620003f857620003f76200039a565b5b50919050565b60008190508160005260206000209050919050565b60006020601f8301049050919050565b600082821b905092915050565b600060088302620004627fffffffffffffffffffffffffffffffffffffffffffffffffffffffffffffffff8262000423565b6200046e868362000423565b95508019841693508086168417925050509392505050565b6000819050919050565b6000819050919050565b6000620004bb620004b5620004af8462000486565b62000490565b62000486565b9050919050565b6000819050919050565b620004d7836200049a565b620004ef620004e682620004c2565b84845462000430565b825550505050565b600090565b62000506620004f7565b62000513818484620004cc565b505050565b5b818110156200053b576200052f600082620004fc565b60018101905062000519565b5050565b601f8211156200058a576200055481620003fe565b6200055f8462000413565b810160208510156200056f578190505b620005876200057e8562000413565b83018262000518565b50505b505050565b600082821c905092915050565b6000620005af600019846008026200058f565b1980831691505092915050565b6000620005ca83836200059c565b9150826002028217905092915050565b620005e58262000360565b67ffffffffffffffff8111156200060157620006006200036b565b5b6200060d8254620003c9565b6200061a8282856200053f565b600060209050601f8311600181146200065257600084156200063d578287015190505b620006498582620005bc565b865550620006b9565b601f1984166200066286620003fe565b60005b828110156200068c5784890151825560018201915060208501945060208101905062000665565b86831015620006ac5784890151620006a8601f8916826200059c565b8355505b6001600288020188555050505b505050505050565b620006cc81620002e9565b82525050565b6000602082019050620006e96000830184620006c1565b92915050565b600082825260208201905092915050565b7f496e76616c696420547265617375727900000000000000000000000000000000600082015250565b600062000738601083620006ef565b9150620007458262000700565b602082019050919050565b600060208201905081810360008301526200076b8162000729565b9050919050565b6080516135d36200079560003960008181610b9e0152610fae01526135d36000f3fe608060405234801561001057600080fd5b50600436106101e55760003560e01c8063715018a61161010f578063b88d4fde116100a2578063e985e9c511610071578063e985e9c514610593578063ee1fe2ad146105c3578063f2fde38b146105df578063f706555b146105fb576101e5565b8063b88d4fde1461050d578063bbddaca314610529578063c87b56dd14610545578063da6510b414610575576101e5565b8063a22cb465116100de578063a22cb46514610486578063a27154ba146104a2578063a8031a1d146104c0578063a87430ba146104dc576101e5565b8063715018a6146104225780638da5cb5b1461042c57806395d89b411461044a5780639dc78ee614610468576101e5565b80632f745c591161018757806355f804b31161015657806355f804b3146103885780635ff871c8146103a45780636352211e146103c257806370a08231146103f2576101e5565b80632f745c59146102dc5780633633f3c01461030c57806342842e0e1461033c5780634f6ccce714610358576101e5565b8063095ea7b3116101c3578063095ea7b31461026857806318160ddd1461028457806323b872dd146102a2578063277c19b0146102be576101e5565b806301ffc9a7146101ea57806306fdde031461021a578063081812fc14610238575b600080fd5b61020460048036038101906101ff9190612939565b610619565b6040516102119190612981565b60405180910390f35b610222610693565b60405161022f9190612a2c565b60405180910390f35b610252600480360381019061024d9190612a84565b610725565b60405161025f9190612af2565b60405180910390f35b610282600480360381019061027d9190612b39565b610741565b005b61028c610757565b6040516102999190612b88565b60405180910390f35b6102bc60048036038101906102b79190612ba3565b610764565b005b6102c6610866565b6040516102d39190612b88565b60405180910390f35b6102f660048036038101906102f19190612b39565b61086b565b6040516103039190612b88565b60405180910390f35b61032660048036038101906103219190612bf6565b610914565b6040516103339190612b88565b60405180910390f35b61035660048036038101906103519190612ba3565b610947565b005b610372600480360381019061036d9190612a84565b610967565b60405161037f9190612b88565b60405180910390f35b6103a2600480360381019061039d9190612c88565b6109dd565b005b6103ac6109fb565b6040516103b99190612b88565b60405180910390f35b6103dc60048036038101906103d79190612a84565b610a00565b6040516103e99190612af2565b60405180910390f35b61040c60048036038101906104079190612bf6565b610a12565b6040516104199190612b88565b60405180910390f35b61042a610acc565b005b610434610ae0565b6040516104419190612af2565b60405180910390f35b610452610b0a565b60405161045f9190612a2c565b60405180910390f35b610470610b9c565b60405161047d9190612af2565b60405180910390f35b6104a0600480360381019061049b9190612d01565b610bc0565b005b6104aa610bd6565b6040516104b79190612b88565b60405180910390f35b6104da60048036038101906104d59190612b39565b610bdb565b005b6104f660048036038101906104f19190612bf6565b610ff7565b604051610504929190612d41565b60405180910390f35b61052760048036038101906105229190612e9a565b61103b565b005b610543600480360381019061053e9190612f1d565b611058565b005b61055f600480360381019061055a9190612a84565b6110e5565b60405161056c9190612a2c565b60405180910390f35b61057d61114e565b60405161058a9190612b88565b60405180910390f35b6105ad60048036038101906105a89190612f1d565b611154565b6040516105ba9190612981565b60405180910390f35b6105dd60048036038101906105d89190612f1d565b6111e8565b005b6105f960048036038101906105f49190612bf6565b61139c565b005b610603611422565b6040516106109190612b88565b60405180910390f35b60007f780e9d63000000000000000000000000000000000000000000000000000000007bffffffffffffffffffffffffffffffffffffffffffffffffffffffff1916827bffffffffffffffffffffffffffffffffffffffffffffffffffffffff1916148061068c575061068b82611428565b5b9050919050565b6060600080546106a290612f8c565b80601f01602080910402602001604051908101604052809291908181526020018280546106ce90612f8c565b801561071b5780601f106106f05761010080835404028352916020019161071b565b820191906000526020600020905b8154815290600101906020018083116106fe57829003601f168201915b5050505050905090565b60006107308261150a565b5061073a82611592565b9050919050565b610753828261074e6115cf565b6115d7565b5050565b6000600880549050905090565b600073ffffffffffffffffffffffffffffffffffffffff168273ffffffffffffffffffffffffffffffffffffffff16036107d65760006040517f64a0ae920000000000000000000000000000000000000000000000000000000081526004016107cd9190612af2565b60405180910390fd5b60006107ea83836107e56115cf565b6115e9565b90508373ffffffffffffffffffffffffffffffffffffffff168173ffffffffffffffffffffffffffffffffffffffff1614610860578382826040517f64283d7b00000000000000000000000000000000000000000000000000000000815260040161085793929190612fbd565b60405180910390fd5b50505050565b60c881565b600061087683610a12565b82106108bb5782826040517fa57d13dc0000000000000000000000000000000000000000000000000000000081526004016108b2929190612d41565b60405180910390fd5b600660008473ffffffffffffffffffffffffffffffffffffffff1673ffffffffffffffffffffffffffffffffffffffff168152602001908152602001600020600083815260200190815260200160002054905092915050565b60008061092083610a12565b1161092c576000610936565b67016345785d8a00005b67ffffffffffffffff169050919050565b6109628383836040518060200160405280600081525061103b565b505050565b6000610971610757565b82106109b7576000826040517fa57d13dc0000000000000000000000000000000000000000000000000000000081526004016109ae929190612d41565b60405180910390fd5b600882815481106109cb576109ca612ff4565b5b90600052602060002001549050919050565b6109e5611706565b8181600d91826109f69291906131da565b505050565b603281565b6000610a0b8261150a565b9050919050565b60008073ffffffffffffffffffffffffffffffffffffffff168273ffffffffffffffffffffffffffffffffffffffff1603610a855760006040517f89c62b64000000000000000000000000000000000000000000000000000000008152600401610a7c9190612af2565b60405180910390fd5b600360008373ffffffffffffffffffffffffffffffffffffffff1673ffffffffffffffffffffffffffffffffffffffff168152602001908152602001600020549050919050565b610ad4611706565b610ade600061178d565b565b6000600a60009054906101000a900473ffffffffffffffffffffffffffffffffffffffff16905090565b606060018054610b1990612f8c565b80601f0160208091040260200160405190810160405280929190818152602001828054610b4590612f8c565b8015610b925780601f10610b6757610100808354040283529160200191610b92565b820191906000526020600020905b815481529060010190602001808311610b7557829003601f168201915b5050505050905090565b7f000000000000000000000000000000000000000000000000000000000000000081565b610bd2610bcb6115cf565b8383611853565b5050565b601481565b6000600b60008473ffffffffffffffffffffffffffffffffffffffff1673ffffffffffffffffffffffffffffffffffffffff16815260200190815260200160002060000160009054906101000a900473ffffffffffffffffffffffffffffffffffffffff169050600073ffffffffffffffffffffffffffffffffffffffff168173ffffffffffffffffffffffffffffffffffffffff1603610c7c5750610ff3565b610ca0816127106103e885610c9191906132d9565b610c9b919061334a565b6119c2565b6000600b60008373ffffffffffffffffffffffffffffffffffffffff1673ffffffffffffffffffffffffffffffffffffffff16815260200190815260200160002060000160009054906101000a900473ffffffffffffffffffffffffffffffffffffffff169050600073ffffffffffffffffffffffffffffffffffffffff168173ffffffffffffffffffffffffffffffffffffffff1603610d42575050610ff3565b610d66816127106101f486610d5791906132d9565b610d61919061334a565b6119c2565b6000600b60008373ffffffffffffffffffffffffffffffffffffffff1673ffffffffffffffffffffffffffffffffffffffff16815260200190815260200160002060000160009054906101000a900473ffffffffffffffffffffffffffffffffffffffff1690506000805b600073ffffffffffffffffffffffffffffffffffffffff168373ffffffffffffffffffffffffffffffffffffffff1614158015610e0c575081155b8015610e185750601481105b15610fa4576000610e2884610a12565b1115610f2c57610e518361271060c889610e4291906132d9565b610e4c919061334a565b6119c2565b600191506000600b60008573ffffffffffffffffffffffffffffffffffffffff1673ffffffffffffffffffffffffffffffffffffffff16815260200190815260200160002060000160009054906101000a900473ffffffffffffffffffffffffffffffffffffffff169050600073ffffffffffffffffffffffffffffffffffffffff168173ffffffffffffffffffffffffffffffffffffffff1614158015610f0157506000610eff82610a12565b115b15610f2a57610f298161271060328a610f1a91906132d9565b610f24919061334a565b6119c2565b5b505b600b60008473ffffffffffffffffffffffffffffffffffffffff1673ffffffffffffffffffffffffffffffffffffffff16815260200190815260200160002060000160009054906101000a900473ffffffffffffffffffffffffffffffffffffffff1692508080610f9c9061337b565b915050610dd1565b81610fed57610fec7f000000000000000000000000000000000000000000000000000000000000000061271060c889610fdd91906132d9565b610fe7919061334a565b6119c2565b5b50505050505b5050565b600b6020528060005260406000206000915090508060000160009054906101000a900473ffffffffffffffffffffffffffffffffffffffff16908060010154905082565b611046848484610764565b61105284848484611a1f565b50505050565b611060611706565b80600b60008473ffffffffffffffffffffffffffffffffffffffff1673ffffffffffffffffffffffffffffffffffffffff16815260200190815260200160002060000160006101000a81548173ffffffffffffffffffffffffffffffffffffffff021916908373ffffffffffffffffffffffffffffffffffffffff1602179055505050565b60606110f08261150a565b5060006110fb611bd6565b9050600081511161111b5760405180602001604052806000815250611146565b8061112584611c68565b6040516020016111369291906133ff565b6040516020818303038152906040525b915050919050565b6101f481565b6000600560008473ffffffffffffffffffffffffffffffffffffffff1673ffffffffffffffffffffffffffffffffffffffff16815260200190815260200160002060008373ffffffffffffffffffffffffffffffffffffffff1673ffffffffffffffffffffffffffffffffffffffff16815260200190815260200160002060009054906101000a900460ff16905092915050565b600073ffffffffffffffffffffffffffffffffffffffff16600b60008473ffffffffffffffffffffffffffffffffffffffff1673ffffffffffffffffffffffffffffffffffffffff16815260200190815260200160002060000160009054906101000a900473ffffffffffffffffffffffffffffffffffffffff1673ffffffffffffffffffffffffffffffffffffffff161480156112b35750600073ffffffffffffffffffffffffffffffffffffffff168173ffffffffffffffffffffffffffffffffffffffff1614155b80156112eb57508173ffffffffffffffffffffffffffffffffffffffff168173ffffffffffffffffffffffffffffffffffffffff1614155b156113725780600b60008473ffffffffffffffffffffffffffffffffffffffff1673ffffffffffffffffffffffffffffffffffffffff16815260200190815260200160002060000160006101000a81548173ffffffffffffffffffffffffffffffffffffffff021916908373ffffffffffffffffffffffffffffffffffffffff1602179055505b6000600c60008154809291906113879061337b565b9190505590506113978382611d36565b505050565b6113a4611706565b600073ffffffffffffffffffffffffffffffffffffffff168173ffffffffffffffffffffffffffffffffffffffff16036114165760006040517f1e4fbdf700000000000000000000000000000000000000000000000000000000815260040161140d9190612af2565b60405180910390fd5b61141f8161178d565b50565b6103e881565b60007f80ac58cd000000000000000000000000000000000000000000000000000000007bffffffffffffffffffffffffffffffffffffffffffffffffffffffff1916827bffffffffffffffffffffffffffffffffffffffffffffffffffffffff191614806114f357507f5b5e139f000000000000000000000000000000000000000000000000000000007bffffffffffffffffffffffffffffffffffffffffffffffffffffffff1916827bffffffffffffffffffffffffffffffffffffffffffffffffffffffff1916145b80611503575061150282611d54565b5b9050919050565b60008061151683611dbe565b9050600073ffffffffffffffffffffffffffffffffffffffff168173ffffffffffffffffffffffffffffffffffffffff160361158957826040517f7e2732890000000000000000000000000000000000000000000000000000000081526004016115809190612b88565b60405180910390fd5b80915050919050565b60006004600083815260200190815260200160002060009054906101000a900473ffffffffffffffffffffffffffffffffffffffff169050919050565b600033905090565b6115e48383836001611dfb565b505050565b6000806115f7858585611fc0565b9050600073ffffffffffffffffffffffffffffffffffffffff168173ffffffffffffffffffffffffffffffffffffffff160361163b57611636846121da565b61167a565b8473ffffffffffffffffffffffffffffffffffffffff168173ffffffffffffffffffffffffffffffffffffffff1614611679576116788185612223565b5b5b600073ffffffffffffffffffffffffffffffffffffffff168573ffffffffffffffffffffffffffffffffffffffff16036116bc576116b784612384565b6116fb565b8473ffffffffffffffffffffffffffffffffffffffff168173ffffffffffffffffffffffffffffffffffffffff16146116fa576116f98585612455565b5b5b809150509392505050565b61170e6115cf565b73ffffffffffffffffffffffffffffffffffffffff1661172c610ae0565b73ffffffffffffffffffffffffffffffffffffffff161461178b5761174f6115cf565b6040517f118cdaa70000000000000000000000000000000000000000000000000000000081526004016117829190612af2565b60405180910390fd5b565b6000600a60009054906101000a900473ffffffffffffffffffffffffffffffffffffffff16905081600a60006101000a81548173ffffffffffffffffffffffffffffffffffffffff021916908373ffffffffffffffffffffffffffffffffffffffff1602179055508173ffffffffffffffffffffffffffffffffffffffff168173ffffffffffffffffffffffffffffffffffffffff167f8be0079c531659141344cd1fd0a4f28419497f9722a3daafe3b4186f6b6457e060405160405180910390a35050565b600073ffffffffffffffffffffffffffffffffffffffff168273ffffffffffffffffffffffffffffffffffffffff16036118c457816040517f5b08ba180000000000000000000000000000000000000000000000000000000081526004016118bb9190612af2565b60405180910390fd5b80600560008573ffffffffffffffffffffffffffffffffffffffff1673ffffffffffffffffffffffffffffffffffffffff16815260200190815260200160002060008473ffffffffffffffffffffffffffffffffffffffff1673ffffffffffffffffffffffffffffffffffffffff16815260200190815260200160002060006101000a81548160ff0219169083151502179055508173ffffffffffffffffffffffffffffffffffffffff168373ffffffffffffffffffffffffffffffffffffffff167f17307eab39ab6107e8899845ad3d59bd9653f200f220920489ca2b5937696c31836040516119b59190612981565b60405180910390a3505050565b80600b60008473ffffffffffffffffffffffffffffffffffffffff1673ffffffffffffffffffffffffffffffffffffffff1681526020019081526020016000206001016000828254611a149190613423565b925050819055505050565b60008373ffffffffffffffffffffffffffffffffffffffff163b1115611bd0578273ffffffffffffffffffffffffffffffffffffffff1663150b7a02611a636115cf565b8685856040518563ffffffff1660e01b8152600401611a8594939291906134ac565b6020604051808303816000875af1925050508015611ac157506040513d601f19601f82011682018060405250810190611abe919061350d565b60015b611b45573d8060008114611af1576040519150601f19603f3d011682016040523d82523d6000602084013e611af6565b606091505b506000815103611b3d57836040517f64a0ae92000000000000000000000000000000000000000000000000000000008152600401611b349190612af2565b60405180910390fd5b805181602001fd5b63150b7a0260e01b7bffffffffffffffffffffffffffffffffffffffffffffffffffffffff1916817bffffffffffffffffffffffffffffffffffffffffffffffffffffffff191614611bce57836040517f64a0ae92000000000000000000000000000000000000000000000000000000008152600401611bc59190612af2565b60405180910390fd5b505b50505050565b6060600d8054611be590612f8c565b80601f0160208091040260200160405190810160405280929190818152602001828054611c1190612f8c565b8015611c5e5780601f10611c3357610100808354040283529160200191611c5e565b820191906000526020600020905b815481529060010190602001808311611c4157829003601f168201915b5050505050905090565b606060006001611c77846124e0565b01905060008167ffffffffffffffff811115611c9657611c95612d6f565b5b6040519080825280601f01601f191660200182016040528015611cc85781602001600182028036833780820191505090505b509050600082602001820190505b600115611d2b578080600190039150507f3031323334353637383961626364656600000000000000000000000000000000600a86061a8153600a8581611d1f57611d1e61331b565b5b04945060008503611cd6575b819350505050919050565b611d50828260405180602001604052806000815250612633565b5050565b60007f01ffc9a7000000000000000000000000000000000000000000000000000000007bffffffffffffffffffffffffffffffffffffffffffffffffffffffff1916827bffffffffffffffffffffffffffffffffffffffffffffffffffffffff1916149050919050565b60006002600083815260200190815260200160002060009054906101000a900473ffffffffffffffffffffffffffffffffffffffff169050919050565b8080611e345750600073ffffffffffffffffffffffffffffffffffffffff168273ffffffffffffffffffffffffffffffffffffffff1614155b15611f68576000611e448461150a565b9050600073ffffffffffffffffffffffffffffffffffffffff168373ffffffffffffffffffffffffffffffffffffffff1614158015611eaf57508273ffffffffffffffffffffffffffffffffffffffff168173ffffffffffffffffffffffffffffffffffffffff1614155b8015611ec25750611ec08184611154565b155b15611f0457826040517fa9fbf51f000000000000000000000000000000000000000000000000000000008152600401611efb9190612af2565b60405180910390fd5b8115611f6657838573ffffffffffffffffffffffffffffffffffffffff168273ffffffffffffffffffffffffffffffffffffffff167f8c5be1e5ebec7d5bd14f71427d1e84f3dd0314c0f7b2291e5b200ac8c7c3b92560405160405180910390a45b505b836004600085815260200190815260200160002060006101000a81548173ffffffffffffffffffffffffffffffffffffffff021916908373ffffffffffffffffffffffffffffffffffffffff16021790555050505050565b600080611fcc84611dbe565b9050600073ffffffffffffffffffffffffffffffffffffffff168373ffffffffffffffffffffffffffffffffffffffff161461200e5761200d81848661264f565b5b600073ffffffffffffffffffffffffffffffffffffffff168173ffffffffffffffffffffffffffffffffffffffff161461209f57612050600085600080611dfb565b6001600360008373ffffffffffffffffffffffffffffffffffffffff1673ffffffffffffffffffffffffffffffffffffffff168152602001908152602001600020600082825403925050819055505b600073ffffffffffffffffffffffffffffffffffffffff168573ffffffffffffffffffffffffffffffffffffffff1614612122576001600360008773ffffffffffffffffffffffffffffffffffffffff1673ffffffffffffffffffffffffffffffffffffffff168152602001908152602001600020600082825401925050819055505b846002600086815260200190815260200160002060006101000a81548173ffffffffffffffffffffffffffffffffffffffff021916908373ffffffffffffffffffffffffffffffffffffffff160217905550838573ffffffffffffffffffffffffffffffffffffffff168273ffffffffffffffffffffffffffffffffffffffff167fddf252ad1be2c89b69c2b068fc378daa952ba7f163c4a11628f55a4df523b3ef60405160405180910390a4809150509392505050565b6008805490506009600083815260200190815260200160002081905550600881908060018154018082558091505060019003906000526020600020016000909190919091505550565b600061222e83610a12565b9050600060076000848152602001908152602001600020549050818114612313576000600660008673ffffffffffffffffffffffffffffffffffffffff1673ffffffffffffffffffffffffffffffffffffffff168152602001908152602001600020600084815260200190815260200160002054905080600660008773ffffffffffffffffffffffffffffffffffffffff1673ffffffffffffffffffffffffffffffffffffffff168152602001908152602001600020600084815260200190815260200160002081905550816007600083815260200190815260200160002081905550505b6007600084815260200190815260200160002060009055600660008573ffffffffffffffffffffffffffffffffffffffff1673ffffffffffffffffffffffffffffffffffffffff16815260200190815260200160002060008381526020019081526020016000206000905550505050565b60006001600880549050612398919061353a565b90506000600960008481526020019081526020016000205490506000600883815481106123c8576123c7612ff4565b5b9060005260206000200154905080600883815481106123ea576123e9612ff4565b5b9060005260206000200181905550816009600083815260200190815260200160002081905550600960008581526020019081526020016000206000905560088054806124395761243861356e565b5b6001900381819060005260206000200160009055905550505050565b6000600161246284610a12565b61246c919061353a565b905081600660008573ffffffffffffffffffffffffffffffffffffffff1673ffffffffffffffffffffffffffffffffffffffff168152602001908152602001600020600083815260200190815260200160002081905550806007600084815260200190815260200160002081905550505050565b600080600090507a184f03e93ff9f4daa797ed6e38ed64bf6a1f010000000000000000831061253e577a184f03e93ff9f4daa797ed6e38ed64bf6a1f01000000000000000083816125345761253361331b565b5b0492506040810190505b6d04ee2d6d415b85acef8100000000831061257b576d04ee2d6d415b85acef810000000083816125715761257061331b565b5b0492506020810190505b662386f26fc1000083106125aa57662386f26fc1000083816125a05761259f61331b565b5b0492506010810190505b6305f5e10083106125d3576305f5e10083816125c9576125c861331b565b5b0492506008810190505b61271083106125f85761271083816125ee576125ed61331b565b5b0492506004810190505b6064831061261b57606483816126115761261061331b565b5b0492506002810190505b600a831061262a576001810190505b80915050919050565b61263d8383612713565b61264a6000848484611a1f565b505050565b61265a83838361280c565b61270e57600073ffffffffffffffffffffffffffffffffffffffff168373ffffffffffffffffffffffffffffffffffffffff16036126cf57806040517f7e2732890000000000000000000000000000000000000000000000000000000081526004016126c69190612b88565b60405180910390fd5b81816040517f177e802f000000000000000000000000000000000000000000000000000000008152600401612705929190612d41565b60405180910390fd5b505050565b600073ffffffffffffffffffffffffffffffffffffffff168273ffffffffffffffffffffffffffffffffffffffff16036127855760006040517f64a0ae9200000000000000000000000000000000000000000000000000000000815260040161277c9190612af2565b60405180910390fd5b6000612793838360006115e9565b9050600073ffffffffffffffffffffffffffffffffffffffff168173ffffffffffffffffffffffffffffffffffffffff16146128075760006040517f73c6ac6e0000000000000000000000000000000000000000000000000000000081526004016127fe9190612af2565b60405180910390fd5b505050565b60008073ffffffffffffffffffffffffffffffffffffffff168373ffffffffffffffffffffffffffffffffffffffff16141580156128c457508273ffffffffffffffffffffffffffffffffffffffff168473ffffffffffffffffffffffffffffffffffffffff16148061288557506128848484611154565b5b806128c357508273ffffffffffffffffffffffffffffffffffffffff166128ab83611592565b73ffffffffffffffffffffffffffffffffffffffff16145b5b90509392505050565b6000604051905090565b600080fd5b600080fd5b60007fffffffff0000000000000000000000000000000000000000000000000000000082169050919050565b612916816128e1565b811461292157600080fd5b50565b6000813590506129338161290d565b92915050565b60006020828403121561294f5761294e6128d7565b5b600061295d84828501612924565b91505092915050565b60008115159050919050565b61297b81612966565b82525050565b60006020820190506129966000830184612972565b92915050565b600081519050919050565b600082825260208201905092915050565b60005b838110156129d65780820151818401526020810190506129bb565b60008484015250505050565b6000601f19601f8301169050919050565b60006129fe8261299c565b612a0881856129a7565b9350612a188185602086016129b8565b612a21816129e2565b840191505092915050565b60006020820190508181036000830152612a4681846129f3565b905092915050565b6000819050919050565b612a6181612a4e565b8114612a6c57600080fd5b50565b600081359050612a7e81612a58565b92915050565b600060208284031215612a9a57612a996128d7565b5b6000612aa884828501612a6f565b91505092915050565b600073ffffffffffffffffffffffffffffffffffffffff82169050919050565b6000612adc82612ab1565b9050919050565b612aec81612ad1565b82525050565b6000602082019050612b076000830184612ae3565b92915050565b612b1681612ad1565b8114612b2157600080fd5b50565b600081359050612b3381612b0d565b92915050565b60008060408385031215612b5057612b4f6128d7565b5b6000612b5e85828601612b24565b9250506020612b6f85828601612a6f565b9150509250929050565b612b8281612a4e565b82525050565b6000602082019050612b9d6000830184612b79565b92915050565b600080600060608486031215612bbc57612bbb6128d7565b5b6000612bca86828701612b24565b9350506020612bdb86828701612b24565b9250506040612bec86828701612a6f565b9150509250925092565b600060208284031215612c0c57612c0b6128d7565b5b6000612c1a84828501612b24565b91505092915050565b600080fd5b600080fd5b600080fd5b60008083601f840112612c4857612c47612c23565b5b8235905067ffffffffffffffff811115612c6557612c64612c28565b5b602083019150836001820283011115612c8157612c80612c2d565b5b9250929050565b60008060208385031215612c9f57612c9e6128d7565b5b600083013567ffffffffffffffff811115612cbd57612cbc6128dc565b5b612cc985828601612c32565b92509250509250929050565b612cde81612966565b8114612ce957600080fd5b50565b600081359050612cfb81612cd5565b92915050565b60008060408385031215612d1857612d176128d7565b5b6000612d2685828601612b24565b9250506020612d3785828601612cec565b9150509250929050565b6000604082019050612d566000830185612ae3565b612d636020830184612b79565b9392505050565b600080fd5b7f4e487b7100000000000000000000000000000000000000000000000000000000600052604160045260246000fd5b612da7826129e2565b810181811067ffffffffffffffff82111715612dc657612dc5612d6f565b5b80604052505050565b6000612dd96128cd565b9050612de58282612d9e565b919050565b600067ffffffffffffffff821115612e0557612e04612d6f565b5b612e0e826129e2565b9050602081019050919050565b82818337600083830152505050565b6000612e3d612e3884612dea565b612dcf565b905082815260208101848484011115612e5957612e58612d6a565b5b612e64848285612e1b565b509392505050565b600082601f830112612e8157612e80612c23565b5b8135612e91848260208601612e2a565b91505092915050565b60008060008060808587031215612eb457612eb36128d7565b5b6000612ec287828801612b24565b9450506020612ed387828801612b24565b9350506040612ee487828801612a6f565b925050606085013567ffffffffffffffff811115612f0557612f046128dc565b5b612f1187828801612e6c565b91505092959194509250565b60008060408385031215612f3457612f336128d7565b5b6000612f4285828601612b24565b9250506020612f5385828601612b24565b9150509250929050565b7f4e487b7100000000000000000000000000000000000000000000000000000000600052602260045260246000fd5b60006002820490506001821680612fa457607f821691505b602082108103612fb757612fb6612f5d565b5b50919050565b6000606082019050612fd26000830186612ae3565b612fdf6020830185612b79565b612fec6040830184612ae3565b949350505050565b7f4e487b7100000000000000000000000000000000000000000000000000000000600052603260045260246000fd5b600082905092915050565b60008190508160005260206000209050919050565b60006020601f8301049050919050565b600082821b905092915050565b6000600883026130907fffffffffffffffffffffffffffffffffffffffffffffffffffffffffffffffff82613053565b61309a8683613053565b95508019841693508086168417925050509392505050565b6000819050919050565b60006130d76130d26130cd84612a4e565b6130b2565b612a4e565b9050919050565b6000819050919050565b6130f1836130bc565b6131056130fd826130de565b848454613060565b825550505050565b600090565b61311a61310d565b6131258184846130e8565b505050565b5b818110156131495761313e600082613112565b60018101905061312b565b5050565b601f82111561318e5761315f8161302e565b61316884613043565b81016020851015613177578190505b61318b61318385613043565b83018261312a565b50505b505050565b600082821c905092915050565b60006131b160001984600802613193565b1980831691505092915050565b60006131ca83836131a0565b9150826002028217905092915050565b6131e48383613023565b67ffffffffffffffff8111156131fd576131fc612d6f565b5b6132078254612f8c565b61321282828561314d565b6000601f831160018114613241576000841561322f578287013590505b61323985826131be565b8655506132a1565b601f19841661324f8661302e565b60005b8281101561327757848901358255600182019150602085019450602081019050613252565b868310156132945784890135613290601f8916826131a0565b8355505b6001600288020188555050505b50505050505050565b7f4e487b7100000000000000000000000000000000000000000000000000000000600052601160045260246000fd5b60006132e482612a4e565b91506132ef83612a4e565b92508282026132fd81612a4e565b91508282048414831517613314576133136132aa565b5b5092915050565b7f4e487b7100000000000000000000000000000000000000000000000000000000600052601260045260246000fd5b600061335582612a4e565b915061336083612a4e565b9250826133705761336f61331b565b5b828204905092915050565b600061338682612a4e565b91507fffffffffffffffffffffffffffffffffffffffffffffffffffffffffffffffff82036133b8576133b76132aa565b5b600182019050919050565b600081905092915050565b60006133d98261299c565b6133e381856133c3565b93506133f38185602086016129b8565b80840191505092915050565b600061340b82856133ce565b915061341782846133ce565b91508190509392505050565b600061342e82612a4e565b915061343983612a4e565b9250828201905080821115613451576134506132aa565b5b92915050565b600081519050919050565b600082825260208201905092915050565b600061347e82613457565b6134888185613462565b93506134988185602086016129b8565b6134a1816129e2565b840191505092915050565b60006080820190506134c16000830187612ae3565b6134ce6020830186612ae3565b6134db6040830185612b79565b81810360608301526134ed8184613473565b905095945050505050565b6000815190506135078161290d565b92915050565b600060208284031215613523576135226128d7565b5b6000613531848285016134f8565b91505092915050565b600061354582612a4e565b915061355083612a4e565b9250828203905081811115613568576135676132aa565b5b92915050565b7f4e487b7100000000000000000000000000000000000000000000000000000000600052603160045260246000fdfea264697066735822122045efe16e5ff847564c57807851bd9e39a2838e168daf49cd1fef4cfa336cee3e64736f6c63430008140033",
  "linkReferences": {},
  "deployedLinkReferences": {}
}