{
  "_format": "hh-sol-artifact-1",
  "contractName": "GenesisNode",
  "sourceName": "contracts/GenesisNode.sol",
  "abi": [
    {
      "inputs": [
        {
          "internalType": "address",
          "name": "_teamOpsWallet",
          "type": "address"
        }
      ],
      "stateMutability": "nonpayable",
      "type": "constructor"
    },
    {
      "inputs": [
        {
          "internalType": "address",
          "name": "target",
          "type": "address"
        }
      ],
      "name": "AddressEmptyCode",
      "type": "error"
    },
    {
      "inputs": [
        {
          "internalType": "address",
          "name": "account",
          "type": "address"
        }
      ],
      "name": "AddressInsufficientBalance",
      "type": "error"
    },
    {
      "inputs": [],
      "name": "ERC721EnumerableForbiddenBatchMint",
      "type": "error"
    },
    {
      "inputs": [
        {
          "internalType": "address",
          "name": "sender",
          "type": "address"
        },
        {
          "internalType": "uint256",
          "name": "tokenId",
          "type": "uint256"
        },
        {
          "internalType": "address",
          "name": "owner",
          "type": "address"
        }
      ],
      "name": "ERC721IncorrectOwner",
      "type": "error"
    },
    {
      "inputs": [
        {
          "internalType": "address",
          "name": "operator",
          "type": "address"
        },
        {
          "internalType": "uint256",
          "name": "tokenId",
          "type": "uint256"
        }
      ],
      "name": "ERC721InsufficientApproval",
      "type": "error"
    },
    {
      "inputs": [
        {
          "internalType": "address",
          "name": "approver",
          "type": "address"
        }
      ],
      "name": "ERC721InvalidApprover",
      "type": "error"
    },
    {
      "inputs": [
        {
          "internalType": "address",
          "name": "operator",
          "type": "address"
        }
      ],
      "name": "ERC721InvalidOperator",
      "type": "error"
    },
    {
      "inputs": [
        {
          "internalType": "address",
          "name": "owner",
          "type": "address"
        }
      ],
      "name": "ERC721InvalidOwner",
      "type": "error"
    },
    {
      "inputs": [
        {
          "internalType": "address",
          "name": "receiver",
          "type": "address"
        }
      ],
      "name": "ERC721InvalidReceiver",
      "type": "error"
    },
    {
      "inputs": [
        {
          "internalType": "address",
          "name": "sender",
          "type": "address"
        }
      ],
      "name": "ERC721InvalidSender",
      "type": "error"
    },
    {
      "inputs": [
        {
          "internalType": "uint256",
          "name": "tokenId",
          "type": "uint256"
        }
      ],
      "name": "ERC721NonexistentToken",
      "type": "error"
    },
    {
      "inputs": [
        {
          "internalType": "address",
          "name": "owner",
          "type": "address"
        },
        {
          "internalType": "uint256",
          "name": "index",
          "type": "uint256"
        }
      ],
      "name": "ERC721OutOfBoundsIndex",
      "type": "error"
    },
    {
      "inputs": [],
      "name": "FailedInnerCall",
      "type": "error"
    },
    {
      "inputs": [
        {
          "internalType": "address",
          "name": "owner",
          "type": "address"
        }
      ],
      "name": "OwnableInvalidOwner",
      "type": "error"
    },
    {
      "inputs": [
        {
          "internalType": "address",
          "name": "account",
          "type": "address"
        }
      ],
      "name": "OwnableUnauthorizedAccount",
      "type": "error"
    },
    {
      "inputs": [],
      "name": "ReentrancyGuardReentrantCall",
      "type": "error"
    },
    {
      "inputs": [
        {
          "internalType": "address",
          "name": "token",
          "type": "address"
        }
      ],
      "name": "SafeERC20FailedOperation",
      "type": "error"
    },
    {
      "anonymous": false,
      "inputs": [
        {
          "indexed": true,
          "internalType": "address",
          "name": "owner",
          "type": "address"
        },
        {
          "indexed": true,
          "internalType": "address",
          "name": "approved",
          "type": "address"
        },
        {
          "indexed": true,
          "internalType": "uint256",
          "name": "tokenId",
          "type": "uint256"
        }
      ],
      "name": "Approval",
      "type": "event"
    },
    {
      "anonymous": false,
      "inputs": [
        {
          "indexed": true,
          "internalType": "address",
          "name": "owner",
          "type": "address"
        },
        {
          "indexed": true,
          "internalType": "address",
          "name": "operator",
          "type": "address"
        },
        {
          "indexed": false,
          "internalType": "bool",
          "name": "approved",
          "type": "bool"
        }
      ],
      "name": "ApprovalForAll",
      "type": "event"
    },
    {
      "anonymous": false,
      "inputs": [
        {
          "indexed": false,
          "internalType": "string",
          "name": "baseURI",
          "type": "string"
        }
      ],
      "name": "BaseURISet",
      "type": "event"
    },
    {
      "anonymous": false,
      "inputs": [
        {
          "indexed": true,
          "internalType": "address",
          "name": "buyer",
          "type": "address"
        },
        {
          "indexed": true,
          "internalType": "uint256",
          "name": "tokenId",
          "type": "uint256"
        },
        {
          "indexed": true,
          "internalType": "address",
          "name": "referrer",
          "type": "address"
        },
        {
          "indexed": false,
          "internalType": "uint256",
          "name": "price",
          "type": "uint256"
        }
      ],
      "name": "NodeMinted",
      "type": "event"
    },
    {
      "anonymous": false,
      "inputs": [
        {
          "indexed": true,
          "internalType": "address",
          "name": "previousOwner",
          "type": "address"
        },
        {
          "indexed": true,
          "internalType": "address",
          "name": "newOwner",
          "type": "address"
        }
      ],
      "name": "OwnershipTransferred",
      "type": "event"
    },
    {
      "anonymous": false,
      "inputs": [
        {
          "indexed": true,
          "internalType": "address",
          "name": "token",
          "type": "address"
        }
      ],
      "name": "PaymentTokenSet",
      "type": "event"
    },
    {
      "anonymous": false,
      "inputs": [
        {
          "indexed": true,
          "internalType": "address",
          "name": "user",
          "type": "address"
        },
        {
          "indexed": true,
          "internalType": "address",
          "name": "referrer",
          "type": "address"
        }
      ],
      "name": "ReferrerBound",
      "type": "event"
    },
    {
      "anonymous": false,
      "inputs": [
        {
          "indexed": true,
          "internalType": "address",
          "name": "wallet",
          "type": "address"
        }
      ],
      "name": "TeamOpsWalletSet",
      "type": "event"
    },
    {
      "anonymous": false,
      "inputs": [
        {
          "indexed": true,
          "internalType": "address",
          "name": "from",
          "type": "address"
        },
        {
          "indexed": true,
          "internalType": "address",
          "name": "to",
          "type": "address"
        },
        {
          "indexed": true,
          "internalType": "uint256",
          "name": "tokenId",
          "type": "uint256"
        }
      ],
      "name": "Transfer",
      "type": "event"
    },
    {
      "inputs": [],
      "name": "BASIS_POINTS",
      "outputs": [
        {
          "internalType": "uint256",
          "name": "",
          "type": "uint256"
        }
      ],
      "stateMutability": "view",
      "type": "function"
    },
    {
      "inputs": [],
      "name": "MAX_SUPPLY",
      "outputs": [
        {
          "internalType": "uint256",
          "name": "",
          "type": "uint256"
        }
      ],
      "stateMutability": "view",
      "type": "function"
    },
    {
      "inputs": [],
      "name": "NODE_PRICE",
      "outputs": [
        {
          "internalType": "uint256",
          "name": "",
          "type": "uint256"
        }
      ],
      "stateMutability": "view",
      "type": "function"
    },
    {
      "inputs": [],
      "name": "SELF_BOOST",
      "outputs": [
        {
          "internalType": "uint256",
          "name": "",
          "type": "uint256"
        }
      ],
      "stateMutability": "view",
      "type": "function"
    },
    {
      "inputs": [],
      "name": "TEAM_AURA",
      "outputs": [
        {
          "internalType": "uint256",
          "name": "",
          "type": "uint256"
        }
      ],
      "stateMutability": "view",
      "type": "function"
    },
    {
      "inputs": [
        {
          "internalType": "address",
          "name": "to",
          "type": "address"
        },
        {
          "internalType": "uint256",
          "name": "tokenId",
          "type": "uint256"
        }
      ],
      "name": "approve",
      "outputs": [],
      "stateMutability": "nonpayable",
      "type": "function"
    },
    {
      "inputs": [
        {
          "internalType": "address",
          "name": "owner",
          "type": "address"
        }
      ],
      "name": "balanceOf",
      "outputs": [
        {
          "internalType": "uint256",
          "name": "",
          "type": "uint256"
        }
      ],
      "stateMutability": "view",
      "type": "function"
    },
    {
      "inputs": [
        {
          "internalType": "address",
          "name": "",
          "type": "address"
        }
      ],
      "name": "directReferralCount",
      "outputs": [
        {
          "internalType": "uint256",
          "name": "",
          "type": "uint256"
        }
      ],
      "stateMutability": "view",
      "type": "function"
    },
    {
      "inputs": [
        {
          "internalType": "uint256",
          "name": "tokenId",
          "type": "uint256"
        }
      ],
      "name": "getApproved",
      "outputs": [
        {
          "internalType": "address",
          "name": "",
          "type": "address"
        }
      ],
      "stateMutability": "view",
      "type": "function"
    },
    {
      "inputs": [],
      "name": "getContractStats",
      "outputs": [
        {
          "internalType": "uint256",
          "name": "currentSupply",
          "type": "uint256"
        },
        {
          "internalType": "uint256",
          "name": "maxSupply",
          "type": "uint256"
        },
        {
          "internalType": "uint256",
          "name": "price",
          "type": "uint256"
        },
        {
          "internalType": "uint256",
          "name": "totalVolume",
          "type": "uint256"
        }
      ],
      "stateMutability": "view",
      "type": "function"
    },
    {
      "inputs": [
        {
          "internalType": "address",
          "name": "user",
          "type": "address"
        }
      ],
      "name": "getReferrer",
      "outputs": [
        {
          "internalType": "address",
          "name": "",
          "type": "address"
        }
      ],
      "stateMutability": "view",
      "type": "function"
    },
    {
      "inputs": [
        {
          "internalType": "address",
          "name": "user",
          "type": "address"
        }
      ],
      "name": "getSelfBoost",
      "outputs": [
        {
          "internalType": "uint256",
          "name": "",
          "type": "uint256"
        }
      ],
      "stateMutability": "view",
      "type": "function"
    },
    {
      "inputs": [
        {
          "internalType": "address",
          "name": "user",
          "type": "address"
        }
      ],
      "name": "getTeamAura",
      "outputs": [
        {
          "internalType": "uint256",
          "name": "",
          "type": "uint256"
        }
      ],
      "stateMutability": "view",
      "type": "function"
    },
    {
      "inputs": [
        {
          "internalType": "address",
          "name": "user",
          "type": "address"
        }
      ],
      "name": "getTotalBoost",
      "outputs": [
        {
          "internalType": "uint256",
          "name": "",
          "type": "uint256"
        }
      ],
      "stateMutability": "view",
      "type": "function"
    },
    {
      "inputs": [
        {
          "internalType": "address",
          "name": "user",
          "type": "address"
        }
      ],
      "name": "getUserInfo",
      "outputs": [
        {
          "internalType": "uint256",
          "name": "nftBalance",
          "type": "uint256"
        },
        {
          "internalType": "address",
          "name": "referrer",
          "type": "address"
        },
        {
          "internalType": "uint256",
          "name": "directDownlines",
          "type": "uint256"
        },
        {
          "internalType": "uint256",
          "name": "selfBoost",
          "type": "uint256"
        },
        {
          "internalType": "uint256",
          "name": "teamAura",
          "type": "uint256"
        },
        {
          "internalType": "uint256",
          "name": "totalBoost",
          "type": "uint256"
        }
      ],
      "stateMutability": "view",
      "type": "function"
    },
    {
      "inputs": [
        {
          "internalType": "address",
          "name": "user",
          "type": "address"
        }
      ],
      "name": "hasApprovedMint",
      "outputs": [
        {
          "internalType": "bool",
          "name": "",
          "type": "bool"
        }
      ],
      "stateMutability": "view",
      "type": "function"
    },
    {
      "inputs": [
        {
          "internalType": "address",
          "name": "user",
          "type": "address"
        }
      ],
      "name": "hasReferrer",
      "outputs": [
        {
          "internalType": "bool",
          "name": "",
          "type": "bool"
        }
      ],
      "stateMutability": "view",
      "type": "function"
    },
    {
      "inputs": [
        {
          "internalType": "address",
          "name": "owner",
          "type": "address"
        },
        {
          "internalType": "address",
          "name": "operator",
          "type": "address"
        }
      ],
      "name": "isApprovedForAll",
      "outputs": [
        {
          "internalType": "bool",
          "name": "",
          "type": "bool"
        }
      ],
      "stateMutability": "view",
      "type": "function"
    },
    {
      "inputs": [
        {
          "internalType": "address",
          "name": "referrer",
          "type": "address"
        }
      ],
      "name": "mint",
      "outputs": [],
      "stateMutability": "nonpayable",
      "type": "function"
    },
    {
      "inputs": [],
      "name": "name",
      "outputs": [
        {
          "internalType": "string",
          "name": "",
          "type": "string"
        }
      ],
      "stateMutability": "view",
      "type": "function"
    },
    {
      "inputs": [],
      "name": "owner",
      "outputs": [
        {
          "internalType": "address",
          "name": "",
          "type": "address"
        }
      ],
      "stateMutability": "view",
      "type": "function"
    },
    {
      "inputs": [
        {
          "internalType": "uint256",
          "name": "tokenId",
          "type": "uint256"
        }
      ],
      "name": "ownerOf",
      "outputs": [
        {
          "internalType": "address",
          "name": "",
          "type": "address"
        }
      ],
      "stateMutability": "view",
      "type": "function"
    },
    {
      "inputs": [],
      "name": "paymentToken",
      "outputs": [
        {
          "internalType": "contract IERC20",
          "name": "",
          "type": "address"
        }
      ],
      "stateMutability": "view",
      "type": "function"
    },
    {
      "inputs": [
        {
          "internalType": "address",
          "name": "",
          "type": "address"
        }
      ],
      "name": "referrers",
      "outputs": [
        {
          "internalType": "address",
          "name": "",
          "type": "address"
        }
      ],
      "stateMutability": "view",
      "type": "function"
    },
    {
      "inputs": [],
      "name": "renounceOwnership",
      "outputs": [],
      "stateMutability": "nonpayable",
      "type": "function"
    },
    {
      "inputs": [
        {
          "internalType": "address",
          "name": "from",
          "type": "address"
        },
        {
          "internalType": "address",
          "name": "to",
          "type": "address"
        },
        {
          "internalType": "uint256",
          "name": "tokenId",
          "type": "uint256"
        }
      ],
      "name": "safeTransferFrom",
      "outputs": [],
      "stateMutability": "nonpayable",
      "type": "function"
    },
    {
      "inputs": [
        {
          "internalType": "address",
          "name": "from",
          "type": "address"
        },
        {
          "internalType": "address",
          "name": "to",
          "type": "address"
        },
        {
          "internalType": "uint256",
          "name": "tokenId",
          "type": "uint256"
        },
        {
          "internalType": "bytes",
          "name": "data",
          "type": "bytes"
        }
      ],
      "name": "safeTransferFrom",
      "outputs": [],
      "stateMutability": "nonpayable",
      "type": "function"
    },
    {
      "inputs": [
        {
          "internalType": "address",
          "name": "operator",
          "type": "address"
        },
        {
          "internalType": "bool",
          "name": "approved",
          "type": "bool"
        }
      ],
      "name": "setApprovalForAll",
      "outputs": [],
      "stateMutability": "nonpayable",
      "type": "function"
    },
    {
      "inputs": [
        {
          "internalType": "string",
          "name": "baseURI",
          "type": "string"
        }
      ],
      "name": "setBaseURI",
      "outputs": [],
      "stateMutability": "nonpayable",
      "type": "function"
    },
    {
      "inputs": [
        {
          "internalType": "address",
          "name": "_paymentToken",
          "type": "address"
        }
      ],
      "name": "setPaymentToken",
      "outputs": [],
      "stateMutability": "nonpayable",
      "type": "function"
    },
    {
      "inputs": [
        {
          "internalType": "address",
          "name": "user",
          "type": "address"
        },
        {
          "internalType": "address",
          "name": "referrer",
          "type": "address"
        }
      ],
      "name": "setReferrer",
      "outputs": [],
      "stateMutability": "nonpayable",
      "type": "function"
    },
    {
      "inputs": [
        {
          "internalType": "address",
          "name": "_teamOpsWallet",
          "type": "address"
        }
      ],
      "name": "setTeamOpsWallet",
      "outputs": [],
      "stateMutability": "nonpayable",
      "type": "function"
    },
    {
      "inputs": [
        {
          "internalType": "bytes4",
          "name": "interfaceId",
          "type": "bytes4"
        }
      ],
      "name": "supportsInterface",
      "outputs": [
        {
          "internalType": "bool",
          "name": "",
          "type": "bool"
        }
      ],
      "stateMutability": "view",
      "type": "function"
    },
    {
      "inputs": [],
      "name": "symbol",
      "outputs": [
        {
          "internalType": "string",
          "name": "",
          "type": "string"
        }
      ],
      "stateMutability": "view",
      "type": "function"
    },
    {
      "inputs": [],
      "name": "teamOpsWallet",
      "outputs": [
        {
          "internalType": "address",
          "name": "",
          "type": "address"
        }
      ],
      "stateMutability": "view",
      "type": "function"
    },
    {
      "inputs": [
        {
          "internalType": "uint256",
          "name": "index",
          "type": "uint256"
        }
      ],
      "name": "tokenByIndex",
      "outputs": [
        {
          "internalType": "uint256",
          "name": "",
          "type": "uint256"
        }
      ],
      "stateMutability": "view",
      "type": "function"
    },
    {
      "inputs": [
        {
          "internalType": "address",
          "name": "owner",
          "type": "address"
        },
        {
          "internalType": "uint256",
          "name": "index",
          "type": "uint256"
        }
      ],
      "name": "tokenOfOwnerByIndex",
      "outputs": [
        {
          "internalType": "uint256",
          "name": "",
          "type": "uint256"
        }
      ],
      "stateMutability": "view",
      "type": "function"
    },
    {
      "inputs": [
        {
          "internalType": "uint256",
          "name": "tokenId",
          "type": "uint256"
        }
      ],
      "name": "tokenURI",
      "outputs": [
        {
          "internalType": "string",
          "name": "",
          "type": "string"
        }
      ],
      "stateMutability": "view",
      "type": "function"
    },
    {
      "inputs": [],
      "name": "totalSalesVolume",
      "outputs": [
        {
          "internalType": "uint256",
          "name": "",
          "type": "uint256"
        }
      ],
      "stateMutability": "view",
      "type": "function"
    },
    {
      "inputs": [],
      "name": "totalSupply",
      "outputs": [
        {
          "internalType": "uint256",
          "name": "",
          "type": "uint256"
        }
      ],
      "stateMutability": "view",
      "type": "function"
    },
    {
      "inputs": [
        {
          "internalType": "address",
          "name": "from",
          "type": "address"
        },
        {
          "internalType": "address",
          "name": "to",
          "type": "address"
        },
        {
          "internalType": "uint256",
          "name": "tokenId",
          "type": "uint256"
        }
      ],
      "name": "transferFrom",
      "outputs": [],
      "stateMutability": "nonpayable",
      "type": "function"
    },
    {
      "inputs": [
        {
          "internalType": "address",
          "name": "newOwner",
          "type": "address"
        }
      ],
      "name": "transferOwnership",
      "outputs": [],
      "stateMutability": "nonpayable",
      "type": "function"
    }
  ],
  "bytecode": "0x60806040523480156200001157600080fd5b5060405162004fe638038062004fe6833981810160405281019062000037919062000343565b336040518060400160405280601081526020017f4976792047656e65736973204e6f6465000000000000000000000000000000008152506040518060400160405280600881526020017f4956592d4e4f44450000000000000000000000000000000000000000000000008152508160009081620000b59190620005ef565b508060019081620000c79190620005ef565b505050600073ffffffffffffffffffffffffffffffffffffffff168173ffffffffffffffffffffffffffffffffffffffff16036200013f5760006040517f1e4fbdf7000000000000000000000000000000000000000000000000000000008152600401620001369190620006e7565b60405180910390fd5b62000150816200021360201b60201c565b506001600b81905550600073ffffffffffffffffffffffffffffffffffffffff168173ffffffffffffffffffffffffffffffffffffffff1603620001cb576040517f08c379a0000000000000000000000000000000000000000000000000000000008152600401620001c29062000765565b60405180910390fd5b80600d60006101000a81548173ffffffffffffffffffffffffffffffffffffffff021916908373ffffffffffffffffffffffffffffffffffffffff1602179055505062000787565b6000600a60009054906101000a900473ffffffffffffffffffffffffffffffffffffffff16905081600a60006101000a81548173ffffffffffffffffffffffffffffffffffffffff021916908373ffffffffffffffffffffffffffffffffffffffff1602179055508173ffffffffffffffffffffffffffffffffffffffff168173ffffffffffffffffffffffffffffffffffffffff167f8be0079c531659141344cd1fd0a4f28419497f9722a3daafe3b4186f6b6457e060405160405180910390a35050565b600080fd5b600073ffffffffffffffffffffffffffffffffffffffff82169050919050565b60006200030b82620002de565b9050919050565b6200031d81620002fe565b81146200032957600080fd5b50565b6000815190506200033d8162000312565b92915050565b6000602082840312156200035c576200035b620002d9565b5b60006200036c848285016200032c565b91505092915050565b600081519050919050565b7f4e487b7100000000000000000000000000000000000000000000000000000000600052604160045260246000fd5b7f4e487b7100000000000000000000000000000000000000000000000000000000600052602260045260246000fd5b60006002820490506001821680620003f757607f821691505b6020821081036200040d576200040c620003af565b5b50919050565b60008190508160005260206000209050919050565b60006020601f8301049050919050565b600082821b905092915050565b600060088302620004777fffffffffffffffffffffffffffffffffffffffffffffffffffffffffffffffff8262000438565b62000483868362000438565b95508019841693508086168417925050509392505050565b6000819050919050565b6000819050919050565b6000620004d0620004ca620004c4846200049b565b620004a5565b6200049b565b9050919050565b6000819050919050565b620004ec83620004af565b62000504620004fb82620004d7565b84845462000445565b825550505050565b600090565b6200051b6200050c565b62000528818484620004e1565b505050565b5b8181101562000550576200054460008262000511565b6001810190506200052e565b5050565b601f8211156200059f57620005698162000413565b620005748462000428565b8101602085101562000584578190505b6200059c620005938562000428565b8301826200052d565b50505b505050565b600082821c905092915050565b6000620005c460001984600802620005a4565b1980831691505092915050565b6000620005df8383620005b1565b9150826002028217905092915050565b620005fa8262000375565b67ffffffffffffffff81111562000616576200061562000380565b5b620006228254620003de565b6200062f82828562000554565b600060209050601f83116001811462000667576000841562000652578287015190505b6200065e8582620005d1565b865550620006ce565b601f198416620006778662000413565b60005b82811015620006a1578489015182556001820191506020850194506020810190506200067a565b86831015620006c15784890151620006bd601f891682620005b1565b8355505b6001600288020188555050505b505050505050565b620006e181620002fe565b82525050565b6000602082019050620006fe6000830184620006d6565b92915050565b600082825260208201905092915050565b7f496e76616c6964205465616d4f70732077616c6c657400000000000000000000600082015250565b60006200074d60168362000704565b91506200075a8262000715565b602082019050919050565b6000602082019050818103600083015262000780816200073e565b9050919050565b61484f80620007976000396000f3fe608060405234801561001057600080fd5b506004361061025d5760003560e01c80636386c1c7116101465780638da5cb5b116100c3578063bbddaca311610087578063bbddaca314610787578063c87b56dd146107a3578063dfe6b5d6146107d3578063e1f1c4a7146107f4578063e985e9c514610812578063f2fde38b146108425761025d565b80638da5cb5b146106e357806395d89b4114610701578063a22cb4651461071f578063b77b7dc91461073b578063b88d4fde1461076b5761025d565b806370a082311161010a57806370a082311461063d578063715018a61461066d5780637b159abd146106775780637f3cc0e1146106a75780637ff6846d146106c55761025d565b80636386c1c714610584578063667f8eab146105b95780636905c5d1146105d55780636a326ab1146106055780636a627842146106215761025d565b806329d21dcc116101df57806342842e0e116101a357806342842e0e1461048c5780634a3b68cc146104a85780634a9fefc7146104d85780634f6ccce71461050857806355f804b3146105385780636352211e146105545761025d565b806329d21dcc146103d25780632f745c59146103f05780633013ce291461042057806332cb6b0c1461043e5780633633f3c01461045c5761025d565b8063095ea7b311610226578063095ea7b31461032e57806318160ddd1461034a57806318452cd8146103685780632089e9a91461039857806323b872dd146103b65761025d565b8062d0d86e1461026257806301ffc9a71461028057806304d1334f146102b057806306fdde03146102e0578063081812fc146102fe575b600080fd5b61026a61085e565b60405161027791906136af565b60405180910390f35b61029a60048036038101906102959190613736565b610864565b6040516102a7919061377e565b60405180910390f35b6102ca60048036038101906102c591906137f7565b6108de565b6040516102d791906136af565b60405180910390f35b6102e86109c8565b6040516102f591906138b4565b60405180910390f35b61031860048036038101906103139190613902565b610a5a565b604051610325919061393e565b60405180910390f35b61034860048036038101906103439190613959565b610a76565b005b610352610a8c565b60405161035f91906136af565b60405180910390f35b610382600480360381019061037d91906137f7565b610a99565b60405161038f919061377e565b60405180910390f35b6103a0610b31565b6040516103ad91906136af565b60405180910390f35b6103d060048036038101906103cb9190613999565b610b36565b005b6103da610c38565b6040516103e7919061393e565b60405180910390f35b61040a60048036038101906104059190613959565b610c5e565b60405161041791906136af565b60405180910390f35b610428610d07565b6040516104359190613a4b565b60405180910390f35b610446610d2d565b60405161045391906136af565b60405180910390f35b610476600480360381019061047191906137f7565b610d33565b60405161048391906136af565b60405180910390f35b6104a660048036038101906104a19190613999565b610d56565b005b6104c260048036038101906104bd91906137f7565b610d76565b6040516104cf919061393e565b60405180910390f35b6104f260048036038101906104ed91906137f7565b610da9565b6040516104ff919061393e565b60405180910390f35b610522600480360381019061051d9190613902565b610e12565b60405161052f91906136af565b60405180910390f35b610552600480360381019061054d9190613acb565b610e88565b005b61056e60048036038101906105699190613902565b610edf565b60405161057b919061393e565b60405180910390f35b61059e600480360381019061059991906137f7565b610ef1565b6040516105b096959493929190613b18565b60405180910390f35b6105d360048036038101906105ce91906137f7565b611024565b005b6105ef60048036038101906105ea91906137f7565b611122565b6040516105fc91906136af565b60405180910390f35b61061f600480360381019061061a91906137f7565b6111e8565b005b61063b600480360381019061063691906137f7565b6112e6565b005b610657600480360381019061065291906137f7565b611790565b60405161066491906136af565b60405180910390f35b61067561184a565b005b610691600480360381019061068c91906137f7565b61185e565b60405161069e919061377e565b60405180910390f35b6106af611970565b6040516106bc91906136af565b60405180910390f35b6106cd611976565b6040516106da91906136af565b60405180910390f35b6106eb611983565b6040516106f8919061393e565b60405180910390f35b6107096119ad565b60405161071691906138b4565b60405180910390f35b61073960048036038101906107349190613ba5565b611a3f565b005b610755600480360381019061075091906137f7565b611a55565b60405161076291906136af565b60405180910390f35b61078560048036038101906107809190613d15565b611a6d565b005b6107a1600480360381019061079c9190613d98565b611a8a565b005b6107bd60048036038101906107b89190613902565b611cff565b6040516107ca91906138b4565b60405180910390f35b6107db611d68565b6040516107eb9493929190613dd8565b60405180910390f35b6107fc611d8f565b60405161080991906136af565b60405180910390f35b61082c60048036038101906108279190613d98565b611d95565b604051610839919061377e565b60405180910390f35b61085c600480360381019061085791906137f7565b611e29565b005b6103e881565b60007f780e9d63000000000000000000000000000000000000000000000000000000007bffffffffffffffffffffffffffffffffffffffffffffffffffffffff1916827bffffffffffffffffffffffffffffffffffffffffffffffffffffffff191614806108d757506108d682611eaf565b5b9050919050565b60008060006108ec84611790565b116108f85760006108fc565b6103e85b90506000601060008573ffffffffffffffffffffffffffffffffffffffff1673ffffffffffffffffffffffffffffffffffffffff16815260200190815260200160002060009054906101000a900473ffffffffffffffffffffffffffffffffffffffff16905060008073ffffffffffffffffffffffffffffffffffffffff168273ffffffffffffffffffffffffffffffffffffffff16141580156109a8575060006109a683611790565b115b156109b25760c890505b80836109be9190613e4c565b9350505050919050565b6060600080546109d790613eaf565b80601f0160208091040260200160405190810160405280929190818152602001828054610a0390613eaf565b8015610a505780601f10610a2557610100808354040283529160200191610a50565b820191906000526020600020905b815481529060010190602001808311610a3357829003601f168201915b5050505050905090565b6000610a6582611f91565b50610a6f82612019565b9050919050565b610a888282610a83612056565b61205e565b5050565b6000600880549050905090565b60008073ffffffffffffffffffffffffffffffffffffffff16601060008473ffffffffffffffffffffffffffffffffffffffff1673ffffffffffffffffffffffffffffffffffffffff16815260200190815260200160002060009054906101000a900473ffffffffffffffffffffffffffffffffffffffff1673ffffffffffffffffffffffffffffffffffffffff1614159050919050565b60c881565b600073ffffffffffffffffffffffffffffffffffffffff168273ffffffffffffffffffffffffffffffffffffffff1603610ba85760006040517f64a0ae92000000000000000000000000000000000000000000000000000000008152600401610b9f919061393e565b60405180910390fd5b6000610bbc8383610bb7612056565b612070565b90508373ffffffffffffffffffffffffffffffffffffffff168173ffffffffffffffffffffffffffffffffffffffff1614610c32578382826040517f64283d7b000000000000000000000000000000000000000000000000000000008152600401610c2993929190613ee0565b60405180910390fd5b50505050565b600d60009054906101000a900473ffffffffffffffffffffffffffffffffffffffff1681565b6000610c6983611790565b8210610cae5782826040517fa57d13dc000000000000000000000000000000000000000000000000000000008152600401610ca5929190613f17565b60405180910390fd5b600660008473ffffffffffffffffffffffffffffffffffffffff1673ffffffffffffffffffffffffffffffffffffffff168152602001908152602001600020600083815260200190815260200160002054905092915050565b600c60009054906101000a900473ffffffffffffffffffffffffffffffffffffffff1681565b61056a81565b600080610d3f83611790565b11610d4b576000610d4f565b6103e85b9050919050565b610d7183838360405180602001604052806000815250611a6d565b505050565b60106020528060005260406000206000915054906101000a900473ffffffffffffffffffffffffffffffffffffffff1681565b6000601060008373ffffffffffffffffffffffffffffffffffffffff1673ffffffffffffffffffffffffffffffffffffffff16815260200190815260200160002060009054906101000a900473ffffffffffffffffffffffffffffffffffffffff169050919050565b6000610e1c610a8c565b8210610e62576000826040517fa57d13dc000000000000000000000000000000000000000000000000000000008152600401610e59929190613f17565b60405180910390fd5b60088281548110610e7657610e75613f40565b5b90600052602060002001549050919050565b610e9061218d565b8181600f9182610ea192919061411c565b507ff9c7803e94e0d3c02900d8a90893a6d5e90dd04d32a4cfe825520f82bf9f32f68282604051610ed3929190614219565b60405180910390a15050565b6000610eea82611f91565b9050919050565b600080600080600080610f0387611790565b9550601060008873ffffffffffffffffffffffffffffffffffffffff1673ffffffffffffffffffffffffffffffffffffffff16815260200190815260200160002060009054906101000a900473ffffffffffffffffffffffffffffffffffffffff169450601160008873ffffffffffffffffffffffffffffffffffffffff1673ffffffffffffffffffffffffffffffffffffffff16815260200190815260200160002054935060008611610fb8576000610fbc565b6103e85b9250600073ffffffffffffffffffffffffffffffffffffffff168573ffffffffffffffffffffffffffffffffffffffff16141580156110035750600061100186611790565b115b1561100d5760c891505b81836110199190613e4c565b905091939550919395565b61102c61218d565b600073ffffffffffffffffffffffffffffffffffffffff168173ffffffffffffffffffffffffffffffffffffffff160361109b576040517f08c379a000000000000000000000000000000000000000000000000000000000815260040161109290614289565b60405180910390fd5b80600d60006101000a81548173ffffffffffffffffffffffffffffffffffffffff021916908373ffffffffffffffffffffffffffffffffffffffff1602179055508073ffffffffffffffffffffffffffffffffffffffff167fe06f0065e5f6511beeace6af426d46b3f1e64e4703bab5df8d5a3167e5e9222660405160405180910390a250565b600080601060008473ffffffffffffffffffffffffffffffffffffffff1673ffffffffffffffffffffffffffffffffffffffff16815260200190815260200160002060009054906101000a900473ffffffffffffffffffffffffffffffffffffffff169050600073ffffffffffffffffffffffffffffffffffffffff168173ffffffffffffffffffffffffffffffffffffffff16036111c55760009150506111e3565b60006111d082611790565b116111dc5760006111df565b60c85b9150505b919050565b6111f061218d565b600073ffffffffffffffffffffffffffffffffffffffff168173ffffffffffffffffffffffffffffffffffffffff160361125f576040517f08c379a0000000000000000000000000000000000000000000000000000000008152600401611256906142f5565b60405180910390fd5b80600c60006101000a81548173ffffffffffffffffffffffffffffffffffffffff021916908373ffffffffffffffffffffffffffffffffffffffff1602179055508073ffffffffffffffffffffffffffffffffffffffff167fcb0aeffe884eb88fb2a31a2f3e4bd1d2763bdee48ba93b28c6e87501228cf74360405160405180910390a250565b6112ee612214565b61056a600e5410611334576040517f08c379a000000000000000000000000000000000000000000000000000000000815260040161132b90614361565b60405180910390fd5b600073ffffffffffffffffffffffffffffffffffffffff16600c60009054906101000a900473ffffffffffffffffffffffffffffffffffffffff1673ffffffffffffffffffffffffffffffffffffffff16036113c5576040517f08c379a00000000000000000000000000000000000000000000000000000000081526004016113bc906143cd565b60405180910390fd5b60003390506114228130683635c9adc5dea00000600c60009054906101000a900473ffffffffffffffffffffffffffffffffffffffff1673ffffffffffffffffffffffffffffffffffffffff1661225a909392919063ffffffff16565b61149a600d60009054906101000a900473ffffffffffffffffffffffffffffffffffffffff16683635c9adc5dea00000600c60009054906101000a900473ffffffffffffffffffffffffffffffffffffffff1673ffffffffffffffffffffffffffffffffffffffff166122dc9092919063ffffffff16565b600073ffffffffffffffffffffffffffffffffffffffff16601060008373ffffffffffffffffffffffffffffffffffffffff1673ffffffffffffffffffffffffffffffffffffffff16815260200190815260200160002060009054906101000a900473ffffffffffffffffffffffffffffffffffffffff1673ffffffffffffffffffffffffffffffffffffffff161480156115625750600073ffffffffffffffffffffffffffffffffffffffff168273ffffffffffffffffffffffffffffffffffffffff1614155b801561159a57508073ffffffffffffffffffffffffffffffffffffffff168273ffffffffffffffffffffffffffffffffffffffff1614155b156116cd5781601060008373ffffffffffffffffffffffffffffffffffffffff1673ffffffffffffffffffffffffffffffffffffffff16815260200190815260200160002060006101000a81548173ffffffffffffffffffffffffffffffffffffffff021916908373ffffffffffffffffffffffffffffffffffffffff160217905550601160008373ffffffffffffffffffffffffffffffffffffffff1673ffffffffffffffffffffffffffffffffffffffff168152602001908152602001600020600081548092919061166d906143ed565b91905055508173ffffffffffffffffffffffffffffffffffffffff168173ffffffffffffffffffffffffffffffffffffffff167fc4c2ddb91b0f73749131d376ad37ce7b01a69dc1b477abc09377cf0e1d511b1460405160405180910390a35b6000600e60008154809291906116e2906143ed565b9190505590506116f2828261235b565b683635c9adc5dea000006012600082825461170d9190613e4c565b925050819055508273ffffffffffffffffffffffffffffffffffffffff16818373ffffffffffffffffffffffffffffffffffffffff167f0af9a342ed913fa4f711bacf7bf8d0cc51cece32ea071fd419408bcbb5ac020f683635c9adc5dea0000060405161177b91906136af565b60405180910390a4505061178d612379565b50565b60008073ffffffffffffffffffffffffffffffffffffffff168273ffffffffffffffffffffffffffffffffffffffff16036118035760006040517f89c62b640000000000000000000000000000000000000000000000000000000081526004016117fa919061393e565b60405180910390fd5b600360008373ffffffffffffffffffffffffffffffffffffffff1673ffffffffffffffffffffffffffffffffffffffff168152602001908152602001600020549050919050565b61185261218d565b61185c6000612383565b565b60008073ffffffffffffffffffffffffffffffffffffffff16600c60009054906101000a900473ffffffffffffffffffffffffffffffffffffffff1673ffffffffffffffffffffffffffffffffffffffff16036118be576000905061196b565b683635c9adc5dea00000600c60009054906101000a900473ffffffffffffffffffffffffffffffffffffffff1673ffffffffffffffffffffffffffffffffffffffff1663dd62ed3e84306040518363ffffffff1660e01b8152600401611925929190614435565b602060405180830381865afa158015611942573d6000803e3d6000fd5b505050506040513d601f19601f820116820180604052508101906119669190614473565b101590505b919050565b60125481565b683635c9adc5dea0000081565b6000600a60009054906101000a900473ffffffffffffffffffffffffffffffffffffffff16905090565b6060600180546119bc90613eaf565b80601f01602080910402602001604051908101604052809291908181526020018280546119e890613eaf565b8015611a355780601f10611a0a57610100808354040283529160200191611a35565b820191906000526020600020905b815481529060010190602001808311611a1857829003601f168201915b5050505050905090565b611a51611a4a612056565b8383612449565b5050565b60116020528060005260406000206000915090505481565b611a78848484610b36565b611a84848484846125b8565b50505050565b611a9261218d565b600073ffffffffffffffffffffffffffffffffffffffff16601060008473ffffffffffffffffffffffffffffffffffffffff1673ffffffffffffffffffffffffffffffffffffffff16815260200190815260200160002060009054906101000a900473ffffffffffffffffffffffffffffffffffffffff1673ffffffffffffffffffffffffffffffffffffffff1614611b60576040517f08c379a0000000000000000000000000000000000000000000000000000000008152600401611b57906144ec565b60405180910390fd5b8173ffffffffffffffffffffffffffffffffffffffff168173ffffffffffffffffffffffffffffffffffffffff1603611bce576040517f08c379a0000000000000000000000000000000000000000000000000000000008152600401611bc590614558565b60405180910390fd5b80601060008473ffffffffffffffffffffffffffffffffffffffff1673ffffffffffffffffffffffffffffffffffffffff16815260200190815260200160002060006101000a81548173ffffffffffffffffffffffffffffffffffffffff021916908373ffffffffffffffffffffffffffffffffffffffff160217905550601160008273ffffffffffffffffffffffffffffffffffffffff1673ffffffffffffffffffffffffffffffffffffffff1681526020019081526020016000206000815480929190611c9c906143ed565b91905055508073ffffffffffffffffffffffffffffffffffffffff168273ffffffffffffffffffffffffffffffffffffffff167fc4c2ddb91b0f73749131d376ad37ce7b01a69dc1b477abc09377cf0e1d511b1460405160405180910390a35050565b6060611d0a82611f91565b506000611d1561276f565b90506000815111611d355760405180602001604052806000815250611d60565b80611d3f84612801565b604051602001611d509291906145b4565b6040516020818303038152906040525b915050919050565b600080600080600e5461056a683635c9adc5dea00000601254935093509350935090919293565b61271081565b6000600560008473ffffffffffffffffffffffffffffffffffffffff1673ffffffffffffffffffffffffffffffffffffffff16815260200190815260200160002060008373ffffffffffffffffffffffffffffffffffffffff1673ffffffffffffffffffffffffffffffffffffffff16815260200190815260200160002060009054906101000a900460ff16905092915050565b611e3161218d565b600073ffffffffffffffffffffffffffffffffffffffff168173ffffffffffffffffffffffffffffffffffffffff1603611ea35760006040517f1e4fbdf7000000000000000000000000000000000000000000000000000000008152600401611e9a919061393e565b60405180910390fd5b611eac81612383565b50565b60007f80ac58cd000000000000000000000000000000000000000000000000000000007bffffffffffffffffffffffffffffffffffffffffffffffffffffffff1916827bffffffffffffffffffffffffffffffffffffffffffffffffffffffff19161480611f7a57507f5b5e139f000000000000000000000000000000000000000000000000000000007bffffffffffffffffffffffffffffffffffffffffffffffffffffffff1916827bffffffffffffffffffffffffffffffffffffffffffffffffffffffff1916145b80611f8a5750611f89826128cf565b5b9050919050565b600080611f9d83612939565b9050600073ffffffffffffffffffffffffffffffffffffffff168173ffffffffffffffffffffffffffffffffffffffff160361201057826040517f7e27328900000000000000000000000000000000000000000000000000000000815260040161200791906136af565b60405180910390fd5b80915050919050565b60006004600083815260200190815260200160002060009054906101000a900473ffffffffffffffffffffffffffffffffffffffff169050919050565b600033905090565b61206b8383836001612976565b505050565b60008061207e858585612b3b565b9050600073ffffffffffffffffffffffffffffffffffffffff168173ffffffffffffffffffffffffffffffffffffffff16036120c2576120bd84612d55565b612101565b8473ffffffffffffffffffffffffffffffffffffffff168173ffffffffffffffffffffffffffffffffffffffff1614612100576120ff8185612d9e565b5b5b600073ffffffffffffffffffffffffffffffffffffffff168573ffffffffffffffffffffffffffffffffffffffff16036121435761213e84612eff565b612182565b8473ffffffffffffffffffffffffffffffffffffffff168173ffffffffffffffffffffffffffffffffffffffff1614612181576121808585612fd0565b5b5b809150509392505050565b612195612056565b73ffffffffffffffffffffffffffffffffffffffff166121b3611983565b73ffffffffffffffffffffffffffffffffffffffff1614612212576121d6612056565b6040517f118cdaa7000000000000000000000000000000000000000000000000000000008152600401612209919061393e565b60405180910390fd5b565b6002600b5403612250576040517f3ee5aeb500000000000000000000000000000000000000000000000000000000815260040160405180910390fd5b6002600b81905550565b6122d6848573ffffffffffffffffffffffffffffffffffffffff166323b872dd86868660405160240161228f939291906145d8565b604051602081830303815290604052915060e01b6020820180517bffffffffffffffffffffffffffffffffffffffffffffffffffffffff838183161783525050505061305b565b50505050565b612356838473ffffffffffffffffffffffffffffffffffffffff1663a9059cbb858560405160240161230f929190613f17565b604051602081830303815290604052915060e01b6020820180517bffffffffffffffffffffffffffffffffffffffffffffffffffffffff838183161783525050505061305b565b505050565b6123758282604051806020016040528060008152506130f2565b5050565b6001600b81905550565b6000600a60009054906101000a900473ffffffffffffffffffffffffffffffffffffffff16905081600a60006101000a81548173ffffffffffffffffffffffffffffffffffffffff021916908373ffffffffffffffffffffffffffffffffffffffff1602179055508173ffffffffffffffffffffffffffffffffffffffff168173ffffffffffffffffffffffffffffffffffffffff167f8be0079c531659141344cd1fd0a4f28419497f9722a3daafe3b4186f6b6457e060405160405180910390a35050565b600073ffffffffffffffffffffffffffffffffffffffff168273ffffffffffffffffffffffffffffffffffffffff16036124ba57816040517f5b08ba180000000000000000000000000000000000000000000000000000000081526004016124b1919061393e565b60405180910390fd5b80600560008573ffffffffffffffffffffffffffffffffffffffff1673ffffffffffffffffffffffffffffffffffffffff16815260200190815260200160002060008473ffffffffffffffffffffffffffffffffffffffff1673ffffffffffffffffffffffffffffffffffffffff16815260200190815260200160002060006101000a81548160ff0219169083151502179055508173ffffffffffffffffffffffffffffffffffffffff168373ffffffffffffffffffffffffffffffffffffffff167f17307eab39ab6107e8899845ad3d59bd9653f200f220920489ca2b5937696c31836040516125ab919061377e565b60405180910390a3505050565b60008373ffffffffffffffffffffffffffffffffffffffff163b1115612769578273ffffffffffffffffffffffffffffffffffffffff1663150b7a026125fc612056565b8685856040518563ffffffff1660e01b815260040161261e9493929190614664565b6020604051808303816000875af192505050801561265a57506040513d601f19601f8201168201806040525081019061265791906146c5565b60015b6126de573d806000811461268a576040519150601f19603f3d011682016040523d82523d6000602084013e61268f565b606091505b5060008151036126d657836040517f64a0ae920000000000000000000000000000000000000000000000000000000081526004016126cd919061393e565b60405180910390fd5b805181602001fd5b63150b7a0260e01b7bffffffffffffffffffffffffffffffffffffffffffffffffffffffff1916817bffffffffffffffffffffffffffffffffffffffffffffffffffffffff19161461276757836040517f64a0ae9200000000000000000000000000000000000000000000000000000000815260040161275e919061393e565b60405180910390fd5b505b50505050565b6060600f805461277e90613eaf565b80601f01602080910402602001604051908101604052809291908181526020018280546127aa90613eaf565b80156127f75780601f106127cc576101008083540402835291602001916127f7565b820191906000526020600020905b8154815290600101906020018083116127da57829003601f168201915b5050505050905090565b6060600060016128108461310e565b01905060008167ffffffffffffffff81111561282f5761282e613bea565b5b6040519080825280601f01601f1916602001820160405280156128615781602001600182028036833780820191505090505b509050600082602001820190505b6001156128c4578080600190039150507f3031323334353637383961626364656600000000000000000000000000000000600a86061a8153600a85816128b8576128b76146f2565b5b0494506000850361286f575b819350505050919050565b60007f01ffc9a7000000000000000000000000000000000000000000000000000000007bffffffffffffffffffffffffffffffffffffffffffffffffffffffff1916827bffffffffffffffffffffffffffffffffffffffffffffffffffffffff1916149050919050565b60006002600083815260200190815260200160002060009054906101000a900473ffffffffffffffffffffffffffffffffffffffff169050919050565b80806129af5750600073ffffffffffffffffffffffffffffffffffffffff168273ffffffffffffffffffffffffffffffffffffffff1614155b15612ae35760006129bf84611f91565b9050600073ffffffffffffffffffffffffffffffffffffffff168373ffffffffffffffffffffffffffffffffffffffff1614158015612a2a57508273ffffffffffffffffffffffffffffffffffffffff168173ffffffffffffffffffffffffffffffffffffffff1614155b8015612a3d5750612a3b8184611d95565b155b15612a7f57826040517fa9fbf51f000000000000000000000000000000000000000000000000000000008152600401612a76919061393e565b60405180910390fd5b8115612ae157838573ffffffffffffffffffffffffffffffffffffffff168273ffffffffffffffffffffffffffffffffffffffff167f8c5be1e5ebec7d5bd14f71427d1e84f3dd0314c0f7b2291e5b200ac8c7c3b92560405160405180910390a45b505b836004600085815260200190815260200160002060006101000a81548173ffffffffffffffffffffffffffffffffffffffff021916908373ffffffffffffffffffffffffffffffffffffffff16021790555050505050565b600080612b4784612939565b9050600073ffffffffffffffffffffffffffffffffffffffff168373ffffffffffffffffffffffffffffffffffffffff1614612b8957612b88818486613261565b5b600073ffffffffffffffffffffffffffffffffffffffff168173ffffffffffffffffffffffffffffffffffffffff1614612c1a57612bcb600085600080612976565b6001600360008373ffffffffffffffffffffffffffffffffffffffff1673ffffffffffffffffffffffffffffffffffffffff168152602001908152602001600020600082825403925050819055505b600073ffffffffffffffffffffffffffffffffffffffff168573ffffffffffffffffffffffffffffffffffffffff1614612c9d576001600360008773ffffffffffffffffffffffffffffffffffffffff1673ffffffffffffffffffffffffffffffffffffffff168152602001908152602001600020600082825401925050819055505b846002600086815260200190815260200160002060006101000a81548173ffffffffffffffffffffffffffffffffffffffff021916908373ffffffffffffffffffffffffffffffffffffffff160217905550838573ffffffffffffffffffffffffffffffffffffffff168273ffffffffffffffffffffffffffffffffffffffff167fddf252ad1be2c89b69c2b068fc378daa952ba7f163c4a11628f55a4df523b3ef60405160405180910390a4809150509392505050565b6008805490506009600083815260200190815260200160002081905550600881908060018154018082558091505060019003906000526020600020016000909190919091505550565b6000612da983611790565b9050600060076000848152602001908152602001600020549050818114612e8e576000600660008673ffffffffffffffffffffffffffffffffffffffff1673ffffffffffffffffffffffffffffffffffffffff168152602001908152602001600020600084815260200190815260200160002054905080600660008773ffffffffffffffffffffffffffffffffffffffff1673ffffffffffffffffffffffffffffffffffffffff168152602001908152602001600020600084815260200190815260200160002081905550816007600083815260200190815260200160002081905550505b6007600084815260200190815260200160002060009055600660008573ffffffffffffffffffffffffffffffffffffffff1673ffffffffffffffffffffffffffffffffffffffff16815260200190815260200160002060008381526020019081526020016000206000905550505050565b60006001600880549050612f139190614721565b9050600060096000848152602001908152602001600020549050600060088381548110612f4357612f42613f40565b5b906000526020600020015490508060088381548110612f6557612f64613f40565b5b906000526020600020018190555081600960008381526020019081526020016000208190555060096000858152602001908152602001600020600090556008805480612fb457612fb3614755565b5b6001900381819060005260206000200160009055905550505050565b60006001612fdd84611790565b612fe79190614721565b905081600660008573ffffffffffffffffffffffffffffffffffffffff1673ffffffffffffffffffffffffffffffffffffffff168152602001908152602001600020600083815260200190815260200160002081905550806007600084815260200190815260200160002081905550505050565b6000613086828473ffffffffffffffffffffffffffffffffffffffff1661332590919063ffffffff16565b905060008151141580156130ab5750808060200190518101906130a99190614799565b155b156130ed57826040517f5274afe70000000000000000000000000000000000000000000000000000000081526004016130e4919061393e565b60405180910390fd5b505050565b6130fc838361333b565b61310960008484846125b8565b505050565b600080600090507a184f03e93ff9f4daa797ed6e38ed64bf6a1f010000000000000000831061316c577a184f03e93ff9f4daa797ed6e38ed64bf6a1f0100000000000000008381613162576131616146f2565b5b0492506040810190505b6d04ee2d6d415b85acef810000000083106131a9576d04ee2d6d415b85acef8100000000838161319f5761319e6146f2565b5b0492506020810190505b662386f26fc1000083106131d857662386f26fc1000083816131ce576131cd6146f2565b5b0492506010810190505b6305f5e1008310613201576305f5e10083816131f7576131f66146f2565b5b0492506008810190505b612710831061322657612710838161321c5761321b6146f2565b5b0492506004810190505b60648310613249576064838161323f5761323e6146f2565b5b0492506002810190505b600a8310613258576001810190505b80915050919050565b61326c838383613434565b61332057600073ffffffffffffffffffffffffffffffffffffffff168373ffffffffffffffffffffffffffffffffffffffff16036132e157806040517f7e2732890000000000000000000000000000000000000000000000000000000081526004016132d891906136af565b60405180910390fd5b81816040517f177e802f000000000000000000000000000000000000000000000000000000008152600401613317929190613f17565b60405180910390fd5b505050565b6060613333838360006134f5565b905092915050565b600073ffffffffffffffffffffffffffffffffffffffff168273ffffffffffffffffffffffffffffffffffffffff16036133ad5760006040517f64a0ae920000000000000000000000000000000000000000000000000000000081526004016133a4919061393e565b60405180910390fd5b60006133bb83836000612070565b9050600073ffffffffffffffffffffffffffffffffffffffff168173ffffffffffffffffffffffffffffffffffffffff161461342f5760006040517f73c6ac6e000000000000000000000000000000000000000000000000000000008152600401613426919061393e565b60405180910390fd5b505050565b60008073ffffffffffffffffffffffffffffffffffffffff168373ffffffffffffffffffffffffffffffffffffffff16141580156134ec57508273ffffffffffffffffffffffffffffffffffffffff168473ffffffffffffffffffffffffffffffffffffffff1614806134ad57506134ac8484611d95565b5b806134eb57508273ffffffffffffffffffffffffffffffffffffffff166134d383612019565b73ffffffffffffffffffffffffffffffffffffffff16145b5b90509392505050565b60608147101561353c57306040517fcd786059000000000000000000000000000000000000000000000000000000008152600401613533919061393e565b60405180910390fd5b6000808573ffffffffffffffffffffffffffffffffffffffff1684866040516135659190614802565b60006040518083038185875af1925050503d80600081146135a2576040519150601f19603f3d011682016040523d82523d6000602084013e6135a7565b606091505b50915091506135b78683836135c2565b925050509392505050565b6060826135d7576135d282613651565b613649565b600082511480156135ff575060008473ffffffffffffffffffffffffffffffffffffffff163b145b1561364157836040517f9996b315000000000000000000000000000000000000000000000000000000008152600401613638919061393e565b60405180910390fd5b81905061364a565b5b9392505050565b6000815111156136645780518082602001fd5b6040517f1425ea4200000000000000000000000000000000000000000000000000000000815260040160405180910390fd5b6000819050919050565b6136a981613696565b82525050565b60006020820190506136c460008301846136a0565b92915050565b6000604051905090565b600080fd5b600080fd5b60007fffffffff0000000000000000000000000000000000000000000000000000000082169050919050565b613713816136de565b811461371e57600080fd5b50565b6000813590506137308161370a565b92915050565b60006020828403121561374c5761374b6136d4565b5b600061375a84828501613721565b91505092915050565b60008115159050919050565b61377881613763565b82525050565b6000602082019050613793600083018461376f565b92915050565b600073ffffffffffffffffffffffffffffffffffffffff82169050919050565b60006137c482613799565b9050919050565b6137d4816137b9565b81146137df57600080fd5b50565b6000813590506137f1816137cb565b92915050565b60006020828403121561380d5761380c6136d4565b5b600061381b848285016137e2565b91505092915050565b600081519050919050565b600082825260208201905092915050565b60005b8381101561385e578082015181840152602081019050613843565b60008484015250505050565b6000601f19601f8301169050919050565b600061388682613824565b613890818561382f565b93506138a0818560208601613840565b6138a98161386a565b840191505092915050565b600060208201905081810360008301526138ce818461387b565b905092915050565b6138df81613696565b81146138ea57600080fd5b50565b6000813590506138fc816138d6565b92915050565b600060208284031215613918576139176136d4565b5b6000613926848285016138ed565b91505092915050565b613938816137b9565b82525050565b6000602082019050613953600083018461392f565b92915050565b600080604083850312156139705761396f6136d4565b5b600061397e858286016137e2565b925050602061398f858286016138ed565b9150509250929050565b6000806000606084860312156139b2576139b16136d4565b5b60006139c0868287016137e2565b93505060206139d1868287016137e2565b92505060406139e2868287016138ed565b9150509250925092565b6000819050919050565b6000613a11613a0c613a0784613799565b6139ec565b613799565b9050919050565b6000613a23826139f6565b9050919050565b6000613a3582613a18565b9050919050565b613a4581613a2a565b82525050565b6000602082019050613a606000830184613a3c565b92915050565b600080fd5b600080fd5b600080fd5b60008083601f840112613a8b57613a8a613a66565b5b8235905067ffffffffffffffff811115613aa857613aa7613a6b565b5b602083019150836001820283011115613ac457613ac3613a70565b5b9250929050565b60008060208385031215613ae257613ae16136d4565b5b600083013567ffffffffffffffff811115613b0057613aff6136d9565b5b613b0c85828601613a75565b92509250509250929050565b600060c082019050613b2d60008301896136a0565b613b3a602083018861392f565b613b4760408301876136a0565b613b5460608301866136a0565b613b6160808301856136a0565b613b6e60a08301846136a0565b979650505050505050565b613b8281613763565b8114613b8d57600080fd5b50565b600081359050613b9f81613b79565b92915050565b60008060408385031215613bbc57613bbb6136d4565b5b6000613bca858286016137e2565b9250506020613bdb85828601613b90565b9150509250929050565b600080fd5b7f4e487b7100000000000000000000000000000000000000000000000000000000600052604160045260246000fd5b613c228261386a565b810181811067ffffffffffffffff82111715613c4157613c40613bea565b5b80604052505050565b6000613c546136ca565b9050613c608282613c19565b919050565b600067ffffffffffffffff821115613c8057613c7f613bea565b5b613c898261386a565b9050602081019050919050565b82818337600083830152505050565b6000613cb8613cb384613c65565b613c4a565b905082815260208101848484011115613cd457613cd3613be5565b5b613cdf848285613c96565b509392505050565b600082601f830112613cfc57613cfb613a66565b5b8135613d0c848260208601613ca5565b91505092915050565b60008060008060808587031215613d2f57613d2e6136d4565b5b6000613d3d878288016137e2565b9450506020613d4e878288016137e2565b9350506040613d5f878288016138ed565b925050606085013567ffffffffffffffff811115613d8057613d7f6136d9565b5b613d8c87828801613ce7565b91505092959194509250565b60008060408385031215613daf57613dae6136d4565b5b6000613dbd858286016137e2565b9250506020613dce858286016137e2565b9150509250929050565b6000608082019050613ded60008301876136a0565b613dfa60208301866136a0565b613e0760408301856136a0565b613e1460608301846136a0565b95945050505050565b7f4e487b7100000000000000000000000000000000000000000000000000000000600052601160045260246000fd5b6000613e5782613696565b9150613e6283613696565b9250828201905080821115613e7a57613e79613e1d565b5b92915050565b7f4e487b7100000000000000000000000000000000000000000000000000000000600052602260045260246000fd5b60006002820490506001821680613ec757607f821691505b602082108103613eda57613ed9613e80565b5b50919050565b6000606082019050613ef5600083018661392f565b613f0260208301856136a0565b613f0f604083018461392f565b949350505050565b6000604082019050613f2c600083018561392f565b613f3960208301846136a0565b9392505050565b7f4e487b7100000000000000000000000000000000000000000000000000000000600052603260045260246000fd5b600082905092915050565b60008190508160005260206000209050919050565b60006020601f8301049050919050565b600082821b905092915050565b600060088302613fdc7fffffffffffffffffffffffffffffffffffffffffffffffffffffffffffffffff82613f9f565b613fe68683613f9f565b95508019841693508086168417925050509392505050565b600061401961401461400f84613696565b6139ec565b613696565b9050919050565b6000819050919050565b61403383613ffe565b61404761403f82614020565b848454613fac565b825550505050565b600090565b61405c61404f565b61406781848461402a565b505050565b5b8181101561408b57614080600082614054565b60018101905061406d565b5050565b601f8211156140d0576140a181613f7a565b6140aa84613f8f565b810160208510156140b9578190505b6140cd6140c585613f8f565b83018261406c565b50505b505050565b600082821c905092915050565b60006140f3600019846008026140d5565b1980831691505092915050565b600061410c83836140e2565b9150826002028217905092915050565b6141268383613f6f565b67ffffffffffffffff81111561413f5761413e613bea565b5b6141498254613eaf565b61415482828561408f565b6000601f8311600181146141835760008415614171578287013590505b61417b8582614100565b8655506141e3565b601f19841661419186613f7a565b60005b828110156141b957848901358255600182019150602085019450602081019050614194565b868310156141d657848901356141d2601f8916826140e2565b8355505b6001600288020188555050505b50505050505050565b60006141f8838561382f565b9350614205838584613c96565b61420e8361386a565b840190509392505050565b600060208201905081810360008301526142348184866141ec565b90509392505050565b7f496e76616c69642077616c6c6574206164647265737300000000000000000000600082015250565b600061427360168361382f565b915061427e8261423d565b602082019050919050565b600060208201905081810360008301526142a281614266565b9050919050565b7f496e76616c696420746f6b656e20616464726573730000000000000000000000600082015250565b60006142df60158361382f565b91506142ea826142a9565b602082019050919050565b6000602082019050818103600083015261430e816142d2565b9050919050565b7f4d617820737570706c7920726561636865640000000000000000000000000000600082015250565b600061434b60128361382f565b915061435682614315565b602082019050919050565b6000602082019050818103600083015261437a8161433e565b9050919050565b7f5061796d656e7420746f6b656e206e6f74207365740000000000000000000000600082015250565b60006143b760158361382f565b91506143c282614381565b602082019050919050565b600060208201905081810360008301526143e6816143aa565b9050919050565b60006143f882613696565b91507fffffffffffffffffffffffffffffffffffffffffffffffffffffffffffffffff820361442a57614429613e1d565b5b600182019050919050565b600060408201905061444a600083018561392f565b614457602083018461392f565b9392505050565b60008151905061446d816138d6565b92915050565b600060208284031215614489576144886136d4565b5b60006144978482850161445e565b91505092915050565b7f526566657272657220616c726561647920736574000000000000000000000000600082015250565b60006144d660148361382f565b91506144e1826144a0565b602082019050919050565b60006020820190508181036000830152614505816144c9565b9050919050565b7f43616e6e6f742073656c662d7265666572000000000000000000000000000000600082015250565b600061454260118361382f565b915061454d8261450c565b602082019050919050565b6000602082019050818103600083015261457181614535565b9050919050565b600081905092915050565b600061458e82613824565b6145988185614578565b93506145a8818560208601613840565b80840191505092915050565b60006145c08285614583565b91506145cc8284614583565b91508190509392505050565b60006060820190506145ed600083018661392f565b6145fa602083018561392f565b61460760408301846136a0565b949350505050565b600081519050919050565b600082825260208201905092915050565b60006146368261460f565b614640818561461a565b9350614650818560208601613840565b6146598161386a565b840191505092915050565b6000608082019050614679600083018761392f565b614686602083018661392f565b61469360408301856136a0565b81810360608301526146a5818461462b565b905095945050505050565b6000815190506146bf8161370a565b92915050565b6000602082840312156146db576146da6136d4565b5b60006146e9848285016146b0565b91505092915050565b7f4e487b7100000000000000000000000000000000000000000000000000000000600052601260045260246000fd5b600061472c82613696565b915061473783613696565b925082820390508181111561474f5761474e613e1d565b5b92915050565b7f4e487b7100000000000000000000000000000000000000000000000000000000600052603160045260246000fd5b60008151905061479381613b79565b92915050565b6000602082840312156147af576147ae6136d4565b5b60006147bd84828501614784565b91505092915050565b600081905092915050565b60006147dc8261460f565b6147e681856147c6565b93506147f6818560208601613840565b80840191505092915050565b600061480e82846147d1565b91508190509291505056fea2646970667358221220da3455a3b28c9c1c9e35c4b48c0471307946d8014f2d1d6412d0db3a18fb6b1764736f6c63430008140033",
  "linkReferences": {},
  "deployedLinkReferences": {}
}