{
  "_format": "hh-sol-artifact-1",
  "contractName": "GenesisNode",
  "sourceName": "contracts/GenesisNode.sol",
  "abi": [
    {
      "inputs": [
        {
          "internalType": "address",
          "name": "_daoTreasury",
          "type": "address"
        }
      ],
      "stateMutability": "nonpayable",
      "type": "constructor"
    },
    {
      "inputs": [],
      "name": "ERC721EnumerableForbiddenBatchMint",
      "type": "error"
    },
    {
      "inputs": [
        {
          "internalType": "address",
          "name": "sender",
          "type": "address"
        },
        {
          "internalType": "uint256",
          "name": "tokenId",
          "type": "uint256"
        },
        {
          "internalType": "address",
          "name": "owner",
          "type": "address"
        }
      ],
      "name": "ERC721IncorrectOwner",
      "type": "error"
    },
    {
      "inputs": [
        {
          "internalType": "address",
          "name": "operator",
          "type": "address"
        },
        {
          "internalType": "uint256",
          "name": "tokenId",
          "type": "uint256"
        }
      ],
      "name": "ERC721InsufficientApproval",
      "type": "error"
    },
    {
      "inputs": [
        {
          "internalType": "address",
          "name": "approver",
          "type": "address"
        }
      ],
      "name": "ERC721InvalidApprover",
      "type": "error"
    },
    {
      "inputs": [
        {
          "internalType": "address",
          "name": "operator",
          "type": "address"
        }
      ],
      "name": "ERC721InvalidOperator",
      "type": "error"
    },
    {
      "inputs": [
        {
          "internalType": "address",
          "name": "owner",
          "type": "address"
        }
      ],
      "name": "ERC721InvalidOwner",
      "type": "error"
    },
    {
      "inputs": [
        {
          "internalType": "address",
          "name": "receiver",
          "type": "address"
        }
      ],
      "name": "ERC721InvalidReceiver",
      "type": "error"
    },
    {
      "inputs": [
        {
          "internalType": "address",
          "name": "sender",
          "type": "address"
        }
      ],
      "name": "ERC721InvalidSender",
      "type": "error"
    },
    {
      "inputs": [
        {
          "internalType": "uint256",
          "name": "tokenId",
          "type": "uint256"
        }
      ],
      "name": "ERC721NonexistentToken",
      "type": "error"
    },
    {
      "inputs": [
        {
          "internalType": "address",
          "name": "owner",
          "type": "address"
        },
        {
          "internalType": "uint256",
          "name": "index",
          "type": "uint256"
        }
      ],
      "name": "ERC721OutOfBoundsIndex",
      "type": "error"
    },
    {
      "inputs": [
        {
          "internalType": "address",
          "name": "owner",
          "type": "address"
        }
      ],
      "name": "OwnableInvalidOwner",
      "type": "error"
    },
    {
      "inputs": [
        {
          "internalType": "address",
          "name": "account",
          "type": "address"
        }
      ],
      "name": "OwnableUnauthorizedAccount",
      "type": "error"
    },
    {
      "anonymous": false,
      "inputs": [
        {
          "indexed": true,
          "internalType": "address",
          "name": "owner",
          "type": "address"
        },
        {
          "indexed": true,
          "internalType": "address",
          "name": "approved",
          "type": "address"
        },
        {
          "indexed": true,
          "internalType": "uint256",
          "name": "tokenId",
          "type": "uint256"
        }
      ],
      "name": "Approval",
      "type": "event"
    },
    {
      "anonymous": false,
      "inputs": [
        {
          "indexed": true,
          "internalType": "address",
          "name": "owner",
          "type": "address"
        },
        {
          "indexed": true,
          "internalType": "address",
          "name": "operator",
          "type": "address"
        },
        {
          "indexed": false,
          "internalType": "bool",
          "name": "approved",
          "type": "bool"
        }
      ],
      "name": "ApprovalForAll",
      "type": "event"
    },
    {
      "anonymous": false,
      "inputs": [
        {
          "indexed": true,
          "internalType": "address",
          "name": "previousOwner",
          "type": "address"
        },
        {
          "indexed": true,
          "internalType": "address",
          "name": "newOwner",
          "type": "address"
        }
      ],
      "name": "OwnershipTransferred",
      "type": "event"
    },
    {
      "anonymous": false,
      "inputs": [
        {
          "indexed": true,
          "internalType": "address",
          "name": "from",
          "type": "address"
        },
        {
          "indexed": true,
          "internalType": "address",
          "name": "to",
          "type": "address"
        },
        {
          "indexed": true,
          "internalType": "uint256",
          "name": "tokenId",
          "type": "uint256"
        }
      ],
      "name": "Transfer",
      "type": "event"
    },
    {
      "inputs": [],
      "name": "DAO_TREASURY",
      "outputs": [
        {
          "internalType": "address",
          "name": "",
          "type": "address"
        }
      ],
      "stateMutability": "view",
      "type": "function"
    },
    {
      "inputs": [],
      "name": "EQUAL_LEVEL_BONUS",
      "outputs": [
        {
          "internalType": "uint256",
          "name": "",
          "type": "uint256"
        }
      ],
      "stateMutability": "view",
      "type": "function"
    },
    {
      "inputs": [],
      "name": "INFINITE_RATE",
      "outputs": [
        {
          "internalType": "uint256",
          "name": "",
          "type": "uint256"
        }
      ],
      "stateMutability": "view",
      "type": "function"
    },
    {
      "inputs": [],
      "name": "L1_RATE",
      "outputs": [
        {
          "internalType": "uint256",
          "name": "",
          "type": "uint256"
        }
      ],
      "stateMutability": "view",
      "type": "function"
    },
    {
      "inputs": [],
      "name": "L2_RATE",
      "outputs": [
        {
          "internalType": "uint256",
          "name": "",
          "type": "uint256"
        }
      ],
      "stateMutability": "view",
      "type": "function"
    },
    {
      "inputs": [],
      "name": "MAX_DEPTH",
      "outputs": [
        {
          "internalType": "uint256",
          "name": "",
          "type": "uint256"
        }
      ],
      "stateMutability": "view",
      "type": "function"
    },
    {
      "inputs": [
        {
          "internalType": "address",
          "name": "to",
          "type": "address"
        },
        {
          "internalType": "uint256",
          "name": "tokenId",
          "type": "uint256"
        }
      ],
      "name": "approve",
      "outputs": [],
      "stateMutability": "nonpayable",
      "type": "function"
    },
    {
      "inputs": [
        {
          "internalType": "address",
          "name": "owner",
          "type": "address"
        }
      ],
      "name": "balanceOf",
      "outputs": [
        {
          "internalType": "uint256",
          "name": "",
          "type": "uint256"
        }
      ],
      "stateMutability": "view",
      "type": "function"
    },
    {
      "inputs": [
        {
          "internalType": "address",
          "name": "minter",
          "type": "address"
        },
        {
          "internalType": "uint256",
          "name": "mintAmount",
          "type": "uint256"
        }
      ],
      "name": "distributeRewards",
      "outputs": [],
      "stateMutability": "nonpayable",
      "type": "function"
    },
    {
      "inputs": [
        {
          "internalType": "uint256",
          "name": "tokenId",
          "type": "uint256"
        }
      ],
      "name": "getApproved",
      "outputs": [
        {
          "internalType": "address",
          "name": "",
          "type": "address"
        }
      ],
      "stateMutability": "view",
      "type": "function"
    },
    {
      "inputs": [
        {
          "internalType": "address",
          "name": "user",
          "type": "address"
        }
      ],
      "name": "getSelfBoost",
      "outputs": [
        {
          "internalType": "uint256",
          "name": "",
          "type": "uint256"
        }
      ],
      "stateMutability": "view",
      "type": "function"
    },
    {
      "inputs": [
        {
          "internalType": "address",
          "name": "owner",
          "type": "address"
        },
        {
          "internalType": "address",
          "name": "operator",
          "type": "address"
        }
      ],
      "name": "isApprovedForAll",
      "outputs": [
        {
          "internalType": "bool",
          "name": "",
          "type": "bool"
        }
      ],
      "stateMutability": "view",
      "type": "function"
    },
    {
      "inputs": [
        {
          "internalType": "address",
          "name": "to",
          "type": "address"
        }
      ],
      "name": "mint",
      "outputs": [],
      "stateMutability": "nonpayable",
      "type": "function"
    },
    {
      "inputs": [],
      "name": "name",
      "outputs": [
        {
          "internalType": "string",
          "name": "",
          "type": "string"
        }
      ],
      "stateMutability": "view",
      "type": "function"
    },
    {
      "inputs": [],
      "name": "owner",
      "outputs": [
        {
          "internalType": "address",
          "name": "",
          "type": "address"
        }
      ],
      "stateMutability": "view",
      "type": "function"
    },
    {
      "inputs": [
        {
          "internalType": "uint256",
          "name": "tokenId",
          "type": "uint256"
        }
      ],
      "name": "ownerOf",
      "outputs": [
        {
          "internalType": "address",
          "name": "",
          "type": "address"
        }
      ],
      "stateMutability": "view",
      "type": "function"
    },
    {
      "inputs": [],
      "name": "renounceOwnership",
      "outputs": [],
      "stateMutability": "nonpayable",
      "type": "function"
    },
    {
      "inputs": [
        {
          "internalType": "address",
          "name": "from",
          "type": "address"
        },
        {
          "internalType": "address",
          "name": "to",
          "type": "address"
        },
        {
          "internalType": "uint256",
          "name": "tokenId",
          "type": "uint256"
        }
      ],
      "name": "safeTransferFrom",
      "outputs": [],
      "stateMutability": "nonpayable",
      "type": "function"
    },
    {
      "inputs": [
        {
          "internalType": "address",
          "name": "from",
          "type": "address"
        },
        {
          "internalType": "address",
          "name": "to",
          "type": "address"
        },
        {
          "internalType": "uint256",
          "name": "tokenId",
          "type": "uint256"
        },
        {
          "internalType": "bytes",
          "name": "data",
          "type": "bytes"
        }
      ],
      "name": "safeTransferFrom",
      "outputs": [],
      "stateMutability": "nonpayable",
      "type": "function"
    },
    {
      "inputs": [
        {
          "internalType": "address",
          "name": "operator",
          "type": "address"
        },
        {
          "internalType": "bool",
          "name": "approved",
          "type": "bool"
        }
      ],
      "name": "setApprovalForAll",
      "outputs": [],
      "stateMutability": "nonpayable",
      "type": "function"
    },
    {
      "inputs": [
        {
          "internalType": "address",
          "name": "user",
          "type": "address"
        },
        {
          "internalType": "address",
          "name": "referrer",
          "type": "address"
        }
      ],
      "name": "setReferrer",
      "outputs": [],
      "stateMutability": "nonpayable",
      "type": "function"
    },
    {
      "inputs": [
        {
          "internalType": "bytes4",
          "name": "interfaceId",
          "type": "bytes4"
        }
      ],
      "name": "supportsInterface",
      "outputs": [
        {
          "internalType": "bool",
          "name": "",
          "type": "bool"
        }
      ],
      "stateMutability": "view",
      "type": "function"
    },
    {
      "inputs": [],
      "name": "symbol",
      "outputs": [
        {
          "internalType": "string",
          "name": "",
          "type": "string"
        }
      ],
      "stateMutability": "view",
      "type": "function"
    },
    {
      "inputs": [
        {
          "internalType": "uint256",
          "name": "index",
          "type": "uint256"
        }
      ],
      "name": "tokenByIndex",
      "outputs": [
        {
          "internalType": "uint256",
          "name": "",
          "type": "uint256"
        }
      ],
      "stateMutability": "view",
      "type": "function"
    },
    {
      "inputs": [
        {
          "internalType": "address",
          "name": "owner",
          "type": "address"
        },
        {
          "internalType": "uint256",
          "name": "index",
          "type": "uint256"
        }
      ],
      "name": "tokenOfOwnerByIndex",
      "outputs": [
        {
          "internalType": "uint256",
          "name": "",
          "type": "uint256"
        }
      ],
      "stateMutability": "view",
      "type": "function"
    },
    {
      "inputs": [
        {
          "internalType": "uint256",
          "name": "tokenId",
          "type": "uint256"
        }
      ],
      "name": "tokenURI",
      "outputs": [
        {
          "internalType": "string",
          "name": "",
          "type": "string"
        }
      ],
      "stateMutability": "view",
      "type": "function"
    },
    {
      "inputs": [],
      "name": "totalSupply",
      "outputs": [
        {
          "internalType": "uint256",
          "name": "",
          "type": "uint256"
        }
      ],
      "stateMutability": "view",
      "type": "function"
    },
    {
      "inputs": [
        {
          "internalType": "address",
          "name": "from",
          "type": "address"
        },
        {
          "internalType": "address",
          "name": "to",
          "type": "address"
        },
        {
          "internalType": "uint256",
          "name": "tokenId",
          "type": "uint256"
        }
      ],
      "name": "transferFrom",
      "outputs": [],
      "stateMutability": "nonpayable",
      "type": "function"
    },
    {
      "inputs": [
        {
          "internalType": "address",
          "name": "newOwner",
          "type": "address"
        }
      ],
      "name": "transferOwnership",
      "outputs": [],
      "stateMutability": "nonpayable",
      "type": "function"
    },
    {
      "inputs": [
        {
          "internalType": "address",
          "name": "",
          "type": "address"
        }
      ],
      "name": "users",
      "outputs": [
        {
          "internalType": "address",
          "name": "referrer",
          "type": "address"
        },
        {
          "internalType": "uint256",
          "name": "totalRewards",
          "type": "uint256"
        }
      ],
      "stateMutability": "view",
      "type": "function"
    }
  ],
  "bytecode": "0x60a06040523480156200001157600080fd5b50604051620037e9380380620037e983398181016040528101906200003791906200032e565b336040518060400160405280601081526020017f4976792047656e65736973204e6f6465000000000000000000000000000000008152506040518060400160405280600881526020017f4956592d4e4f44450000000000000000000000000000000000000000000000008152508160009081620000b59190620005da565b508060019081620000c79190620005da565b505050600073ffffffffffffffffffffffffffffffffffffffff168173ffffffffffffffffffffffffffffffffffffffff16036200013f5760006040517f1e4fbdf7000000000000000000000000000000000000000000000000000000008152600401620001369190620006d2565b60405180910390fd5b6200015081620001fe60201b60201c565b50600073ffffffffffffffffffffffffffffffffffffffff168173ffffffffffffffffffffffffffffffffffffffff1603620001c3576040517f08c379a0000000000000000000000000000000000000000000000000000000008152600401620001ba9062000750565b60405180910390fd5b8073ffffffffffffffffffffffffffffffffffffffff1660808173ffffffffffffffffffffffffffffffffffffffff16815250505062000772565b6000600a60009054906101000a900473ffffffffffffffffffffffffffffffffffffffff16905081600a60006101000a81548173ffffffffffffffffffffffffffffffffffffffff021916908373ffffffffffffffffffffffffffffffffffffffff1602179055508173ffffffffffffffffffffffffffffffffffffffff168173ffffffffffffffffffffffffffffffffffffffff167f8be0079c531659141344cd1fd0a4f28419497f9722a3daafe3b4186f6b6457e060405160405180910390a35050565b600080fd5b600073ffffffffffffffffffffffffffffffffffffffff82169050919050565b6000620002f682620002c9565b9050919050565b6200030881620002e9565b81146200031457600080fd5b50565b6000815190506200032881620002fd565b92915050565b600060208284031215620003475762000346620002c4565b5b6000620003578482850162000317565b91505092915050565b600081519050919050565b7f4e487b7100000000000000000000000000000000000000000000000000000000600052604160045260246000fd5b7f4e487b7100000000000000000000000000000000000000000000000000000000600052602260045260246000fd5b60006002820490506001821680620003e257607f821691505b602082108103620003f857620003f76200039a565b5b50919050565b60008190508160005260206000209050919050565b60006020601f8301049050919050565b600082821b905092915050565b600060088302620004627fffffffffffffffffffffffffffffffffffffffffffffffffffffffffffffffff8262000423565b6200046e868362000423565b95508019841693508086168417925050509392505050565b6000819050919050565b6000819050919050565b6000620004bb620004b5620004af8462000486565b62000490565b62000486565b9050919050565b6000819050919050565b620004d7836200049a565b620004ef620004e682620004c2565b84845462000430565b825550505050565b600090565b62000506620004f7565b62000513818484620004cc565b505050565b5b818110156200053b576200052f600082620004fc565b60018101905062000519565b5050565b601f8211156200058a576200055481620003fe565b6200055f8462000413565b810160208510156200056f578190505b620005876200057e8562000413565b83018262000518565b50505b505050565b600082821c905092915050565b6000620005af600019846008026200058f565b1980831691505092915050565b6000620005ca83836200059c565b9150826002028217905092915050565b620005e58262000360565b67ffffffffffffffff8111156200060157620006006200036b565b5b6200060d8254620003c9565b6200061a8282856200053f565b600060209050601f8311600181146200065257600084156200063d578287015190505b620006498582620005bc565b865550620006b9565b601f1984166200066286620003fe565b60005b828110156200068c5784890151825560018201915060208501945060208101905062000665565b86831015620006ac5784890151620006a8601f8916826200059c565b8355505b6001600288020188555050505b505050505050565b620006cc81620002e9565b82525050565b6000602082019050620006e96000830184620006c1565b92915050565b600082825260208201905092915050565b7f496e76616c696420547265617375727900000000000000000000000000000000600082015250565b600062000738601083620006ef565b9150620007458262000700565b602082019050919050565b600060208201905081810360008301526200076b8162000729565b9050919050565b6080516130546200079560003960008181610b820152610f9201526130546000f3fe608060405234801561001057600080fd5b50600436106101da5760003560e01c8063715018a611610104578063a87430ba116100a2578063da6510b411610071578063da6510b41461056a578063e985e9c514610588578063f2fde38b146105b8578063f706555b146105d4576101da565b8063a87430ba146104d1578063b88d4fde14610502578063bbddaca31461051e578063c87b56dd1461053a576101da565b80639dc78ee6116100de5780639dc78ee61461045d578063a22cb4651461047b578063a27154ba14610497578063a8031a1d146104b5576101da565b8063715018a6146104175780638da5cb5b1461042157806395d89b411461043f576101da565b80632f745c591161017c5780635ff871c81161014b5780635ff871c81461037d5780636352211e1461039b5780636a627842146103cb57806370a08231146103e7576101da565b80632f745c59146102d15780633633f3c01461030157806342842e0e146103315780634f6ccce71461034d576101da565b8063095ea7b3116101b8578063095ea7b31461025d57806318160ddd1461027957806323b872dd14610297578063277c19b0146102b3576101da565b806301ffc9a7146101df57806306fdde031461020f578063081812fc1461022d575b600080fd5b6101f960048036038101906101f491906126ee565b6105f2565b6040516102069190612736565b60405180910390f35b61021761066c565b60405161022491906127e1565b60405180910390f35b61024760048036038101906102429190612839565b6106fe565b60405161025491906128a7565b60405180910390f35b610277600480360381019061027291906128ee565b61071a565b005b610281610730565b60405161028e919061293d565b60405180910390f35b6102b160048036038101906102ac9190612958565b61073d565b005b6102bb61083f565b6040516102c8919061293d565b60405180910390f35b6102eb60048036038101906102e691906128ee565b610844565b6040516102f8919061293d565b60405180910390f35b61031b600480360381019061031691906129ab565b6108ed565b604051610328919061293d565b60405180910390f35b61034b60048036038101906103469190612958565b610920565b005b61036760048036038101906103629190612839565b610940565b604051610374919061293d565b60405180910390f35b6103856109b6565b604051610392919061293d565b60405180910390f35b6103b560048036038101906103b09190612839565b6109bb565b6040516103c291906128a7565b60405180910390f35b6103e560048036038101906103e091906129ab565b6109cd565b005b61040160048036038101906103fc91906129ab565b6109f6565b60405161040e919061293d565b60405180910390f35b61041f610ab0565b005b610429610ac4565b60405161043691906128a7565b60405180910390f35b610447610aee565b60405161045491906127e1565b60405180910390f35b610465610b80565b60405161047291906128a7565b60405180910390f35b61049560048036038101906104909190612a04565b610ba4565b005b61049f610bba565b6040516104ac919061293d565b60405180910390f35b6104cf60048036038101906104ca91906128ee565b610bbf565b005b6104eb60048036038101906104e691906129ab565b610fdb565b6040516104f9929190612a44565b60405180910390f35b61051c60048036038101906105179190612ba2565b61101f565b005b61053860048036038101906105339190612c25565b61103c565b005b610554600480360381019061054f9190612839565b6110c9565b60405161056191906127e1565b60405180910390f35b610572611132565b60405161057f919061293d565b60405180910390f35b6105a2600480360381019061059d9190612c25565b611138565b6040516105af9190612736565b60405180910390f35b6105d260048036038101906105cd91906129ab565b6111cc565b005b6105dc611252565b6040516105e9919061293d565b60405180910390f35b60007f780e9d63000000000000000000000000000000000000000000000000000000007bffffffffffffffffffffffffffffffffffffffffffffffffffffffff1916827bffffffffffffffffffffffffffffffffffffffffffffffffffffffff19161480610665575061066482611258565b5b9050919050565b60606000805461067b90612c94565b80601f01602080910402602001604051908101604052809291908181526020018280546106a790612c94565b80156106f45780601f106106c9576101008083540402835291602001916106f4565b820191906000526020600020905b8154815290600101906020018083116106d757829003601f168201915b5050505050905090565b60006107098261133a565b50610713826113c2565b9050919050565b61072c82826107276113ff565b611407565b5050565b6000600880549050905090565b600073ffffffffffffffffffffffffffffffffffffffff168273ffffffffffffffffffffffffffffffffffffffff16036107af5760006040517f64a0ae920000000000000000000000000000000000000000000000000000000081526004016107a691906128a7565b60405180910390fd5b60006107c383836107be6113ff565b611419565b90508373ffffffffffffffffffffffffffffffffffffffff168173ffffffffffffffffffffffffffffffffffffffff1614610839578382826040517f64283d7b00000000000000000000000000000000000000000000000000000000815260040161083093929190612cc5565b60405180910390fd5b50505050565b60c881565b600061084f836109f6565b82106108945782826040517fa57d13dc00000000000000000000000000000000000000000000000000000000815260040161088b929190612a44565b60405180910390fd5b600660008473ffffffffffffffffffffffffffffffffffffffff1673ffffffffffffffffffffffffffffffffffffffff168152602001908152602001600020600083815260200190815260200160002054905092915050565b6000806108f9836109f6565b1161090557600061090f565b67016345785d8a00005b67ffffffffffffffff169050919050565b61093b8383836040518060200160405280600081525061101f565b505050565b600061094a610730565b8210610990576000826040517fa57d13dc000000000000000000000000000000000000000000000000000000008152600401610987929190612a44565b60405180910390fd5b600882815481106109a4576109a3612cfc565b5b90600052602060002001549050919050565b603281565b60006109c68261133a565b9050919050565b6000600c60008154809291906109e290612d5a565b9190505590506109f28282611536565b5050565b60008073ffffffffffffffffffffffffffffffffffffffff168273ffffffffffffffffffffffffffffffffffffffff1603610a695760006040517f89c62b64000000000000000000000000000000000000000000000000000000008152600401610a6091906128a7565b60405180910390fd5b600360008373ffffffffffffffffffffffffffffffffffffffff1673ffffffffffffffffffffffffffffffffffffffff168152602001908152602001600020549050919050565b610ab8611554565b610ac260006115db565b565b6000600a60009054906101000a900473ffffffffffffffffffffffffffffffffffffffff16905090565b606060018054610afd90612c94565b80601f0160208091040260200160405190810160405280929190818152602001828054610b2990612c94565b8015610b765780601f10610b4b57610100808354040283529160200191610b76565b820191906000526020600020905b815481529060010190602001808311610b5957829003601f168201915b5050505050905090565b7f000000000000000000000000000000000000000000000000000000000000000081565b610bb6610baf6113ff565b83836116a1565b5050565b601481565b6000600b60008473ffffffffffffffffffffffffffffffffffffffff1673ffffffffffffffffffffffffffffffffffffffff16815260200190815260200160002060000160009054906101000a900473ffffffffffffffffffffffffffffffffffffffff169050600073ffffffffffffffffffffffffffffffffffffffff168173ffffffffffffffffffffffffffffffffffffffff1603610c605750610fd7565b610c84816127106103e885610c759190612da2565b610c7f9190612e13565b611810565b6000600b60008373ffffffffffffffffffffffffffffffffffffffff1673ffffffffffffffffffffffffffffffffffffffff16815260200190815260200160002060000160009054906101000a900473ffffffffffffffffffffffffffffffffffffffff169050600073ffffffffffffffffffffffffffffffffffffffff168173ffffffffffffffffffffffffffffffffffffffff1603610d26575050610fd7565b610d4a816127106101f486610d3b9190612da2565b610d459190612e13565b611810565b6000600b60008373ffffffffffffffffffffffffffffffffffffffff1673ffffffffffffffffffffffffffffffffffffffff16815260200190815260200160002060000160009054906101000a900473ffffffffffffffffffffffffffffffffffffffff1690506000805b600073ffffffffffffffffffffffffffffffffffffffff168373ffffffffffffffffffffffffffffffffffffffff1614158015610df0575081155b8015610dfc5750601481105b15610f88576000610e0c846109f6565b1115610f1057610e358361271060c889610e269190612da2565b610e309190612e13565b611810565b600191506000600b60008573ffffffffffffffffffffffffffffffffffffffff1673ffffffffffffffffffffffffffffffffffffffff16815260200190815260200160002060000160009054906101000a900473ffffffffffffffffffffffffffffffffffffffff169050600073ffffffffffffffffffffffffffffffffffffffff168173ffffffffffffffffffffffffffffffffffffffff1614158015610ee557506000610ee3826109f6565b115b15610f0e57610f0d8161271060328a610efe9190612da2565b610f089190612e13565b611810565b5b505b600b60008473ffffffffffffffffffffffffffffffffffffffff1673ffffffffffffffffffffffffffffffffffffffff16815260200190815260200160002060000160009054906101000a900473ffffffffffffffffffffffffffffffffffffffff1692508080610f8090612d5a565b915050610db5565b81610fd157610fd07f000000000000000000000000000000000000000000000000000000000000000061271060c889610fc19190612da2565b610fcb9190612e13565b611810565b5b50505050505b5050565b600b6020528060005260406000206000915090508060000160009054906101000a900473ffffffffffffffffffffffffffffffffffffffff16908060010154905082565b61102a84848461073d565b6110368484848461186d565b50505050565b611044611554565b80600b60008473ffffffffffffffffffffffffffffffffffffffff1673ffffffffffffffffffffffffffffffffffffffff16815260200190815260200160002060000160006101000a81548173ffffffffffffffffffffffffffffffffffffffff021916908373ffffffffffffffffffffffffffffffffffffffff1602179055505050565b60606110d48261133a565b5060006110df611a24565b905060008151116110ff576040518060200160405280600081525061112a565b8061110984611a3b565b60405160200161111a929190612e80565b6040516020818303038152906040525b915050919050565b6101f481565b6000600560008473ffffffffffffffffffffffffffffffffffffffff1673ffffffffffffffffffffffffffffffffffffffff16815260200190815260200160002060008373ffffffffffffffffffffffffffffffffffffffff1673ffffffffffffffffffffffffffffffffffffffff16815260200190815260200160002060009054906101000a900460ff16905092915050565b6111d4611554565b600073ffffffffffffffffffffffffffffffffffffffff168173ffffffffffffffffffffffffffffffffffffffff16036112465760006040517f1e4fbdf700000000000000000000000000000000000000000000000000000000815260040161123d91906128a7565b60405180910390fd5b61124f816115db565b50565b6103e881565b60007f80ac58cd000000000000000000000000000000000000000000000000000000007bffffffffffffffffffffffffffffffffffffffffffffffffffffffff1916827bffffffffffffffffffffffffffffffffffffffffffffffffffffffff1916148061132357507f5b5e139f000000000000000000000000000000000000000000000000000000007bffffffffffffffffffffffffffffffffffffffffffffffffffffffff1916827bffffffffffffffffffffffffffffffffffffffffffffffffffffffff1916145b80611333575061133282611b09565b5b9050919050565b60008061134683611b73565b9050600073ffffffffffffffffffffffffffffffffffffffff168173ffffffffffffffffffffffffffffffffffffffff16036113b957826040517f7e2732890000000000000000000000000000000000000000000000000000000081526004016113b0919061293d565b60405180910390fd5b80915050919050565b60006004600083815260200190815260200160002060009054906101000a900473ffffffffffffffffffffffffffffffffffffffff169050919050565b600033905090565b6114148383836001611bb0565b505050565b600080611427858585611d75565b9050600073ffffffffffffffffffffffffffffffffffffffff168173ffffffffffffffffffffffffffffffffffffffff160361146b5761146684611f8f565b6114aa565b8473ffffffffffffffffffffffffffffffffffffffff168173ffffffffffffffffffffffffffffffffffffffff16146114a9576114a88185611fd8565b5b5b600073ffffffffffffffffffffffffffffffffffffffff168573ffffffffffffffffffffffffffffffffffffffff16036114ec576114e784612139565b61152b565b8473ffffffffffffffffffffffffffffffffffffffff168173ffffffffffffffffffffffffffffffffffffffff161461152a57611529858561220a565b5b5b809150509392505050565b611550828260405180602001604052806000815250612295565b5050565b61155c6113ff565b73ffffffffffffffffffffffffffffffffffffffff1661157a610ac4565b73ffffffffffffffffffffffffffffffffffffffff16146115d95761159d6113ff565b6040517f118cdaa70000000000000000000000000000000000000000000000000000000081526004016115d091906128a7565b60405180910390fd5b565b6000600a60009054906101000a900473ffffffffffffffffffffffffffffffffffffffff16905081600a60006101000a81548173ffffffffffffffffffffffffffffffffffffffff021916908373ffffffffffffffffffffffffffffffffffffffff1602179055508173ffffffffffffffffffffffffffffffffffffffff168173ffffffffffffffffffffffffffffffffffffffff167f8be0079c531659141344cd1fd0a4f28419497f9722a3daafe3b4186f6b6457e060405160405180910390a35050565b600073ffffffffffffffffffffffffffffffffffffffff168273ffffffffffffffffffffffffffffffffffffffff160361171257816040517f5b08ba1800000000000000000000000000000000000000000000000000000000815260040161170991906128a7565b60405180910390fd5b80600560008573ffffffffffffffffffffffffffffffffffffffff1673ffffffffffffffffffffffffffffffffffffffff16815260200190815260200160002060008473ffffffffffffffffffffffffffffffffffffffff1673ffffffffffffffffffffffffffffffffffffffff16815260200190815260200160002060006101000a81548160ff0219169083151502179055508173ffffffffffffffffffffffffffffffffffffffff168373ffffffffffffffffffffffffffffffffffffffff167f17307eab39ab6107e8899845ad3d59bd9653f200f220920489ca2b5937696c31836040516118039190612736565b60405180910390a3505050565b80600b60008473ffffffffffffffffffffffffffffffffffffffff1673ffffffffffffffffffffffffffffffffffffffff16815260200190815260200160002060010160008282546118629190612ea4565b925050819055505050565b60008373ffffffffffffffffffffffffffffffffffffffff163b1115611a1e578273ffffffffffffffffffffffffffffffffffffffff1663150b7a026118b16113ff565b8685856040518563ffffffff1660e01b81526004016118d39493929190612f2d565b6020604051808303816000875af192505050801561190f57506040513d601f19601f8201168201806040525081019061190c9190612f8e565b60015b611993573d806000811461193f576040519150601f19603f3d011682016040523d82523d6000602084013e611944565b606091505b50600081510361198b57836040517f64a0ae9200000000000000000000000000000000000000000000000000000000815260040161198291906128a7565b60405180910390fd5b805181602001fd5b63150b7a0260e01b7bffffffffffffffffffffffffffffffffffffffffffffffffffffffff1916817bffffffffffffffffffffffffffffffffffffffffffffffffffffffff191614611a1c57836040517f64a0ae92000000000000000000000000000000000000000000000000000000008152600401611a1391906128a7565b60405180910390fd5b505b50505050565b606060405180602001604052806000815250905090565b606060006001611a4a846122b1565b01905060008167ffffffffffffffff811115611a6957611a68612a77565b5b6040519080825280601f01601f191660200182016040528015611a9b5781602001600182028036833780820191505090505b509050600082602001820190505b600115611afe578080600190039150507f3031323334353637383961626364656600000000000000000000000000000000600a86061a8153600a8581611af257611af1612de4565b5b04945060008503611aa9575b819350505050919050565b60007f01ffc9a7000000000000000000000000000000000000000000000000000000007bffffffffffffffffffffffffffffffffffffffffffffffffffffffff1916827bffffffffffffffffffffffffffffffffffffffffffffffffffffffff1916149050919050565b60006002600083815260200190815260200160002060009054906101000a900473ffffffffffffffffffffffffffffffffffffffff169050919050565b8080611be95750600073ffffffffffffffffffffffffffffffffffffffff168273ffffffffffffffffffffffffffffffffffffffff1614155b15611d1d576000611bf98461133a565b9050600073ffffffffffffffffffffffffffffffffffffffff168373ffffffffffffffffffffffffffffffffffffffff1614158015611c6457508273ffffffffffffffffffffffffffffffffffffffff168173ffffffffffffffffffffffffffffffffffffffff1614155b8015611c775750611c758184611138565b155b15611cb957826040517fa9fbf51f000000000000000000000000000000000000000000000000000000008152600401611cb091906128a7565b60405180910390fd5b8115611d1b57838573ffffffffffffffffffffffffffffffffffffffff168273ffffffffffffffffffffffffffffffffffffffff167f8c5be1e5ebec7d5bd14f71427d1e84f3dd0314c0f7b2291e5b200ac8c7c3b92560405160405180910390a45b505b836004600085815260200190815260200160002060006101000a81548173ffffffffffffffffffffffffffffffffffffffff021916908373ffffffffffffffffffffffffffffffffffffffff16021790555050505050565b600080611d8184611b73565b9050600073ffffffffffffffffffffffffffffffffffffffff168373ffffffffffffffffffffffffffffffffffffffff1614611dc357611dc2818486612404565b5b600073ffffffffffffffffffffffffffffffffffffffff168173ffffffffffffffffffffffffffffffffffffffff1614611e5457611e05600085600080611bb0565b6001600360008373ffffffffffffffffffffffffffffffffffffffff1673ffffffffffffffffffffffffffffffffffffffff168152602001908152602001600020600082825403925050819055505b600073ffffffffffffffffffffffffffffffffffffffff168573ffffffffffffffffffffffffffffffffffffffff1614611ed7576001600360008773ffffffffffffffffffffffffffffffffffffffff1673ffffffffffffffffffffffffffffffffffffffff168152602001908152602001600020600082825401925050819055505b846002600086815260200190815260200160002060006101000a81548173ffffffffffffffffffffffffffffffffffffffff021916908373ffffffffffffffffffffffffffffffffffffffff160217905550838573ffffffffffffffffffffffffffffffffffffffff168273ffffffffffffffffffffffffffffffffffffffff167fddf252ad1be2c89b69c2b068fc378daa952ba7f163c4a11628f55a4df523b3ef60405160405180910390a4809150509392505050565b6008805490506009600083815260200190815260200160002081905550600881908060018154018082558091505060019003906000526020600020016000909190919091505550565b6000611fe3836109f6565b90506000600760008481526020019081526020016000205490508181146120c8576000600660008673ffffffffffffffffffffffffffffffffffffffff1673ffffffffffffffffffffffffffffffffffffffff168152602001908152602001600020600084815260200190815260200160002054905080600660008773ffffffffffffffffffffffffffffffffffffffff1673ffffffffffffffffffffffffffffffffffffffff168152602001908152602001600020600084815260200190815260200160002081905550816007600083815260200190815260200160002081905550505b6007600084815260200190815260200160002060009055600660008573ffffffffffffffffffffffffffffffffffffffff1673ffffffffffffffffffffffffffffffffffffffff16815260200190815260200160002060008381526020019081526020016000206000905550505050565b6000600160088054905061214d9190612fbb565b905060006009600084815260200190815260200160002054905060006008838154811061217d5761217c612cfc565b5b90600052602060002001549050806008838154811061219f5761219e612cfc565b5b9060005260206000200181905550816009600083815260200190815260200160002081905550600960008581526020019081526020016000206000905560088054806121ee576121ed612fef565b5b6001900381819060005260206000200160009055905550505050565b60006001612217846109f6565b6122219190612fbb565b905081600660008573ffffffffffffffffffffffffffffffffffffffff1673ffffffffffffffffffffffffffffffffffffffff168152602001908152602001600020600083815260200190815260200160002081905550806007600084815260200190815260200160002081905550505050565b61229f83836124c8565b6122ac600084848461186d565b505050565b600080600090507a184f03e93ff9f4daa797ed6e38ed64bf6a1f010000000000000000831061230f577a184f03e93ff9f4daa797ed6e38ed64bf6a1f010000000000000000838161230557612304612de4565b5b0492506040810190505b6d04ee2d6d415b85acef8100000000831061234c576d04ee2d6d415b85acef8100000000838161234257612341612de4565b5b0492506020810190505b662386f26fc10000831061237b57662386f26fc10000838161237157612370612de4565b5b0492506010810190505b6305f5e10083106123a4576305f5e100838161239a57612399612de4565b5b0492506008810190505b61271083106123c95761271083816123bf576123be612de4565b5b0492506004810190505b606483106123ec57606483816123e2576123e1612de4565b5b0492506002810190505b600a83106123fb576001810190505b80915050919050565b61240f8383836125c1565b6124c357600073ffffffffffffffffffffffffffffffffffffffff168373ffffffffffffffffffffffffffffffffffffffff160361248457806040517f7e27328900000000000000000000000000000000000000000000000000000000815260040161247b919061293d565b60405180910390fd5b81816040517f177e802f0000000000000000000000000000000000000000000000000000000081526004016124ba929190612a44565b60405180910390fd5b505050565b600073ffffffffffffffffffffffffffffffffffffffff168273ffffffffffffffffffffffffffffffffffffffff160361253a5760006040517f64a0ae9200000000000000000000000000000000000000000000000000000000815260040161253191906128a7565b60405180910390fd5b600061254883836000611419565b9050600073ffffffffffffffffffffffffffffffffffffffff168173ffffffffffffffffffffffffffffffffffffffff16146125bc5760006040517f73c6ac6e0000000000000000000000000000000000000000000000000000000081526004016125b391906128a7565b60405180910390fd5b505050565b60008073ffffffffffffffffffffffffffffffffffffffff168373ffffffffffffffffffffffffffffffffffffffff161415801561267957508273ffffffffffffffffffffffffffffffffffffffff168473ffffffffffffffffffffffffffffffffffffffff16148061263a57506126398484611138565b5b8061267857508273ffffffffffffffffffffffffffffffffffffffff16612660836113c2565b73ffffffffffffffffffffffffffffffffffffffff16145b5b90509392505050565b6000604051905090565b600080fd5b600080fd5b60007fffffffff0000000000000000000000000000000000000000000000000000000082169050919050565b6126cb81612696565b81146126d657600080fd5b50565b6000813590506126e8816126c2565b92915050565b6000602082840312156127045761270361268c565b5b6000612712848285016126d9565b91505092915050565b60008115159050919050565b6127308161271b565b82525050565b600060208201905061274b6000830184612727565b92915050565b600081519050919050565b600082825260208201905092915050565b60005b8381101561278b578082015181840152602081019050612770565b60008484015250505050565b6000601f19601f8301169050919050565b60006127b382612751565b6127bd818561275c565b93506127cd81856020860161276d565b6127d681612797565b840191505092915050565b600060208201905081810360008301526127fb81846127a8565b905092915050565b6000819050919050565b61281681612803565b811461282157600080fd5b50565b6000813590506128338161280d565b92915050565b60006020828403121561284f5761284e61268c565b5b600061285d84828501612824565b91505092915050565b600073ffffffffffffffffffffffffffffffffffffffff82169050919050565b600061289182612866565b9050919050565b6128a181612886565b82525050565b60006020820190506128bc6000830184612898565b92915050565b6128cb81612886565b81146128d657600080fd5b50565b6000813590506128e8816128c2565b92915050565b600080604083850312156129055761290461268c565b5b6000612913858286016128d9565b925050602061292485828601612824565b9150509250929050565b61293781612803565b82525050565b6000602082019050612952600083018461292e565b92915050565b6000806000606084860312156129715761297061268c565b5b600061297f868287016128d9565b9350506020612990868287016128d9565b92505060406129a186828701612824565b9150509250925092565b6000602082840312156129c1576129c061268c565b5b60006129cf848285016128d9565b91505092915050565b6129e18161271b565b81146129ec57600080fd5b50565b6000813590506129fe816129d8565b92915050565b60008060408385031215612a1b57612a1a61268c565b5b6000612a29858286016128d9565b9250506020612a3a858286016129ef565b9150509250929050565b6000604082019050612a596000830185612898565b612a66602083018461292e565b9392505050565b600080fd5b600080fd5b7f4e487b7100000000000000000000000000000000000000000000000000000000600052604160045260246000fd5b612aaf82612797565b810181811067ffffffffffffffff82111715612ace57612acd612a77565b5b80604052505050565b6000612ae1612682565b9050612aed8282612aa6565b919050565b600067ffffffffffffffff821115612b0d57612b0c612a77565b5b612b1682612797565b9050602081019050919050565b82818337600083830152505050565b6000612b45612b4084612af2565b612ad7565b905082815260208101848484011115612b6157612b60612a72565b5b612b6c848285612b23565b509392505050565b600082601f830112612b8957612b88612a6d565b5b8135612b99848260208601612b32565b91505092915050565b60008060008060808587031215612bbc57612bbb61268c565b5b6000612bca878288016128d9565b9450506020612bdb878288016128d9565b9350506040612bec87828801612824565b925050606085013567ffffffffffffffff811115612c0d57612c0c612691565b5b612c1987828801612b74565b91505092959194509250565b60008060408385031215612c3c57612c3b61268c565b5b6000612c4a858286016128d9565b9250506020612c5b858286016128d9565b9150509250929050565b7f4e487b7100000000000000000000000000000000000000000000000000000000600052602260045260246000fd5b60006002820490506001821680612cac57607f821691505b602082108103612cbf57612cbe612c65565b5b50919050565b6000606082019050612cda6000830186612898565b612ce7602083018561292e565b612cf46040830184612898565b949350505050565b7f4e487b7100000000000000000000000000000000000000000000000000000000600052603260045260246000fd5b7f4e487b7100000000000000000000000000000000000000000000000000000000600052601160045260246000fd5b6000612d6582612803565b91507fffffffffffffffffffffffffffffffffffffffffffffffffffffffffffffffff8203612d9757612d96612d2b565b5b600182019050919050565b6000612dad82612803565b9150612db883612803565b9250828202612dc681612803565b91508282048414831517612ddd57612ddc612d2b565b5b5092915050565b7f4e487b7100000000000000000000000000000000000000000000000000000000600052601260045260246000fd5b6000612e1e82612803565b9150612e2983612803565b925082612e3957612e38612de4565b5b828204905092915050565b600081905092915050565b6000612e5a82612751565b612e648185612e44565b9350612e7481856020860161276d565b80840191505092915050565b6000612e8c8285612e4f565b9150612e988284612e4f565b91508190509392505050565b6000612eaf82612803565b9150612eba83612803565b9250828201905080821115612ed257612ed1612d2b565b5b92915050565b600081519050919050565b600082825260208201905092915050565b6000612eff82612ed8565b612f098185612ee3565b9350612f1981856020860161276d565b612f2281612797565b840191505092915050565b6000608082019050612f426000830187612898565b612f4f6020830186612898565b612f5c604083018561292e565b8181036060830152612f6e8184612ef4565b905095945050505050565b600081519050612f88816126c2565b92915050565b600060208284031215612fa457612fa361268c565b5b6000612fb284828501612f79565b91505092915050565b6000612fc682612803565b9150612fd183612803565b9250828203905081811115612fe957612fe8612d2b565b5b92915050565b7f4e487b7100000000000000000000000000000000000000000000000000000000600052603160045260246000fdfea2646970667358221220ffc29e478f27fe61b0f80d60fad4d7828cc9892e66dbc91ad8b645d25d24f1e064736f6c63430008140033",
  "linkReferences": {},
  "deployedLinkReferences": {}
}