{
  "_format": "hh-sol-artifact-1",
  "contractName": "GenesisNode",
  "sourceName": "contracts/GenesisNode.sol",
  "abi": [
    {
      "inputs": [
        {
          "internalType": "address",
          "name": "_daoTreasury",
          "type": "address"
        }
      ],
      "stateMutability": "nonpayable",
      "type": "constructor"
    },
    {
      "inputs": [],
      "name": "ERC721EnumerableForbiddenBatchMint",
      "type": "error"
    },
    {
      "inputs": [
        {
          "internalType": "address",
          "name": "sender",
          "type": "address"
        },
        {
          "internalType": "uint256",
          "name": "tokenId",
          "type": "uint256"
        },
        {
          "internalType": "address",
          "name": "owner",
          "type": "address"
        }
      ],
      "name": "ERC721IncorrectOwner",
      "type": "error"
    },
    {
      "inputs": [
        {
          "internalType": "address",
          "name": "operator",
          "type": "address"
        },
        {
          "internalType": "uint256",
          "name": "tokenId",
          "type": "uint256"
        }
      ],
      "name": "ERC721InsufficientApproval",
      "type": "error"
    },
    {
      "inputs": [
        {
          "internalType": "address",
          "name": "approver",
          "type": "address"
        }
      ],
      "name": "ERC721InvalidApprover",
      "type": "error"
    },
    {
      "inputs": [
        {
          "internalType": "address",
          "name": "operator",
          "type": "address"
        }
      ],
      "name": "ERC721InvalidOperator",
      "type": "error"
    },
    {
      "inputs": [
        {
          "internalType": "address",
          "name": "owner",
          "type": "address"
        }
      ],
      "name": "ERC721InvalidOwner",
      "type": "error"
    },
    {
      "inputs": [
        {
          "internalType": "address",
          "name": "receiver",
          "type": "address"
        }
      ],
      "name": "ERC721InvalidReceiver",
      "type": "error"
    },
    {
      "inputs": [
        {
          "internalType": "address",
          "name": "sender",
          "type": "address"
        }
      ],
      "name": "ERC721InvalidSender",
      "type": "error"
    },
    {
      "inputs": [
        {
          "internalType": "uint256",
          "name": "tokenId",
          "type": "uint256"
        }
      ],
      "name": "ERC721NonexistentToken",
      "type": "error"
    },
    {
      "inputs": [
        {
          "internalType": "address",
          "name": "owner",
          "type": "address"
        },
        {
          "internalType": "uint256",
          "name": "index",
          "type": "uint256"
        }
      ],
      "name": "ERC721OutOfBoundsIndex",
      "type": "error"
    },
    {
      "inputs": [
        {
          "internalType": "address",
          "name": "owner",
          "type": "address"
        }
      ],
      "name": "OwnableInvalidOwner",
      "type": "error"
    },
    {
      "inputs": [
        {
          "internalType": "address",
          "name": "account",
          "type": "address"
        }
      ],
      "name": "OwnableUnauthorizedAccount",
      "type": "error"
    },
    {
      "anonymous": false,
      "inputs": [
        {
          "indexed": true,
          "internalType": "address",
          "name": "owner",
          "type": "address"
        },
        {
          "indexed": true,
          "internalType": "address",
          "name": "approved",
          "type": "address"
        },
        {
          "indexed": true,
          "internalType": "uint256",
          "name": "tokenId",
          "type": "uint256"
        }
      ],
      "name": "Approval",
      "type": "event"
    },
    {
      "anonymous": false,
      "inputs": [
        {
          "indexed": true,
          "internalType": "address",
          "name": "owner",
          "type": "address"
        },
        {
          "indexed": true,
          "internalType": "address",
          "name": "operator",
          "type": "address"
        },
        {
          "indexed": false,
          "internalType": "bool",
          "name": "approved",
          "type": "bool"
        }
      ],
      "name": "ApprovalForAll",
      "type": "event"
    },
    {
      "anonymous": false,
      "inputs": [
        {
          "indexed": true,
          "internalType": "address",
          "name": "previousOwner",
          "type": "address"
        },
        {
          "indexed": true,
          "internalType": "address",
          "name": "newOwner",
          "type": "address"
        }
      ],
      "name": "OwnershipTransferred",
      "type": "event"
    },
    {
      "anonymous": false,
      "inputs": [
        {
          "indexed": true,
          "internalType": "address",
          "name": "from",
          "type": "address"
        },
        {
          "indexed": true,
          "internalType": "address",
          "name": "to",
          "type": "address"
        },
        {
          "indexed": true,
          "internalType": "uint256",
          "name": "tokenId",
          "type": "uint256"
        }
      ],
      "name": "Transfer",
      "type": "event"
    },
    {
      "inputs": [],
      "name": "DAO_TREASURY",
      "outputs": [
        {
          "internalType": "address",
          "name": "",
          "type": "address"
        }
      ],
      "stateMutability": "view",
      "type": "function"
    },
    {
      "inputs": [],
      "name": "EQUAL_LEVEL_BONUS",
      "outputs": [
        {
          "internalType": "uint256",
          "name": "",
          "type": "uint256"
        }
      ],
      "stateMutability": "view",
      "type": "function"
    },
    {
      "inputs": [],
      "name": "INFINITE_RATE",
      "outputs": [
        {
          "internalType": "uint256",
          "name": "",
          "type": "uint256"
        }
      ],
      "stateMutability": "view",
      "type": "function"
    },
    {
      "inputs": [],
      "name": "L1_RATE",
      "outputs": [
        {
          "internalType": "uint256",
          "name": "",
          "type": "uint256"
        }
      ],
      "stateMutability": "view",
      "type": "function"
    },
    {
      "inputs": [],
      "name": "L2_RATE",
      "outputs": [
        {
          "internalType": "uint256",
          "name": "",
          "type": "uint256"
        }
      ],
      "stateMutability": "view",
      "type": "function"
    },
    {
      "inputs": [],
      "name": "MAX_DEPTH",
      "outputs": [
        {
          "internalType": "uint256",
          "name": "",
          "type": "uint256"
        }
      ],
      "stateMutability": "view",
      "type": "function"
    },
    {
      "inputs": [
        {
          "internalType": "address",
          "name": "to",
          "type": "address"
        },
        {
          "internalType": "uint256",
          "name": "tokenId",
          "type": "uint256"
        }
      ],
      "name": "approve",
      "outputs": [],
      "stateMutability": "nonpayable",
      "type": "function"
    },
    {
      "inputs": [
        {
          "internalType": "address",
          "name": "owner",
          "type": "address"
        }
      ],
      "name": "balanceOf",
      "outputs": [
        {
          "internalType": "uint256",
          "name": "",
          "type": "uint256"
        }
      ],
      "stateMutability": "view",
      "type": "function"
    },
    {
      "inputs": [
        {
          "internalType": "address",
          "name": "minter",
          "type": "address"
        },
        {
          "internalType": "uint256",
          "name": "mintAmount",
          "type": "uint256"
        }
      ],
      "name": "distributeRewards",
      "outputs": [],
      "stateMutability": "nonpayable",
      "type": "function"
    },
    {
      "inputs": [
        {
          "internalType": "uint256",
          "name": "tokenId",
          "type": "uint256"
        }
      ],
      "name": "getApproved",
      "outputs": [
        {
          "internalType": "address",
          "name": "",
          "type": "address"
        }
      ],
      "stateMutability": "view",
      "type": "function"
    },
    {
      "inputs": [
        {
          "internalType": "address",
          "name": "user",
          "type": "address"
        }
      ],
      "name": "getSelfBoost",
      "outputs": [
        {
          "internalType": "uint256",
          "name": "",
          "type": "uint256"
        }
      ],
      "stateMutability": "view",
      "type": "function"
    },
    {
      "inputs": [
        {
          "internalType": "address",
          "name": "owner",
          "type": "address"
        },
        {
          "internalType": "address",
          "name": "operator",
          "type": "address"
        }
      ],
      "name": "isApprovedForAll",
      "outputs": [
        {
          "internalType": "bool",
          "name": "",
          "type": "bool"
        }
      ],
      "stateMutability": "view",
      "type": "function"
    },
    {
      "inputs": [
        {
          "internalType": "address",
          "name": "to",
          "type": "address"
        }
      ],
      "name": "mint",
      "outputs": [],
      "stateMutability": "nonpayable",
      "type": "function"
    },
    {
      "inputs": [],
      "name": "name",
      "outputs": [
        {
          "internalType": "string",
          "name": "",
          "type": "string"
        }
      ],
      "stateMutability": "view",
      "type": "function"
    },
    {
      "inputs": [],
      "name": "owner",
      "outputs": [
        {
          "internalType": "address",
          "name": "",
          "type": "address"
        }
      ],
      "stateMutability": "view",
      "type": "function"
    },
    {
      "inputs": [
        {
          "internalType": "uint256",
          "name": "tokenId",
          "type": "uint256"
        }
      ],
      "name": "ownerOf",
      "outputs": [
        {
          "internalType": "address",
          "name": "",
          "type": "address"
        }
      ],
      "stateMutability": "view",
      "type": "function"
    },
    {
      "inputs": [],
      "name": "renounceOwnership",
      "outputs": [],
      "stateMutability": "nonpayable",
      "type": "function"
    },
    {
      "inputs": [
        {
          "internalType": "address",
          "name": "from",
          "type": "address"
        },
        {
          "internalType": "address",
          "name": "to",
          "type": "address"
        },
        {
          "internalType": "uint256",
          "name": "tokenId",
          "type": "uint256"
        }
      ],
      "name": "safeTransferFrom",
      "outputs": [],
      "stateMutability": "nonpayable",
      "type": "function"
    },
    {
      "inputs": [
        {
          "internalType": "address",
          "name": "from",
          "type": "address"
        },
        {
          "internalType": "address",
          "name": "to",
          "type": "address"
        },
        {
          "internalType": "uint256",
          "name": "tokenId",
          "type": "uint256"
        },
        {
          "internalType": "bytes",
          "name": "data",
          "type": "bytes"
        }
      ],
      "name": "safeTransferFrom",
      "outputs": [],
      "stateMutability": "nonpayable",
      "type": "function"
    },
    {
      "inputs": [
        {
          "internalType": "address",
          "name": "operator",
          "type": "address"
        },
        {
          "internalType": "bool",
          "name": "approved",
          "type": "bool"
        }
      ],
      "name": "setApprovalForAll",
      "outputs": [],
      "stateMutability": "nonpayable",
      "type": "function"
    },
    {
      "inputs": [
        {
          "internalType": "address",
          "name": "user",
          "type": "address"
        },
        {
          "internalType": "address",
          "name": "referrer",
          "type": "address"
        }
      ],
      "name": "setReferrer",
      "outputs": [],
      "stateMutability": "nonpayable",
      "type": "function"
    },
    {
      "inputs": [
        {
          "internalType": "bytes4",
          "name": "interfaceId",
          "type": "bytes4"
        }
      ],
      "name": "supportsInterface",
      "outputs": [
        {
          "internalType": "bool",
          "name": "",
          "type": "bool"
        }
      ],
      "stateMutability": "view",
      "type": "function"
    },
    {
      "inputs": [],
      "name": "symbol",
      "outputs": [
        {
          "internalType": "string",
          "name": "",
          "type": "string"
        }
      ],
      "stateMutability": "view",
      "type": "function"
    },
    {
      "inputs": [
        {
          "internalType": "uint256",
          "name": "index",
          "type": "uint256"
        }
      ],
      "name": "tokenByIndex",
      "outputs": [
        {
          "internalType": "uint256",
          "name": "",
          "type": "uint256"
        }
      ],
      "stateMutability": "view",
      "type": "function"
    },
    {
      "inputs": [
        {
          "internalType": "address",
          "name": "owner",
          "type": "address"
        },
        {
          "internalType": "uint256",
          "name": "index",
          "type": "uint256"
        }
      ],
      "name": "tokenOfOwnerByIndex",
      "outputs": [
        {
          "internalType": "uint256",
          "name": "",
          "type": "uint256"
        }
      ],
      "stateMutability": "view",
      "type": "function"
    },
    {
      "inputs": [
        {
          "internalType": "uint256",
          "name": "tokenId",
          "type": "uint256"
        }
      ],
      "name": "tokenURI",
      "outputs": [
        {
          "internalType": "string",
          "name": "",
          "type": "string"
        }
      ],
      "stateMutability": "view",
      "type": "function"
    },
    {
      "inputs": [],
      "name": "totalSupply",
      "outputs": [
        {
          "internalType": "uint256",
          "name": "",
          "type": "uint256"
        }
      ],
      "stateMutability": "view",
      "type": "function"
    },
    {
      "inputs": [
        {
          "internalType": "address",
          "name": "from",
          "type": "address"
        },
        {
          "internalType": "address",
          "name": "to",
          "type": "address"
        },
        {
          "internalType": "uint256",
          "name": "tokenId",
          "type": "uint256"
        }
      ],
      "name": "transferFrom",
      "outputs": [],
      "stateMutability": "nonpayable",
      "type": "function"
    },
    {
      "inputs": [
        {
          "internalType": "address",
          "name": "newOwner",
          "type": "address"
        }
      ],
      "name": "transferOwnership",
      "outputs": [],
      "stateMutability": "nonpayable",
      "type": "function"
    },
    {
      "inputs": [
        {
          "internalType": "address",
          "name": "",
          "type": "address"
        }
      ],
      "name": "users",
      "outputs": [
        {
          "internalType": "address",
          "name": "referrer",
          "type": "address"
        },
        {
          "internalType": "uint256",
          "name": "totalRewards",
          "type": "uint256"
        }
      ],
      "stateMutability": "view",
      "type": "function"
    }
  ],
  "bytecode": "0x60a06040523480156200001157600080fd5b50604051620037f1380380620037f183398181016040528101906200003791906200032e565b336040518060400160405280601081526020017f4976792047656e65736973204e6f6465000000000000000000000000000000008152506040518060400160405280600881526020017f4956592d4e4f44450000000000000000000000000000000000000000000000008152508160009081620000b59190620005da565b508060019081620000c79190620005da565b505050600073ffffffffffffffffffffffffffffffffffffffff168173ffffffffffffffffffffffffffffffffffffffff16036200013f5760006040517f1e4fbdf7000000000000000000000000000000000000000000000000000000008152600401620001369190620006d2565b60405180910390fd5b6200015081620001fe60201b60201c565b50600073ffffffffffffffffffffffffffffffffffffffff168173ffffffffffffffffffffffffffffffffffffffff1603620001c3576040517f08c379a0000000000000000000000000000000000000000000000000000000008152600401620001ba9062000750565b60405180910390fd5b8073ffffffffffffffffffffffffffffffffffffffff1660808173ffffffffffffffffffffffffffffffffffffffff16815250505062000772565b6000600a60009054906101000a900473ffffffffffffffffffffffffffffffffffffffff16905081600a60006101000a81548173ffffffffffffffffffffffffffffffffffffffff021916908373ffffffffffffffffffffffffffffffffffffffff1602179055508173ffffffffffffffffffffffffffffffffffffffff168173ffffffffffffffffffffffffffffffffffffffff167f8be0079c531659141344cd1fd0a4f28419497f9722a3daafe3b4186f6b6457e060405160405180910390a35050565b600080fd5b600073ffffffffffffffffffffffffffffffffffffffff82169050919050565b6000620002f682620002c9565b9050919050565b6200030881620002e9565b81146200031457600080fd5b50565b6000815190506200032881620002fd565b92915050565b600060208284031215620003475762000346620002c4565b5b6000620003578482850162000317565b91505092915050565b600081519050919050565b7f4e487b7100000000000000000000000000000000000000000000000000000000600052604160045260246000fd5b7f4e487b7100000000000000000000000000000000000000000000000000000000600052602260045260246000fd5b60006002820490506001821680620003e257607f821691505b602082108103620003f857620003f76200039a565b5b50919050565b60008190508160005260206000209050919050565b60006020601f8301049050919050565b600082821b905092915050565b600060088302620004627fffffffffffffffffffffffffffffffffffffffffffffffffffffffffffffffff8262000423565b6200046e868362000423565b95508019841693508086168417925050509392505050565b6000819050919050565b6000819050919050565b6000620004bb620004b5620004af8462000486565b62000490565b62000486565b9050919050565b6000819050919050565b620004d7836200049a565b620004ef620004e682620004c2565b84845462000430565b825550505050565b600090565b62000506620004f7565b62000513818484620004cc565b505050565b5b818110156200053b576200052f600082620004fc565b60018101905062000519565b5050565b601f8211156200058a576200055481620003fe565b6200055f8462000413565b810160208510156200056f578190505b620005876200057e8562000413565b83018262000518565b50505b505050565b600082821c905092915050565b6000620005af600019846008026200058f565b1980831691505092915050565b6000620005ca83836200059c565b9150826002028217905092915050565b620005e58262000360565b67ffffffffffffffff8111156200060157620006006200036b565b5b6200060d8254620003c9565b6200061a8282856200053f565b600060209050601f8311600181146200065257600084156200063d578287015190505b620006498582620005bc565b865550620006b9565b601f1984166200066286620003fe565b60005b828110156200068c5784890151825560018201915060208501945060208101905062000665565b86831015620006ac5784890151620006a8601f8916826200059c565b8355505b6001600288020188555050505b505050505050565b620006cc81620002e9565b82525050565b6000602082019050620006e96000830184620006c1565b92915050565b600082825260208201905092915050565b7f496e76616c696420547265617375727900000000000000000000000000000000600082015250565b600062000738601083620006ef565b9150620007458262000700565b602082019050919050565b600060208201905081810360008301526200076b8162000729565b9050919050565b60805161305c6200079560003960008181610b8a0152610f9a015261305c6000f3fe608060405234801561001057600080fd5b50600436106101da5760003560e01c8063715018a611610104578063a87430ba116100a2578063da6510b411610071578063da6510b41461056a578063e985e9c514610588578063f2fde38b146105b8578063f706555b146105d4576101da565b8063a87430ba146104d1578063b88d4fde14610502578063bbddaca31461051e578063c87b56dd1461053a576101da565b80639dc78ee6116100de5780639dc78ee61461045d578063a22cb4651461047b578063a27154ba14610497578063a8031a1d146104b5576101da565b8063715018a6146104175780638da5cb5b1461042157806395d89b411461043f576101da565b80632f745c591161017c5780635ff871c81161014b5780635ff871c81461037d5780636352211e1461039b5780636a627842146103cb57806370a08231146103e7576101da565b80632f745c59146102d15780633633f3c01461030157806342842e0e146103315780634f6ccce71461034d576101da565b8063095ea7b3116101b8578063095ea7b31461025d57806318160ddd1461027957806323b872dd14610297578063277c19b0146102b3576101da565b806301ffc9a7146101df57806306fdde031461020f578063081812fc1461022d575b600080fd5b6101f960048036038101906101f491906126f6565b6105f2565b604051610206919061273e565b60405180910390f35b61021761066c565b60405161022491906127e9565b60405180910390f35b61024760048036038101906102429190612841565b6106fe565b60405161025491906128af565b60405180910390f35b610277600480360381019061027291906128f6565b61071a565b005b610281610730565b60405161028e9190612945565b60405180910390f35b6102b160048036038101906102ac9190612960565b61073d565b005b6102bb61083f565b6040516102c89190612945565b60405180910390f35b6102eb60048036038101906102e691906128f6565b610844565b6040516102f89190612945565b60405180910390f35b61031b600480360381019061031691906129b3565b6108ed565b6040516103289190612945565b60405180910390f35b61034b60048036038101906103469190612960565b610920565b005b61036760048036038101906103629190612841565b610940565b6040516103749190612945565b60405180910390f35b6103856109b6565b6040516103929190612945565b60405180910390f35b6103b560048036038101906103b09190612841565b6109bb565b6040516103c291906128af565b60405180910390f35b6103e560048036038101906103e091906129b3565b6109cd565b005b61040160048036038101906103fc91906129b3565b6109fe565b60405161040e9190612945565b60405180910390f35b61041f610ab8565b005b610429610acc565b60405161043691906128af565b60405180910390f35b610447610af6565b60405161045491906127e9565b60405180910390f35b610465610b88565b60405161047291906128af565b60405180910390f35b61049560048036038101906104909190612a0c565b610bac565b005b61049f610bc2565b6040516104ac9190612945565b60405180910390f35b6104cf60048036038101906104ca91906128f6565b610bc7565b005b6104eb60048036038101906104e691906129b3565b610fe3565b6040516104f9929190612a4c565b60405180910390f35b61051c60048036038101906105179190612baa565b611027565b005b61053860048036038101906105339190612c2d565b611044565b005b610554600480360381019061054f9190612841565b6110d1565b60405161056191906127e9565b60405180910390f35b61057261113a565b60405161057f9190612945565b60405180910390f35b6105a2600480360381019061059d9190612c2d565b611140565b6040516105af919061273e565b60405180910390f35b6105d260048036038101906105cd91906129b3565b6111d4565b005b6105dc61125a565b6040516105e99190612945565b60405180910390f35b60007f780e9d63000000000000000000000000000000000000000000000000000000007bffffffffffffffffffffffffffffffffffffffffffffffffffffffff1916827bffffffffffffffffffffffffffffffffffffffffffffffffffffffff19161480610665575061066482611260565b5b9050919050565b60606000805461067b90612c9c565b80601f01602080910402602001604051908101604052809291908181526020018280546106a790612c9c565b80156106f45780601f106106c9576101008083540402835291602001916106f4565b820191906000526020600020905b8154815290600101906020018083116106d757829003601f168201915b5050505050905090565b600061070982611342565b50610713826113ca565b9050919050565b61072c8282610727611407565b61140f565b5050565b6000600880549050905090565b600073ffffffffffffffffffffffffffffffffffffffff168273ffffffffffffffffffffffffffffffffffffffff16036107af5760006040517f64a0ae920000000000000000000000000000000000000000000000000000000081526004016107a691906128af565b60405180910390fd5b60006107c383836107be611407565b611421565b90508373ffffffffffffffffffffffffffffffffffffffff168173ffffffffffffffffffffffffffffffffffffffff1614610839578382826040517f64283d7b00000000000000000000000000000000000000000000000000000000815260040161083093929190612ccd565b60405180910390fd5b50505050565b60c881565b600061084f836109fe565b82106108945782826040517fa57d13dc00000000000000000000000000000000000000000000000000000000815260040161088b929190612a4c565b60405180910390fd5b600660008473ffffffffffffffffffffffffffffffffffffffff1673ffffffffffffffffffffffffffffffffffffffff168152602001908152602001600020600083815260200190815260200160002054905092915050565b6000806108f9836109fe565b1161090557600061090f565b67016345785d8a00005b67ffffffffffffffff169050919050565b61093b83838360405180602001604052806000815250611027565b505050565b600061094a610730565b8210610990576000826040517fa57d13dc000000000000000000000000000000000000000000000000000000008152600401610987929190612a4c565b60405180910390fd5b600882815481106109a4576109a3612d04565b5b90600052602060002001549050919050565b603281565b60006109c682611342565b9050919050565b6109d561153e565b6000600c60008154809291906109ea90612d62565b9190505590506109fa82826115c5565b5050565b60008073ffffffffffffffffffffffffffffffffffffffff168273ffffffffffffffffffffffffffffffffffffffff1603610a715760006040517f89c62b64000000000000000000000000000000000000000000000000000000008152600401610a6891906128af565b60405180910390fd5b600360008373ffffffffffffffffffffffffffffffffffffffff1673ffffffffffffffffffffffffffffffffffffffff168152602001908152602001600020549050919050565b610ac061153e565b610aca60006115e3565b565b6000600a60009054906101000a900473ffffffffffffffffffffffffffffffffffffffff16905090565b606060018054610b0590612c9c565b80601f0160208091040260200160405190810160405280929190818152602001828054610b3190612c9c565b8015610b7e5780601f10610b5357610100808354040283529160200191610b7e565b820191906000526020600020905b815481529060010190602001808311610b6157829003601f168201915b5050505050905090565b7f000000000000000000000000000000000000000000000000000000000000000081565b610bbe610bb7611407565b83836116a9565b5050565b601481565b6000600b60008473ffffffffffffffffffffffffffffffffffffffff1673ffffffffffffffffffffffffffffffffffffffff16815260200190815260200160002060000160009054906101000a900473ffffffffffffffffffffffffffffffffffffffff169050600073ffffffffffffffffffffffffffffffffffffffff168173ffffffffffffffffffffffffffffffffffffffff1603610c685750610fdf565b610c8c816127106103e885610c7d9190612daa565b610c879190612e1b565b611818565b6000600b60008373ffffffffffffffffffffffffffffffffffffffff1673ffffffffffffffffffffffffffffffffffffffff16815260200190815260200160002060000160009054906101000a900473ffffffffffffffffffffffffffffffffffffffff169050600073ffffffffffffffffffffffffffffffffffffffff168173ffffffffffffffffffffffffffffffffffffffff1603610d2e575050610fdf565b610d52816127106101f486610d439190612daa565b610d4d9190612e1b565b611818565b6000600b60008373ffffffffffffffffffffffffffffffffffffffff1673ffffffffffffffffffffffffffffffffffffffff16815260200190815260200160002060000160009054906101000a900473ffffffffffffffffffffffffffffffffffffffff1690506000805b600073ffffffffffffffffffffffffffffffffffffffff168373ffffffffffffffffffffffffffffffffffffffff1614158015610df8575081155b8015610e045750601481105b15610f90576000610e14846109fe565b1115610f1857610e3d8361271060c889610e2e9190612daa565b610e389190612e1b565b611818565b600191506000600b60008573ffffffffffffffffffffffffffffffffffffffff1673ffffffffffffffffffffffffffffffffffffffff16815260200190815260200160002060000160009054906101000a900473ffffffffffffffffffffffffffffffffffffffff169050600073ffffffffffffffffffffffffffffffffffffffff168173ffffffffffffffffffffffffffffffffffffffff1614158015610eed57506000610eeb826109fe565b115b15610f1657610f158161271060328a610f069190612daa565b610f109190612e1b565b611818565b5b505b600b60008473ffffffffffffffffffffffffffffffffffffffff1673ffffffffffffffffffffffffffffffffffffffff16815260200190815260200160002060000160009054906101000a900473ffffffffffffffffffffffffffffffffffffffff1692508080610f8890612d62565b915050610dbd565b81610fd957610fd87f000000000000000000000000000000000000000000000000000000000000000061271060c889610fc99190612daa565b610fd39190612e1b565b611818565b5b50505050505b5050565b600b6020528060005260406000206000915090508060000160009054906101000a900473ffffffffffffffffffffffffffffffffffffffff16908060010154905082565b61103284848461073d565b61103e84848484611875565b50505050565b61104c61153e565b80600b60008473ffffffffffffffffffffffffffffffffffffffff1673ffffffffffffffffffffffffffffffffffffffff16815260200190815260200160002060000160006101000a81548173ffffffffffffffffffffffffffffffffffffffff021916908373ffffffffffffffffffffffffffffffffffffffff1602179055505050565b60606110dc82611342565b5060006110e7611a2c565b905060008151116111075760405180602001604052806000815250611132565b8061111184611a43565b604051602001611122929190612e88565b6040516020818303038152906040525b915050919050565b6101f481565b6000600560008473ffffffffffffffffffffffffffffffffffffffff1673ffffffffffffffffffffffffffffffffffffffff16815260200190815260200160002060008373ffffffffffffffffffffffffffffffffffffffff1673ffffffffffffffffffffffffffffffffffffffff16815260200190815260200160002060009054906101000a900460ff16905092915050565b6111dc61153e565b600073ffffffffffffffffffffffffffffffffffffffff168173ffffffffffffffffffffffffffffffffffffffff160361124e5760006040517f1e4fbdf700000000000000000000000000000000000000000000000000000000815260040161124591906128af565b60405180910390fd5b611257816115e3565b50565b6103e881565b60007f80ac58cd000000000000000000000000000000000000000000000000000000007bffffffffffffffffffffffffffffffffffffffffffffffffffffffff1916827bffffffffffffffffffffffffffffffffffffffffffffffffffffffff1916148061132b57507f5b5e139f000000000000000000000000000000000000000000000000000000007bffffffffffffffffffffffffffffffffffffffffffffffffffffffff1916827bffffffffffffffffffffffffffffffffffffffffffffffffffffffff1916145b8061133b575061133a82611b11565b5b9050919050565b60008061134e83611b7b565b9050600073ffffffffffffffffffffffffffffffffffffffff168173ffffffffffffffffffffffffffffffffffffffff16036113c157826040517f7e2732890000000000000000000000000000000000000000000000000000000081526004016113b89190612945565b60405180910390fd5b80915050919050565b60006004600083815260200190815260200160002060009054906101000a900473ffffffffffffffffffffffffffffffffffffffff169050919050565b600033905090565b61141c8383836001611bb8565b505050565b60008061142f858585611d7d565b9050600073ffffffffffffffffffffffffffffffffffffffff168173ffffffffffffffffffffffffffffffffffffffff16036114735761146e84611f97565b6114b2565b8473ffffffffffffffffffffffffffffffffffffffff168173ffffffffffffffffffffffffffffffffffffffff16146114b1576114b08185611fe0565b5b5b600073ffffffffffffffffffffffffffffffffffffffff168573ffffffffffffffffffffffffffffffffffffffff16036114f4576114ef84612141565b611533565b8473ffffffffffffffffffffffffffffffffffffffff168173ffffffffffffffffffffffffffffffffffffffff1614611532576115318585612212565b5b5b809150509392505050565b611546611407565b73ffffffffffffffffffffffffffffffffffffffff16611564610acc565b73ffffffffffffffffffffffffffffffffffffffff16146115c357611587611407565b6040517f118cdaa70000000000000000000000000000000000000000000000000000000081526004016115ba91906128af565b60405180910390fd5b565b6115df82826040518060200160405280600081525061229d565b5050565b6000600a60009054906101000a900473ffffffffffffffffffffffffffffffffffffffff16905081600a60006101000a81548173ffffffffffffffffffffffffffffffffffffffff021916908373ffffffffffffffffffffffffffffffffffffffff1602179055508173ffffffffffffffffffffffffffffffffffffffff168173ffffffffffffffffffffffffffffffffffffffff167f8be0079c531659141344cd1fd0a4f28419497f9722a3daafe3b4186f6b6457e060405160405180910390a35050565b600073ffffffffffffffffffffffffffffffffffffffff168273ffffffffffffffffffffffffffffffffffffffff160361171a57816040517f5b08ba1800000000000000000000000000000000000000000000000000000000815260040161171191906128af565b60405180910390fd5b80600560008573ffffffffffffffffffffffffffffffffffffffff1673ffffffffffffffffffffffffffffffffffffffff16815260200190815260200160002060008473ffffffffffffffffffffffffffffffffffffffff1673ffffffffffffffffffffffffffffffffffffffff16815260200190815260200160002060006101000a81548160ff0219169083151502179055508173ffffffffffffffffffffffffffffffffffffffff168373ffffffffffffffffffffffffffffffffffffffff167f17307eab39ab6107e8899845ad3d59bd9653f200f220920489ca2b5937696c318360405161180b919061273e565b60405180910390a3505050565b80600b60008473ffffffffffffffffffffffffffffffffffffffff1673ffffffffffffffffffffffffffffffffffffffff168152602001908152602001600020600101600082825461186a9190612eac565b925050819055505050565b60008373ffffffffffffffffffffffffffffffffffffffff163b1115611a26578273ffffffffffffffffffffffffffffffffffffffff1663150b7a026118b9611407565b8685856040518563ffffffff1660e01b81526004016118db9493929190612f35565b6020604051808303816000875af192505050801561191757506040513d601f19601f820116820180604052508101906119149190612f96565b60015b61199b573d8060008114611947576040519150601f19603f3d011682016040523d82523d6000602084013e61194c565b606091505b50600081510361199357836040517f64a0ae9200000000000000000000000000000000000000000000000000000000815260040161198a91906128af565b60405180910390fd5b805181602001fd5b63150b7a0260e01b7bffffffffffffffffffffffffffffffffffffffffffffffffffffffff1916817bffffffffffffffffffffffffffffffffffffffffffffffffffffffff191614611a2457836040517f64a0ae92000000000000000000000000000000000000000000000000000000008152600401611a1b91906128af565b60405180910390fd5b505b50505050565b606060405180602001604052806000815250905090565b606060006001611a52846122b9565b01905060008167ffffffffffffffff811115611a7157611a70612a7f565b5b6040519080825280601f01601f191660200182016040528015611aa35781602001600182028036833780820191505090505b509050600082602001820190505b600115611b06578080600190039150507f3031323334353637383961626364656600000000000000000000000000000000600a86061a8153600a8581611afa57611af9612dec565b5b04945060008503611ab1575b819350505050919050565b60007f01ffc9a7000000000000000000000000000000000000000000000000000000007bffffffffffffffffffffffffffffffffffffffffffffffffffffffff1916827bffffffffffffffffffffffffffffffffffffffffffffffffffffffff1916149050919050565b60006002600083815260200190815260200160002060009054906101000a900473ffffffffffffffffffffffffffffffffffffffff169050919050565b8080611bf15750600073ffffffffffffffffffffffffffffffffffffffff168273ffffffffffffffffffffffffffffffffffffffff1614155b15611d25576000611c0184611342565b9050600073ffffffffffffffffffffffffffffffffffffffff168373ffffffffffffffffffffffffffffffffffffffff1614158015611c6c57508273ffffffffffffffffffffffffffffffffffffffff168173ffffffffffffffffffffffffffffffffffffffff1614155b8015611c7f5750611c7d8184611140565b155b15611cc157826040517fa9fbf51f000000000000000000000000000000000000000000000000000000008152600401611cb891906128af565b60405180910390fd5b8115611d2357838573ffffffffffffffffffffffffffffffffffffffff168273ffffffffffffffffffffffffffffffffffffffff167f8c5be1e5ebec7d5bd14f71427d1e84f3dd0314c0f7b2291e5b200ac8c7c3b92560405160405180910390a45b505b836004600085815260200190815260200160002060006101000a81548173ffffffffffffffffffffffffffffffffffffffff021916908373ffffffffffffffffffffffffffffffffffffffff16021790555050505050565b600080611d8984611b7b565b9050600073ffffffffffffffffffffffffffffffffffffffff168373ffffffffffffffffffffffffffffffffffffffff1614611dcb57611dca81848661240c565b5b600073ffffffffffffffffffffffffffffffffffffffff168173ffffffffffffffffffffffffffffffffffffffff1614611e5c57611e0d600085600080611bb8565b6001600360008373ffffffffffffffffffffffffffffffffffffffff1673ffffffffffffffffffffffffffffffffffffffff168152602001908152602001600020600082825403925050819055505b600073ffffffffffffffffffffffffffffffffffffffff168573ffffffffffffffffffffffffffffffffffffffff1614611edf576001600360008773ffffffffffffffffffffffffffffffffffffffff1673ffffffffffffffffffffffffffffffffffffffff168152602001908152602001600020600082825401925050819055505b846002600086815260200190815260200160002060006101000a81548173ffffffffffffffffffffffffffffffffffffffff021916908373ffffffffffffffffffffffffffffffffffffffff160217905550838573ffffffffffffffffffffffffffffffffffffffff168273ffffffffffffffffffffffffffffffffffffffff167fddf252ad1be2c89b69c2b068fc378daa952ba7f163c4a11628f55a4df523b3ef60405160405180910390a4809150509392505050565b6008805490506009600083815260200190815260200160002081905550600881908060018154018082558091505060019003906000526020600020016000909190919091505550565b6000611feb836109fe565b90506000600760008481526020019081526020016000205490508181146120d0576000600660008673ffffffffffffffffffffffffffffffffffffffff1673ffffffffffffffffffffffffffffffffffffffff168152602001908152602001600020600084815260200190815260200160002054905080600660008773ffffffffffffffffffffffffffffffffffffffff1673ffffffffffffffffffffffffffffffffffffffff168152602001908152602001600020600084815260200190815260200160002081905550816007600083815260200190815260200160002081905550505b6007600084815260200190815260200160002060009055600660008573ffffffffffffffffffffffffffffffffffffffff1673ffffffffffffffffffffffffffffffffffffffff16815260200190815260200160002060008381526020019081526020016000206000905550505050565b600060016008805490506121559190612fc3565b905060006009600084815260200190815260200160002054905060006008838154811061218557612184612d04565b5b9060005260206000200154905080600883815481106121a7576121a6612d04565b5b9060005260206000200181905550816009600083815260200190815260200160002081905550600960008581526020019081526020016000206000905560088054806121f6576121f5612ff7565b5b6001900381819060005260206000200160009055905550505050565b6000600161221f846109fe565b6122299190612fc3565b905081600660008573ffffffffffffffffffffffffffffffffffffffff1673ffffffffffffffffffffffffffffffffffffffff168152602001908152602001600020600083815260200190815260200160002081905550806007600084815260200190815260200160002081905550505050565b6122a783836124d0565b6122b46000848484611875565b505050565b600080600090507a184f03e93ff9f4daa797ed6e38ed64bf6a1f0100000000000000008310612317577a184f03e93ff9f4daa797ed6e38ed64bf6a1f010000000000000000838161230d5761230c612dec565b5b0492506040810190505b6d04ee2d6d415b85acef81000000008310612354576d04ee2d6d415b85acef8100000000838161234a57612349612dec565b5b0492506020810190505b662386f26fc10000831061238357662386f26fc10000838161237957612378612dec565b5b0492506010810190505b6305f5e10083106123ac576305f5e10083816123a2576123a1612dec565b5b0492506008810190505b61271083106123d15761271083816123c7576123c6612dec565b5b0492506004810190505b606483106123f457606483816123ea576123e9612dec565b5b0492506002810190505b600a8310612403576001810190505b80915050919050565b6124178383836125c9565b6124cb57600073ffffffffffffffffffffffffffffffffffffffff168373ffffffffffffffffffffffffffffffffffffffff160361248c57806040517f7e2732890000000000000000000000000000000000000000000000000000000081526004016124839190612945565b60405180910390fd5b81816040517f177e802f0000000000000000000000000000000000000000000000000000000081526004016124c2929190612a4c565b60405180910390fd5b505050565b600073ffffffffffffffffffffffffffffffffffffffff168273ffffffffffffffffffffffffffffffffffffffff16036125425760006040517f64a0ae9200000000000000000000000000000000000000000000000000000000815260040161253991906128af565b60405180910390fd5b600061255083836000611421565b9050600073ffffffffffffffffffffffffffffffffffffffff168173ffffffffffffffffffffffffffffffffffffffff16146125c45760006040517f73c6ac6e0000000000000000000000000000000000000000000000000000000081526004016125bb91906128af565b60405180910390fd5b505050565b60008073ffffffffffffffffffffffffffffffffffffffff168373ffffffffffffffffffffffffffffffffffffffff161415801561268157508273ffffffffffffffffffffffffffffffffffffffff168473ffffffffffffffffffffffffffffffffffffffff16148061264257506126418484611140565b5b8061268057508273ffffffffffffffffffffffffffffffffffffffff16612668836113ca565b73ffffffffffffffffffffffffffffffffffffffff16145b5b90509392505050565b6000604051905090565b600080fd5b600080fd5b60007fffffffff0000000000000000000000000000000000000000000000000000000082169050919050565b6126d38161269e565b81146126de57600080fd5b50565b6000813590506126f0816126ca565b92915050565b60006020828403121561270c5761270b612694565b5b600061271a848285016126e1565b91505092915050565b60008115159050919050565b61273881612723565b82525050565b6000602082019050612753600083018461272f565b92915050565b600081519050919050565b600082825260208201905092915050565b60005b83811015612793578082015181840152602081019050612778565b60008484015250505050565b6000601f19601f8301169050919050565b60006127bb82612759565b6127c58185612764565b93506127d5818560208601612775565b6127de8161279f565b840191505092915050565b6000602082019050818103600083015261280381846127b0565b905092915050565b6000819050919050565b61281e8161280b565b811461282957600080fd5b50565b60008135905061283b81612815565b92915050565b60006020828403121561285757612856612694565b5b60006128658482850161282c565b91505092915050565b600073ffffffffffffffffffffffffffffffffffffffff82169050919050565b60006128998261286e565b9050919050565b6128a98161288e565b82525050565b60006020820190506128c460008301846128a0565b92915050565b6128d38161288e565b81146128de57600080fd5b50565b6000813590506128f0816128ca565b92915050565b6000806040838503121561290d5761290c612694565b5b600061291b858286016128e1565b925050602061292c8582860161282c565b9150509250929050565b61293f8161280b565b82525050565b600060208201905061295a6000830184612936565b92915050565b60008060006060848603121561297957612978612694565b5b6000612987868287016128e1565b9350506020612998868287016128e1565b92505060406129a98682870161282c565b9150509250925092565b6000602082840312156129c9576129c8612694565b5b60006129d7848285016128e1565b91505092915050565b6129e981612723565b81146129f457600080fd5b50565b600081359050612a06816129e0565b92915050565b60008060408385031215612a2357612a22612694565b5b6000612a31858286016128e1565b9250506020612a42858286016129f7565b9150509250929050565b6000604082019050612a6160008301856128a0565b612a6e6020830184612936565b9392505050565b600080fd5b600080fd5b7f4e487b7100000000000000000000000000000000000000000000000000000000600052604160045260246000fd5b612ab78261279f565b810181811067ffffffffffffffff82111715612ad657612ad5612a7f565b5b80604052505050565b6000612ae961268a565b9050612af58282612aae565b919050565b600067ffffffffffffffff821115612b1557612b14612a7f565b5b612b1e8261279f565b9050602081019050919050565b82818337600083830152505050565b6000612b4d612b4884612afa565b612adf565b905082815260208101848484011115612b6957612b68612a7a565b5b612b74848285612b2b565b509392505050565b600082601f830112612b9157612b90612a75565b5b8135612ba1848260208601612b3a565b91505092915050565b60008060008060808587031215612bc457612bc3612694565b5b6000612bd2878288016128e1565b9450506020612be3878288016128e1565b9350506040612bf48782880161282c565b925050606085013567ffffffffffffffff811115612c1557612c14612699565b5b612c2187828801612b7c565b91505092959194509250565b60008060408385031215612c4457612c43612694565b5b6000612c52858286016128e1565b9250506020612c63858286016128e1565b9150509250929050565b7f4e487b7100000000000000000000000000000000000000000000000000000000600052602260045260246000fd5b60006002820490506001821680612cb457607f821691505b602082108103612cc757612cc6612c6d565b5b50919050565b6000606082019050612ce260008301866128a0565b612cef6020830185612936565b612cfc60408301846128a0565b949350505050565b7f4e487b7100000000000000000000000000000000000000000000000000000000600052603260045260246000fd5b7f4e487b7100000000000000000000000000000000000000000000000000000000600052601160045260246000fd5b6000612d6d8261280b565b91507fffffffffffffffffffffffffffffffffffffffffffffffffffffffffffffffff8203612d9f57612d9e612d33565b5b600182019050919050565b6000612db58261280b565b9150612dc08361280b565b9250828202612dce8161280b565b91508282048414831517612de557612de4612d33565b5b5092915050565b7f4e487b7100000000000000000000000000000000000000000000000000000000600052601260045260246000fd5b6000612e268261280b565b9150612e318361280b565b925082612e4157612e40612dec565b5b828204905092915050565b600081905092915050565b6000612e6282612759565b612e6c8185612e4c565b9350612e7c818560208601612775565b80840191505092915050565b6000612e948285612e57565b9150612ea08284612e57565b91508190509392505050565b6000612eb78261280b565b9150612ec28361280b565b9250828201905080821115612eda57612ed9612d33565b5b92915050565b600081519050919050565b600082825260208201905092915050565b6000612f0782612ee0565b612f118185612eeb565b9350612f21818560208601612775565b612f2a8161279f565b840191505092915050565b6000608082019050612f4a60008301876128a0565b612f5760208301866128a0565b612f646040830185612936565b8181036060830152612f768184612efc565b905095945050505050565b600081519050612f90816126ca565b92915050565b600060208284031215612fac57612fab612694565b5b6000612fba84828501612f81565b91505092915050565b6000612fce8261280b565b9150612fd98361280b565b9250828203905081811115612ff157612ff0612d33565b5b92915050565b7f4e487b7100000000000000000000000000000000000000000000000000000000600052603160045260246000fdfea2646970667358221220b3db1fe7fe0507d23e97e833c978e557bbba78b3050ba4d4b3ac8bfa519c407164736f6c63430008140033",
  "linkReferences": {},
  "deployedLinkReferences": {}
}