{
  "_format": "hh-sol-artifact-1",
  "contractName": "IvyToken",
  "sourceName": "contracts/IvyToken.sol",
  "abi": [
    {
      "inputs": [
        {
          "internalType": "address",
          "name": "_operationsWallet",
          "type": "address"
        }
      ],
      "stateMutability": "nonpayable",
      "type": "constructor"
    },
    {
      "inputs": [
        {
          "internalType": "address",
          "name": "spender",
          "type": "address"
        },
        {
          "internalType": "uint256",
          "name": "allowance",
          "type": "uint256"
        },
        {
          "internalType": "uint256",
          "name": "needed",
          "type": "uint256"
        }
      ],
      "name": "ERC20InsufficientAllowance",
      "type": "error"
    },
    {
      "inputs": [
        {
          "internalType": "address",
          "name": "sender",
          "type": "address"
        },
        {
          "internalType": "uint256",
          "name": "balance",
          "type": "uint256"
        },
        {
          "internalType": "uint256",
          "name": "needed",
          "type": "uint256"
        }
      ],
      "name": "ERC20InsufficientBalance",
      "type": "error"
    },
    {
      "inputs": [
        {
          "internalType": "address",
          "name": "approver",
          "type": "address"
        }
      ],
      "name": "ERC20InvalidApprover",
      "type": "error"
    },
    {
      "inputs": [
        {
          "internalType": "address",
          "name": "receiver",
          "type": "address"
        }
      ],
      "name": "ERC20InvalidReceiver",
      "type": "error"
    },
    {
      "inputs": [
        {
          "internalType": "address",
          "name": "sender",
          "type": "address"
        }
      ],
      "name": "ERC20InvalidSender",
      "type": "error"
    },
    {
      "inputs": [
        {
          "internalType": "address",
          "name": "spender",
          "type": "address"
        }
      ],
      "name": "ERC20InvalidSpender",
      "type": "error"
    },
    {
      "inputs": [
        {
          "internalType": "address",
          "name": "owner",
          "type": "address"
        }
      ],
      "name": "OwnableInvalidOwner",
      "type": "error"
    },
    {
      "inputs": [
        {
          "internalType": "address",
          "name": "account",
          "type": "address"
        }
      ],
      "name": "OwnableUnauthorizedAccount",
      "type": "error"
    },
    {
      "anonymous": false,
      "inputs": [
        {
          "indexed": true,
          "internalType": "address",
          "name": "owner",
          "type": "address"
        },
        {
          "indexed": true,
          "internalType": "address",
          "name": "spender",
          "type": "address"
        },
        {
          "indexed": false,
          "internalType": "uint256",
          "name": "value",
          "type": "uint256"
        }
      ],
      "name": "Approval",
      "type": "event"
    },
    {
      "anonymous": false,
      "inputs": [
        {
          "indexed": true,
          "internalType": "address",
          "name": "account",
          "type": "address"
        },
        {
          "indexed": false,
          "internalType": "bool",
          "name": "excluded",
          "type": "bool"
        }
      ],
      "name": "ExcludedFromTax",
      "type": "event"
    },
    {
      "anonymous": false,
      "inputs": [
        {
          "indexed": true,
          "internalType": "address",
          "name": "oldMinter",
          "type": "address"
        },
        {
          "indexed": true,
          "internalType": "address",
          "name": "newMinter",
          "type": "address"
        }
      ],
      "name": "MinterUpdated",
      "type": "event"
    },
    {
      "anonymous": false,
      "inputs": [
        {
          "indexed": true,
          "internalType": "address",
          "name": "oldWallet",
          "type": "address"
        },
        {
          "indexed": true,
          "internalType": "address",
          "name": "newWallet",
          "type": "address"
        }
      ],
      "name": "OperationsWalletUpdated",
      "type": "event"
    },
    {
      "anonymous": false,
      "inputs": [
        {
          "indexed": true,
          "internalType": "address",
          "name": "previousOwner",
          "type": "address"
        },
        {
          "indexed": true,
          "internalType": "address",
          "name": "newOwner",
          "type": "address"
        }
      ],
      "name": "OwnershipTransferred",
      "type": "event"
    },
    {
      "anonymous": false,
      "inputs": [
        {
          "indexed": true,
          "internalType": "address",
          "name": "from",
          "type": "address"
        },
        {
          "indexed": true,
          "internalType": "address",
          "name": "to",
          "type": "address"
        },
        {
          "indexed": false,
          "internalType": "uint256",
          "name": "burnAmount",
          "type": "uint256"
        },
        {
          "indexed": false,
          "internalType": "uint256",
          "name": "opsAmount",
          "type": "uint256"
        }
      ],
      "name": "TaxCollected",
      "type": "event"
    },
    {
      "anonymous": false,
      "inputs": [
        {
          "indexed": true,
          "internalType": "address",
          "name": "from",
          "type": "address"
        },
        {
          "indexed": true,
          "internalType": "address",
          "name": "to",
          "type": "address"
        },
        {
          "indexed": false,
          "internalType": "uint256",
          "name": "value",
          "type": "uint256"
        }
      ],
      "name": "Transfer",
      "type": "event"
    },
    {
      "inputs": [],
      "name": "BASIS_POINTS",
      "outputs": [
        {
          "internalType": "uint256",
          "name": "",
          "type": "uint256"
        }
      ],
      "stateMutability": "view",
      "type": "function"
    },
    {
      "inputs": [],
      "name": "BURN_RATE",
      "outputs": [
        {
          "internalType": "uint256",
          "name": "",
          "type": "uint256"
        }
      ],
      "stateMutability": "view",
      "type": "function"
    },
    {
      "inputs": [],
      "name": "DEAD_ADDRESS",
      "outputs": [
        {
          "internalType": "address",
          "name": "",
          "type": "address"
        }
      ],
      "stateMutability": "view",
      "type": "function"
    },
    {
      "inputs": [],
      "name": "GOLDEN_PIVOT",
      "outputs": [
        {
          "internalType": "uint256",
          "name": "",
          "type": "uint256"
        }
      ],
      "stateMutability": "view",
      "type": "function"
    },
    {
      "inputs": [],
      "name": "MINING_ALLOCATION",
      "outputs": [
        {
          "internalType": "uint256",
          "name": "",
          "type": "uint256"
        }
      ],
      "stateMutability": "view",
      "type": "function"
    },
    {
      "inputs": [],
      "name": "OPS_RATE",
      "outputs": [
        {
          "internalType": "uint256",
          "name": "",
          "type": "uint256"
        }
      ],
      "stateMutability": "view",
      "type": "function"
    },
    {
      "inputs": [],
      "name": "PRE_MINT_AMOUNT",
      "outputs": [
        {
          "internalType": "uint256",
          "name": "",
          "type": "uint256"
        }
      ],
      "stateMutability": "view",
      "type": "function"
    },
    {
      "inputs": [],
      "name": "TAX_RATE",
      "outputs": [
        {
          "internalType": "uint256",
          "name": "",
          "type": "uint256"
        }
      ],
      "stateMutability": "view",
      "type": "function"
    },
    {
      "inputs": [],
      "name": "TOTAL_SUPPLY_CAP",
      "outputs": [
        {
          "internalType": "uint256",
          "name": "",
          "type": "uint256"
        }
      ],
      "stateMutability": "view",
      "type": "function"
    },
    {
      "inputs": [
        {
          "internalType": "address",
          "name": "owner",
          "type": "address"
        },
        {
          "internalType": "address",
          "name": "spender",
          "type": "address"
        }
      ],
      "name": "allowance",
      "outputs": [
        {
          "internalType": "uint256",
          "name": "",
          "type": "uint256"
        }
      ],
      "stateMutability": "view",
      "type": "function"
    },
    {
      "inputs": [
        {
          "internalType": "address",
          "name": "spender",
          "type": "address"
        },
        {
          "internalType": "uint256",
          "name": "value",
          "type": "uint256"
        }
      ],
      "name": "approve",
      "outputs": [
        {
          "internalType": "bool",
          "name": "",
          "type": "bool"
        }
      ],
      "stateMutability": "nonpayable",
      "type": "function"
    },
    {
      "inputs": [
        {
          "internalType": "address",
          "name": "account",
          "type": "address"
        }
      ],
      "name": "balanceOf",
      "outputs": [
        {
          "internalType": "uint256",
          "name": "",
          "type": "uint256"
        }
      ],
      "stateMutability": "view",
      "type": "function"
    },
    {
      "inputs": [
        {
          "internalType": "address[]",
          "name": "accounts",
          "type": "address[]"
        },
        {
          "internalType": "bool",
          "name": "excluded",
          "type": "bool"
        }
      ],
      "name": "batchSetExcludedFromTax",
      "outputs": [],
      "stateMutability": "nonpayable",
      "type": "function"
    },
    {
      "inputs": [
        {
          "internalType": "uint256",
          "name": "amount",
          "type": "uint256"
        }
      ],
      "name": "burn",
      "outputs": [],
      "stateMutability": "nonpayable",
      "type": "function"
    },
    {
      "inputs": [
        {
          "internalType": "address",
          "name": "account",
          "type": "address"
        },
        {
          "internalType": "uint256",
          "name": "amount",
          "type": "uint256"
        }
      ],
      "name": "burnFrom",
      "outputs": [],
      "stateMutability": "nonpayable",
      "type": "function"
    },
    {
      "inputs": [
        {
          "internalType": "uint256",
          "name": "amount",
          "type": "uint256"
        }
      ],
      "name": "calculateTax",
      "outputs": [
        {
          "internalType": "uint256",
          "name": "burnAmount",
          "type": "uint256"
        },
        {
          "internalType": "uint256",
          "name": "opsAmount",
          "type": "uint256"
        },
        {
          "internalType": "uint256",
          "name": "netAmount",
          "type": "uint256"
        }
      ],
      "stateMutability": "pure",
      "type": "function"
    },
    {
      "inputs": [
        {
          "internalType": "address",
          "name": "account",
          "type": "address"
        }
      ],
      "name": "checkExcluded",
      "outputs": [
        {
          "internalType": "bool",
          "name": "",
          "type": "bool"
        }
      ],
      "stateMutability": "view",
      "type": "function"
    },
    {
      "inputs": [],
      "name": "decimals",
      "outputs": [
        {
          "internalType": "uint8",
          "name": "",
          "type": "uint8"
        }
      ],
      "stateMutability": "view",
      "type": "function"
    },
    {
      "inputs": [
        {
          "internalType": "address",
          "name": "daoWallet",
          "type": "address"
        },
        {
          "internalType": "address",
          "name": "airdropWallet",
          "type": "address"
        },
        {
          "internalType": "address",
          "name": "liquidityWallet",
          "type": "address"
        }
      ],
      "name": "distributePreMint",
      "outputs": [],
      "stateMutability": "nonpayable",
      "type": "function"
    },
    {
      "inputs": [],
      "name": "getTaxStats",
      "outputs": [
        {
          "internalType": "uint256",
          "name": "_totalBurned",
          "type": "uint256"
        },
        {
          "internalType": "uint256",
          "name": "_totalOpsCollected",
          "type": "uint256"
        },
        {
          "internalType": "uint256",
          "name": "_taxRate",
          "type": "uint256"
        },
        {
          "internalType": "address",
          "name": "_operationsWallet",
          "type": "address"
        }
      ],
      "stateMutability": "view",
      "type": "function"
    },
    {
      "inputs": [
        {
          "internalType": "address",
          "name": "",
          "type": "address"
        }
      ],
      "name": "isExcludedFromTax",
      "outputs": [
        {
          "internalType": "bool",
          "name": "",
          "type": "bool"
        }
      ],
      "stateMutability": "view",
      "type": "function"
    },
    {
      "inputs": [
        {
          "internalType": "address",
          "name": "to",
          "type": "address"
        },
        {
          "internalType": "uint256",
          "name": "amount",
          "type": "uint256"
        }
      ],
      "name": "mint",
      "outputs": [],
      "stateMutability": "nonpayable",
      "type": "function"
    },
    {
      "inputs": [],
      "name": "minter",
      "outputs": [
        {
          "internalType": "address",
          "name": "",
          "type": "address"
        }
      ],
      "stateMutability": "view",
      "type": "function"
    },
    {
      "inputs": [],
      "name": "name",
      "outputs": [
        {
          "internalType": "string",
          "name": "",
          "type": "string"
        }
      ],
      "stateMutability": "view",
      "type": "function"
    },
    {
      "inputs": [],
      "name": "operationsWallet",
      "outputs": [
        {
          "internalType": "address",
          "name": "",
          "type": "address"
        }
      ],
      "stateMutability": "view",
      "type": "function"
    },
    {
      "inputs": [],
      "name": "owner",
      "outputs": [
        {
          "internalType": "address",
          "name": "",
          "type": "address"
        }
      ],
      "stateMutability": "view",
      "type": "function"
    },
    {
      "inputs": [],
      "name": "preMintDistributed",
      "outputs": [
        {
          "internalType": "bool",
          "name": "",
          "type": "bool"
        }
      ],
      "stateMutability": "view",
      "type": "function"
    },
    {
      "inputs": [],
      "name": "renounceOwnership",
      "outputs": [],
      "stateMutability": "nonpayable",
      "type": "function"
    },
    {
      "inputs": [
        {
          "internalType": "address",
          "name": "account",
          "type": "address"
        },
        {
          "internalType": "bool",
          "name": "excluded",
          "type": "bool"
        }
      ],
      "name": "setExcludedFromTax",
      "outputs": [],
      "stateMutability": "nonpayable",
      "type": "function"
    },
    {
      "inputs": [
        {
          "internalType": "address",
          "name": "_minter",
          "type": "address"
        }
      ],
      "name": "setMinter",
      "outputs": [],
      "stateMutability": "nonpayable",
      "type": "function"
    },
    {
      "inputs": [
        {
          "internalType": "address",
          "name": "_wallet",
          "type": "address"
        }
      ],
      "name": "setOperationsWallet",
      "outputs": [],
      "stateMutability": "nonpayable",
      "type": "function"
    },
    {
      "inputs": [],
      "name": "symbol",
      "outputs": [
        {
          "internalType": "string",
          "name": "",
          "type": "string"
        }
      ],
      "stateMutability": "view",
      "type": "function"
    },
    {
      "inputs": [],
      "name": "totalBurned",
      "outputs": [
        {
          "internalType": "uint256",
          "name": "",
          "type": "uint256"
        }
      ],
      "stateMutability": "view",
      "type": "function"
    },
    {
      "inputs": [],
      "name": "totalOpsCollected",
      "outputs": [
        {
          "internalType": "uint256",
          "name": "",
          "type": "uint256"
        }
      ],
      "stateMutability": "view",
      "type": "function"
    },
    {
      "inputs": [],
      "name": "totalSupply",
      "outputs": [
        {
          "internalType": "uint256",
          "name": "",
          "type": "uint256"
        }
      ],
      "stateMutability": "view",
      "type": "function"
    },
    {
      "inputs": [
        {
          "internalType": "address",
          "name": "to",
          "type": "address"
        },
        {
          "internalType": "uint256",
          "name": "value",
          "type": "uint256"
        }
      ],
      "name": "transfer",
      "outputs": [
        {
          "internalType": "bool",
          "name": "",
          "type": "bool"
        }
      ],
      "stateMutability": "nonpayable",
      "type": "function"
    },
    {
      "inputs": [
        {
          "internalType": "address",
          "name": "from",
          "type": "address"
        },
        {
          "internalType": "address",
          "name": "to",
          "type": "address"
        },
        {
          "internalType": "uint256",
          "name": "value",
          "type": "uint256"
        }
      ],
      "name": "transferFrom",
      "outputs": [
        {
          "internalType": "bool",
          "name": "",
          "type": "bool"
        }
      ],
      "stateMutability": "nonpayable",
      "type": "function"
    },
    {
      "inputs": [
        {
          "internalType": "address",
          "name": "newOwner",
          "type": "address"
        }
      ],
      "name": "transferOwnership",
      "outputs": [],
      "stateMutability": "nonpayable",
      "type": "function"
    }
  ],
  "bytecode": "0x60806040523480156200001157600080fd5b506040516200403e3803806200403e833981810160405281019062000037919062000ac8565b336040518060400160405280600c81526020017f4976792050726f746f636f6c00000000000000000000000000000000000000008152506040518060400160405280600381526020017f49565900000000000000000000000000000000000000000000000000000000008152508160039081620000b5919062000d74565b508060049081620000c7919062000d74565b505050600073ffffffffffffffffffffffffffffffffffffffff168173ffffffffffffffffffffffffffffffffffffffff16036200013f5760006040517f1e4fbdf700000000000000000000000000000000000000000000000000000000815260040162000136919062000e6c565b60405180910390fd5b62000150816200033260201b60201c565b50600073ffffffffffffffffffffffffffffffffffffffff168173ffffffffffffffffffffffffffffffffffffffff1603620001c3576040517f08c379a0000000000000000000000000000000000000000000000000000000008152600401620001ba9062000eea565b60405180910390fd5b80600760006101000a81548173ffffffffffffffffffffffffffffffffffffffff021916908373ffffffffffffffffffffffffffffffffffffffff1602179055506001600860003373ffffffffffffffffffffffffffffffffffffffff1673ffffffffffffffffffffffffffffffffffffffff16815260200190815260200160002060006101000a81548160ff02191690831515021790555060016008600061dead73ffffffffffffffffffffffffffffffffffffffff1673ffffffffffffffffffffffffffffffffffffffff16815260200190815260200160002060006101000a81548160ff0219169083151502179055506001600860008373ffffffffffffffffffffffffffffffffffffffff1673ffffffffffffffffffffffffffffffffffffffff16815260200190815260200160002060006101000a81548160ff0219169083151502179055506200032b816a18d0bf423c03d8de000000620003f860201b60201c565b50620010fb565b6000600560009054906101000a900473ffffffffffffffffffffffffffffffffffffffff16905081600560006101000a81548173ffffffffffffffffffffffffffffffffffffffff021916908373ffffffffffffffffffffffffffffffffffffffff1602179055508173ffffffffffffffffffffffffffffffffffffffff168173ffffffffffffffffffffffffffffffffffffffff167f8be0079c531659141344cd1fd0a4f28419497f9722a3daafe3b4186f6b6457e060405160405180910390a35050565b600073ffffffffffffffffffffffffffffffffffffffff168273ffffffffffffffffffffffffffffffffffffffff16036200046d5760006040517fec442f0500000000000000000000000000000000000000000000000000000000815260040162000464919062000e6c565b60405180910390fd5b62000481600083836200048560201b60201c565b5050565b600073ffffffffffffffffffffffffffffffffffffffff168373ffffffffffffffffffffffffffffffffffffffff161480620004ed5750600073ffffffffffffffffffffffffffffffffffffffff168273ffffffffffffffffffffffffffffffffffffffff16145b156200050c57620005068383836200082460201b60201c565b6200081f565b600860008473ffffffffffffffffffffffffffffffffffffffff1673ffffffffffffffffffffffffffffffffffffffff16815260200190815260200160002060009054906101000a900460ff1680620005ae5750600860008373ffffffffffffffffffffffffffffffffffffffff1673ffffffffffffffffffffffffffffffffffffffff16815260200190815260200160002060009054906101000a900460ff165b15620005cd57620005c78383836200082460201b60201c565b6200081f565b6000612710600a83620005e1919062000f3b565b620005ed919062000fb5565b90506000612710600a8462000603919062000f3b565b6200060f919062000fb5565b9050600081838562000622919062000fed565b6200062e919062000fed565b90506000831115620006e8576a115eec47f6cf7e350000006200065662000a5460201b60201c565b11620006b6576200069186600760009054906101000a900473ffffffffffffffffffffffffffffffffffffffff16856200082460201b60201c565b82600a6000828254620006a5919062001028565b9250508190555060009250620006e7565b620006cb8661dead856200082460201b60201c565b8260096000828254620006df919062001028565b925050819055505b5b600082118015620007485750600073ffffffffffffffffffffffffffffffffffffffff16600760009054906101000a900473ffffffffffffffffffffffffffffffffffffffff1673ffffffffffffffffffffffffffffffffffffffff1614155b156200079f576200078386600760009054906101000a900473ffffffffffffffffffffffffffffffffffffffff16846200082460201b60201c565b81600a600082825462000797919062001028565b925050819055505b620007b28686836200082460201b60201c565b8473ffffffffffffffffffffffffffffffffffffffff168673ffffffffffffffffffffffffffffffffffffffff167fddb30886d90db45adc1b2edcbabe12227896c25143cd155d3bf62ec8eff6785685856040516200081392919062001074565b60405180910390a35050505b505050565b600073ffffffffffffffffffffffffffffffffffffffff168373ffffffffffffffffffffffffffffffffffffffff16036200087a5780600260008282546200086d919062001028565b9250508190555062000950565b60008060008573ffffffffffffffffffffffffffffffffffffffff1673ffffffffffffffffffffffffffffffffffffffff1681526020019081526020016000205490508181101562000909578381836040517fe450d38c0000000000000000000000000000000000000000000000000000000081526004016200090093929190620010a1565b60405180910390fd5b8181036000808673ffffffffffffffffffffffffffffffffffffffff1673ffffffffffffffffffffffffffffffffffffffff16815260200190815260200160002081905550505b600073ffffffffffffffffffffffffffffffffffffffff168273ffffffffffffffffffffffffffffffffffffffff16036200099b5780600260008282540392505081905550620009e8565b806000808473ffffffffffffffffffffffffffffffffffffffff1673ffffffffffffffffffffffffffffffffffffffff168152602001908152602001600020600082825401925050819055505b8173ffffffffffffffffffffffffffffffffffffffff168373ffffffffffffffffffffffffffffffffffffffff167fddf252ad1be2c89b69c2b068fc378daa952ba7f163c4a11628f55a4df523b3ef8360405162000a479190620010de565b60405180910390a3505050565b6000600254905090565b600080fd5b600073ffffffffffffffffffffffffffffffffffffffff82169050919050565b600062000a908262000a63565b9050919050565b62000aa28162000a83565b811462000aae57600080fd5b50565b60008151905062000ac28162000a97565b92915050565b60006020828403121562000ae15762000ae062000a5e565b5b600062000af18482850162000ab1565b91505092915050565b600081519050919050565b7f4e487b7100000000000000000000000000000000000000000000000000000000600052604160045260246000fd5b7f4e487b7100000000000000000000000000000000000000000000000000000000600052602260045260246000fd5b6000600282049050600182168062000b7c57607f821691505b60208210810362000b925762000b9162000b34565b5b50919050565b60008190508160005260206000209050919050565b60006020601f8301049050919050565b600082821b905092915050565b60006008830262000bfc7fffffffffffffffffffffffffffffffffffffffffffffffffffffffffffffffff8262000bbd565b62000c08868362000bbd565b95508019841693508086168417925050509392505050565b6000819050919050565b6000819050919050565b600062000c5562000c4f62000c498462000c20565b62000c2a565b62000c20565b9050919050565b6000819050919050565b62000c718362000c34565b62000c8962000c808262000c5c565b84845462000bca565b825550505050565b600090565b62000ca062000c91565b62000cad81848462000c66565b505050565b5b8181101562000cd55762000cc960008262000c96565b60018101905062000cb3565b5050565b601f82111562000d245762000cee8162000b98565b62000cf98462000bad565b8101602085101562000d09578190505b62000d2162000d188562000bad565b83018262000cb2565b50505b505050565b600082821c905092915050565b600062000d496000198460080262000d29565b1980831691505092915050565b600062000d64838362000d36565b9150826002028217905092915050565b62000d7f8262000afa565b67ffffffffffffffff81111562000d9b5762000d9a62000b05565b5b62000da7825462000b63565b62000db482828562000cd9565b600060209050601f83116001811462000dec576000841562000dd7578287015190505b62000de3858262000d56565b86555062000e53565b601f19841662000dfc8662000b98565b60005b8281101562000e265784890151825560018201915060208501945060208101905062000dff565b8683101562000e46578489015162000e42601f89168262000d36565b8355505b6001600288020188555050505b505050505050565b62000e668162000a83565b82525050565b600060208201905062000e83600083018462000e5b565b92915050565b600082825260208201905092915050565b7f496e76616c6964206f7065726174696f6e732077616c6c657400000000000000600082015250565b600062000ed260198362000e89565b915062000edf8262000e9a565b602082019050919050565b6000602082019050818103600083015262000f058162000ec3565b9050919050565b7f4e487b7100000000000000000000000000000000000000000000000000000000600052601160045260246000fd5b600062000f488262000c20565b915062000f558362000c20565b925082820262000f658162000c20565b9150828204841483151762000f7f5762000f7e62000f0c565b5b5092915050565b7f4e487b7100000000000000000000000000000000000000000000000000000000600052601260045260246000fd5b600062000fc28262000c20565b915062000fcf8362000c20565b92508262000fe25762000fe162000f86565b5b828204905092915050565b600062000ffa8262000c20565b9150620010078362000c20565b925082820390508181111562001022576200102162000f0c565b5b92915050565b6000620010358262000c20565b9150620010428362000c20565b92508282019050808211156200105d576200105c62000f0c565b5b92915050565b6200106e8162000c20565b82525050565b60006040820190506200108b600083018562001063565b6200109a602083018462001063565b9392505050565b6000606082019050620010b8600083018662000e5b565b620010c7602083018562001063565b620010d6604083018462001063565b949350505050565b6000602082019050620010f5600083018462001063565b92915050565b612f33806200110b6000396000f3fe608060405234801561001057600080fd5b50600436106102325760003560e01c80637d8d376311610130578063cb4ca631116100b8578063f2fde38b1161007c578063f2fde38b14610688578063f846a885146106a4578063fca3b5aa146106c2578063fd72e22a146106de578063fec5d984146106fc57610232565b8063cb4ca631146105d0578063d89135cd14610600578063dd62ed3e1461061e578063e1f1c4a71461064e578063ee5ecc891461066c57610232565b8063a76d21f5116100ff578063a76d21f514610529578063a9059cbb14610547578063b4ad41cf14610577578063beaa628b14610598578063c2ed286b146105b457610232565b80637d8d3763146104b157806383f170be146104cf5780638da5cb5b146104ed57806395d89b411461050b57610232565b8063483a9310116101be578063715018a611610182578063715018a61461041f57806378b1833b1461042957806379cc6790146104475780637cb52737146104635780637d4862101461049357610232565b8063483a93101461036557806348931352146103975780634e6fd6c4146103b55780636a3adf3c146103d357806370a08231146103ef57610232565b806323b872dd1161020557806323b872dd146102c1578063313ce567146102f157806335a178b01461030f57806340c10f191461032d57806342966c681461034957610232565b806306fdde03146102375780630754617214610255578063095ea7b31461027357806318160ddd146102a3575b600080fd5b61023f61071a565b60405161024c9190612413565b60405180910390f35b61025d6107ac565b60405161026a9190612476565b60405180910390f35b61028d600480360381019061028891906124fd565b6107d2565b60405161029a9190612558565b60405180910390f35b6102ab6107f5565b6040516102b89190612582565b60405180910390f35b6102db60048036038101906102d6919061259d565b6107ff565b6040516102e89190612558565b60405180910390f35b6102f961082e565b604051610306919061260c565b60405180910390f35b610317610837565b6040516103249190612582565b60405180910390f35b610347600480360381019061034291906124fd565b610846565b005b610363600480360381019061035e9190612627565b610944565b005b61037f600480360381019061037a9190612627565b610951565b60405161038e93929190612654565b60405180910390f35b61039f6109ae565b6040516103ac9190612582565b60405180910390f35b6103bd6109bd565b6040516103ca9190612476565b60405180910390f35b6103ed60048036038101906103e8919061268b565b6109c3565b005b610409600480360381019061040491906126de565b610e37565b6040516104169190612582565b60405180910390f35b610427610e7f565b005b610431610e93565b60405161043e9190612582565b60405180910390f35b610461600480360381019061045c91906124fd565b610ea2565b005b61047d600480360381019061047891906126de565b610f40565b60405161048a9190612558565b60405180910390f35b61049b610f96565b6040516104a89190612582565b60405180910390f35b6104b9610f9c565b6040516104c69190612582565b60405180910390f35b6104d7610fa1565b6040516104e49190612582565b60405180910390f35b6104f5610fa6565b6040516105029190612476565b60405180910390f35b610513610fd0565b6040516105209190612413565b60405180910390f35b610531611062565b60405161053e9190612582565b60405180910390f35b610561600480360381019061055c91906124fd565b611071565b60405161056e9190612558565b60405180910390f35b61057f611094565b60405161058f949392919061270b565b60405180910390f35b6105b260048036038101906105ad91906127e1565b6110d3565b005b6105ce60048036038101906105c99190612841565b61128b565b005b6105ea60048036038101906105e591906126de565b6113ab565b6040516105f79190612558565b60405180910390f35b6106086113cb565b6040516106159190612582565b60405180910390f35b61063860048036038101906106339190612881565b6113d1565b6040516106459190612582565b60405180910390f35b610656611458565b6040516106639190612582565b60405180910390f35b610686600480360381019061068191906126de565b61145e565b005b6106a2600480360381019061069d91906126de565b6115f3565b005b6106ac611679565b6040516106b99190612582565b60405180910390f35b6106dc60048036038101906106d791906126de565b61167e565b005b6106e6611813565b6040516106f39190612476565b60405180910390f35b610704611839565b6040516107119190612558565b60405180910390f35b606060038054610729906128f0565b80601f0160208091040260200160405190810160405280929190818152602001828054610755906128f0565b80156107a25780601f10610777576101008083540402835291602001916107a2565b820191906000526020600020905b81548152906001019060200180831161078557829003601f168201915b5050505050905090565b600660009054906101000a900473ffffffffffffffffffffffffffffffffffffffff1681565b6000806107dd61184c565b90506107ea818585611854565b600191505092915050565b6000600254905090565b60008061080a61184c565b9050610817858285611866565b6108228585856118fa565b60019150509392505050565b60006012905090565b6a39e7139a8c08fa0600000081565b600660009054906101000a900473ffffffffffffffffffffffffffffffffffffffff1673ffffffffffffffffffffffffffffffffffffffff163373ffffffffffffffffffffffffffffffffffffffff16146108d6576040517f08c379a00000000000000000000000000000000000000000000000000000000081526004016108cd9061296d565b60405180910390fd5b6a52b7d2dcc80cd2e4000000816108eb6107f5565b6108f591906129bc565b1115610936576040517f08c379a000000000000000000000000000000000000000000000000000000000815260040161092d90612a3c565b60405180910390fd5b61094082826119ee565b5050565b61094e3382611a70565b50565b6000806000612710600a856109669190612a5c565b6109709190612acd565b9250612710600a856109829190612a5c565b61098c9190612acd565b915081838561099b9190612afe565b6109a59190612afe565b90509193909250565b6a52b7d2dcc80cd2e400000081565b61dead81565b6109cb611af2565b600b60009054906101000a900460ff1615610a1b576040517f08c379a0000000000000000000000000000000000000000000000000000000008152600401610a1290612b7e565b60405180910390fd5b600073ffffffffffffffffffffffffffffffffffffffff168373ffffffffffffffffffffffffffffffffffffffff1603610a8a576040517f08c379a0000000000000000000000000000000000000000000000000000000008152600401610a8190612bea565b60405180910390fd5b600073ffffffffffffffffffffffffffffffffffffffff168273ffffffffffffffffffffffffffffffffffffffff1603610af9576040517f08c379a0000000000000000000000000000000000000000000000000000000008152600401610af090612c56565b60405180910390fd5b600073ffffffffffffffffffffffffffffffffffffffff168173ffffffffffffffffffffffffffffffffffffffff1603610b68576040517f08c379a0000000000000000000000000000000000000000000000000000000008152600401610b5f90612cc2565b60405180910390fd5b6001600b60006101000a81548160ff02191690831515021790555060006a0c685fa11e01ec6f000000905060006a084595161401484a000000905060006a0422ca8b0a00a42500000090506001600860008873ffffffffffffffffffffffffffffffffffffffff1673ffffffffffffffffffffffffffffffffffffffff16815260200190815260200160002060006101000a81548160ff0219169083151502179055506001600860008773ffffffffffffffffffffffffffffffffffffffff1673ffffffffffffffffffffffffffffffffffffffff16815260200190815260200160002060006101000a81548160ff0219169083151502179055506001600860008673ffffffffffffffffffffffffffffffffffffffff1673ffffffffffffffffffffffffffffffffffffffff16815260200190815260200160002060006101000a81548160ff021916908315150217905550610ce8600760009054906101000a900473ffffffffffffffffffffffffffffffffffffffff1687856118fa565b610d15600760009054906101000a900473ffffffffffffffffffffffffffffffffffffffff1686846118fa565b610d42600760009054906101000a900473ffffffffffffffffffffffffffffffffffffffff1685836118fa565b8573ffffffffffffffffffffffffffffffffffffffff167fea5814d1cf99e5f6aee98da410ea4adcdbe5ded97855de3b25144b0898d0be4a6001604051610d899190612558565b60405180910390a28473ffffffffffffffffffffffffffffffffffffffff167fea5814d1cf99e5f6aee98da410ea4adcdbe5ded97855de3b25144b0898d0be4a6001604051610dd89190612558565b60405180910390a28373ffffffffffffffffffffffffffffffffffffffff167fea5814d1cf99e5f6aee98da410ea4adcdbe5ded97855de3b25144b0898d0be4a6001604051610e279190612558565b60405180910390a2505050505050565b60008060008373ffffffffffffffffffffffffffffffffffffffff1673ffffffffffffffffffffffffffffffffffffffff168152602001908152602001600020549050919050565b610e87611af2565b610e916000611b79565b565b6a115eec47f6cf7e3500000081565b600660009054906101000a900473ffffffffffffffffffffffffffffffffffffffff1673ffffffffffffffffffffffffffffffffffffffff163373ffffffffffffffffffffffffffffffffffffffff1614610f32576040517f08c379a0000000000000000000000000000000000000000000000000000000008152600401610f299061296d565b60405180910390fd5b610f3c8282611a70565b5050565b6000600860008373ffffffffffffffffffffffffffffffffffffffff1673ffffffffffffffffffffffffffffffffffffffff16815260200190815260200160002060009054906101000a900460ff169050919050565b600a5481565b600a81565b601481565b6000600560009054906101000a900473ffffffffffffffffffffffffffffffffffffffff16905090565b606060048054610fdf906128f0565b80601f016020809104026020016040519081016040528092919081815260200182805461100b906128f0565b80156110585780601f1061102d57610100808354040283529160200191611058565b820191906000526020600020905b81548152906001019060200180831161103b57829003601f168201915b5050505050905090565b6a18d0bf423c03d8de00000081565b60008061107c61184c565b90506110898185856118fa565b600191505092915050565b6000806000806009549350600a54925060149150600760009054906101000a900473ffffffffffffffffffffffffffffffffffffffff16905090919293565b6110db611af2565b60005b8383905081101561128557600073ffffffffffffffffffffffffffffffffffffffff1684848381811061111457611113612ce2565b5b905060200201602081019061112991906126de565b73ffffffffffffffffffffffffffffffffffffffff160361117f576040517f08c379a000000000000000000000000000000000000000000000000000000000815260040161117690612d5d565b60405180910390fd5b816008600086868581811061119757611196612ce2565b5b90506020020160208101906111ac91906126de565b73ffffffffffffffffffffffffffffffffffffffff1673ffffffffffffffffffffffffffffffffffffffff16815260200190815260200160002060006101000a81548160ff0219169083151502179055508383828181106112105761120f612ce2565b5b905060200201602081019061122591906126de565b73ffffffffffffffffffffffffffffffffffffffff167fea5814d1cf99e5f6aee98da410ea4adcdbe5ded97855de3b25144b0898d0be4a8360405161126a9190612558565b60405180910390a2808061127d90612d7d565b9150506110de565b50505050565b611293611af2565b600073ffffffffffffffffffffffffffffffffffffffff168273ffffffffffffffffffffffffffffffffffffffff1603611302576040517f08c379a00000000000000000000000000000000000000000000000000000000081526004016112f990612d5d565b60405180910390fd5b80600860008473ffffffffffffffffffffffffffffffffffffffff1673ffffffffffffffffffffffffffffffffffffffff16815260200190815260200160002060006101000a81548160ff0219169083151502179055508173ffffffffffffffffffffffffffffffffffffffff167fea5814d1cf99e5f6aee98da410ea4adcdbe5ded97855de3b25144b0898d0be4a8260405161139f9190612558565b60405180910390a25050565b60086020528060005260406000206000915054906101000a900460ff1681565b60095481565b6000600160008473ffffffffffffffffffffffffffffffffffffffff1673ffffffffffffffffffffffffffffffffffffffff16815260200190815260200160002060008373ffffffffffffffffffffffffffffffffffffffff1673ffffffffffffffffffffffffffffffffffffffff16815260200190815260200160002054905092915050565b61271081565b611466611af2565b600073ffffffffffffffffffffffffffffffffffffffff168173ffffffffffffffffffffffffffffffffffffffff16036114d5576040517f08c379a00000000000000000000000000000000000000000000000000000000081526004016114cc90612e11565b60405180910390fd5b6000600760009054906101000a900473ffffffffffffffffffffffffffffffffffffffff16905081600760006101000a81548173ffffffffffffffffffffffffffffffffffffffff021916908373ffffffffffffffffffffffffffffffffffffffff1602179055506001600860008473ffffffffffffffffffffffffffffffffffffffff1673ffffffffffffffffffffffffffffffffffffffff16815260200190815260200160002060006101000a81548160ff0219169083151502179055508173ffffffffffffffffffffffffffffffffffffffff168173ffffffffffffffffffffffffffffffffffffffff167f086aa05ff00214e2d0c7c02b8a46b2614ad955732e6b43aa8afca69ed1ad76f860405160405180910390a35050565b6115fb611af2565b600073ffffffffffffffffffffffffffffffffffffffff168173ffffffffffffffffffffffffffffffffffffffff160361166d5760006040517f1e4fbdf70000000000000000000000000000000000000000000000000000000081526004016116649190612476565b60405180910390fd5b61167681611b79565b50565b600a81565b611686611af2565b600073ffffffffffffffffffffffffffffffffffffffff168173ffffffffffffffffffffffffffffffffffffffff16036116f5576040517f08c379a00000000000000000000000000000000000000000000000000000000081526004016116ec90612e7d565b60405180910390fd5b6000600660009054906101000a900473ffffffffffffffffffffffffffffffffffffffff16905081600660006101000a81548173ffffffffffffffffffffffffffffffffffffffff021916908373ffffffffffffffffffffffffffffffffffffffff1602179055506001600860008473ffffffffffffffffffffffffffffffffffffffff1673ffffffffffffffffffffffffffffffffffffffff16815260200190815260200160002060006101000a81548160ff0219169083151502179055508173ffffffffffffffffffffffffffffffffffffffff168173ffffffffffffffffffffffffffffffffffffffff167f1cf2de25c5bf439ac0287061c3a0fa69b3b02867d0ccfd2ded34e42577050b7360405160405180910390a35050565b600760009054906101000a900473ffffffffffffffffffffffffffffffffffffffff1681565b600b60009054906101000a900460ff1681565b600033905090565b6118618383836001611c3f565b505050565b600061187284846113d1565b90507fffffffffffffffffffffffffffffffffffffffffffffffffffffffffffffffff81146118f457818110156118e4578281836040517ffb8f41b20000000000000000000000000000000000000000000000000000000081526004016118db93929190612e9d565b60405180910390fd5b6118f384848484036000611c3f565b5b50505050565b600073ffffffffffffffffffffffffffffffffffffffff168373ffffffffffffffffffffffffffffffffffffffff160361196c5760006040517f96c6fd1e0000000000000000000000000000000000000000000000000000000081526004016119639190612476565b60405180910390fd5b600073ffffffffffffffffffffffffffffffffffffffff168273ffffffffffffffffffffffffffffffffffffffff16036119de5760006040517fec442f050000000000000000000000000000000000000000000000000000000081526004016119d59190612476565b60405180910390fd5b6119e9838383611e16565b505050565b600073ffffffffffffffffffffffffffffffffffffffff168273ffffffffffffffffffffffffffffffffffffffff1603611a605760006040517fec442f05000000000000000000000000000000000000000000000000000000008152600401611a579190612476565b60405180910390fd5b611a6c60008383611e16565b5050565b600073ffffffffffffffffffffffffffffffffffffffff168273ffffffffffffffffffffffffffffffffffffffff1603611ae25760006040517f96c6fd1e000000000000000000000000000000000000000000000000000000008152600401611ad99190612476565b60405180910390fd5b611aee82600083611e16565b5050565b611afa61184c565b73ffffffffffffffffffffffffffffffffffffffff16611b18610fa6565b73ffffffffffffffffffffffffffffffffffffffff1614611b7757611b3b61184c565b6040517f118cdaa7000000000000000000000000000000000000000000000000000000008152600401611b6e9190612476565b60405180910390fd5b565b6000600560009054906101000a900473ffffffffffffffffffffffffffffffffffffffff16905081600560006101000a81548173ffffffffffffffffffffffffffffffffffffffff021916908373ffffffffffffffffffffffffffffffffffffffff1602179055508173ffffffffffffffffffffffffffffffffffffffff168173ffffffffffffffffffffffffffffffffffffffff167f8be0079c531659141344cd1fd0a4f28419497f9722a3daafe3b4186f6b6457e060405160405180910390a35050565b600073ffffffffffffffffffffffffffffffffffffffff168473ffffffffffffffffffffffffffffffffffffffff1603611cb15760006040517fe602df05000000000000000000000000000000000000000000000000000000008152600401611ca89190612476565b60405180910390fd5b600073ffffffffffffffffffffffffffffffffffffffff168373ffffffffffffffffffffffffffffffffffffffff1603611d235760006040517f94280d62000000000000000000000000000000000000000000000000000000008152600401611d1a9190612476565b60405180910390fd5b81600160008673ffffffffffffffffffffffffffffffffffffffff1673ffffffffffffffffffffffffffffffffffffffff16815260200190815260200160002060008573ffffffffffffffffffffffffffffffffffffffff1673ffffffffffffffffffffffffffffffffffffffff168152602001908152602001600020819055508015611e10578273ffffffffffffffffffffffffffffffffffffffff168473ffffffffffffffffffffffffffffffffffffffff167f8c5be1e5ebec7d5bd14f71427d1e84f3dd0314c0f7b2291e5b200ac8c7c3b92584604051611e079190612582565b60405180910390a35b50505050565b600073ffffffffffffffffffffffffffffffffffffffff168373ffffffffffffffffffffffffffffffffffffffff161480611e7d5750600073ffffffffffffffffffffffffffffffffffffffff168273ffffffffffffffffffffffffffffffffffffffff16145b15611e9257611e8d83838361215e565b612159565b600860008473ffffffffffffffffffffffffffffffffffffffff1673ffffffffffffffffffffffffffffffffffffffff16815260200190815260200160002060009054906101000a900460ff1680611f335750600860008373ffffffffffffffffffffffffffffffffffffffff1673ffffffffffffffffffffffffffffffffffffffff16815260200190815260200160002060009054906101000a900460ff165b15611f4857611f4383838361215e565b612159565b6000612710600a83611f5a9190612a5c565b611f649190612acd565b90506000612710600a84611f789190612a5c565b611f829190612acd565b90506000818385611f939190612afe565b611f9d9190612afe565b90506000831115612038576a115eec47f6cf7e35000000611fbc6107f5565b1161201057611fee86600760009054906101000a900473ffffffffffffffffffffffffffffffffffffffff168561215e565b82600a600082825461200091906129bc565b9250508190555060009250612037565b61201d8661dead8561215e565b826009600082825461202f91906129bc565b925050819055505b5b6000821180156120975750600073ffffffffffffffffffffffffffffffffffffffff16600760009054906101000a900473ffffffffffffffffffffffffffffffffffffffff1673ffffffffffffffffffffffffffffffffffffffff1614155b156120e3576120c986600760009054906101000a900473ffffffffffffffffffffffffffffffffffffffff168461215e565b81600a60008282546120db91906129bc565b925050819055505b6120ee86868361215e565b8473ffffffffffffffffffffffffffffffffffffffff168673ffffffffffffffffffffffffffffffffffffffff167fddb30886d90db45adc1b2edcbabe12227896c25143cd155d3bf62ec8eff67856858560405161214d929190612ed4565b60405180910390a35050505b505050565b600073ffffffffffffffffffffffffffffffffffffffff168373ffffffffffffffffffffffffffffffffffffffff16036121b05780600260008282546121a491906129bc565b92505081905550612283565b60008060008573ffffffffffffffffffffffffffffffffffffffff1673ffffffffffffffffffffffffffffffffffffffff1681526020019081526020016000205490508181101561223c578381836040517fe450d38c00000000000000000000000000000000000000000000000000000000815260040161223393929190612e9d565b60405180910390fd5b8181036000808673ffffffffffffffffffffffffffffffffffffffff1673ffffffffffffffffffffffffffffffffffffffff16815260200190815260200160002081905550505b600073ffffffffffffffffffffffffffffffffffffffff168273ffffffffffffffffffffffffffffffffffffffff16036122cc5780600260008282540392505081905550612319565b806000808473ffffffffffffffffffffffffffffffffffffffff1673ffffffffffffffffffffffffffffffffffffffff168152602001908152602001600020600082825401925050819055505b8173ffffffffffffffffffffffffffffffffffffffff168373ffffffffffffffffffffffffffffffffffffffff167fddf252ad1be2c89b69c2b068fc378daa952ba7f163c4a11628f55a4df523b3ef836040516123769190612582565b60405180910390a3505050565b600081519050919050565b600082825260208201905092915050565b60005b838110156123bd5780820151818401526020810190506123a2565b60008484015250505050565b6000601f19601f8301169050919050565b60006123e582612383565b6123ef818561238e565b93506123ff81856020860161239f565b612408816123c9565b840191505092915050565b6000602082019050818103600083015261242d81846123da565b905092915050565b600073ffffffffffffffffffffffffffffffffffffffff82169050919050565b600061246082612435565b9050919050565b61247081612455565b82525050565b600060208201905061248b6000830184612467565b92915050565b600080fd5b600080fd5b6124a481612455565b81146124af57600080fd5b50565b6000813590506124c18161249b565b92915050565b6000819050919050565b6124da816124c7565b81146124e557600080fd5b50565b6000813590506124f7816124d1565b92915050565b6000806040838503121561251457612513612491565b5b6000612522858286016124b2565b9250506020612533858286016124e8565b9150509250929050565b60008115159050919050565b6125528161253d565b82525050565b600060208201905061256d6000830184612549565b92915050565b61257c816124c7565b82525050565b60006020820190506125976000830184612573565b92915050565b6000806000606084860312156125b6576125b5612491565b5b60006125c4868287016124b2565b93505060206125d5868287016124b2565b92505060406125e6868287016124e8565b9150509250925092565b600060ff82169050919050565b612606816125f0565b82525050565b600060208201905061262160008301846125fd565b92915050565b60006020828403121561263d5761263c612491565b5b600061264b848285016124e8565b91505092915050565b60006060820190506126696000830186612573565b6126766020830185612573565b6126836040830184612573565b949350505050565b6000806000606084860312156126a4576126a3612491565b5b60006126b2868287016124b2565b93505060206126c3868287016124b2565b92505060406126d4868287016124b2565b9150509250925092565b6000602082840312156126f4576126f3612491565b5b6000612702848285016124b2565b91505092915050565b60006080820190506127206000830187612573565b61272d6020830186612573565b61273a6040830185612573565b6127476060830184612467565b95945050505050565b600080fd5b600080fd5b600080fd5b60008083601f84011261277557612774612750565b5b8235905067ffffffffffffffff81111561279257612791612755565b5b6020830191508360208202830111156127ae576127ad61275a565b5b9250929050565b6127be8161253d565b81146127c957600080fd5b50565b6000813590506127db816127b5565b92915050565b6000806000604084860312156127fa576127f9612491565b5b600084013567ffffffffffffffff81111561281857612817612496565b5b6128248682870161275f565b93509350506020612837868287016127cc565b9150509250925092565b6000806040838503121561285857612857612491565b5b6000612866858286016124b2565b9250506020612877858286016127cc565b9150509250929050565b6000806040838503121561289857612897612491565b5b60006128a6858286016124b2565b92505060206128b7858286016124b2565b9150509250929050565b7f4e487b7100000000000000000000000000000000000000000000000000000000600052602260045260246000fd5b6000600282049050600182168061290857607f821691505b60208210810361291b5761291a6128c1565b5b50919050565b7f4e6f74206d696e74657200000000000000000000000000000000000000000000600082015250565b6000612957600a8361238e565b915061296282612921565b602082019050919050565b600060208201905081810360008301526129868161294a565b9050919050565b7f4e487b7100000000000000000000000000000000000000000000000000000000600052601160045260246000fd5b60006129c7826124c7565b91506129d2836124c7565b92508282019050808211156129ea576129e961298d565b5b92915050565b7f4578636565647320746f74616c20737570706c79206361700000000000000000600082015250565b6000612a2660188361238e565b9150612a31826129f0565b602082019050919050565b60006020820190508181036000830152612a5581612a19565b9050919050565b6000612a67826124c7565b9150612a72836124c7565b9250828202612a80816124c7565b91508282048414831517612a9757612a9661298d565b5b5092915050565b7f4e487b7100000000000000000000000000000000000000000000000000000000600052601260045260246000fd5b6000612ad8826124c7565b9150612ae3836124c7565b925082612af357612af2612a9e565b5b828204905092915050565b6000612b09826124c7565b9150612b14836124c7565b9250828203905081811115612b2c57612b2b61298d565b5b92915050565b7f5072652d6d696e7420616c726561647920646973747269627574656400000000600082015250565b6000612b68601c8361238e565b9150612b7382612b32565b602082019050919050565b60006020820190508181036000830152612b9781612b5b565b9050919050565b7f496e76616c69642044414f2077616c6c65740000000000000000000000000000600082015250565b6000612bd460128361238e565b9150612bdf82612b9e565b602082019050919050565b60006020820190508181036000830152612c0381612bc7565b9050919050565b7f496e76616c69642061697264726f702077616c6c657400000000000000000000600082015250565b6000612c4060168361238e565b9150612c4b82612c0a565b602082019050919050565b60006020820190508181036000830152612c6f81612c33565b9050919050565b7f496e76616c6964206c69717569646974792077616c6c65740000000000000000600082015250565b6000612cac60188361238e565b9150612cb782612c76565b602082019050919050565b60006020820190508181036000830152612cdb81612c9f565b9050919050565b7f4e487b7100000000000000000000000000000000000000000000000000000000600052603260045260246000fd5b7f496e76616c696420616464726573730000000000000000000000000000000000600082015250565b6000612d47600f8361238e565b9150612d5282612d11565b602082019050919050565b60006020820190508181036000830152612d7681612d3a565b9050919050565b6000612d88826124c7565b91507fffffffffffffffffffffffffffffffffffffffffffffffffffffffffffffffff8203612dba57612db961298d565b5b600182019050919050565b7f496e76616c69642077616c6c6574000000000000000000000000000000000000600082015250565b6000612dfb600e8361238e565b9150612e0682612dc5565b602082019050919050565b60006020820190508181036000830152612e2a81612dee565b9050919050565b7f496e76616c6964206d696e746572000000000000000000000000000000000000600082015250565b6000612e67600e8361238e565b9150612e7282612e31565b602082019050919050565b60006020820190508181036000830152612e9681612e5a565b9050919050565b6000606082019050612eb26000830186612467565b612ebf6020830185612573565b612ecc6040830184612573565b949350505050565b6000604082019050612ee96000830185612573565b612ef66020830184612573565b939250505056fea26469706673582212206d263d8e7fa7319f5f3bf2776f384df9582bbcfe01eabf5ace60bc74b317174464736f6c63430008140033",
  "linkReferences": {},
  "deployedLinkReferences": {}
}