{
  "_format": "hh-sol-artifact-1",
  "contractName": "IvyToken",
  "sourceName": "contracts/IvyToken.sol",
  "abi": [
    {
      "inputs": [
        {
          "internalType": "address",
          "name": "_operationsWallet",
          "type": "address"
        }
      ],
      "stateMutability": "nonpayable",
      "type": "constructor"
    },
    {
      "inputs": [
        {
          "internalType": "address",
          "name": "spender",
          "type": "address"
        },
        {
          "internalType": "uint256",
          "name": "allowance",
          "type": "uint256"
        },
        {
          "internalType": "uint256",
          "name": "needed",
          "type": "uint256"
        }
      ],
      "name": "ERC20InsufficientAllowance",
      "type": "error"
    },
    {
      "inputs": [
        {
          "internalType": "address",
          "name": "sender",
          "type": "address"
        },
        {
          "internalType": "uint256",
          "name": "balance",
          "type": "uint256"
        },
        {
          "internalType": "uint256",
          "name": "needed",
          "type": "uint256"
        }
      ],
      "name": "ERC20InsufficientBalance",
      "type": "error"
    },
    {
      "inputs": [
        {
          "internalType": "address",
          "name": "approver",
          "type": "address"
        }
      ],
      "name": "ERC20InvalidApprover",
      "type": "error"
    },
    {
      "inputs": [
        {
          "internalType": "address",
          "name": "receiver",
          "type": "address"
        }
      ],
      "name": "ERC20InvalidReceiver",
      "type": "error"
    },
    {
      "inputs": [
        {
          "internalType": "address",
          "name": "sender",
          "type": "address"
        }
      ],
      "name": "ERC20InvalidSender",
      "type": "error"
    },
    {
      "inputs": [
        {
          "internalType": "address",
          "name": "spender",
          "type": "address"
        }
      ],
      "name": "ERC20InvalidSpender",
      "type": "error"
    },
    {
      "inputs": [
        {
          "internalType": "address",
          "name": "owner",
          "type": "address"
        }
      ],
      "name": "OwnableInvalidOwner",
      "type": "error"
    },
    {
      "inputs": [
        {
          "internalType": "address",
          "name": "account",
          "type": "address"
        }
      ],
      "name": "OwnableUnauthorizedAccount",
      "type": "error"
    },
    {
      "anonymous": false,
      "inputs": [
        {
          "indexed": true,
          "internalType": "address",
          "name": "owner",
          "type": "address"
        },
        {
          "indexed": true,
          "internalType": "address",
          "name": "spender",
          "type": "address"
        },
        {
          "indexed": false,
          "internalType": "uint256",
          "name": "value",
          "type": "uint256"
        }
      ],
      "name": "Approval",
      "type": "event"
    },
    {
      "anonymous": false,
      "inputs": [
        {
          "indexed": true,
          "internalType": "address",
          "name": "account",
          "type": "address"
        },
        {
          "indexed": false,
          "internalType": "bool",
          "name": "excluded",
          "type": "bool"
        }
      ],
      "name": "ExcludedFromTax",
      "type": "event"
    },
    {
      "anonymous": false,
      "inputs": [
        {
          "indexed": true,
          "internalType": "address",
          "name": "oldMinter",
          "type": "address"
        },
        {
          "indexed": true,
          "internalType": "address",
          "name": "newMinter",
          "type": "address"
        }
      ],
      "name": "MinterUpdated",
      "type": "event"
    },
    {
      "anonymous": false,
      "inputs": [
        {
          "indexed": true,
          "internalType": "address",
          "name": "oldWallet",
          "type": "address"
        },
        {
          "indexed": true,
          "internalType": "address",
          "name": "newWallet",
          "type": "address"
        }
      ],
      "name": "OperationsWalletUpdated",
      "type": "event"
    },
    {
      "anonymous": false,
      "inputs": [
        {
          "indexed": true,
          "internalType": "address",
          "name": "previousOwner",
          "type": "address"
        },
        {
          "indexed": true,
          "internalType": "address",
          "name": "newOwner",
          "type": "address"
        }
      ],
      "name": "OwnershipTransferred",
      "type": "event"
    },
    {
      "anonymous": false,
      "inputs": [
        {
          "indexed": true,
          "internalType": "address",
          "name": "from",
          "type": "address"
        },
        {
          "indexed": true,
          "internalType": "address",
          "name": "to",
          "type": "address"
        },
        {
          "indexed": false,
          "internalType": "uint256",
          "name": "burnAmount",
          "type": "uint256"
        },
        {
          "indexed": false,
          "internalType": "uint256",
          "name": "opsAmount",
          "type": "uint256"
        }
      ],
      "name": "TaxCollected",
      "type": "event"
    },
    {
      "anonymous": false,
      "inputs": [
        {
          "indexed": true,
          "internalType": "address",
          "name": "from",
          "type": "address"
        },
        {
          "indexed": true,
          "internalType": "address",
          "name": "to",
          "type": "address"
        },
        {
          "indexed": false,
          "internalType": "uint256",
          "name": "value",
          "type": "uint256"
        }
      ],
      "name": "Transfer",
      "type": "event"
    },
    {
      "inputs": [],
      "name": "BASIS_POINTS",
      "outputs": [
        {
          "internalType": "uint256",
          "name": "",
          "type": "uint256"
        }
      ],
      "stateMutability": "view",
      "type": "function"
    },
    {
      "inputs": [],
      "name": "BURN_RATE",
      "outputs": [
        {
          "internalType": "uint256",
          "name": "",
          "type": "uint256"
        }
      ],
      "stateMutability": "view",
      "type": "function"
    },
    {
      "inputs": [],
      "name": "DEAD_ADDRESS",
      "outputs": [
        {
          "internalType": "address",
          "name": "",
          "type": "address"
        }
      ],
      "stateMutability": "view",
      "type": "function"
    },
    {
      "inputs": [],
      "name": "MINING_ALLOCATION",
      "outputs": [
        {
          "internalType": "uint256",
          "name": "",
          "type": "uint256"
        }
      ],
      "stateMutability": "view",
      "type": "function"
    },
    {
      "inputs": [],
      "name": "OPS_RATE",
      "outputs": [
        {
          "internalType": "uint256",
          "name": "",
          "type": "uint256"
        }
      ],
      "stateMutability": "view",
      "type": "function"
    },
    {
      "inputs": [],
      "name": "PRE_MINT_AMOUNT",
      "outputs": [
        {
          "internalType": "uint256",
          "name": "",
          "type": "uint256"
        }
      ],
      "stateMutability": "view",
      "type": "function"
    },
    {
      "inputs": [],
      "name": "TAX_RATE",
      "outputs": [
        {
          "internalType": "uint256",
          "name": "",
          "type": "uint256"
        }
      ],
      "stateMutability": "view",
      "type": "function"
    },
    {
      "inputs": [],
      "name": "TOTAL_SUPPLY_CAP",
      "outputs": [
        {
          "internalType": "uint256",
          "name": "",
          "type": "uint256"
        }
      ],
      "stateMutability": "view",
      "type": "function"
    },
    {
      "inputs": [
        {
          "internalType": "address",
          "name": "owner",
          "type": "address"
        },
        {
          "internalType": "address",
          "name": "spender",
          "type": "address"
        }
      ],
      "name": "allowance",
      "outputs": [
        {
          "internalType": "uint256",
          "name": "",
          "type": "uint256"
        }
      ],
      "stateMutability": "view",
      "type": "function"
    },
    {
      "inputs": [
        {
          "internalType": "address",
          "name": "spender",
          "type": "address"
        },
        {
          "internalType": "uint256",
          "name": "value",
          "type": "uint256"
        }
      ],
      "name": "approve",
      "outputs": [
        {
          "internalType": "bool",
          "name": "",
          "type": "bool"
        }
      ],
      "stateMutability": "nonpayable",
      "type": "function"
    },
    {
      "inputs": [
        {
          "internalType": "address",
          "name": "account",
          "type": "address"
        }
      ],
      "name": "balanceOf",
      "outputs": [
        {
          "internalType": "uint256",
          "name": "",
          "type": "uint256"
        }
      ],
      "stateMutability": "view",
      "type": "function"
    },
    {
      "inputs": [
        {
          "internalType": "address[]",
          "name": "accounts",
          "type": "address[]"
        },
        {
          "internalType": "bool",
          "name": "excluded",
          "type": "bool"
        }
      ],
      "name": "batchSetExcludedFromTax",
      "outputs": [],
      "stateMutability": "nonpayable",
      "type": "function"
    },
    {
      "inputs": [
        {
          "internalType": "uint256",
          "name": "amount",
          "type": "uint256"
        }
      ],
      "name": "burn",
      "outputs": [],
      "stateMutability": "nonpayable",
      "type": "function"
    },
    {
      "inputs": [
        {
          "internalType": "address",
          "name": "account",
          "type": "address"
        },
        {
          "internalType": "uint256",
          "name": "amount",
          "type": "uint256"
        }
      ],
      "name": "burnFrom",
      "outputs": [],
      "stateMutability": "nonpayable",
      "type": "function"
    },
    {
      "inputs": [
        {
          "internalType": "uint256",
          "name": "amount",
          "type": "uint256"
        }
      ],
      "name": "calculateTax",
      "outputs": [
        {
          "internalType": "uint256",
          "name": "burnAmount",
          "type": "uint256"
        },
        {
          "internalType": "uint256",
          "name": "opsAmount",
          "type": "uint256"
        },
        {
          "internalType": "uint256",
          "name": "netAmount",
          "type": "uint256"
        }
      ],
      "stateMutability": "pure",
      "type": "function"
    },
    {
      "inputs": [
        {
          "internalType": "address",
          "name": "account",
          "type": "address"
        }
      ],
      "name": "checkExcluded",
      "outputs": [
        {
          "internalType": "bool",
          "name": "",
          "type": "bool"
        }
      ],
      "stateMutability": "view",
      "type": "function"
    },
    {
      "inputs": [],
      "name": "decimals",
      "outputs": [
        {
          "internalType": "uint8",
          "name": "",
          "type": "uint8"
        }
      ],
      "stateMutability": "view",
      "type": "function"
    },
    {
      "inputs": [],
      "name": "getTaxStats",
      "outputs": [
        {
          "internalType": "uint256",
          "name": "_totalBurned",
          "type": "uint256"
        },
        {
          "internalType": "uint256",
          "name": "_totalOpsCollected",
          "type": "uint256"
        },
        {
          "internalType": "uint256",
          "name": "_taxRate",
          "type": "uint256"
        },
        {
          "internalType": "address",
          "name": "_operationsWallet",
          "type": "address"
        }
      ],
      "stateMutability": "view",
      "type": "function"
    },
    {
      "inputs": [
        {
          "internalType": "address",
          "name": "",
          "type": "address"
        }
      ],
      "name": "isExcludedFromTax",
      "outputs": [
        {
          "internalType": "bool",
          "name": "",
          "type": "bool"
        }
      ],
      "stateMutability": "view",
      "type": "function"
    },
    {
      "inputs": [
        {
          "internalType": "address",
          "name": "to",
          "type": "address"
        },
        {
          "internalType": "uint256",
          "name": "amount",
          "type": "uint256"
        }
      ],
      "name": "mint",
      "outputs": [],
      "stateMutability": "nonpayable",
      "type": "function"
    },
    {
      "inputs": [],
      "name": "minter",
      "outputs": [
        {
          "internalType": "address",
          "name": "",
          "type": "address"
        }
      ],
      "stateMutability": "view",
      "type": "function"
    },
    {
      "inputs": [],
      "name": "name",
      "outputs": [
        {
          "internalType": "string",
          "name": "",
          "type": "string"
        }
      ],
      "stateMutability": "view",
      "type": "function"
    },
    {
      "inputs": [],
      "name": "operationsWallet",
      "outputs": [
        {
          "internalType": "address",
          "name": "",
          "type": "address"
        }
      ],
      "stateMutability": "view",
      "type": "function"
    },
    {
      "inputs": [],
      "name": "owner",
      "outputs": [
        {
          "internalType": "address",
          "name": "",
          "type": "address"
        }
      ],
      "stateMutability": "view",
      "type": "function"
    },
    {
      "inputs": [],
      "name": "renounceOwnership",
      "outputs": [],
      "stateMutability": "nonpayable",
      "type": "function"
    },
    {
      "inputs": [
        {
          "internalType": "address",
          "name": "account",
          "type": "address"
        },
        {
          "internalType": "bool",
          "name": "excluded",
          "type": "bool"
        }
      ],
      "name": "setExcludedFromTax",
      "outputs": [],
      "stateMutability": "nonpayable",
      "type": "function"
    },
    {
      "inputs": [
        {
          "internalType": "address",
          "name": "_minter",
          "type": "address"
        }
      ],
      "name": "setMinter",
      "outputs": [],
      "stateMutability": "nonpayable",
      "type": "function"
    },
    {
      "inputs": [
        {
          "internalType": "address",
          "name": "_wallet",
          "type": "address"
        }
      ],
      "name": "setOperationsWallet",
      "outputs": [],
      "stateMutability": "nonpayable",
      "type": "function"
    },
    {
      "inputs": [],
      "name": "symbol",
      "outputs": [
        {
          "internalType": "string",
          "name": "",
          "type": "string"
        }
      ],
      "stateMutability": "view",
      "type": "function"
    },
    {
      "inputs": [],
      "name": "totalBurned",
      "outputs": [
        {
          "internalType": "uint256",
          "name": "",
          "type": "uint256"
        }
      ],
      "stateMutability": "view",
      "type": "function"
    },
    {
      "inputs": [],
      "name": "totalOpsCollected",
      "outputs": [
        {
          "internalType": "uint256",
          "name": "",
          "type": "uint256"
        }
      ],
      "stateMutability": "view",
      "type": "function"
    },
    {
      "inputs": [],
      "name": "totalSupply",
      "outputs": [
        {
          "internalType": "uint256",
          "name": "",
          "type": "uint256"
        }
      ],
      "stateMutability": "view",
      "type": "function"
    },
    {
      "inputs": [
        {
          "internalType": "address",
          "name": "to",
          "type": "address"
        },
        {
          "internalType": "uint256",
          "name": "value",
          "type": "uint256"
        }
      ],
      "name": "transfer",
      "outputs": [
        {
          "internalType": "bool",
          "name": "",
          "type": "bool"
        }
      ],
      "stateMutability": "nonpayable",
      "type": "function"
    },
    {
      "inputs": [
        {
          "internalType": "address",
          "name": "from",
          "type": "address"
        },
        {
          "internalType": "address",
          "name": "to",
          "type": "address"
        },
        {
          "internalType": "uint256",
          "name": "value",
          "type": "uint256"
        }
      ],
      "name": "transferFrom",
      "outputs": [
        {
          "internalType": "bool",
          "name": "",
          "type": "bool"
        }
      ],
      "stateMutability": "nonpayable",
      "type": "function"
    },
    {
      "inputs": [
        {
          "internalType": "address",
          "name": "newOwner",
          "type": "address"
        }
      ],
      "name": "transferOwnership",
      "outputs": [],
      "stateMutability": "nonpayable",
      "type": "function"
    }
  ],
  "bytecode": "0x60806040523480156200001157600080fd5b506040516200383c3803806200383c833981810160405281019062000037919062000a41565b336040518060400160405280600c81526020017f4976792050726f746f636f6c00000000000000000000000000000000000000008152506040518060400160405280600381526020017f49565900000000000000000000000000000000000000000000000000000000008152508160039081620000b5919062000ced565b508060049081620000c7919062000ced565b505050600073ffffffffffffffffffffffffffffffffffffffff168173ffffffffffffffffffffffffffffffffffffffff16036200013f5760006040517f1e4fbdf700000000000000000000000000000000000000000000000000000000815260040162000136919062000de5565b60405180910390fd5b62000150816200033260201b60201c565b50600073ffffffffffffffffffffffffffffffffffffffff168173ffffffffffffffffffffffffffffffffffffffff1603620001c3576040517f08c379a0000000000000000000000000000000000000000000000000000000008152600401620001ba9062000e63565b60405180910390fd5b80600760006101000a81548173ffffffffffffffffffffffffffffffffffffffff021916908373ffffffffffffffffffffffffffffffffffffffff1602179055506001600860003373ffffffffffffffffffffffffffffffffffffffff1673ffffffffffffffffffffffffffffffffffffffff16815260200190815260200160002060006101000a81548160ff02191690831515021790555060016008600061dead73ffffffffffffffffffffffffffffffffffffffff1673ffffffffffffffffffffffffffffffffffffffff16815260200190815260200160002060006101000a81548160ff0219169083151502179055506001600860008373ffffffffffffffffffffffffffffffffffffffff1673ffffffffffffffffffffffffffffffffffffffff16815260200190815260200160002060006101000a81548160ff0219169083151502179055506200032b816a18d0bf423c03d8de000000620003f860201b60201c565b5062001074565b6000600560009054906101000a900473ffffffffffffffffffffffffffffffffffffffff16905081600560006101000a81548173ffffffffffffffffffffffffffffffffffffffff021916908373ffffffffffffffffffffffffffffffffffffffff1602179055508173ffffffffffffffffffffffffffffffffffffffff168173ffffffffffffffffffffffffffffffffffffffff167f8be0079c531659141344cd1fd0a4f28419497f9722a3daafe3b4186f6b6457e060405160405180910390a35050565b600073ffffffffffffffffffffffffffffffffffffffff168273ffffffffffffffffffffffffffffffffffffffff16036200046d5760006040517fec442f0500000000000000000000000000000000000000000000000000000000815260040162000464919062000de5565b60405180910390fd5b62000481600083836200048560201b60201c565b5050565b600073ffffffffffffffffffffffffffffffffffffffff168373ffffffffffffffffffffffffffffffffffffffff161480620004ed5750600073ffffffffffffffffffffffffffffffffffffffff168273ffffffffffffffffffffffffffffffffffffffff16145b156200050c5762000506838383620007a760201b60201c565b620007a2565b600860008473ffffffffffffffffffffffffffffffffffffffff1673ffffffffffffffffffffffffffffffffffffffff16815260200190815260200160002060009054906101000a900460ff1680620005ae5750600860008373ffffffffffffffffffffffffffffffffffffffff1673ffffffffffffffffffffffffffffffffffffffff16815260200190815260200160002060009054906101000a900460ff165b15620005cd57620005c7838383620007a760201b60201c565b620007a2565b6000612710600a83620005e1919062000eb4565b620005ed919062000f2e565b90506000612710600a8462000603919062000eb4565b6200060f919062000f2e565b9050600081838562000622919062000f66565b6200062e919062000f66565b905060008311156200066b576200064f8661dead85620007a760201b60201c565b826009600082825462000663919062000fa1565b925050819055505b600082118015620006cb5750600073ffffffffffffffffffffffffffffffffffffffff16600760009054906101000a900473ffffffffffffffffffffffffffffffffffffffff1673ffffffffffffffffffffffffffffffffffffffff1614155b1562000722576200070686600760009054906101000a900473ffffffffffffffffffffffffffffffffffffffff1684620007a760201b60201c565b81600a60008282546200071a919062000fa1565b925050819055505b62000735868683620007a760201b60201c565b8473ffffffffffffffffffffffffffffffffffffffff168673ffffffffffffffffffffffffffffffffffffffff167fddb30886d90db45adc1b2edcbabe12227896c25143cd155d3bf62ec8eff6785685856040516200079692919062000fed565b60405180910390a35050505b505050565b600073ffffffffffffffffffffffffffffffffffffffff168373ffffffffffffffffffffffffffffffffffffffff1603620007fd578060026000828254620007f0919062000fa1565b92505081905550620008d3565b60008060008573ffffffffffffffffffffffffffffffffffffffff1673ffffffffffffffffffffffffffffffffffffffff168152602001908152602001600020549050818110156200088c578381836040517fe450d38c00000000000000000000000000000000000000000000000000000000815260040162000883939291906200101a565b60405180910390fd5b8181036000808673ffffffffffffffffffffffffffffffffffffffff1673ffffffffffffffffffffffffffffffffffffffff16815260200190815260200160002081905550505b600073ffffffffffffffffffffffffffffffffffffffff168273ffffffffffffffffffffffffffffffffffffffff16036200091e57806002600082825403925050819055506200096b565b806000808473ffffffffffffffffffffffffffffffffffffffff1673ffffffffffffffffffffffffffffffffffffffff168152602001908152602001600020600082825401925050819055505b8173ffffffffffffffffffffffffffffffffffffffff168373ffffffffffffffffffffffffffffffffffffffff167fddf252ad1be2c89b69c2b068fc378daa952ba7f163c4a11628f55a4df523b3ef83604051620009ca919062001057565b60405180910390a3505050565b600080fd5b600073ffffffffffffffffffffffffffffffffffffffff82169050919050565b600062000a0982620009dc565b9050919050565b62000a1b81620009fc565b811462000a2757600080fd5b50565b60008151905062000a3b8162000a10565b92915050565b60006020828403121562000a5a5762000a59620009d7565b5b600062000a6a8482850162000a2a565b91505092915050565b600081519050919050565b7f4e487b7100000000000000000000000000000000000000000000000000000000600052604160045260246000fd5b7f4e487b7100000000000000000000000000000000000000000000000000000000600052602260045260246000fd5b6000600282049050600182168062000af557607f821691505b60208210810362000b0b5762000b0a62000aad565b5b50919050565b60008190508160005260206000209050919050565b60006020601f8301049050919050565b600082821b905092915050565b60006008830262000b757fffffffffffffffffffffffffffffffffffffffffffffffffffffffffffffffff8262000b36565b62000b81868362000b36565b95508019841693508086168417925050509392505050565b6000819050919050565b6000819050919050565b600062000bce62000bc862000bc28462000b99565b62000ba3565b62000b99565b9050919050565b6000819050919050565b62000bea8362000bad565b62000c0262000bf98262000bd5565b84845462000b43565b825550505050565b600090565b62000c1962000c0a565b62000c2681848462000bdf565b505050565b5b8181101562000c4e5762000c4260008262000c0f565b60018101905062000c2c565b5050565b601f82111562000c9d5762000c678162000b11565b62000c728462000b26565b8101602085101562000c82578190505b62000c9a62000c918562000b26565b83018262000c2b565b50505b505050565b600082821c905092915050565b600062000cc26000198460080262000ca2565b1980831691505092915050565b600062000cdd838362000caf565b9150826002028217905092915050565b62000cf88262000a73565b67ffffffffffffffff81111562000d145762000d1362000a7e565b5b62000d20825462000adc565b62000d2d82828562000c52565b600060209050601f83116001811462000d65576000841562000d50578287015190505b62000d5c858262000ccf565b86555062000dcc565b601f19841662000d758662000b11565b60005b8281101562000d9f5784890151825560018201915060208501945060208101905062000d78565b8683101562000dbf578489015162000dbb601f89168262000caf565b8355505b6001600288020188555050505b505050505050565b62000ddf81620009fc565b82525050565b600060208201905062000dfc600083018462000dd4565b92915050565b600082825260208201905092915050565b7f496e76616c6964206f7065726174696f6e732077616c6c657400000000000000600082015250565b600062000e4b60198362000e02565b915062000e588262000e13565b602082019050919050565b6000602082019050818103600083015262000e7e8162000e3c565b9050919050565b7f4e487b7100000000000000000000000000000000000000000000000000000000600052601160045260246000fd5b600062000ec18262000b99565b915062000ece8362000b99565b925082820262000ede8162000b99565b9150828204841483151762000ef85762000ef762000e85565b5b5092915050565b7f4e487b7100000000000000000000000000000000000000000000000000000000600052601260045260246000fd5b600062000f3b8262000b99565b915062000f488362000b99565b92508262000f5b5762000f5a62000eff565b5b828204905092915050565b600062000f738262000b99565b915062000f808362000b99565b925082820390508181111562000f9b5762000f9a62000e85565b5b92915050565b600062000fae8262000b99565b915062000fbb8362000b99565b925082820190508082111562000fd65762000fd562000e85565b5b92915050565b62000fe78162000b99565b82525050565b600060408201905062001004600083018562000fdc565b62001013602083018462000fdc565b9392505050565b600060608201905062001031600083018662000dd4565b62001040602083018562000fdc565b6200104f604083018462000fdc565b949350505050565b60006020820190506200106e600083018462000fdc565b92915050565b6127b880620010846000396000f3fe608060405234801561001057600080fd5b50600436106102115760003560e01c80637d8d376311610125578063cb4ca631116100ad578063ee5ecc891161007c578063ee5ecc8914610611578063f2fde38b1461062d578063f846a88514610649578063fca3b5aa14610667578063fd72e22a1461068357610211565b8063cb4ca63114610575578063d89135cd146105a5578063dd62ed3e146105c3578063e1f1c4a7146105f357610211565b8063a76d21f5116100f4578063a76d21f5146104ce578063a9059cbb146104ec578063b4ad41cf1461051c578063beaa628b1461053d578063c2ed286b1461055957610211565b80637d8d37631461045657806383f170be146104745780638da5cb5b1461049257806395d89b41146104b057610211565b806342966c68116101a857806370a082311161017757806370a08231146103b2578063715018a6146103e257806379cc6790146103ec5780637cb52737146104085780637d4862101461043857610211565b806342966c6814610328578063483a93101461034457806348931352146103765780634e6fd6c41461039457610211565b806323b872dd116101e457806323b872dd146102a0578063313ce567146102d057806335a178b0146102ee57806340c10f191461030c57610211565b806306fdde03146102165780630754617214610234578063095ea7b31461025257806318160ddd14610282575b600080fd5b61021e6106a1565b60405161022b9190611e9b565b60405180910390f35b61023c610733565b6040516102499190611efe565b60405180910390f35b61026c60048036038101906102679190611f85565b610759565b6040516102799190611fe0565b60405180910390f35b61028a61077c565b604051610297919061200a565b60405180910390f35b6102ba60048036038101906102b59190612025565b610786565b6040516102c79190611fe0565b60405180910390f35b6102d86107b5565b6040516102e59190612094565b60405180910390f35b6102f66107be565b604051610303919061200a565b60405180910390f35b61032660048036038101906103219190611f85565b6107cd565b005b610342600480360381019061033d91906120af565b6108cb565b005b61035e600480360381019061035991906120af565b6108d8565b60405161036d939291906120dc565b60405180910390f35b61037e610935565b60405161038b919061200a565b60405180910390f35b61039c610944565b6040516103a99190611efe565b60405180910390f35b6103cc60048036038101906103c79190612113565b61094a565b6040516103d9919061200a565b60405180910390f35b6103ea610992565b005b61040660048036038101906104019190611f85565b6109a6565b005b610422600480360381019061041d9190612113565b610a44565b60405161042f9190611fe0565b60405180910390f35b610440610a9a565b60405161044d919061200a565b60405180910390f35b61045e610aa0565b60405161046b919061200a565b60405180910390f35b61047c610aa5565b604051610489919061200a565b60405180910390f35b61049a610aaa565b6040516104a79190611efe565b60405180910390f35b6104b8610ad4565b6040516104c59190611e9b565b60405180910390f35b6104d6610b66565b6040516104e3919061200a565b60405180910390f35b61050660048036038101906105019190611f85565b610b75565b6040516105139190611fe0565b60405180910390f35b610524610b98565b6040516105349493929190612140565b60405180910390f35b61055760048036038101906105529190612216565b610bd7565b005b610573600480360381019061056e9190612276565b610d8f565b005b61058f600480360381019061058a9190612113565b610eaf565b60405161059c9190611fe0565b60405180910390f35b6105ad610ecf565b6040516105ba919061200a565b60405180910390f35b6105dd60048036038101906105d891906122b6565b610ed5565b6040516105ea919061200a565b60405180910390f35b6105fb610f5c565b604051610608919061200a565b60405180910390f35b61062b60048036038101906106269190612113565b610f62565b005b61064760048036038101906106429190612113565b6110f7565b005b61065161117d565b60405161065e919061200a565b60405180910390f35b610681600480360381019061067c9190612113565b611182565b005b61068b611317565b6040516106989190611efe565b60405180910390f35b6060600380546106b090612325565b80601f01602080910402602001604051908101604052809291908181526020018280546106dc90612325565b80156107295780601f106106fe57610100808354040283529160200191610729565b820191906000526020600020905b81548152906001019060200180831161070c57829003601f168201915b5050505050905090565b600660009054906101000a900473ffffffffffffffffffffffffffffffffffffffff1681565b60008061076461133d565b9050610771818585611345565b600191505092915050565b6000600254905090565b60008061079161133d565b905061079e858285611357565b6107a98585856113eb565b60019150509392505050565b60006012905090565b6a39e7139a8c08fa0600000081565b600660009054906101000a900473ffffffffffffffffffffffffffffffffffffffff1673ffffffffffffffffffffffffffffffffffffffff163373ffffffffffffffffffffffffffffffffffffffff161461085d576040517f08c379a0000000000000000000000000000000000000000000000000000000008152600401610854906123a2565b60405180910390fd5b6a52b7d2dcc80cd2e40000008161087261077c565b61087c91906123f1565b11156108bd576040517f08c379a00000000000000000000000000000000000000000000000000000000081526004016108b490612471565b60405180910390fd5b6108c782826114df565b5050565b6108d53382611561565b50565b6000806000612710600a856108ed9190612491565b6108f79190612502565b9250612710600a856109099190612491565b6109139190612502565b91508183856109229190612533565b61092c9190612533565b90509193909250565b6a52b7d2dcc80cd2e400000081565b61dead81565b60008060008373ffffffffffffffffffffffffffffffffffffffff1673ffffffffffffffffffffffffffffffffffffffff168152602001908152602001600020549050919050565b61099a6115e3565b6109a4600061166a565b565b600660009054906101000a900473ffffffffffffffffffffffffffffffffffffffff1673ffffffffffffffffffffffffffffffffffffffff163373ffffffffffffffffffffffffffffffffffffffff1614610a36576040517f08c379a0000000000000000000000000000000000000000000000000000000008152600401610a2d906123a2565b60405180910390fd5b610a408282611561565b5050565b6000600860008373ffffffffffffffffffffffffffffffffffffffff1673ffffffffffffffffffffffffffffffffffffffff16815260200190815260200160002060009054906101000a900460ff169050919050565b600a5481565b600a81565b601481565b6000600560009054906101000a900473ffffffffffffffffffffffffffffffffffffffff16905090565b606060048054610ae390612325565b80601f0160208091040260200160405190810160405280929190818152602001828054610b0f90612325565b8015610b5c5780601f10610b3157610100808354040283529160200191610b5c565b820191906000526020600020905b815481529060010190602001808311610b3f57829003601f168201915b5050505050905090565b6a18d0bf423c03d8de00000081565b600080610b8061133d565b9050610b8d8185856113eb565b600191505092915050565b6000806000806009549350600a54925060149150600760009054906101000a900473ffffffffffffffffffffffffffffffffffffffff16905090919293565b610bdf6115e3565b60005b83839050811015610d8957600073ffffffffffffffffffffffffffffffffffffffff16848483818110610c1857610c17612567565b5b9050602002016020810190610c2d9190612113565b73ffffffffffffffffffffffffffffffffffffffff1603610c83576040517f08c379a0000000000000000000000000000000000000000000000000000000008152600401610c7a906125e2565b60405180910390fd5b8160086000868685818110610c9b57610c9a612567565b5b9050602002016020810190610cb09190612113565b73ffffffffffffffffffffffffffffffffffffffff1673ffffffffffffffffffffffffffffffffffffffff16815260200190815260200160002060006101000a81548160ff021916908315150217905550838382818110610d1457610d13612567565b5b9050602002016020810190610d299190612113565b73ffffffffffffffffffffffffffffffffffffffff167fea5814d1cf99e5f6aee98da410ea4adcdbe5ded97855de3b25144b0898d0be4a83604051610d6e9190611fe0565b60405180910390a28080610d8190612602565b915050610be2565b50505050565b610d976115e3565b600073ffffffffffffffffffffffffffffffffffffffff168273ffffffffffffffffffffffffffffffffffffffff1603610e06576040517f08c379a0000000000000000000000000000000000000000000000000000000008152600401610dfd906125e2565b60405180910390fd5b80600860008473ffffffffffffffffffffffffffffffffffffffff1673ffffffffffffffffffffffffffffffffffffffff16815260200190815260200160002060006101000a81548160ff0219169083151502179055508173ffffffffffffffffffffffffffffffffffffffff167fea5814d1cf99e5f6aee98da410ea4adcdbe5ded97855de3b25144b0898d0be4a82604051610ea39190611fe0565b60405180910390a25050565b60086020528060005260406000206000915054906101000a900460ff1681565b60095481565b6000600160008473ffffffffffffffffffffffffffffffffffffffff1673ffffffffffffffffffffffffffffffffffffffff16815260200190815260200160002060008373ffffffffffffffffffffffffffffffffffffffff1673ffffffffffffffffffffffffffffffffffffffff16815260200190815260200160002054905092915050565b61271081565b610f6a6115e3565b600073ffffffffffffffffffffffffffffffffffffffff168173ffffffffffffffffffffffffffffffffffffffff1603610fd9576040517f08c379a0000000000000000000000000000000000000000000000000000000008152600401610fd090612696565b60405180910390fd5b6000600760009054906101000a900473ffffffffffffffffffffffffffffffffffffffff16905081600760006101000a81548173ffffffffffffffffffffffffffffffffffffffff021916908373ffffffffffffffffffffffffffffffffffffffff1602179055506001600860008473ffffffffffffffffffffffffffffffffffffffff1673ffffffffffffffffffffffffffffffffffffffff16815260200190815260200160002060006101000a81548160ff0219169083151502179055508173ffffffffffffffffffffffffffffffffffffffff168173ffffffffffffffffffffffffffffffffffffffff167f086aa05ff00214e2d0c7c02b8a46b2614ad955732e6b43aa8afca69ed1ad76f860405160405180910390a35050565b6110ff6115e3565b600073ffffffffffffffffffffffffffffffffffffffff168173ffffffffffffffffffffffffffffffffffffffff16036111715760006040517f1e4fbdf70000000000000000000000000000000000000000000000000000000081526004016111689190611efe565b60405180910390fd5b61117a8161166a565b50565b600a81565b61118a6115e3565b600073ffffffffffffffffffffffffffffffffffffffff168173ffffffffffffffffffffffffffffffffffffffff16036111f9576040517f08c379a00000000000000000000000000000000000000000000000000000000081526004016111f090612702565b60405180910390fd5b6000600660009054906101000a900473ffffffffffffffffffffffffffffffffffffffff16905081600660006101000a81548173ffffffffffffffffffffffffffffffffffffffff021916908373ffffffffffffffffffffffffffffffffffffffff1602179055506001600860008473ffffffffffffffffffffffffffffffffffffffff1673ffffffffffffffffffffffffffffffffffffffff16815260200190815260200160002060006101000a81548160ff0219169083151502179055508173ffffffffffffffffffffffffffffffffffffffff168173ffffffffffffffffffffffffffffffffffffffff167f1cf2de25c5bf439ac0287061c3a0fa69b3b02867d0ccfd2ded34e42577050b7360405160405180910390a35050565b600760009054906101000a900473ffffffffffffffffffffffffffffffffffffffff1681565b600033905090565b6113528383836001611730565b505050565b60006113638484610ed5565b90507fffffffffffffffffffffffffffffffffffffffffffffffffffffffffffffffff81146113e557818110156113d5578281836040517ffb8f41b20000000000000000000000000000000000000000000000000000000081526004016113cc93929190612722565b60405180910390fd5b6113e484848484036000611730565b5b50505050565b600073ffffffffffffffffffffffffffffffffffffffff168373ffffffffffffffffffffffffffffffffffffffff160361145d5760006040517f96c6fd1e0000000000000000000000000000000000000000000000000000000081526004016114549190611efe565b60405180910390fd5b600073ffffffffffffffffffffffffffffffffffffffff168273ffffffffffffffffffffffffffffffffffffffff16036114cf5760006040517fec442f050000000000000000000000000000000000000000000000000000000081526004016114c69190611efe565b60405180910390fd5b6114da838383611907565b505050565b600073ffffffffffffffffffffffffffffffffffffffff168273ffffffffffffffffffffffffffffffffffffffff16036115515760006040517fec442f050000000000000000000000000000000000000000000000000000000081526004016115489190611efe565b60405180910390fd5b61155d60008383611907565b5050565b600073ffffffffffffffffffffffffffffffffffffffff168273ffffffffffffffffffffffffffffffffffffffff16036115d35760006040517f96c6fd1e0000000000000000000000000000000000000000000000000000000081526004016115ca9190611efe565b60405180910390fd5b6115df82600083611907565b5050565b6115eb61133d565b73ffffffffffffffffffffffffffffffffffffffff16611609610aaa565b73ffffffffffffffffffffffffffffffffffffffff16146116685761162c61133d565b6040517f118cdaa700000000000000000000000000000000000000000000000000000000815260040161165f9190611efe565b60405180910390fd5b565b6000600560009054906101000a900473ffffffffffffffffffffffffffffffffffffffff16905081600560006101000a81548173ffffffffffffffffffffffffffffffffffffffff021916908373ffffffffffffffffffffffffffffffffffffffff1602179055508173ffffffffffffffffffffffffffffffffffffffff168173ffffffffffffffffffffffffffffffffffffffff167f8be0079c531659141344cd1fd0a4f28419497f9722a3daafe3b4186f6b6457e060405160405180910390a35050565b600073ffffffffffffffffffffffffffffffffffffffff168473ffffffffffffffffffffffffffffffffffffffff16036117a25760006040517fe602df050000000000000000000000000000000000000000000000000000000081526004016117999190611efe565b60405180910390fd5b600073ffffffffffffffffffffffffffffffffffffffff168373ffffffffffffffffffffffffffffffffffffffff16036118145760006040517f94280d6200000000000000000000000000000000000000000000000000000000815260040161180b9190611efe565b60405180910390fd5b81600160008673ffffffffffffffffffffffffffffffffffffffff1673ffffffffffffffffffffffffffffffffffffffff16815260200190815260200160002060008573ffffffffffffffffffffffffffffffffffffffff1673ffffffffffffffffffffffffffffffffffffffff168152602001908152602001600020819055508015611901578273ffffffffffffffffffffffffffffffffffffffff168473ffffffffffffffffffffffffffffffffffffffff167f8c5be1e5ebec7d5bd14f71427d1e84f3dd0314c0f7b2291e5b200ac8c7c3b925846040516118f8919061200a565b60405180910390a35b50505050565b600073ffffffffffffffffffffffffffffffffffffffff168373ffffffffffffffffffffffffffffffffffffffff16148061196e5750600073ffffffffffffffffffffffffffffffffffffffff168273ffffffffffffffffffffffffffffffffffffffff16145b156119835761197e838383611be6565b611be1565b600860008473ffffffffffffffffffffffffffffffffffffffff1673ffffffffffffffffffffffffffffffffffffffff16815260200190815260200160002060009054906101000a900460ff1680611a245750600860008373ffffffffffffffffffffffffffffffffffffffff1673ffffffffffffffffffffffffffffffffffffffff16815260200190815260200160002060009054906101000a900460ff165b15611a3957611a34838383611be6565b611be1565b6000612710600a83611a4b9190612491565b611a559190612502565b90506000612710600a84611a699190612491565b611a739190612502565b90506000818385611a849190612533565b611a8e9190612533565b90506000831115611ac057611aa68661dead85611be6565b8260096000828254611ab891906123f1565b925050819055505b600082118015611b1f5750600073ffffffffffffffffffffffffffffffffffffffff16600760009054906101000a900473ffffffffffffffffffffffffffffffffffffffff1673ffffffffffffffffffffffffffffffffffffffff1614155b15611b6b57611b5186600760009054906101000a900473ffffffffffffffffffffffffffffffffffffffff1684611be6565b81600a6000828254611b6391906123f1565b925050819055505b611b76868683611be6565b8473ffffffffffffffffffffffffffffffffffffffff168673ffffffffffffffffffffffffffffffffffffffff167fddb30886d90db45adc1b2edcbabe12227896c25143cd155d3bf62ec8eff678568585604051611bd5929190612759565b60405180910390a35050505b505050565b600073ffffffffffffffffffffffffffffffffffffffff168373ffffffffffffffffffffffffffffffffffffffff1603611c38578060026000828254611c2c91906123f1565b92505081905550611d0b565b60008060008573ffffffffffffffffffffffffffffffffffffffff1673ffffffffffffffffffffffffffffffffffffffff16815260200190815260200160002054905081811015611cc4578381836040517fe450d38c000000000000000000000000000000000000000000000000000000008152600401611cbb93929190612722565b60405180910390fd5b8181036000808673ffffffffffffffffffffffffffffffffffffffff1673ffffffffffffffffffffffffffffffffffffffff16815260200190815260200160002081905550505b600073ffffffffffffffffffffffffffffffffffffffff168273ffffffffffffffffffffffffffffffffffffffff1603611d545780600260008282540392505081905550611da1565b806000808473ffffffffffffffffffffffffffffffffffffffff1673ffffffffffffffffffffffffffffffffffffffff168152602001908152602001600020600082825401925050819055505b8173ffffffffffffffffffffffffffffffffffffffff168373ffffffffffffffffffffffffffffffffffffffff167fddf252ad1be2c89b69c2b068fc378daa952ba7f163c4a11628f55a4df523b3ef83604051611dfe919061200a565b60405180910390a3505050565b600081519050919050565b600082825260208201905092915050565b60005b83811015611e45578082015181840152602081019050611e2a565b60008484015250505050565b6000601f19601f8301169050919050565b6000611e6d82611e0b565b611e778185611e16565b9350611e87818560208601611e27565b611e9081611e51565b840191505092915050565b60006020820190508181036000830152611eb58184611e62565b905092915050565b600073ffffffffffffffffffffffffffffffffffffffff82169050919050565b6000611ee882611ebd565b9050919050565b611ef881611edd565b82525050565b6000602082019050611f136000830184611eef565b92915050565b600080fd5b600080fd5b611f2c81611edd565b8114611f3757600080fd5b50565b600081359050611f4981611f23565b92915050565b6000819050919050565b611f6281611f4f565b8114611f6d57600080fd5b50565b600081359050611f7f81611f59565b92915050565b60008060408385031215611f9c57611f9b611f19565b5b6000611faa85828601611f3a565b9250506020611fbb85828601611f70565b9150509250929050565b60008115159050919050565b611fda81611fc5565b82525050565b6000602082019050611ff56000830184611fd1565b92915050565b61200481611f4f565b82525050565b600060208201905061201f6000830184611ffb565b92915050565b60008060006060848603121561203e5761203d611f19565b5b600061204c86828701611f3a565b935050602061205d86828701611f3a565b925050604061206e86828701611f70565b9150509250925092565b600060ff82169050919050565b61208e81612078565b82525050565b60006020820190506120a96000830184612085565b92915050565b6000602082840312156120c5576120c4611f19565b5b60006120d384828501611f70565b91505092915050565b60006060820190506120f16000830186611ffb565b6120fe6020830185611ffb565b61210b6040830184611ffb565b949350505050565b60006020828403121561212957612128611f19565b5b600061213784828501611f3a565b91505092915050565b60006080820190506121556000830187611ffb565b6121626020830186611ffb565b61216f6040830185611ffb565b61217c6060830184611eef565b95945050505050565b600080fd5b600080fd5b600080fd5b60008083601f8401126121aa576121a9612185565b5b8235905067ffffffffffffffff8111156121c7576121c661218a565b5b6020830191508360208202830111156121e3576121e261218f565b5b9250929050565b6121f381611fc5565b81146121fe57600080fd5b50565b600081359050612210816121ea565b92915050565b60008060006040848603121561222f5761222e611f19565b5b600084013567ffffffffffffffff81111561224d5761224c611f1e565b5b61225986828701612194565b9350935050602061226c86828701612201565b9150509250925092565b6000806040838503121561228d5761228c611f19565b5b600061229b85828601611f3a565b92505060206122ac85828601612201565b9150509250929050565b600080604083850312156122cd576122cc611f19565b5b60006122db85828601611f3a565b92505060206122ec85828601611f3a565b9150509250929050565b7f4e487b7100000000000000000000000000000000000000000000000000000000600052602260045260246000fd5b6000600282049050600182168061233d57607f821691505b6020821081036123505761234f6122f6565b5b50919050565b7f4e6f74206d696e74657200000000000000000000000000000000000000000000600082015250565b600061238c600a83611e16565b915061239782612356565b602082019050919050565b600060208201905081810360008301526123bb8161237f565b9050919050565b7f4e487b7100000000000000000000000000000000000000000000000000000000600052601160045260246000fd5b60006123fc82611f4f565b915061240783611f4f565b925082820190508082111561241f5761241e6123c2565b5b92915050565b7f4578636565647320746f74616c20737570706c79206361700000000000000000600082015250565b600061245b601883611e16565b915061246682612425565b602082019050919050565b6000602082019050818103600083015261248a8161244e565b9050919050565b600061249c82611f4f565b91506124a783611f4f565b92508282026124b581611f4f565b915082820484148315176124cc576124cb6123c2565b5b5092915050565b7f4e487b7100000000000000000000000000000000000000000000000000000000600052601260045260246000fd5b600061250d82611f4f565b915061251883611f4f565b925082612528576125276124d3565b5b828204905092915050565b600061253e82611f4f565b915061254983611f4f565b9250828203905081811115612561576125606123c2565b5b92915050565b7f4e487b7100000000000000000000000000000000000000000000000000000000600052603260045260246000fd5b7f496e76616c696420616464726573730000000000000000000000000000000000600082015250565b60006125cc600f83611e16565b91506125d782612596565b602082019050919050565b600060208201905081810360008301526125fb816125bf565b9050919050565b600061260d82611f4f565b91507fffffffffffffffffffffffffffffffffffffffffffffffffffffffffffffffff820361263f5761263e6123c2565b5b600182019050919050565b7f496e76616c69642077616c6c6574000000000000000000000000000000000000600082015250565b6000612680600e83611e16565b915061268b8261264a565b602082019050919050565b600060208201905081810360008301526126af81612673565b9050919050565b7f496e76616c6964206d696e746572000000000000000000000000000000000000600082015250565b60006126ec600e83611e16565b91506126f7826126b6565b602082019050919050565b6000602082019050818103600083015261271b816126df565b9050919050565b60006060820190506127376000830186611eef565b6127446020830185611ffb565b6127516040830184611ffb565b949350505050565b600060408201905061276e6000830185611ffb565b61277b6020830184611ffb565b939250505056fea2646970667358221220d0ad357d5902902f16b74a68df05ce227421898b4bf1b808ec8ada3db48e7e0464736f6c63430008140033",
  "linkReferences": {},
  "deployedLinkReferences": {}
}