{
  "_format": "hh-sol-artifact-1",
  "contractName": "IvyToken",
  "sourceName": "contracts/IvyToken.sol",
  "abi": [
    {
      "inputs": [
        {
          "internalType": "address",
          "name": "_operationsWallet",
          "type": "address"
        }
      ],
      "stateMutability": "nonpayable",
      "type": "constructor"
    },
    {
      "inputs": [
        {
          "internalType": "address",
          "name": "spender",
          "type": "address"
        },
        {
          "internalType": "uint256",
          "name": "allowance",
          "type": "uint256"
        },
        {
          "internalType": "uint256",
          "name": "needed",
          "type": "uint256"
        }
      ],
      "name": "ERC20InsufficientAllowance",
      "type": "error"
    },
    {
      "inputs": [
        {
          "internalType": "address",
          "name": "sender",
          "type": "address"
        },
        {
          "internalType": "uint256",
          "name": "balance",
          "type": "uint256"
        },
        {
          "internalType": "uint256",
          "name": "needed",
          "type": "uint256"
        }
      ],
      "name": "ERC20InsufficientBalance",
      "type": "error"
    },
    {
      "inputs": [
        {
          "internalType": "address",
          "name": "approver",
          "type": "address"
        }
      ],
      "name": "ERC20InvalidApprover",
      "type": "error"
    },
    {
      "inputs": [
        {
          "internalType": "address",
          "name": "receiver",
          "type": "address"
        }
      ],
      "name": "ERC20InvalidReceiver",
      "type": "error"
    },
    {
      "inputs": [
        {
          "internalType": "address",
          "name": "sender",
          "type": "address"
        }
      ],
      "name": "ERC20InvalidSender",
      "type": "error"
    },
    {
      "inputs": [
        {
          "internalType": "address",
          "name": "spender",
          "type": "address"
        }
      ],
      "name": "ERC20InvalidSpender",
      "type": "error"
    },
    {
      "inputs": [
        {
          "internalType": "address",
          "name": "owner",
          "type": "address"
        }
      ],
      "name": "OwnableInvalidOwner",
      "type": "error"
    },
    {
      "inputs": [
        {
          "internalType": "address",
          "name": "account",
          "type": "address"
        }
      ],
      "name": "OwnableUnauthorizedAccount",
      "type": "error"
    },
    {
      "anonymous": false,
      "inputs": [
        {
          "indexed": true,
          "internalType": "address",
          "name": "owner",
          "type": "address"
        },
        {
          "indexed": true,
          "internalType": "address",
          "name": "spender",
          "type": "address"
        },
        {
          "indexed": false,
          "internalType": "uint256",
          "name": "value",
          "type": "uint256"
        }
      ],
      "name": "Approval",
      "type": "event"
    },
    {
      "anonymous": false,
      "inputs": [
        {
          "indexed": true,
          "internalType": "address",
          "name": "account",
          "type": "address"
        },
        {
          "indexed": false,
          "internalType": "bool",
          "name": "excluded",
          "type": "bool"
        }
      ],
      "name": "ExcludedFromTax",
      "type": "event"
    },
    {
      "anonymous": false,
      "inputs": [
        {
          "indexed": true,
          "internalType": "address",
          "name": "oldLPMinter",
          "type": "address"
        },
        {
          "indexed": true,
          "internalType": "address",
          "name": "newLPMinter",
          "type": "address"
        }
      ],
      "name": "LPMinterUpdated",
      "type": "event"
    },
    {
      "anonymous": false,
      "inputs": [
        {
          "indexed": true,
          "internalType": "address",
          "name": "oldMinter",
          "type": "address"
        },
        {
          "indexed": true,
          "internalType": "address",
          "name": "newMinter",
          "type": "address"
        }
      ],
      "name": "MinterUpdated",
      "type": "event"
    },
    {
      "anonymous": false,
      "inputs": [
        {
          "indexed": true,
          "internalType": "address",
          "name": "oldWallet",
          "type": "address"
        },
        {
          "indexed": true,
          "internalType": "address",
          "name": "newWallet",
          "type": "address"
        }
      ],
      "name": "OperationsWalletUpdated",
      "type": "event"
    },
    {
      "anonymous": false,
      "inputs": [
        {
          "indexed": true,
          "internalType": "address",
          "name": "previousOwner",
          "type": "address"
        },
        {
          "indexed": true,
          "internalType": "address",
          "name": "newOwner",
          "type": "address"
        }
      ],
      "name": "OwnershipTransferred",
      "type": "event"
    },
    {
      "anonymous": false,
      "inputs": [
        {
          "indexed": true,
          "internalType": "address",
          "name": "from",
          "type": "address"
        },
        {
          "indexed": true,
          "internalType": "address",
          "name": "to",
          "type": "address"
        },
        {
          "indexed": false,
          "internalType": "uint256",
          "name": "burnAmount",
          "type": "uint256"
        },
        {
          "indexed": false,
          "internalType": "uint256",
          "name": "opsAmount",
          "type": "uint256"
        }
      ],
      "name": "TaxCollected",
      "type": "event"
    },
    {
      "anonymous": false,
      "inputs": [
        {
          "indexed": true,
          "internalType": "address",
          "name": "from",
          "type": "address"
        },
        {
          "indexed": true,
          "internalType": "address",
          "name": "to",
          "type": "address"
        },
        {
          "indexed": false,
          "internalType": "uint256",
          "name": "value",
          "type": "uint256"
        }
      ],
      "name": "Transfer",
      "type": "event"
    },
    {
      "inputs": [],
      "name": "BASIS_POINTS",
      "outputs": [
        {
          "internalType": "uint256",
          "name": "",
          "type": "uint256"
        }
      ],
      "stateMutability": "view",
      "type": "function"
    },
    {
      "inputs": [],
      "name": "BURN_RATE",
      "outputs": [
        {
          "internalType": "uint256",
          "name": "",
          "type": "uint256"
        }
      ],
      "stateMutability": "view",
      "type": "function"
    },
    {
      "inputs": [],
      "name": "DEAD_ADDRESS",
      "outputs": [
        {
          "internalType": "address",
          "name": "",
          "type": "address"
        }
      ],
      "stateMutability": "view",
      "type": "function"
    },
    {
      "inputs": [],
      "name": "GOLDEN_PIVOT",
      "outputs": [
        {
          "internalType": "uint256",
          "name": "",
          "type": "uint256"
        }
      ],
      "stateMutability": "view",
      "type": "function"
    },
    {
      "inputs": [],
      "name": "LP_RESERVE_CAP",
      "outputs": [
        {
          "internalType": "uint256",
          "name": "",
          "type": "uint256"
        }
      ],
      "stateMutability": "view",
      "type": "function"
    },
    {
      "inputs": [],
      "name": "MINING_ALLOCATION",
      "outputs": [
        {
          "internalType": "uint256",
          "name": "",
          "type": "uint256"
        }
      ],
      "stateMutability": "view",
      "type": "function"
    },
    {
      "inputs": [],
      "name": "OPS_RATE",
      "outputs": [
        {
          "internalType": "uint256",
          "name": "",
          "type": "uint256"
        }
      ],
      "stateMutability": "view",
      "type": "function"
    },
    {
      "inputs": [],
      "name": "PRE_MINT_AMOUNT",
      "outputs": [
        {
          "internalType": "uint256",
          "name": "",
          "type": "uint256"
        }
      ],
      "stateMutability": "view",
      "type": "function"
    },
    {
      "inputs": [],
      "name": "TAX_RATE",
      "outputs": [
        {
          "internalType": "uint256",
          "name": "",
          "type": "uint256"
        }
      ],
      "stateMutability": "view",
      "type": "function"
    },
    {
      "inputs": [],
      "name": "TOTAL_SUPPLY_CAP",
      "outputs": [
        {
          "internalType": "uint256",
          "name": "",
          "type": "uint256"
        }
      ],
      "stateMutability": "view",
      "type": "function"
    },
    {
      "inputs": [
        {
          "internalType": "address",
          "name": "owner",
          "type": "address"
        },
        {
          "internalType": "address",
          "name": "spender",
          "type": "address"
        }
      ],
      "name": "allowance",
      "outputs": [
        {
          "internalType": "uint256",
          "name": "",
          "type": "uint256"
        }
      ],
      "stateMutability": "view",
      "type": "function"
    },
    {
      "inputs": [
        {
          "internalType": "address",
          "name": "spender",
          "type": "address"
        },
        {
          "internalType": "uint256",
          "name": "value",
          "type": "uint256"
        }
      ],
      "name": "approve",
      "outputs": [
        {
          "internalType": "bool",
          "name": "",
          "type": "bool"
        }
      ],
      "stateMutability": "nonpayable",
      "type": "function"
    },
    {
      "inputs": [
        {
          "internalType": "address",
          "name": "account",
          "type": "address"
        }
      ],
      "name": "balanceOf",
      "outputs": [
        {
          "internalType": "uint256",
          "name": "",
          "type": "uint256"
        }
      ],
      "stateMutability": "view",
      "type": "function"
    },
    {
      "inputs": [
        {
          "internalType": "address[]",
          "name": "accounts",
          "type": "address[]"
        },
        {
          "internalType": "bool",
          "name": "excluded",
          "type": "bool"
        }
      ],
      "name": "batchSetExcludedFromTax",
      "outputs": [],
      "stateMutability": "nonpayable",
      "type": "function"
    },
    {
      "inputs": [
        {
          "internalType": "uint256",
          "name": "amount",
          "type": "uint256"
        }
      ],
      "name": "burn",
      "outputs": [],
      "stateMutability": "nonpayable",
      "type": "function"
    },
    {
      "inputs": [
        {
          "internalType": "address",
          "name": "account",
          "type": "address"
        },
        {
          "internalType": "uint256",
          "name": "amount",
          "type": "uint256"
        }
      ],
      "name": "burnFrom",
      "outputs": [],
      "stateMutability": "nonpayable",
      "type": "function"
    },
    {
      "inputs": [
        {
          "internalType": "uint256",
          "name": "amount",
          "type": "uint256"
        }
      ],
      "name": "calculateTax",
      "outputs": [
        {
          "internalType": "uint256",
          "name": "burnAmount",
          "type": "uint256"
        },
        {
          "internalType": "uint256",
          "name": "opsAmount",
          "type": "uint256"
        },
        {
          "internalType": "uint256",
          "name": "netAmount",
          "type": "uint256"
        }
      ],
      "stateMutability": "pure",
      "type": "function"
    },
    {
      "inputs": [
        {
          "internalType": "address",
          "name": "account",
          "type": "address"
        }
      ],
      "name": "checkExcluded",
      "outputs": [
        {
          "internalType": "bool",
          "name": "",
          "type": "bool"
        }
      ],
      "stateMutability": "view",
      "type": "function"
    },
    {
      "inputs": [],
      "name": "decimals",
      "outputs": [
        {
          "internalType": "uint8",
          "name": "",
          "type": "uint8"
        }
      ],
      "stateMutability": "view",
      "type": "function"
    },
    {
      "inputs": [
        {
          "internalType": "address",
          "name": "daoWallet",
          "type": "address"
        },
        {
          "internalType": "address",
          "name": "liquidityWallet",
          "type": "address"
        }
      ],
      "name": "distributePreMint",
      "outputs": [],
      "stateMutability": "nonpayable",
      "type": "function"
    },
    {
      "inputs": [],
      "name": "getTaxStats",
      "outputs": [
        {
          "internalType": "uint256",
          "name": "_totalBurned",
          "type": "uint256"
        },
        {
          "internalType": "uint256",
          "name": "_totalOpsCollected",
          "type": "uint256"
        },
        {
          "internalType": "uint256",
          "name": "_taxRate",
          "type": "uint256"
        },
        {
          "internalType": "address",
          "name": "_operationsWallet",
          "type": "address"
        }
      ],
      "stateMutability": "view",
      "type": "function"
    },
    {
      "inputs": [
        {
          "internalType": "address",
          "name": "",
          "type": "address"
        }
      ],
      "name": "isExcludedFromTax",
      "outputs": [
        {
          "internalType": "bool",
          "name": "",
          "type": "bool"
        }
      ],
      "stateMutability": "view",
      "type": "function"
    },
    {
      "inputs": [],
      "name": "lpMinter",
      "outputs": [
        {
          "internalType": "address",
          "name": "",
          "type": "address"
        }
      ],
      "stateMutability": "view",
      "type": "function"
    },
    {
      "inputs": [],
      "name": "lpMinterUsed",
      "outputs": [
        {
          "internalType": "uint256",
          "name": "",
          "type": "uint256"
        }
      ],
      "stateMutability": "view",
      "type": "function"
    },
    {
      "inputs": [
        {
          "internalType": "address",
          "name": "to",
          "type": "address"
        },
        {
          "internalType": "uint256",
          "name": "amount",
          "type": "uint256"
        }
      ],
      "name": "mint",
      "outputs": [],
      "stateMutability": "nonpayable",
      "type": "function"
    },
    {
      "inputs": [
        {
          "internalType": "address",
          "name": "to",
          "type": "address"
        },
        {
          "internalType": "uint256",
          "name": "amount",
          "type": "uint256"
        }
      ],
      "name": "mintForLP",
      "outputs": [],
      "stateMutability": "nonpayable",
      "type": "function"
    },
    {
      "inputs": [],
      "name": "minter",
      "outputs": [
        {
          "internalType": "address",
          "name": "",
          "type": "address"
        }
      ],
      "stateMutability": "view",
      "type": "function"
    },
    {
      "inputs": [],
      "name": "minterUsed",
      "outputs": [
        {
          "internalType": "uint256",
          "name": "",
          "type": "uint256"
        }
      ],
      "stateMutability": "view",
      "type": "function"
    },
    {
      "inputs": [],
      "name": "name",
      "outputs": [
        {
          "internalType": "string",
          "name": "",
          "type": "string"
        }
      ],
      "stateMutability": "view",
      "type": "function"
    },
    {
      "inputs": [],
      "name": "operationsWallet",
      "outputs": [
        {
          "internalType": "address",
          "name": "",
          "type": "address"
        }
      ],
      "stateMutability": "view",
      "type": "function"
    },
    {
      "inputs": [],
      "name": "owner",
      "outputs": [
        {
          "internalType": "address",
          "name": "",
          "type": "address"
        }
      ],
      "stateMutability": "view",
      "type": "function"
    },
    {
      "inputs": [],
      "name": "preMintDistributed",
      "outputs": [
        {
          "internalType": "bool",
          "name": "",
          "type": "bool"
        }
      ],
      "stateMutability": "view",
      "type": "function"
    },
    {
      "inputs": [],
      "name": "renounceOwnership",
      "outputs": [],
      "stateMutability": "nonpayable",
      "type": "function"
    },
    {
      "inputs": [
        {
          "internalType": "address",
          "name": "account",
          "type": "address"
        },
        {
          "internalType": "bool",
          "name": "excluded",
          "type": "bool"
        }
      ],
      "name": "setExcludedFromTax",
      "outputs": [],
      "stateMutability": "nonpayable",
      "type": "function"
    },
    {
      "inputs": [
        {
          "internalType": "address",
          "name": "_lpMinter",
          "type": "address"
        }
      ],
      "name": "setLPMinter",
      "outputs": [],
      "stateMutability": "nonpayable",
      "type": "function"
    },
    {
      "inputs": [
        {
          "internalType": "address",
          "name": "_minter",
          "type": "address"
        }
      ],
      "name": "setMinter",
      "outputs": [],
      "stateMutability": "nonpayable",
      "type": "function"
    },
    {
      "inputs": [
        {
          "internalType": "address",
          "name": "_wallet",
          "type": "address"
        }
      ],
      "name": "setOperationsWallet",
      "outputs": [],
      "stateMutability": "nonpayable",
      "type": "function"
    },
    {
      "inputs": [],
      "name": "symbol",
      "outputs": [
        {
          "internalType": "string",
          "name": "",
          "type": "string"
        }
      ],
      "stateMutability": "view",
      "type": "function"
    },
    {
      "inputs": [],
      "name": "totalBurned",
      "outputs": [
        {
          "internalType": "uint256",
          "name": "",
          "type": "uint256"
        }
      ],
      "stateMutability": "view",
      "type": "function"
    },
    {
      "inputs": [],
      "name": "totalOpsCollected",
      "outputs": [
        {
          "internalType": "uint256",
          "name": "",
          "type": "uint256"
        }
      ],
      "stateMutability": "view",
      "type": "function"
    },
    {
      "inputs": [],
      "name": "totalSupply",
      "outputs": [
        {
          "internalType": "uint256",
          "name": "",
          "type": "uint256"
        }
      ],
      "stateMutability": "view",
      "type": "function"
    },
    {
      "inputs": [
        {
          "internalType": "address",
          "name": "to",
          "type": "address"
        },
        {
          "internalType": "uint256",
          "name": "value",
          "type": "uint256"
        }
      ],
      "name": "transfer",
      "outputs": [
        {
          "internalType": "bool",
          "name": "",
          "type": "bool"
        }
      ],
      "stateMutability": "nonpayable",
      "type": "function"
    },
    {
      "inputs": [
        {
          "internalType": "address",
          "name": "from",
          "type": "address"
        },
        {
          "internalType": "address",
          "name": "to",
          "type": "address"
        },
        {
          "internalType": "uint256",
          "name": "value",
          "type": "uint256"
        }
      ],
      "name": "transferFrom",
      "outputs": [
        {
          "internalType": "bool",
          "name": "",
          "type": "bool"
        }
      ],
      "stateMutability": "nonpayable",
      "type": "function"
    },
    {
      "inputs": [
        {
          "internalType": "address",
          "name": "newOwner",
          "type": "address"
        }
      ],
      "name": "transferOwnership",
      "outputs": [],
      "stateMutability": "nonpayable",
      "type": "function"
    }
  ],
  "bytecode": "0x60806040523480156200001157600080fd5b506040516200218f3803806200218f8339810160408190526200003491620005db565b336040518060400160405280600c81526020016b125d9e48141c9bdd1bd8dbdb60a21b8152506040518060400160405280600381526020016249565960e81b8152508160039081620000879190620006b1565b506004620000968282620006b1565b5050506001600160a01b038116620000c957604051631e4fbdf760e01b8152600060048201526024015b60405180910390fd5b620000d481620001bf565b506001600160a01b0381166200012d5760405162461bcd60e51b815260206004820152601960248201527f496e76616c6964206f7065726174696f6e732077616c6c6574000000000000006044820152606401620000c0565b600880546001600160a01b0319166001600160a01b03831690811790915533600090815260096020526040808220805460ff1990811660019081179092557f960b1051749987b45b5679007fff577a1c2f763ec21c15a6c5eb193075003785805482168317905593835291208054909216179055620001b8816a0c685fa11e01ec6f00000062000211565b5062000802565b600580546001600160a01b038381166001600160a01b0319831681179093556040519116919082907f8be0079c531659141344cd1fd0a4f28419497f9722a3daafe3b4186f6b6457e090600090a35050565b6001600160a01b0382166200023d5760405163ec442f0560e01b815260006004820152602401620000c0565b6200024b600083836200024f565b5050565b6001600160a01b03831615806200026d57506001600160a01b038216155b15620002855762000280838383620004a8565b505050565b6001600160a01b03831660009081526009602052604090205460ff1680620002c557506001600160a01b03821660009081526009602052604090205460ff165b15620002d85762000280838383620004a8565b6000612710620002ea600a8462000793565b620002f69190620007b3565b905060006127106200030a600a8562000793565b620003169190620007b3565b905068056bc75e2d63100000831062000340578115801562000336575080155b1562000340575060015b6000816200034f8486620007d6565b6200035b9190620007d6565b90508215620003e7576a115eec47f6cf7e350000006200037a60025490565b11620003be576008546200039a9087906001600160a01b031685620004a8565b82600b6000828254620003ae9190620007ec565b9091555060009350620003e79050565b620003cd8661dead85620004a8565b82600a6000828254620003e19190620007ec565b90915550505b6000821180156200040257506008546001600160a01b031615155b156200043c57600854620004229087906001600160a01b031684620004a8565b81600b6000828254620004369190620007ec565b90915550505b62000449868683620004a8565b846001600160a01b0316866001600160a01b03167fddb30886d90db45adc1b2edcbabe12227896c25143cd155d3bf62ec8eff67856858560405162000498929190918252602082015260400190565b60405180910390a3505050505050565b6001600160a01b038316620004d7578060026000828254620004cb9190620007ec565b909155506200054b9050565b6001600160a01b038316600090815260208190526040902054818110156200052c5760405163391434e360e21b81526001600160a01b03851660048201526024810182905260448101839052606401620000c0565b6001600160a01b03841660009081526020819052604090209082900390555b6001600160a01b038216620005695760028054829003905562000588565b6001600160a01b03821660009081526020819052604090208054820190555b816001600160a01b0316836001600160a01b03167fddf252ad1be2c89b69c2b068fc378daa952ba7f163c4a11628f55a4df523b3ef83604051620005ce91815260200190565b60405180910390a3505050565b600060208284031215620005ee57600080fd5b81516001600160a01b03811681146200060657600080fd5b9392505050565b634e487b7160e01b600052604160045260246000fd5b600181811c908216806200063857607f821691505b6020821081036200065957634e487b7160e01b600052602260045260246000fd5b50919050565b601f8211156200028057600081815260208120601f850160051c81016020861015620006885750805b601f850160051c820191505b81811015620006a95782815560010162000694565b505050505050565b81516001600160401b03811115620006cd57620006cd6200060d565b620006e581620006de845462000623565b846200065f565b602080601f8311600181146200071d5760008415620007045750858301515b600019600386901b1c1916600185901b178555620006a9565b600085815260208120601f198616915b828110156200074e578886015182559484019460019091019084016200072d565b50858210156200076d5787850151600019600388901b60f8161c191681555b5050505050600190811b01905550565b634e487b7160e01b600052601160045260246000fd5b8082028115828204841417620007ad57620007ad6200077d565b92915050565b600082620007d157634e487b7160e01b600052601260045260246000fd5b500490565b81810381811115620007ad57620007ad6200077d565b80820180821115620007ad57620007ad6200077d565b61197d80620008126000396000f3fe608060405234801561001057600080fd5b50600436106102745760003560e01c80638da5cb5b11610151578063cb4ca631116100c3578063f2fde38b11610087578063f2fde38b146105af578063f846a8851461044c578063f84ec036146105c2578063fca3b5aa146105cb578063fd72e22a146105de578063fec5d984146105f157600080fd5b8063cb4ca6311461052e578063d89135cd14610551578063dd62ed3e1461055a578063e1f1c4a714610593578063ee5ecc891461059c57600080fd5b8063a9059cbb11610115578063a9059cbb14610491578063b4ad41cf146104a4578063bdeaa772146104e2578063beaa628b146104f5578063c197250114610508578063c2ed286b1461051b57600080fd5b80638da5cb5b1461045c57806395d89b411461046d5780639a821cb714610475578063a183d5471461047e578063a76d21f51461039c57600080fd5b80634e6fd6c4116101ea57806378b1833b116101ae57806378b1833b146103f257806379cc6790146104045780637cb52737146104175780637d486210146104435780637d8d37631461044c57806383f170be1461045457600080fd5b80634e6fd6c4146103935780635a846e431461039c57806365629e7a146103ae57806370a08231146103c1578063715018a6146103ea57600080fd5b8063313ce5671161023c578063313ce5671461030a57806335a178b01461031957806340c10f191461032b57806342966c6814610340578063483a931014610353578063489313521461038157600080fd5b806306fdde03146102795780630754617214610297578063095ea7b3146102c257806318160ddd146102e557806323b872dd146102f7575b600080fd5b6102816105fe565b60405161028e919061164d565b60405180910390f35b6006546102aa906001600160a01b031681565b6040516001600160a01b03909116815260200161028e565b6102d56102d03660046116b7565b610690565b604051901515815260200161028e565b6002545b60405190815260200161028e565b6102d56103053660046116e1565b6106aa565b6040516012815260200161028e565b6102e96a39e7139a8c08fa0600000081565b61033e6103393660046116b7565b6106ce565b005b61033e61034e36600461171d565b610811565b61036661036136600461171d565b61081e565b6040805193845260208401929092529082015260600161028e565b6102e96a52b7d2dcc80cd2e400000081565b6102aa61dead81565b6102e96a0c685fa11e01ec6f00000081565b61033e6103bc366004611736565b610873565b6102e96103cf366004611736565b6001600160a01b031660009081526020819052604090205490565b61033e61092f565b6102e96a115eec47f6cf7e3500000081565b61033e6104123660046116b7565b610943565b6102d5610425366004611736565b6001600160a01b031660009081526009602052604090205460ff1690565b6102e9600b5481565b6102e9600a81565b6102e9601481565b6005546001600160a01b03166102aa565b610281610994565b6102e9600d5481565b61033e61048c366004611758565b6109a3565b6102d561049f3660046116b7565b610b78565b600a54600b546008546014906001600160a01b0316604080519485526020850193909352918301526001600160a01b0316606082015260800161028e565b6007546102aa906001600160a01b031681565b61033e61050336600461179b565b610b86565b61033e6105163660046116b7565b610ccf565b61033e61052936600461181f565b610e08565b6102d561053c366004611736565b60096020526000908152604090205460ff1681565b6102e9600a5481565b6102e9610568366004611758565b6001600160a01b03918216600090815260016020908152604080832093909416825291909152205490565b6102e961271081565b61033e6105aa366004611736565b610ea5565b61033e6105bd366004611736565b610f5e565b6102e9600c5481565b61033e6105d9366004611736565b610f99565b6008546102aa906001600160a01b031681565b600e546102d59060ff1681565b60606003805461060d90611849565b80601f016020809104026020016040519081016040528092919081815260200182805461063990611849565b80156106865780601f1061065b57610100808354040283529160200191610686565b820191906000526020600020905b81548152906001019060200180831161066957829003601f168201915b5050505050905090565b60003361069e818585611052565b60019150505b92915050565b6000336106b8858285611064565b6106c38585856110dc565b506001949350505050565b6006546001600160a01b0316331461071a5760405162461bcd60e51b815260206004820152600a6024820152692737ba1036b4b73a32b960b11b60448201526064015b60405180910390fd5b6a39e7139a8c08fa0600000081600c546107349190611899565b11156107825760405162461bcd60e51b815260206004820152601f60248201527f45786365656473206d696e696e6720616c6c6f636174696f6e202837304d29006044820152606401610711565b6a52b7d2dcc80cd2e40000008161079860025490565b6107a29190611899565b11156107eb5760405162461bcd60e51b815260206004820152601860248201527704578636565647320746f74616c20737570706c79206361760441b6044820152606401610711565b80600c60008282546107fd9190611899565b9091555061080d9050828261113b565b5050565b61081b3382611171565b50565b60008080612710610830600a866118ac565b61083a91906118c3565b925061271061084a600a866118ac565b61085491906118c3565b91508161086184866118e5565b61086b91906118e5565b929491935050565b61087b6111a7565b6001600160a01b0381166108c55760405162461bcd60e51b815260206004820152601160248201527024b73b30b634b21026281036b4b73a32b960791b6044820152606401610711565b600780546001600160a01b038381166001600160a01b031983168117909355600083815260096020526040808220805460ff191660011790555191909216929183917f6e73e9c865f953cedfb7c01afcab01693d5a501d9727f200619056b6b79eb0a39190a35050565b6109376111a7565b61094160006111d4565b565b6006546001600160a01b0316331461098a5760405162461bcd60e51b815260206004820152600a6024820152692737ba1036b4b73a32b960b11b6044820152606401610711565b61080d8282611171565b60606004805461060d90611849565b6109ab6111a7565b600e5460ff16156109fe5760405162461bcd60e51b815260206004820152601c60248201527f5072652d6d696e7420616c7265616479206469737472696275746564000000006044820152606401610711565b6001600160a01b038216610a495760405162461bcd60e51b8152602060048201526012602482015271125b9d985b1a5908111053c81dd85b1b195d60721b6044820152606401610711565b6001600160a01b038116610a9f5760405162461bcd60e51b815260206004820152601860248201527f496e76616c6964206c69717569646974792077616c6c657400000000000000006044820152606401610711565b600e8054600160ff1991821681179092556001600160a01b03848116600090815260096020526040808220805485168617905585831682529020805490921690921790556008546a0422ca8b0a00a425000000918291610b01911685836110dc565b600854610b18906001600160a01b031684836110dc565b604051600181526001600160a01b038516906000805160206119288339815191529060200160405180910390a2604051600181526001600160a01b038416906000805160206119288339815191529060200160405180910390a250505050565b60003361069e8185856110dc565b610b8e6111a7565b60005b82811015610cc9576000848483818110610bad57610bad6118f8565b9050602002016020810190610bc29190611736565b6001600160a01b031603610c0a5760405162461bcd60e51b815260206004820152600f60248201526e496e76616c6964206164647265737360881b6044820152606401610711565b8160096000868685818110610c2157610c216118f8565b9050602002016020810190610c369190611736565b6001600160a01b031681526020810191909152604001600020805460ff1916911515919091179055838382818110610c7057610c706118f8565b9050602002016020810190610c859190611736565b6001600160a01b031660008051602061192883398151915283604051610caf911515815260200190565b60405180910390a280610cc18161190e565b915050610b91565b50505050565b6007546001600160a01b03163314610d195760405162461bcd60e51b815260206004820152600d60248201526c2737ba1026281036b4b73a32b960991b6044820152606401610711565b6a0c685fa11e01ec6f00000081600d54610d339190611899565b1115610d8d5760405162461bcd60e51b815260206004820152602360248201527f45786365656473204c50207265736572766520616c6c6f636174696f6e202831604482015262354d2960e81b6064820152608401610711565b6a52b7d2dcc80cd2e400000081610da360025490565b610dad9190611899565b1115610df65760405162461bcd60e51b815260206004820152601860248201527704578636565647320746f74616c20737570706c79206361760441b6044820152606401610711565b80600d60008282546107fd9190611899565b610e106111a7565b6001600160a01b038216610e585760405162461bcd60e51b815260206004820152600f60248201526e496e76616c6964206164647265737360881b6044820152606401610711565b6001600160a01b038216600081815260096020908152604091829020805460ff19168515159081179091559151918252600080516020611928833981519152910160405180910390a25050565b610ead6111a7565b6001600160a01b038116610ef45760405162461bcd60e51b815260206004820152600e60248201526d125b9d985b1a59081dd85b1b195d60921b6044820152606401610711565b600880546001600160a01b038381166001600160a01b031983168117909355600083815260096020526040808220805460ff191660011790555191909216929183917f086aa05ff00214e2d0c7c02b8a46b2614ad955732e6b43aa8afca69ed1ad76f89190a35050565b610f666111a7565b6001600160a01b038116610f9057604051631e4fbdf760e01b815260006004820152602401610711565b61081b816111d4565b610fa16111a7565b6001600160a01b038116610fe85760405162461bcd60e51b815260206004820152600e60248201526d24b73b30b634b21036b4b73a32b960911b6044820152606401610711565b600680546001600160a01b038381166001600160a01b031983168117909355600083815260096020526040808220805460ff191660011790555191909216929183917f1cf2de25c5bf439ac0287061c3a0fa69b3b02867d0ccfd2ded34e42577050b739190a35050565b61105f8383836001611226565b505050565b6001600160a01b038381166000908152600160209081526040808320938616835292905220546000198114610cc957818110156110cd57604051637dc7a0d960e11b81526001600160a01b03841660048201526024810182905260448101839052606401610711565b610cc984848484036000611226565b6001600160a01b03831661110657604051634b637e8f60e11b815260006004820152602401610711565b6001600160a01b0382166111305760405163ec442f0560e01b815260006004820152602401610711565b61105f8383836112fb565b6001600160a01b0382166111655760405163ec442f0560e01b815260006004820152602401610711565b61080d600083836112fb565b6001600160a01b03821661119b57604051634b637e8f60e11b815260006004820152602401610711565b61080d826000836112fb565b6005546001600160a01b031633146109415760405163118cdaa760e01b8152336004820152602401610711565b600580546001600160a01b038381166001600160a01b0319831681179093556040519116919082907f8be0079c531659141344cd1fd0a4f28419497f9722a3daafe3b4186f6b6457e090600090a35050565b6001600160a01b0384166112505760405163e602df0560e01b815260006004820152602401610711565b6001600160a01b03831661127a57604051634a1406b160e11b815260006004820152602401610711565b6001600160a01b0380851660009081526001602090815260408083209387168352929052208290558015610cc957826001600160a01b0316846001600160a01b03167f8c5be1e5ebec7d5bd14f71427d1e84f3dd0314c0f7b2291e5b200ac8c7c3b925846040516112ed91815260200190565b60405180910390a350505050565b6001600160a01b038316158061131857506001600160a01b038216155b156113285761105f838383611523565b6001600160a01b03831660009081526009602052604090205460ff168061136757506001600160a01b03821660009081526009602052604090205460ff165b156113775761105f838383611523565b6000612710611387600a846118ac565b61139191906118c3565b905060006127106113a3600a856118ac565b6113ad91906118c3565b905068056bc75e2d6310000083106113d457811580156113cb575080155b156113d4575060015b6000816113e184866118e5565b6113eb91906118e5565b9050821561146b576a115eec47f6cf7e3500000061140860025490565b11611446576008546114259087906001600160a01b031685611523565b82600b60008282546114379190611899565b909155506000935061146b9050565b6114538661dead85611523565b82600a60008282546114659190611899565b90915550505b60008211801561148557506008546001600160a01b031615155b156114ba576008546114a29087906001600160a01b031684611523565b81600b60008282546114b49190611899565b90915550505b6114c5868683611523565b846001600160a01b0316866001600160a01b03167fddb30886d90db45adc1b2edcbabe12227896c25143cd155d3bf62ec8eff678568585604051611513929190918252602082015260400190565b60405180910390a3505050505050565b6001600160a01b03831661154e5780600260008282546115439190611899565b909155506115c09050565b6001600160a01b038316600090815260208190526040902054818110156115a15760405163391434e360e21b81526001600160a01b03851660048201526024810182905260448101839052606401610711565b6001600160a01b03841660009081526020819052604090209082900390555b6001600160a01b0382166115dc576002805482900390556115fb565b6001600160a01b03821660009081526020819052604090208054820190555b816001600160a01b0316836001600160a01b03167fddf252ad1be2c89b69c2b068fc378daa952ba7f163c4a11628f55a4df523b3ef8360405161164091815260200190565b60405180910390a3505050565b600060208083528351808285015260005b8181101561167a5785810183015185820160400152820161165e565b506000604082860101526040601f19601f8301168501019250505092915050565b80356001600160a01b03811681146116b257600080fd5b919050565b600080604083850312156116ca57600080fd5b6116d38361169b565b946020939093013593505050565b6000806000606084860312156116f657600080fd5b6116ff8461169b565b925061170d6020850161169b565b9150604084013590509250925092565b60006020828403121561172f57600080fd5b5035919050565b60006020828403121561174857600080fd5b6117518261169b565b9392505050565b6000806040838503121561176b57600080fd5b6117748361169b565b91506117826020840161169b565b90509250929050565b803580151581146116b257600080fd5b6000806000604084860312156117b057600080fd5b833567ffffffffffffffff808211156117c857600080fd5b818601915086601f8301126117dc57600080fd5b8135818111156117eb57600080fd5b8760208260051b850101111561180057600080fd5b602092830195509350611816918601905061178b565b90509250925092565b6000806040838503121561183257600080fd5b61183b8361169b565b91506117826020840161178b565b600181811c9082168061185d57607f821691505b60208210810361187d57634e487b7160e01b600052602260045260246000fd5b50919050565b634e487b7160e01b600052601160045260246000fd5b808201808211156106a4576106a4611883565b80820281158282048414176106a4576106a4611883565b6000826118e057634e487b7160e01b600052601260045260246000fd5b500490565b818103818111156106a4576106a4611883565b634e487b7160e01b600052603260045260246000fd5b60006001820161192057611920611883565b506001019056feea5814d1cf99e5f6aee98da410ea4adcdbe5ded97855de3b25144b0898d0be4aa26469706673582212208d06c43a7b9eeff30a45bf9c964994babb50a41583adb110513cd14cb2b974f264736f6c63430008140033",
  "linkReferences": {},
  "deployedLinkReferences": {}
}