{
  "_format": "hh-sol-artifact-1",
  "contractName": "IvyToken",
  "sourceName": "contracts/IvyToken.sol",
  "abi": [
    {
      "inputs": [
        {
          "internalType": "address",
          "name": "_operationsWallet",
          "type": "address"
        }
      ],
      "stateMutability": "nonpayable",
      "type": "constructor"
    },
    {
      "inputs": [
        {
          "internalType": "address",
          "name": "spender",
          "type": "address"
        },
        {
          "internalType": "uint256",
          "name": "allowance",
          "type": "uint256"
        },
        {
          "internalType": "uint256",
          "name": "needed",
          "type": "uint256"
        }
      ],
      "name": "ERC20InsufficientAllowance",
      "type": "error"
    },
    {
      "inputs": [
        {
          "internalType": "address",
          "name": "sender",
          "type": "address"
        },
        {
          "internalType": "uint256",
          "name": "balance",
          "type": "uint256"
        },
        {
          "internalType": "uint256",
          "name": "needed",
          "type": "uint256"
        }
      ],
      "name": "ERC20InsufficientBalance",
      "type": "error"
    },
    {
      "inputs": [
        {
          "internalType": "address",
          "name": "approver",
          "type": "address"
        }
      ],
      "name": "ERC20InvalidApprover",
      "type": "error"
    },
    {
      "inputs": [
        {
          "internalType": "address",
          "name": "receiver",
          "type": "address"
        }
      ],
      "name": "ERC20InvalidReceiver",
      "type": "error"
    },
    {
      "inputs": [
        {
          "internalType": "address",
          "name": "sender",
          "type": "address"
        }
      ],
      "name": "ERC20InvalidSender",
      "type": "error"
    },
    {
      "inputs": [
        {
          "internalType": "address",
          "name": "spender",
          "type": "address"
        }
      ],
      "name": "ERC20InvalidSpender",
      "type": "error"
    },
    {
      "inputs": [
        {
          "internalType": "address",
          "name": "owner",
          "type": "address"
        }
      ],
      "name": "OwnableInvalidOwner",
      "type": "error"
    },
    {
      "inputs": [
        {
          "internalType": "address",
          "name": "account",
          "type": "address"
        }
      ],
      "name": "OwnableUnauthorizedAccount",
      "type": "error"
    },
    {
      "anonymous": false,
      "inputs": [
        {
          "indexed": true,
          "internalType": "address",
          "name": "owner",
          "type": "address"
        },
        {
          "indexed": true,
          "internalType": "address",
          "name": "spender",
          "type": "address"
        },
        {
          "indexed": false,
          "internalType": "uint256",
          "name": "value",
          "type": "uint256"
        }
      ],
      "name": "Approval",
      "type": "event"
    },
    {
      "anonymous": false,
      "inputs": [
        {
          "indexed": true,
          "internalType": "address",
          "name": "account",
          "type": "address"
        },
        {
          "indexed": false,
          "internalType": "bool",
          "name": "excluded",
          "type": "bool"
        }
      ],
      "name": "ExcludedFromTax",
      "type": "event"
    },
    {
      "anonymous": false,
      "inputs": [
        {
          "indexed": true,
          "internalType": "address",
          "name": "oldLPMinter",
          "type": "address"
        },
        {
          "indexed": true,
          "internalType": "address",
          "name": "newLPMinter",
          "type": "address"
        }
      ],
      "name": "LPMinterUpdated",
      "type": "event"
    },
    {
      "anonymous": false,
      "inputs": [
        {
          "indexed": true,
          "internalType": "address",
          "name": "oldMinter",
          "type": "address"
        },
        {
          "indexed": true,
          "internalType": "address",
          "name": "newMinter",
          "type": "address"
        }
      ],
      "name": "MinterUpdated",
      "type": "event"
    },
    {
      "anonymous": false,
      "inputs": [
        {
          "indexed": true,
          "internalType": "address",
          "name": "oldWallet",
          "type": "address"
        },
        {
          "indexed": true,
          "internalType": "address",
          "name": "newWallet",
          "type": "address"
        }
      ],
      "name": "OperationsWalletUpdated",
      "type": "event"
    },
    {
      "anonymous": false,
      "inputs": [
        {
          "indexed": true,
          "internalType": "address",
          "name": "previousOwner",
          "type": "address"
        },
        {
          "indexed": true,
          "internalType": "address",
          "name": "newOwner",
          "type": "address"
        }
      ],
      "name": "OwnershipTransferred",
      "type": "event"
    },
    {
      "anonymous": false,
      "inputs": [
        {
          "indexed": true,
          "internalType": "address",
          "name": "from",
          "type": "address"
        },
        {
          "indexed": true,
          "internalType": "address",
          "name": "to",
          "type": "address"
        },
        {
          "indexed": false,
          "internalType": "uint256",
          "name": "burnAmount",
          "type": "uint256"
        },
        {
          "indexed": false,
          "internalType": "uint256",
          "name": "opsAmount",
          "type": "uint256"
        }
      ],
      "name": "TaxCollected",
      "type": "event"
    },
    {
      "anonymous": false,
      "inputs": [
        {
          "indexed": true,
          "internalType": "address",
          "name": "from",
          "type": "address"
        },
        {
          "indexed": true,
          "internalType": "address",
          "name": "to",
          "type": "address"
        },
        {
          "indexed": false,
          "internalType": "uint256",
          "name": "value",
          "type": "uint256"
        }
      ],
      "name": "Transfer",
      "type": "event"
    },
    {
      "inputs": [],
      "name": "BASIS_POINTS",
      "outputs": [
        {
          "internalType": "uint256",
          "name": "",
          "type": "uint256"
        }
      ],
      "stateMutability": "view",
      "type": "function"
    },
    {
      "inputs": [],
      "name": "BURN_RATE",
      "outputs": [
        {
          "internalType": "uint256",
          "name": "",
          "type": "uint256"
        }
      ],
      "stateMutability": "view",
      "type": "function"
    },
    {
      "inputs": [],
      "name": "DEAD_ADDRESS",
      "outputs": [
        {
          "internalType": "address",
          "name": "",
          "type": "address"
        }
      ],
      "stateMutability": "view",
      "type": "function"
    },
    {
      "inputs": [],
      "name": "GOLDEN_PIVOT",
      "outputs": [
        {
          "internalType": "uint256",
          "name": "",
          "type": "uint256"
        }
      ],
      "stateMutability": "view",
      "type": "function"
    },
    {
      "inputs": [],
      "name": "LP_RESERVE_CAP",
      "outputs": [
        {
          "internalType": "uint256",
          "name": "",
          "type": "uint256"
        }
      ],
      "stateMutability": "view",
      "type": "function"
    },
    {
      "inputs": [],
      "name": "MINING_ALLOCATION",
      "outputs": [
        {
          "internalType": "uint256",
          "name": "",
          "type": "uint256"
        }
      ],
      "stateMutability": "view",
      "type": "function"
    },
    {
      "inputs": [],
      "name": "OPS_RATE",
      "outputs": [
        {
          "internalType": "uint256",
          "name": "",
          "type": "uint256"
        }
      ],
      "stateMutability": "view",
      "type": "function"
    },
    {
      "inputs": [],
      "name": "PRE_MINT_AMOUNT",
      "outputs": [
        {
          "internalType": "uint256",
          "name": "",
          "type": "uint256"
        }
      ],
      "stateMutability": "view",
      "type": "function"
    },
    {
      "inputs": [],
      "name": "TAX_RATE",
      "outputs": [
        {
          "internalType": "uint256",
          "name": "",
          "type": "uint256"
        }
      ],
      "stateMutability": "view",
      "type": "function"
    },
    {
      "inputs": [],
      "name": "TOTAL_SUPPLY_CAP",
      "outputs": [
        {
          "internalType": "uint256",
          "name": "",
          "type": "uint256"
        }
      ],
      "stateMutability": "view",
      "type": "function"
    },
    {
      "inputs": [
        {
          "internalType": "address",
          "name": "owner",
          "type": "address"
        },
        {
          "internalType": "address",
          "name": "spender",
          "type": "address"
        }
      ],
      "name": "allowance",
      "outputs": [
        {
          "internalType": "uint256",
          "name": "",
          "type": "uint256"
        }
      ],
      "stateMutability": "view",
      "type": "function"
    },
    {
      "inputs": [
        {
          "internalType": "address",
          "name": "spender",
          "type": "address"
        },
        {
          "internalType": "uint256",
          "name": "value",
          "type": "uint256"
        }
      ],
      "name": "approve",
      "outputs": [
        {
          "internalType": "bool",
          "name": "",
          "type": "bool"
        }
      ],
      "stateMutability": "nonpayable",
      "type": "function"
    },
    {
      "inputs": [
        {
          "internalType": "address",
          "name": "account",
          "type": "address"
        }
      ],
      "name": "balanceOf",
      "outputs": [
        {
          "internalType": "uint256",
          "name": "",
          "type": "uint256"
        }
      ],
      "stateMutability": "view",
      "type": "function"
    },
    {
      "inputs": [
        {
          "internalType": "address[]",
          "name": "accounts",
          "type": "address[]"
        },
        {
          "internalType": "bool",
          "name": "excluded",
          "type": "bool"
        }
      ],
      "name": "batchSetExcludedFromTax",
      "outputs": [],
      "stateMutability": "nonpayable",
      "type": "function"
    },
    {
      "inputs": [
        {
          "internalType": "uint256",
          "name": "amount",
          "type": "uint256"
        }
      ],
      "name": "burn",
      "outputs": [],
      "stateMutability": "nonpayable",
      "type": "function"
    },
    {
      "inputs": [
        {
          "internalType": "address",
          "name": "account",
          "type": "address"
        },
        {
          "internalType": "uint256",
          "name": "amount",
          "type": "uint256"
        }
      ],
      "name": "burnFrom",
      "outputs": [],
      "stateMutability": "nonpayable",
      "type": "function"
    },
    {
      "inputs": [
        {
          "internalType": "uint256",
          "name": "amount",
          "type": "uint256"
        }
      ],
      "name": "calculateTax",
      "outputs": [
        {
          "internalType": "uint256",
          "name": "burnAmount",
          "type": "uint256"
        },
        {
          "internalType": "uint256",
          "name": "opsAmount",
          "type": "uint256"
        },
        {
          "internalType": "uint256",
          "name": "netAmount",
          "type": "uint256"
        }
      ],
      "stateMutability": "pure",
      "type": "function"
    },
    {
      "inputs": [
        {
          "internalType": "address",
          "name": "account",
          "type": "address"
        }
      ],
      "name": "checkExcluded",
      "outputs": [
        {
          "internalType": "bool",
          "name": "",
          "type": "bool"
        }
      ],
      "stateMutability": "view",
      "type": "function"
    },
    {
      "inputs": [],
      "name": "decimals",
      "outputs": [
        {
          "internalType": "uint8",
          "name": "",
          "type": "uint8"
        }
      ],
      "stateMutability": "view",
      "type": "function"
    },
    {
      "inputs": [
        {
          "internalType": "address",
          "name": "daoWallet",
          "type": "address"
        },
        {
          "internalType": "address",
          "name": "airdropWallet",
          "type": "address"
        },
        {
          "internalType": "address",
          "name": "liquidityWallet",
          "type": "address"
        }
      ],
      "name": "distributePreMint",
      "outputs": [],
      "stateMutability": "nonpayable",
      "type": "function"
    },
    {
      "inputs": [],
      "name": "getTaxStats",
      "outputs": [
        {
          "internalType": "uint256",
          "name": "_totalBurned",
          "type": "uint256"
        },
        {
          "internalType": "uint256",
          "name": "_totalOpsCollected",
          "type": "uint256"
        },
        {
          "internalType": "uint256",
          "name": "_taxRate",
          "type": "uint256"
        },
        {
          "internalType": "address",
          "name": "_operationsWallet",
          "type": "address"
        }
      ],
      "stateMutability": "view",
      "type": "function"
    },
    {
      "inputs": [
        {
          "internalType": "address",
          "name": "",
          "type": "address"
        }
      ],
      "name": "isExcludedFromTax",
      "outputs": [
        {
          "internalType": "bool",
          "name": "",
          "type": "bool"
        }
      ],
      "stateMutability": "view",
      "type": "function"
    },
    {
      "inputs": [],
      "name": "lpMinter",
      "outputs": [
        {
          "internalType": "address",
          "name": "",
          "type": "address"
        }
      ],
      "stateMutability": "view",
      "type": "function"
    },
    {
      "inputs": [],
      "name": "lpMinterUsed",
      "outputs": [
        {
          "internalType": "uint256",
          "name": "",
          "type": "uint256"
        }
      ],
      "stateMutability": "view",
      "type": "function"
    },
    {
      "inputs": [
        {
          "internalType": "address",
          "name": "to",
          "type": "address"
        },
        {
          "internalType": "uint256",
          "name": "amount",
          "type": "uint256"
        }
      ],
      "name": "mint",
      "outputs": [],
      "stateMutability": "nonpayable",
      "type": "function"
    },
    {
      "inputs": [
        {
          "internalType": "address",
          "name": "to",
          "type": "address"
        },
        {
          "internalType": "uint256",
          "name": "amount",
          "type": "uint256"
        }
      ],
      "name": "mintForLP",
      "outputs": [],
      "stateMutability": "nonpayable",
      "type": "function"
    },
    {
      "inputs": [],
      "name": "minter",
      "outputs": [
        {
          "internalType": "address",
          "name": "",
          "type": "address"
        }
      ],
      "stateMutability": "view",
      "type": "function"
    },
    {
      "inputs": [],
      "name": "minterUsed",
      "outputs": [
        {
          "internalType": "uint256",
          "name": "",
          "type": "uint256"
        }
      ],
      "stateMutability": "view",
      "type": "function"
    },
    {
      "inputs": [],
      "name": "name",
      "outputs": [
        {
          "internalType": "string",
          "name": "",
          "type": "string"
        }
      ],
      "stateMutability": "view",
      "type": "function"
    },
    {
      "inputs": [],
      "name": "operationsWallet",
      "outputs": [
        {
          "internalType": "address",
          "name": "",
          "type": "address"
        }
      ],
      "stateMutability": "view",
      "type": "function"
    },
    {
      "inputs": [],
      "name": "owner",
      "outputs": [
        {
          "internalType": "address",
          "name": "",
          "type": "address"
        }
      ],
      "stateMutability": "view",
      "type": "function"
    },
    {
      "inputs": [],
      "name": "preMintDistributed",
      "outputs": [
        {
          "internalType": "bool",
          "name": "",
          "type": "bool"
        }
      ],
      "stateMutability": "view",
      "type": "function"
    },
    {
      "inputs": [],
      "name": "renounceOwnership",
      "outputs": [],
      "stateMutability": "nonpayable",
      "type": "function"
    },
    {
      "inputs": [
        {
          "internalType": "address",
          "name": "account",
          "type": "address"
        },
        {
          "internalType": "bool",
          "name": "excluded",
          "type": "bool"
        }
      ],
      "name": "setExcludedFromTax",
      "outputs": [],
      "stateMutability": "nonpayable",
      "type": "function"
    },
    {
      "inputs": [
        {
          "internalType": "address",
          "name": "_lpMinter",
          "type": "address"
        }
      ],
      "name": "setLPMinter",
      "outputs": [],
      "stateMutability": "nonpayable",
      "type": "function"
    },
    {
      "inputs": [
        {
          "internalType": "address",
          "name": "_minter",
          "type": "address"
        }
      ],
      "name": "setMinter",
      "outputs": [],
      "stateMutability": "nonpayable",
      "type": "function"
    },
    {
      "inputs": [
        {
          "internalType": "address",
          "name": "_wallet",
          "type": "address"
        }
      ],
      "name": "setOperationsWallet",
      "outputs": [],
      "stateMutability": "nonpayable",
      "type": "function"
    },
    {
      "inputs": [],
      "name": "symbol",
      "outputs": [
        {
          "internalType": "string",
          "name": "",
          "type": "string"
        }
      ],
      "stateMutability": "view",
      "type": "function"
    },
    {
      "inputs": [],
      "name": "totalBurned",
      "outputs": [
        {
          "internalType": "uint256",
          "name": "",
          "type": "uint256"
        }
      ],
      "stateMutability": "view",
      "type": "function"
    },
    {
      "inputs": [],
      "name": "totalOpsCollected",
      "outputs": [
        {
          "internalType": "uint256",
          "name": "",
          "type": "uint256"
        }
      ],
      "stateMutability": "view",
      "type": "function"
    },
    {
      "inputs": [],
      "name": "totalSupply",
      "outputs": [
        {
          "internalType": "uint256",
          "name": "",
          "type": "uint256"
        }
      ],
      "stateMutability": "view",
      "type": "function"
    },
    {
      "inputs": [
        {
          "internalType": "address",
          "name": "to",
          "type": "address"
        },
        {
          "internalType": "uint256",
          "name": "value",
          "type": "uint256"
        }
      ],
      "name": "transfer",
      "outputs": [
        {
          "internalType": "bool",
          "name": "",
          "type": "bool"
        }
      ],
      "stateMutability": "nonpayable",
      "type": "function"
    },
    {
      "inputs": [
        {
          "internalType": "address",
          "name": "from",
          "type": "address"
        },
        {
          "internalType": "address",
          "name": "to",
          "type": "address"
        },
        {
          "internalType": "uint256",
          "name": "value",
          "type": "uint256"
        }
      ],
      "name": "transferFrom",
      "outputs": [
        {
          "internalType": "bool",
          "name": "",
          "type": "bool"
        }
      ],
      "stateMutability": "nonpayable",
      "type": "function"
    },
    {
      "inputs": [
        {
          "internalType": "address",
          "name": "newOwner",
          "type": "address"
        }
      ],
      "name": "transferOwnership",
      "outputs": [],
      "stateMutability": "nonpayable",
      "type": "function"
    }
  ],
  "bytecode": "0x60806040523480156200001157600080fd5b506040516200471b3803806200471b833981810160405281019062000037919062000af6565b336040518060400160405280600c81526020017f4976792050726f746f636f6c00000000000000000000000000000000000000008152506040518060400160405280600381526020017f49565900000000000000000000000000000000000000000000000000000000008152508160039081620000b5919062000da2565b508060049081620000c7919062000da2565b505050600073ffffffffffffffffffffffffffffffffffffffff168173ffffffffffffffffffffffffffffffffffffffff16036200013f5760006040517f1e4fbdf700000000000000000000000000000000000000000000000000000000815260040162000136919062000e9a565b60405180910390fd5b62000150816200033260201b60201c565b50600073ffffffffffffffffffffffffffffffffffffffff168173ffffffffffffffffffffffffffffffffffffffff1603620001c3576040517f08c379a0000000000000000000000000000000000000000000000000000000008152600401620001ba9062000f18565b60405180910390fd5b80600860006101000a81548173ffffffffffffffffffffffffffffffffffffffff021916908373ffffffffffffffffffffffffffffffffffffffff1602179055506001600960003373ffffffffffffffffffffffffffffffffffffffff1673ffffffffffffffffffffffffffffffffffffffff16815260200190815260200160002060006101000a81548160ff02191690831515021790555060016009600061dead73ffffffffffffffffffffffffffffffffffffffff1673ffffffffffffffffffffffffffffffffffffffff16815260200190815260200160002060006101000a81548160ff0219169083151502179055506001600960008373ffffffffffffffffffffffffffffffffffffffff1673ffffffffffffffffffffffffffffffffffffffff16815260200190815260200160002060006101000a81548160ff0219169083151502179055506200032b816a18d0bf423c03d8de000000620003f860201b60201c565b5062001129565b6000600560009054906101000a900473ffffffffffffffffffffffffffffffffffffffff16905081600560006101000a81548173ffffffffffffffffffffffffffffffffffffffff021916908373ffffffffffffffffffffffffffffffffffffffff1602179055508173ffffffffffffffffffffffffffffffffffffffff168173ffffffffffffffffffffffffffffffffffffffff167f8be0079c531659141344cd1fd0a4f28419497f9722a3daafe3b4186f6b6457e060405160405180910390a35050565b600073ffffffffffffffffffffffffffffffffffffffff168273ffffffffffffffffffffffffffffffffffffffff16036200046d5760006040517fec442f0500000000000000000000000000000000000000000000000000000000815260040162000464919062000e9a565b60405180910390fd5b62000481600083836200048560201b60201c565b5050565b600073ffffffffffffffffffffffffffffffffffffffff168373ffffffffffffffffffffffffffffffffffffffff161480620004ed5750600073ffffffffffffffffffffffffffffffffffffffff168273ffffffffffffffffffffffffffffffffffffffff16145b156200050c57620005068383836200085260201b60201c565b6200084d565b600960008473ffffffffffffffffffffffffffffffffffffffff1673ffffffffffffffffffffffffffffffffffffffff16815260200190815260200160002060009054906101000a900460ff1680620005ae5750600960008373ffffffffffffffffffffffffffffffffffffffff1673ffffffffffffffffffffffffffffffffffffffff16815260200190815260200160002060009054906101000a900460ff165b15620005cd57620005c78383836200085260201b60201c565b6200084d565b6000612710600a83620005e1919062000f69565b620005ed919062000fe3565b90506000612710600a8462000603919062000f69565b6200060f919062000fe3565b905068056bc75e2d6310000083106200063f57600082148015620006335750600081145b156200063e57600190505b5b60008183856200065091906200101b565b6200065c91906200101b565b9050600083111562000716576a115eec47f6cf7e350000006200068462000a8260201b60201c565b11620006e457620006bf86600860009054906101000a900473ffffffffffffffffffffffffffffffffffffffff16856200085260201b60201c565b82600b6000828254620006d3919062001056565b925050819055506000925062000715565b620006f98661dead856200085260201b60201c565b82600a60008282546200070d919062001056565b925050819055505b5b600082118015620007765750600073ffffffffffffffffffffffffffffffffffffffff16600860009054906101000a900473ffffffffffffffffffffffffffffffffffffffff1673ffffffffffffffffffffffffffffffffffffffff1614155b15620007cd57620007b186600860009054906101000a900473ffffffffffffffffffffffffffffffffffffffff16846200085260201b60201c565b81600b6000828254620007c5919062001056565b925050819055505b620007e08686836200085260201b60201c565b8473ffffffffffffffffffffffffffffffffffffffff168673ffffffffffffffffffffffffffffffffffffffff167fddb30886d90db45adc1b2edcbabe12227896c25143cd155d3bf62ec8eff67856858560405162000841929190620010a2565b60405180910390a35050505b505050565b600073ffffffffffffffffffffffffffffffffffffffff168373ffffffffffffffffffffffffffffffffffffffff1603620008a85780600260008282546200089b919062001056565b925050819055506200097e565b60008060008573ffffffffffffffffffffffffffffffffffffffff1673ffffffffffffffffffffffffffffffffffffffff1681526020019081526020016000205490508181101562000937578381836040517fe450d38c0000000000000000000000000000000000000000000000000000000081526004016200092e93929190620010cf565b60405180910390fd5b8181036000808673ffffffffffffffffffffffffffffffffffffffff1673ffffffffffffffffffffffffffffffffffffffff16815260200190815260200160002081905550505b600073ffffffffffffffffffffffffffffffffffffffff168273ffffffffffffffffffffffffffffffffffffffff1603620009c9578060026000828254039250508190555062000a16565b806000808473ffffffffffffffffffffffffffffffffffffffff1673ffffffffffffffffffffffffffffffffffffffff168152602001908152602001600020600082825401925050819055505b8173ffffffffffffffffffffffffffffffffffffffff168373ffffffffffffffffffffffffffffffffffffffff167fddf252ad1be2c89b69c2b068fc378daa952ba7f163c4a11628f55a4df523b3ef8360405162000a7591906200110c565b60405180910390a3505050565b6000600254905090565b600080fd5b600073ffffffffffffffffffffffffffffffffffffffff82169050919050565b600062000abe8262000a91565b9050919050565b62000ad08162000ab1565b811462000adc57600080fd5b50565b60008151905062000af08162000ac5565b92915050565b60006020828403121562000b0f5762000b0e62000a8c565b5b600062000b1f8482850162000adf565b91505092915050565b600081519050919050565b7f4e487b7100000000000000000000000000000000000000000000000000000000600052604160045260246000fd5b7f4e487b7100000000000000000000000000000000000000000000000000000000600052602260045260246000fd5b6000600282049050600182168062000baa57607f821691505b60208210810362000bc05762000bbf62000b62565b5b50919050565b60008190508160005260206000209050919050565b60006020601f8301049050919050565b600082821b905092915050565b60006008830262000c2a7fffffffffffffffffffffffffffffffffffffffffffffffffffffffffffffffff8262000beb565b62000c36868362000beb565b95508019841693508086168417925050509392505050565b6000819050919050565b6000819050919050565b600062000c8362000c7d62000c778462000c4e565b62000c58565b62000c4e565b9050919050565b6000819050919050565b62000c9f8362000c62565b62000cb762000cae8262000c8a565b84845462000bf8565b825550505050565b600090565b62000cce62000cbf565b62000cdb81848462000c94565b505050565b5b8181101562000d035762000cf760008262000cc4565b60018101905062000ce1565b5050565b601f82111562000d525762000d1c8162000bc6565b62000d278462000bdb565b8101602085101562000d37578190505b62000d4f62000d468562000bdb565b83018262000ce0565b50505b505050565b600082821c905092915050565b600062000d776000198460080262000d57565b1980831691505092915050565b600062000d92838362000d64565b9150826002028217905092915050565b62000dad8262000b28565b67ffffffffffffffff81111562000dc95762000dc862000b33565b5b62000dd5825462000b91565b62000de282828562000d07565b600060209050601f83116001811462000e1a576000841562000e05578287015190505b62000e11858262000d84565b86555062000e81565b601f19841662000e2a8662000bc6565b60005b8281101562000e545784890151825560018201915060208501945060208101905062000e2d565b8683101562000e74578489015162000e70601f89168262000d64565b8355505b6001600288020188555050505b505050505050565b62000e948162000ab1565b82525050565b600060208201905062000eb1600083018462000e89565b92915050565b600082825260208201905092915050565b7f496e76616c6964206f7065726174696f6e732077616c6c657400000000000000600082015250565b600062000f0060198362000eb7565b915062000f0d8262000ec8565b602082019050919050565b6000602082019050818103600083015262000f338162000ef1565b9050919050565b7f4e487b7100000000000000000000000000000000000000000000000000000000600052601160045260246000fd5b600062000f768262000c4e565b915062000f838362000c4e565b925082820262000f938162000c4e565b9150828204841483151762000fad5762000fac62000f3a565b5b5092915050565b7f4e487b7100000000000000000000000000000000000000000000000000000000600052601260045260246000fd5b600062000ff08262000c4e565b915062000ffd8362000c4e565b92508262001010576200100f62000fb4565b5b828204905092915050565b6000620010288262000c4e565b9150620010358362000c4e565b925082820390508181111562001050576200104f62000f3a565b5b92915050565b6000620010638262000c4e565b9150620010708362000c4e565b92508282019050808211156200108b576200108a62000f3a565b5b92915050565b6200109c8162000c4e565b82525050565b6000604082019050620010b9600083018562001091565b620010c8602083018462001091565b9392505050565b6000606082019050620010e6600083018662000e89565b620010f5602083018562001091565b62001104604083018462001091565b949350505050565b600060208201905062001123600083018462001091565b92915050565b6135e280620011396000396000f3fe608060405234801561001057600080fd5b50600436106102745760003560e01c806383f170be11610151578063cb4ca631116100c3578063f2fde38b11610087578063f2fde38b1461075c578063f846a88514610778578063f84ec03614610796578063fca3b5aa146107b4578063fd72e22a146107d0578063fec5d984146107ee57610274565b8063cb4ca631146106a4578063d89135cd146106d4578063dd62ed3e146106f2578063e1f1c4a714610722578063ee5ecc891461074057610274565b8063a9059cbb11610115578063a9059cbb146105e1578063b4ad41cf14610611578063bdeaa77214610632578063beaa628b14610650578063c19725011461066c578063c2ed286b1461068857610274565b806383f170be1461054b5780638da5cb5b1461056957806395d89b41146105875780639a821cb7146105a5578063a76d21f5146105c357610274565b80634e6fd6c4116101ea578063715018a6116101ae578063715018a61461049b57806378b1833b146104a557806379cc6790146104c35780637cb52737146104df5780637d4862101461050f5780637d8d37631461052d57610274565b80634e6fd6c4146103f75780635a846e431461041557806365629e7a146104335780636a3adf3c1461044f57806370a082311461046b57610274565b8063313ce5671161023c578063313ce5671461033357806335a178b01461035157806340c10f191461036f57806342966c681461038b578063483a9310146103a757806348931352146103d957610274565b806306fdde03146102795780630754617214610297578063095ea7b3146102b557806318160ddd146102e557806323b872dd14610303575b600080fd5b61028161080c565b60405161028e91906128ec565b60405180910390f35b61029f61089e565b6040516102ac919061294f565b60405180910390f35b6102cf60048036038101906102ca91906129d6565b6108c4565b6040516102dc9190612a31565b60405180910390f35b6102ed6108e7565b6040516102fa9190612a5b565b60405180910390f35b61031d60048036038101906103189190612a76565b6108f1565b60405161032a9190612a31565b60405180910390f35b61033b610920565b6040516103489190612ae5565b60405180910390f35b610359610929565b6040516103669190612a5b565b60405180910390f35b610389600480360381019061038491906129d6565b610938565b005b6103a560048036038101906103a09190612b00565b610aaa565b005b6103c160048036038101906103bc9190612b00565b610ab7565b6040516103d093929190612b2d565b60405180910390f35b6103e1610b14565b6040516103ee9190612a5b565b60405180910390f35b6103ff610b23565b60405161040c919061294f565b60405180910390f35b61041d610b29565b60405161042a9190612a5b565b60405180910390f35b61044d60048036038101906104489190612b64565b610b38565b005b61046960048036038101906104649190612b91565b610ccd565b005b61048560048036038101906104809190612b64565b611141565b6040516104929190612a5b565b60405180910390f35b6104a3611189565b005b6104ad61119d565b6040516104ba9190612a5b565b60405180910390f35b6104dd60048036038101906104d891906129d6565b6111ac565b005b6104f960048036038101906104f49190612b64565b61124a565b6040516105069190612a31565b60405180910390f35b6105176112a0565b6040516105249190612a5b565b60405180910390f35b6105356112a6565b6040516105429190612a5b565b60405180910390f35b6105536112ab565b6040516105609190612a5b565b60405180910390f35b6105716112b0565b60405161057e919061294f565b60405180910390f35b61058f6112da565b60405161059c91906128ec565b60405180910390f35b6105ad61136c565b6040516105ba9190612a5b565b60405180910390f35b6105cb611372565b6040516105d89190612a5b565b60405180910390f35b6105fb60048036038101906105f691906129d6565b611381565b6040516106089190612a31565b60405180910390f35b6106196113a4565b6040516106299493929190612be4565b60405180910390f35b61063a6113e3565b604051610647919061294f565b60405180910390f35b61066a60048036038101906106659190612cba565b611409565b005b610686600480360381019061068191906129d6565b6115c1565b005b6106a2600480360381019061069d9190612d1a565b611733565b005b6106be60048036038101906106b99190612b64565b611853565b6040516106cb9190612a31565b60405180910390f35b6106dc611873565b6040516106e99190612a5b565b60405180910390f35b61070c60048036038101906107079190612d5a565b611879565b6040516107199190612a5b565b60405180910390f35b61072a611900565b6040516107379190612a5b565b60405180910390f35b61075a60048036038101906107559190612b64565b611906565b005b61077660048036038101906107719190612b64565b611a9b565b005b610780611b21565b60405161078d9190612a5b565b60405180910390f35b61079e611b26565b6040516107ab9190612a5b565b60405180910390f35b6107ce60048036038101906107c99190612b64565b611b2c565b005b6107d8611cc1565b6040516107e5919061294f565b60405180910390f35b6107f6611ce7565b6040516108039190612a31565b60405180910390f35b60606003805461081b90612dc9565b80601f016020809104026020016040519081016040528092919081815260200182805461084790612dc9565b80156108945780601f1061086957610100808354040283529160200191610894565b820191906000526020600020905b81548152906001019060200180831161087757829003601f168201915b5050505050905090565b600660009054906101000a900473ffffffffffffffffffffffffffffffffffffffff1681565b6000806108cf611cfa565b90506108dc818585611d02565b600191505092915050565b6000600254905090565b6000806108fc611cfa565b9050610909858285611d14565b610914858585611da8565b60019150509392505050565b60006012905090565b6a39e7139a8c08fa0600000081565b600660009054906101000a900473ffffffffffffffffffffffffffffffffffffffff1673ffffffffffffffffffffffffffffffffffffffff163373ffffffffffffffffffffffffffffffffffffffff16146109c8576040517f08c379a00000000000000000000000000000000000000000000000000000000081526004016109bf90612e46565b60405180910390fd5b6a39e7139a8c08fa0600000081600c546109e29190612e95565b1115610a23576040517f08c379a0000000000000000000000000000000000000000000000000000000008152600401610a1a90612f15565b60405180910390fd5b6a52b7d2dcc80cd2e400000081610a386108e7565b610a429190612e95565b1115610a83576040517f08c379a0000000000000000000000000000000000000000000000000000000008152600401610a7a90612f81565b60405180910390fd5b80600c6000828254610a959190612e95565b92505081905550610aa68282611e9c565b5050565b610ab43382611f1e565b50565b6000806000612710600a85610acc9190612fa1565b610ad69190613012565b9250612710600a85610ae89190612fa1565b610af29190613012565b9150818385610b019190613043565b610b0b9190613043565b90509193909250565b6a52b7d2dcc80cd2e400000081565b61dead81565b6a0c685fa11e01ec6f00000081565b610b40611fa0565b600073ffffffffffffffffffffffffffffffffffffffff168173ffffffffffffffffffffffffffffffffffffffff1603610baf576040517f08c379a0000000000000000000000000000000000000000000000000000000008152600401610ba6906130c3565b60405180910390fd5b6000600760009054906101000a900473ffffffffffffffffffffffffffffffffffffffff16905081600760006101000a81548173ffffffffffffffffffffffffffffffffffffffff021916908373ffffffffffffffffffffffffffffffffffffffff1602179055506001600960008473ffffffffffffffffffffffffffffffffffffffff1673ffffffffffffffffffffffffffffffffffffffff16815260200190815260200160002060006101000a81548160ff0219169083151502179055508173ffffffffffffffffffffffffffffffffffffffff168173ffffffffffffffffffffffffffffffffffffffff167f6e73e9c865f953cedfb7c01afcab01693d5a501d9727f200619056b6b79eb0a360405160405180910390a35050565b610cd5611fa0565b600e60009054906101000a900460ff1615610d25576040517f08c379a0000000000000000000000000000000000000000000000000000000008152600401610d1c9061312f565b60405180910390fd5b600073ffffffffffffffffffffffffffffffffffffffff168373ffffffffffffffffffffffffffffffffffffffff1603610d94576040517f08c379a0000000000000000000000000000000000000000000000000000000008152600401610d8b9061319b565b60405180910390fd5b600073ffffffffffffffffffffffffffffffffffffffff168273ffffffffffffffffffffffffffffffffffffffff1603610e03576040517f08c379a0000000000000000000000000000000000000000000000000000000008152600401610dfa90613207565b60405180910390fd5b600073ffffffffffffffffffffffffffffffffffffffff168173ffffffffffffffffffffffffffffffffffffffff1603610e72576040517f08c379a0000000000000000000000000000000000000000000000000000000008152600401610e6990613273565b60405180910390fd5b6001600e60006101000a81548160ff02191690831515021790555060006a0c685fa11e01ec6f000000905060006a084595161401484a000000905060006a0422ca8b0a00a42500000090506001600960008873ffffffffffffffffffffffffffffffffffffffff1673ffffffffffffffffffffffffffffffffffffffff16815260200190815260200160002060006101000a81548160ff0219169083151502179055506001600960008773ffffffffffffffffffffffffffffffffffffffff1673ffffffffffffffffffffffffffffffffffffffff16815260200190815260200160002060006101000a81548160ff0219169083151502179055506001600960008673ffffffffffffffffffffffffffffffffffffffff1673ffffffffffffffffffffffffffffffffffffffff16815260200190815260200160002060006101000a81548160ff021916908315150217905550610ff2600860009054906101000a900473ffffffffffffffffffffffffffffffffffffffff168785611da8565b61101f600860009054906101000a900473ffffffffffffffffffffffffffffffffffffffff168684611da8565b61104c600860009054906101000a900473ffffffffffffffffffffffffffffffffffffffff168583611da8565b8573ffffffffffffffffffffffffffffffffffffffff167fea5814d1cf99e5f6aee98da410ea4adcdbe5ded97855de3b25144b0898d0be4a60016040516110939190612a31565b60405180910390a28473ffffffffffffffffffffffffffffffffffffffff167fea5814d1cf99e5f6aee98da410ea4adcdbe5ded97855de3b25144b0898d0be4a60016040516110e29190612a31565b60405180910390a28373ffffffffffffffffffffffffffffffffffffffff167fea5814d1cf99e5f6aee98da410ea4adcdbe5ded97855de3b25144b0898d0be4a60016040516111319190612a31565b60405180910390a2505050505050565b60008060008373ffffffffffffffffffffffffffffffffffffffff1673ffffffffffffffffffffffffffffffffffffffff168152602001908152602001600020549050919050565b611191611fa0565b61119b6000612027565b565b6a115eec47f6cf7e3500000081565b600660009054906101000a900473ffffffffffffffffffffffffffffffffffffffff1673ffffffffffffffffffffffffffffffffffffffff163373ffffffffffffffffffffffffffffffffffffffff161461123c576040517f08c379a000000000000000000000000000000000000000000000000000000000815260040161123390612e46565b60405180910390fd5b6112468282611f1e565b5050565b6000600960008373ffffffffffffffffffffffffffffffffffffffff1673ffffffffffffffffffffffffffffffffffffffff16815260200190815260200160002060009054906101000a900460ff169050919050565b600b5481565b600a81565b601481565b6000600560009054906101000a900473ffffffffffffffffffffffffffffffffffffffff16905090565b6060600480546112e990612dc9565b80601f016020809104026020016040519081016040528092919081815260200182805461131590612dc9565b80156113625780601f1061133757610100808354040283529160200191611362565b820191906000526020600020905b81548152906001019060200180831161134557829003601f168201915b5050505050905090565b600d5481565b6a18d0bf423c03d8de00000081565b60008061138c611cfa565b9050611399818585611da8565b600191505092915050565b600080600080600a549350600b54925060149150600860009054906101000a900473ffffffffffffffffffffffffffffffffffffffff16905090919293565b600760009054906101000a900473ffffffffffffffffffffffffffffffffffffffff1681565b611411611fa0565b60005b838390508110156115bb57600073ffffffffffffffffffffffffffffffffffffffff1684848381811061144a57611449613293565b5b905060200201602081019061145f9190612b64565b73ffffffffffffffffffffffffffffffffffffffff16036114b5576040517f08c379a00000000000000000000000000000000000000000000000000000000081526004016114ac9061330e565b60405180910390fd5b81600960008686858181106114cd576114cc613293565b5b90506020020160208101906114e29190612b64565b73ffffffffffffffffffffffffffffffffffffffff1673ffffffffffffffffffffffffffffffffffffffff16815260200190815260200160002060006101000a81548160ff02191690831515021790555083838281811061154657611545613293565b5b905060200201602081019061155b9190612b64565b73ffffffffffffffffffffffffffffffffffffffff167fea5814d1cf99e5f6aee98da410ea4adcdbe5ded97855de3b25144b0898d0be4a836040516115a09190612a31565b60405180910390a280806115b39061332e565b915050611414565b50505050565b600760009054906101000a900473ffffffffffffffffffffffffffffffffffffffff1673ffffffffffffffffffffffffffffffffffffffff163373ffffffffffffffffffffffffffffffffffffffff1614611651576040517f08c379a0000000000000000000000000000000000000000000000000000000008152600401611648906133c2565b60405180910390fd5b6a0c685fa11e01ec6f00000081600d5461166b9190612e95565b11156116ac576040517f08c379a00000000000000000000000000000000000000000000000000000000081526004016116a390613454565b60405180910390fd5b6a52b7d2dcc80cd2e4000000816116c16108e7565b6116cb9190612e95565b111561170c576040517f08c379a000000000000000000000000000000000000000000000000000000000815260040161170390612f81565b60405180910390fd5b80600d600082825461171e9190612e95565b9250508190555061172f8282611e9c565b5050565b61173b611fa0565b600073ffffffffffffffffffffffffffffffffffffffff168273ffffffffffffffffffffffffffffffffffffffff16036117aa576040517f08c379a00000000000000000000000000000000000000000000000000000000081526004016117a19061330e565b60405180910390fd5b80600960008473ffffffffffffffffffffffffffffffffffffffff1673ffffffffffffffffffffffffffffffffffffffff16815260200190815260200160002060006101000a81548160ff0219169083151502179055508173ffffffffffffffffffffffffffffffffffffffff167fea5814d1cf99e5f6aee98da410ea4adcdbe5ded97855de3b25144b0898d0be4a826040516118479190612a31565b60405180910390a25050565b60096020528060005260406000206000915054906101000a900460ff1681565b600a5481565b6000600160008473ffffffffffffffffffffffffffffffffffffffff1673ffffffffffffffffffffffffffffffffffffffff16815260200190815260200160002060008373ffffffffffffffffffffffffffffffffffffffff1673ffffffffffffffffffffffffffffffffffffffff16815260200190815260200160002054905092915050565b61271081565b61190e611fa0565b600073ffffffffffffffffffffffffffffffffffffffff168173ffffffffffffffffffffffffffffffffffffffff160361197d576040517f08c379a0000000000000000000000000000000000000000000000000000000008152600401611974906134c0565b60405180910390fd5b6000600860009054906101000a900473ffffffffffffffffffffffffffffffffffffffff16905081600860006101000a81548173ffffffffffffffffffffffffffffffffffffffff021916908373ffffffffffffffffffffffffffffffffffffffff1602179055506001600960008473ffffffffffffffffffffffffffffffffffffffff1673ffffffffffffffffffffffffffffffffffffffff16815260200190815260200160002060006101000a81548160ff0219169083151502179055508173ffffffffffffffffffffffffffffffffffffffff168173ffffffffffffffffffffffffffffffffffffffff167f086aa05ff00214e2d0c7c02b8a46b2614ad955732e6b43aa8afca69ed1ad76f860405160405180910390a35050565b611aa3611fa0565b600073ffffffffffffffffffffffffffffffffffffffff168173ffffffffffffffffffffffffffffffffffffffff1603611b155760006040517f1e4fbdf7000000000000000000000000000000000000000000000000000000008152600401611b0c919061294f565b60405180910390fd5b611b1e81612027565b50565b600a81565b600c5481565b611b34611fa0565b600073ffffffffffffffffffffffffffffffffffffffff168173ffffffffffffffffffffffffffffffffffffffff1603611ba3576040517f08c379a0000000000000000000000000000000000000000000000000000000008152600401611b9a9061352c565b60405180910390fd5b6000600660009054906101000a900473ffffffffffffffffffffffffffffffffffffffff16905081600660006101000a81548173ffffffffffffffffffffffffffffffffffffffff021916908373ffffffffffffffffffffffffffffffffffffffff1602179055506001600960008473ffffffffffffffffffffffffffffffffffffffff1673ffffffffffffffffffffffffffffffffffffffff16815260200190815260200160002060006101000a81548160ff0219169083151502179055508173ffffffffffffffffffffffffffffffffffffffff168173ffffffffffffffffffffffffffffffffffffffff167f1cf2de25c5bf439ac0287061c3a0fa69b3b02867d0ccfd2ded34e42577050b7360405160405180910390a35050565b600860009054906101000a900473ffffffffffffffffffffffffffffffffffffffff1681565b600e60009054906101000a900460ff1681565b600033905090565b611d0f83838360016120ed565b505050565b6000611d208484611879565b90507fffffffffffffffffffffffffffffffffffffffffffffffffffffffffffffffff8114611da25781811015611d92578281836040517ffb8f41b2000000000000000000000000000000000000000000000000000000008152600401611d899392919061354c565b60405180910390fd5b611da1848484840360006120ed565b5b50505050565b600073ffffffffffffffffffffffffffffffffffffffff168373ffffffffffffffffffffffffffffffffffffffff1603611e1a5760006040517f96c6fd1e000000000000000000000000000000000000000000000000000000008152600401611e11919061294f565b60405180910390fd5b600073ffffffffffffffffffffffffffffffffffffffff168273ffffffffffffffffffffffffffffffffffffffff1603611e8c5760006040517fec442f05000000000000000000000000000000000000000000000000000000008152600401611e83919061294f565b60405180910390fd5b611e978383836122c4565b505050565b600073ffffffffffffffffffffffffffffffffffffffff168273ffffffffffffffffffffffffffffffffffffffff1603611f0e5760006040517fec442f05000000000000000000000000000000000000000000000000000000008152600401611f05919061294f565b60405180910390fd5b611f1a600083836122c4565b5050565b600073ffffffffffffffffffffffffffffffffffffffff168273ffffffffffffffffffffffffffffffffffffffff1603611f905760006040517f96c6fd1e000000000000000000000000000000000000000000000000000000008152600401611f87919061294f565b60405180910390fd5b611f9c826000836122c4565b5050565b611fa8611cfa565b73ffffffffffffffffffffffffffffffffffffffff16611fc66112b0565b73ffffffffffffffffffffffffffffffffffffffff161461202557611fe9611cfa565b6040517f118cdaa700000000000000000000000000000000000000000000000000000000815260040161201c919061294f565b60405180910390fd5b565b6000600560009054906101000a900473ffffffffffffffffffffffffffffffffffffffff16905081600560006101000a81548173ffffffffffffffffffffffffffffffffffffffff021916908373ffffffffffffffffffffffffffffffffffffffff1602179055508173ffffffffffffffffffffffffffffffffffffffff168173ffffffffffffffffffffffffffffffffffffffff167f8be0079c531659141344cd1fd0a4f28419497f9722a3daafe3b4186f6b6457e060405160405180910390a35050565b600073ffffffffffffffffffffffffffffffffffffffff168473ffffffffffffffffffffffffffffffffffffffff160361215f5760006040517fe602df05000000000000000000000000000000000000000000000000000000008152600401612156919061294f565b60405180910390fd5b600073ffffffffffffffffffffffffffffffffffffffff168373ffffffffffffffffffffffffffffffffffffffff16036121d15760006040517f94280d620000000000000000000000000000000000000000000000000000000081526004016121c8919061294f565b60405180910390fd5b81600160008673ffffffffffffffffffffffffffffffffffffffff1673ffffffffffffffffffffffffffffffffffffffff16815260200190815260200160002060008573ffffffffffffffffffffffffffffffffffffffff1673ffffffffffffffffffffffffffffffffffffffff1681526020019081526020016000208190555080156122be578273ffffffffffffffffffffffffffffffffffffffff168473ffffffffffffffffffffffffffffffffffffffff167f8c5be1e5ebec7d5bd14f71427d1e84f3dd0314c0f7b2291e5b200ac8c7c3b925846040516122b59190612a5b565b60405180910390a35b50505050565b600073ffffffffffffffffffffffffffffffffffffffff168373ffffffffffffffffffffffffffffffffffffffff16148061232b5750600073ffffffffffffffffffffffffffffffffffffffff168273ffffffffffffffffffffffffffffffffffffffff16145b156123405761233b838383612637565b612632565b600960008473ffffffffffffffffffffffffffffffffffffffff1673ffffffffffffffffffffffffffffffffffffffff16815260200190815260200160002060009054906101000a900460ff16806123e15750600960008373ffffffffffffffffffffffffffffffffffffffff1673ffffffffffffffffffffffffffffffffffffffff16815260200190815260200160002060009054906101000a900460ff165b156123f6576123f1838383612637565b612632565b6000612710600a836124089190612fa1565b6124129190613012565b90506000612710600a846124269190612fa1565b6124309190613012565b905068056bc75e2d63100000831061245d576000821480156124525750600081145b1561245c57600190505b5b600081838561246c9190613043565b6124769190613043565b90506000831115612511576a115eec47f6cf7e350000006124956108e7565b116124e9576124c786600860009054906101000a900473ffffffffffffffffffffffffffffffffffffffff1685612637565b82600b60008282546124d99190612e95565b9250508190555060009250612510565b6124f68661dead85612637565b82600a60008282546125089190612e95565b925050819055505b5b6000821180156125705750600073ffffffffffffffffffffffffffffffffffffffff16600860009054906101000a900473ffffffffffffffffffffffffffffffffffffffff1673ffffffffffffffffffffffffffffffffffffffff1614155b156125bc576125a286600860009054906101000a900473ffffffffffffffffffffffffffffffffffffffff1684612637565b81600b60008282546125b49190612e95565b925050819055505b6125c7868683612637565b8473ffffffffffffffffffffffffffffffffffffffff168673ffffffffffffffffffffffffffffffffffffffff167fddb30886d90db45adc1b2edcbabe12227896c25143cd155d3bf62ec8eff678568585604051612626929190613583565b60405180910390a35050505b505050565b600073ffffffffffffffffffffffffffffffffffffffff168373ffffffffffffffffffffffffffffffffffffffff160361268957806002600082825461267d9190612e95565b9250508190555061275c565b60008060008573ffffffffffffffffffffffffffffffffffffffff1673ffffffffffffffffffffffffffffffffffffffff16815260200190815260200160002054905081811015612715578381836040517fe450d38c00000000000000000000000000000000000000000000000000000000815260040161270c9392919061354c565b60405180910390fd5b8181036000808673ffffffffffffffffffffffffffffffffffffffff1673ffffffffffffffffffffffffffffffffffffffff16815260200190815260200160002081905550505b600073ffffffffffffffffffffffffffffffffffffffff168273ffffffffffffffffffffffffffffffffffffffff16036127a557806002600082825403925050819055506127f2565b806000808473ffffffffffffffffffffffffffffffffffffffff1673ffffffffffffffffffffffffffffffffffffffff168152602001908152602001600020600082825401925050819055505b8173ffffffffffffffffffffffffffffffffffffffff168373ffffffffffffffffffffffffffffffffffffffff167fddf252ad1be2c89b69c2b068fc378daa952ba7f163c4a11628f55a4df523b3ef8360405161284f9190612a5b565b60405180910390a3505050565b600081519050919050565b600082825260208201905092915050565b60005b8381101561289657808201518184015260208101905061287b565b60008484015250505050565b6000601f19601f8301169050919050565b60006128be8261285c565b6128c88185612867565b93506128d8818560208601612878565b6128e1816128a2565b840191505092915050565b6000602082019050818103600083015261290681846128b3565b905092915050565b600073ffffffffffffffffffffffffffffffffffffffff82169050919050565b60006129398261290e565b9050919050565b6129498161292e565b82525050565b60006020820190506129646000830184612940565b92915050565b600080fd5b600080fd5b61297d8161292e565b811461298857600080fd5b50565b60008135905061299a81612974565b92915050565b6000819050919050565b6129b3816129a0565b81146129be57600080fd5b50565b6000813590506129d0816129aa565b92915050565b600080604083850312156129ed576129ec61296a565b5b60006129fb8582860161298b565b9250506020612a0c858286016129c1565b9150509250929050565b60008115159050919050565b612a2b81612a16565b82525050565b6000602082019050612a466000830184612a22565b92915050565b612a55816129a0565b82525050565b6000602082019050612a706000830184612a4c565b92915050565b600080600060608486031215612a8f57612a8e61296a565b5b6000612a9d8682870161298b565b9350506020612aae8682870161298b565b9250506040612abf868287016129c1565b9150509250925092565b600060ff82169050919050565b612adf81612ac9565b82525050565b6000602082019050612afa6000830184612ad6565b92915050565b600060208284031215612b1657612b1561296a565b5b6000612b24848285016129c1565b91505092915050565b6000606082019050612b426000830186612a4c565b612b4f6020830185612a4c565b612b5c6040830184612a4c565b949350505050565b600060208284031215612b7a57612b7961296a565b5b6000612b888482850161298b565b91505092915050565b600080600060608486031215612baa57612ba961296a565b5b6000612bb88682870161298b565b9350506020612bc98682870161298b565b9250506040612bda8682870161298b565b9150509250925092565b6000608082019050612bf96000830187612a4c565b612c066020830186612a4c565b612c136040830185612a4c565b612c206060830184612940565b95945050505050565b600080fd5b600080fd5b600080fd5b60008083601f840112612c4e57612c4d612c29565b5b8235905067ffffffffffffffff811115612c6b57612c6a612c2e565b5b602083019150836020820283011115612c8757612c86612c33565b5b9250929050565b612c9781612a16565b8114612ca257600080fd5b50565b600081359050612cb481612c8e565b92915050565b600080600060408486031215612cd357612cd261296a565b5b600084013567ffffffffffffffff811115612cf157612cf061296f565b5b612cfd86828701612c38565b93509350506020612d1086828701612ca5565b9150509250925092565b60008060408385031215612d3157612d3061296a565b5b6000612d3f8582860161298b565b9250506020612d5085828601612ca5565b9150509250929050565b60008060408385031215612d7157612d7061296a565b5b6000612d7f8582860161298b565b9250506020612d908582860161298b565b9150509250929050565b7f4e487b7100000000000000000000000000000000000000000000000000000000600052602260045260246000fd5b60006002820490506001821680612de157607f821691505b602082108103612df457612df3612d9a565b5b50919050565b7f4e6f74206d696e74657200000000000000000000000000000000000000000000600082015250565b6000612e30600a83612867565b9150612e3b82612dfa565b602082019050919050565b60006020820190508181036000830152612e5f81612e23565b9050919050565b7f4e487b7100000000000000000000000000000000000000000000000000000000600052601160045260246000fd5b6000612ea0826129a0565b9150612eab836129a0565b9250828201905080821115612ec357612ec2612e66565b5b92915050565b7f45786365656473206d696e696e6720616c6c6f636174696f6e202837304d2900600082015250565b6000612eff601f83612867565b9150612f0a82612ec9565b602082019050919050565b60006020820190508181036000830152612f2e81612ef2565b9050919050565b7f4578636565647320746f74616c20737570706c79206361700000000000000000600082015250565b6000612f6b601883612867565b9150612f7682612f35565b602082019050919050565b60006020820190508181036000830152612f9a81612f5e565b9050919050565b6000612fac826129a0565b9150612fb7836129a0565b9250828202612fc5816129a0565b91508282048414831517612fdc57612fdb612e66565b5b5092915050565b7f4e487b7100000000000000000000000000000000000000000000000000000000600052601260045260246000fd5b600061301d826129a0565b9150613028836129a0565b92508261303857613037612fe3565b5b828204905092915050565b600061304e826129a0565b9150613059836129a0565b925082820390508181111561307157613070612e66565b5b92915050565b7f496e76616c6964204c50206d696e746572000000000000000000000000000000600082015250565b60006130ad601183612867565b91506130b882613077565b602082019050919050565b600060208201905081810360008301526130dc816130a0565b9050919050565b7f5072652d6d696e7420616c726561647920646973747269627574656400000000600082015250565b6000613119601c83612867565b9150613124826130e3565b602082019050919050565b600060208201905081810360008301526131488161310c565b9050919050565b7f496e76616c69642044414f2077616c6c65740000000000000000000000000000600082015250565b6000613185601283612867565b91506131908261314f565b602082019050919050565b600060208201905081810360008301526131b481613178565b9050919050565b7f496e76616c69642061697264726f702077616c6c657400000000000000000000600082015250565b60006131f1601683612867565b91506131fc826131bb565b602082019050919050565b60006020820190508181036000830152613220816131e4565b9050919050565b7f496e76616c6964206c69717569646974792077616c6c65740000000000000000600082015250565b600061325d601883612867565b915061326882613227565b602082019050919050565b6000602082019050818103600083015261328c81613250565b9050919050565b7f4e487b7100000000000000000000000000000000000000000000000000000000600052603260045260246000fd5b7f496e76616c696420616464726573730000000000000000000000000000000000600082015250565b60006132f8600f83612867565b9150613303826132c2565b602082019050919050565b60006020820190508181036000830152613327816132eb565b9050919050565b6000613339826129a0565b91507fffffffffffffffffffffffffffffffffffffffffffffffffffffffffffffffff820361336b5761336a612e66565b5b600182019050919050565b7f4e6f74204c50206d696e74657200000000000000000000000000000000000000600082015250565b60006133ac600d83612867565b91506133b782613376565b602082019050919050565b600060208201905081810360008301526133db8161339f565b9050919050565b7f45786365656473204c50207265736572766520616c6c6f636174696f6e20283160008201527f354d290000000000000000000000000000000000000000000000000000000000602082015250565b600061343e602383612867565b9150613449826133e2565b604082019050919050565b6000602082019050818103600083015261346d81613431565b9050919050565b7f496e76616c69642077616c6c6574000000000000000000000000000000000000600082015250565b60006134aa600e83612867565b91506134b582613474565b602082019050919050565b600060208201905081810360008301526134d98161349d565b9050919050565b7f496e76616c6964206d696e746572000000000000000000000000000000000000600082015250565b6000613516600e83612867565b9150613521826134e0565b602082019050919050565b6000602082019050818103600083015261354581613509565b9050919050565b60006060820190506135616000830186612940565b61356e6020830185612a4c565b61357b6040830184612a4c565b949350505050565b60006040820190506135986000830185612a4c565b6135a56020830184612a4c565b939250505056fea2646970667358221220c7b80882813610e8da14e3912d99e45ec232950d21df8e460b26c8d0eeb37dc364736f6c63430008140033",
  "linkReferences": {},
  "deployedLinkReferences": {}
}