{
  "_format": "hh-sol-artifact-1",
  "contractName": "IvyToken",
  "sourceName": "contracts/IvyToken.sol",
  "abi": [
    {
      "inputs": [],
      "stateMutability": "nonpayable",
      "type": "constructor"
    },
    {
      "inputs": [
        {
          "internalType": "address",
          "name": "spender",
          "type": "address"
        },
        {
          "internalType": "uint256",
          "name": "allowance",
          "type": "uint256"
        },
        {
          "internalType": "uint256",
          "name": "needed",
          "type": "uint256"
        }
      ],
      "name": "ERC20InsufficientAllowance",
      "type": "error"
    },
    {
      "inputs": [
        {
          "internalType": "address",
          "name": "sender",
          "type": "address"
        },
        {
          "internalType": "uint256",
          "name": "balance",
          "type": "uint256"
        },
        {
          "internalType": "uint256",
          "name": "needed",
          "type": "uint256"
        }
      ],
      "name": "ERC20InsufficientBalance",
      "type": "error"
    },
    {
      "inputs": [
        {
          "internalType": "address",
          "name": "approver",
          "type": "address"
        }
      ],
      "name": "ERC20InvalidApprover",
      "type": "error"
    },
    {
      "inputs": [
        {
          "internalType": "address",
          "name": "receiver",
          "type": "address"
        }
      ],
      "name": "ERC20InvalidReceiver",
      "type": "error"
    },
    {
      "inputs": [
        {
          "internalType": "address",
          "name": "sender",
          "type": "address"
        }
      ],
      "name": "ERC20InvalidSender",
      "type": "error"
    },
    {
      "inputs": [
        {
          "internalType": "address",
          "name": "spender",
          "type": "address"
        }
      ],
      "name": "ERC20InvalidSpender",
      "type": "error"
    },
    {
      "inputs": [
        {
          "internalType": "address",
          "name": "owner",
          "type": "address"
        }
      ],
      "name": "OwnableInvalidOwner",
      "type": "error"
    },
    {
      "inputs": [
        {
          "internalType": "address",
          "name": "account",
          "type": "address"
        }
      ],
      "name": "OwnableUnauthorizedAccount",
      "type": "error"
    },
    {
      "anonymous": false,
      "inputs": [
        {
          "indexed": true,
          "internalType": "address",
          "name": "owner",
          "type": "address"
        },
        {
          "indexed": true,
          "internalType": "address",
          "name": "spender",
          "type": "address"
        },
        {
          "indexed": false,
          "internalType": "uint256",
          "name": "value",
          "type": "uint256"
        }
      ],
      "name": "Approval",
      "type": "event"
    },
    {
      "anonymous": false,
      "inputs": [
        {
          "indexed": true,
          "internalType": "address",
          "name": "account",
          "type": "address"
        },
        {
          "indexed": false,
          "internalType": "bool",
          "name": "excluded",
          "type": "bool"
        }
      ],
      "name": "ExcludedFromTax",
      "type": "event"
    },
    {
      "anonymous": false,
      "inputs": [
        {
          "indexed": true,
          "internalType": "address",
          "name": "oldMinter",
          "type": "address"
        },
        {
          "indexed": true,
          "internalType": "address",
          "name": "newMinter",
          "type": "address"
        }
      ],
      "name": "MinterUpdated",
      "type": "event"
    },
    {
      "anonymous": false,
      "inputs": [
        {
          "indexed": true,
          "internalType": "address",
          "name": "oldWallet",
          "type": "address"
        },
        {
          "indexed": true,
          "internalType": "address",
          "name": "newWallet",
          "type": "address"
        }
      ],
      "name": "OperationsWalletUpdated",
      "type": "event"
    },
    {
      "anonymous": false,
      "inputs": [
        {
          "indexed": true,
          "internalType": "address",
          "name": "previousOwner",
          "type": "address"
        },
        {
          "indexed": true,
          "internalType": "address",
          "name": "newOwner",
          "type": "address"
        }
      ],
      "name": "OwnershipTransferred",
      "type": "event"
    },
    {
      "anonymous": false,
      "inputs": [
        {
          "indexed": true,
          "internalType": "address",
          "name": "from",
          "type": "address"
        },
        {
          "indexed": true,
          "internalType": "address",
          "name": "to",
          "type": "address"
        },
        {
          "indexed": false,
          "internalType": "uint256",
          "name": "burnAmount",
          "type": "uint256"
        },
        {
          "indexed": false,
          "internalType": "uint256",
          "name": "opsAmount",
          "type": "uint256"
        }
      ],
      "name": "TaxCollected",
      "type": "event"
    },
    {
      "anonymous": false,
      "inputs": [
        {
          "indexed": true,
          "internalType": "address",
          "name": "from",
          "type": "address"
        },
        {
          "indexed": true,
          "internalType": "address",
          "name": "to",
          "type": "address"
        },
        {
          "indexed": false,
          "internalType": "uint256",
          "name": "value",
          "type": "uint256"
        }
      ],
      "name": "Transfer",
      "type": "event"
    },
    {
      "inputs": [],
      "name": "BASIS_POINTS",
      "outputs": [
        {
          "internalType": "uint256",
          "name": "",
          "type": "uint256"
        }
      ],
      "stateMutability": "view",
      "type": "function"
    },
    {
      "inputs": [],
      "name": "BURN_RATE",
      "outputs": [
        {
          "internalType": "uint256",
          "name": "",
          "type": "uint256"
        }
      ],
      "stateMutability": "view",
      "type": "function"
    },
    {
      "inputs": [],
      "name": "DEAD_ADDRESS",
      "outputs": [
        {
          "internalType": "address",
          "name": "",
          "type": "address"
        }
      ],
      "stateMutability": "view",
      "type": "function"
    },
    {
      "inputs": [],
      "name": "OPS_RATE",
      "outputs": [
        {
          "internalType": "uint256",
          "name": "",
          "type": "uint256"
        }
      ],
      "stateMutability": "view",
      "type": "function"
    },
    {
      "inputs": [],
      "name": "TAX_RATE",
      "outputs": [
        {
          "internalType": "uint256",
          "name": "",
          "type": "uint256"
        }
      ],
      "stateMutability": "view",
      "type": "function"
    },
    {
      "inputs": [
        {
          "internalType": "address",
          "name": "owner",
          "type": "address"
        },
        {
          "internalType": "address",
          "name": "spender",
          "type": "address"
        }
      ],
      "name": "allowance",
      "outputs": [
        {
          "internalType": "uint256",
          "name": "",
          "type": "uint256"
        }
      ],
      "stateMutability": "view",
      "type": "function"
    },
    {
      "inputs": [
        {
          "internalType": "address",
          "name": "spender",
          "type": "address"
        },
        {
          "internalType": "uint256",
          "name": "value",
          "type": "uint256"
        }
      ],
      "name": "approve",
      "outputs": [
        {
          "internalType": "bool",
          "name": "",
          "type": "bool"
        }
      ],
      "stateMutability": "nonpayable",
      "type": "function"
    },
    {
      "inputs": [
        {
          "internalType": "address",
          "name": "account",
          "type": "address"
        }
      ],
      "name": "balanceOf",
      "outputs": [
        {
          "internalType": "uint256",
          "name": "",
          "type": "uint256"
        }
      ],
      "stateMutability": "view",
      "type": "function"
    },
    {
      "inputs": [
        {
          "internalType": "address[]",
          "name": "accounts",
          "type": "address[]"
        },
        {
          "internalType": "bool",
          "name": "excluded",
          "type": "bool"
        }
      ],
      "name": "batchSetExcludedFromTax",
      "outputs": [],
      "stateMutability": "nonpayable",
      "type": "function"
    },
    {
      "inputs": [
        {
          "internalType": "uint256",
          "name": "amount",
          "type": "uint256"
        }
      ],
      "name": "burn",
      "outputs": [],
      "stateMutability": "nonpayable",
      "type": "function"
    },
    {
      "inputs": [
        {
          "internalType": "address",
          "name": "account",
          "type": "address"
        },
        {
          "internalType": "uint256",
          "name": "amount",
          "type": "uint256"
        }
      ],
      "name": "burnFrom",
      "outputs": [],
      "stateMutability": "nonpayable",
      "type": "function"
    },
    {
      "inputs": [
        {
          "internalType": "uint256",
          "name": "amount",
          "type": "uint256"
        }
      ],
      "name": "calculateTax",
      "outputs": [
        {
          "internalType": "uint256",
          "name": "burnAmount",
          "type": "uint256"
        },
        {
          "internalType": "uint256",
          "name": "opsAmount",
          "type": "uint256"
        },
        {
          "internalType": "uint256",
          "name": "netAmount",
          "type": "uint256"
        }
      ],
      "stateMutability": "pure",
      "type": "function"
    },
    {
      "inputs": [
        {
          "internalType": "address",
          "name": "account",
          "type": "address"
        }
      ],
      "name": "checkExcluded",
      "outputs": [
        {
          "internalType": "bool",
          "name": "",
          "type": "bool"
        }
      ],
      "stateMutability": "view",
      "type": "function"
    },
    {
      "inputs": [],
      "name": "decimals",
      "outputs": [
        {
          "internalType": "uint8",
          "name": "",
          "type": "uint8"
        }
      ],
      "stateMutability": "view",
      "type": "function"
    },
    {
      "inputs": [],
      "name": "getTaxStats",
      "outputs": [
        {
          "internalType": "uint256",
          "name": "_totalBurned",
          "type": "uint256"
        },
        {
          "internalType": "uint256",
          "name": "_totalOpsCollected",
          "type": "uint256"
        },
        {
          "internalType": "uint256",
          "name": "_taxRate",
          "type": "uint256"
        },
        {
          "internalType": "address",
          "name": "_operationsWallet",
          "type": "address"
        }
      ],
      "stateMutability": "view",
      "type": "function"
    },
    {
      "inputs": [
        {
          "internalType": "address",
          "name": "",
          "type": "address"
        }
      ],
      "name": "isExcludedFromTax",
      "outputs": [
        {
          "internalType": "bool",
          "name": "",
          "type": "bool"
        }
      ],
      "stateMutability": "view",
      "type": "function"
    },
    {
      "inputs": [
        {
          "internalType": "address",
          "name": "to",
          "type": "address"
        },
        {
          "internalType": "uint256",
          "name": "amount",
          "type": "uint256"
        }
      ],
      "name": "mint",
      "outputs": [],
      "stateMutability": "nonpayable",
      "type": "function"
    },
    {
      "inputs": [],
      "name": "minter",
      "outputs": [
        {
          "internalType": "address",
          "name": "",
          "type": "address"
        }
      ],
      "stateMutability": "view",
      "type": "function"
    },
    {
      "inputs": [],
      "name": "name",
      "outputs": [
        {
          "internalType": "string",
          "name": "",
          "type": "string"
        }
      ],
      "stateMutability": "view",
      "type": "function"
    },
    {
      "inputs": [],
      "name": "operationsWallet",
      "outputs": [
        {
          "internalType": "address",
          "name": "",
          "type": "address"
        }
      ],
      "stateMutability": "view",
      "type": "function"
    },
    {
      "inputs": [],
      "name": "owner",
      "outputs": [
        {
          "internalType": "address",
          "name": "",
          "type": "address"
        }
      ],
      "stateMutability": "view",
      "type": "function"
    },
    {
      "inputs": [],
      "name": "renounceOwnership",
      "outputs": [],
      "stateMutability": "nonpayable",
      "type": "function"
    },
    {
      "inputs": [
        {
          "internalType": "address",
          "name": "account",
          "type": "address"
        },
        {
          "internalType": "bool",
          "name": "excluded",
          "type": "bool"
        }
      ],
      "name": "setExcludedFromTax",
      "outputs": [],
      "stateMutability": "nonpayable",
      "type": "function"
    },
    {
      "inputs": [
        {
          "internalType": "address",
          "name": "_minter",
          "type": "address"
        }
      ],
      "name": "setMinter",
      "outputs": [],
      "stateMutability": "nonpayable",
      "type": "function"
    },
    {
      "inputs": [
        {
          "internalType": "address",
          "name": "_wallet",
          "type": "address"
        }
      ],
      "name": "setOperationsWallet",
      "outputs": [],
      "stateMutability": "nonpayable",
      "type": "function"
    },
    {
      "inputs": [],
      "name": "symbol",
      "outputs": [
        {
          "internalType": "string",
          "name": "",
          "type": "string"
        }
      ],
      "stateMutability": "view",
      "type": "function"
    },
    {
      "inputs": [],
      "name": "totalBurned",
      "outputs": [
        {
          "internalType": "uint256",
          "name": "",
          "type": "uint256"
        }
      ],
      "stateMutability": "view",
      "type": "function"
    },
    {
      "inputs": [],
      "name": "totalOpsCollected",
      "outputs": [
        {
          "internalType": "uint256",
          "name": "",
          "type": "uint256"
        }
      ],
      "stateMutability": "view",
      "type": "function"
    },
    {
      "inputs": [],
      "name": "totalSupply",
      "outputs": [
        {
          "internalType": "uint256",
          "name": "",
          "type": "uint256"
        }
      ],
      "stateMutability": "view",
      "type": "function"
    },
    {
      "inputs": [
        {
          "internalType": "address",
          "name": "to",
          "type": "address"
        },
        {
          "internalType": "uint256",
          "name": "value",
          "type": "uint256"
        }
      ],
      "name": "transfer",
      "outputs": [
        {
          "internalType": "bool",
          "name": "",
          "type": "bool"
        }
      ],
      "stateMutability": "nonpayable",
      "type": "function"
    },
    {
      "inputs": [
        {
          "internalType": "address",
          "name": "from",
          "type": "address"
        },
        {
          "internalType": "address",
          "name": "to",
          "type": "address"
        },
        {
          "internalType": "uint256",
          "name": "value",
          "type": "uint256"
        }
      ],
      "name": "transferFrom",
      "outputs": [
        {
          "internalType": "bool",
          "name": "",
          "type": "bool"
        }
      ],
      "stateMutability": "nonpayable",
      "type": "function"
    },
    {
      "inputs": [
        {
          "internalType": "address",
          "name": "newOwner",
          "type": "address"
        }
      ],
      "name": "transferOwnership",
      "outputs": [],
      "stateMutability": "nonpayable",
      "type": "function"
    }
  ],
  "bytecode": "0x60806040523480156200001157600080fd5b50336040518060400160405280600c81526020017f4976792050726f746f636f6c00000000000000000000000000000000000000008152506040518060400160405280600381526020017f4956590000000000000000000000000000000000000000000000000000000000815250816003908162000090919062000565565b508060049081620000a2919062000565565b505050600073ffffffffffffffffffffffffffffffffffffffff168173ffffffffffffffffffffffffffffffffffffffff16036200011a5760006040517f1e4fbdf700000000000000000000000000000000000000000000000000000000815260040162000111919062000691565b60405180910390fd5b6200012b816200022560201b60201c565b506001600860003373ffffffffffffffffffffffffffffffffffffffff1673ffffffffffffffffffffffffffffffffffffffff16815260200190815260200160002060006101000a81548160ff02191690831515021790555060016008600061dead73ffffffffffffffffffffffffffffffffffffffff1673ffffffffffffffffffffffffffffffffffffffff16815260200190815260200160002060006101000a81548160ff02191690831515021790555033600760006101000a81548173ffffffffffffffffffffffffffffffffffffffff021916908373ffffffffffffffffffffffffffffffffffffffff160217905550620006ae565b6000600560009054906101000a900473ffffffffffffffffffffffffffffffffffffffff16905081600560006101000a81548173ffffffffffffffffffffffffffffffffffffffff021916908373ffffffffffffffffffffffffffffffffffffffff1602179055508173ffffffffffffffffffffffffffffffffffffffff168173ffffffffffffffffffffffffffffffffffffffff167f8be0079c531659141344cd1fd0a4f28419497f9722a3daafe3b4186f6b6457e060405160405180910390a35050565b600081519050919050565b7f4e487b7100000000000000000000000000000000000000000000000000000000600052604160045260246000fd5b7f4e487b7100000000000000000000000000000000000000000000000000000000600052602260045260246000fd5b600060028204905060018216806200036d57607f821691505b60208210810362000383576200038262000325565b5b50919050565b60008190508160005260206000209050919050565b60006020601f8301049050919050565b600082821b905092915050565b600060088302620003ed7fffffffffffffffffffffffffffffffffffffffffffffffffffffffffffffffff82620003ae565b620003f98683620003ae565b95508019841693508086168417925050509392505050565b6000819050919050565b6000819050919050565b600062000446620004406200043a8462000411565b6200041b565b62000411565b9050919050565b6000819050919050565b620004628362000425565b6200047a62000471826200044d565b848454620003bb565b825550505050565b600090565b6200049162000482565b6200049e81848462000457565b505050565b5b81811015620004c657620004ba60008262000487565b600181019050620004a4565b5050565b601f8211156200051557620004df8162000389565b620004ea846200039e565b81016020851015620004fa578190505b6200051262000509856200039e565b830182620004a3565b50505b505050565b600082821c905092915050565b60006200053a600019846008026200051a565b1980831691505092915050565b600062000555838362000527565b9150826002028217905092915050565b6200057082620002eb565b67ffffffffffffffff8111156200058c576200058b620002f6565b5b62000598825462000354565b620005a5828285620004ca565b600060209050601f831160018114620005dd5760008415620005c8578287015190505b620005d4858262000547565b86555062000644565b601f198416620005ed8662000389565b60005b828110156200061757848901518255600182019150602085019450602081019050620005f0565b8683101562000637578489015162000633601f89168262000527565b8355505b6001600288020188555050505b505050505050565b600073ffffffffffffffffffffffffffffffffffffffff82169050919050565b600062000679826200064c565b9050919050565b6200068b816200066c565b82525050565b6000602082019050620006a8600083018462000680565b92915050565b61264480620006be6000396000f3fe608060405234801561001057600080fd5b50600436106101f05760003560e01c806383f170be1161010f578063d89135cd116100a2578063f2fde38b11610071578063f2fde38b146105b2578063f846a885146105ce578063fca3b5aa146105ec578063fd72e22a14610608576101f0565b8063d89135cd1461052a578063dd62ed3e14610548578063e1f1c4a714610578578063ee5ecc8914610596576101f0565b8063b4ad41cf116100de578063b4ad41cf146104a1578063beaa628b146104c2578063c2ed286b146104de578063cb4ca631146104fa576101f0565b806383f170be146104175780638da5cb5b1461043557806395d89b4114610453578063a9059cbb14610471576101f0565b8063483a93101161018757806379cc67901161015657806379cc67901461038f5780637cb52737146103ab5780637d486210146103db5780637d8d3763146103f9576101f0565b8063483a9310146103055780634e6fd6c41461033757806370a0823114610355578063715018a614610385576101f0565b806323b872dd116101c357806323b872dd1461027f578063313ce567146102af57806340c10f19146102cd57806342966c68146102e9576101f0565b806306fdde03146101f55780630754617214610213578063095ea7b31461023157806318160ddd14610261575b600080fd5b6101fd610626565b60405161020a9190611d93565b60405180910390f35b61021b6106b8565b6040516102289190611df6565b60405180910390f35b61024b60048036038101906102469190611e7d565b6106de565b6040516102589190611ed8565b60405180910390f35b610269610701565b6040516102769190611f02565b60405180910390f35b61029960048036038101906102949190611f1d565b61070b565b6040516102a69190611ed8565b60405180910390f35b6102b761073a565b6040516102c49190611f8c565b60405180910390f35b6102e760048036038101906102e29190611e7d565b610743565b005b61030360048036038101906102fe9190611fa7565b6107e1565b005b61031f600480360381019061031a9190611fa7565b6107ee565b60405161032e93929190611fd4565b60405180910390f35b61033f61084b565b60405161034c9190611df6565b60405180910390f35b61036f600480360381019061036a919061200b565b610851565b60405161037c9190611f02565b60405180910390f35b61038d610899565b005b6103a960048036038101906103a49190611e7d565b6108ad565b005b6103c560048036038101906103c0919061200b565b61094b565b6040516103d29190611ed8565b60405180910390f35b6103e36109a1565b6040516103f09190611f02565b60405180910390f35b6104016109a7565b60405161040e9190611f02565b60405180910390f35b61041f6109ac565b60405161042c9190611f02565b60405180910390f35b61043d6109b1565b60405161044a9190611df6565b60405180910390f35b61045b6109db565b6040516104689190611d93565b60405180910390f35b61048b60048036038101906104869190611e7d565b610a6d565b6040516104989190611ed8565b60405180910390f35b6104a9610a90565b6040516104b99493929190612038565b60405180910390f35b6104dc60048036038101906104d7919061210e565b610acf565b005b6104f860048036038101906104f3919061216e565b610c87565b005b610514600480360381019061050f919061200b565b610da7565b6040516105219190611ed8565b60405180910390f35b610532610dc7565b60405161053f9190611f02565b60405180910390f35b610562600480360381019061055d91906121ae565b610dcd565b60405161056f9190611f02565b60405180910390f35b610580610e54565b60405161058d9190611f02565b60405180910390f35b6105b060048036038101906105ab919061200b565b610e5a565b005b6105cc60048036038101906105c7919061200b565b610fef565b005b6105d6611075565b6040516105e39190611f02565b60405180910390f35b6106066004803603810190610601919061200b565b61107a565b005b61061061120f565b60405161061d9190611df6565b60405180910390f35b6060600380546106359061221d565b80601f01602080910402602001604051908101604052809291908181526020018280546106619061221d565b80156106ae5780601f10610683576101008083540402835291602001916106ae565b820191906000526020600020905b81548152906001019060200180831161069157829003601f168201915b5050505050905090565b600660009054906101000a900473ffffffffffffffffffffffffffffffffffffffff1681565b6000806106e9611235565b90506106f681858561123d565b600191505092915050565b6000600254905090565b600080610716611235565b905061072385828561124f565b61072e8585856112e3565b60019150509392505050565b60006012905090565b600660009054906101000a900473ffffffffffffffffffffffffffffffffffffffff1673ffffffffffffffffffffffffffffffffffffffff163373ffffffffffffffffffffffffffffffffffffffff16146107d3576040517f08c379a00000000000000000000000000000000000000000000000000000000081526004016107ca9061229a565b60405180910390fd5b6107dd82826113d7565b5050565b6107eb3382611459565b50565b6000806000612710600a8561080391906122e9565b61080d919061235a565b9250612710600a8561081f91906122e9565b610829919061235a565b9150818385610838919061238b565b610842919061238b565b90509193909250565b61dead81565b60008060008373ffffffffffffffffffffffffffffffffffffffff1673ffffffffffffffffffffffffffffffffffffffff168152602001908152602001600020549050919050565b6108a16114db565b6108ab6000611562565b565b600660009054906101000a900473ffffffffffffffffffffffffffffffffffffffff1673ffffffffffffffffffffffffffffffffffffffff163373ffffffffffffffffffffffffffffffffffffffff161461093d576040517f08c379a00000000000000000000000000000000000000000000000000000000081526004016109349061229a565b60405180910390fd5b6109478282611459565b5050565b6000600860008373ffffffffffffffffffffffffffffffffffffffff1673ffffffffffffffffffffffffffffffffffffffff16815260200190815260200160002060009054906101000a900460ff169050919050565b600a5481565b600a81565b601481565b6000600560009054906101000a900473ffffffffffffffffffffffffffffffffffffffff16905090565b6060600480546109ea9061221d565b80601f0160208091040260200160405190810160405280929190818152602001828054610a169061221d565b8015610a635780601f10610a3857610100808354040283529160200191610a63565b820191906000526020600020905b815481529060010190602001808311610a4657829003601f168201915b5050505050905090565b600080610a78611235565b9050610a858185856112e3565b600191505092915050565b6000806000806009549350600a54925060149150600760009054906101000a900473ffffffffffffffffffffffffffffffffffffffff16905090919293565b610ad76114db565b60005b83839050811015610c8157600073ffffffffffffffffffffffffffffffffffffffff16848483818110610b1057610b0f6123bf565b5b9050602002016020810190610b25919061200b565b73ffffffffffffffffffffffffffffffffffffffff1603610b7b576040517f08c379a0000000000000000000000000000000000000000000000000000000008152600401610b729061243a565b60405180910390fd5b8160086000868685818110610b9357610b926123bf565b5b9050602002016020810190610ba8919061200b565b73ffffffffffffffffffffffffffffffffffffffff1673ffffffffffffffffffffffffffffffffffffffff16815260200190815260200160002060006101000a81548160ff021916908315150217905550838382818110610c0c57610c0b6123bf565b5b9050602002016020810190610c21919061200b565b73ffffffffffffffffffffffffffffffffffffffff167fea5814d1cf99e5f6aee98da410ea4adcdbe5ded97855de3b25144b0898d0be4a83604051610c669190611ed8565b60405180910390a28080610c799061245a565b915050610ada565b50505050565b610c8f6114db565b600073ffffffffffffffffffffffffffffffffffffffff168273ffffffffffffffffffffffffffffffffffffffff1603610cfe576040517f08c379a0000000000000000000000000000000000000000000000000000000008152600401610cf59061243a565b60405180910390fd5b80600860008473ffffffffffffffffffffffffffffffffffffffff1673ffffffffffffffffffffffffffffffffffffffff16815260200190815260200160002060006101000a81548160ff0219169083151502179055508173ffffffffffffffffffffffffffffffffffffffff167fea5814d1cf99e5f6aee98da410ea4adcdbe5ded97855de3b25144b0898d0be4a82604051610d9b9190611ed8565b60405180910390a25050565b60086020528060005260406000206000915054906101000a900460ff1681565b60095481565b6000600160008473ffffffffffffffffffffffffffffffffffffffff1673ffffffffffffffffffffffffffffffffffffffff16815260200190815260200160002060008373ffffffffffffffffffffffffffffffffffffffff1673ffffffffffffffffffffffffffffffffffffffff16815260200190815260200160002054905092915050565b61271081565b610e626114db565b600073ffffffffffffffffffffffffffffffffffffffff168173ffffffffffffffffffffffffffffffffffffffff1603610ed1576040517f08c379a0000000000000000000000000000000000000000000000000000000008152600401610ec8906124ee565b60405180910390fd5b6000600760009054906101000a900473ffffffffffffffffffffffffffffffffffffffff16905081600760006101000a81548173ffffffffffffffffffffffffffffffffffffffff021916908373ffffffffffffffffffffffffffffffffffffffff1602179055506001600860008473ffffffffffffffffffffffffffffffffffffffff1673ffffffffffffffffffffffffffffffffffffffff16815260200190815260200160002060006101000a81548160ff0219169083151502179055508173ffffffffffffffffffffffffffffffffffffffff168173ffffffffffffffffffffffffffffffffffffffff167f086aa05ff00214e2d0c7c02b8a46b2614ad955732e6b43aa8afca69ed1ad76f860405160405180910390a35050565b610ff76114db565b600073ffffffffffffffffffffffffffffffffffffffff168173ffffffffffffffffffffffffffffffffffffffff16036110695760006040517f1e4fbdf70000000000000000000000000000000000000000000000000000000081526004016110609190611df6565b60405180910390fd5b61107281611562565b50565b600a81565b6110826114db565b600073ffffffffffffffffffffffffffffffffffffffff168173ffffffffffffffffffffffffffffffffffffffff16036110f1576040517f08c379a00000000000000000000000000000000000000000000000000000000081526004016110e89061255a565b60405180910390fd5b6000600660009054906101000a900473ffffffffffffffffffffffffffffffffffffffff16905081600660006101000a81548173ffffffffffffffffffffffffffffffffffffffff021916908373ffffffffffffffffffffffffffffffffffffffff1602179055506001600860008473ffffffffffffffffffffffffffffffffffffffff1673ffffffffffffffffffffffffffffffffffffffff16815260200190815260200160002060006101000a81548160ff0219169083151502179055508173ffffffffffffffffffffffffffffffffffffffff168173ffffffffffffffffffffffffffffffffffffffff167f1cf2de25c5bf439ac0287061c3a0fa69b3b02867d0ccfd2ded34e42577050b7360405160405180910390a35050565b600760009054906101000a900473ffffffffffffffffffffffffffffffffffffffff1681565b600033905090565b61124a8383836001611628565b505050565b600061125b8484610dcd565b90507fffffffffffffffffffffffffffffffffffffffffffffffffffffffffffffffff81146112dd57818110156112cd578281836040517ffb8f41b20000000000000000000000000000000000000000000000000000000081526004016112c49392919061257a565b60405180910390fd5b6112dc84848484036000611628565b5b50505050565b600073ffffffffffffffffffffffffffffffffffffffff168373ffffffffffffffffffffffffffffffffffffffff16036113555760006040517f96c6fd1e00000000000000000000000000000000000000000000000000000000815260040161134c9190611df6565b60405180910390fd5b600073ffffffffffffffffffffffffffffffffffffffff168273ffffffffffffffffffffffffffffffffffffffff16036113c75760006040517fec442f050000000000000000000000000000000000000000000000000000000081526004016113be9190611df6565b60405180910390fd5b6113d28383836117ff565b505050565b600073ffffffffffffffffffffffffffffffffffffffff168273ffffffffffffffffffffffffffffffffffffffff16036114495760006040517fec442f050000000000000000000000000000000000000000000000000000000081526004016114409190611df6565b60405180910390fd5b611455600083836117ff565b5050565b600073ffffffffffffffffffffffffffffffffffffffff168273ffffffffffffffffffffffffffffffffffffffff16036114cb5760006040517f96c6fd1e0000000000000000000000000000000000000000000000000000000081526004016114c29190611df6565b60405180910390fd5b6114d7826000836117ff565b5050565b6114e3611235565b73ffffffffffffffffffffffffffffffffffffffff166115016109b1565b73ffffffffffffffffffffffffffffffffffffffff161461156057611524611235565b6040517f118cdaa70000000000000000000000000000000000000000000000000000000081526004016115579190611df6565b60405180910390fd5b565b6000600560009054906101000a900473ffffffffffffffffffffffffffffffffffffffff16905081600560006101000a81548173ffffffffffffffffffffffffffffffffffffffff021916908373ffffffffffffffffffffffffffffffffffffffff1602179055508173ffffffffffffffffffffffffffffffffffffffff168173ffffffffffffffffffffffffffffffffffffffff167f8be0079c531659141344cd1fd0a4f28419497f9722a3daafe3b4186f6b6457e060405160405180910390a35050565b600073ffffffffffffffffffffffffffffffffffffffff168473ffffffffffffffffffffffffffffffffffffffff160361169a5760006040517fe602df050000000000000000000000000000000000000000000000000000000081526004016116919190611df6565b60405180910390fd5b600073ffffffffffffffffffffffffffffffffffffffff168373ffffffffffffffffffffffffffffffffffffffff160361170c5760006040517f94280d620000000000000000000000000000000000000000000000000000000081526004016117039190611df6565b60405180910390fd5b81600160008673ffffffffffffffffffffffffffffffffffffffff1673ffffffffffffffffffffffffffffffffffffffff16815260200190815260200160002060008573ffffffffffffffffffffffffffffffffffffffff1673ffffffffffffffffffffffffffffffffffffffff1681526020019081526020016000208190555080156117f9578273ffffffffffffffffffffffffffffffffffffffff168473ffffffffffffffffffffffffffffffffffffffff167f8c5be1e5ebec7d5bd14f71427d1e84f3dd0314c0f7b2291e5b200ac8c7c3b925846040516117f09190611f02565b60405180910390a35b50505050565b600073ffffffffffffffffffffffffffffffffffffffff168373ffffffffffffffffffffffffffffffffffffffff1614806118665750600073ffffffffffffffffffffffffffffffffffffffff168273ffffffffffffffffffffffffffffffffffffffff16145b1561187b57611876838383611ade565b611ad9565b600860008473ffffffffffffffffffffffffffffffffffffffff1673ffffffffffffffffffffffffffffffffffffffff16815260200190815260200160002060009054906101000a900460ff168061191c5750600860008373ffffffffffffffffffffffffffffffffffffffff1673ffffffffffffffffffffffffffffffffffffffff16815260200190815260200160002060009054906101000a900460ff165b156119315761192c838383611ade565b611ad9565b6000612710600a8361194391906122e9565b61194d919061235a565b90506000612710600a8461196191906122e9565b61196b919061235a565b9050600081838561197c919061238b565b611986919061238b565b905060008311156119b85761199e8661dead85611ade565b82600960008282546119b091906125b1565b925050819055505b600082118015611a175750600073ffffffffffffffffffffffffffffffffffffffff16600760009054906101000a900473ffffffffffffffffffffffffffffffffffffffff1673ffffffffffffffffffffffffffffffffffffffff1614155b15611a6357611a4986600760009054906101000a900473ffffffffffffffffffffffffffffffffffffffff1684611ade565b81600a6000828254611a5b91906125b1565b925050819055505b611a6e868683611ade565b8473ffffffffffffffffffffffffffffffffffffffff168673ffffffffffffffffffffffffffffffffffffffff167fddb30886d90db45adc1b2edcbabe12227896c25143cd155d3bf62ec8eff678568585604051611acd9291906125e5565b60405180910390a35050505b505050565b600073ffffffffffffffffffffffffffffffffffffffff168373ffffffffffffffffffffffffffffffffffffffff1603611b30578060026000828254611b2491906125b1565b92505081905550611c03565b60008060008573ffffffffffffffffffffffffffffffffffffffff1673ffffffffffffffffffffffffffffffffffffffff16815260200190815260200160002054905081811015611bbc578381836040517fe450d38c000000000000000000000000000000000000000000000000000000008152600401611bb39392919061257a565b60405180910390fd5b8181036000808673ffffffffffffffffffffffffffffffffffffffff1673ffffffffffffffffffffffffffffffffffffffff16815260200190815260200160002081905550505b600073ffffffffffffffffffffffffffffffffffffffff168273ffffffffffffffffffffffffffffffffffffffff1603611c4c5780600260008282540392505081905550611c99565b806000808473ffffffffffffffffffffffffffffffffffffffff1673ffffffffffffffffffffffffffffffffffffffff168152602001908152602001600020600082825401925050819055505b8173ffffffffffffffffffffffffffffffffffffffff168373ffffffffffffffffffffffffffffffffffffffff167fddf252ad1be2c89b69c2b068fc378daa952ba7f163c4a11628f55a4df523b3ef83604051611cf69190611f02565b60405180910390a3505050565b600081519050919050565b600082825260208201905092915050565b60005b83811015611d3d578082015181840152602081019050611d22565b60008484015250505050565b6000601f19601f8301169050919050565b6000611d6582611d03565b611d6f8185611d0e565b9350611d7f818560208601611d1f565b611d8881611d49565b840191505092915050565b60006020820190508181036000830152611dad8184611d5a565b905092915050565b600073ffffffffffffffffffffffffffffffffffffffff82169050919050565b6000611de082611db5565b9050919050565b611df081611dd5565b82525050565b6000602082019050611e0b6000830184611de7565b92915050565b600080fd5b600080fd5b611e2481611dd5565b8114611e2f57600080fd5b50565b600081359050611e4181611e1b565b92915050565b6000819050919050565b611e5a81611e47565b8114611e6557600080fd5b50565b600081359050611e7781611e51565b92915050565b60008060408385031215611e9457611e93611e11565b5b6000611ea285828601611e32565b9250506020611eb385828601611e68565b9150509250929050565b60008115159050919050565b611ed281611ebd565b82525050565b6000602082019050611eed6000830184611ec9565b92915050565b611efc81611e47565b82525050565b6000602082019050611f176000830184611ef3565b92915050565b600080600060608486031215611f3657611f35611e11565b5b6000611f4486828701611e32565b9350506020611f5586828701611e32565b9250506040611f6686828701611e68565b9150509250925092565b600060ff82169050919050565b611f8681611f70565b82525050565b6000602082019050611fa16000830184611f7d565b92915050565b600060208284031215611fbd57611fbc611e11565b5b6000611fcb84828501611e68565b91505092915050565b6000606082019050611fe96000830186611ef3565b611ff66020830185611ef3565b6120036040830184611ef3565b949350505050565b60006020828403121561202157612020611e11565b5b600061202f84828501611e32565b91505092915050565b600060808201905061204d6000830187611ef3565b61205a6020830186611ef3565b6120676040830185611ef3565b6120746060830184611de7565b95945050505050565b600080fd5b600080fd5b600080fd5b60008083601f8401126120a2576120a161207d565b5b8235905067ffffffffffffffff8111156120bf576120be612082565b5b6020830191508360208202830111156120db576120da612087565b5b9250929050565b6120eb81611ebd565b81146120f657600080fd5b50565b600081359050612108816120e2565b92915050565b60008060006040848603121561212757612126611e11565b5b600084013567ffffffffffffffff81111561214557612144611e16565b5b6121518682870161208c565b93509350506020612164868287016120f9565b9150509250925092565b6000806040838503121561218557612184611e11565b5b600061219385828601611e32565b92505060206121a4858286016120f9565b9150509250929050565b600080604083850312156121c5576121c4611e11565b5b60006121d385828601611e32565b92505060206121e485828601611e32565b9150509250929050565b7f4e487b7100000000000000000000000000000000000000000000000000000000600052602260045260246000fd5b6000600282049050600182168061223557607f821691505b602082108103612248576122476121ee565b5b50919050565b7f4e6f74206d696e74657200000000000000000000000000000000000000000000600082015250565b6000612284600a83611d0e565b915061228f8261224e565b602082019050919050565b600060208201905081810360008301526122b381612277565b9050919050565b7f4e487b7100000000000000000000000000000000000000000000000000000000600052601160045260246000fd5b60006122f482611e47565b91506122ff83611e47565b925082820261230d81611e47565b91508282048414831517612324576123236122ba565b5b5092915050565b7f4e487b7100000000000000000000000000000000000000000000000000000000600052601260045260246000fd5b600061236582611e47565b915061237083611e47565b9250826123805761237f61232b565b5b828204905092915050565b600061239682611e47565b91506123a183611e47565b92508282039050818111156123b9576123b86122ba565b5b92915050565b7f4e487b7100000000000000000000000000000000000000000000000000000000600052603260045260246000fd5b7f496e76616c696420616464726573730000000000000000000000000000000000600082015250565b6000612424600f83611d0e565b915061242f826123ee565b602082019050919050565b6000602082019050818103600083015261245381612417565b9050919050565b600061246582611e47565b91507fffffffffffffffffffffffffffffffffffffffffffffffffffffffffffffffff8203612497576124966122ba565b5b600182019050919050565b7f496e76616c69642077616c6c6574000000000000000000000000000000000000600082015250565b60006124d8600e83611d0e565b91506124e3826124a2565b602082019050919050565b60006020820190508181036000830152612507816124cb565b9050919050565b7f496e76616c6964206d696e746572000000000000000000000000000000000000600082015250565b6000612544600e83611d0e565b915061254f8261250e565b602082019050919050565b6000602082019050818103600083015261257381612537565b9050919050565b600060608201905061258f6000830186611de7565b61259c6020830185611ef3565b6125a96040830184611ef3565b949350505050565b60006125bc82611e47565b91506125c783611e47565b92508282019050808211156125df576125de6122ba565b5b92915050565b60006040820190506125fa6000830185611ef3565b6126076020830184611ef3565b939250505056fea2646970667358221220300029d1daf1047434de4c8ffa01ec4cd5e7d5fa57204826af9aa286f3a3728664736f6c63430008140033",
  "linkReferences": {},
  "deployedLinkReferences": {}
}