{
  "_format": "hh-sol-artifact-1",
  "contractName": "MockOracle",
  "sourceName": "contracts/MockOracle.sol",
  "abi": [
    {
      "inputs": [
        {
          "internalType": "uint256",
          "name": "_initialPrice",
          "type": "uint256"
        }
      ],
      "stateMutability": "nonpayable",
      "type": "constructor"
    },
    {
      "inputs": [
        {
          "internalType": "uint256",
          "name": "index",
          "type": "uint256"
        }
      ],
      "name": "getHourlyCandle",
      "outputs": [
        {
          "internalType": "uint256",
          "name": "open",
          "type": "uint256"
        },
        {
          "internalType": "uint256",
          "name": "close",
          "type": "uint256"
        }
      ],
      "stateMutability": "view",
      "type": "function"
    },
    {
      "inputs": [],
      "name": "getLatestPrice",
      "outputs": [
        {
          "internalType": "uint256",
          "name": "",
          "type": "uint256"
        }
      ],
      "stateMutability": "view",
      "type": "function"
    },
    {
      "inputs": [
        {
          "internalType": "uint256",
          "name": "index",
          "type": "uint256"
        },
        {
          "internalType": "uint256",
          "name": "open",
          "type": "uint256"
        },
        {
          "internalType": "uint256",
          "name": "close",
          "type": "uint256"
        }
      ],
      "name": "setHourlyCandle",
      "outputs": [],
      "stateMutability": "nonpayable",
      "type": "function"
    },
    {
      "inputs": [
        {
          "internalType": "uint256",
          "name": "_price",
          "type": "uint256"
        }
      ],
      "name": "setPrice",
      "outputs": [],
      "stateMutability": "nonpayable",
      "type": "function"
    }
  ],
  "bytecode": "0x608060405234801561001057600080fd5b506040516103763803806103768339818101604052810190610032919061007a565b80600081905550506100a7565b600080fd5b6000819050919050565b61005781610044565b811461006257600080fd5b50565b6000815190506100748161004e565b92915050565b6000602082840312156100905761008f61003f565b5b600061009e84828501610065565b91505092915050565b6102c0806100b66000396000f3fe608060405234801561001057600080fd5b506004361061004c5760003560e01c80632acd33621461005157806355abcac9146100825780638e15f4731461009e57806391b7f5ed146100bc575b600080fd5b61006b600480360381019061006691906101b7565b6100d8565b6040516100799291906101f3565b60405180910390f35b61009c6004803603810190610097919061021c565b610125565b005b6100a6610169565b6040516100b3919061026f565b60405180910390f35b6100d660048036038101906100d191906101b7565b610172565b005b600080600060016000858152602001908152602001600020604051806040016040529081600082015481526020016001820154815250509050806000015181602001519250925050915091565b604051806040016040528083815260200182815250600160008581526020019081526020016000206000820151816000015560208201518160010155905050505050565b60008054905090565b8060008190555050565b600080fd5b6000819050919050565b61019481610181565b811461019f57600080fd5b50565b6000813590506101b18161018b565b92915050565b6000602082840312156101cd576101cc61017c565b5b60006101db848285016101a2565b91505092915050565b6101ed81610181565b82525050565b600060408201905061020860008301856101e4565b61021560208301846101e4565b9392505050565b6000806000606084860312156102355761023461017c565b5b6000610243868287016101a2565b9350506020610254868287016101a2565b9250506040610265868287016101a2565b9150509250925092565b600060208201905061028460008301846101e4565b9291505056fea2646970667358221220223c0ebf2e6c1bc698d630088de2f10379cf20fa558c996c9618017f7ca35a9164736f6c63430008140033",
  "linkReferences": {},
  "deployedLinkReferences": {}
}