{
  "_format": "hh-sol-artifact-1",
  "contractName": "MockOracle",
  "sourceName": "contracts/MockOracle.sol",
  "abi": [
    {
      "inputs": [
        {
          "internalType": "uint256",
          "name": "_initialPrice",
          "type": "uint256"
        }
      ],
      "stateMutability": "nonpayable",
      "type": "constructor"
    },
    {
      "inputs": [
        {
          "internalType": "address",
          "name": "asset",
          "type": "address"
        }
      ],
      "name": "getAssetPrice",
      "outputs": [
        {
          "internalType": "uint256",
          "name": "",
          "type": "uint256"
        }
      ],
      "stateMutability": "view",
      "type": "function"
    },
    {
      "inputs": [
        {
          "internalType": "uint256",
          "name": "index",
          "type": "uint256"
        }
      ],
      "name": "getHourlyCandle",
      "outputs": [
        {
          "internalType": "uint256",
          "name": "open",
          "type": "uint256"
        },
        {
          "internalType": "uint256",
          "name": "close",
          "type": "uint256"
        }
      ],
      "stateMutability": "view",
      "type": "function"
    },
    {
      "inputs": [],
      "name": "getLatestPrice",
      "outputs": [
        {
          "internalType": "uint256",
          "name": "",
          "type": "uint256"
        }
      ],
      "stateMutability": "view",
      "type": "function"
    },
    {
      "inputs": [
        {
          "internalType": "address",
          "name": "asset",
          "type": "address"
        },
        {
          "internalType": "uint256",
          "name": "price",
          "type": "uint256"
        }
      ],
      "name": "setAssetPrice",
      "outputs": [],
      "stateMutability": "nonpayable",
      "type": "function"
    },
    {
      "inputs": [
        {
          "internalType": "uint256",
          "name": "index",
          "type": "uint256"
        },
        {
          "internalType": "uint256",
          "name": "open",
          "type": "uint256"
        },
        {
          "internalType": "uint256",
          "name": "close",
          "type": "uint256"
        }
      ],
      "name": "setHourlyCandle",
      "outputs": [],
      "stateMutability": "nonpayable",
      "type": "function"
    },
    {
      "inputs": [
        {
          "internalType": "uint256",
          "name": "_price",
          "type": "uint256"
        }
      ],
      "name": "setPrice",
      "outputs": [],
      "stateMutability": "nonpayable",
      "type": "function"
    }
  ],
  "bytecode": "0x608060405234801561001057600080fd5b506040516102bb3803806102bb83398101604081905261002f91610037565b600055610050565b60006020828403121561004957600080fd5b5051919050565b61025c8061005f6000396000f3fe608060405234801561001057600080fd5b50600436106100625760003560e01c80632acd33621461006757806351323f72146100b957806355abcac9146100e55780638e15f4731461011e57806391b7f5ed14610130578063b3596f0714610143575b600080fd5b61009f610075366004610180565b60009081526001602081815260409283902083518085019094528054808552920154920182905291565b604080519283526020830191909152015b60405180910390f35b6100e36100c73660046101b5565b6001600160a01b03909116600090815260026020526040902055565b005b6100e36100f33660046101df565b6040805180820182529283526020808401928352600094855260019081905293209151825551910155565b6000545b6040519081526020016100b0565b6100e361013e366004610180565b600055565b61012261015136600461020b565b6001600160a01b0381166000908152600260205260408120548061017757600054610179565b805b9392505050565b60006020828403121561019257600080fd5b5035919050565b80356001600160a01b03811681146101b057600080fd5b919050565b600080604083850312156101c857600080fd5b6101d183610199565b946020939093013593505050565b6000806000606084860312156101f457600080fd5b505081359360208301359350604090920135919050565b60006020828403121561021d57600080fd5b6101798261019956fea264697066735822122019a1dabbd67f61635c0047e741421a400d4b9a3e38f2a40a3c4121fdf0257bbc64736f6c63430008140033",
  "linkReferences": {},
  "deployedLinkReferences": {}
}