{
  "_format": "hh-sol-artifact-1",
  "contractName": "MockOracle",
  "sourceName": "contracts/MockOracle.sol",
  "abi": [
    {
      "inputs": [
        {
          "internalType": "uint256",
          "name": "_initialPrice",
          "type": "uint256"
        }
      ],
      "stateMutability": "nonpayable",
      "type": "constructor"
    },
    {
      "inputs": [
        {
          "internalType": "address",
          "name": "asset",
          "type": "address"
        }
      ],
      "name": "getAssetPrice",
      "outputs": [
        {
          "internalType": "uint256",
          "name": "",
          "type": "uint256"
        }
      ],
      "stateMutability": "view",
      "type": "function"
    },
    {
      "inputs": [
        {
          "internalType": "uint256",
          "name": "index",
          "type": "uint256"
        }
      ],
      "name": "getHourlyCandle",
      "outputs": [
        {
          "internalType": "uint256",
          "name": "open",
          "type": "uint256"
        },
        {
          "internalType": "uint256",
          "name": "close",
          "type": "uint256"
        }
      ],
      "stateMutability": "view",
      "type": "function"
    },
    {
      "inputs": [],
      "name": "getLatestPrice",
      "outputs": [
        {
          "internalType": "uint256",
          "name": "",
          "type": "uint256"
        }
      ],
      "stateMutability": "view",
      "type": "function"
    },
    {
      "inputs": [
        {
          "internalType": "address",
          "name": "asset",
          "type": "address"
        },
        {
          "internalType": "uint256",
          "name": "price",
          "type": "uint256"
        }
      ],
      "name": "setAssetPrice",
      "outputs": [],
      "stateMutability": "nonpayable",
      "type": "function"
    },
    {
      "inputs": [
        {
          "internalType": "uint256",
          "name": "index",
          "type": "uint256"
        },
        {
          "internalType": "uint256",
          "name": "open",
          "type": "uint256"
        },
        {
          "internalType": "uint256",
          "name": "close",
          "type": "uint256"
        }
      ],
      "name": "setHourlyCandle",
      "outputs": [],
      "stateMutability": "nonpayable",
      "type": "function"
    },
    {
      "inputs": [
        {
          "internalType": "uint256",
          "name": "_price",
          "type": "uint256"
        }
      ],
      "name": "setPrice",
      "outputs": [],
      "stateMutability": "nonpayable",
      "type": "function"
    }
  ],
  "bytecode": "0x608060405234801561001057600080fd5b5060405161054a38038061054a8339818101604052810190610032919061007a565b80600081905550506100a7565b600080fd5b6000819050919050565b61005781610044565b811461006257600080fd5b50565b6000815190506100748161004e565b92915050565b6000602082840312156100905761008f61003f565b5b600061009e84828501610065565b91505092915050565b610494806100b66000396000f3fe608060405234801561001057600080fd5b50600436106100625760003560e01c80632acd33621461006757806351323f721461009857806355abcac9146100b45780638e15f473146100d057806391b7f5ed146100ee578063b3596f071461010a575b600080fd5b610081600480360381019061007c91906102c0565b61013a565b60405161008f9291906102fc565b60405180910390f35b6100b260048036038101906100ad9190610383565b610187565b005b6100ce60048036038101906100c991906103c3565b6101cf565b005b6100d8610213565b6040516100e59190610416565b60405180910390f35b610108600480360381019061010391906102c0565b61021c565b005b610124600480360381019061011f9190610431565b610226565b6040516101319190610416565b60405180910390f35b600080600060016000858152602001908152602001600020604051806040016040529081600082015481526020016001820154815250509050806000015181602001519250925050915091565b80600260008473ffffffffffffffffffffffffffffffffffffffff1673ffffffffffffffffffffffffffffffffffffffff168152602001908152602001600020819055505050565b604051806040016040528083815260200182815250600160008581526020019081526020016000206000820151816000015560208201518160010155905050505050565b60008054905090565b8060008190555050565b600080600260008473ffffffffffffffffffffffffffffffffffffffff1673ffffffffffffffffffffffffffffffffffffffff1681526020019081526020016000205490506000811161027b5760005461027d565b805b915050919050565b600080fd5b6000819050919050565b61029d8161028a565b81146102a857600080fd5b50565b6000813590506102ba81610294565b92915050565b6000602082840312156102d6576102d5610285565b5b60006102e4848285016102ab565b91505092915050565b6102f68161028a565b82525050565b600060408201905061031160008301856102ed565b61031e60208301846102ed565b9392505050565b600073ffffffffffffffffffffffffffffffffffffffff82169050919050565b600061035082610325565b9050919050565b61036081610345565b811461036b57600080fd5b50565b60008135905061037d81610357565b92915050565b6000806040838503121561039a57610399610285565b5b60006103a88582860161036e565b92505060206103b9858286016102ab565b9150509250929050565b6000806000606084860312156103dc576103db610285565b5b60006103ea868287016102ab565b93505060206103fb868287016102ab565b925050604061040c868287016102ab565b9150509250925092565b600060208201905061042b60008301846102ed565b92915050565b60006020828403121561044757610446610285565b5b60006104558482850161036e565b9150509291505056fea2646970667358221220995a8024219a87891cd3024d7ea0dc5e9485ad2157cf004c9a95608413df290064736f6c63430008140033",
  "linkReferences": {},
  "deployedLinkReferences": {}
}