{
  "_format": "hh-sol-artifact-1",
  "contractName": "IvyCore",
  "sourceName": "contracts/IvyCore.sol",
  "abi": [
    {
      "inputs": [
        {
          "internalType": "address",
          "name": "_ivyToken",
          "type": "address"
        }
      ],
      "stateMutability": "nonpayable",
      "type": "constructor"
    },
    {
      "inputs": [
        {
          "internalType": "address",
          "name": "owner",
          "type": "address"
        }
      ],
      "name": "OwnableInvalidOwner",
      "type": "error"
    },
    {
      "inputs": [
        {
          "internalType": "address",
          "name": "account",
          "type": "address"
        }
      ],
      "name": "OwnableUnauthorizedAccount",
      "type": "error"
    },
    {
      "inputs": [],
      "name": "ReentrancyGuardReentrantCall",
      "type": "error"
    },
    {
      "anonymous": false,
      "inputs": [
        {
          "indexed": false,
          "internalType": "enum IvyCore.BreakerLevel",
          "name": "previousLevel",
          "type": "uint8"
        }
      ],
      "name": "CircuitBreakerReset",
      "type": "event"
    },
    {
      "anonymous": false,
      "inputs": [
        {
          "indexed": false,
          "internalType": "enum IvyCore.BreakerLevel",
          "name": "level",
          "type": "uint8"
        },
        {
          "indexed": false,
          "internalType": "uint256",
          "name": "activationTime",
          "type": "uint256"
        },
        {
          "indexed": false,
          "internalType": "uint256",
          "name": "activationPrice",
          "type": "uint256"
        }
      ],
      "name": "CircuitBreakerTriggered",
      "type": "event"
    },
    {
      "anonymous": false,
      "inputs": [
        {
          "indexed": false,
          "internalType": "uint256",
          "name": "newEmissionFactor",
          "type": "uint256"
        },
        {
          "indexed": false,
          "internalType": "uint256",
          "name": "totalMinted",
          "type": "uint256"
        }
      ],
      "name": "HalvingOccurred",
      "type": "event"
    },
    {
      "anonymous": false,
      "inputs": [
        {
          "indexed": true,
          "internalType": "address",
          "name": "user",
          "type": "address"
        },
        {
          "indexed": false,
          "internalType": "uint256",
          "name": "received",
          "type": "uint256"
        },
        {
          "indexed": false,
          "internalType": "uint256",
          "name": "burned",
          "type": "uint256"
        }
      ],
      "name": "InstantCashOut",
      "type": "event"
    },
    {
      "anonymous": false,
      "inputs": [
        {
          "indexed": true,
          "internalType": "address",
          "name": "previousOwner",
          "type": "address"
        },
        {
          "indexed": true,
          "internalType": "address",
          "name": "newOwner",
          "type": "address"
        }
      ],
      "name": "OwnershipTransferred",
      "type": "event"
    },
    {
      "anonymous": false,
      "inputs": [
        {
          "indexed": true,
          "internalType": "address",
          "name": "receiver",
          "type": "address"
        },
        {
          "indexed": true,
          "internalType": "address",
          "name": "capturer",
          "type": "address"
        },
        {
          "indexed": false,
          "internalType": "uint256",
          "name": "amount",
          "type": "uint256"
        }
      ],
      "name": "PeerBonusPaid",
      "type": "event"
    },
    {
      "anonymous": false,
      "inputs": [
        {
          "indexed": false,
          "internalType": "uint256",
          "name": "accIvyPerShare",
          "type": "uint256"
        },
        {
          "indexed": false,
          "internalType": "uint256",
          "name": "lastRewardTime",
          "type": "uint256"
        },
        {
          "indexed": false,
          "internalType": "uint256",
          "name": "totalPoolBondPower",
          "type": "uint256"
        }
      ],
      "name": "PoolUpdated",
      "type": "event"
    },
    {
      "anonymous": false,
      "inputs": [
        {
          "indexed": true,
          "internalType": "address",
          "name": "oracle",
          "type": "address"
        }
      ],
      "name": "PriceOracleSet",
      "type": "event"
    },
    {
      "anonymous": false,
      "inputs": [
        {
          "indexed": false,
          "internalType": "uint256",
          "name": "currentPrice",
          "type": "uint256"
        },
        {
          "indexed": false,
          "internalType": "uint256",
          "name": "ma30Price",
          "type": "uint256"
        },
        {
          "indexed": false,
          "internalType": "uint256",
          "name": "price1hAgo",
          "type": "uint256"
        }
      ],
      "name": "PriceUpdated",
      "type": "event"
    },
    {
      "anonymous": false,
      "inputs": [
        {
          "indexed": true,
          "internalType": "address",
          "name": "referrer",
          "type": "address"
        },
        {
          "indexed": true,
          "internalType": "address",
          "name": "from",
          "type": "address"
        },
        {
          "indexed": false,
          "internalType": "uint256",
          "name": "amount",
          "type": "uint256"
        },
        {
          "indexed": false,
          "internalType": "uint256",
          "name": "level",
          "type": "uint256"
        }
      ],
      "name": "ReferralRewardPaid",
      "type": "event"
    },
    {
      "anonymous": false,
      "inputs": [
        {
          "indexed": true,
          "internalType": "address",
          "name": "user",
          "type": "address"
        },
        {
          "indexed": false,
          "internalType": "uint256",
          "name": "amount",
          "type": "uint256"
        }
      ],
      "name": "RewardsHarvested",
      "type": "event"
    },
    {
      "anonymous": false,
      "inputs": [
        {
          "indexed": true,
          "internalType": "address",
          "name": "capturer",
          "type": "address"
        },
        {
          "indexed": true,
          "internalType": "address",
          "name": "blockedUpline",
          "type": "address"
        },
        {
          "indexed": false,
          "internalType": "uint256",
          "name": "amount",
          "type": "uint256"
        },
        {
          "indexed": false,
          "internalType": "uint256",
          "name": "depth",
          "type": "uint256"
        }
      ],
      "name": "TeamBonusCaptured",
      "type": "event"
    },
    {
      "anonymous": false,
      "inputs": [
        {
          "indexed": false,
          "internalType": "bool",
          "name": "testMode",
          "type": "bool"
        }
      ],
      "name": "TestModeChanged",
      "type": "event"
    },
    {
      "anonymous": false,
      "inputs": [],
      "name": "TestModePermanentlyDisabled",
      "type": "event"
    },
    {
      "anonymous": false,
      "inputs": [
        {
          "indexed": true,
          "internalType": "address",
          "name": "user",
          "type": "address"
        },
        {
          "indexed": false,
          "internalType": "uint256",
          "name": "bondPower",
          "type": "uint256"
        },
        {
          "indexed": false,
          "internalType": "uint256",
          "name": "rewardDebt",
          "type": "uint256"
        }
      ],
      "name": "UserSynced",
      "type": "event"
    },
    {
      "anonymous": false,
      "inputs": [
        {
          "indexed": true,
          "internalType": "address",
          "name": "user",
          "type": "address"
        },
        {
          "indexed": true,
          "internalType": "uint256",
          "name": "tokenId",
          "type": "uint256"
        },
        {
          "indexed": false,
          "internalType": "uint256",
          "name": "pendingIvy",
          "type": "uint256"
        },
        {
          "indexed": false,
          "internalType": "uint256",
          "name": "bonusPower",
          "type": "uint256"
        }
      ],
      "name": "VestedCompounded",
      "type": "event"
    },
    {
      "anonymous": false,
      "inputs": [
        {
          "indexed": true,
          "internalType": "address",
          "name": "user",
          "type": "address"
        },
        {
          "indexed": false,
          "internalType": "uint256",
          "name": "amount",
          "type": "uint256"
        }
      ],
      "name": "VestingClaimed",
      "type": "event"
    },
    {
      "anonymous": false,
      "inputs": [
        {
          "indexed": true,
          "internalType": "address",
          "name": "user",
          "type": "address"
        },
        {
          "indexed": false,
          "internalType": "uint256",
          "name": "amount",
          "type": "uint256"
        },
        {
          "indexed": false,
          "internalType": "uint256",
          "name": "startTime",
          "type": "uint256"
        }
      ],
      "name": "VestingStarted",
      "type": "event"
    },
    {
      "inputs": [],
      "name": "ACC_IVY_PRECISION",
      "outputs": [
        {
          "internalType": "uint256",
          "name": "",
          "type": "uint256"
        }
      ],
      "stateMutability": "view",
      "type": "function"
    },
    {
      "inputs": [],
      "name": "ALPHA_L1",
      "outputs": [
        {
          "internalType": "uint256",
          "name": "",
          "type": "uint256"
        }
      ],
      "stateMutability": "view",
      "type": "function"
    },
    {
      "inputs": [],
      "name": "ALPHA_L2",
      "outputs": [
        {
          "internalType": "uint256",
          "name": "",
          "type": "uint256"
        }
      ],
      "stateMutability": "view",
      "type": "function"
    },
    {
      "inputs": [],
      "name": "ALPHA_L3",
      "outputs": [
        {
          "internalType": "uint256",
          "name": "",
          "type": "uint256"
        }
      ],
      "stateMutability": "view",
      "type": "function"
    },
    {
      "inputs": [],
      "name": "BASE_DAILY_EMISSION",
      "outputs": [
        {
          "internalType": "uint256",
          "name": "",
          "type": "uint256"
        }
      ],
      "stateMutability": "view",
      "type": "function"
    },
    {
      "inputs": [],
      "name": "BASIS_POINTS",
      "outputs": [
        {
          "internalType": "uint256",
          "name": "",
          "type": "uint256"
        }
      ],
      "stateMutability": "view",
      "type": "function"
    },
    {
      "inputs": [],
      "name": "COOLDOWN_L1",
      "outputs": [
        {
          "internalType": "uint256",
          "name": "",
          "type": "uint256"
        }
      ],
      "stateMutability": "view",
      "type": "function"
    },
    {
      "inputs": [],
      "name": "COOLDOWN_L2",
      "outputs": [
        {
          "internalType": "uint256",
          "name": "",
          "type": "uint256"
        }
      ],
      "stateMutability": "view",
      "type": "function"
    },
    {
      "inputs": [],
      "name": "COOLDOWN_L3",
      "outputs": [
        {
          "internalType": "uint256",
          "name": "",
          "type": "uint256"
        }
      ],
      "stateMutability": "view",
      "type": "function"
    },
    {
      "inputs": [],
      "name": "DROP_L1",
      "outputs": [
        {
          "internalType": "int256",
          "name": "",
          "type": "int256"
        }
      ],
      "stateMutability": "view",
      "type": "function"
    },
    {
      "inputs": [],
      "name": "DROP_L2",
      "outputs": [
        {
          "internalType": "int256",
          "name": "",
          "type": "int256"
        }
      ],
      "stateMutability": "view",
      "type": "function"
    },
    {
      "inputs": [],
      "name": "DROP_L3",
      "outputs": [
        {
          "internalType": "int256",
          "name": "",
          "type": "int256"
        }
      ],
      "stateMutability": "view",
      "type": "function"
    },
    {
      "inputs": [],
      "name": "EMISSION_PER_SECOND",
      "outputs": [
        {
          "internalType": "uint256",
          "name": "",
          "type": "uint256"
        }
      ],
      "stateMutability": "view",
      "type": "function"
    },
    {
      "inputs": [],
      "name": "HALVING_DECAY",
      "outputs": [
        {
          "internalType": "uint256",
          "name": "",
          "type": "uint256"
        }
      ],
      "stateMutability": "view",
      "type": "function"
    },
    {
      "inputs": [],
      "name": "HALVING_THRESHOLD",
      "outputs": [
        {
          "internalType": "uint256",
          "name": "",
          "type": "uint256"
        }
      ],
      "stateMutability": "view",
      "type": "function"
    },
    {
      "inputs": [],
      "name": "HARD_CAP",
      "outputs": [
        {
          "internalType": "uint256",
          "name": "",
          "type": "uint256"
        }
      ],
      "stateMutability": "view",
      "type": "function"
    },
    {
      "inputs": [],
      "name": "INFINITE_RATE",
      "outputs": [
        {
          "internalType": "uint256",
          "name": "",
          "type": "uint256"
        }
      ],
      "stateMutability": "view",
      "type": "function"
    },
    {
      "inputs": [],
      "name": "INSTANT_CASH_PENALTY",
      "outputs": [
        {
          "internalType": "uint256",
          "name": "",
          "type": "uint256"
        }
      ],
      "stateMutability": "view",
      "type": "function"
    },
    {
      "inputs": [],
      "name": "L1_RATE",
      "outputs": [
        {
          "internalType": "uint256",
          "name": "",
          "type": "uint256"
        }
      ],
      "stateMutability": "view",
      "type": "function"
    },
    {
      "inputs": [],
      "name": "L2_RATE",
      "outputs": [
        {
          "internalType": "uint256",
          "name": "",
          "type": "uint256"
        }
      ],
      "stateMutability": "view",
      "type": "function"
    },
    {
      "inputs": [],
      "name": "MAX_PRICE_CHANGE_PERCENT",
      "outputs": [
        {
          "internalType": "uint256",
          "name": "",
          "type": "uint256"
        }
      ],
      "stateMutability": "view",
      "type": "function"
    },
    {
      "inputs": [],
      "name": "MAX_REFERRAL_DEPTH",
      "outputs": [
        {
          "internalType": "uint256",
          "name": "",
          "type": "uint256"
        }
      ],
      "stateMutability": "view",
      "type": "function"
    },
    {
      "inputs": [],
      "name": "MINING_CAP",
      "outputs": [
        {
          "internalType": "uint256",
          "name": "",
          "type": "uint256"
        }
      ],
      "stateMutability": "view",
      "type": "function"
    },
    {
      "inputs": [],
      "name": "PEER_BONUS_RATE",
      "outputs": [
        {
          "internalType": "uint256",
          "name": "",
          "type": "uint256"
        }
      ],
      "stateMutability": "view",
      "type": "function"
    },
    {
      "inputs": [],
      "name": "PID_CAP",
      "outputs": [
        {
          "internalType": "uint256",
          "name": "",
          "type": "uint256"
        }
      ],
      "stateMutability": "view",
      "type": "function"
    },
    {
      "inputs": [],
      "name": "PID_FLOOR",
      "outputs": [
        {
          "internalType": "uint256",
          "name": "",
          "type": "uint256"
        }
      ],
      "stateMutability": "view",
      "type": "function"
    },
    {
      "inputs": [],
      "name": "PID_K",
      "outputs": [
        {
          "internalType": "uint256",
          "name": "",
          "type": "uint256"
        }
      ],
      "stateMutability": "view",
      "type": "function"
    },
    {
      "inputs": [],
      "name": "TEAM_STATS_MAX_DEPTH",
      "outputs": [
        {
          "internalType": "uint256",
          "name": "",
          "type": "uint256"
        }
      ],
      "stateMutability": "view",
      "type": "function"
    },
    {
      "inputs": [],
      "name": "VESTING_PERIOD",
      "outputs": [
        {
          "internalType": "uint256",
          "name": "",
          "type": "uint256"
        }
      ],
      "stateMutability": "view",
      "type": "function"
    },
    {
      "inputs": [],
      "name": "accIvyPerShare",
      "outputs": [
        {
          "internalType": "uint256",
          "name": "",
          "type": "uint256"
        }
      ],
      "stateMutability": "view",
      "type": "function"
    },
    {
      "inputs": [],
      "name": "breakerState",
      "outputs": [
        {
          "internalType": "enum IvyCore.BreakerLevel",
          "name": "currentLevel",
          "type": "uint8"
        },
        {
          "internalType": "uint256",
          "name": "activationTime",
          "type": "uint256"
        },
        {
          "internalType": "uint256",
          "name": "activationPrice",
          "type": "uint256"
        }
      ],
      "stateMutability": "view",
      "type": "function"
    },
    {
      "inputs": [],
      "name": "checkCircuitBreaker",
      "outputs": [],
      "stateMutability": "nonpayable",
      "type": "function"
    },
    {
      "inputs": [],
      "name": "claimVested",
      "outputs": [],
      "stateMutability": "nonpayable",
      "type": "function"
    },
    {
      "inputs": [
        {
          "internalType": "uint256",
          "name": "tokenId",
          "type": "uint256"
        }
      ],
      "name": "compoundVested",
      "outputs": [],
      "stateMutability": "nonpayable",
      "type": "function"
    },
    {
      "inputs": [],
      "name": "currentDailyEmission",
      "outputs": [
        {
          "internalType": "uint256",
          "name": "",
          "type": "uint256"
        }
      ],
      "stateMutability": "view",
      "type": "function"
    },
    {
      "inputs": [],
      "name": "currentPrice",
      "outputs": [
        {
          "internalType": "uint256",
          "name": "",
          "type": "uint256"
        }
      ],
      "stateMutability": "view",
      "type": "function"
    },
    {
      "inputs": [
        {
          "internalType": "address",
          "name": "",
          "type": "address"
        },
        {
          "internalType": "uint256",
          "name": "",
          "type": "uint256"
        }
      ],
      "name": "directReferrals",
      "outputs": [
        {
          "internalType": "address",
          "name": "",
          "type": "address"
        }
      ],
      "stateMutability": "view",
      "type": "function"
    },
    {
      "inputs": [],
      "name": "dividendPool",
      "outputs": [
        {
          "internalType": "contract IDividendPool",
          "name": "",
          "type": "address"
        }
      ],
      "stateMutability": "view",
      "type": "function"
    },
    {
      "inputs": [],
      "name": "emissionFactor",
      "outputs": [
        {
          "internalType": "uint256",
          "name": "",
          "type": "uint256"
        }
      ],
      "stateMutability": "view",
      "type": "function"
    },
    {
      "inputs": [],
      "name": "genesisNode",
      "outputs": [
        {
          "internalType": "contract IGenesisNode",
          "name": "",
          "type": "address"
        }
      ],
      "stateMutability": "view",
      "type": "function"
    },
    {
      "inputs": [],
      "name": "getBreakerStatus",
      "outputs": [
        {
          "internalType": "enum IvyCore.BreakerLevel",
          "name": "level",
          "type": "uint8"
        },
        {
          "internalType": "uint256",
          "name": "activationTime",
          "type": "uint256"
        },
        {
          "internalType": "uint256",
          "name": "activationPrice",
          "type": "uint256"
        },
        {
          "internalType": "uint256",
          "name": "timeRemaining",
          "type": "uint256"
        },
        {
          "internalType": "uint256",
          "name": "forcedAlpha",
          "type": "uint256"
        }
      ],
      "stateMutability": "view",
      "type": "function"
    },
    {
      "inputs": [
        {
          "internalType": "address",
          "name": "user",
          "type": "address"
        }
      ],
      "name": "getDirectReferrals",
      "outputs": [
        {
          "internalType": "address[]",
          "name": "referrals",
          "type": "address[]"
        },
        {
          "internalType": "uint256[]",
          "name": "bondPowers",
          "type": "uint256[]"
        },
        {
          "internalType": "uint256[]",
          "name": "totalRewards",
          "type": "uint256[]"
        }
      ],
      "stateMutability": "view",
      "type": "function"
    },
    {
      "inputs": [],
      "name": "getFinalMultiplier",
      "outputs": [
        {
          "internalType": "uint256",
          "name": "",
          "type": "uint256"
        }
      ],
      "stateMutability": "view",
      "type": "function"
    },
    {
      "inputs": [],
      "name": "getHalvingInfo",
      "outputs": [
        {
          "internalType": "uint256",
          "name": "_halvingCount",
          "type": "uint256"
        },
        {
          "internalType": "uint256",
          "name": "_emissionFactor",
          "type": "uint256"
        },
        {
          "internalType": "uint256",
          "name": "_nextHalvingAt",
          "type": "uint256"
        },
        {
          "internalType": "uint256",
          "name": "_progressToNextHalving",
          "type": "uint256"
        }
      ],
      "stateMutability": "view",
      "type": "function"
    },
    {
      "inputs": [],
      "name": "getPIDAlpha",
      "outputs": [
        {
          "internalType": "uint256",
          "name": "",
          "type": "uint256"
        }
      ],
      "stateMutability": "view",
      "type": "function"
    },
    {
      "inputs": [],
      "name": "getProtocolStats",
      "outputs": [
        {
          "internalType": "uint256",
          "name": "_totalMinted",
          "type": "uint256"
        },
        {
          "internalType": "uint256",
          "name": "_miningCap",
          "type": "uint256"
        },
        {
          "internalType": "uint256",
          "name": "_emissionFactor",
          "type": "uint256"
        },
        {
          "internalType": "uint256",
          "name": "_finalMultiplier",
          "type": "uint256"
        },
        {
          "internalType": "uint256",
          "name": "_totalPoolBondPower",
          "type": "uint256"
        },
        {
          "internalType": "uint256",
          "name": "_emissionPerSecond",
          "type": "uint256"
        },
        {
          "internalType": "uint256",
          "name": "_currentDailyEmission",
          "type": "uint256"
        },
        {
          "internalType": "uint256",
          "name": "_halvingCount",
          "type": "uint256"
        }
      ],
      "stateMutability": "view",
      "type": "function"
    },
    {
      "inputs": [
        {
          "internalType": "address",
          "name": "user",
          "type": "address"
        },
        {
          "internalType": "uint256",
          "name": "offset",
          "type": "uint256"
        },
        {
          "internalType": "uint256",
          "name": "limit",
          "type": "uint256"
        }
      ],
      "name": "getReferralRewardHistory",
      "outputs": [
        {
          "components": [
            {
              "internalType": "uint256",
              "name": "timestamp",
              "type": "uint256"
            },
            {
              "internalType": "uint256",
              "name": "amount",
              "type": "uint256"
            },
            {
              "internalType": "uint8",
              "name": "level",
              "type": "uint8"
            },
            {
              "internalType": "address",
              "name": "fromUser",
              "type": "address"
            }
          ],
          "internalType": "struct IvyCore.ReferralRewardRecord[]",
          "name": "records",
          "type": "tuple[]"
        },
        {
          "internalType": "uint256",
          "name": "total",
          "type": "uint256"
        }
      ],
      "stateMutability": "view",
      "type": "function"
    },
    {
      "inputs": [
        {
          "internalType": "address",
          "name": "user",
          "type": "address"
        }
      ],
      "name": "getTeamPerformance",
      "outputs": [
        {
          "internalType": "uint256",
          "name": "rank",
          "type": "uint256"
        },
        {
          "internalType": "uint256",
          "name": "teamBondPower",
          "type": "uint256"
        },
        {
          "internalType": "uint256",
          "name": "teamActiveRate",
          "type": "uint256"
        },
        {
          "internalType": "uint256",
          "name": "avgBondPower",
          "type": "uint256"
        }
      ],
      "stateMutability": "view",
      "type": "function"
    },
    {
      "inputs": [
        {
          "internalType": "address",
          "name": "user",
          "type": "address"
        }
      ],
      "name": "getTeamStats",
      "outputs": [
        {
          "internalType": "uint256",
          "name": "totalMembers",
          "type": "uint256"
        },
        {
          "internalType": "uint256",
          "name": "totalBondPower",
          "type": "uint256"
        },
        {
          "internalType": "uint256",
          "name": "activeMembers",
          "type": "uint256"
        },
        {
          "internalType": "uint256",
          "name": "directCount",
          "type": "uint256"
        }
      ],
      "stateMutability": "view",
      "type": "function"
    },
    {
      "inputs": [
        {
          "internalType": "address",
          "name": "user",
          "type": "address"
        }
      ],
      "name": "getUserMiningStats",
      "outputs": [
        {
          "internalType": "uint256",
          "name": "bondPower",
          "type": "uint256"
        },
        {
          "internalType": "uint256",
          "name": "pendingRewards",
          "type": "uint256"
        },
        {
          "internalType": "uint256",
          "name": "totalVested",
          "type": "uint256"
        },
        {
          "internalType": "uint256",
          "name": "totalClaimed",
          "type": "uint256"
        },
        {
          "internalType": "uint256",
          "name": "claimableNow",
          "type": "uint256"
        }
      ],
      "stateMutability": "view",
      "type": "function"
    },
    {
      "inputs": [
        {
          "internalType": "address",
          "name": "user",
          "type": "address"
        }
      ],
      "name": "getUserReferralSummary",
      "outputs": [
        {
          "internalType": "uint256",
          "name": "directReferralCount",
          "type": "uint256"
        },
        {
          "internalType": "uint256",
          "name": "totalTeamSize",
          "type": "uint256"
        },
        {
          "internalType": "uint256",
          "name": "totalReferralRewards",
          "type": "uint256"
        },
        {
          "internalType": "uint256",
          "name": "rewardHistoryCount",
          "type": "uint256"
        },
        {
          "internalType": "bool",
          "name": "hasGenesisNode",
          "type": "bool"
        }
      ],
      "stateMutability": "view",
      "type": "function"
    },
    {
      "inputs": [
        {
          "internalType": "address",
          "name": "user",
          "type": "address"
        }
      ],
      "name": "getVestingInfo",
      "outputs": [
        {
          "internalType": "uint256",
          "name": "totalVested",
          "type": "uint256"
        },
        {
          "internalType": "uint256",
          "name": "totalClaimed",
          "type": "uint256"
        },
        {
          "internalType": "uint256",
          "name": "vestingStartTime",
          "type": "uint256"
        },
        {
          "internalType": "uint256",
          "name": "claimableNow",
          "type": "uint256"
        },
        {
          "internalType": "uint256",
          "name": "remainingLocked",
          "type": "uint256"
        },
        {
          "internalType": "uint256",
          "name": "vestingProgress",
          "type": "uint256"
        }
      ],
      "stateMutability": "view",
      "type": "function"
    },
    {
      "inputs": [],
      "name": "halvingCount",
      "outputs": [
        {
          "internalType": "uint256",
          "name": "",
          "type": "uint256"
        }
      ],
      "stateMutability": "view",
      "type": "function"
    },
    {
      "inputs": [],
      "name": "harvest",
      "outputs": [],
      "stateMutability": "nonpayable",
      "type": "function"
    },
    {
      "inputs": [],
      "name": "instantCashOut",
      "outputs": [],
      "stateMutability": "nonpayable",
      "type": "function"
    },
    {
      "inputs": [],
      "name": "isFullyDecentralized",
      "outputs": [
        {
          "internalType": "bool",
          "name": "",
          "type": "bool"
        }
      ],
      "stateMutability": "view",
      "type": "function"
    },
    {
      "inputs": [],
      "name": "ivyBond",
      "outputs": [
        {
          "internalType": "contract IIvyBond",
          "name": "",
          "type": "address"
        }
      ],
      "stateMutability": "view",
      "type": "function"
    },
    {
      "inputs": [],
      "name": "ivyToken",
      "outputs": [
        {
          "internalType": "contract IvyToken",
          "name": "",
          "type": "address"
        }
      ],
      "stateMutability": "view",
      "type": "function"
    },
    {
      "inputs": [],
      "name": "lastHalvingMinted",
      "outputs": [
        {
          "internalType": "uint256",
          "name": "",
          "type": "uint256"
        }
      ],
      "stateMutability": "view",
      "type": "function"
    },
    {
      "inputs": [],
      "name": "lastPriceUpdateTime",
      "outputs": [
        {
          "internalType": "uint256",
          "name": "",
          "type": "uint256"
        }
      ],
      "stateMutability": "view",
      "type": "function"
    },
    {
      "inputs": [],
      "name": "lastRewardTime",
      "outputs": [
        {
          "internalType": "uint256",
          "name": "",
          "type": "uint256"
        }
      ],
      "stateMutability": "view",
      "type": "function"
    },
    {
      "inputs": [],
      "name": "ma30Price",
      "outputs": [
        {
          "internalType": "uint256",
          "name": "",
          "type": "uint256"
        }
      ],
      "stateMutability": "view",
      "type": "function"
    },
    {
      "inputs": [],
      "name": "oracle",
      "outputs": [
        {
          "internalType": "contract IPriceOracle",
          "name": "",
          "type": "address"
        }
      ],
      "stateMutability": "view",
      "type": "function"
    },
    {
      "inputs": [],
      "name": "owner",
      "outputs": [
        {
          "internalType": "address",
          "name": "",
          "type": "address"
        }
      ],
      "stateMutability": "view",
      "type": "function"
    },
    {
      "inputs": [
        {
          "internalType": "address",
          "name": "user",
          "type": "address"
        }
      ],
      "name": "pendingIvy",
      "outputs": [
        {
          "internalType": "uint256",
          "name": "",
          "type": "uint256"
        }
      ],
      "stateMutability": "view",
      "type": "function"
    },
    {
      "inputs": [],
      "name": "price1hAgo",
      "outputs": [
        {
          "internalType": "uint256",
          "name": "",
          "type": "uint256"
        }
      ],
      "stateMutability": "view",
      "type": "function"
    },
    {
      "inputs": [
        {
          "internalType": "address",
          "name": "",
          "type": "address"
        },
        {
          "internalType": "uint256",
          "name": "",
          "type": "uint256"
        }
      ],
      "name": "referralRewardHistory",
      "outputs": [
        {
          "internalType": "uint256",
          "name": "timestamp",
          "type": "uint256"
        },
        {
          "internalType": "uint256",
          "name": "amount",
          "type": "uint256"
        },
        {
          "internalType": "uint8",
          "name": "level",
          "type": "uint8"
        },
        {
          "internalType": "address",
          "name": "fromUser",
          "type": "address"
        }
      ],
      "stateMutability": "view",
      "type": "function"
    },
    {
      "inputs": [
        {
          "internalType": "address",
          "name": "",
          "type": "address"
        }
      ],
      "name": "referralRewardsEarned",
      "outputs": [
        {
          "internalType": "uint256",
          "name": "",
          "type": "uint256"
        }
      ],
      "stateMutability": "view",
      "type": "function"
    },
    {
      "inputs": [],
      "name": "renounceOwnership",
      "outputs": [],
      "stateMutability": "nonpayable",
      "type": "function"
    },
    {
      "inputs": [],
      "name": "resetCircuitBreaker",
      "outputs": [],
      "stateMutability": "nonpayable",
      "type": "function"
    },
    {
      "inputs": [
        {
          "internalType": "address",
          "name": "_dividendPool",
          "type": "address"
        }
      ],
      "name": "setDividendPool",
      "outputs": [],
      "stateMutability": "nonpayable",
      "type": "function"
    },
    {
      "inputs": [
        {
          "internalType": "address",
          "name": "_genesisNode",
          "type": "address"
        }
      ],
      "name": "setGenesisNode",
      "outputs": [],
      "stateMutability": "nonpayable",
      "type": "function"
    },
    {
      "inputs": [
        {
          "internalType": "address",
          "name": "_ivyBond",
          "type": "address"
        }
      ],
      "name": "setIvyBond",
      "outputs": [],
      "stateMutability": "nonpayable",
      "type": "function"
    },
    {
      "inputs": [
        {
          "internalType": "address",
          "name": "_oracle",
          "type": "address"
        }
      ],
      "name": "setOracle",
      "outputs": [],
      "stateMutability": "nonpayable",
      "type": "function"
    },
    {
      "inputs": [
        {
          "internalType": "bool",
          "name": "_testMode",
          "type": "bool"
        }
      ],
      "name": "setTestMode",
      "outputs": [],
      "stateMutability": "nonpayable",
      "type": "function"
    },
    {
      "inputs": [
        {
          "internalType": "address",
          "name": "user",
          "type": "address"
        }
      ],
      "name": "syncUser",
      "outputs": [],
      "stateMutability": "nonpayable",
      "type": "function"
    },
    {
      "inputs": [
        {
          "internalType": "address",
          "name": "",
          "type": "address"
        }
      ],
      "name": "teamStatsCache",
      "outputs": [
        {
          "internalType": "uint256",
          "name": "totalMembers",
          "type": "uint256"
        },
        {
          "internalType": "uint256",
          "name": "totalBondPower",
          "type": "uint256"
        },
        {
          "internalType": "uint256",
          "name": "activeMembers",
          "type": "uint256"
        },
        {
          "internalType": "uint256",
          "name": "lastUpdateTime",
          "type": "uint256"
        }
      ],
      "stateMutability": "view",
      "type": "function"
    },
    {
      "inputs": [],
      "name": "testMode",
      "outputs": [
        {
          "internalType": "bool",
          "name": "",
          "type": "bool"
        }
      ],
      "stateMutability": "view",
      "type": "function"
    },
    {
      "inputs": [],
      "name": "testModeDisabledPermanently",
      "outputs": [
        {
          "internalType": "bool",
          "name": "",
          "type": "bool"
        }
      ],
      "stateMutability": "view",
      "type": "function"
    },
    {
      "inputs": [],
      "name": "totalMinted",
      "outputs": [
        {
          "internalType": "uint256",
          "name": "",
          "type": "uint256"
        }
      ],
      "stateMutability": "view",
      "type": "function"
    },
    {
      "inputs": [],
      "name": "totalPoolBondPower",
      "outputs": [
        {
          "internalType": "uint256",
          "name": "",
          "type": "uint256"
        }
      ],
      "stateMutability": "view",
      "type": "function"
    },
    {
      "inputs": [
        {
          "internalType": "address",
          "name": "newOwner",
          "type": "address"
        }
      ],
      "name": "transferOwnership",
      "outputs": [],
      "stateMutability": "nonpayable",
      "type": "function"
    },
    {
      "inputs": [],
      "name": "updatePool",
      "outputs": [],
      "stateMutability": "nonpayable",
      "type": "function"
    },
    {
      "inputs": [
        {
          "internalType": "uint256",
          "name": "_currentPrice",
          "type": "uint256"
        },
        {
          "internalType": "uint256",
          "name": "_ma30Price",
          "type": "uint256"
        },
        {
          "internalType": "uint256",
          "name": "_price1hAgo",
          "type": "uint256"
        }
      ],
      "name": "updatePrices",
      "outputs": [],
      "stateMutability": "nonpayable",
      "type": "function"
    },
    {
      "inputs": [
        {
          "internalType": "address",
          "name": "",
          "type": "address"
        }
      ],
      "name": "userInfo",
      "outputs": [
        {
          "internalType": "uint256",
          "name": "bondPower",
          "type": "uint256"
        },
        {
          "internalType": "uint256",
          "name": "rewardDebt",
          "type": "uint256"
        },
        {
          "internalType": "uint256",
          "name": "pendingVested",
          "type": "uint256"
        },
        {
          "internalType": "uint256",
          "name": "vestingStartTime",
          "type": "uint256"
        },
        {
          "internalType": "uint256",
          "name": "totalVested",
          "type": "uint256"
        },
        {
          "internalType": "uint256",
          "name": "totalClaimed",
          "type": "uint256"
        }
      ],
      "stateMutability": "view",
      "type": "function"
    }
  ],
  "bytecode": "0x6080604052670de0b6b3a7640000600d55670de0b6b3a7640000601155670de0b6b3a7640000601255670de0b6b3a76400006013556001601460006101000a81548160ff0219169083151502179055503480156200005c57600080fd5b5060405162007d9b38038062007d9b83398181016040528101906200008291906200028e565b33600073ffffffffffffffffffffffffffffffffffffffff168173ffffffffffffffffffffffffffffffffffffffff1603620000f85760006040517f1e4fbdf7000000000000000000000000000000000000000000000000000000008152600401620000ef9190620002d1565b60405180910390fd5b62000109816200016060201b60201c565b506001808190555080600460006101000a81548173ffffffffffffffffffffffffffffffffffffffff021916908373ffffffffffffffffffffffffffffffffffffffff16021790555042600b8190555050620002ee565b60008060009054906101000a900473ffffffffffffffffffffffffffffffffffffffff169050816000806101000a81548173ffffffffffffffffffffffffffffffffffffffff021916908373ffffffffffffffffffffffffffffffffffffffff1602179055508173ffffffffffffffffffffffffffffffffffffffff168173ffffffffffffffffffffffffffffffffffffffff167f8be0079c531659141344cd1fd0a4f28419497f9722a3daafe3b4186f6b6457e060405160405180910390a35050565b600080fd5b600073ffffffffffffffffffffffffffffffffffffffff82169050919050565b6000620002568262000229565b9050919050565b620002688162000249565b81146200027457600080fd5b50565b60008151905062000288816200025d565b92915050565b600060208284031215620002a757620002a662000224565b5b6000620002b78482850162000277565b91505092915050565b620002cb8162000249565b82525050565b6000602082019050620002e86000830184620002c0565b92915050565b617a9d80620002fe6000396000f3fe608060405234801561001057600080fd5b50600436106104b75760003560e01c8063983d896e11610278578063d2522baa1161015c578063e88067e8116100ce578063f2fde38b11610092578063f2fde38b14610e53578063f706555b14610e6f578063f864233114610e8d578063f89f83fb14610eab578063fb897ce414610edc578063fc84d91314610f11576104b7565b8063e88067e814610dbe578063e979ca4a14610dda578063eacf59c814610de4578063eef1be2c14610e02578063f2eef31614610e20576104b7565b8063de5f8d9311610120578063de5f8d9314610d20578063e0c9bc6214610d2a578063e1f1c4a714610d48578063e3161ddd14610d66578063e4147ca214610d70578063e4941c3914610d8e576104b7565b8063d2522baa14610c74578063d2c8e0e514610c7e578063d63636e414610cb0578063da6510b414610ce4578063dcebf68114610d02576104b7565b8063a7bd3e9d116101f5578063b3def2f5116101b9578063b3def2f514610bd4578063cd9ea34214610bf2578063cda80bfa14610c10578063ce28c1bf14610c2e578063d01c44cd14610c4c578063d2121b4e14610c56576104b7565b8063a7bd3e9d14610b18578063a95d5a6014610b34578063aa4a442c14610b52578063af77063d14610b85578063afce88ec14610ba1576104b7565b80639f55d64c1161023c5780639f55d64c14610a70578063a2309ff814610a8e578063a28aee1514610aac578063a29a7ab014610aca578063a2f2794414610afa576104b7565b8063983d896e146109da5780639b565faa146109f85780639c41ee6714610a165780639d14b2a214610a345780639d1b464a14610a52576104b7565b8063458f8f941161039f57806375beb7b11161031c57806389e59ea0116102e057806389e59ea0146109285780638da5cb5b146109465780638e8b6c88146109645780639231cf7414610980578063934b7c541461099e578063945c3ebd146109bc576104b7565b806375beb7b11461088b578063763f6206146108a9578063771aceef146108c95780637adbf973146108ee5780637dc0d1d01461090a576104b7565b80634a08c7dd116103635780634a08c7dd146107de57806352aa8a5e146108115780635e147f901461082f578063715018a61461084d57806374c7773e14610857576104b7565b8063458f8f941461075c5780634641257d1461077a5780634897fffb1461078457806349b9a7af146107a257806349cea162146107c0576104b7565b80631959a002116104385780632b5615d2116103fc5780632b5615d2146106aa57806330d172d5146106c857806336be3538146106e65780633a03171c146107045780633eceb63e146107225780633ed620a414610740576104b7565b80631959a002146105ff5780631ff1292f1461063457806321cccba214610650578063277c19b01461066e578063291465551461068c576104b7565b8063091075a91161047f578063091075a9146105665780630c2330a51461058457806310d60dc4146105a2578063123d1179146105c357806318c3b674146105e1576104b7565b80630197d972146104bc578063033d30fe146104da57806303e45a4b146104f65780630420bace1461051857806305ad393514610536575b600080fd5b6104c4610f2f565b6040516104d19190615fad565b60405180910390f35b6104f460048036038101906104ef919061602b565b610f36565b005b6104fe610ff1565b60405161050f9594939291906160cf565b60405180910390f35b61052061113e565b60405161052d9190615fad565b60405180910390f35b610550600480360381019061054b919061614e565b61114a565b60405161055d919061619d565b60405180910390f35b61056e611198565b60405161057b9190615fad565b60405180910390f35b61058c6111e8565b6040516105999190615fad565b60405180910390f35b6105aa6111ee565b6040516105ba94939291906161b8565b60405180910390f35b6105cb61127c565b6040516105d89190616216565b60405180910390f35b6105e96112a0565b6040516105f6919061624c565b60405180910390f35b6106196004803603810190610614919061602b565b6112b3565b60405161062b96959493929190616267565b60405180910390f35b61064e600480360381019061064991906162f4565b6112ef565b005b610658611528565b6040516106659190615fad565b60405180910390f35b610676611534565b6040516106839190615fad565b60405180910390f35b610694611539565b6040516106a19190616380565b60405180910390f35b6106b261155f565b6040516106bf9190615fad565b60405180910390f35b6106d061156b565b6040516106dd91906163bc565b60405180910390f35b6106ee611591565b6040516106fb9190615fad565b60405180910390f35b61070c611597565b6040516107199190615fad565b60405180910390f35b61072a6115a6565b6040516107379190615fad565b60405180910390f35b61075a600480360381019061075591906163d7565b6115ac565b005b6107646119e1565b6040516107719190615fad565b60405180910390f35b6107826119ea565b005b61078c611d41565b604051610799919061644b565b60405180910390f35b6107aa611d67565b6040516107b79190615fad565b60405180910390f35b6107c8611d6d565b6040516107d5919061624c565b60405180910390f35b6107f860048036038101906107f3919061614e565b611d84565b6040516108089493929190616482565b60405180910390f35b610819611dfe565b6040516108269190615fad565b60405180910390f35b610837611e13565b6040516108449190616216565b60405180910390f35b610855611e37565b005b610871600480360381019061086c919061602b565b611e4b565b6040516108829594939291906164c7565b60405180910390f35b610893611f1c565b6040516108a09190615fad565b60405180910390f35b6108b1611f21565b6040516108c09392919061651a565b60405180910390f35b6108d1611f46565b6040516108e5989796959493929190616551565b60405180910390f35b6109086004803603810190610903919061602b565b611fe2565b005b6109126120e0565b60405161091f91906165f0565b60405180910390f35b610930612106565b60405161093d9190615fad565b60405180910390f35b61094e61210b565b60405161095b919061619d565b60405180910390f35b61097e6004803603810190610979919061602b565b612134565b005b610988612140565b6040516109959190615fad565b60405180910390f35b6109a6612146565b6040516109b39190615fad565b60405180910390f35b6109c461214c565b6040516109d19190615fad565b60405180910390f35b6109e261215a565b6040516109ef9190615fad565b60405180910390f35b610a0061215f565b604051610a0d919061662c565b60405180910390f35b610a1e612185565b604051610a2b9190615fad565b60405180910390f35b610a3c61218a565b604051610a499190615fad565b60405180910390f35b610a5a612190565b604051610a679190615fad565b60405180910390f35b610a78612196565b604051610a859190615fad565b60405180910390f35b610a966121a5565b604051610aa39190615fad565b60405180910390f35b610ab46121ab565b604051610ac19190615fad565b60405180910390f35b610ae46004803603810190610adf919061602b565b6121c7565b604051610af19190615fad565b60405180910390f35b610b026121df565b604051610b0f9190615fad565b60405180910390f35b610b326004803603810190610b2d919061602b565b6121e4565b005b610b3c61229f565b604051610b499190615fad565b60405180910390f35b610b6c6004803603810190610b67919061602b565b6122ab565b604051610b7c94939291906161b8565b60405180910390f35b610b9f6004803603810190610b9a9190616647565b6122db565b005b610bbb6004803603810190610bb6919061602b565b612913565b604051610bcb94939291906161b8565b60405180910390f35b610bdc612a85565b604051610be99190615fad565b60405180910390f35b610bfa612a8b565b604051610c07919061624c565b60405180910390f35b610c18612a9e565b604051610c259190615fad565b60405180910390f35b610c36612aa9565b604051610c439190615fad565b60405180910390f35b610c54612ab8565b005b610c5e612d63565b604051610c6b9190615fad565b60405180910390f35b610c7c612d69565b005b610c986004803603810190610c93919061602b565b612f03565b604051610ca7939291906167f0565b60405180910390f35b610cca6004803603810190610cc5919061602b565b613287565b604051610cdb95949392919061683c565b60405180910390f35b610cec61346e565b604051610cf99190615fad565b60405180910390f35b610d0a613474565b604051610d179190615fad565b60405180910390f35b610d28613480565b005b610d32613689565b604051610d3f9190616216565b60405180910390f35b610d506136ad565b604051610d5d9190615fad565b60405180910390f35b610d6e6136b3565b005b610d78613831565b604051610d859190615fad565b60405180910390f35b610da86004803603810190610da3919061602b565b6139b2565b604051610db59190615fad565b60405180910390f35b610dd86004803603810190610dd3919061602b565b613b16565b005b610de2613bd1565b005b610dec613e6c565b604051610df99190615fad565b60405180910390f35b610e0a613e73565b604051610e179190615fad565b60405180910390f35b610e3a6004803603810190610e35919061602b565b613e79565b604051610e4a94939291906161b8565b60405180910390f35b610e6d6004803603810190610e68919061602b565b613f49565b005b610e77613fcf565b604051610e849190615fad565b60405180910390f35b610e95613fd5565b604051610ea29190615fad565b60405180910390f35b610ec56004803603810190610ec0919061688f565b613fdb565b604051610ed39291906169f5565b60405180910390f35b610ef66004803603810190610ef1919061602b565b614264565b604051610f0896959493929190616267565b60405180910390f35b610f19614396565b604051610f269190615fad565b60405180910390f35b62278d0081565b610f3e61439c565b600073ffffffffffffffffffffffffffffffffffffffff168173ffffffffffffffffffffffffffffffffffffffff1603610fad576040517f08c379a0000000000000000000000000000000000000000000000000000000008152600401610fa490616a82565b60405180910390fd5b80600360006101000a81548173ffffffffffffffffffffffffffffffffffffffff021916908373ffffffffffffffffffffffffffffffffffffffff16021790555050565b6000806000806000600760000160009054906101000a900460ff169450600760010154935060076002015492506000600381111561103257611031616058565b5b85600381111561104557611044616058565b5b0361106757846000806000611058613831565b94509450945094509450611137565b60006007600101544261107a9190616ad1565b905060008060038081111561109257611091616058565b5b8860038111156110a5576110a4616058565b5b036110bf5762015180915066b1a2bc2ec500009050611112565b600260038111156110d3576110d2616058565b5b8860038111156110e6576110e5616058565b5b036111005761a8c091506702c68af0bb1400009050611111565b61384091506706f05b59d3b2000090505b5b8183101561112b5782826111269190616ad1565b61112e565b60005b94508093505050505b9091929394565b6706f05b59d3b2000081565b601a602052816000526040600020818154811061116657600080fd5b906000526020600020016000915091509054906101000a900473ffffffffffffffffffffffffffffffffffffffff1681565b6000806111a3613831565b90506ec097ce7bc90715b34b9f100000000081600d5469065a4da25d3016c000006111ce9190616b05565b6111d89190616b05565b6111e29190616b76565b91505090565b61138881565b6000806000806010549350600d5492506a05ca4ec2a79a7f6700000060016010546112199190616ba7565b6112239190616b05565b915060006a05ca4ec2a79a7f670000006010546112409190616b05565b600e5461124d9190616ad1565b90506a05ca4ec2a79a7f67000000612710826112699190616b05565b6112739190616b76565b91505090919293565b7fffffffffffffffffffffffffffffffffffffffffffffffffffffffffffffffe781565b601660009054906101000a900460ff1681565b60176020528060005260406000206000915090508060000154908060010154908060020154908060030154908060040154908060050154905086565b6112f761439c565b801515601460009054906101000a900460ff1615150361134c576040517f08c379a000000000000000000000000000000000000000000000000000000000815260040161134390616c27565b60405180910390fd5b8061148157600073ffffffffffffffffffffffffffffffffffffffff16600560009054906101000a900473ffffffffffffffffffffffffffffffffffffffff1673ffffffffffffffffffffffffffffffffffffffff16036113e2576040517f08c379a00000000000000000000000000000000000000000000000000000000081526004016113d990616cb9565b60405180910390fd5b6001601660006101000a81548160ff0219169083151502179055506000601460006101000a81548160ff0219169083151502179055507f3aa6186db6afba61ec3731f16e23fdea8dfa0dfe10d7c05942d11fdb365db0316000604051611448919061624c565b60405180910390a17f7b953117c0b198733758d75ae32e08fc7c05c91df4a53764487b88bb7309d1a660405160405180910390a1611525565b601660009054906101000a900460ff16156114d1576040517f08c379a00000000000000000000000000000000000000000000000000000000081526004016114c890616d25565b60405180910390fd5b6001601460006101000a81548160ff0219169083151502179055507f3aa6186db6afba61ec3731f16e23fdea8dfa0dfe10d7c05942d11fdb365db031600160405161151c919061624c565b60405180910390a15b50565b6714d1120d7b16000081565b60c881565b600360009054906101000a900473ffffffffffffffffffffffffffffffffffffffff1681565b67016345785d8a000081565b600660009054906101000a900473ffffffffffffffffffffffffffffffffffffffff1681565b61384081565b6a52b7d2dcc80cd2e400000081565b61a8c081565b6000831180156115bc5750600082115b80156115c85750600081115b611607576040517f08c379a00000000000000000000000000000000000000000000000000000000081526004016115fe90616d91565b60405180910390fd5b601460009054906101000a900460ff16156117f45761162461210b565b73ffffffffffffffffffffffffffffffffffffffff163373ffffffffffffffffffffffffffffffffffffffff1614611691576040517f08c379a000000000000000000000000000000000000000000000000000000000815260040161168890616dfd565b60405180910390fd5b610e106015546116a19190616ba7565b4210156116e3576040517f08c379a00000000000000000000000000000000000000000000000000000000081526004016116da90616e8f565b60405180910390fd5b60006011541115611798576000606460326011546117019190616b05565b61170b9190616b76565b6011546117189190616ba7565b905060006064603260115461172d9190616b05565b6117379190616b76565b6011546117449190616ad1565b90508085101580156117565750818511155b611795576040517f08c379a000000000000000000000000000000000000000000000000000000000815260040161178c90616f21565b60405180910390fd5b50505b826011819055508160128190555080601381905550426015819055507f15819dd2fd9f6418b142e798d08a18d0bf06ea368f4480b7b0d3f75bd966bc488383836040516117e793929190616f41565b60405180910390a16119dc565b600073ffffffffffffffffffffffffffffffffffffffff16600560009054906101000a900473ffffffffffffffffffffffffffffffffffffffff1673ffffffffffffffffffffffffffffffffffffffff1603611885576040517f08c379a000000000000000000000000000000000000000000000000000000000815260040161187c90616fc4565b60405180910390fd5b6000600560009054906101000a900473ffffffffffffffffffffffffffffffffffffffff1673ffffffffffffffffffffffffffffffffffffffff1663b3596f07600460009054906101000a900473ffffffffffffffffffffffffffffffffffffffff166040518263ffffffff1660e01b8152600401611904919061619d565b602060405180830381865afa158015611921573d6000803e3d6000fd5b505050506040513d601f19601f820116820180604052508101906119459190616ff9565b90506000811161198a576040517f08c379a000000000000000000000000000000000000000000000000000000000815260040161198190617072565b60405180910390fd5b8060118190555082601281905550816013819055507f15819dd2fd9f6418b142e798d08a18d0bf06ea368f4480b7b0d3f75bd966bc488184846040516119d293929190616f41565b60405180910390a1505b505050565b64e8d4a5100081565b6119f2614423565b6000339050611a0081614469565b6000601760008373ffffffffffffffffffffffffffffffffffffffff1673ffffffffffffffffffffffffffffffffffffffff168152602001908152602001600020905060008160020154905060008111611a8f576040517f08c379a0000000000000000000000000000000000000000000000000000000008152600401611a86906170de565b60405180910390fd5b6a39e7139a8c08fa06000000600e5410611ade576040517f08c379a0000000000000000000000000000000000000000000000000000000008152600401611ad59061714a565b60405180910390fd5b6000603260c86101f46103e8611af49190616ba7565b611afe9190616ba7565b611b089190616ba7565b905060006127108284611b1b9190616b05565b611b259190616b76565b905060008184611b359190616ba7565b90506a39e7139a8c08fa0600000081600e54611b519190616ba7565b1115611b9e576000600e546a39e7139a8c08fa06000000611b729190616ad1565b905083612710611b829190616ba7565b61271082611b909190616b05565b611b9a9190616b76565b9450505b6000856002018190555083856004016000828254611bbc9190616ba7565b925050819055506000856003015403611bd9574285600301819055505b83600e6000828254611beb9190616ba7565b92505081905550600460009054906101000a900473ffffffffffffffffffffffffffffffffffffffff1673ffffffffffffffffffffffffffffffffffffffff166340c10f1930866040518363ffffffff1660e01b8152600401611c4f92919061716a565b600060405180830381600087803b158015611c6957600080fd5b505af1158015611c7d573d6000803e3d6000fd5b50505050611c896147f5565b611c9386856148bf565b8573ffffffffffffffffffffffffffffffffffffffff167fbc8fb63d817de4fabea2108e9b7eefca87245899f4b357636c26b5cad02ec5b485604051611cd99190615fad565b60405180910390a28573ffffffffffffffffffffffffffffffffffffffff167f8fe19f160f86d04fb1a90dde93e5e1a47df0810685adf4b990153c107d7b39248542604051611d29929190617193565b60405180910390a2505050505050611d3f6154b5565b565b600460009054906101000a900473ffffffffffffffffffffffffffffffffffffffff1681565b60155481565b6000601660009054906101000a900460ff16905090565b60196020528160005260406000208181548110611da057600080fd5b9060005260206000209060030201600091509150508060000154908060010154908060020160009054906101000a900460ff16908060020160019054906101000a900473ffffffffffffffffffffffffffffffffffffffff16905084565b6000611e0e6011546012546154be565b905090565b7ffffffffffffffffffffffffffffffffffffffffffffffffffffffffffffffff681565b611e3f61439c565b611e4960006155c7565b565b600080600080600080601760008873ffffffffffffffffffffffffffffffffffffffff1673ffffffffffffffffffffffffffffffffffffffff168152602001908152602001600020905080600001549550611ea5876139b2565b9450806004015493508060050154925060008160030154118015611ecd575060008160040154115b15611f12576000816003015442611ee49190616ad1565b905062278d008110611f0b5781600501548260040154611f049190616ad1565b9250611f10565b600092505b505b5091939590929450565b603281565b60078060000160009054906101000a900460ff16908060010154908060020154905083565b600080600080600080600080600e5497506a39e7139a8c08fa060000009650600d549550611f72613831565b9450600c5493506201518069065a4da25d3016c00000611f929190616b76565b92506ec097ce7bc90715b34b9f100000000085600d5469065a4da25d3016c00000611fbd9190616b05565b611fc79190616b05565b611fd19190616b76565b915060105490509091929394959697565b611fea61439c565b600073ffffffffffffffffffffffffffffffffffffffff168173ffffffffffffffffffffffffffffffffffffffff1603612059576040517f08c379a000000000000000000000000000000000000000000000000000000000815260040161205090616a82565b60405180910390fd5b80600560006101000a81548173ffffffffffffffffffffffffffffffffffffffff021916908373ffffffffffffffffffffffffffffffffffffffff1602179055508073ffffffffffffffffffffffffffffffffffffffff167f6536690106168bdf4ba72c128a053d817999b1db90cae23f139b293bf862cb7560405160405180910390a250565b600560009054906101000a900473ffffffffffffffffffffffffffffffffffffffff1681565b601481565b60008060009054906101000a900473ffffffffffffffffffffffffffffffffffffffff16905090565b61213d81614469565b50565b600b5481565b600f5481565b69065a4da25d3016c0000081565b605f81565b600260009054906101000a900473ffffffffffffffffffffffffffffffffffffffff1681565b603281565b600c5481565b60115481565b6a05ca4ec2a79a7f6700000081565b600e5481565b6201518069065a4da25d3016c000006121c49190616b76565b81565b60186020528060005260406000206000915090505481565b601481565b6121ec61439c565b600073ffffffffffffffffffffffffffffffffffffffff168173ffffffffffffffffffffffffffffffffffffffff160361225b576040517f08c379a000000000000000000000000000000000000000000000000000000000815260040161225290616a82565b60405180910390fd5b80600660006101000a81548173ffffffffffffffffffffffffffffffffffffffff021916908373ffffffffffffffffffffffffffffffffffffffff16021790555050565b6702c68af0bb14000081565b601c6020528060005260406000206000915090508060000154908060010154908060020154908060030154905084565b6122e3614423565b3373ffffffffffffffffffffffffffffffffffffffff16600360009054906101000a900473ffffffffffffffffffffffffffffffffffffffff1673ffffffffffffffffffffffffffffffffffffffff1663331f5dcf836040518263ffffffff1660e01b81526004016123559190615fad565b602060405180830381865afa158015612372573d6000803e3d6000fd5b505050506040513d601f19601f8201168201806040525081019061239691906171d1565b73ffffffffffffffffffffffffffffffffffffffff16146123ec576040517f08c379a00000000000000000000000000000000000000000000000000000000081526004016123e39061724a565b60405180910390fd5b6123f46136b3565b6000601760003373ffffffffffffffffffffffffffffffffffffffff1673ffffffffffffffffffffffffffffffffffffffff16815260200190815260200160002090506000816001015464e8d4a51000600a5484600001546124569190616b05565b6124609190616b76565b61246a9190616ad1565b9050600082600201548261247e9190616ba7565b9050600081116124c3576040517f08c379a00000000000000000000000000000000000000000000000000000000081526004016124ba906172b6565b60405180910390fd5b64e8d4a51000600a5484600001546124db9190616b05565b6124e59190616b76565b8360010181905550600083600201819055506a39e7139a8c08fa0600000081600e546125119190616ba7565b111561259257600e546a39e7139a8c08fa060000001161253257600061254c565b600e546a39e7139a8c08fa0600000061254b9190616ad1565b5b905060008111612591576040517f08c379a000000000000000000000000000000000000000000000000000000000815260040161258890617348565b60405180910390fd5b5b80600e60008282546125a49190616ba7565b92505081905550600460009054906101000a900473ffffffffffffffffffffffffffffffffffffffff1673ffffffffffffffffffffffffffffffffffffffff166340c10f1930836040518363ffffffff1660e01b815260040161260892919061716a565b600060405180830381600087803b15801561262257600080fd5b505af1158015612636573d6000803e3d6000fd5b505050506000600560009054906101000a900473ffffffffffffffffffffffffffffffffffffffff1673ffffffffffffffffffffffffffffffffffffffff1663b3596f07600460009054906101000a900473ffffffffffffffffffffffffffffffffffffffff166040518263ffffffff1660e01b81526004016126b9919061619d565b602060405180830381865afa1580156126d6573d6000803e3d6000fd5b505050506040513d601f19601f820116820180604052508101906126fa9190616ff9565b90506000811161273f576040517f08c379a0000000000000000000000000000000000000000000000000000000008152600401612736906173b4565b60405180910390fd5b6000670de0b6b3a764000082846127569190616b05565b6127609190616b76565b905060006064606e836127739190616b05565b61277d9190616b76565b9050600460009054906101000a900473ffffffffffffffffffffffffffffffffffffffff1673ffffffffffffffffffffffffffffffffffffffff1663a9059cbb61dead866040518363ffffffff1660e01b81526004016127de92919061716a565b6020604051808303816000875af11580156127fd573d6000803e3d6000fd5b505050506040513d601f19601f8201168201806040525081019061282191906173e9565b50600360009054906101000a900473ffffffffffffffffffffffffffffffffffffffff1673ffffffffffffffffffffffffffffffffffffffff1663341186c288836040518363ffffffff1660e01b815260040161287f929190617193565b600060405180830381600087803b15801561289957600080fd5b505af11580156128ad573d6000803e3d6000fd5b50505050863373ffffffffffffffffffffffffffffffffffffffff167fa78b9a656c956dc5f492315beb888731d0142b384ffc2b15834ea73d69fb76bb86846040516128fa929190617193565b60405180910390a35050505050506129106154b5565b50565b600080600080600073ffffffffffffffffffffffffffffffffffffffff16600260009054906101000a900473ffffffffffffffffffffffffffffffffffffffff1673ffffffffffffffffffffffffffffffffffffffff1603612982576000806000809350935093509350612a7e565b601a60008673ffffffffffffffffffffffffffffffffffffffff1673ffffffffffffffffffffffffffffffffffffffff1681526020019081526020016000208054905090506000601c60008773ffffffffffffffffffffffffffffffffffffffff1673ffffffffffffffffffffffffffffffffffffffff1681526020019081526020016000206040518060800160405290816000820154815260200160018201548152602001600282015481526020016003820154815250509050600081606001511115612a6457806000015194508060200151935080604001519250612a7c565b612a6f86600061568b565b8095508196508297505050505b505b9193509193565b600d5481565b601460009054906101000a900460ff1681565b66b1a2bc2ec5000081565b6a39e7139a8c08fa0600000081565b612ac0614423565b60003390506000601760008373ffffffffffffffffffffffffffffffffffffffff1673ffffffffffffffffffffffffffffffffffffffff16815260200190815260200160002090506000816004015411612b4f576040517f08c379a0000000000000000000000000000000000000000000000000000000008152600401612b4690617462565b60405180910390fd5b6000816003015411612b96576040517f08c379a0000000000000000000000000000000000000000000000000000000008152600401612b8d906174ce565b60405180910390fd5b6000816003015442612ba89190616ad1565b905062278d00811015612bf0576040517f08c379a0000000000000000000000000000000000000000000000000000000008152600401612be79061753a565b60405180910390fd5b600082600501548360040154612c069190616ad1565b905060008111612c4b576040517f08c379a0000000000000000000000000000000000000000000000000000000008152600401612c42906175a6565b60405180910390fd5b80836005016000828254612c5f9190616ba7565b92505081905550600460009054906101000a900473ffffffffffffffffffffffffffffffffffffffff1673ffffffffffffffffffffffffffffffffffffffff1663a9059cbb85836040518363ffffffff1660e01b8152600401612cc392919061716a565b6020604051808303816000875af1158015612ce2573d6000803e3d6000fd5b505050506040513d601f19601f82011682018060405250810190612d0691906173e9565b508373ffffffffffffffffffffffffffffffffffffffff167f9fe9b7be9d151c7a8b6de49a1312ff27a15096d0d1d12999af85fe4310e0b12582604051612d4d9190615fad565b60405180910390a250505050612d616154b5565b565b60125481565b612d7161439c565b60006013540315612f01576000601354601154612d8e91906175c6565b90506000601354606483612da29190617609565b612dac9190617681565b905060007fffffffffffffffffffffffffffffffffffffffffffffffffffffffffffffffe78213612de05760039050612e3e565b7ffffffffffffffffffffffffffffffffffffffffffffffffffffffffffffffff18213612e105760029050612e3d565b7ffffffffffffffffffffffffffffffffffffffffffffffffffffffffffffffff68213612e3c57600190505b5b5b600760000160009054906101000a900460ff166003811115612e6357612e62616058565b5b816003811115612e7657612e75616058565b5b1115612efd5780600760000160006101000a81548160ff02191690836003811115612ea457612ea3616058565b5b0217905550426007600101819055506011546007600201819055507f4fa52a45d7e5a216674f536c9e84f867dce6e9a6c6b5fe88f640855bf92256818142601154604051612ef49392919061651a565b60405180910390a15b5050505b565b6060806060601a60008573ffffffffffffffffffffffffffffffffffffffff1673ffffffffffffffffffffffffffffffffffffffff168152602001908152602001600020805480602002602001604051908101604052809291908181526020018280548015612fc757602002820191906000526020600020905b8160009054906101000a900473ffffffffffffffffffffffffffffffffffffffff1673ffffffffffffffffffffffffffffffffffffffff1681526020019060010190808311612f7d575b505050505092506000835190508067ffffffffffffffff811115612fee57612fed6176eb565b5b60405190808252806020026020018201604052801561301c5781602001602082028036833780820191505090505b5092508067ffffffffffffffff811115613039576130386176eb565b5b6040519080825280602002602001820160405280156130675781602001602082028036833780820191505090505b50915060005b8181101561327e57600085828151811061308a5761308961771a565b5b60200260200101519050601760008273ffffffffffffffffffffffffffffffffffffffff1673ffffffffffffffffffffffffffffffffffffffff168152602001908152602001600020600001548583815181106130ea576130e961771a565b5b602002602001018181525050600080601960008a73ffffffffffffffffffffffffffffffffffffffff1673ffffffffffffffffffffffffffffffffffffffff168152602001908152602001600020905060005b8180549050811015613247578373ffffffffffffffffffffffffffffffffffffffff168282815481106131735761317261771a565b5b906000526020600020906003020160020160019054906101000a900473ffffffffffffffffffffffffffffffffffffffff1673ffffffffffffffffffffffffffffffffffffffff161480156131fc575060018282815481106131d8576131d761771a565b5b906000526020600020906003020160020160009054906101000a900460ff1660ff16145b15613234578181815481106132145761321361771a565b5b906000526020600020906003020160010154836132319190616ba7565b92505b808061323f90617749565b91505061313d565b508186858151811061325c5761325b61771a565b5b602002602001018181525050505050808061327690617749565b91505061306d565b50509193909250565b6000806000806000601a60008773ffffffffffffffffffffffffffffffffffffffff1673ffffffffffffffffffffffffffffffffffffffff168152602001908152602001600020805490509450601860008773ffffffffffffffffffffffffffffffffffffffff1673ffffffffffffffffffffffffffffffffffffffff168152602001908152602001600020549250601960008773ffffffffffffffffffffffffffffffffffffffff1673ffffffffffffffffffffffffffffffffffffffff168152602001908152602001600020805490509150600073ffffffffffffffffffffffffffffffffffffffff16600260009054906101000a900473ffffffffffffffffffffffffffffffffffffffff1673ffffffffffffffffffffffffffffffffffffffff1614613465576000600260009054906101000a900473ffffffffffffffffffffffffffffffffffffffff1673ffffffffffffffffffffffffffffffffffffffff166370a08231886040518263ffffffff1660e01b815260040161340e919061619d565b602060405180830381865afa15801561342b573d6000803e3d6000fd5b505050506040513d601f19601f8201168201806040525081019061344f9190616ff9565b11905061345d86600061568b565b905050809450505b91939590929450565b6101f481565b671bc16d674ec8000081565b61348861439c565b6000600381111561349c5761349b616058565b5b600760000160009054906101000a900460ff1660038111156134c1576134c0616058565b5b03613501576040517f08c379a00000000000000000000000000000000000000000000000000000000081526004016134f8906177dd565b60405180910390fd5b6000600760010154426135149190616ad1565b9050600060038081111561352b5761352a616058565b5b600760000160009054906101000a900460ff1660038111156135505761354f616058565b5b03613560576201518090506135af565b6002600381111561357457613573616058565b5b600760000160009054906101000a900460ff16600381111561359957613598616058565b5b036135a85761a8c090506135ae565b61384090505b5b808210156135f2576040517f08c379a00000000000000000000000000000000000000000000000000000000081526004016135e990617849565b60405180910390fd5b6000600760000160009054906101000a900460ff1690506000600760000160006101000a81548160ff0219169083600381111561363257613631616058565b5b0217905550600060076001018190555060006007600201819055507f07130c8b39a90581223fe2d149b6458e7d26925c0ea5c3156721b96e564c36598160405161367c9190617869565b60405180910390a1505050565b7ffffffffffffffffffffffffffffffffffffffffffffffffffffffffffffffff181565b61271081565b600b5442111561382f576000600c54036136d35742600b8190555061382f565b6000600b54426136e39190616ad1565b905060006136ef613831565b905060006ec097ce7bc90715b34b9f100000000082600d546201518069065a4da25d3016c000006137209190616b76565b8661372b9190616b05565b6137359190616b05565b61373f9190616b05565b6137499190616b76565b90506a39e7139a8c08fa0600000081600e546137659190616ba7565b11156137a357600e546a39e7139a8c08fa06000000116137865760006137a0565b600e546a39e7139a8c08fa0600000061379f9190616ad1565b5b90505b60008111156137e357600c5464e8d4a51000826137c09190616b05565b6137ca9190616b76565b600a60008282546137db9190616ba7565b925050819055505b42600b819055507f17b8644f386d1c7c7138ef98b3c8035622bbe94d7be9b26f71d2654a547c2943600a54600b54600c5460405161382393929190616f41565b60405180910390a15050505b565b600080600381111561384657613845616058565b5b600760000160009054906101000a900460ff16600381111561386b5761386a616058565b5b1461399e576000600760010154426138839190616ad1565b905060038081111561389857613897616058565b5b600760000160009054906101000a900460ff1660038111156138bd576138bc616058565b5b036138e257620151808110156138dd5766b1a2bc2ec500009150506139af565b61399c565b600260038111156138f6576138f5616058565b5b600760000160009054906101000a900460ff16600381111561391b5761391a616058565b5b036139405761a8c081101561393b576702c68af0bb1400009150506139af565b61399b565b6001600381111561395457613953616058565b5b600760000160009054906101000a900460ff16600381111561397957613978616058565b5b0361399a57613840811015613999576706f05b59d3b200009150506139af565b5b5b5b505b6139ac6011546012546154be565b90505b90565b600080601760008473ffffffffffffffffffffffffffffffffffffffff1673ffffffffffffffffffffffffffffffffffffffff16815260200190815260200160002090506000600a549050600b5442118015613a1057506000600c54115b15613abc576000600b5442613a259190616ad1565b90506000613a31613831565b905060006ec097ce7bc90715b34b9f100000000082600d546201518069065a4da25d3016c00000613a629190616b76565b86613a6d9190616b05565b613a779190616b05565b613a819190616b05565b613a8b9190616b76565b9050600c5464e8d4a5100082613aa19190616b05565b613aab9190616b76565b84613ab69190616ba7565b93505050505b60008083600001541115613afc57826001015464e8d4a51000838560000154613ae59190616b05565b613aef9190616b76565b613af99190616ad1565b90505b826002015481613b0c9190616ba7565b9350505050919050565b613b1e61439c565b600073ffffffffffffffffffffffffffffffffffffffff168173ffffffffffffffffffffffffffffffffffffffff1603613b8d576040517f08c379a0000000000000000000000000000000000000000000000000000000008152600401613b8490616a82565b60405180910390fd5b80600260006101000a81548173ffffffffffffffffffffffffffffffffffffffff021916908373ffffffffffffffffffffffffffffffffffffffff16021790555050565b613bd9614423565b60003390506000601760008373ffffffffffffffffffffffffffffffffffffffff1673ffffffffffffffffffffffffffffffffffffffff16815260200190815260200160002090508060050154816004015411613c6b576040517f08c379a0000000000000000000000000000000000000000000000000000000008152600401613c62906178d0565b60405180910390fd5b600081600501548260040154613c819190616ad1565b9050600061271061138883613c969190616b05565b613ca09190616b76565b905060008183613cb09190616ad1565b905083600401548460050181905550600460009054906101000a900473ffffffffffffffffffffffffffffffffffffffff1673ffffffffffffffffffffffffffffffffffffffff1663a9059cbb86836040518363ffffffff1660e01b8152600401613d1c92919061716a565b6020604051808303816000875af1158015613d3b573d6000803e3d6000fd5b505050506040513d601f19601f82011682018060405250810190613d5f91906173e9565b506000821115613e0d57600460009054906101000a900473ffffffffffffffffffffffffffffffffffffffff1673ffffffffffffffffffffffffffffffffffffffff1663a9059cbb61dead846040518363ffffffff1660e01b8152600401613dc892919061716a565b6020604051808303816000875af1158015613de7573d6000803e3d6000fd5b505050506040513d601f19601f82011682018060405250810190613e0b91906173e9565b505b8473ffffffffffffffffffffffffffffffffffffffff167f92207ec016968e0ee608b41c92470ff10e9f810a8dec5f40901974ac75ed498e8284604051613e55929190617193565b60405180910390a25050505050613e6a6154b5565b565b6201518081565b600a5481565b60008060008060008060003073ffffffffffffffffffffffffffffffffffffffff1663afce88ec896040518263ffffffff1660e01b8152600401613ebd919061619d565b608060405180830381865afa158015613eda573d6000803e3d6000fd5b505050506040513d601f19601f82011682018060405250810190613efe91906178f0565b50925092509250600096508195506000831115613f3f578261271082613f249190616b05565b613f2e9190616b76565b94508282613f3c9190616b76565b93505b5050509193509193565b613f5161439c565b600073ffffffffffffffffffffffffffffffffffffffff168173ffffffffffffffffffffffffffffffffffffffff1603613fc35760006040517f1e4fbdf7000000000000000000000000000000000000000000000000000000008152600401613fba919061619d565b60405180910390fd5b613fcc816155c7565b50565b6103e881565b60135481565b60606000601960008673ffffffffffffffffffffffffffffffffffffffff1673ffffffffffffffffffffffffffffffffffffffff16815260200190815260200160002080549050905080841061408757600067ffffffffffffffff811115614046576140456176eb565b5b60405190808252806020026020018201604052801561407f57816020015b61406c615f53565b8152602001906001900390816140645790505b50915061425c565b600083856140959190616ba7565b9050818111156140a3578190505b600085826140b19190616ad1565b90508067ffffffffffffffff8111156140cd576140cc6176eb565b5b60405190808252806020026020018201604052801561410657816020015b6140f3615f53565b8152602001906001900390816140eb5790505b50935060005b8181101561425857601960008973ffffffffffffffffffffffffffffffffffffffff1673ffffffffffffffffffffffffffffffffffffffff16815260200190815260200160002081886001876141629190616ad1565b61416c9190616ad1565b6141769190616ad1565b815481106141875761418661771a565b5b906000526020600020906003020160405180608001604052908160008201548152602001600182015481526020016002820160009054906101000a900460ff1660ff1660ff1681526020016002820160019054906101000a900473ffffffffffffffffffffffffffffffffffffffff1673ffffffffffffffffffffffffffffffffffffffff1673ffffffffffffffffffffffffffffffffffffffff168152505085828151811061423a5761423961771a565b5b6020026020010181905250808061425090617749565b91505061410c565b5050505b935093915050565b6000806000806000806000601760008973ffffffffffffffffffffffffffffffffffffffff1673ffffffffffffffffffffffffffffffffffffffff1681526020019081526020016000209050806004015496508060050154955080600301549450600081600301541180156142dd575060008160040154115b1561438c5760008160030154426142f49190616ad1565b9050600062278d00821061431357826004015490506127109350614352565b62278d008284600401546143279190616b05565b6143319190616b76565b905062278d00612710836143459190616b05565b61434f9190616b76565b93505b82600501548111614364576000614375565b8260050154816143749190616ad1565b5b95508083600401546143879190616ad1565b945050505b5091939550919395565b60105481565b6143a4615879565b73ffffffffffffffffffffffffffffffffffffffff166143c261210b565b73ffffffffffffffffffffffffffffffffffffffff1614614421576143e5615879565b6040517f118cdaa7000000000000000000000000000000000000000000000000000000008152600401614418919061619d565b60405180910390fd5b565b60026001540361445f576040517f3ee5aeb500000000000000000000000000000000000000000000000000000000815260040160405180910390fd5b6002600181905550565b6144716136b3565b6000601760008373ffffffffffffffffffffffffffffffffffffffff1673ffffffffffffffffffffffffffffffffffffffff168152602001908152602001600020905060008073ffffffffffffffffffffffffffffffffffffffff16600360009054906101000a900473ffffffffffffffffffffffffffffffffffffffff1673ffffffffffffffffffffffffffffffffffffffff16146145aa57600360009054906101000a900473ffffffffffffffffffffffffffffffffffffffff1673ffffffffffffffffffffffffffffffffffffffff1663ab0229a0846040518263ffffffff1660e01b8152600401614566919061619d565b602060405180830381865afa158015614583573d6000803e3d6000fd5b505050506040513d601f19601f820116820180604052508101906145a79190616ff9565b90505b60008073ffffffffffffffffffffffffffffffffffffffff16600260009054906101000a900473ffffffffffffffffffffffffffffffffffffffff1673ffffffffffffffffffffffffffffffffffffffff16146146a057600260009054906101000a900473ffffffffffffffffffffffffffffffffffffffff1673ffffffffffffffffffffffffffffffffffffffff166304d1334f856040518263ffffffff1660e01b815260040161465c919061619d565b602060405180830381865afa158015614679573d6000803e3d6000fd5b505050506040513d601f19601f8201168201806040525081019061469d9190616ff9565b90505b6000612710826127106146b39190616ba7565b846146be9190616b05565b6146c89190616b76565b9050600084600001541115614733576000846001015464e8d4a51000600a5487600001546146f69190616b05565b6147009190616b76565b61470a9190616ad1565b9050600081111561473157808560020160008282546147299190616ba7565b925050819055505b505b808460000154600c546147469190616ad1565b6147509190616ba7565b600c8190555060008460000154905081856000018190555064e8d4a51000600a548361477c9190616b05565b6147869190616b76565b8560010181905550614799868284615881565b8573ffffffffffffffffffffffffffffffffffffffff167fdfc331ca16b8c4320a402867e832423d16ad3de953e474a499baf3697aa9e8948387600101546040516147e5929190617193565b60405180910390a2505050505050565b5b6a05ca4ec2a79a7f6700000060016010546148119190616ba7565b61481b9190616b05565b600e54106148bd576064605f600d546148349190616b05565b61483e9190616b76565b600d819055506010600081548092919061485790617749565b91905055506a05ca4ec2a79a7f670000006010546148759190616b05565b600f819055507fde141711fef892cdaea55f1f6a85e241382fcefc69efdb496eff235992a18ed4600d54600e546040516148b0929190617193565b60405180910390a16147f6565b565b600073ffffffffffffffffffffffffffffffffffffffff16600260009054906101000a900473ffffffffffffffffffffffffffffffffffffffff1673ffffffffffffffffffffffffffffffffffffffff1603156154b1576000600260009054906101000a900473ffffffffffffffffffffffffffffffffffffffff1673ffffffffffffffffffffffffffffffffffffffff16634a9fefc7846040518263ffffffff1660e01b8152600401614973919061619d565b602060405180830381865afa158015614990573d6000803e3d6000fd5b505050506040513d601f19601f820116820180604052508101906149b491906171d1565b9050600073ffffffffffffffffffffffffffffffffffffffff168173ffffffffffffffffffffffffffffffffffffffff16036149f057506154b1565b60006127106103e884614a039190616b05565b614a0d9190616b76565b90506000811115614b965780600e6000828254614a2a9190616ba7565b92505081905550600460009054906101000a900473ffffffffffffffffffffffffffffffffffffffff1673ffffffffffffffffffffffffffffffffffffffff166340c10f1983836040518363ffffffff1660e01b8152600401614a8e92919061716a565b600060405180830381600087803b158015614aa857600080fd5b505af1158015614abc573d6000803e3d6000fd5b5050505080601860008473ffffffffffffffffffffffffffffffffffffffff1673ffffffffffffffffffffffffffffffffffffffff1681526020019081526020016000206000828254614b0f9190616ba7565b925050819055508373ffffffffffffffffffffffffffffffffffffffff168273ffffffffffffffffffffffffffffffffffffffff167fe679beb5d98a54fda65331587d36d13358e8bf295be15e932c482164f8fde95e836001604051614b76929190617992565b60405180910390a3614b8b8285836001615c65565b614b958285615d8b565b5b6000600260009054906101000a900473ffffffffffffffffffffffffffffffffffffffff1673ffffffffffffffffffffffffffffffffffffffff16634a9fefc7846040518263ffffffff1660e01b8152600401614bf3919061619d565b602060405180830381865afa158015614c10573d6000803e3d6000fd5b505050506040513d601f19601f82011682018060405250810190614c3491906171d1565b9050600073ffffffffffffffffffffffffffffffffffffffff168173ffffffffffffffffffffffffffffffffffffffff1614614e085760006127106101f486614c7d9190616b05565b614c879190616b76565b90506000811115614e065780600e6000828254614ca49190616ba7565b92505081905550600460009054906101000a900473ffffffffffffffffffffffffffffffffffffffff1673ffffffffffffffffffffffffffffffffffffffff166340c10f1983836040518363ffffffff1660e01b8152600401614d0892919061716a565b600060405180830381600087803b158015614d2257600080fd5b505af1158015614d36573d6000803e3d6000fd5b5050505080601860008473ffffffffffffffffffffffffffffffffffffffff1673ffffffffffffffffffffffffffffffffffffffff1681526020019081526020016000206000828254614d899190616ba7565b925050819055508573ffffffffffffffffffffffffffffffffffffffff168273ffffffffffffffffffffffffffffffffffffffff167fe679beb5d98a54fda65331587d36d13358e8bf295be15e932c482164f8fde95e836002604051614df09291906179f6565b60405180910390a3614e058287836002615c65565b5b505b600083905060008060005b600073ffffffffffffffffffffffffffffffffffffffff168473ffffffffffffffffffffffffffffffffffffffff1614158015614e505750601481105b15614fc1576000600260009054906101000a900473ffffffffffffffffffffffffffffffffffffffff1673ffffffffffffffffffffffffffffffffffffffff166370a08231866040518263ffffffff1660e01b8152600401614eb2919061619d565b602060405180830381865afa158015614ecf573d6000803e3d6000fd5b505050506040513d601f19601f82011682018060405250810190614ef39190616ff9565b1115614f1057839250600181614f099190616ba7565b9150614fc1565b600260009054906101000a900473ffffffffffffffffffffffffffffffffffffffff1673ffffffffffffffffffffffffffffffffffffffff16634a9fefc7856040518263ffffffff1660e01b8152600401614f6b919061619d565b602060405180830381865afa158015614f88573d6000803e3d6000fd5b505050506040513d601f19601f82011682018060405250810190614fac91906171d1565b93508080614fb990617749565b915050614e13565b600073ffffffffffffffffffffffffffffffffffffffff168373ffffffffffffffffffffffffffffffffffffffff16146154a957600061271060c88a6150079190616b05565b6150119190616b76565b9050600081111561518f5780600e600082825461502e9190616ba7565b92505081905550600460009054906101000a900473ffffffffffffffffffffffffffffffffffffffff1673ffffffffffffffffffffffffffffffffffffffff166340c10f1985836040518363ffffffff1660e01b815260040161509292919061716a565b600060405180830381600087803b1580156150ac57600080fd5b505af11580156150c0573d6000803e3d6000fd5b5050505080601860008673ffffffffffffffffffffffffffffffffffffffff1673ffffffffffffffffffffffffffffffffffffffff16815260200190815260200160002060008282546151139190616ba7565b925050819055508973ffffffffffffffffffffffffffffffffffffffff168473ffffffffffffffffffffffffffffffffffffffff167ff3e533e84b42dfb4015d2211af267b5d34a1aa0f60c4da1a9dd25698150868d88386604051615179929190617193565b60405180910390a361518e848b836003615c65565b5b6000600260009054906101000a900473ffffffffffffffffffffffffffffffffffffffff1673ffffffffffffffffffffffffffffffffffffffff16634a9fefc7866040518263ffffffff1660e01b81526004016151ec919061619d565b602060405180830381865afa158015615209573d6000803e3d6000fd5b505050506040513d601f19601f8201168201806040525081019061522d91906171d1565b9050600073ffffffffffffffffffffffffffffffffffffffff168173ffffffffffffffffffffffffffffffffffffffff161415801561530757506000600260009054906101000a900473ffffffffffffffffffffffffffffffffffffffff1673ffffffffffffffffffffffffffffffffffffffff166370a08231836040518263ffffffff1660e01b81526004016152c4919061619d565b602060405180830381865afa1580156152e1573d6000803e3d6000fd5b505050506040513d601f19601f820116820180604052508101906153059190616ff9565b115b156154a657600061271060328c61531e9190616b05565b6153289190616b76565b905060008111156154a45780600e60008282546153459190616ba7565b92505081905550600460009054906101000a900473ffffffffffffffffffffffffffffffffffffffff1673ffffffffffffffffffffffffffffffffffffffff166340c10f1983836040518363ffffffff1660e01b81526004016153a992919061716a565b600060405180830381600087803b1580156153c357600080fd5b505af11580156153d7573d6000803e3d6000fd5b5050505080601860008473ffffffffffffffffffffffffffffffffffffffff1673ffffffffffffffffffffffffffffffffffffffff168152602001908152602001600020600082825461542a9190616ba7565b925050819055508573ffffffffffffffffffffffffffffffffffffffff168273ffffffffffffffffffffffffffffffffffffffff167f6b34e5a4dcbc992c5815bf8d0f03397ec7ecc2d9e760776d9de0c5e1d39190568360405161548e9190615fad565b60405180910390a36154a3828d836004615c65565b5b505b50505b505050505050505b5050565b60018081905550565b600080662386f26fc1000090506000683635c9adc5dea000009050818510806154e657508085115b156154fd57670de0b6b3a7640000925050506155c1565b8184108061550a57508084115b1561552157670de0b6b3a7640000925050506155c1565b6000840361553b57670de0b6b3a7640000925050506155c1565b600084670de0b6b3a7640000876155529190616b05565b61555c9190616b76565b90506000670de0b6b3a764000082836155759190616b05565b61557f9190616b76565b90506714d1120d7b16000081111561559d576714d1120d7b16000090505b67016345785d8a00008110156155b95767016345785d8a000090505b809450505050505b92915050565b60008060009054906101000a900473ffffffffffffffffffffffffffffffffffffffff169050816000806101000a81548173ffffffffffffffffffffffffffffffffffffffff021916908373ffffffffffffffffffffffffffffffffffffffff1602179055508173ffffffffffffffffffffffffffffffffffffffff168173ffffffffffffffffffffffffffffffffffffffff167f8be0079c531659141344cd1fd0a4f28419497f9722a3daafe3b4186f6b6457e060405160405180910390a35050565b6000806000601484106156a8576000806000925092509250615872565b6000601a60008773ffffffffffffffffffffffffffffffffffffffff1673ffffffffffffffffffffffffffffffffffffffff16815260200190815260200160002080548060200260200160405190810160405280929190818152602001828054801561576957602002820191906000526020600020905b8160009054906101000a900473ffffffffffffffffffffffffffffffffffffffff1673ffffffffffffffffffffffffffffffffffffffff168152602001906001019080831161571f575b505050505090508051935060005b815181101561586f5760008282815181106157955761579461771a565b5b602002602001015190506000601760008373ffffffffffffffffffffffffffffffffffffffff1673ffffffffffffffffffffffffffffffffffffffff16815260200190815260200160002060000154905080866157f29190616ba7565b9550600081111561580c57848061580890617749565b9550505b60008060006158278560018d6158229190616ba7565b61568b565b925092509250828a6158399190616ba7565b995081896158479190616ba7565b985080886158559190616ba7565b97505050505050808061586790617749565b915050615777565b50505b9250925092565b600033905090565b600073ffffffffffffffffffffffffffffffffffffffff16600260009054906101000a900473ffffffffffffffffffffffffffffffffffffffff1673ffffffffffffffffffffffffffffffffffffffff160315615c60576000600260009054906101000a900473ffffffffffffffffffffffffffffffffffffffff1673ffffffffffffffffffffffffffffffffffffffff16634a9fefc7856040518263ffffffff1660e01b8152600401615935919061619d565b602060405180830381865afa158015615952573d6000803e3d6000fd5b505050506040513d601f19601f8201168201806040525081019061597691906171d1565b9050600080808514801561598a5750600084115b90506000808611801561599d5750600085145b9050600086866159ad91906175c6565b90505b600073ffffffffffffffffffffffffffffffffffffffff168573ffffffffffffffffffffffffffffffffffffffff16141580156159ed5750601484105b15615c5a576000601c60008773ffffffffffffffffffffffffffffffffffffffff1673ffffffffffffffffffffffffffffffffffffffff16815260200190815260200160002090508315615a78576001816000016000828254615a509190616ba7565b925050819055506001816002016000828254615a6c9190616ba7565b92505081905550615b26565b8215615aad57600081600201541115615aa8576001816002016000828254615aa09190616ad1565b925050819055505b615b25565b600088148015615abd5750600087115b15615ae3576001816002016000828254615ad79190616ba7565b92505081905550615b24565b600088118015615af35750600087145b15615b2357600081600201541115615b22576001816002016000828254615b1a9190616ad1565b925050819055505b5b5b5b5b6000821315615b4f5781816001016000828254615b439190616ba7565b92505081905550615b9f565b6000821215615b9e57600082615b6490617a1f565b905080826001015410615b915780826001016000828254615b859190616ad1565b92505081905550615b9c565b600082600101819055505b505b5b428160030181905550600260009054906101000a900473ffffffffffffffffffffffffffffffffffffffff1673ffffffffffffffffffffffffffffffffffffffff16634a9fefc7876040518263ffffffff1660e01b8152600401615c03919061619d565b602060405180830381865afa158015615c20573d6000803e3d6000fd5b505050506040513d601f19601f82011682018060405250810190615c4491906171d1565b95508480615c5190617749565b955050506159b0565b50505050505b505050565b601960008573ffffffffffffffffffffffffffffffffffffffff1673ffffffffffffffffffffffffffffffffffffffff16815260200190815260200160002060405180608001604052804281526020018481526020018360ff1681526020018573ffffffffffffffffffffffffffffffffffffffff168152509080600181540180825580915050600190039060005260206000209060030201600090919091909150600082015181600001556020820151816001015560408201518160020160006101000a81548160ff021916908360ff16021790555060608201518160020160016101000a81548173ffffffffffffffffffffffffffffffffffffffff021916908373ffffffffffffffffffffffffffffffffffffffff160217905550505050505050565b601b60008373ffffffffffffffffffffffffffffffffffffffff1673ffffffffffffffffffffffffffffffffffffffff16815260200190815260200160002060008273ffffffffffffffffffffffffffffffffffffffff1673ffffffffffffffffffffffffffffffffffffffff16815260200190815260200160002060009054906101000a900460ff16615f4f57601a60008373ffffffffffffffffffffffffffffffffffffffff1673ffffffffffffffffffffffffffffffffffffffff168152602001908152602001600020819080600181540180825580915050600190039060005260206000200160009091909190916101000a81548173ffffffffffffffffffffffffffffffffffffffff021916908373ffffffffffffffffffffffffffffffffffffffff1602179055506001601b60008473ffffffffffffffffffffffffffffffffffffffff1673ffffffffffffffffffffffffffffffffffffffff16815260200190815260200160002060008373ffffffffffffffffffffffffffffffffffffffff1673ffffffffffffffffffffffffffffffffffffffff16815260200190815260200160002060006101000a81548160ff0219169083151502179055505b5050565b60405180608001604052806000815260200160008152602001600060ff168152602001600073ffffffffffffffffffffffffffffffffffffffff1681525090565b6000819050919050565b615fa781615f94565b82525050565b6000602082019050615fc26000830184615f9e565b92915050565b600080fd5b600073ffffffffffffffffffffffffffffffffffffffff82169050919050565b6000615ff882615fcd565b9050919050565b61600881615fed565b811461601357600080fd5b50565b60008135905061602581615fff565b92915050565b60006020828403121561604157616040615fc8565b5b600061604f84828501616016565b91505092915050565b7f4e487b7100000000000000000000000000000000000000000000000000000000600052602160045260246000fd5b6004811061609857616097616058565b5b50565b60008190506160a982616087565b919050565b60006160b98261609b565b9050919050565b6160c9816160ae565b82525050565b600060a0820190506160e460008301886160c0565b6160f16020830187615f9e565b6160fe6040830186615f9e565b61610b6060830185615f9e565b6161186080830184615f9e565b9695505050505050565b61612b81615f94565b811461613657600080fd5b50565b60008135905061614881616122565b92915050565b6000806040838503121561616557616164615fc8565b5b600061617385828601616016565b925050602061618485828601616139565b9150509250929050565b61619781615fed565b82525050565b60006020820190506161b2600083018461618e565b92915050565b60006080820190506161cd6000830187615f9e565b6161da6020830186615f9e565b6161e76040830185615f9e565b6161f46060830184615f9e565b95945050505050565b6000819050919050565b616210816161fd565b82525050565b600060208201905061622b6000830184616207565b92915050565b60008115159050919050565b61624681616231565b82525050565b6000602082019050616261600083018461623d565b92915050565b600060c08201905061627c6000830189615f9e565b6162896020830188615f9e565b6162966040830187615f9e565b6162a36060830186615f9e565b6162b06080830185615f9e565b6162bd60a0830184615f9e565b979650505050505050565b6162d181616231565b81146162dc57600080fd5b50565b6000813590506162ee816162c8565b92915050565b60006020828403121561630a57616309615fc8565b5b6000616318848285016162df565b91505092915050565b6000819050919050565b600061634661634161633c84615fcd565b616321565b615fcd565b9050919050565b60006163588261632b565b9050919050565b600061636a8261634d565b9050919050565b61637a8161635f565b82525050565b60006020820190506163956000830184616371565b92915050565b60006163a68261634d565b9050919050565b6163b68161639b565b82525050565b60006020820190506163d160008301846163ad565b92915050565b6000806000606084860312156163f0576163ef615fc8565b5b60006163fe86828701616139565b935050602061640f86828701616139565b925050604061642086828701616139565b9150509250925092565b60006164358261634d565b9050919050565b6164458161642a565b82525050565b6000602082019050616460600083018461643c565b92915050565b600060ff82169050919050565b61647c81616466565b82525050565b60006080820190506164976000830187615f9e565b6164a46020830186615f9e565b6164b16040830185616473565b6164be606083018461618e565b95945050505050565b600060a0820190506164dc6000830188615f9e565b6164e96020830187615f9e565b6164f66040830186615f9e565b6165036060830185615f9e565b6165106080830184615f9e565b9695505050505050565b600060608201905061652f60008301866160c0565b61653c6020830185615f9e565b6165496040830184615f9e565b949350505050565b600061010082019050616567600083018b615f9e565b616574602083018a615f9e565b6165816040830189615f9e565b61658e6060830188615f9e565b61659b6080830187615f9e565b6165a860a0830186615f9e565b6165b560c0830185615f9e565b6165c260e0830184615f9e565b9998505050505050505050565b60006165da8261634d565b9050919050565b6165ea816165cf565b82525050565b600060208201905061660560008301846165e1565b92915050565b60006166168261634d565b9050919050565b6166268161660b565b82525050565b6000602082019050616641600083018461661d565b92915050565b60006020828403121561665d5761665c615fc8565b5b600061666b84828501616139565b91505092915050565b600081519050919050565b600082825260208201905092915050565b6000819050602082019050919050565b6166a981615fed565b82525050565b60006166bb83836166a0565b60208301905092915050565b6000602082019050919050565b60006166df82616674565b6166e9818561667f565b93506166f483616690565b8060005b8381101561672557815161670c88826166af565b9750616717836166c7565b9250506001810190506166f8565b5085935050505092915050565b600081519050919050565b600082825260208201905092915050565b6000819050602082019050919050565b61676781615f94565b82525050565b6000616779838361675e565b60208301905092915050565b6000602082019050919050565b600061679d82616732565b6167a7818561673d565b93506167b28361674e565b8060005b838110156167e35781516167ca888261676d565b97506167d583616785565b9250506001810190506167b6565b5085935050505092915050565b6000606082019050818103600083015261680a81866166d4565b9050818103602083015261681e8185616792565b905081810360408301526168328184616792565b9050949350505050565b600060a0820190506168516000830188615f9e565b61685e6020830187615f9e565b61686b6040830186615f9e565b6168786060830185615f9e565b616885608083018461623d565b9695505050505050565b6000806000606084860312156168a8576168a7615fc8565b5b60006168b686828701616016565b93505060206168c786828701616139565b92505060406168d886828701616139565b9150509250925092565b600081519050919050565b600082825260208201905092915050565b6000819050602082019050919050565b61691781616466565b82525050565b608082016000820151616933600085018261675e565b506020820151616946602085018261675e565b506040820151616959604085018261690e565b50606082015161696c60608501826166a0565b50505050565b600061697e838361691d565b60808301905092915050565b6000602082019050919050565b60006169a2826168e2565b6169ac81856168ed565b93506169b7836168fe565b8060005b838110156169e85781516169cf8882616972565b97506169da8361698a565b9250506001810190506169bb565b5085935050505092915050565b60006040820190508181036000830152616a0f8185616997565b9050616a1e6020830184615f9e565b9392505050565b600082825260208201905092915050565b7f496e76616c696420616464726573730000000000000000000000000000000000600082015250565b6000616a6c600f83616a25565b9150616a7782616a36565b602082019050919050565b60006020820190508181036000830152616a9b81616a5f565b9050919050565b7f4e487b7100000000000000000000000000000000000000000000000000000000600052601160045260246000fd5b6000616adc82615f94565b9150616ae783615f94565b9250828203905081811115616aff57616afe616aa2565b5b92915050565b6000616b1082615f94565b9150616b1b83615f94565b9250828202616b2981615f94565b91508282048414831517616b4057616b3f616aa2565b5b5092915050565b7f4e487b7100000000000000000000000000000000000000000000000000000000600052601260045260246000fd5b6000616b8182615f94565b9150616b8c83615f94565b925082616b9c57616b9b616b47565b5b828204905092915050565b6000616bb282615f94565b9150616bbd83615f94565b9250828201905080821115616bd557616bd4616aa2565b5b92915050565b7f416c726561647920696e2074686973206d6f6465000000000000000000000000600082015250565b6000616c11601483616a25565b9150616c1c82616bdb565b602082019050919050565b60006020820190508181036000830152616c4081616c04565b9050919050565b7f4d75737420736574206f7261636c65206265666f72652064697361626c696e6760008201527f2074657374206d6f646500000000000000000000000000000000000000000000602082015250565b6000616ca3602a83616a25565b9150616cae82616c47565b604082019050919050565b60006020820190508181036000830152616cd281616c96565b9050919050565b7f54657374206d6f6465207065726d616e656e746c792064697361626c65640000600082015250565b6000616d0f601e83616a25565b9150616d1a82616cd9565b602082019050919050565b60006020820190508181036000830152616d3e81616d02565b9050919050565b7f496e76616c696420707269636573000000000000000000000000000000000000600082015250565b6000616d7b600e83616a25565b9150616d8682616d45565b602082019050919050565b60006020820190508181036000830152616daa81616d6e565b9050919050565b7f54657374206d6f64653a206f6e6c79206f776e65722063616e20757064617465600082015250565b6000616de7602083616a25565b9150616df282616db1565b602082019050919050565b60006020820190508181036000830152616e1681616dda565b9050919050565b7f54657374206d6f64653a206d7573742077616974203120686f7572206265747760008201527f65656e2075706461746573000000000000000000000000000000000000000000602082015250565b6000616e79602b83616a25565b9150616e8482616e1d565b604082019050919050565b60006020820190508181036000830152616ea881616e6c565b9050919050565b7f54657374206d6f64653a207072696365206368616e676520657863656564732060008201527f353025206c696d69740000000000000000000000000000000000000000000000602082015250565b6000616f0b602983616a25565b9150616f1682616eaf565b604082019050919050565b60006020820190508181036000830152616f3a81616efe565b9050919050565b6000606082019050616f566000830186615f9e565b616f636020830185615f9e565b616f706040830184615f9e565b949350505050565b7f4f7261636c65206e6f7420736574000000000000000000000000000000000000600082015250565b6000616fae600e83616a25565b9150616fb982616f78565b602082019050919050565b60006020820190508181036000830152616fdd81616fa1565b9050919050565b600081519050616ff381616122565b92915050565b60006020828403121561700f5761700e615fc8565b5b600061701d84828501616fe4565b91505092915050565b7f4f7261636c652072657475726e656420696e76616c6964207072696365000000600082015250565b600061705c601d83616a25565b915061706782617026565b602082019050919050565b6000602082019050818103600083015261708b8161704f565b9050919050565b7f4e6f7468696e6720746f20686172766573740000000000000000000000000000600082015250565b60006170c8601283616a25565b91506170d382617092565b602082019050919050565b600060208201905081810360008301526170f7816170bb565b9050919050565b7f4d696e696e672063617020726561636865640000000000000000000000000000600082015250565b6000617134601283616a25565b915061713f826170fe565b602082019050919050565b6000602082019050818103600083015261716381617127565b9050919050565b600060408201905061717f600083018561618e565b61718c6020830184615f9e565b9392505050565b60006040820190506171a86000830185615f9e565b6171b56020830184615f9e565b9392505050565b6000815190506171cb81615fff565b92915050565b6000602082840312156171e7576171e6615fc8565b5b60006171f5848285016171bc565b91505092915050565b7f4e6f7420626f6e64206f776e6572000000000000000000000000000000000000600082015250565b6000617234600e83616a25565b915061723f826171fe565b602082019050919050565b6000602082019050818103600083015261726381617227565b9050919050565b7f4e6f2070656e64696e6720726577617264730000000000000000000000000000600082015250565b60006172a0601283616a25565b91506172ab8261726a565b602082019050919050565b600060208201905081810360008301526172cf81617293565b9050919050565b7f4d696e696e672063617020726561636865642c2063616e6e6f7420636f6d706f60008201527f756e640000000000000000000000000000000000000000000000000000000000602082015250565b6000617332602383616a25565b915061733d826172d6565b604082019050919050565b6000602082019050818103600083015261736181617325565b9050919050565b7f4f7261636c65207072696365206973207a65726f000000000000000000000000600082015250565b600061739e601483616a25565b91506173a982617368565b602082019050919050565b600060208201905081810360008301526173cd81617391565b9050919050565b6000815190506173e3816162c8565b92915050565b6000602082840312156173ff576173fe615fc8565b5b600061740d848285016173d4565b91505092915050565b7f4e6f7468696e6720766573746564000000000000000000000000000000000000600082015250565b600061744c600e83616a25565b915061745782617416565b602082019050919050565b6000602082019050818103600083015261747b8161743f565b9050919050565b7f56657374696e67206e6f74207374617274656400000000000000000000000000600082015250565b60006174b8601383616a25565b91506174c382617482565b602082019050919050565b600060208201905081810360008301526174e7816174ab565b9050919050565b7f56657374696e6720706572696f64206e6f7420636f6d706c6574656420796574600082015250565b6000617524602083616a25565b915061752f826174ee565b602082019050919050565b6000602082019050818103600083015261755381617517565b9050919050565b7f4e6f7468696e6720746f20636c61696d00000000000000000000000000000000600082015250565b6000617590601083616a25565b915061759b8261755a565b602082019050919050565b600060208201905081810360008301526175bf81617583565b9050919050565b60006175d1826161fd565b91506175dc836161fd565b925082820390508181126000841216828213600085121516171561760357617602616aa2565b5b92915050565b6000617614826161fd565b915061761f836161fd565b925082820261762d816161fd565b91507f8000000000000000000000000000000000000000000000000000000000000000841460008412161561766557617664616aa2565b5b828205841483151761767a57617679616aa2565b5b5092915050565b600061768c826161fd565b9150617697836161fd565b9250826176a7576176a6616b47565b5b600160000383147f8000000000000000000000000000000000000000000000000000000000000000831416156176e0576176df616aa2565b5b828205905092915050565b7f4e487b7100000000000000000000000000000000000000000000000000000000600052604160045260246000fd5b7f4e487b7100000000000000000000000000000000000000000000000000000000600052603260045260246000fd5b600061775482615f94565b91507fffffffffffffffffffffffffffffffffffffffffffffffffffffffffffffffff820361778657617785616aa2565b5b600182019050919050565b7f427265616b6572206e6f74206163746976650000000000000000000000000000600082015250565b60006177c7601283616a25565b91506177d282617791565b602082019050919050565b600060208201905081810360008301526177f6816177ba565b9050919050565b7f436f6f6c646f776e206e6f7420636f6d706c6574650000000000000000000000600082015250565b6000617833601583616a25565b915061783e826177fd565b602082019050919050565b6000602082019050818103600083015261786281617826565b9050919050565b600060208201905061787e60008301846160c0565b92915050565b7f4e6f7468696e6720746f2063617368206f757400000000000000000000000000600082015250565b60006178ba601383616a25565b91506178c582617884565b602082019050919050565b600060208201905081810360008301526178e9816178ad565b9050919050565b6000806000806080858703121561790a57617909615fc8565b5b600061791887828801616fe4565b945050602061792987828801616fe4565b935050604061793a87828801616fe4565b925050606061794b87828801616fe4565b91505092959194509250565b6000819050919050565b600061797c61797761797284617957565b616321565b615f94565b9050919050565b61798c81617961565b82525050565b60006040820190506179a76000830185615f9e565b6179b46020830184617983565b9392505050565b6000819050919050565b60006179e06179db6179d6846179bb565b616321565b615f94565b9050919050565b6179f0816179c5565b82525050565b6000604082019050617a0b6000830185615f9e565b617a1860208301846179e7565b9392505050565b6000617a2a826161fd565b91507f80000000000000000000000000000000000000000000000000000000000000008203617a5c57617a5b616aa2565b5b81600003905091905056fea2646970667358221220677d1b25259978975dba6b8084c43b8841d8684138474dcc627c30ff644125e564736f6c63430008140033",
  "linkReferences": {},
  "deployedLinkReferences": {}
}