{
  "_format": "hh-sol-artifact-1",
  "contractName": "IvyCore",
  "sourceName": "contracts/IvyCore.sol",
  "abi": [
    {
      "inputs": [
        {
          "internalType": "address",
          "name": "_ivyToken",
          "type": "address"
        }
      ],
      "stateMutability": "nonpayable",
      "type": "constructor"
    },
    {
      "inputs": [
        {
          "internalType": "address",
          "name": "owner",
          "type": "address"
        }
      ],
      "name": "OwnableInvalidOwner",
      "type": "error"
    },
    {
      "inputs": [
        {
          "internalType": "address",
          "name": "account",
          "type": "address"
        }
      ],
      "name": "OwnableUnauthorizedAccount",
      "type": "error"
    },
    {
      "inputs": [],
      "name": "ReentrancyGuardReentrantCall",
      "type": "error"
    },
    {
      "anonymous": false,
      "inputs": [
        {
          "indexed": false,
          "internalType": "enum IvyCore.BreakerLevel",
          "name": "previousLevel",
          "type": "uint8"
        }
      ],
      "name": "CircuitBreakerReset",
      "type": "event"
    },
    {
      "anonymous": false,
      "inputs": [
        {
          "indexed": false,
          "internalType": "enum IvyCore.BreakerLevel",
          "name": "level",
          "type": "uint8"
        },
        {
          "indexed": false,
          "internalType": "uint256",
          "name": "activationTime",
          "type": "uint256"
        },
        {
          "indexed": false,
          "internalType": "uint256",
          "name": "activationPrice",
          "type": "uint256"
        }
      ],
      "name": "CircuitBreakerTriggered",
      "type": "event"
    },
    {
      "anonymous": false,
      "inputs": [
        {
          "indexed": false,
          "internalType": "uint256",
          "name": "newEmissionFactor",
          "type": "uint256"
        },
        {
          "indexed": false,
          "internalType": "uint256",
          "name": "totalMinted",
          "type": "uint256"
        }
      ],
      "name": "HalvingOccurred",
      "type": "event"
    },
    {
      "anonymous": false,
      "inputs": [
        {
          "indexed": true,
          "internalType": "address",
          "name": "user",
          "type": "address"
        },
        {
          "indexed": false,
          "internalType": "uint256",
          "name": "received",
          "type": "uint256"
        },
        {
          "indexed": false,
          "internalType": "uint256",
          "name": "burned",
          "type": "uint256"
        }
      ],
      "name": "InstantCashOut",
      "type": "event"
    },
    {
      "anonymous": false,
      "inputs": [
        {
          "indexed": true,
          "internalType": "address",
          "name": "previousOwner",
          "type": "address"
        },
        {
          "indexed": true,
          "internalType": "address",
          "name": "newOwner",
          "type": "address"
        }
      ],
      "name": "OwnershipTransferred",
      "type": "event"
    },
    {
      "anonymous": false,
      "inputs": [
        {
          "indexed": true,
          "internalType": "address",
          "name": "receiver",
          "type": "address"
        },
        {
          "indexed": true,
          "internalType": "address",
          "name": "capturer",
          "type": "address"
        },
        {
          "indexed": false,
          "internalType": "uint256",
          "name": "amount",
          "type": "uint256"
        }
      ],
      "name": "PeerBonusPaid",
      "type": "event"
    },
    {
      "anonymous": false,
      "inputs": [
        {
          "indexed": false,
          "internalType": "uint256",
          "name": "accIvyPerShare",
          "type": "uint256"
        },
        {
          "indexed": false,
          "internalType": "uint256",
          "name": "lastRewardTime",
          "type": "uint256"
        },
        {
          "indexed": false,
          "internalType": "uint256",
          "name": "totalPoolBondPower",
          "type": "uint256"
        }
      ],
      "name": "PoolUpdated",
      "type": "event"
    },
    {
      "anonymous": false,
      "inputs": [
        {
          "indexed": true,
          "internalType": "address",
          "name": "oracle",
          "type": "address"
        }
      ],
      "name": "PriceOracleSet",
      "type": "event"
    },
    {
      "anonymous": false,
      "inputs": [
        {
          "indexed": false,
          "internalType": "uint256",
          "name": "currentPrice",
          "type": "uint256"
        },
        {
          "indexed": false,
          "internalType": "uint256",
          "name": "ma30Price",
          "type": "uint256"
        },
        {
          "indexed": false,
          "internalType": "uint256",
          "name": "price1hAgo",
          "type": "uint256"
        }
      ],
      "name": "PriceUpdated",
      "type": "event"
    },
    {
      "anonymous": false,
      "inputs": [
        {
          "indexed": true,
          "internalType": "address",
          "name": "referrer",
          "type": "address"
        },
        {
          "indexed": true,
          "internalType": "address",
          "name": "from",
          "type": "address"
        },
        {
          "indexed": false,
          "internalType": "uint256",
          "name": "amount",
          "type": "uint256"
        },
        {
          "indexed": false,
          "internalType": "uint256",
          "name": "level",
          "type": "uint256"
        }
      ],
      "name": "ReferralRewardPaid",
      "type": "event"
    },
    {
      "anonymous": false,
      "inputs": [
        {
          "indexed": true,
          "internalType": "address",
          "name": "user",
          "type": "address"
        },
        {
          "indexed": false,
          "internalType": "uint256",
          "name": "amount",
          "type": "uint256"
        }
      ],
      "name": "RewardsHarvested",
      "type": "event"
    },
    {
      "anonymous": false,
      "inputs": [
        {
          "indexed": true,
          "internalType": "address",
          "name": "capturer",
          "type": "address"
        },
        {
          "indexed": true,
          "internalType": "address",
          "name": "blockedUpline",
          "type": "address"
        },
        {
          "indexed": false,
          "internalType": "uint256",
          "name": "amount",
          "type": "uint256"
        },
        {
          "indexed": false,
          "internalType": "uint256",
          "name": "depth",
          "type": "uint256"
        }
      ],
      "name": "TeamBonusCaptured",
      "type": "event"
    },
    {
      "anonymous": false,
      "inputs": [
        {
          "indexed": false,
          "internalType": "bool",
          "name": "testMode",
          "type": "bool"
        }
      ],
      "name": "TestModeChanged",
      "type": "event"
    },
    {
      "anonymous": false,
      "inputs": [],
      "name": "TestModePermanentlyDisabled",
      "type": "event"
    },
    {
      "anonymous": false,
      "inputs": [
        {
          "indexed": true,
          "internalType": "address",
          "name": "user",
          "type": "address"
        },
        {
          "indexed": false,
          "internalType": "uint256",
          "name": "bondPower",
          "type": "uint256"
        },
        {
          "indexed": false,
          "internalType": "uint256",
          "name": "rewardDebt",
          "type": "uint256"
        }
      ],
      "name": "UserSynced",
      "type": "event"
    },
    {
      "anonymous": false,
      "inputs": [
        {
          "indexed": true,
          "internalType": "address",
          "name": "user",
          "type": "address"
        },
        {
          "indexed": true,
          "internalType": "uint256",
          "name": "tokenId",
          "type": "uint256"
        },
        {
          "indexed": false,
          "internalType": "uint256",
          "name": "pendingIvy",
          "type": "uint256"
        },
        {
          "indexed": false,
          "internalType": "uint256",
          "name": "bonusPower",
          "type": "uint256"
        }
      ],
      "name": "VestedCompounded",
      "type": "event"
    },
    {
      "anonymous": false,
      "inputs": [
        {
          "indexed": true,
          "internalType": "address",
          "name": "user",
          "type": "address"
        },
        {
          "indexed": false,
          "internalType": "uint256",
          "name": "amount",
          "type": "uint256"
        }
      ],
      "name": "VestingClaimed",
      "type": "event"
    },
    {
      "anonymous": false,
      "inputs": [
        {
          "indexed": true,
          "internalType": "address",
          "name": "user",
          "type": "address"
        },
        {
          "indexed": false,
          "internalType": "uint256",
          "name": "amount",
          "type": "uint256"
        },
        {
          "indexed": false,
          "internalType": "uint256",
          "name": "startTime",
          "type": "uint256"
        }
      ],
      "name": "VestingStarted",
      "type": "event"
    },
    {
      "inputs": [],
      "name": "ACC_IVY_PRECISION",
      "outputs": [
        {
          "internalType": "uint256",
          "name": "",
          "type": "uint256"
        }
      ],
      "stateMutability": "view",
      "type": "function"
    },
    {
      "inputs": [],
      "name": "ALPHA_L1",
      "outputs": [
        {
          "internalType": "uint256",
          "name": "",
          "type": "uint256"
        }
      ],
      "stateMutability": "view",
      "type": "function"
    },
    {
      "inputs": [],
      "name": "ALPHA_L2",
      "outputs": [
        {
          "internalType": "uint256",
          "name": "",
          "type": "uint256"
        }
      ],
      "stateMutability": "view",
      "type": "function"
    },
    {
      "inputs": [],
      "name": "ALPHA_L3",
      "outputs": [
        {
          "internalType": "uint256",
          "name": "",
          "type": "uint256"
        }
      ],
      "stateMutability": "view",
      "type": "function"
    },
    {
      "inputs": [],
      "name": "BASE_DAILY_EMISSION",
      "outputs": [
        {
          "internalType": "uint256",
          "name": "",
          "type": "uint256"
        }
      ],
      "stateMutability": "view",
      "type": "function"
    },
    {
      "inputs": [],
      "name": "BASIS_POINTS",
      "outputs": [
        {
          "internalType": "uint256",
          "name": "",
          "type": "uint256"
        }
      ],
      "stateMutability": "view",
      "type": "function"
    },
    {
      "inputs": [],
      "name": "COOLDOWN_L1",
      "outputs": [
        {
          "internalType": "uint256",
          "name": "",
          "type": "uint256"
        }
      ],
      "stateMutability": "view",
      "type": "function"
    },
    {
      "inputs": [],
      "name": "COOLDOWN_L2",
      "outputs": [
        {
          "internalType": "uint256",
          "name": "",
          "type": "uint256"
        }
      ],
      "stateMutability": "view",
      "type": "function"
    },
    {
      "inputs": [],
      "name": "COOLDOWN_L3",
      "outputs": [
        {
          "internalType": "uint256",
          "name": "",
          "type": "uint256"
        }
      ],
      "stateMutability": "view",
      "type": "function"
    },
    {
      "inputs": [],
      "name": "DROP_L1",
      "outputs": [
        {
          "internalType": "int256",
          "name": "",
          "type": "int256"
        }
      ],
      "stateMutability": "view",
      "type": "function"
    },
    {
      "inputs": [],
      "name": "DROP_L2",
      "outputs": [
        {
          "internalType": "int256",
          "name": "",
          "type": "int256"
        }
      ],
      "stateMutability": "view",
      "type": "function"
    },
    {
      "inputs": [],
      "name": "DROP_L3",
      "outputs": [
        {
          "internalType": "int256",
          "name": "",
          "type": "int256"
        }
      ],
      "stateMutability": "view",
      "type": "function"
    },
    {
      "inputs": [],
      "name": "EMISSION_PER_SECOND",
      "outputs": [
        {
          "internalType": "uint256",
          "name": "",
          "type": "uint256"
        }
      ],
      "stateMutability": "view",
      "type": "function"
    },
    {
      "inputs": [],
      "name": "HALVING_DECAY",
      "outputs": [
        {
          "internalType": "uint256",
          "name": "",
          "type": "uint256"
        }
      ],
      "stateMutability": "view",
      "type": "function"
    },
    {
      "inputs": [],
      "name": "HALVING_THRESHOLD",
      "outputs": [
        {
          "internalType": "uint256",
          "name": "",
          "type": "uint256"
        }
      ],
      "stateMutability": "view",
      "type": "function"
    },
    {
      "inputs": [],
      "name": "HARD_CAP",
      "outputs": [
        {
          "internalType": "uint256",
          "name": "",
          "type": "uint256"
        }
      ],
      "stateMutability": "view",
      "type": "function"
    },
    {
      "inputs": [],
      "name": "INFINITE_RATE",
      "outputs": [
        {
          "internalType": "uint256",
          "name": "",
          "type": "uint256"
        }
      ],
      "stateMutability": "view",
      "type": "function"
    },
    {
      "inputs": [],
      "name": "INSTANT_CASH_PENALTY",
      "outputs": [
        {
          "internalType": "uint256",
          "name": "",
          "type": "uint256"
        }
      ],
      "stateMutability": "view",
      "type": "function"
    },
    {
      "inputs": [],
      "name": "L1_RATE",
      "outputs": [
        {
          "internalType": "uint256",
          "name": "",
          "type": "uint256"
        }
      ],
      "stateMutability": "view",
      "type": "function"
    },
    {
      "inputs": [],
      "name": "L2_RATE",
      "outputs": [
        {
          "internalType": "uint256",
          "name": "",
          "type": "uint256"
        }
      ],
      "stateMutability": "view",
      "type": "function"
    },
    {
      "inputs": [],
      "name": "MAX_PRICE_CHANGE_PERCENT",
      "outputs": [
        {
          "internalType": "uint256",
          "name": "",
          "type": "uint256"
        }
      ],
      "stateMutability": "view",
      "type": "function"
    },
    {
      "inputs": [],
      "name": "MAX_REFERRAL_DEPTH",
      "outputs": [
        {
          "internalType": "uint256",
          "name": "",
          "type": "uint256"
        }
      ],
      "stateMutability": "view",
      "type": "function"
    },
    {
      "inputs": [],
      "name": "MINING_CAP",
      "outputs": [
        {
          "internalType": "uint256",
          "name": "",
          "type": "uint256"
        }
      ],
      "stateMutability": "view",
      "type": "function"
    },
    {
      "inputs": [],
      "name": "PEER_BONUS_RATE",
      "outputs": [
        {
          "internalType": "uint256",
          "name": "",
          "type": "uint256"
        }
      ],
      "stateMutability": "view",
      "type": "function"
    },
    {
      "inputs": [],
      "name": "PID_CAP",
      "outputs": [
        {
          "internalType": "uint256",
          "name": "",
          "type": "uint256"
        }
      ],
      "stateMutability": "view",
      "type": "function"
    },
    {
      "inputs": [],
      "name": "PID_FLOOR",
      "outputs": [
        {
          "internalType": "uint256",
          "name": "",
          "type": "uint256"
        }
      ],
      "stateMutability": "view",
      "type": "function"
    },
    {
      "inputs": [],
      "name": "PID_K",
      "outputs": [
        {
          "internalType": "uint256",
          "name": "",
          "type": "uint256"
        }
      ],
      "stateMutability": "view",
      "type": "function"
    },
    {
      "inputs": [],
      "name": "TEAM_STATS_MAX_DEPTH",
      "outputs": [
        {
          "internalType": "uint256",
          "name": "",
          "type": "uint256"
        }
      ],
      "stateMutability": "view",
      "type": "function"
    },
    {
      "inputs": [],
      "name": "VESTING_PERIOD",
      "outputs": [
        {
          "internalType": "uint256",
          "name": "",
          "type": "uint256"
        }
      ],
      "stateMutability": "view",
      "type": "function"
    },
    {
      "inputs": [],
      "name": "accIvyPerShare",
      "outputs": [
        {
          "internalType": "uint256",
          "name": "",
          "type": "uint256"
        }
      ],
      "stateMutability": "view",
      "type": "function"
    },
    {
      "inputs": [],
      "name": "breakerState",
      "outputs": [
        {
          "internalType": "enum IvyCore.BreakerLevel",
          "name": "currentLevel",
          "type": "uint8"
        },
        {
          "internalType": "uint256",
          "name": "activationTime",
          "type": "uint256"
        },
        {
          "internalType": "uint256",
          "name": "activationPrice",
          "type": "uint256"
        }
      ],
      "stateMutability": "view",
      "type": "function"
    },
    {
      "inputs": [],
      "name": "checkCircuitBreaker",
      "outputs": [],
      "stateMutability": "nonpayable",
      "type": "function"
    },
    {
      "inputs": [],
      "name": "claimVested",
      "outputs": [],
      "stateMutability": "nonpayable",
      "type": "function"
    },
    {
      "inputs": [
        {
          "internalType": "uint256",
          "name": "tokenId",
          "type": "uint256"
        }
      ],
      "name": "compoundVested",
      "outputs": [],
      "stateMutability": "nonpayable",
      "type": "function"
    },
    {
      "inputs": [
        {
          "internalType": "uint256",
          "name": "tokenId",
          "type": "uint256"
        },
        {
          "internalType": "uint256",
          "name": "amount",
          "type": "uint256"
        }
      ],
      "name": "compoundVestedPartial",
      "outputs": [],
      "stateMutability": "nonpayable",
      "type": "function"
    },
    {
      "inputs": [],
      "name": "currentDailyEmission",
      "outputs": [
        {
          "internalType": "uint256",
          "name": "",
          "type": "uint256"
        }
      ],
      "stateMutability": "view",
      "type": "function"
    },
    {
      "inputs": [],
      "name": "currentPrice",
      "outputs": [
        {
          "internalType": "uint256",
          "name": "",
          "type": "uint256"
        }
      ],
      "stateMutability": "view",
      "type": "function"
    },
    {
      "inputs": [
        {
          "internalType": "address",
          "name": "",
          "type": "address"
        },
        {
          "internalType": "uint256",
          "name": "",
          "type": "uint256"
        }
      ],
      "name": "directReferrals",
      "outputs": [
        {
          "internalType": "address",
          "name": "",
          "type": "address"
        }
      ],
      "stateMutability": "view",
      "type": "function"
    },
    {
      "inputs": [],
      "name": "dividendPool",
      "outputs": [
        {
          "internalType": "contract IDividendPool",
          "name": "",
          "type": "address"
        }
      ],
      "stateMutability": "view",
      "type": "function"
    },
    {
      "inputs": [],
      "name": "emissionFactor",
      "outputs": [
        {
          "internalType": "uint256",
          "name": "",
          "type": "uint256"
        }
      ],
      "stateMutability": "view",
      "type": "function"
    },
    {
      "inputs": [],
      "name": "genesisNode",
      "outputs": [
        {
          "internalType": "contract IGenesisNode",
          "name": "",
          "type": "address"
        }
      ],
      "stateMutability": "view",
      "type": "function"
    },
    {
      "inputs": [],
      "name": "getBreakerStatus",
      "outputs": [
        {
          "internalType": "enum IvyCore.BreakerLevel",
          "name": "level",
          "type": "uint8"
        },
        {
          "internalType": "uint256",
          "name": "activationTime",
          "type": "uint256"
        },
        {
          "internalType": "uint256",
          "name": "activationPrice",
          "type": "uint256"
        },
        {
          "internalType": "uint256",
          "name": "timeRemaining",
          "type": "uint256"
        },
        {
          "internalType": "uint256",
          "name": "forcedAlpha",
          "type": "uint256"
        }
      ],
      "stateMutability": "view",
      "type": "function"
    },
    {
      "inputs": [
        {
          "internalType": "address",
          "name": "user",
          "type": "address"
        }
      ],
      "name": "getDirectReferrals",
      "outputs": [
        {
          "internalType": "address[]",
          "name": "referrals",
          "type": "address[]"
        },
        {
          "internalType": "uint256[]",
          "name": "bondPowers",
          "type": "uint256[]"
        },
        {
          "internalType": "uint256[]",
          "name": "totalRewards",
          "type": "uint256[]"
        }
      ],
      "stateMutability": "view",
      "type": "function"
    },
    {
      "inputs": [],
      "name": "getFinalMultiplier",
      "outputs": [
        {
          "internalType": "uint256",
          "name": "",
          "type": "uint256"
        }
      ],
      "stateMutability": "view",
      "type": "function"
    },
    {
      "inputs": [],
      "name": "getHalvingInfo",
      "outputs": [
        {
          "internalType": "uint256",
          "name": "_halvingCount",
          "type": "uint256"
        },
        {
          "internalType": "uint256",
          "name": "_emissionFactor",
          "type": "uint256"
        },
        {
          "internalType": "uint256",
          "name": "_nextHalvingAt",
          "type": "uint256"
        },
        {
          "internalType": "uint256",
          "name": "_progressToNextHalving",
          "type": "uint256"
        }
      ],
      "stateMutability": "view",
      "type": "function"
    },
    {
      "inputs": [],
      "name": "getPIDAlpha",
      "outputs": [
        {
          "internalType": "uint256",
          "name": "",
          "type": "uint256"
        }
      ],
      "stateMutability": "view",
      "type": "function"
    },
    {
      "inputs": [],
      "name": "getProtocolStats",
      "outputs": [
        {
          "internalType": "uint256",
          "name": "_totalMinted",
          "type": "uint256"
        },
        {
          "internalType": "uint256",
          "name": "_miningCap",
          "type": "uint256"
        },
        {
          "internalType": "uint256",
          "name": "_emissionFactor",
          "type": "uint256"
        },
        {
          "internalType": "uint256",
          "name": "_finalMultiplier",
          "type": "uint256"
        },
        {
          "internalType": "uint256",
          "name": "_totalPoolBondPower",
          "type": "uint256"
        },
        {
          "internalType": "uint256",
          "name": "_emissionPerSecond",
          "type": "uint256"
        },
        {
          "internalType": "uint256",
          "name": "_currentDailyEmission",
          "type": "uint256"
        },
        {
          "internalType": "uint256",
          "name": "_halvingCount",
          "type": "uint256"
        }
      ],
      "stateMutability": "view",
      "type": "function"
    },
    {
      "inputs": [
        {
          "internalType": "address",
          "name": "user",
          "type": "address"
        },
        {
          "internalType": "uint256",
          "name": "offset",
          "type": "uint256"
        },
        {
          "internalType": "uint256",
          "name": "limit",
          "type": "uint256"
        }
      ],
      "name": "getReferralRewardHistory",
      "outputs": [
        {
          "components": [
            {
              "internalType": "uint256",
              "name": "timestamp",
              "type": "uint256"
            },
            {
              "internalType": "uint256",
              "name": "amount",
              "type": "uint256"
            },
            {
              "internalType": "uint8",
              "name": "level",
              "type": "uint8"
            },
            {
              "internalType": "address",
              "name": "fromUser",
              "type": "address"
            }
          ],
          "internalType": "struct IvyCore.ReferralRewardRecord[]",
          "name": "records",
          "type": "tuple[]"
        },
        {
          "internalType": "uint256",
          "name": "total",
          "type": "uint256"
        }
      ],
      "stateMutability": "view",
      "type": "function"
    },
    {
      "inputs": [
        {
          "internalType": "address",
          "name": "user",
          "type": "address"
        }
      ],
      "name": "getTeamPerformance",
      "outputs": [
        {
          "internalType": "uint256",
          "name": "rank",
          "type": "uint256"
        },
        {
          "internalType": "uint256",
          "name": "teamBondPower",
          "type": "uint256"
        },
        {
          "internalType": "uint256",
          "name": "teamActiveRate",
          "type": "uint256"
        },
        {
          "internalType": "uint256",
          "name": "avgBondPower",
          "type": "uint256"
        }
      ],
      "stateMutability": "view",
      "type": "function"
    },
    {
      "inputs": [
        {
          "internalType": "address",
          "name": "user",
          "type": "address"
        }
      ],
      "name": "getTeamStats",
      "outputs": [
        {
          "internalType": "uint256",
          "name": "totalMembers",
          "type": "uint256"
        },
        {
          "internalType": "uint256",
          "name": "totalBondPower",
          "type": "uint256"
        },
        {
          "internalType": "uint256",
          "name": "activeMembers",
          "type": "uint256"
        },
        {
          "internalType": "uint256",
          "name": "directCount",
          "type": "uint256"
        }
      ],
      "stateMutability": "view",
      "type": "function"
    },
    {
      "inputs": [
        {
          "internalType": "address",
          "name": "user",
          "type": "address"
        }
      ],
      "name": "getUserMiningStats",
      "outputs": [
        {
          "internalType": "uint256",
          "name": "bondPower",
          "type": "uint256"
        },
        {
          "internalType": "uint256",
          "name": "pendingRewards",
          "type": "uint256"
        },
        {
          "internalType": "uint256",
          "name": "totalVested",
          "type": "uint256"
        },
        {
          "internalType": "uint256",
          "name": "totalClaimed",
          "type": "uint256"
        },
        {
          "internalType": "uint256",
          "name": "claimableNow",
          "type": "uint256"
        }
      ],
      "stateMutability": "view",
      "type": "function"
    },
    {
      "inputs": [
        {
          "internalType": "address",
          "name": "user",
          "type": "address"
        }
      ],
      "name": "getUserReferralSummary",
      "outputs": [
        {
          "internalType": "uint256",
          "name": "directReferralCount",
          "type": "uint256"
        },
        {
          "internalType": "uint256",
          "name": "totalTeamSize",
          "type": "uint256"
        },
        {
          "internalType": "uint256",
          "name": "totalReferralRewards",
          "type": "uint256"
        },
        {
          "internalType": "uint256",
          "name": "rewardHistoryCount",
          "type": "uint256"
        },
        {
          "internalType": "bool",
          "name": "hasGenesisNode",
          "type": "bool"
        }
      ],
      "stateMutability": "view",
      "type": "function"
    },
    {
      "inputs": [
        {
          "internalType": "address",
          "name": "user",
          "type": "address"
        }
      ],
      "name": "getVestingInfo",
      "outputs": [
        {
          "internalType": "uint256",
          "name": "totalVested",
          "type": "uint256"
        },
        {
          "internalType": "uint256",
          "name": "totalClaimed",
          "type": "uint256"
        },
        {
          "internalType": "uint256",
          "name": "vestingStartTime",
          "type": "uint256"
        },
        {
          "internalType": "uint256",
          "name": "claimableNow",
          "type": "uint256"
        },
        {
          "internalType": "uint256",
          "name": "remainingLocked",
          "type": "uint256"
        },
        {
          "internalType": "uint256",
          "name": "vestingProgress",
          "type": "uint256"
        }
      ],
      "stateMutability": "view",
      "type": "function"
    },
    {
      "inputs": [],
      "name": "halvingCount",
      "outputs": [
        {
          "internalType": "uint256",
          "name": "",
          "type": "uint256"
        }
      ],
      "stateMutability": "view",
      "type": "function"
    },
    {
      "inputs": [],
      "name": "harvest",
      "outputs": [],
      "stateMutability": "nonpayable",
      "type": "function"
    },
    {
      "inputs": [],
      "name": "instantCashOut",
      "outputs": [],
      "stateMutability": "nonpayable",
      "type": "function"
    },
    {
      "inputs": [],
      "name": "isFullyDecentralized",
      "outputs": [
        {
          "internalType": "bool",
          "name": "",
          "type": "bool"
        }
      ],
      "stateMutability": "view",
      "type": "function"
    },
    {
      "inputs": [],
      "name": "ivyBond",
      "outputs": [
        {
          "internalType": "contract IIvyBond",
          "name": "",
          "type": "address"
        }
      ],
      "stateMutability": "view",
      "type": "function"
    },
    {
      "inputs": [],
      "name": "ivyToken",
      "outputs": [
        {
          "internalType": "contract IvyToken",
          "name": "",
          "type": "address"
        }
      ],
      "stateMutability": "view",
      "type": "function"
    },
    {
      "inputs": [],
      "name": "lastHalvingMinted",
      "outputs": [
        {
          "internalType": "uint256",
          "name": "",
          "type": "uint256"
        }
      ],
      "stateMutability": "view",
      "type": "function"
    },
    {
      "inputs": [],
      "name": "lastPriceUpdateTime",
      "outputs": [
        {
          "internalType": "uint256",
          "name": "",
          "type": "uint256"
        }
      ],
      "stateMutability": "view",
      "type": "function"
    },
    {
      "inputs": [],
      "name": "lastRewardTime",
      "outputs": [
        {
          "internalType": "uint256",
          "name": "",
          "type": "uint256"
        }
      ],
      "stateMutability": "view",
      "type": "function"
    },
    {
      "inputs": [],
      "name": "ma30Price",
      "outputs": [
        {
          "internalType": "uint256",
          "name": "",
          "type": "uint256"
        }
      ],
      "stateMutability": "view",
      "type": "function"
    },
    {
      "inputs": [],
      "name": "oracle",
      "outputs": [
        {
          "internalType": "contract IPriceOracle",
          "name": "",
          "type": "address"
        }
      ],
      "stateMutability": "view",
      "type": "function"
    },
    {
      "inputs": [],
      "name": "owner",
      "outputs": [
        {
          "internalType": "address",
          "name": "",
          "type": "address"
        }
      ],
      "stateMutability": "view",
      "type": "function"
    },
    {
      "inputs": [
        {
          "internalType": "address",
          "name": "user",
          "type": "address"
        }
      ],
      "name": "pendingIvy",
      "outputs": [
        {
          "internalType": "uint256",
          "name": "",
          "type": "uint256"
        }
      ],
      "stateMutability": "view",
      "type": "function"
    },
    {
      "inputs": [],
      "name": "price1hAgo",
      "outputs": [
        {
          "internalType": "uint256",
          "name": "",
          "type": "uint256"
        }
      ],
      "stateMutability": "view",
      "type": "function"
    },
    {
      "inputs": [
        {
          "internalType": "address",
          "name": "",
          "type": "address"
        },
        {
          "internalType": "uint256",
          "name": "",
          "type": "uint256"
        }
      ],
      "name": "referralRewardHistory",
      "outputs": [
        {
          "internalType": "uint256",
          "name": "timestamp",
          "type": "uint256"
        },
        {
          "internalType": "uint256",
          "name": "amount",
          "type": "uint256"
        },
        {
          "internalType": "uint8",
          "name": "level",
          "type": "uint8"
        },
        {
          "internalType": "address",
          "name": "fromUser",
          "type": "address"
        }
      ],
      "stateMutability": "view",
      "type": "function"
    },
    {
      "inputs": [
        {
          "internalType": "address",
          "name": "",
          "type": "address"
        }
      ],
      "name": "referralRewardsEarned",
      "outputs": [
        {
          "internalType": "uint256",
          "name": "",
          "type": "uint256"
        }
      ],
      "stateMutability": "view",
      "type": "function"
    },
    {
      "inputs": [],
      "name": "renounceOwnership",
      "outputs": [],
      "stateMutability": "nonpayable",
      "type": "function"
    },
    {
      "inputs": [],
      "name": "resetCircuitBreaker",
      "outputs": [],
      "stateMutability": "nonpayable",
      "type": "function"
    },
    {
      "inputs": [
        {
          "internalType": "address",
          "name": "_dividendPool",
          "type": "address"
        }
      ],
      "name": "setDividendPool",
      "outputs": [],
      "stateMutability": "nonpayable",
      "type": "function"
    },
    {
      "inputs": [
        {
          "internalType": "address",
          "name": "_genesisNode",
          "type": "address"
        }
      ],
      "name": "setGenesisNode",
      "outputs": [],
      "stateMutability": "nonpayable",
      "type": "function"
    },
    {
      "inputs": [
        {
          "internalType": "address",
          "name": "_ivyBond",
          "type": "address"
        }
      ],
      "name": "setIvyBond",
      "outputs": [],
      "stateMutability": "nonpayable",
      "type": "function"
    },
    {
      "inputs": [
        {
          "internalType": "address",
          "name": "_oracle",
          "type": "address"
        }
      ],
      "name": "setOracle",
      "outputs": [],
      "stateMutability": "nonpayable",
      "type": "function"
    },
    {
      "inputs": [
        {
          "internalType": "bool",
          "name": "_testMode",
          "type": "bool"
        }
      ],
      "name": "setTestMode",
      "outputs": [],
      "stateMutability": "nonpayable",
      "type": "function"
    },
    {
      "inputs": [
        {
          "internalType": "address",
          "name": "user",
          "type": "address"
        }
      ],
      "name": "syncUser",
      "outputs": [],
      "stateMutability": "nonpayable",
      "type": "function"
    },
    {
      "inputs": [
        {
          "internalType": "address",
          "name": "",
          "type": "address"
        }
      ],
      "name": "teamStatsCache",
      "outputs": [
        {
          "internalType": "uint256",
          "name": "totalMembers",
          "type": "uint256"
        },
        {
          "internalType": "uint256",
          "name": "totalBondPower",
          "type": "uint256"
        },
        {
          "internalType": "uint256",
          "name": "activeMembers",
          "type": "uint256"
        },
        {
          "internalType": "uint256",
          "name": "lastUpdateTime",
          "type": "uint256"
        }
      ],
      "stateMutability": "view",
      "type": "function"
    },
    {
      "inputs": [],
      "name": "testMode",
      "outputs": [
        {
          "internalType": "bool",
          "name": "",
          "type": "bool"
        }
      ],
      "stateMutability": "view",
      "type": "function"
    },
    {
      "inputs": [],
      "name": "testModeDisabledPermanently",
      "outputs": [
        {
          "internalType": "bool",
          "name": "",
          "type": "bool"
        }
      ],
      "stateMutability": "view",
      "type": "function"
    },
    {
      "inputs": [],
      "name": "totalMinted",
      "outputs": [
        {
          "internalType": "uint256",
          "name": "",
          "type": "uint256"
        }
      ],
      "stateMutability": "view",
      "type": "function"
    },
    {
      "inputs": [],
      "name": "totalPoolBondPower",
      "outputs": [
        {
          "internalType": "uint256",
          "name": "",
          "type": "uint256"
        }
      ],
      "stateMutability": "view",
      "type": "function"
    },
    {
      "inputs": [
        {
          "internalType": "address",
          "name": "newOwner",
          "type": "address"
        }
      ],
      "name": "transferOwnership",
      "outputs": [],
      "stateMutability": "nonpayable",
      "type": "function"
    },
    {
      "inputs": [],
      "name": "updatePool",
      "outputs": [],
      "stateMutability": "nonpayable",
      "type": "function"
    },
    {
      "inputs": [
        {
          "internalType": "uint256",
          "name": "_currentPrice",
          "type": "uint256"
        },
        {
          "internalType": "uint256",
          "name": "_ma30Price",
          "type": "uint256"
        },
        {
          "internalType": "uint256",
          "name": "_price1hAgo",
          "type": "uint256"
        }
      ],
      "name": "updatePrices",
      "outputs": [],
      "stateMutability": "nonpayable",
      "type": "function"
    },
    {
      "inputs": [
        {
          "internalType": "address",
          "name": "",
          "type": "address"
        }
      ],
      "name": "userInfo",
      "outputs": [
        {
          "internalType": "uint256",
          "name": "bondPower",
          "type": "uint256"
        },
        {
          "internalType": "uint256",
          "name": "rewardDebt",
          "type": "uint256"
        },
        {
          "internalType": "uint256",
          "name": "pendingVested",
          "type": "uint256"
        },
        {
          "internalType": "uint256",
          "name": "vestingStartTime",
          "type": "uint256"
        },
        {
          "internalType": "uint256",
          "name": "totalVested",
          "type": "uint256"
        },
        {
          "internalType": "uint256",
          "name": "totalClaimed",
          "type": "uint256"
        }
      ],
      "stateMutability": "view",
      "type": "function"
    }
  ],
  "bytecode": "0x6080604052670de0b6b3a7640000600d55670de0b6b3a7640000601155670de0b6b3a7640000601255670de0b6b3a76400006013556001601460006101000a81548160ff0219169083151502179055503480156200005c57600080fd5b506040516200858e3803806200858e83398181016040528101906200008291906200028e565b33600073ffffffffffffffffffffffffffffffffffffffff168173ffffffffffffffffffffffffffffffffffffffff1603620000f85760006040517f1e4fbdf7000000000000000000000000000000000000000000000000000000008152600401620000ef9190620002d1565b60405180910390fd5b62000109816200016060201b60201c565b506001808190555080600460006101000a81548173ffffffffffffffffffffffffffffffffffffffff021916908373ffffffffffffffffffffffffffffffffffffffff16021790555042600b8190555050620002ee565b60008060009054906101000a900473ffffffffffffffffffffffffffffffffffffffff169050816000806101000a81548173ffffffffffffffffffffffffffffffffffffffff021916908373ffffffffffffffffffffffffffffffffffffffff1602179055508173ffffffffffffffffffffffffffffffffffffffff168173ffffffffffffffffffffffffffffffffffffffff167f8be0079c531659141344cd1fd0a4f28419497f9722a3daafe3b4186f6b6457e060405160405180910390a35050565b600080fd5b600073ffffffffffffffffffffffffffffffffffffffff82169050919050565b6000620002568262000229565b9050919050565b620002688162000249565b81146200027457600080fd5b50565b60008151905062000288816200025d565b92915050565b600060208284031215620002a757620002a662000224565b5b6000620002b78482850162000277565b91505092915050565b620002cb8162000249565b82525050565b6000602082019050620002e86000830184620002c0565b92915050565b61829080620002fe6000396000f3fe608060405234801561001057600080fd5b50600436106104c25760003560e01c80639b565faa11610278578063d2c8e0e51161015c578063e88067e8116100ce578063f2fde38b11610092578063f2fde38b14610e7a578063f706555b14610e96578063f864233114610eb4578063f89f83fb14610ed2578063fb897ce414610f03578063fc84d91314610f38576104c2565b8063e88067e814610de5578063e979ca4a14610e01578063eacf59c814610e0b578063eef1be2c14610e29578063f2eef31614610e47576104c2565b8063de5f8d9311610120578063de5f8d9314610d47578063e0c9bc6214610d51578063e1f1c4a714610d6f578063e3161ddd14610d8d578063e4147ca214610d97578063e4941c3914610db5576104c2565b8063d2c8e0e514610c89578063d63636e414610cbb578063da6510b414610cef578063dc2828e014610d0d578063dcebf68114610d29576104c2565b8063a95d5a60116101f5578063cd9ea342116101b9578063cd9ea34214610bfd578063cda80bfa14610c1b578063ce28c1bf14610c39578063d01c44cd14610c57578063d2121b4e14610c61578063d2522baa14610c7f576104c2565b8063a95d5a6014610b3f578063aa4a442c14610b5d578063af77063d14610b90578063afce88ec14610bac578063b3def2f514610bdf576104c2565b8063a2309ff81161023c578063a2309ff814610a99578063a28aee1514610ab7578063a29a7ab014610ad5578063a2f2794414610b05578063a7bd3e9d14610b23576104c2565b80639b565faa14610a035780639c41ee6714610a215780639d14b2a214610a3f5780639d1b464a14610a5d5780639f55d64c14610a7b576104c2565b8063458f8f94116103aa578063763f62061161031c5780638da5cb5b116102e05780638da5cb5b146109515780638e8b6c881461096f5780639231cf741461098b578063934b7c54146109a9578063945c3ebd146109c7578063983d896e146109e5576104c2565b8063763f6206146108b4578063771aceef146108d45780637adbf973146108f95780637dc0d1d01461091557806389e59ea014610933576104c2565b80634a08c7dd1161036e5780634a08c7dd146107e957806352aa8a5e1461081c5780635e147f901461083a578063715018a61461085857806374c7773e1461086257806375beb7b114610896576104c2565b8063458f8f94146107675780634641257d146107855780634897fffb1461078f57806349b9a7af146107ad57806349cea162146107cb576104c2565b80631959a002116104435780632b5615d2116104075780632b5615d2146106b557806330d172d5146106d357806336be3538146106f15780633a03171c1461070f5780633eceb63e1461072d5780633ed620a41461074b576104c2565b80631959a0021461060a5780631ff1292f1461063f57806321cccba21461065b578063277c19b0146106795780632914655514610697576104c2565b8063091075a91161048a578063091075a9146105715780630c2330a51461058f57806310d60dc4146105ad578063123d1179146105ce57806318c3b674146105ec576104c2565b80630197d972146104c7578063033d30fe146104e557806303e45a4b146105015780630420bace1461052357806305ad393514610541575b600080fd5b6104cf610f56565b6040516104dc9190616688565b60405180910390f35b6104ff60048036038101906104fa9190616706565b610f5d565b005b610509611018565b60405161051a9594939291906167aa565b60405180910390f35b61052b611165565b6040516105389190616688565b60405180910390f35b61055b60048036038101906105569190616829565b611171565b6040516105689190616878565b60405180910390f35b6105796111bf565b6040516105869190616688565b60405180910390f35b61059761120f565b6040516105a49190616688565b60405180910390f35b6105b5611215565b6040516105c59493929190616893565b60405180910390f35b6105d66112a3565b6040516105e391906168f1565b60405180910390f35b6105f46112c7565b6040516106019190616927565b60405180910390f35b610624600480360381019061061f9190616706565b6112da565b60405161063696959493929190616942565b60405180910390f35b610659600480360381019061065491906169cf565b611316565b005b61066361154f565b6040516106709190616688565b60405180910390f35b61068161155b565b60405161068e9190616688565b60405180910390f35b61069f611560565b6040516106ac9190616a5b565b60405180910390f35b6106bd611586565b6040516106ca9190616688565b60405180910390f35b6106db611592565b6040516106e89190616a97565b60405180910390f35b6106f96115b8565b6040516107069190616688565b60405180910390f35b6107176115be565b6040516107249190616688565b60405180910390f35b6107356115cd565b6040516107429190616688565b60405180910390f35b61076560048036038101906107609190616ab2565b6115d3565b005b61076f611a08565b60405161077c9190616688565b60405180910390f35b61078d611a11565b005b610797611d68565b6040516107a49190616b26565b60405180910390f35b6107b5611d8e565b6040516107c29190616688565b60405180910390f35b6107d3611d94565b6040516107e09190616927565b60405180910390f35b61080360048036038101906107fe9190616829565b611dab565b6040516108139493929190616b5d565b60405180910390f35b610824611e25565b6040516108319190616688565b60405180910390f35b610842611e3a565b60405161084f91906168f1565b60405180910390f35b610860611e5e565b005b61087c60048036038101906108779190616706565b611e72565b60405161088d959493929190616ba2565b60405180910390f35b61089e611f43565b6040516108ab9190616688565b60405180910390f35b6108bc611f48565b6040516108cb93929190616bf5565b60405180910390f35b6108dc611f6d565b6040516108f0989796959493929190616c2c565b60405180910390f35b610913600480360381019061090e9190616706565b612009565b005b61091d612107565b60405161092a9190616ccb565b60405180910390f35b61093b61212d565b6040516109489190616688565b60405180910390f35b610959612132565b6040516109669190616878565b60405180910390f35b61098960048036038101906109849190616706565b61215b565b005b610993612167565b6040516109a09190616688565b60405180910390f35b6109b161216d565b6040516109be9190616688565b60405180910390f35b6109cf612173565b6040516109dc9190616688565b60405180910390f35b6109ed612181565b6040516109fa9190616688565b60405180910390f35b610a0b612186565b604051610a189190616d07565b60405180910390f35b610a296121ac565b604051610a369190616688565b60405180910390f35b610a476121b1565b604051610a549190616688565b60405180910390f35b610a656121b7565b604051610a729190616688565b60405180910390f35b610a836121bd565b604051610a909190616688565b60405180910390f35b610aa16121cc565b604051610aae9190616688565b60405180910390f35b610abf6121d2565b604051610acc9190616688565b60405180910390f35b610aef6004803603810190610aea9190616706565b6121ee565b604051610afc9190616688565b60405180910390f35b610b0d612206565b604051610b1a9190616688565b60405180910390f35b610b3d6004803603810190610b389190616706565b61220b565b005b610b476122c6565b604051610b549190616688565b60405180910390f35b610b776004803603810190610b729190616706565b6122d2565b604051610b879493929190616893565b60405180910390f35b610baa6004803603810190610ba59190616d22565b612302565b005b610bc66004803603810190610bc19190616706565b61293a565b604051610bd69493929190616893565b60405180910390f35b610be7612aac565b604051610bf49190616688565b60405180910390f35b610c05612ab2565b604051610c129190616927565b60405180910390f35b610c23612ac5565b604051610c309190616688565b60405180910390f35b610c41612ad0565b604051610c4e9190616688565b60405180910390f35b610c5f612adf565b005b610c69612d8a565b604051610c769190616688565b60405180910390f35b610c87612d90565b005b610ca36004803603810190610c9e9190616706565b612f2a565b604051610cb293929190616ecb565b60405180910390f35b610cd56004803603810190610cd09190616706565b6132ae565b604051610ce6959493929190616f17565b60405180910390f35b610cf7613495565b604051610d049190616688565b60405180910390f35b610d276004803603810190610d229190616f6a565b61349b565b005b610d31613b4f565b604051610d3e9190616688565b60405180910390f35b610d4f613b5b565b005b610d59613d64565b604051610d6691906168f1565b60405180910390f35b610d77613d88565b604051610d849190616688565b60405180910390f35b610d95613d8e565b005b610d9f613f0c565b604051610dac9190616688565b60405180910390f35b610dcf6004803603810190610dca9190616706565b61408d565b604051610ddc9190616688565b60405180910390f35b610dff6004803603810190610dfa9190616706565b6141f1565b005b610e096142ac565b005b610e13614547565b604051610e209190616688565b60405180910390f35b610e3161454e565b604051610e3e9190616688565b60405180910390f35b610e616004803603810190610e5c9190616706565b614554565b604051610e719493929190616893565b60405180910390f35b610e946004803603810190610e8f9190616706565b614624565b005b610e9e6146aa565b604051610eab9190616688565b60405180910390f35b610ebc6146b0565b604051610ec99190616688565b60405180910390f35b610eec6004803603810190610ee79190616faa565b6146b6565b604051610efa929190617110565b60405180910390f35b610f1d6004803603810190610f189190616706565b61493f565b604051610f2f96959493929190616942565b60405180910390f35b610f40614a71565b604051610f4d9190616688565b60405180910390f35b62278d0081565b610f65614a77565b600073ffffffffffffffffffffffffffffffffffffffff168173ffffffffffffffffffffffffffffffffffffffff1603610fd4576040517f08c379a0000000000000000000000000000000000000000000000000000000008152600401610fcb9061719d565b60405180910390fd5b80600360006101000a81548173ffffffffffffffffffffffffffffffffffffffff021916908373ffffffffffffffffffffffffffffffffffffffff16021790555050565b6000806000806000600760000160009054906101000a900460ff169450600760010154935060076002015492506000600381111561105957611058616733565b5b85600381111561106c5761106b616733565b5b0361108e5784600080600061107f613f0c565b9450945094509450945061115e565b6000600760010154426110a191906171ec565b90506000806003808111156110b9576110b8616733565b5b8860038111156110cc576110cb616733565b5b036110e65762015180915066b1a2bc2ec500009050611139565b600260038111156110fa576110f9616733565b5b88600381111561110d5761110c616733565b5b036111275761a8c091506702c68af0bb1400009050611138565b61384091506706f05b59d3b2000090505b5b8183101561115257828261114d91906171ec565b611155565b60005b94508093505050505b9091929394565b6706f05b59d3b2000081565b601a602052816000526040600020818154811061118d57600080fd5b906000526020600020016000915091509054906101000a900473ffffffffffffffffffffffffffffffffffffffff1681565b6000806111ca613f0c565b90506ec097ce7bc90715b34b9f100000000081600d5469065a4da25d3016c000006111f59190617220565b6111ff9190617220565b6112099190617291565b91505090565b61138881565b6000806000806010549350600d5492506a05ca4ec2a79a7f67000000600160105461124091906172c2565b61124a9190617220565b915060006a05ca4ec2a79a7f670000006010546112679190617220565b600e5461127491906171ec565b90506a05ca4ec2a79a7f67000000612710826112909190617220565b61129a9190617291565b91505090919293565b7fffffffffffffffffffffffffffffffffffffffffffffffffffffffffffffffe781565b601660009054906101000a900460ff1681565b60176020528060005260406000206000915090508060000154908060010154908060020154908060030154908060040154908060050154905086565b61131e614a77565b801515601460009054906101000a900460ff16151503611373576040517f08c379a000000000000000000000000000000000000000000000000000000000815260040161136a90617342565b60405180910390fd5b806114a857600073ffffffffffffffffffffffffffffffffffffffff16600560009054906101000a900473ffffffffffffffffffffffffffffffffffffffff1673ffffffffffffffffffffffffffffffffffffffff1603611409576040517f08c379a0000000000000000000000000000000000000000000000000000000008152600401611400906173d4565b60405180910390fd5b6001601660006101000a81548160ff0219169083151502179055506000601460006101000a81548160ff0219169083151502179055507f3aa6186db6afba61ec3731f16e23fdea8dfa0dfe10d7c05942d11fdb365db031600060405161146f9190616927565b60405180910390a17f7b953117c0b198733758d75ae32e08fc7c05c91df4a53764487b88bb7309d1a660405160405180910390a161154c565b601660009054906101000a900460ff16156114f8576040517f08c379a00000000000000000000000000000000000000000000000000000000081526004016114ef90617440565b60405180910390fd5b6001601460006101000a81548160ff0219169083151502179055507f3aa6186db6afba61ec3731f16e23fdea8dfa0dfe10d7c05942d11fdb365db03160016040516115439190616927565b60405180910390a15b50565b6714d1120d7b16000081565b60c881565b600360009054906101000a900473ffffffffffffffffffffffffffffffffffffffff1681565b67016345785d8a000081565b600660009054906101000a900473ffffffffffffffffffffffffffffffffffffffff1681565b61384081565b6a52b7d2dcc80cd2e400000081565b61a8c081565b6000831180156115e35750600082115b80156115ef5750600081115b61162e576040517f08c379a0000000000000000000000000000000000000000000000000000000008152600401611625906174ac565b60405180910390fd5b601460009054906101000a900460ff161561181b5761164b612132565b73ffffffffffffffffffffffffffffffffffffffff163373ffffffffffffffffffffffffffffffffffffffff16146116b8576040517f08c379a00000000000000000000000000000000000000000000000000000000081526004016116af90617518565b60405180910390fd5b610e106015546116c891906172c2565b42101561170a576040517f08c379a0000000000000000000000000000000000000000000000000000000008152600401611701906175aa565b60405180910390fd5b600060115411156117bf576000606460326011546117289190617220565b6117329190617291565b60115461173f91906172c2565b90506000606460326011546117549190617220565b61175e9190617291565b60115461176b91906171ec565b905080851015801561177d5750818511155b6117bc576040517f08c379a00000000000000000000000000000000000000000000000000000000081526004016117b39061763c565b60405180910390fd5b50505b826011819055508160128190555080601381905550426015819055507f15819dd2fd9f6418b142e798d08a18d0bf06ea368f4480b7b0d3f75bd966bc4883838360405161180e9392919061765c565b60405180910390a1611a03565b600073ffffffffffffffffffffffffffffffffffffffff16600560009054906101000a900473ffffffffffffffffffffffffffffffffffffffff1673ffffffffffffffffffffffffffffffffffffffff16036118ac576040517f08c379a00000000000000000000000000000000000000000000000000000000081526004016118a3906176df565b60405180910390fd5b6000600560009054906101000a900473ffffffffffffffffffffffffffffffffffffffff1673ffffffffffffffffffffffffffffffffffffffff1663b3596f07600460009054906101000a900473ffffffffffffffffffffffffffffffffffffffff166040518263ffffffff1660e01b815260040161192b9190616878565b602060405180830381865afa158015611948573d6000803e3d6000fd5b505050506040513d601f19601f8201168201806040525081019061196c9190617714565b9050600081116119b1576040517f08c379a00000000000000000000000000000000000000000000000000000000081526004016119a89061778d565b60405180910390fd5b8060118190555082601281905550816013819055507f15819dd2fd9f6418b142e798d08a18d0bf06ea368f4480b7b0d3f75bd966bc488184846040516119f99392919061765c565b60405180910390a1505b505050565b64e8d4a5100081565b611a19614afe565b6000339050611a2781614b44565b6000601760008373ffffffffffffffffffffffffffffffffffffffff1673ffffffffffffffffffffffffffffffffffffffff168152602001908152602001600020905060008160020154905060008111611ab6576040517f08c379a0000000000000000000000000000000000000000000000000000000008152600401611aad906177f9565b60405180910390fd5b6a39e7139a8c08fa06000000600e5410611b05576040517f08c379a0000000000000000000000000000000000000000000000000000000008152600401611afc90617865565b60405180910390fd5b6000603260c86101f46103e8611b1b91906172c2565b611b2591906172c2565b611b2f91906172c2565b905060006127108284611b429190617220565b611b4c9190617291565b905060008184611b5c91906172c2565b90506a39e7139a8c08fa0600000081600e54611b7891906172c2565b1115611bc5576000600e546a39e7139a8c08fa06000000611b9991906171ec565b905083612710611ba991906172c2565b61271082611bb79190617220565b611bc19190617291565b9450505b6000856002018190555083856004016000828254611be391906172c2565b925050819055506000856003015403611c00574285600301819055505b83600e6000828254611c1291906172c2565b92505081905550600460009054906101000a900473ffffffffffffffffffffffffffffffffffffffff1673ffffffffffffffffffffffffffffffffffffffff166340c10f1930866040518363ffffffff1660e01b8152600401611c76929190617885565b600060405180830381600087803b158015611c9057600080fd5b505af1158015611ca4573d6000803e3d6000fd5b50505050611cb0614ed0565b611cba8685614f9a565b8573ffffffffffffffffffffffffffffffffffffffff167fbc8fb63d817de4fabea2108e9b7eefca87245899f4b357636c26b5cad02ec5b485604051611d009190616688565b60405180910390a28573ffffffffffffffffffffffffffffffffffffffff167f8fe19f160f86d04fb1a90dde93e5e1a47df0810685adf4b990153c107d7b39248542604051611d509291906178ae565b60405180910390a2505050505050611d66615b90565b565b600460009054906101000a900473ffffffffffffffffffffffffffffffffffffffff1681565b60155481565b6000601660009054906101000a900460ff16905090565b60196020528160005260406000208181548110611dc757600080fd5b9060005260206000209060030201600091509150508060000154908060010154908060020160009054906101000a900460ff16908060020160019054906101000a900473ffffffffffffffffffffffffffffffffffffffff16905084565b6000611e35601154601254615b99565b905090565b7ffffffffffffffffffffffffffffffffffffffffffffffffffffffffffffffff681565b611e66614a77565b611e706000615ca2565b565b600080600080600080601760008873ffffffffffffffffffffffffffffffffffffffff1673ffffffffffffffffffffffffffffffffffffffff168152602001908152602001600020905080600001549550611ecc8761408d565b9450806004015493508060050154925060008160030154118015611ef4575060008160040154115b15611f39576000816003015442611f0b91906171ec565b905062278d008110611f325781600501548260040154611f2b91906171ec565b9250611f37565b600092505b505b5091939590929450565b603281565b60078060000160009054906101000a900460ff16908060010154908060020154905083565b600080600080600080600080600e5497506a39e7139a8c08fa060000009650600d549550611f99613f0c565b9450600c5493506201518069065a4da25d3016c00000611fb99190617291565b92506ec097ce7bc90715b34b9f100000000085600d5469065a4da25d3016c00000611fe49190617220565b611fee9190617220565b611ff89190617291565b915060105490509091929394959697565b612011614a77565b600073ffffffffffffffffffffffffffffffffffffffff168173ffffffffffffffffffffffffffffffffffffffff1603612080576040517f08c379a00000000000000000000000000000000000000000000000000000000081526004016120779061719d565b60405180910390fd5b80600560006101000a81548173ffffffffffffffffffffffffffffffffffffffff021916908373ffffffffffffffffffffffffffffffffffffffff1602179055508073ffffffffffffffffffffffffffffffffffffffff167f6536690106168bdf4ba72c128a053d817999b1db90cae23f139b293bf862cb7560405160405180910390a250565b600560009054906101000a900473ffffffffffffffffffffffffffffffffffffffff1681565b601481565b60008060009054906101000a900473ffffffffffffffffffffffffffffffffffffffff16905090565b61216481614b44565b50565b600b5481565b600f5481565b69065a4da25d3016c0000081565b605f81565b600260009054906101000a900473ffffffffffffffffffffffffffffffffffffffff1681565b603281565b600c5481565b60115481565b6a05ca4ec2a79a7f6700000081565b600e5481565b6201518069065a4da25d3016c000006121eb9190617291565b81565b60186020528060005260406000206000915090505481565b601481565b612213614a77565b600073ffffffffffffffffffffffffffffffffffffffff168173ffffffffffffffffffffffffffffffffffffffff1603612282576040517f08c379a00000000000000000000000000000000000000000000000000000000081526004016122799061719d565b60405180910390fd5b80600660006101000a81548173ffffffffffffffffffffffffffffffffffffffff021916908373ffffffffffffffffffffffffffffffffffffffff16021790555050565b6702c68af0bb14000081565b601c6020528060005260406000206000915090508060000154908060010154908060020154908060030154905084565b61230a614afe565b3373ffffffffffffffffffffffffffffffffffffffff16600360009054906101000a900473ffffffffffffffffffffffffffffffffffffffff1673ffffffffffffffffffffffffffffffffffffffff1663331f5dcf836040518263ffffffff1660e01b815260040161237c9190616688565b602060405180830381865afa158015612399573d6000803e3d6000fd5b505050506040513d601f19601f820116820180604052508101906123bd91906178ec565b73ffffffffffffffffffffffffffffffffffffffff1614612413576040517f08c379a000000000000000000000000000000000000000000000000000000000815260040161240a90617965565b60405180910390fd5b61241b613d8e565b6000601760003373ffffffffffffffffffffffffffffffffffffffff1673ffffffffffffffffffffffffffffffffffffffff16815260200190815260200160002090506000816001015464e8d4a51000600a54846000015461247d9190617220565b6124879190617291565b61249191906171ec565b905060008260020154826124a591906172c2565b9050600081116124ea576040517f08c379a00000000000000000000000000000000000000000000000000000000081526004016124e1906179d1565b60405180910390fd5b64e8d4a51000600a5484600001546125029190617220565b61250c9190617291565b8360010181905550600083600201819055506a39e7139a8c08fa0600000081600e5461253891906172c2565b11156125b957600e546a39e7139a8c08fa0600000011612559576000612573565b600e546a39e7139a8c08fa0600000061257291906171ec565b5b9050600081116125b8576040517f08c379a00000000000000000000000000000000000000000000000000000000081526004016125af90617a63565b60405180910390fd5b5b80600e60008282546125cb91906172c2565b92505081905550600460009054906101000a900473ffffffffffffffffffffffffffffffffffffffff1673ffffffffffffffffffffffffffffffffffffffff166340c10f1930836040518363ffffffff1660e01b815260040161262f929190617885565b600060405180830381600087803b15801561264957600080fd5b505af115801561265d573d6000803e3d6000fd5b505050506000600560009054906101000a900473ffffffffffffffffffffffffffffffffffffffff1673ffffffffffffffffffffffffffffffffffffffff1663b3596f07600460009054906101000a900473ffffffffffffffffffffffffffffffffffffffff166040518263ffffffff1660e01b81526004016126e09190616878565b602060405180830381865afa1580156126fd573d6000803e3d6000fd5b505050506040513d601f19601f820116820180604052508101906127219190617714565b905060008111612766576040517f08c379a000000000000000000000000000000000000000000000000000000000815260040161275d90617acf565b60405180910390fd5b6000670de0b6b3a7640000828461277d9190617220565b6127879190617291565b905060006064606e8361279a9190617220565b6127a49190617291565b9050600460009054906101000a900473ffffffffffffffffffffffffffffffffffffffff1673ffffffffffffffffffffffffffffffffffffffff1663a9059cbb61dead866040518363ffffffff1660e01b8152600401612805929190617885565b6020604051808303816000875af1158015612824573d6000803e3d6000fd5b505050506040513d601f19601f820116820180604052508101906128489190617b04565b50600360009054906101000a900473ffffffffffffffffffffffffffffffffffffffff1673ffffffffffffffffffffffffffffffffffffffff1663341186c288836040518363ffffffff1660e01b81526004016128a69291906178ae565b600060405180830381600087803b1580156128c057600080fd5b505af11580156128d4573d6000803e3d6000fd5b50505050863373ffffffffffffffffffffffffffffffffffffffff167fa78b9a656c956dc5f492315beb888731d0142b384ffc2b15834ea73d69fb76bb86846040516129219291906178ae565b60405180910390a3505050505050612937615b90565b50565b600080600080600073ffffffffffffffffffffffffffffffffffffffff16600260009054906101000a900473ffffffffffffffffffffffffffffffffffffffff1673ffffffffffffffffffffffffffffffffffffffff16036129a9576000806000809350935093509350612aa5565b601a60008673ffffffffffffffffffffffffffffffffffffffff1673ffffffffffffffffffffffffffffffffffffffff1681526020019081526020016000208054905090506000601c60008773ffffffffffffffffffffffffffffffffffffffff1673ffffffffffffffffffffffffffffffffffffffff1681526020019081526020016000206040518060800160405290816000820154815260200160018201548152602001600282015481526020016003820154815250509050600081606001511115612a8b57806000015194508060200151935080604001519250612aa3565b612a96866000615d66565b8095508196508297505050505b505b9193509193565b600d5481565b601460009054906101000a900460ff1681565b66b1a2bc2ec5000081565b6a39e7139a8c08fa0600000081565b612ae7614afe565b60003390506000601760008373ffffffffffffffffffffffffffffffffffffffff1673ffffffffffffffffffffffffffffffffffffffff16815260200190815260200160002090506000816004015411612b76576040517f08c379a0000000000000000000000000000000000000000000000000000000008152600401612b6d90617b7d565b60405180910390fd5b6000816003015411612bbd576040517f08c379a0000000000000000000000000000000000000000000000000000000008152600401612bb490617be9565b60405180910390fd5b6000816003015442612bcf91906171ec565b905062278d00811015612c17576040517f08c379a0000000000000000000000000000000000000000000000000000000008152600401612c0e90617c55565b60405180910390fd5b600082600501548360040154612c2d91906171ec565b905060008111612c72576040517f08c379a0000000000000000000000000000000000000000000000000000000008152600401612c6990617cc1565b60405180910390fd5b80836005016000828254612c8691906172c2565b92505081905550600460009054906101000a900473ffffffffffffffffffffffffffffffffffffffff1673ffffffffffffffffffffffffffffffffffffffff1663a9059cbb85836040518363ffffffff1660e01b8152600401612cea929190617885565b6020604051808303816000875af1158015612d09573d6000803e3d6000fd5b505050506040513d601f19601f82011682018060405250810190612d2d9190617b04565b508373ffffffffffffffffffffffffffffffffffffffff167f9fe9b7be9d151c7a8b6de49a1312ff27a15096d0d1d12999af85fe4310e0b12582604051612d749190616688565b60405180910390a250505050612d88615b90565b565b60125481565b612d98614a77565b60006013540315612f28576000601354601154612db59190617ce1565b90506000601354606483612dc99190617d24565b612dd39190617d9c565b905060007fffffffffffffffffffffffffffffffffffffffffffffffffffffffffffffffe78213612e075760039050612e65565b7ffffffffffffffffffffffffffffffffffffffffffffffffffffffffffffffff18213612e375760029050612e64565b7ffffffffffffffffffffffffffffffffffffffffffffffffffffffffffffffff68213612e6357600190505b5b5b600760000160009054906101000a900460ff166003811115612e8a57612e89616733565b5b816003811115612e9d57612e9c616733565b5b1115612f245780600760000160006101000a81548160ff02191690836003811115612ecb57612eca616733565b5b0217905550426007600101819055506011546007600201819055507f4fa52a45d7e5a216674f536c9e84f867dce6e9a6c6b5fe88f640855bf92256818142601154604051612f1b93929190616bf5565b60405180910390a15b5050505b565b6060806060601a60008573ffffffffffffffffffffffffffffffffffffffff1673ffffffffffffffffffffffffffffffffffffffff168152602001908152602001600020805480602002602001604051908101604052809291908181526020018280548015612fee57602002820191906000526020600020905b8160009054906101000a900473ffffffffffffffffffffffffffffffffffffffff1673ffffffffffffffffffffffffffffffffffffffff1681526020019060010190808311612fa4575b505050505092506000835190508067ffffffffffffffff81111561301557613014617e06565b5b6040519080825280602002602001820160405280156130435781602001602082028036833780820191505090505b5092508067ffffffffffffffff8111156130605761305f617e06565b5b60405190808252806020026020018201604052801561308e5781602001602082028036833780820191505090505b50915060005b818110156132a55760008582815181106130b1576130b0617e35565b5b60200260200101519050601760008273ffffffffffffffffffffffffffffffffffffffff1673ffffffffffffffffffffffffffffffffffffffff1681526020019081526020016000206000015485838151811061311157613110617e35565b5b602002602001018181525050600080601960008a73ffffffffffffffffffffffffffffffffffffffff1673ffffffffffffffffffffffffffffffffffffffff168152602001908152602001600020905060005b818054905081101561326e578373ffffffffffffffffffffffffffffffffffffffff1682828154811061319a57613199617e35565b5b906000526020600020906003020160020160019054906101000a900473ffffffffffffffffffffffffffffffffffffffff1673ffffffffffffffffffffffffffffffffffffffff16148015613223575060018282815481106131ff576131fe617e35565b5b906000526020600020906003020160020160009054906101000a900460ff1660ff16145b1561325b5781818154811061323b5761323a617e35565b5b9060005260206000209060030201600101548361325891906172c2565b92505b808061326690617e64565b915050613164565b508186858151811061328357613282617e35565b5b602002602001018181525050505050808061329d90617e64565b915050613094565b50509193909250565b6000806000806000601a60008773ffffffffffffffffffffffffffffffffffffffff1673ffffffffffffffffffffffffffffffffffffffff168152602001908152602001600020805490509450601860008773ffffffffffffffffffffffffffffffffffffffff1673ffffffffffffffffffffffffffffffffffffffff168152602001908152602001600020549250601960008773ffffffffffffffffffffffffffffffffffffffff1673ffffffffffffffffffffffffffffffffffffffff168152602001908152602001600020805490509150600073ffffffffffffffffffffffffffffffffffffffff16600260009054906101000a900473ffffffffffffffffffffffffffffffffffffffff1673ffffffffffffffffffffffffffffffffffffffff161461348c576000600260009054906101000a900473ffffffffffffffffffffffffffffffffffffffff1673ffffffffffffffffffffffffffffffffffffffff166370a08231886040518263ffffffff1660e01b81526004016134359190616878565b602060405180830381865afa158015613452573d6000803e3d6000fd5b505050506040513d601f19601f820116820180604052508101906134769190617714565b119050613484866000615d66565b905050809450505b91939590929450565b6101f481565b6134a3614afe565b3373ffffffffffffffffffffffffffffffffffffffff16600360009054906101000a900473ffffffffffffffffffffffffffffffffffffffff1673ffffffffffffffffffffffffffffffffffffffff1663331f5dcf846040518263ffffffff1660e01b81526004016135159190616688565b602060405180830381865afa158015613532573d6000803e3d6000fd5b505050506040513d601f19601f8201168201806040525081019061355691906178ec565b73ffffffffffffffffffffffffffffffffffffffff16146135ac576040517f08c379a00000000000000000000000000000000000000000000000000000000081526004016135a390617965565b60405180910390fd5b600081116135ef576040517f08c379a00000000000000000000000000000000000000000000000000000000081526004016135e690617ef8565b60405180910390fd5b6135f7613d8e565b6000601760003373ffffffffffffffffffffffffffffffffffffffff1673ffffffffffffffffffffffffffffffffffffffff16815260200190815260200160002090506000816001015464e8d4a51000600a5484600001546136599190617220565b6136639190617291565b61366d91906171ec565b9050600082600201548261368191906172c2565b9050808411156136c6576040517f08c379a00000000000000000000000000000000000000000000000000000000081526004016136bd90617f64565b60405180910390fd5b826002015484116136f157838360020160008282546136e591906171ec565b9250508190555061372c565b600083600201548561370391906171ec565b9050600084600201819055508084600101600082825461372391906172c2565b92505081905550505b60008490506a39e7139a8c08fa0600000081600e5461374b91906172c2565b11156137cc57600e546a39e7139a8c08fa060000001161376c576000613786565b600e546a39e7139a8c08fa0600000061378591906171ec565b5b9050600081116137cb576040517f08c379a00000000000000000000000000000000000000000000000000000000081526004016137c290617865565b60405180910390fd5b5b80600e60008282546137de91906172c2565b92505081905550600460009054906101000a900473ffffffffffffffffffffffffffffffffffffffff1673ffffffffffffffffffffffffffffffffffffffff166340c10f1930836040518363ffffffff1660e01b8152600401613842929190617885565b600060405180830381600087803b15801561385c57600080fd5b505af1158015613870573d6000803e3d6000fd5b505050506000600560009054906101000a900473ffffffffffffffffffffffffffffffffffffffff1673ffffffffffffffffffffffffffffffffffffffff1663b3596f07600460009054906101000a900473ffffffffffffffffffffffffffffffffffffffff166040518263ffffffff1660e01b81526004016138f39190616878565b602060405180830381865afa158015613910573d6000803e3d6000fd5b505050506040513d601f19601f820116820180604052508101906139349190617714565b905060008111613979576040517f08c379a000000000000000000000000000000000000000000000000000000000815260040161397090617acf565b60405180910390fd5b6000670de0b6b3a764000082846139909190617220565b61399a9190617291565b905060006064606e836139ad9190617220565b6139b79190617291565b9050600460009054906101000a900473ffffffffffffffffffffffffffffffffffffffff1673ffffffffffffffffffffffffffffffffffffffff1663a9059cbb61dead866040518363ffffffff1660e01b8152600401613a18929190617885565b6020604051808303816000875af1158015613a37573d6000803e3d6000fd5b505050506040513d601f19601f82011682018060405250810190613a5b9190617b04565b50600360009054906101000a900473ffffffffffffffffffffffffffffffffffffffff1673ffffffffffffffffffffffffffffffffffffffff1663341186c28a836040518363ffffffff1660e01b8152600401613ab99291906178ae565b600060405180830381600087803b158015613ad357600080fd5b505af1158015613ae7573d6000803e3d6000fd5b50505050883373ffffffffffffffffffffffffffffffffffffffff167fa78b9a656c956dc5f492315beb888731d0142b384ffc2b15834ea73d69fb76bb8684604051613b349291906178ae565b60405180910390a350505050505050613b4b615b90565b5050565b671bc16d674ec8000081565b613b63614a77565b60006003811115613b7757613b76616733565b5b600760000160009054906101000a900460ff166003811115613b9c57613b9b616733565b5b03613bdc576040517f08c379a0000000000000000000000000000000000000000000000000000000008152600401613bd390617fd0565b60405180910390fd5b600060076001015442613bef91906171ec565b90506000600380811115613c0657613c05616733565b5b600760000160009054906101000a900460ff166003811115613c2b57613c2a616733565b5b03613c3b57620151809050613c8a565b60026003811115613c4f57613c4e616733565b5b600760000160009054906101000a900460ff166003811115613c7457613c73616733565b5b03613c835761a8c09050613c89565b61384090505b5b80821015613ccd576040517f08c379a0000000000000000000000000000000000000000000000000000000008152600401613cc49061803c565b60405180910390fd5b6000600760000160009054906101000a900460ff1690506000600760000160006101000a81548160ff02191690836003811115613d0d57613d0c616733565b5b0217905550600060076001018190555060006007600201819055507f07130c8b39a90581223fe2d149b6458e7d26925c0ea5c3156721b96e564c365981604051613d57919061805c565b60405180910390a1505050565b7ffffffffffffffffffffffffffffffffffffffffffffffffffffffffffffffff181565b61271081565b600b54421115613f0a576000600c5403613dae5742600b81905550613f0a565b6000600b5442613dbe91906171ec565b90506000613dca613f0c565b905060006ec097ce7bc90715b34b9f100000000082600d546201518069065a4da25d3016c00000613dfb9190617291565b86613e069190617220565b613e109190617220565b613e1a9190617220565b613e249190617291565b90506a39e7139a8c08fa0600000081600e54613e4091906172c2565b1115613e7e57600e546a39e7139a8c08fa0600000011613e61576000613e7b565b600e546a39e7139a8c08fa06000000613e7a91906171ec565b5b90505b6000811115613ebe57600c5464e8d4a5100082613e9b9190617220565b613ea59190617291565b600a6000828254613eb691906172c2565b925050819055505b42600b819055507f17b8644f386d1c7c7138ef98b3c8035622bbe94d7be9b26f71d2654a547c2943600a54600b54600c54604051613efe9392919061765c565b60405180910390a15050505b565b6000806003811115613f2157613f20616733565b5b600760000160009054906101000a900460ff166003811115613f4657613f45616733565b5b1461407957600060076001015442613f5e91906171ec565b9050600380811115613f7357613f72616733565b5b600760000160009054906101000a900460ff166003811115613f9857613f97616733565b5b03613fbd5762015180811015613fb85766b1a2bc2ec5000091505061408a565b614077565b60026003811115613fd157613fd0616733565b5b600760000160009054906101000a900460ff166003811115613ff657613ff5616733565b5b0361401b5761a8c0811015614016576702c68af0bb14000091505061408a565b614076565b6001600381111561402f5761402e616733565b5b600760000160009054906101000a900460ff16600381111561405457614053616733565b5b0361407557613840811015614074576706f05b59d3b2000091505061408a565b5b5b5b505b614087601154601254615b99565b90505b90565b600080601760008473ffffffffffffffffffffffffffffffffffffffff1673ffffffffffffffffffffffffffffffffffffffff16815260200190815260200160002090506000600a549050600b54421180156140eb57506000600c54115b15614197576000600b544261410091906171ec565b9050600061410c613f0c565b905060006ec097ce7bc90715b34b9f100000000082600d546201518069065a4da25d3016c0000061413d9190617291565b866141489190617220565b6141529190617220565b61415c9190617220565b6141669190617291565b9050600c5464e8d4a510008261417c9190617220565b6141869190617291565b8461419191906172c2565b93505050505b600080836000015411156141d757826001015464e8d4a510008385600001546141c09190617220565b6141ca9190617291565b6141d491906171ec565b90505b8260020154816141e791906172c2565b9350505050919050565b6141f9614a77565b600073ffffffffffffffffffffffffffffffffffffffff168173ffffffffffffffffffffffffffffffffffffffff1603614268576040517f08c379a000000000000000000000000000000000000000000000000000000000815260040161425f9061719d565b60405180910390fd5b80600260006101000a81548173ffffffffffffffffffffffffffffffffffffffff021916908373ffffffffffffffffffffffffffffffffffffffff16021790555050565b6142b4614afe565b60003390506000601760008373ffffffffffffffffffffffffffffffffffffffff1673ffffffffffffffffffffffffffffffffffffffff16815260200190815260200160002090508060050154816004015411614346576040517f08c379a000000000000000000000000000000000000000000000000000000000815260040161433d906180c3565b60405180910390fd5b60008160050154826004015461435c91906171ec565b90506000612710611388836143719190617220565b61437b9190617291565b90506000818361438b91906171ec565b905083600401548460050181905550600460009054906101000a900473ffffffffffffffffffffffffffffffffffffffff1673ffffffffffffffffffffffffffffffffffffffff1663a9059cbb86836040518363ffffffff1660e01b81526004016143f7929190617885565b6020604051808303816000875af1158015614416573d6000803e3d6000fd5b505050506040513d601f19601f8201168201806040525081019061443a9190617b04565b5060008211156144e857600460009054906101000a900473ffffffffffffffffffffffffffffffffffffffff1673ffffffffffffffffffffffffffffffffffffffff1663a9059cbb61dead846040518363ffffffff1660e01b81526004016144a3929190617885565b6020604051808303816000875af11580156144c2573d6000803e3d6000fd5b505050506040513d601f19601f820116820180604052508101906144e69190617b04565b505b8473ffffffffffffffffffffffffffffffffffffffff167f92207ec016968e0ee608b41c92470ff10e9f810a8dec5f40901974ac75ed498e82846040516145309291906178ae565b60405180910390a25050505050614545615b90565b565b6201518081565b600a5481565b60008060008060008060003073ffffffffffffffffffffffffffffffffffffffff1663afce88ec896040518263ffffffff1660e01b81526004016145989190616878565b608060405180830381865afa1580156145b5573d6000803e3d6000fd5b505050506040513d601f19601f820116820180604052508101906145d991906180e3565b5092509250925060009650819550600083111561461a5782612710826145ff9190617220565b6146099190617291565b945082826146179190617291565b93505b5050509193509193565b61462c614a77565b600073ffffffffffffffffffffffffffffffffffffffff168173ffffffffffffffffffffffffffffffffffffffff160361469e5760006040517f1e4fbdf70000000000000000000000000000000000000000000000000000000081526004016146959190616878565b60405180910390fd5b6146a781615ca2565b50565b6103e881565b60135481565b60606000601960008673ffffffffffffffffffffffffffffffffffffffff1673ffffffffffffffffffffffffffffffffffffffff16815260200190815260200160002080549050905080841061476257600067ffffffffffffffff81111561472157614720617e06565b5b60405190808252806020026020018201604052801561475a57816020015b61474761662e565b81526020019060019003908161473f5790505b509150614937565b6000838561477091906172c2565b90508181111561477e578190505b6000858261478c91906171ec565b90508067ffffffffffffffff8111156147a8576147a7617e06565b5b6040519080825280602002602001820160405280156147e157816020015b6147ce61662e565b8152602001906001900390816147c65790505b50935060005b8181101561493357601960008973ffffffffffffffffffffffffffffffffffffffff1673ffffffffffffffffffffffffffffffffffffffff168152602001908152602001600020818860018761483d91906171ec565b61484791906171ec565b61485191906171ec565b8154811061486257614861617e35565b5b906000526020600020906003020160405180608001604052908160008201548152602001600182015481526020016002820160009054906101000a900460ff1660ff1660ff1681526020016002820160019054906101000a900473ffffffffffffffffffffffffffffffffffffffff1673ffffffffffffffffffffffffffffffffffffffff1673ffffffffffffffffffffffffffffffffffffffff168152505085828151811061491557614914617e35565b5b6020026020010181905250808061492b90617e64565b9150506147e7565b5050505b935093915050565b6000806000806000806000601760008973ffffffffffffffffffffffffffffffffffffffff1673ffffffffffffffffffffffffffffffffffffffff1681526020019081526020016000209050806004015496508060050154955080600301549450600081600301541180156149b8575060008160040154115b15614a675760008160030154426149cf91906171ec565b9050600062278d0082106149ee57826004015490506127109350614a2d565b62278d00828460040154614a029190617220565b614a0c9190617291565b905062278d0061271083614a209190617220565b614a2a9190617291565b93505b82600501548111614a3f576000614a50565b826005015481614a4f91906171ec565b5b9550808360040154614a6291906171ec565b945050505b5091939550919395565b60105481565b614a7f615f54565b73ffffffffffffffffffffffffffffffffffffffff16614a9d612132565b73ffffffffffffffffffffffffffffffffffffffff1614614afc57614ac0615f54565b6040517f118cdaa7000000000000000000000000000000000000000000000000000000008152600401614af39190616878565b60405180910390fd5b565b600260015403614b3a576040517f3ee5aeb500000000000000000000000000000000000000000000000000000000815260040160405180910390fd5b6002600181905550565b614b4c613d8e565b6000601760008373ffffffffffffffffffffffffffffffffffffffff1673ffffffffffffffffffffffffffffffffffffffff168152602001908152602001600020905060008073ffffffffffffffffffffffffffffffffffffffff16600360009054906101000a900473ffffffffffffffffffffffffffffffffffffffff1673ffffffffffffffffffffffffffffffffffffffff1614614c8557600360009054906101000a900473ffffffffffffffffffffffffffffffffffffffff1673ffffffffffffffffffffffffffffffffffffffff1663ab0229a0846040518263ffffffff1660e01b8152600401614c419190616878565b602060405180830381865afa158015614c5e573d6000803e3d6000fd5b505050506040513d601f19601f82011682018060405250810190614c829190617714565b90505b60008073ffffffffffffffffffffffffffffffffffffffff16600260009054906101000a900473ffffffffffffffffffffffffffffffffffffffff1673ffffffffffffffffffffffffffffffffffffffff1614614d7b57600260009054906101000a900473ffffffffffffffffffffffffffffffffffffffff1673ffffffffffffffffffffffffffffffffffffffff166304d1334f856040518263ffffffff1660e01b8152600401614d379190616878565b602060405180830381865afa158015614d54573d6000803e3d6000fd5b505050506040513d601f19601f82011682018060405250810190614d789190617714565b90505b600061271082612710614d8e91906172c2565b84614d999190617220565b614da39190617291565b9050600084600001541115614e0e576000846001015464e8d4a51000600a548760000154614dd19190617220565b614ddb9190617291565b614de591906171ec565b90506000811115614e0c5780856002016000828254614e0491906172c2565b925050819055505b505b808460000154600c54614e2191906171ec565b614e2b91906172c2565b600c8190555060008460000154905081856000018190555064e8d4a51000600a5483614e579190617220565b614e619190617291565b8560010181905550614e74868284615f5c565b8573ffffffffffffffffffffffffffffffffffffffff167fdfc331ca16b8c4320a402867e832423d16ad3de953e474a499baf3697aa9e894838760010154604051614ec09291906178ae565b60405180910390a2505050505050565b5b6a05ca4ec2a79a7f670000006001601054614eec91906172c2565b614ef69190617220565b600e5410614f98576064605f600d54614f0f9190617220565b614f199190617291565b600d8190555060106000815480929190614f3290617e64565b91905055506a05ca4ec2a79a7f67000000601054614f509190617220565b600f819055507fde141711fef892cdaea55f1f6a85e241382fcefc69efdb496eff235992a18ed4600d54600e54604051614f8b9291906178ae565b60405180910390a1614ed1565b565b600073ffffffffffffffffffffffffffffffffffffffff16600260009054906101000a900473ffffffffffffffffffffffffffffffffffffffff1673ffffffffffffffffffffffffffffffffffffffff160315615b8c576000600260009054906101000a900473ffffffffffffffffffffffffffffffffffffffff1673ffffffffffffffffffffffffffffffffffffffff16634a9fefc7846040518263ffffffff1660e01b815260040161504e9190616878565b602060405180830381865afa15801561506b573d6000803e3d6000fd5b505050506040513d601f19601f8201168201806040525081019061508f91906178ec565b9050600073ffffffffffffffffffffffffffffffffffffffff168173ffffffffffffffffffffffffffffffffffffffff16036150cb5750615b8c565b60006127106103e8846150de9190617220565b6150e89190617291565b905060008111156152715780600e600082825461510591906172c2565b92505081905550600460009054906101000a900473ffffffffffffffffffffffffffffffffffffffff1673ffffffffffffffffffffffffffffffffffffffff166340c10f1983836040518363ffffffff1660e01b8152600401615169929190617885565b600060405180830381600087803b15801561518357600080fd5b505af1158015615197573d6000803e3d6000fd5b5050505080601860008473ffffffffffffffffffffffffffffffffffffffff1673ffffffffffffffffffffffffffffffffffffffff16815260200190815260200160002060008282546151ea91906172c2565b925050819055508373ffffffffffffffffffffffffffffffffffffffff168273ffffffffffffffffffffffffffffffffffffffff167fe679beb5d98a54fda65331587d36d13358e8bf295be15e932c482164f8fde95e836001604051615251929190618185565b60405180910390a36152668285836001616340565b6152708285616466565b5b6000600260009054906101000a900473ffffffffffffffffffffffffffffffffffffffff1673ffffffffffffffffffffffffffffffffffffffff16634a9fefc7846040518263ffffffff1660e01b81526004016152ce9190616878565b602060405180830381865afa1580156152eb573d6000803e3d6000fd5b505050506040513d601f19601f8201168201806040525081019061530f91906178ec565b9050600073ffffffffffffffffffffffffffffffffffffffff168173ffffffffffffffffffffffffffffffffffffffff16146154e35760006127106101f4866153589190617220565b6153629190617291565b905060008111156154e15780600e600082825461537f91906172c2565b92505081905550600460009054906101000a900473ffffffffffffffffffffffffffffffffffffffff1673ffffffffffffffffffffffffffffffffffffffff166340c10f1983836040518363ffffffff1660e01b81526004016153e3929190617885565b600060405180830381600087803b1580156153fd57600080fd5b505af1158015615411573d6000803e3d6000fd5b5050505080601860008473ffffffffffffffffffffffffffffffffffffffff1673ffffffffffffffffffffffffffffffffffffffff168152602001908152602001600020600082825461546491906172c2565b925050819055508573ffffffffffffffffffffffffffffffffffffffff168273ffffffffffffffffffffffffffffffffffffffff167fe679beb5d98a54fda65331587d36d13358e8bf295be15e932c482164f8fde95e8360026040516154cb9291906181e9565b60405180910390a36154e08287836002616340565b5b505b600083905060008060005b600073ffffffffffffffffffffffffffffffffffffffff168473ffffffffffffffffffffffffffffffffffffffff161415801561552b5750601481105b1561569c576000600260009054906101000a900473ffffffffffffffffffffffffffffffffffffffff1673ffffffffffffffffffffffffffffffffffffffff166370a08231866040518263ffffffff1660e01b815260040161558d9190616878565b602060405180830381865afa1580156155aa573d6000803e3d6000fd5b505050506040513d601f19601f820116820180604052508101906155ce9190617714565b11156155eb578392506001816155e491906172c2565b915061569c565b600260009054906101000a900473ffffffffffffffffffffffffffffffffffffffff1673ffffffffffffffffffffffffffffffffffffffff16634a9fefc7856040518263ffffffff1660e01b81526004016156469190616878565b602060405180830381865afa158015615663573d6000803e3d6000fd5b505050506040513d601f19601f8201168201806040525081019061568791906178ec565b9350808061569490617e64565b9150506154ee565b600073ffffffffffffffffffffffffffffffffffffffff168373ffffffffffffffffffffffffffffffffffffffff1614615b8457600061271060c88a6156e29190617220565b6156ec9190617291565b9050600081111561586a5780600e600082825461570991906172c2565b92505081905550600460009054906101000a900473ffffffffffffffffffffffffffffffffffffffff1673ffffffffffffffffffffffffffffffffffffffff166340c10f1985836040518363ffffffff1660e01b815260040161576d929190617885565b600060405180830381600087803b15801561578757600080fd5b505af115801561579b573d6000803e3d6000fd5b5050505080601860008673ffffffffffffffffffffffffffffffffffffffff1673ffffffffffffffffffffffffffffffffffffffff16815260200190815260200160002060008282546157ee91906172c2565b925050819055508973ffffffffffffffffffffffffffffffffffffffff168473ffffffffffffffffffffffffffffffffffffffff167ff3e533e84b42dfb4015d2211af267b5d34a1aa0f60c4da1a9dd25698150868d883866040516158549291906178ae565b60405180910390a3615869848b836003616340565b5b6000600260009054906101000a900473ffffffffffffffffffffffffffffffffffffffff1673ffffffffffffffffffffffffffffffffffffffff16634a9fefc7866040518263ffffffff1660e01b81526004016158c79190616878565b602060405180830381865afa1580156158e4573d6000803e3d6000fd5b505050506040513d601f19601f8201168201806040525081019061590891906178ec565b9050600073ffffffffffffffffffffffffffffffffffffffff168173ffffffffffffffffffffffffffffffffffffffff16141580156159e257506000600260009054906101000a900473ffffffffffffffffffffffffffffffffffffffff1673ffffffffffffffffffffffffffffffffffffffff166370a08231836040518263ffffffff1660e01b815260040161599f9190616878565b602060405180830381865afa1580156159bc573d6000803e3d6000fd5b505050506040513d601f19601f820116820180604052508101906159e09190617714565b115b15615b8157600061271060328c6159f99190617220565b615a039190617291565b90506000811115615b7f5780600e6000828254615a2091906172c2565b92505081905550600460009054906101000a900473ffffffffffffffffffffffffffffffffffffffff1673ffffffffffffffffffffffffffffffffffffffff166340c10f1983836040518363ffffffff1660e01b8152600401615a84929190617885565b600060405180830381600087803b158015615a9e57600080fd5b505af1158015615ab2573d6000803e3d6000fd5b5050505080601860008473ffffffffffffffffffffffffffffffffffffffff1673ffffffffffffffffffffffffffffffffffffffff1681526020019081526020016000206000828254615b0591906172c2565b925050819055508573ffffffffffffffffffffffffffffffffffffffff168273ffffffffffffffffffffffffffffffffffffffff167f6b34e5a4dcbc992c5815bf8d0f03397ec7ecc2d9e760776d9de0c5e1d391905683604051615b699190616688565b60405180910390a3615b7e828d836004616340565b5b505b50505b505050505050505b5050565b60018081905550565b600080662386f26fc1000090506000683635c9adc5dea00000905081851080615bc157508085115b15615bd857670de0b6b3a764000092505050615c9c565b81841080615be557508084115b15615bfc57670de0b6b3a764000092505050615c9c565b60008403615c1657670de0b6b3a764000092505050615c9c565b600084670de0b6b3a764000087615c2d9190617220565b615c379190617291565b90506000670de0b6b3a76400008283615c509190617220565b615c5a9190617291565b90506714d1120d7b160000811115615c78576714d1120d7b16000090505b67016345785d8a0000811015615c945767016345785d8a000090505b809450505050505b92915050565b60008060009054906101000a900473ffffffffffffffffffffffffffffffffffffffff169050816000806101000a81548173ffffffffffffffffffffffffffffffffffffffff021916908373ffffffffffffffffffffffffffffffffffffffff1602179055508173ffffffffffffffffffffffffffffffffffffffff168173ffffffffffffffffffffffffffffffffffffffff167f8be0079c531659141344cd1fd0a4f28419497f9722a3daafe3b4186f6b6457e060405160405180910390a35050565b600080600060148410615d83576000806000925092509250615f4d565b6000601a60008773ffffffffffffffffffffffffffffffffffffffff1673ffffffffffffffffffffffffffffffffffffffff168152602001908152602001600020805480602002602001604051908101604052809291908181526020018280548015615e4457602002820191906000526020600020905b8160009054906101000a900473ffffffffffffffffffffffffffffffffffffffff1673ffffffffffffffffffffffffffffffffffffffff1681526020019060010190808311615dfa575b505050505090508051935060005b8151811015615f4a576000828281518110615e7057615e6f617e35565b5b602002602001015190506000601760008373ffffffffffffffffffffffffffffffffffffffff1673ffffffffffffffffffffffffffffffffffffffff1681526020019081526020016000206000015490508086615ecd91906172c2565b95506000811115615ee7578480615ee390617e64565b9550505b6000806000615f028560018d615efd91906172c2565b615d66565b925092509250828a615f1491906172c2565b99508189615f2291906172c2565b98508088615f3091906172c2565b975050505050508080615f4290617e64565b915050615e52565b50505b9250925092565b600033905090565b600073ffffffffffffffffffffffffffffffffffffffff16600260009054906101000a900473ffffffffffffffffffffffffffffffffffffffff1673ffffffffffffffffffffffffffffffffffffffff16031561633b576000600260009054906101000a900473ffffffffffffffffffffffffffffffffffffffff1673ffffffffffffffffffffffffffffffffffffffff16634a9fefc7856040518263ffffffff1660e01b81526004016160109190616878565b602060405180830381865afa15801561602d573d6000803e3d6000fd5b505050506040513d601f19601f8201168201806040525081019061605191906178ec565b905060008080851480156160655750600084115b9050600080861180156160785750600085145b9050600086866160889190617ce1565b90505b600073ffffffffffffffffffffffffffffffffffffffff168573ffffffffffffffffffffffffffffffffffffffff16141580156160c85750601484105b15616335576000601c60008773ffffffffffffffffffffffffffffffffffffffff1673ffffffffffffffffffffffffffffffffffffffff1681526020019081526020016000209050831561615357600181600001600082825461612b91906172c2565b92505081905550600181600201600082825461614791906172c2565b92505081905550616201565b82156161885760008160020154111561618357600181600201600082825461617b91906171ec565b925050819055505b616200565b6000881480156161985750600087115b156161be5760018160020160008282546161b291906172c2565b925050819055506161ff565b6000881180156161ce5750600087145b156161fe576000816002015411156161fd5760018160020160008282546161f591906171ec565b925050819055505b5b5b5b5b600082131561622a578181600101600082825461621e91906172c2565b9250508190555061627a565b60008212156162795760008261623f90618212565b90508082600101541061626c578082600101600082825461626091906171ec565b92505081905550616277565b600082600101819055505b505b5b428160030181905550600260009054906101000a900473ffffffffffffffffffffffffffffffffffffffff1673ffffffffffffffffffffffffffffffffffffffff16634a9fefc7876040518263ffffffff1660e01b81526004016162de9190616878565b602060405180830381865afa1580156162fb573d6000803e3d6000fd5b505050506040513d601f19601f8201168201806040525081019061631f91906178ec565b9550848061632c90617e64565b9550505061608b565b50505050505b505050565b601960008573ffffffffffffffffffffffffffffffffffffffff1673ffffffffffffffffffffffffffffffffffffffff16815260200190815260200160002060405180608001604052804281526020018481526020018360ff1681526020018573ffffffffffffffffffffffffffffffffffffffff168152509080600181540180825580915050600190039060005260206000209060030201600090919091909150600082015181600001556020820151816001015560408201518160020160006101000a81548160ff021916908360ff16021790555060608201518160020160016101000a81548173ffffffffffffffffffffffffffffffffffffffff021916908373ffffffffffffffffffffffffffffffffffffffff160217905550505050505050565b601b60008373ffffffffffffffffffffffffffffffffffffffff1673ffffffffffffffffffffffffffffffffffffffff16815260200190815260200160002060008273ffffffffffffffffffffffffffffffffffffffff1673ffffffffffffffffffffffffffffffffffffffff16815260200190815260200160002060009054906101000a900460ff1661662a57601a60008373ffffffffffffffffffffffffffffffffffffffff1673ffffffffffffffffffffffffffffffffffffffff168152602001908152602001600020819080600181540180825580915050600190039060005260206000200160009091909190916101000a81548173ffffffffffffffffffffffffffffffffffffffff021916908373ffffffffffffffffffffffffffffffffffffffff1602179055506001601b60008473ffffffffffffffffffffffffffffffffffffffff1673ffffffffffffffffffffffffffffffffffffffff16815260200190815260200160002060008373ffffffffffffffffffffffffffffffffffffffff1673ffffffffffffffffffffffffffffffffffffffff16815260200190815260200160002060006101000a81548160ff0219169083151502179055505b5050565b60405180608001604052806000815260200160008152602001600060ff168152602001600073ffffffffffffffffffffffffffffffffffffffff1681525090565b6000819050919050565b6166828161666f565b82525050565b600060208201905061669d6000830184616679565b92915050565b600080fd5b600073ffffffffffffffffffffffffffffffffffffffff82169050919050565b60006166d3826166a8565b9050919050565b6166e3816166c8565b81146166ee57600080fd5b50565b600081359050616700816166da565b92915050565b60006020828403121561671c5761671b6166a3565b5b600061672a848285016166f1565b91505092915050565b7f4e487b7100000000000000000000000000000000000000000000000000000000600052602160045260246000fd5b6004811061677357616772616733565b5b50565b600081905061678482616762565b919050565b600061679482616776565b9050919050565b6167a481616789565b82525050565b600060a0820190506167bf600083018861679b565b6167cc6020830187616679565b6167d96040830186616679565b6167e66060830185616679565b6167f36080830184616679565b9695505050505050565b6168068161666f565b811461681157600080fd5b50565b600081359050616823816167fd565b92915050565b600080604083850312156168405761683f6166a3565b5b600061684e858286016166f1565b925050602061685f85828601616814565b9150509250929050565b616872816166c8565b82525050565b600060208201905061688d6000830184616869565b92915050565b60006080820190506168a86000830187616679565b6168b56020830186616679565b6168c26040830185616679565b6168cf6060830184616679565b95945050505050565b6000819050919050565b6168eb816168d8565b82525050565b600060208201905061690660008301846168e2565b92915050565b60008115159050919050565b6169218161690c565b82525050565b600060208201905061693c6000830184616918565b92915050565b600060c0820190506169576000830189616679565b6169646020830188616679565b6169716040830187616679565b61697e6060830186616679565b61698b6080830185616679565b61699860a0830184616679565b979650505050505050565b6169ac8161690c565b81146169b757600080fd5b50565b6000813590506169c9816169a3565b92915050565b6000602082840312156169e5576169e46166a3565b5b60006169f3848285016169ba565b91505092915050565b6000819050919050565b6000616a21616a1c616a17846166a8565b6169fc565b6166a8565b9050919050565b6000616a3382616a06565b9050919050565b6000616a4582616a28565b9050919050565b616a5581616a3a565b82525050565b6000602082019050616a706000830184616a4c565b92915050565b6000616a8182616a28565b9050919050565b616a9181616a76565b82525050565b6000602082019050616aac6000830184616a88565b92915050565b600080600060608486031215616acb57616aca6166a3565b5b6000616ad986828701616814565b9350506020616aea86828701616814565b9250506040616afb86828701616814565b9150509250925092565b6000616b1082616a28565b9050919050565b616b2081616b05565b82525050565b6000602082019050616b3b6000830184616b17565b92915050565b600060ff82169050919050565b616b5781616b41565b82525050565b6000608082019050616b726000830187616679565b616b7f6020830186616679565b616b8c6040830185616b4e565b616b996060830184616869565b95945050505050565b600060a082019050616bb76000830188616679565b616bc46020830187616679565b616bd16040830186616679565b616bde6060830185616679565b616beb6080830184616679565b9695505050505050565b6000606082019050616c0a600083018661679b565b616c176020830185616679565b616c246040830184616679565b949350505050565b600061010082019050616c42600083018b616679565b616c4f602083018a616679565b616c5c6040830189616679565b616c696060830188616679565b616c766080830187616679565b616c8360a0830186616679565b616c9060c0830185616679565b616c9d60e0830184616679565b9998505050505050505050565b6000616cb582616a28565b9050919050565b616cc581616caa565b82525050565b6000602082019050616ce06000830184616cbc565b92915050565b6000616cf182616a28565b9050919050565b616d0181616ce6565b82525050565b6000602082019050616d1c6000830184616cf8565b92915050565b600060208284031215616d3857616d376166a3565b5b6000616d4684828501616814565b91505092915050565b600081519050919050565b600082825260208201905092915050565b6000819050602082019050919050565b616d84816166c8565b82525050565b6000616d968383616d7b565b60208301905092915050565b6000602082019050919050565b6000616dba82616d4f565b616dc48185616d5a565b9350616dcf83616d6b565b8060005b83811015616e00578151616de78882616d8a565b9750616df283616da2565b925050600181019050616dd3565b5085935050505092915050565b600081519050919050565b600082825260208201905092915050565b6000819050602082019050919050565b616e428161666f565b82525050565b6000616e548383616e39565b60208301905092915050565b6000602082019050919050565b6000616e7882616e0d565b616e828185616e18565b9350616e8d83616e29565b8060005b83811015616ebe578151616ea58882616e48565b9750616eb083616e60565b925050600181019050616e91565b5085935050505092915050565b60006060820190508181036000830152616ee58186616daf565b90508181036020830152616ef98185616e6d565b90508181036040830152616f0d8184616e6d565b9050949350505050565b600060a082019050616f2c6000830188616679565b616f396020830187616679565b616f466040830186616679565b616f536060830185616679565b616f606080830184616918565b9695505050505050565b60008060408385031215616f8157616f806166a3565b5b6000616f8f85828601616814565b9250506020616fa085828601616814565b9150509250929050565b600080600060608486031215616fc357616fc26166a3565b5b6000616fd1868287016166f1565b9350506020616fe286828701616814565b9250506040616ff386828701616814565b9150509250925092565b600081519050919050565b600082825260208201905092915050565b6000819050602082019050919050565b61703281616b41565b82525050565b60808201600082015161704e6000850182616e39565b5060208201516170616020850182616e39565b5060408201516170746040850182617029565b5060608201516170876060850182616d7b565b50505050565b60006170998383617038565b60808301905092915050565b6000602082019050919050565b60006170bd82616ffd565b6170c78185617008565b93506170d283617019565b8060005b838110156171035781516170ea888261708d565b97506170f5836170a5565b9250506001810190506170d6565b5085935050505092915050565b6000604082019050818103600083015261712a81856170b2565b90506171396020830184616679565b9392505050565b600082825260208201905092915050565b7f496e76616c696420616464726573730000000000000000000000000000000000600082015250565b6000617187600f83617140565b915061719282617151565b602082019050919050565b600060208201905081810360008301526171b68161717a565b9050919050565b7f4e487b7100000000000000000000000000000000000000000000000000000000600052601160045260246000fd5b60006171f78261666f565b91506172028361666f565b925082820390508181111561721a576172196171bd565b5b92915050565b600061722b8261666f565b91506172368361666f565b92508282026172448161666f565b9150828204841483151761725b5761725a6171bd565b5b5092915050565b7f4e487b7100000000000000000000000000000000000000000000000000000000600052601260045260246000fd5b600061729c8261666f565b91506172a78361666f565b9250826172b7576172b6617262565b5b828204905092915050565b60006172cd8261666f565b91506172d88361666f565b92508282019050808211156172f0576172ef6171bd565b5b92915050565b7f416c726561647920696e2074686973206d6f6465000000000000000000000000600082015250565b600061732c601483617140565b9150617337826172f6565b602082019050919050565b6000602082019050818103600083015261735b8161731f565b9050919050565b7f4d75737420736574206f7261636c65206265666f72652064697361626c696e6760008201527f2074657374206d6f646500000000000000000000000000000000000000000000602082015250565b60006173be602a83617140565b91506173c982617362565b604082019050919050565b600060208201905081810360008301526173ed816173b1565b9050919050565b7f54657374206d6f6465207065726d616e656e746c792064697361626c65640000600082015250565b600061742a601e83617140565b9150617435826173f4565b602082019050919050565b600060208201905081810360008301526174598161741d565b9050919050565b7f496e76616c696420707269636573000000000000000000000000000000000000600082015250565b6000617496600e83617140565b91506174a182617460565b602082019050919050565b600060208201905081810360008301526174c581617489565b9050919050565b7f54657374206d6f64653a206f6e6c79206f776e65722063616e20757064617465600082015250565b6000617502602083617140565b915061750d826174cc565b602082019050919050565b60006020820190508181036000830152617531816174f5565b9050919050565b7f54657374206d6f64653a206d7573742077616974203120686f7572206265747760008201527f65656e2075706461746573000000000000000000000000000000000000000000602082015250565b6000617594602b83617140565b915061759f82617538565b604082019050919050565b600060208201905081810360008301526175c381617587565b9050919050565b7f54657374206d6f64653a207072696365206368616e676520657863656564732060008201527f353025206c696d69740000000000000000000000000000000000000000000000602082015250565b6000617626602983617140565b9150617631826175ca565b604082019050919050565b6000602082019050818103600083015261765581617619565b9050919050565b60006060820190506176716000830186616679565b61767e6020830185616679565b61768b6040830184616679565b949350505050565b7f4f7261636c65206e6f7420736574000000000000000000000000000000000000600082015250565b60006176c9600e83617140565b91506176d482617693565b602082019050919050565b600060208201905081810360008301526176f8816176bc565b9050919050565b60008151905061770e816167fd565b92915050565b60006020828403121561772a576177296166a3565b5b6000617738848285016176ff565b91505092915050565b7f4f7261636c652072657475726e656420696e76616c6964207072696365000000600082015250565b6000617777601d83617140565b915061778282617741565b602082019050919050565b600060208201905081810360008301526177a68161776a565b9050919050565b7f4e6f7468696e6720746f20686172766573740000000000000000000000000000600082015250565b60006177e3601283617140565b91506177ee826177ad565b602082019050919050565b60006020820190508181036000830152617812816177d6565b9050919050565b7f4d696e696e672063617020726561636865640000000000000000000000000000600082015250565b600061784f601283617140565b915061785a82617819565b602082019050919050565b6000602082019050818103600083015261787e81617842565b9050919050565b600060408201905061789a6000830185616869565b6178a76020830184616679565b9392505050565b60006040820190506178c36000830185616679565b6178d06020830184616679565b9392505050565b6000815190506178e6816166da565b92915050565b600060208284031215617902576179016166a3565b5b6000617910848285016178d7565b91505092915050565b7f4e6f7420626f6e64206f776e6572000000000000000000000000000000000000600082015250565b600061794f600e83617140565b915061795a82617919565b602082019050919050565b6000602082019050818103600083015261797e81617942565b9050919050565b7f4e6f2070656e64696e6720726577617264730000000000000000000000000000600082015250565b60006179bb601283617140565b91506179c682617985565b602082019050919050565b600060208201905081810360008301526179ea816179ae565b9050919050565b7f4d696e696e672063617020726561636865642c2063616e6e6f7420636f6d706f60008201527f756e640000000000000000000000000000000000000000000000000000000000602082015250565b6000617a4d602383617140565b9150617a58826179f1565b604082019050919050565b60006020820190508181036000830152617a7c81617a40565b9050919050565b7f4f7261636c65207072696365206973207a65726f000000000000000000000000600082015250565b6000617ab9601483617140565b9150617ac482617a83565b602082019050919050565b60006020820190508181036000830152617ae881617aac565b9050919050565b600081519050617afe816169a3565b92915050565b600060208284031215617b1a57617b196166a3565b5b6000617b2884828501617aef565b91505092915050565b7f4e6f7468696e6720766573746564000000000000000000000000000000000000600082015250565b6000617b67600e83617140565b9150617b7282617b31565b602082019050919050565b60006020820190508181036000830152617b9681617b5a565b9050919050565b7f56657374696e67206e6f74207374617274656400000000000000000000000000600082015250565b6000617bd3601383617140565b9150617bde82617b9d565b602082019050919050565b60006020820190508181036000830152617c0281617bc6565b9050919050565b7f56657374696e6720706572696f64206e6f7420636f6d706c6574656420796574600082015250565b6000617c3f602083617140565b9150617c4a82617c09565b602082019050919050565b60006020820190508181036000830152617c6e81617c32565b9050919050565b7f4e6f7468696e6720746f20636c61696d00000000000000000000000000000000600082015250565b6000617cab601083617140565b9150617cb682617c75565b602082019050919050565b60006020820190508181036000830152617cda81617c9e565b9050919050565b6000617cec826168d8565b9150617cf7836168d8565b9250828203905081811260008412168282136000851215161715617d1e57617d1d6171bd565b5b92915050565b6000617d2f826168d8565b9150617d3a836168d8565b9250828202617d48816168d8565b91507f80000000000000000000000000000000000000000000000000000000000000008414600084121615617d8057617d7f6171bd565b5b8282058414831517617d9557617d946171bd565b5b5092915050565b6000617da7826168d8565b9150617db2836168d8565b925082617dc257617dc1617262565b5b600160000383147f800000000000000000000000000000000000000000000000000000000000000083141615617dfb57617dfa6171bd565b5b828205905092915050565b7f4e487b7100000000000000000000000000000000000000000000000000000000600052604160045260246000fd5b7f4e487b7100000000000000000000000000000000000000000000000000000000600052603260045260246000fd5b6000617e6f8261666f565b91507fffffffffffffffffffffffffffffffffffffffffffffffffffffffffffffffff8203617ea157617ea06171bd565b5b600182019050919050565b7f416d6f756e74206d757374206265203e20300000000000000000000000000000600082015250565b6000617ee2601283617140565b9150617eed82617eac565b602082019050919050565b60006020820190508181036000830152617f1181617ed5565b9050919050565b7f496e73756666696369656e7420764956592062616c616e636500000000000000600082015250565b6000617f4e601983617140565b9150617f5982617f18565b602082019050919050565b60006020820190508181036000830152617f7d81617f41565b9050919050565b7f427265616b6572206e6f74206163746976650000000000000000000000000000600082015250565b6000617fba601283617140565b9150617fc582617f84565b602082019050919050565b60006020820190508181036000830152617fe981617fad565b9050919050565b7f436f6f6c646f776e206e6f7420636f6d706c6574650000000000000000000000600082015250565b6000618026601583617140565b915061803182617ff0565b602082019050919050565b6000602082019050818103600083015261805581618019565b9050919050565b6000602082019050618071600083018461679b565b92915050565b7f4e6f7468696e6720746f2063617368206f757400000000000000000000000000600082015250565b60006180ad601383617140565b91506180b882618077565b602082019050919050565b600060208201905081810360008301526180dc816180a0565b9050919050565b600080600080608085870312156180fd576180fc6166a3565b5b600061810b878288016176ff565b945050602061811c878288016176ff565b935050604061812d878288016176ff565b925050606061813e878288016176ff565b91505092959194509250565b6000819050919050565b600061816f61816a6181658461814a565b6169fc565b61666f565b9050919050565b61817f81618154565b82525050565b600060408201905061819a6000830185616679565b6181a76020830184618176565b9392505050565b6000819050919050565b60006181d36181ce6181c9846181ae565b6169fc565b61666f565b9050919050565b6181e3816181b8565b82525050565b60006040820190506181fe6000830185616679565b61820b60208301846181da565b9392505050565b600061821d826168d8565b91507f8000000000000000000000000000000000000000000000000000000000000000820361824f5761824e6171bd565b5b81600003905091905056fea26469706673582212208cc9e1f8807bd4b5e744016aa68ecff22f7be259763b0bb1b0cd6abc54e0047864736f6c63430008140033",
  "linkReferences": {},
  "deployedLinkReferences": {}
}