{
  "_format": "hh-sol-artifact-1",
  "contractName": "IvyCore",
  "sourceName": "contracts/IvyCore.sol",
  "abi": [
    {
      "inputs": [
        {
          "internalType": "address",
          "name": "_ivyToken",
          "type": "address"
        }
      ],
      "stateMutability": "nonpayable",
      "type": "constructor"
    },
    {
      "inputs": [
        {
          "internalType": "address",
          "name": "owner",
          "type": "address"
        }
      ],
      "name": "OwnableInvalidOwner",
      "type": "error"
    },
    {
      "inputs": [
        {
          "internalType": "address",
          "name": "account",
          "type": "address"
        }
      ],
      "name": "OwnableUnauthorizedAccount",
      "type": "error"
    },
    {
      "inputs": [],
      "name": "ReentrancyGuardReentrantCall",
      "type": "error"
    },
    {
      "anonymous": false,
      "inputs": [
        {
          "indexed": false,
          "internalType": "enum IvyCore.BreakerLevel",
          "name": "previousLevel",
          "type": "uint8"
        }
      ],
      "name": "CircuitBreakerReset",
      "type": "event"
    },
    {
      "anonymous": false,
      "inputs": [
        {
          "indexed": false,
          "internalType": "enum IvyCore.BreakerLevel",
          "name": "level",
          "type": "uint8"
        },
        {
          "indexed": false,
          "internalType": "uint256",
          "name": "activationTime",
          "type": "uint256"
        },
        {
          "indexed": false,
          "internalType": "uint256",
          "name": "activationPrice",
          "type": "uint256"
        }
      ],
      "name": "CircuitBreakerTriggered",
      "type": "event"
    },
    {
      "anonymous": false,
      "inputs": [
        {
          "indexed": false,
          "internalType": "uint256",
          "name": "newEmissionFactor",
          "type": "uint256"
        },
        {
          "indexed": false,
          "internalType": "uint256",
          "name": "totalMinted",
          "type": "uint256"
        }
      ],
      "name": "HalvingOccurred",
      "type": "event"
    },
    {
      "anonymous": false,
      "inputs": [
        {
          "indexed": true,
          "internalType": "address",
          "name": "user",
          "type": "address"
        },
        {
          "indexed": false,
          "internalType": "uint256",
          "name": "received",
          "type": "uint256"
        },
        {
          "indexed": false,
          "internalType": "uint256",
          "name": "burned",
          "type": "uint256"
        }
      ],
      "name": "InstantCashOut",
      "type": "event"
    },
    {
      "anonymous": false,
      "inputs": [
        {
          "indexed": true,
          "internalType": "address",
          "name": "previousOwner",
          "type": "address"
        },
        {
          "indexed": true,
          "internalType": "address",
          "name": "newOwner",
          "type": "address"
        }
      ],
      "name": "OwnershipTransferred",
      "type": "event"
    },
    {
      "anonymous": false,
      "inputs": [
        {
          "indexed": true,
          "internalType": "address",
          "name": "receiver",
          "type": "address"
        },
        {
          "indexed": true,
          "internalType": "address",
          "name": "capturer",
          "type": "address"
        },
        {
          "indexed": false,
          "internalType": "uint256",
          "name": "amount",
          "type": "uint256"
        }
      ],
      "name": "PeerBonusPaid",
      "type": "event"
    },
    {
      "anonymous": false,
      "inputs": [
        {
          "indexed": false,
          "internalType": "uint256",
          "name": "accIvyPerShare",
          "type": "uint256"
        },
        {
          "indexed": false,
          "internalType": "uint256",
          "name": "lastRewardTime",
          "type": "uint256"
        },
        {
          "indexed": false,
          "internalType": "uint256",
          "name": "totalPoolBondPower",
          "type": "uint256"
        }
      ],
      "name": "PoolUpdated",
      "type": "event"
    },
    {
      "anonymous": false,
      "inputs": [
        {
          "indexed": true,
          "internalType": "address",
          "name": "oracle",
          "type": "address"
        }
      ],
      "name": "PriceOracleSet",
      "type": "event"
    },
    {
      "anonymous": false,
      "inputs": [
        {
          "indexed": false,
          "internalType": "uint256",
          "name": "currentPrice",
          "type": "uint256"
        },
        {
          "indexed": false,
          "internalType": "uint256",
          "name": "ma30Price",
          "type": "uint256"
        },
        {
          "indexed": false,
          "internalType": "uint256",
          "name": "price1hAgo",
          "type": "uint256"
        }
      ],
      "name": "PriceUpdated",
      "type": "event"
    },
    {
      "anonymous": false,
      "inputs": [
        {
          "indexed": true,
          "internalType": "address",
          "name": "referrer",
          "type": "address"
        },
        {
          "indexed": true,
          "internalType": "address",
          "name": "from",
          "type": "address"
        },
        {
          "indexed": false,
          "internalType": "uint256",
          "name": "amount",
          "type": "uint256"
        },
        {
          "indexed": false,
          "internalType": "uint256",
          "name": "level",
          "type": "uint256"
        }
      ],
      "name": "ReferralRewardPaid",
      "type": "event"
    },
    {
      "anonymous": false,
      "inputs": [
        {
          "indexed": true,
          "internalType": "address",
          "name": "user",
          "type": "address"
        },
        {
          "indexed": false,
          "internalType": "uint256",
          "name": "amount",
          "type": "uint256"
        }
      ],
      "name": "RewardsHarvested",
      "type": "event"
    },
    {
      "anonymous": false,
      "inputs": [
        {
          "indexed": true,
          "internalType": "address",
          "name": "capturer",
          "type": "address"
        },
        {
          "indexed": true,
          "internalType": "address",
          "name": "blockedUpline",
          "type": "address"
        },
        {
          "indexed": false,
          "internalType": "uint256",
          "name": "amount",
          "type": "uint256"
        },
        {
          "indexed": false,
          "internalType": "uint256",
          "name": "depth",
          "type": "uint256"
        }
      ],
      "name": "TeamBonusCaptured",
      "type": "event"
    },
    {
      "anonymous": false,
      "inputs": [
        {
          "indexed": true,
          "internalType": "address",
          "name": "user",
          "type": "address"
        },
        {
          "indexed": false,
          "internalType": "uint256",
          "name": "bondPower",
          "type": "uint256"
        },
        {
          "indexed": false,
          "internalType": "uint256",
          "name": "rewardDebt",
          "type": "uint256"
        }
      ],
      "name": "UserSynced",
      "type": "event"
    },
    {
      "anonymous": false,
      "inputs": [
        {
          "indexed": true,
          "internalType": "address",
          "name": "user",
          "type": "address"
        },
        {
          "indexed": true,
          "internalType": "uint256",
          "name": "tokenId",
          "type": "uint256"
        },
        {
          "indexed": false,
          "internalType": "uint256",
          "name": "pendingIvy",
          "type": "uint256"
        },
        {
          "indexed": false,
          "internalType": "uint256",
          "name": "bonusPower",
          "type": "uint256"
        }
      ],
      "name": "VestedCompounded",
      "type": "event"
    },
    {
      "anonymous": false,
      "inputs": [
        {
          "indexed": true,
          "internalType": "address",
          "name": "user",
          "type": "address"
        },
        {
          "indexed": false,
          "internalType": "uint256",
          "name": "amount",
          "type": "uint256"
        }
      ],
      "name": "VestingClaimed",
      "type": "event"
    },
    {
      "anonymous": false,
      "inputs": [
        {
          "indexed": true,
          "internalType": "address",
          "name": "user",
          "type": "address"
        },
        {
          "indexed": false,
          "internalType": "uint256",
          "name": "amount",
          "type": "uint256"
        },
        {
          "indexed": false,
          "internalType": "uint256",
          "name": "startTime",
          "type": "uint256"
        }
      ],
      "name": "VestingStarted",
      "type": "event"
    },
    {
      "inputs": [],
      "name": "ACC_IVY_PRECISION",
      "outputs": [
        {
          "internalType": "uint256",
          "name": "",
          "type": "uint256"
        }
      ],
      "stateMutability": "view",
      "type": "function"
    },
    {
      "inputs": [],
      "name": "ALPHA_L1",
      "outputs": [
        {
          "internalType": "uint256",
          "name": "",
          "type": "uint256"
        }
      ],
      "stateMutability": "view",
      "type": "function"
    },
    {
      "inputs": [],
      "name": "ALPHA_L2",
      "outputs": [
        {
          "internalType": "uint256",
          "name": "",
          "type": "uint256"
        }
      ],
      "stateMutability": "view",
      "type": "function"
    },
    {
      "inputs": [],
      "name": "ALPHA_L3",
      "outputs": [
        {
          "internalType": "uint256",
          "name": "",
          "type": "uint256"
        }
      ],
      "stateMutability": "view",
      "type": "function"
    },
    {
      "inputs": [],
      "name": "BASE_DAILY_EMISSION",
      "outputs": [
        {
          "internalType": "uint256",
          "name": "",
          "type": "uint256"
        }
      ],
      "stateMutability": "view",
      "type": "function"
    },
    {
      "inputs": [],
      "name": "BASIS_POINTS",
      "outputs": [
        {
          "internalType": "uint256",
          "name": "",
          "type": "uint256"
        }
      ],
      "stateMutability": "view",
      "type": "function"
    },
    {
      "inputs": [],
      "name": "COOLDOWN_L1",
      "outputs": [
        {
          "internalType": "uint256",
          "name": "",
          "type": "uint256"
        }
      ],
      "stateMutability": "view",
      "type": "function"
    },
    {
      "inputs": [],
      "name": "COOLDOWN_L2",
      "outputs": [
        {
          "internalType": "uint256",
          "name": "",
          "type": "uint256"
        }
      ],
      "stateMutability": "view",
      "type": "function"
    },
    {
      "inputs": [],
      "name": "COOLDOWN_L3",
      "outputs": [
        {
          "internalType": "uint256",
          "name": "",
          "type": "uint256"
        }
      ],
      "stateMutability": "view",
      "type": "function"
    },
    {
      "inputs": [],
      "name": "DROP_L1",
      "outputs": [
        {
          "internalType": "int256",
          "name": "",
          "type": "int256"
        }
      ],
      "stateMutability": "view",
      "type": "function"
    },
    {
      "inputs": [],
      "name": "DROP_L2",
      "outputs": [
        {
          "internalType": "int256",
          "name": "",
          "type": "int256"
        }
      ],
      "stateMutability": "view",
      "type": "function"
    },
    {
      "inputs": [],
      "name": "DROP_L3",
      "outputs": [
        {
          "internalType": "int256",
          "name": "",
          "type": "int256"
        }
      ],
      "stateMutability": "view",
      "type": "function"
    },
    {
      "inputs": [],
      "name": "EMISSION_PER_SECOND",
      "outputs": [
        {
          "internalType": "uint256",
          "name": "",
          "type": "uint256"
        }
      ],
      "stateMutability": "view",
      "type": "function"
    },
    {
      "inputs": [],
      "name": "HALVING_DECAY",
      "outputs": [
        {
          "internalType": "uint256",
          "name": "",
          "type": "uint256"
        }
      ],
      "stateMutability": "view",
      "type": "function"
    },
    {
      "inputs": [],
      "name": "HALVING_THRESHOLD",
      "outputs": [
        {
          "internalType": "uint256",
          "name": "",
          "type": "uint256"
        }
      ],
      "stateMutability": "view",
      "type": "function"
    },
    {
      "inputs": [],
      "name": "HARD_CAP",
      "outputs": [
        {
          "internalType": "uint256",
          "name": "",
          "type": "uint256"
        }
      ],
      "stateMutability": "view",
      "type": "function"
    },
    {
      "inputs": [],
      "name": "INFINITE_RATE",
      "outputs": [
        {
          "internalType": "uint256",
          "name": "",
          "type": "uint256"
        }
      ],
      "stateMutability": "view",
      "type": "function"
    },
    {
      "inputs": [],
      "name": "INSTANT_CASH_PENALTY",
      "outputs": [
        {
          "internalType": "uint256",
          "name": "",
          "type": "uint256"
        }
      ],
      "stateMutability": "view",
      "type": "function"
    },
    {
      "inputs": [],
      "name": "L1_RATE",
      "outputs": [
        {
          "internalType": "uint256",
          "name": "",
          "type": "uint256"
        }
      ],
      "stateMutability": "view",
      "type": "function"
    },
    {
      "inputs": [],
      "name": "L2_RATE",
      "outputs": [
        {
          "internalType": "uint256",
          "name": "",
          "type": "uint256"
        }
      ],
      "stateMutability": "view",
      "type": "function"
    },
    {
      "inputs": [],
      "name": "MAX_REFERRAL_DEPTH",
      "outputs": [
        {
          "internalType": "uint256",
          "name": "",
          "type": "uint256"
        }
      ],
      "stateMutability": "view",
      "type": "function"
    },
    {
      "inputs": [],
      "name": "MINING_CAP",
      "outputs": [
        {
          "internalType": "uint256",
          "name": "",
          "type": "uint256"
        }
      ],
      "stateMutability": "view",
      "type": "function"
    },
    {
      "inputs": [],
      "name": "PEER_BONUS_RATE",
      "outputs": [
        {
          "internalType": "uint256",
          "name": "",
          "type": "uint256"
        }
      ],
      "stateMutability": "view",
      "type": "function"
    },
    {
      "inputs": [],
      "name": "PID_CAP",
      "outputs": [
        {
          "internalType": "uint256",
          "name": "",
          "type": "uint256"
        }
      ],
      "stateMutability": "view",
      "type": "function"
    },
    {
      "inputs": [],
      "name": "PID_FLOOR",
      "outputs": [
        {
          "internalType": "uint256",
          "name": "",
          "type": "uint256"
        }
      ],
      "stateMutability": "view",
      "type": "function"
    },
    {
      "inputs": [],
      "name": "PID_K",
      "outputs": [
        {
          "internalType": "uint256",
          "name": "",
          "type": "uint256"
        }
      ],
      "stateMutability": "view",
      "type": "function"
    },
    {
      "inputs": [],
      "name": "VESTING_PERIOD",
      "outputs": [
        {
          "internalType": "uint256",
          "name": "",
          "type": "uint256"
        }
      ],
      "stateMutability": "view",
      "type": "function"
    },
    {
      "inputs": [],
      "name": "accIvyPerShare",
      "outputs": [
        {
          "internalType": "uint256",
          "name": "",
          "type": "uint256"
        }
      ],
      "stateMutability": "view",
      "type": "function"
    },
    {
      "inputs": [],
      "name": "breakerState",
      "outputs": [
        {
          "internalType": "enum IvyCore.BreakerLevel",
          "name": "currentLevel",
          "type": "uint8"
        },
        {
          "internalType": "uint256",
          "name": "activationTime",
          "type": "uint256"
        },
        {
          "internalType": "uint256",
          "name": "activationPrice",
          "type": "uint256"
        }
      ],
      "stateMutability": "view",
      "type": "function"
    },
    {
      "inputs": [],
      "name": "checkCircuitBreaker",
      "outputs": [],
      "stateMutability": "nonpayable",
      "type": "function"
    },
    {
      "inputs": [],
      "name": "claimVested",
      "outputs": [],
      "stateMutability": "nonpayable",
      "type": "function"
    },
    {
      "inputs": [
        {
          "internalType": "uint256",
          "name": "tokenId",
          "type": "uint256"
        }
      ],
      "name": "compoundVested",
      "outputs": [],
      "stateMutability": "nonpayable",
      "type": "function"
    },
    {
      "inputs": [],
      "name": "currentDailyEmission",
      "outputs": [
        {
          "internalType": "uint256",
          "name": "",
          "type": "uint256"
        }
      ],
      "stateMutability": "view",
      "type": "function"
    },
    {
      "inputs": [],
      "name": "currentPrice",
      "outputs": [
        {
          "internalType": "uint256",
          "name": "",
          "type": "uint256"
        }
      ],
      "stateMutability": "view",
      "type": "function"
    },
    {
      "inputs": [],
      "name": "dividendPool",
      "outputs": [
        {
          "internalType": "contract IDividendPool",
          "name": "",
          "type": "address"
        }
      ],
      "stateMutability": "view",
      "type": "function"
    },
    {
      "inputs": [],
      "name": "emissionFactor",
      "outputs": [
        {
          "internalType": "uint256",
          "name": "",
          "type": "uint256"
        }
      ],
      "stateMutability": "view",
      "type": "function"
    },
    {
      "inputs": [],
      "name": "genesisNode",
      "outputs": [
        {
          "internalType": "contract IGenesisNode",
          "name": "",
          "type": "address"
        }
      ],
      "stateMutability": "view",
      "type": "function"
    },
    {
      "inputs": [],
      "name": "getBreakerStatus",
      "outputs": [
        {
          "internalType": "enum IvyCore.BreakerLevel",
          "name": "level",
          "type": "uint8"
        },
        {
          "internalType": "uint256",
          "name": "activationTime",
          "type": "uint256"
        },
        {
          "internalType": "uint256",
          "name": "activationPrice",
          "type": "uint256"
        },
        {
          "internalType": "uint256",
          "name": "timeRemaining",
          "type": "uint256"
        },
        {
          "internalType": "uint256",
          "name": "forcedAlpha",
          "type": "uint256"
        }
      ],
      "stateMutability": "view",
      "type": "function"
    },
    {
      "inputs": [],
      "name": "getFinalMultiplier",
      "outputs": [
        {
          "internalType": "uint256",
          "name": "",
          "type": "uint256"
        }
      ],
      "stateMutability": "view",
      "type": "function"
    },
    {
      "inputs": [],
      "name": "getHalvingInfo",
      "outputs": [
        {
          "internalType": "uint256",
          "name": "_halvingCount",
          "type": "uint256"
        },
        {
          "internalType": "uint256",
          "name": "_emissionFactor",
          "type": "uint256"
        },
        {
          "internalType": "uint256",
          "name": "_nextHalvingAt",
          "type": "uint256"
        },
        {
          "internalType": "uint256",
          "name": "_progressToNextHalving",
          "type": "uint256"
        }
      ],
      "stateMutability": "view",
      "type": "function"
    },
    {
      "inputs": [],
      "name": "getPIDAlpha",
      "outputs": [
        {
          "internalType": "uint256",
          "name": "",
          "type": "uint256"
        }
      ],
      "stateMutability": "view",
      "type": "function"
    },
    {
      "inputs": [],
      "name": "getProtocolStats",
      "outputs": [
        {
          "internalType": "uint256",
          "name": "_totalMinted",
          "type": "uint256"
        },
        {
          "internalType": "uint256",
          "name": "_miningCap",
          "type": "uint256"
        },
        {
          "internalType": "uint256",
          "name": "_emissionFactor",
          "type": "uint256"
        },
        {
          "internalType": "uint256",
          "name": "_finalMultiplier",
          "type": "uint256"
        },
        {
          "internalType": "uint256",
          "name": "_totalPoolBondPower",
          "type": "uint256"
        },
        {
          "internalType": "uint256",
          "name": "_emissionPerSecond",
          "type": "uint256"
        },
        {
          "internalType": "uint256",
          "name": "_currentDailyEmission",
          "type": "uint256"
        },
        {
          "internalType": "uint256",
          "name": "_halvingCount",
          "type": "uint256"
        }
      ],
      "stateMutability": "view",
      "type": "function"
    },
    {
      "inputs": [
        {
          "internalType": "address",
          "name": "user",
          "type": "address"
        }
      ],
      "name": "getUserMiningStats",
      "outputs": [
        {
          "internalType": "uint256",
          "name": "bondPower",
          "type": "uint256"
        },
        {
          "internalType": "uint256",
          "name": "pendingRewards",
          "type": "uint256"
        },
        {
          "internalType": "uint256",
          "name": "totalVested",
          "type": "uint256"
        },
        {
          "internalType": "uint256",
          "name": "totalClaimed",
          "type": "uint256"
        },
        {
          "internalType": "uint256",
          "name": "claimableNow",
          "type": "uint256"
        }
      ],
      "stateMutability": "view",
      "type": "function"
    },
    {
      "inputs": [
        {
          "internalType": "address",
          "name": "user",
          "type": "address"
        }
      ],
      "name": "getVestingInfo",
      "outputs": [
        {
          "internalType": "uint256",
          "name": "totalVested",
          "type": "uint256"
        },
        {
          "internalType": "uint256",
          "name": "totalClaimed",
          "type": "uint256"
        },
        {
          "internalType": "uint256",
          "name": "vestingStartTime",
          "type": "uint256"
        },
        {
          "internalType": "uint256",
          "name": "claimableNow",
          "type": "uint256"
        },
        {
          "internalType": "uint256",
          "name": "remainingLocked",
          "type": "uint256"
        },
        {
          "internalType": "uint256",
          "name": "vestingProgress",
          "type": "uint256"
        }
      ],
      "stateMutability": "view",
      "type": "function"
    },
    {
      "inputs": [],
      "name": "halvingCount",
      "outputs": [
        {
          "internalType": "uint256",
          "name": "",
          "type": "uint256"
        }
      ],
      "stateMutability": "view",
      "type": "function"
    },
    {
      "inputs": [],
      "name": "harvest",
      "outputs": [],
      "stateMutability": "nonpayable",
      "type": "function"
    },
    {
      "inputs": [],
      "name": "instantCashOut",
      "outputs": [],
      "stateMutability": "nonpayable",
      "type": "function"
    },
    {
      "inputs": [],
      "name": "ivyBond",
      "outputs": [
        {
          "internalType": "contract IIvyBond",
          "name": "",
          "type": "address"
        }
      ],
      "stateMutability": "view",
      "type": "function"
    },
    {
      "inputs": [],
      "name": "ivyToken",
      "outputs": [
        {
          "internalType": "contract IvyToken",
          "name": "",
          "type": "address"
        }
      ],
      "stateMutability": "view",
      "type": "function"
    },
    {
      "inputs": [],
      "name": "lastHalvingMinted",
      "outputs": [
        {
          "internalType": "uint256",
          "name": "",
          "type": "uint256"
        }
      ],
      "stateMutability": "view",
      "type": "function"
    },
    {
      "inputs": [],
      "name": "lastRewardTime",
      "outputs": [
        {
          "internalType": "uint256",
          "name": "",
          "type": "uint256"
        }
      ],
      "stateMutability": "view",
      "type": "function"
    },
    {
      "inputs": [],
      "name": "ma30Price",
      "outputs": [
        {
          "internalType": "uint256",
          "name": "",
          "type": "uint256"
        }
      ],
      "stateMutability": "view",
      "type": "function"
    },
    {
      "inputs": [],
      "name": "oracle",
      "outputs": [
        {
          "internalType": "contract IPriceOracle",
          "name": "",
          "type": "address"
        }
      ],
      "stateMutability": "view",
      "type": "function"
    },
    {
      "inputs": [],
      "name": "owner",
      "outputs": [
        {
          "internalType": "address",
          "name": "",
          "type": "address"
        }
      ],
      "stateMutability": "view",
      "type": "function"
    },
    {
      "inputs": [
        {
          "internalType": "address",
          "name": "user",
          "type": "address"
        }
      ],
      "name": "pendingIvy",
      "outputs": [
        {
          "internalType": "uint256",
          "name": "",
          "type": "uint256"
        }
      ],
      "stateMutability": "view",
      "type": "function"
    },
    {
      "inputs": [],
      "name": "price1hAgo",
      "outputs": [
        {
          "internalType": "uint256",
          "name": "",
          "type": "uint256"
        }
      ],
      "stateMutability": "view",
      "type": "function"
    },
    {
      "inputs": [
        {
          "internalType": "address",
          "name": "",
          "type": "address"
        }
      ],
      "name": "referralRewardsEarned",
      "outputs": [
        {
          "internalType": "uint256",
          "name": "",
          "type": "uint256"
        }
      ],
      "stateMutability": "view",
      "type": "function"
    },
    {
      "inputs": [],
      "name": "renounceOwnership",
      "outputs": [],
      "stateMutability": "nonpayable",
      "type": "function"
    },
    {
      "inputs": [],
      "name": "resetCircuitBreaker",
      "outputs": [],
      "stateMutability": "nonpayable",
      "type": "function"
    },
    {
      "inputs": [
        {
          "internalType": "address",
          "name": "_dividendPool",
          "type": "address"
        }
      ],
      "name": "setDividendPool",
      "outputs": [],
      "stateMutability": "nonpayable",
      "type": "function"
    },
    {
      "inputs": [
        {
          "internalType": "address",
          "name": "_genesisNode",
          "type": "address"
        }
      ],
      "name": "setGenesisNode",
      "outputs": [],
      "stateMutability": "nonpayable",
      "type": "function"
    },
    {
      "inputs": [
        {
          "internalType": "address",
          "name": "_ivyBond",
          "type": "address"
        }
      ],
      "name": "setIvyBond",
      "outputs": [],
      "stateMutability": "nonpayable",
      "type": "function"
    },
    {
      "inputs": [
        {
          "internalType": "address",
          "name": "_oracle",
          "type": "address"
        }
      ],
      "name": "setOracle",
      "outputs": [],
      "stateMutability": "nonpayable",
      "type": "function"
    },
    {
      "inputs": [
        {
          "internalType": "address",
          "name": "user",
          "type": "address"
        }
      ],
      "name": "syncUser",
      "outputs": [],
      "stateMutability": "nonpayable",
      "type": "function"
    },
    {
      "inputs": [],
      "name": "totalMinted",
      "outputs": [
        {
          "internalType": "uint256",
          "name": "",
          "type": "uint256"
        }
      ],
      "stateMutability": "view",
      "type": "function"
    },
    {
      "inputs": [],
      "name": "totalPoolBondPower",
      "outputs": [
        {
          "internalType": "uint256",
          "name": "",
          "type": "uint256"
        }
      ],
      "stateMutability": "view",
      "type": "function"
    },
    {
      "inputs": [
        {
          "internalType": "address",
          "name": "newOwner",
          "type": "address"
        }
      ],
      "name": "transferOwnership",
      "outputs": [],
      "stateMutability": "nonpayable",
      "type": "function"
    },
    {
      "inputs": [],
      "name": "updatePool",
      "outputs": [],
      "stateMutability": "nonpayable",
      "type": "function"
    },
    {
      "inputs": [
        {
          "internalType": "uint256",
          "name": "_currentPrice",
          "type": "uint256"
        },
        {
          "internalType": "uint256",
          "name": "_ma30Price",
          "type": "uint256"
        },
        {
          "internalType": "uint256",
          "name": "_price1hAgo",
          "type": "uint256"
        }
      ],
      "name": "updatePrices",
      "outputs": [],
      "stateMutability": "nonpayable",
      "type": "function"
    },
    {
      "inputs": [
        {
          "internalType": "address",
          "name": "",
          "type": "address"
        }
      ],
      "name": "userInfo",
      "outputs": [
        {
          "internalType": "uint256",
          "name": "bondPower",
          "type": "uint256"
        },
        {
          "internalType": "uint256",
          "name": "rewardDebt",
          "type": "uint256"
        },
        {
          "internalType": "uint256",
          "name": "pendingVested",
          "type": "uint256"
        },
        {
          "internalType": "uint256",
          "name": "vestingStartTime",
          "type": "uint256"
        },
        {
          "internalType": "uint256",
          "name": "totalVested",
          "type": "uint256"
        },
        {
          "internalType": "uint256",
          "name": "totalClaimed",
          "type": "uint256"
        }
      ],
      "stateMutability": "view",
      "type": "function"
    }
  ],
  "bytecode": "0x6080604052670de0b6b3a7640000600d55670de0b6b3a7640000601155670de0b6b3a7640000601255670de0b6b3a76400006013553480156200004157600080fd5b506040516200532938038062005329833981810160405281019062000067919062000273565b33600073ffffffffffffffffffffffffffffffffffffffff168173ffffffffffffffffffffffffffffffffffffffff1603620000dd5760006040517f1e4fbdf7000000000000000000000000000000000000000000000000000000008152600401620000d49190620002b6565b60405180910390fd5b620000ee816200014560201b60201c565b506001808190555080600460006101000a81548173ffffffffffffffffffffffffffffffffffffffff021916908373ffffffffffffffffffffffffffffffffffffffff16021790555042600b8190555050620002d3565b60008060009054906101000a900473ffffffffffffffffffffffffffffffffffffffff169050816000806101000a81548173ffffffffffffffffffffffffffffffffffffffff021916908373ffffffffffffffffffffffffffffffffffffffff1602179055508173ffffffffffffffffffffffffffffffffffffffff168173ffffffffffffffffffffffffffffffffffffffff167f8be0079c531659141344cd1fd0a4f28419497f9722a3daafe3b4186f6b6457e060405160405180910390a35050565b600080fd5b600073ffffffffffffffffffffffffffffffffffffffff82169050919050565b60006200023b826200020e565b9050919050565b6200024d816200022e565b81146200025957600080fd5b50565b6000815190506200026d8162000242565b92915050565b6000602082840312156200028c576200028b62000209565b5b60006200029c848285016200025c565b91505092915050565b620002b0816200022e565b82525050565b6000602082019050620002cd6000830184620002a5565b92915050565b61504680620002e36000396000f3fe608060405234801561001057600080fd5b50600436106104125760003560e01c8063983d896e11610220578063d2522baa11610130578063e88067e8116100b8578063f2fde38b11610087578063f2fde38b14610b7c578063f706555b14610b98578063f864233114610bb6578063fb897ce414610bd4578063fc84d91314610c0957610412565b8063e88067e814610b1a578063e979ca4a14610b36578063eacf59c814610b40578063eef1be2c14610b5e57610412565b8063e0c9bc62116100ff578063e0c9bc6214610a86578063e1f1c4a714610aa4578063e3161ddd14610ac2578063e4147ca214610acc578063e4941c3914610aea57610412565b8063d2522baa14610a36578063da6510b414610a40578063dcebf68114610a5e578063de5f8d9314610a7c57610412565b8063a29a7ab0116101b3578063b3def2f511610182578063b3def2f5146109b4578063cda80bfa146109d2578063ce28c1bf146109f0578063d01c44cd14610a0e578063d2121b4e14610a1857610412565b8063a29a7ab01461092e578063a7bd3e9d1461095e578063a95d5a601461097a578063af77063d1461099857610412565b80639d1b464a116101ef5780639d1b464a146108b65780639f55d64c146108d4578063a2309ff8146108f2578063a28aee151461091057610412565b8063983d896e1461083e5780639b565faa1461085c5780639c41ee671461087a5780639d14b2a21461089857610412565b80633ed620a411610326578063771aceef116102ae5780638da5cb5b1161027d5780638da5cb5b146107aa5780638e8b6c88146107c85780639231cf74146107e4578063934b7c5414610802578063945c3ebd1461082057610412565b8063771aceef1461072d5780637adbf973146107525780637dc0d1d01461076e57806389e59ea01461078c57610412565b806352aa8a5e116102f557806352aa8a5e146106935780635e147f90146106b1578063715018a6146106cf57806374c7773e146106d9578063763f62061461070d57610412565b80633ed620a414610631578063458f8f941461064d5780634641257d1461066b5780634897fffb1461067557610412565b80631959a002116103a95780632b5615d2116103785780632b5615d21461059b57806330d172d5146105b957806336be3538146105d75780633a03171c146105f55780633eceb63e1461061357610412565b80631959a0021461050c57806321cccba214610541578063277c19b01461055f578063291465551461057d57610412565b8063091075a9116103e5578063091075a9146104915780630c2330a5146104af57806310d60dc4146104cd578063123d1179146104ee57610412565b80630197d97214610417578063033d30fe1461043557806303e45a4b146104515780630420bace14610473575b600080fd5b61041f610c27565b60405161042c9190613ff1565b60405180910390f35b61044f600480360381019061044a919061406f565b610c2e565b005b610459610ce9565b60405161046a959493929190614113565b60405180910390f35b61047b610e36565b6040516104889190613ff1565b60405180910390f35b610499610e42565b6040516104a69190613ff1565b60405180910390f35b6104b7610e92565b6040516104c49190613ff1565b60405180910390f35b6104d5610e98565b6040516104e59493929190614166565b60405180910390f35b6104f6610f26565b60405161050391906141c4565b60405180910390f35b6105266004803603810190610521919061406f565b610f4a565b604051610538969594939291906141df565b60405180910390f35b610549610f86565b6040516105569190613ff1565b60405180910390f35b610567610f92565b6040516105749190613ff1565b60405180910390f35b610585610f97565b604051610592919061429f565b60405180910390f35b6105a3610fbd565b6040516105b09190613ff1565b60405180910390f35b6105c1610fc9565b6040516105ce91906142db565b60405180910390f35b6105df610fef565b6040516105ec9190613ff1565b60405180910390f35b6105fd610ff5565b60405161060a9190613ff1565b60405180910390f35b61061b611004565b6040516106289190613ff1565b60405180910390f35b61064b60048036038101906106469190614322565b61100a565b005b6106556110c2565b6040516106629190613ff1565b60405180910390f35b6106736110cb565b005b61067d611422565b60405161068a9190614396565b60405180910390f35b61069b611448565b6040516106a89190613ff1565b60405180910390f35b6106b961145d565b6040516106c691906141c4565b60405180910390f35b6106d7611481565b005b6106f360048036038101906106ee919061406f565b611495565b6040516107049594939291906143b1565b60405180910390f35b61071561159b565b60405161072493929190614404565b60405180910390f35b6107356115c0565b60405161074998979695949392919061443b565b60405180910390f35b61076c6004803603810190610767919061406f565b61165c565b005b61077661175a565b60405161078391906144da565b60405180910390f35b610794611780565b6040516107a19190613ff1565b60405180910390f35b6107b2611785565b6040516107bf9190614504565b60405180910390f35b6107e260048036038101906107dd919061406f565b6117ae565b005b6107ec6117ba565b6040516107f99190613ff1565b60405180910390f35b61080a6117c0565b6040516108179190613ff1565b60405180910390f35b6108286117c6565b6040516108359190613ff1565b60405180910390f35b6108466117d4565b6040516108539190613ff1565b60405180910390f35b6108646117d9565b6040516108719190614540565b60405180910390f35b6108826117ff565b60405161088f9190613ff1565b60405180910390f35b6108a0611804565b6040516108ad9190613ff1565b60405180910390f35b6108be61180a565b6040516108cb9190613ff1565b60405180910390f35b6108dc611810565b6040516108e99190613ff1565b60405180910390f35b6108fa61181f565b6040516109079190613ff1565b60405180910390f35b610918611825565b6040516109259190613ff1565b60405180910390f35b6109486004803603810190610943919061406f565b611841565b6040516109559190613ff1565b60405180910390f35b6109786004803603810190610973919061406f565b611859565b005b610982611914565b60405161098f9190613ff1565b60405180910390f35b6109b260048036038101906109ad919061455b565b611920565b005b6109bc611d72565b6040516109c99190613ff1565b60405180910390f35b6109da611d78565b6040516109e79190613ff1565b60405180910390f35b6109f8611d83565b604051610a059190613ff1565b60405180910390f35b610a16611d92565b005b610a2061202d565b604051610a2d9190613ff1565b60405180910390f35b610a3e612033565b005b610a486121c5565b604051610a559190613ff1565b60405180910390f35b610a666121cb565b604051610a739190613ff1565b60405180910390f35b610a846121d7565b005b610a8e6123e0565b604051610a9b91906141c4565b60405180910390f35b610aac612404565b604051610ab99190613ff1565b60405180910390f35b610aca61240a565b005b610ad4612588565b604051610ae19190613ff1565b60405180910390f35b610b046004803603810190610aff919061406f565b612709565b604051610b119190613ff1565b60405180910390f35b610b346004803603810190610b2f919061406f565b61286d565b005b610b3e612928565b005b610b48612bc3565b604051610b559190613ff1565b60405180910390f35b610b66612bca565b604051610b739190613ff1565b60405180910390f35b610b966004803603810190610b91919061406f565b612bd0565b005b610ba0612c56565b604051610bad9190613ff1565b60405180910390f35b610bbe612c5c565b604051610bcb9190613ff1565b60405180910390f35b610bee6004803603810190610be9919061406f565b612c62565b604051610c00969594939291906141df565b60405180910390f35b610c11612d94565b604051610c1e9190613ff1565b60405180910390f35b62278d0081565b610c36612d9a565b600073ffffffffffffffffffffffffffffffffffffffff168173ffffffffffffffffffffffffffffffffffffffff1603610ca5576040517f08c379a0000000000000000000000000000000000000000000000000000000008152600401610c9c906145e5565b60405180910390fd5b80600360006101000a81548173ffffffffffffffffffffffffffffffffffffffff021916908373ffffffffffffffffffffffffffffffffffffffff16021790555050565b6000806000806000600760000160009054906101000a900460ff1694506007600101549350600760020154925060006003811115610d2a57610d2961409c565b5b856003811115610d3d57610d3c61409c565b5b03610d5f57846000806000610d50612588565b94509450945094509450610e2f565b600060076001015442610d729190614634565b9050600080600380811115610d8a57610d8961409c565b5b886003811115610d9d57610d9c61409c565b5b03610db75762015180915066b1a2bc2ec500009050610e0a565b60026003811115610dcb57610dca61409c565b5b886003811115610dde57610ddd61409c565b5b03610df85761a8c091506702c68af0bb1400009050610e09565b61384091506706f05b59d3b2000090505b5b81831015610e23578282610e1e9190614634565b610e26565b60005b94508093505050505b9091929394565b6706f05b59d3b2000081565b600080610e4d612588565b90506ec097ce7bc90715b34b9f100000000081600d5469065a4da25d3016c00000610e789190614668565b610e829190614668565b610e8c91906146d9565b91505090565b61138881565b6000806000806010549350600d5492506a05ca4ec2a79a7f670000006001601054610ec3919061470a565b610ecd9190614668565b915060006a05ca4ec2a79a7f67000000601054610eea9190614668565b600e54610ef79190614634565b90506a05ca4ec2a79a7f6700000061271082610f139190614668565b610f1d91906146d9565b91505090919293565b7fffffffffffffffffffffffffffffffffffffffffffffffffffffffffffffffe781565b60146020528060005260406000206000915090508060000154908060010154908060020154908060030154908060040154908060050154905086565b6714d1120d7b16000081565b60c881565b600360009054906101000a900473ffffffffffffffffffffffffffffffffffffffff1681565b67016345785d8a000081565b600660009054906101000a900473ffffffffffffffffffffffffffffffffffffffff1681565b61384081565b6a52b7d2dcc80cd2e400000081565b61a8c081565b611012612d9a565b6000831180156110225750600082115b801561102e5750600081115b61106d576040517f08c379a00000000000000000000000000000000000000000000000000000000081526004016110649061478a565b60405180910390fd5b8260118190555081601281905550806013819055507f15819dd2fd9f6418b142e798d08a18d0bf06ea368f4480b7b0d3f75bd966bc488383836040516110b5939291906147aa565b60405180910390a1505050565b64e8d4a5100081565b6110d3612e21565b60003390506110e181612e67565b6000601460008373ffffffffffffffffffffffffffffffffffffffff1673ffffffffffffffffffffffffffffffffffffffff168152602001908152602001600020905060008160020154905060008111611170576040517f08c379a00000000000000000000000000000000000000000000000000000000081526004016111679061482d565b60405180910390fd5b6a39e7139a8c08fa06000000600e54106111bf576040517f08c379a00000000000000000000000000000000000000000000000000000000081526004016111b690614899565b60405180910390fd5b6000603260c86101f46103e86111d5919061470a565b6111df919061470a565b6111e9919061470a565b9050600061271082846111fc9190614668565b61120691906146d9565b905060008184611216919061470a565b90506a39e7139a8c08fa0600000081600e54611232919061470a565b111561127f576000600e546a39e7139a8c08fa060000006112539190614634565b905083612710611263919061470a565b612710826112719190614668565b61127b91906146d9565b9450505b600085600201819055508385600401600082825461129d919061470a565b9250508190555060008560030154036112ba574285600301819055505b83600e60008282546112cc919061470a565b92505081905550600460009054906101000a900473ffffffffffffffffffffffffffffffffffffffff1673ffffffffffffffffffffffffffffffffffffffff166340c10f1930866040518363ffffffff1660e01b81526004016113309291906148b9565b600060405180830381600087803b15801561134a57600080fd5b505af115801561135e573d6000803e3d6000fd5b5050505061136a6131de565b61137486856132a8565b8573ffffffffffffffffffffffffffffffffffffffff167fbc8fb63d817de4fabea2108e9b7eefca87245899f4b357636c26b5cad02ec5b4856040516113ba9190613ff1565b60405180910390a28573ffffffffffffffffffffffffffffffffffffffff167f8fe19f160f86d04fb1a90dde93e5e1a47df0810685adf4b990153c107d7b3924854260405161140a9291906148e2565b60405180910390a2505050505050611420613e60565b565b600460009054906101000a900473ffffffffffffffffffffffffffffffffffffffff1681565b6000611458601154601254613e69565b905090565b7ffffffffffffffffffffffffffffffffffffffffffffffffffffffffffffffff681565b611489612d9a565b6114936000613f0c565b565b600080600080600080601460008873ffffffffffffffffffffffffffffffffffffffff1673ffffffffffffffffffffffffffffffffffffffff1681526020019081526020016000209050806000015495506114ef87612709565b9450806004015493508060050154925060008160030154118015611517575060008160040154115b1561159157600081600301544261152e9190614634565b9050600062278d0082106115485782600401549050611569565b62278d0082846004015461155c9190614668565b61156691906146d9565b90505b8260050154811161157b57600061158c565b82600501548161158b9190614634565b5b935050505b5091939590929450565b60078060000160009054906101000a900460ff16908060010154908060020154905083565b600080600080600080600080600e5497506a39e7139a8c08fa060000009650600d5495506115ec612588565b9450600c5493506201518069065a4da25d3016c0000061160c91906146d9565b92506ec097ce7bc90715b34b9f100000000085600d5469065a4da25d3016c000006116379190614668565b6116419190614668565b61164b91906146d9565b915060105490509091929394959697565b611664612d9a565b600073ffffffffffffffffffffffffffffffffffffffff168173ffffffffffffffffffffffffffffffffffffffff16036116d3576040517f08c379a00000000000000000000000000000000000000000000000000000000081526004016116ca906145e5565b60405180910390fd5b80600560006101000a81548173ffffffffffffffffffffffffffffffffffffffff021916908373ffffffffffffffffffffffffffffffffffffffff1602179055508073ffffffffffffffffffffffffffffffffffffffff167f6536690106168bdf4ba72c128a053d817999b1db90cae23f139b293bf862cb7560405160405180910390a250565b600560009054906101000a900473ffffffffffffffffffffffffffffffffffffffff1681565b601481565b60008060009054906101000a900473ffffffffffffffffffffffffffffffffffffffff16905090565b6117b781612e67565b50565b600b5481565b600f5481565b69065a4da25d3016c0000081565b605f81565b600260009054906101000a900473ffffffffffffffffffffffffffffffffffffffff1681565b603281565b600c5481565b60115481565b6a05ca4ec2a79a7f6700000081565b600e5481565b6201518069065a4da25d3016c0000061183e91906146d9565b81565b60156020528060005260406000206000915090505481565b611861612d9a565b600073ffffffffffffffffffffffffffffffffffffffff168173ffffffffffffffffffffffffffffffffffffffff16036118d0576040517f08c379a00000000000000000000000000000000000000000000000000000000081526004016118c7906145e5565b60405180910390fd5b80600660006101000a81548173ffffffffffffffffffffffffffffffffffffffff021916908373ffffffffffffffffffffffffffffffffffffffff16021790555050565b6702c68af0bb14000081565b611928612e21565b3373ffffffffffffffffffffffffffffffffffffffff16600360009054906101000a900473ffffffffffffffffffffffffffffffffffffffff1673ffffffffffffffffffffffffffffffffffffffff1663331f5dcf836040518263ffffffff1660e01b815260040161199a9190613ff1565b602060405180830381865afa1580156119b7573d6000803e3d6000fd5b505050506040513d601f19601f820116820180604052508101906119db9190614920565b73ffffffffffffffffffffffffffffffffffffffff1614611a31576040517f08c379a0000000000000000000000000000000000000000000000000000000008152600401611a2890614999565b60405180910390fd5b611a3961240a565b6000601460003373ffffffffffffffffffffffffffffffffffffffff1673ffffffffffffffffffffffffffffffffffffffff16815260200190815260200160002090506000816001015464e8d4a51000600a548460000154611a9b9190614668565b611aa591906146d9565b611aaf9190614634565b90506000826002015482611ac3919061470a565b905060008111611b08576040517f08c379a0000000000000000000000000000000000000000000000000000000008152600401611aff90614a05565b60405180910390fd5b64e8d4a51000600a548460000154611b209190614668565b611b2a91906146d9565b8360010181905550600083600201819055506000600560009054906101000a900473ffffffffffffffffffffffffffffffffffffffff1673ffffffffffffffffffffffffffffffffffffffff1663b3596f07600460009054906101000a900473ffffffffffffffffffffffffffffffffffffffff166040518263ffffffff1660e01b8152600401611bbb9190614504565b602060405180830381865afa158015611bd8573d6000803e3d6000fd5b505050506040513d601f19601f82011682018060405250810190611bfc9190614a3a565b905060008111611c41576040517f08c379a0000000000000000000000000000000000000000000000000000000008152600401611c3890614ab3565b60405180910390fd5b6000670de0b6b3a76400008284611c589190614668565b611c6291906146d9565b905060006064606e83611c759190614668565b611c7f91906146d9565b9050600360009054906101000a900473ffffffffffffffffffffffffffffffffffffffff1673ffffffffffffffffffffffffffffffffffffffff1663341186c288836040518363ffffffff1660e01b8152600401611cde9291906148e2565b600060405180830381600087803b158015611cf857600080fd5b505af1158015611d0c573d6000803e3d6000fd5b50505050863373ffffffffffffffffffffffffffffffffffffffff167fa78b9a656c956dc5f492315beb888731d0142b384ffc2b15834ea73d69fb76bb8684604051611d599291906148e2565b60405180910390a3505050505050611d6f613e60565b50565b600d5481565b66b1a2bc2ec5000081565b6a39e7139a8c08fa0600000081565b611d9a612e21565b60003390506000601460008373ffffffffffffffffffffffffffffffffffffffff1673ffffffffffffffffffffffffffffffffffffffff16815260200190815260200160002090506000816004015411611e29576040517f08c379a0000000000000000000000000000000000000000000000000000000008152600401611e2090614b1f565b60405180910390fd5b6000816003015411611e70576040517f08c379a0000000000000000000000000000000000000000000000000000000008152600401611e6790614b8b565b60405180910390fd5b6000816003015442611e829190614634565b9050600062278d008210611e9c5782600401549050611ebd565b62278d00828460040154611eb09190614668565b611eba91906146d9565b90505b6000836005015482611ecf9190614634565b905060008111611f14576040517f08c379a0000000000000000000000000000000000000000000000000000000008152600401611f0b90614bf7565b60405180910390fd5b80846005016000828254611f28919061470a565b92505081905550600460009054906101000a900473ffffffffffffffffffffffffffffffffffffffff1673ffffffffffffffffffffffffffffffffffffffff1663a9059cbb86836040518363ffffffff1660e01b8152600401611f8c9291906148b9565b6020604051808303816000875af1158015611fab573d6000803e3d6000fd5b505050506040513d601f19601f82011682018060405250810190611fcf9190614c4f565b508473ffffffffffffffffffffffffffffffffffffffff167f9fe9b7be9d151c7a8b6de49a1312ff27a15096d0d1d12999af85fe4310e0b125826040516120169190613ff1565b60405180910390a2505050505061202b613e60565b565b60125481565b600060135403156121c35760006013546011546120509190614c7c565b905060006013546064836120649190614cbf565b61206e9190614d37565b905060007fffffffffffffffffffffffffffffffffffffffffffffffffffffffffffffffe782136120a25760039050612100565b7ffffffffffffffffffffffffffffffffffffffffffffffffffffffffffffffff182136120d257600290506120ff565b7ffffffffffffffffffffffffffffffffffffffffffffffffffffffffffffffff682136120fe57600190505b5b5b600760000160009054906101000a900460ff1660038111156121255761212461409c565b5b8160038111156121385761213761409c565b5b11156121bf5780600760000160006101000a81548160ff021916908360038111156121665761216561409c565b5b0217905550426007600101819055506011546007600201819055507f4fa52a45d7e5a216674f536c9e84f867dce6e9a6c6b5fe88f640855bf922568181426011546040516121b693929190614404565b60405180910390a15b5050505b565b6101f481565b671bc16d674ec8000081565b6121df612d9a565b600060038111156121f3576121f261409c565b5b600760000160009054906101000a900460ff1660038111156122185761221761409c565b5b03612258576040517f08c379a000000000000000000000000000000000000000000000000000000000815260040161224f90614ded565b60405180910390fd5b60006007600101544261226b9190614634565b905060006003808111156122825761228161409c565b5b600760000160009054906101000a900460ff1660038111156122a7576122a661409c565b5b036122b757620151809050612306565b600260038111156122cb576122ca61409c565b5b600760000160009054906101000a900460ff1660038111156122f0576122ef61409c565b5b036122ff5761a8c09050612305565b61384090505b5b80821015612349576040517f08c379a000000000000000000000000000000000000000000000000000000000815260040161234090614e59565b60405180910390fd5b6000600760000160009054906101000a900460ff1690506000600760000160006101000a81548160ff021916908360038111156123895761238861409c565b5b0217905550600060076001018190555060006007600201819055507f07130c8b39a90581223fe2d149b6458e7d26925c0ea5c3156721b96e564c3659816040516123d39190614e79565b60405180910390a1505050565b7ffffffffffffffffffffffffffffffffffffffffffffffffffffffffffffffff181565b61271081565b600b54421115612586576000600c540361242a5742600b81905550612586565b6000600b544261243a9190614634565b90506000612446612588565b905060006ec097ce7bc90715b34b9f100000000082600d546201518069065a4da25d3016c0000061247791906146d9565b866124829190614668565b61248c9190614668565b6124969190614668565b6124a091906146d9565b90506a39e7139a8c08fa0600000081600e546124bc919061470a565b11156124fa57600e546a39e7139a8c08fa06000000116124dd5760006124f7565b600e546a39e7139a8c08fa060000006124f69190614634565b5b90505b600081111561253a57600c5464e8d4a51000826125179190614668565b61252191906146d9565b600a6000828254612532919061470a565b925050819055505b42600b819055507f17b8644f386d1c7c7138ef98b3c8035622bbe94d7be9b26f71d2654a547c2943600a54600b54600c5460405161257a939291906147aa565b60405180910390a15050505b565b600080600381111561259d5761259c61409c565b5b600760000160009054906101000a900460ff1660038111156125c2576125c161409c565b5b146126f5576000600760010154426125da9190614634565b90506003808111156125ef576125ee61409c565b5b600760000160009054906101000a900460ff1660038111156126145761261361409c565b5b0361263957620151808110156126345766b1a2bc2ec50000915050612706565b6126f3565b6002600381111561264d5761264c61409c565b5b600760000160009054906101000a900460ff1660038111156126725761267161409c565b5b036126975761a8c0811015612692576702c68af0bb140000915050612706565b6126f2565b600160038111156126ab576126aa61409c565b5b600760000160009054906101000a900460ff1660038111156126d0576126cf61409c565b5b036126f1576138408110156126f0576706f05b59d3b20000915050612706565b5b5b5b505b612703601154601254613e69565b90505b90565b600080601460008473ffffffffffffffffffffffffffffffffffffffff1673ffffffffffffffffffffffffffffffffffffffff16815260200190815260200160002090506000600a549050600b544211801561276757506000600c54115b15612813576000600b544261277c9190614634565b90506000612788612588565b905060006ec097ce7bc90715b34b9f100000000082600d546201518069065a4da25d3016c000006127b991906146d9565b866127c49190614668565b6127ce9190614668565b6127d89190614668565b6127e291906146d9565b9050600c5464e8d4a51000826127f89190614668565b61280291906146d9565b8461280d919061470a565b93505050505b6000808360000154111561285357826001015464e8d4a5100083856000015461283c9190614668565b61284691906146d9565b6128509190614634565b90505b826002015481612863919061470a565b9350505050919050565b612875612d9a565b600073ffffffffffffffffffffffffffffffffffffffff168173ffffffffffffffffffffffffffffffffffffffff16036128e4576040517f08c379a00000000000000000000000000000000000000000000000000000000081526004016128db906145e5565b60405180910390fd5b80600260006101000a81548173ffffffffffffffffffffffffffffffffffffffff021916908373ffffffffffffffffffffffffffffffffffffffff16021790555050565b612930612e21565b60003390506000601460008373ffffffffffffffffffffffffffffffffffffffff1673ffffffffffffffffffffffffffffffffffffffff168152602001908152602001600020905080600501548160040154116129c2576040517f08c379a00000000000000000000000000000000000000000000000000000000081526004016129b990614ee0565b60405180910390fd5b6000816005015482600401546129d89190614634565b90506000612710611388836129ed9190614668565b6129f791906146d9565b905060008183612a079190614634565b905083600401548460050181905550600460009054906101000a900473ffffffffffffffffffffffffffffffffffffffff1673ffffffffffffffffffffffffffffffffffffffff1663a9059cbb86836040518363ffffffff1660e01b8152600401612a739291906148b9565b6020604051808303816000875af1158015612a92573d6000803e3d6000fd5b505050506040513d601f19601f82011682018060405250810190612ab69190614c4f565b506000821115612b6457600460009054906101000a900473ffffffffffffffffffffffffffffffffffffffff1673ffffffffffffffffffffffffffffffffffffffff1663a9059cbb61dead846040518363ffffffff1660e01b8152600401612b1f9291906148b9565b6020604051808303816000875af1158015612b3e573d6000803e3d6000fd5b505050506040513d601f19601f82011682018060405250810190612b629190614c4f565b505b8473ffffffffffffffffffffffffffffffffffffffff167f92207ec016968e0ee608b41c92470ff10e9f810a8dec5f40901974ac75ed498e8284604051612bac9291906148e2565b60405180910390a25050505050612bc1613e60565b565b6201518081565b600a5481565b612bd8612d9a565b600073ffffffffffffffffffffffffffffffffffffffff168173ffffffffffffffffffffffffffffffffffffffff1603612c4a5760006040517f1e4fbdf7000000000000000000000000000000000000000000000000000000008152600401612c419190614504565b60405180910390fd5b612c5381613f0c565b50565b6103e881565b60135481565b6000806000806000806000601460008973ffffffffffffffffffffffffffffffffffffffff1673ffffffffffffffffffffffffffffffffffffffff168152602001908152602001600020905080600401549650806005015495508060030154945060008160030154118015612cdb575060008160040154115b15612d8a576000816003015442612cf29190614634565b9050600062278d008210612d1157826004015490506127109350612d50565b62278d00828460040154612d259190614668565b612d2f91906146d9565b905062278d0061271083612d439190614668565b612d4d91906146d9565b93505b82600501548111612d62576000612d73565b826005015481612d729190614634565b5b9550808360040154612d859190614634565b945050505b5091939550919395565b60105481565b612da2613fd0565b73ffffffffffffffffffffffffffffffffffffffff16612dc0611785565b73ffffffffffffffffffffffffffffffffffffffff1614612e1f57612de3613fd0565b6040517f118cdaa7000000000000000000000000000000000000000000000000000000008152600401612e169190614504565b60405180910390fd5b565b600260015403612e5d576040517f3ee5aeb500000000000000000000000000000000000000000000000000000000815260040160405180910390fd5b6002600181905550565b612e6f61240a565b6000601460008373ffffffffffffffffffffffffffffffffffffffff1673ffffffffffffffffffffffffffffffffffffffff168152602001908152602001600020905060008073ffffffffffffffffffffffffffffffffffffffff16600360009054906101000a900473ffffffffffffffffffffffffffffffffffffffff1673ffffffffffffffffffffffffffffffffffffffff1614612fa857600360009054906101000a900473ffffffffffffffffffffffffffffffffffffffff1673ffffffffffffffffffffffffffffffffffffffff1663ab0229a0846040518263ffffffff1660e01b8152600401612f649190614504565b602060405180830381865afa158015612f81573d6000803e3d6000fd5b505050506040513d601f19601f82011682018060405250810190612fa59190614a3a565b90505b60008073ffffffffffffffffffffffffffffffffffffffff16600260009054906101000a900473ffffffffffffffffffffffffffffffffffffffff1673ffffffffffffffffffffffffffffffffffffffff161461309e57600260009054906101000a900473ffffffffffffffffffffffffffffffffffffffff1673ffffffffffffffffffffffffffffffffffffffff166304d1334f856040518263ffffffff1660e01b815260040161305a9190614504565b602060405180830381865afa158015613077573d6000803e3d6000fd5b505050506040513d601f19601f8201168201806040525081019061309b9190614a3a565b90505b6000612710826127106130b1919061470a565b846130bc9190614668565b6130c691906146d9565b9050600084600001541115613131576000846001015464e8d4a51000600a5487600001546130f49190614668565b6130fe91906146d9565b6131089190614634565b9050600081111561312f5780856002016000828254613127919061470a565b925050819055505b505b808460000154600c546131449190614634565b61314e919061470a565b600c8190555080846000018190555064e8d4a51000600a54826131719190614668565b61317b91906146d9565b84600101819055508473ffffffffffffffffffffffffffffffffffffffff167fdfc331ca16b8c4320a402867e832423d16ad3de953e474a499baf3697aa9e8948286600101546040516131cf9291906148e2565b60405180910390a25050505050565b5b6a05ca4ec2a79a7f6700000060016010546131fa919061470a565b6132049190614668565b600e54106132a6576064605f600d5461321d9190614668565b61322791906146d9565b600d819055506010600081548092919061324090614f00565b91905055506a05ca4ec2a79a7f6700000060105461325e9190614668565b600f819055507fde141711fef892cdaea55f1f6a85e241382fcefc69efdb496eff235992a18ed4600d54600e546040516132999291906148e2565b60405180910390a16131df565b565b600073ffffffffffffffffffffffffffffffffffffffff16600260009054906101000a900473ffffffffffffffffffffffffffffffffffffffff1673ffffffffffffffffffffffffffffffffffffffff160315613e5c576000600260009054906101000a900473ffffffffffffffffffffffffffffffffffffffff1673ffffffffffffffffffffffffffffffffffffffff16634a9fefc7846040518263ffffffff1660e01b815260040161335c9190614504565b602060405180830381865afa158015613379573d6000803e3d6000fd5b505050506040513d601f19601f8201168201806040525081019061339d9190614920565b9050600073ffffffffffffffffffffffffffffffffffffffff168173ffffffffffffffffffffffffffffffffffffffff16036133d95750613e5c565b60006127106103e8846133ec9190614668565b6133f691906146d9565b905060008111156135685780600e6000828254613413919061470a565b92505081905550600460009054906101000a900473ffffffffffffffffffffffffffffffffffffffff1673ffffffffffffffffffffffffffffffffffffffff166340c10f1983836040518363ffffffff1660e01b81526004016134779291906148b9565b600060405180830381600087803b15801561349157600080fd5b505af11580156134a5573d6000803e3d6000fd5b5050505080601560008473ffffffffffffffffffffffffffffffffffffffff1673ffffffffffffffffffffffffffffffffffffffff16815260200190815260200160002060008282546134f8919061470a565b925050819055508373ffffffffffffffffffffffffffffffffffffffff168273ffffffffffffffffffffffffffffffffffffffff167fe679beb5d98a54fda65331587d36d13358e8bf295be15e932c482164f8fde95e83600160405161355f929190614f83565b60405180910390a35b6000600260009054906101000a900473ffffffffffffffffffffffffffffffffffffffff1673ffffffffffffffffffffffffffffffffffffffff16634a9fefc7846040518263ffffffff1660e01b81526004016135c59190614504565b602060405180830381865afa1580156135e2573d6000803e3d6000fd5b505050506040513d601f19601f820116820180604052508101906136069190614920565b9050600073ffffffffffffffffffffffffffffffffffffffff168173ffffffffffffffffffffffffffffffffffffffff16146137cd5760006127106101f48661364f9190614668565b61365991906146d9565b905060008111156137cb5780600e6000828254613676919061470a565b92505081905550600460009054906101000a900473ffffffffffffffffffffffffffffffffffffffff1673ffffffffffffffffffffffffffffffffffffffff166340c10f1983836040518363ffffffff1660e01b81526004016136da9291906148b9565b600060405180830381600087803b1580156136f457600080fd5b505af1158015613708573d6000803e3d6000fd5b5050505080601560008473ffffffffffffffffffffffffffffffffffffffff1673ffffffffffffffffffffffffffffffffffffffff168152602001908152602001600020600082825461375b919061470a565b925050819055508573ffffffffffffffffffffffffffffffffffffffff168273ffffffffffffffffffffffffffffffffffffffff167fe679beb5d98a54fda65331587d36d13358e8bf295be15e932c482164f8fde95e8360026040516137c2929190614fe7565b60405180910390a35b505b600083905060008060005b600073ffffffffffffffffffffffffffffffffffffffff168473ffffffffffffffffffffffffffffffffffffffff16141580156138155750601481105b15613986576000600260009054906101000a900473ffffffffffffffffffffffffffffffffffffffff1673ffffffffffffffffffffffffffffffffffffffff166370a08231866040518263ffffffff1660e01b81526004016138779190614504565b602060405180830381865afa158015613894573d6000803e3d6000fd5b505050506040513d601f19601f820116820180604052508101906138b89190614a3a565b11156138d5578392506001816138ce919061470a565b9150613986565b600260009054906101000a900473ffffffffffffffffffffffffffffffffffffffff1673ffffffffffffffffffffffffffffffffffffffff16634a9fefc7856040518263ffffffff1660e01b81526004016139309190614504565b602060405180830381865afa15801561394d573d6000803e3d6000fd5b505050506040513d601f19601f820116820180604052508101906139719190614920565b9350808061397e90614f00565b9150506137d8565b600073ffffffffffffffffffffffffffffffffffffffff168373ffffffffffffffffffffffffffffffffffffffff1614613e5457600061271060c88a6139cc9190614668565b6139d691906146d9565b90506000811115613b475780600e60008282546139f3919061470a565b92505081905550600460009054906101000a900473ffffffffffffffffffffffffffffffffffffffff1673ffffffffffffffffffffffffffffffffffffffff166340c10f1985836040518363ffffffff1660e01b8152600401613a579291906148b9565b600060405180830381600087803b158015613a7157600080fd5b505af1158015613a85573d6000803e3d6000fd5b5050505080601560008673ffffffffffffffffffffffffffffffffffffffff1673ffffffffffffffffffffffffffffffffffffffff1681526020019081526020016000206000828254613ad8919061470a565b925050819055508973ffffffffffffffffffffffffffffffffffffffff168473ffffffffffffffffffffffffffffffffffffffff167ff3e533e84b42dfb4015d2211af267b5d34a1aa0f60c4da1a9dd25698150868d88386604051613b3e9291906148e2565b60405180910390a35b6000600260009054906101000a900473ffffffffffffffffffffffffffffffffffffffff1673ffffffffffffffffffffffffffffffffffffffff16634a9fefc7866040518263ffffffff1660e01b8152600401613ba49190614504565b602060405180830381865afa158015613bc1573d6000803e3d6000fd5b505050506040513d601f19601f82011682018060405250810190613be59190614920565b9050600073ffffffffffffffffffffffffffffffffffffffff168173ffffffffffffffffffffffffffffffffffffffff1614158015613cbf57506000600260009054906101000a900473ffffffffffffffffffffffffffffffffffffffff1673ffffffffffffffffffffffffffffffffffffffff166370a08231836040518263ffffffff1660e01b8152600401613c7c9190614504565b602060405180830381865afa158015613c99573d6000803e3d6000fd5b505050506040513d601f19601f82011682018060405250810190613cbd9190614a3a565b115b15613e5157600061271060328c613cd69190614668565b613ce091906146d9565b90506000811115613e4f5780600e6000828254613cfd919061470a565b92505081905550600460009054906101000a900473ffffffffffffffffffffffffffffffffffffffff1673ffffffffffffffffffffffffffffffffffffffff166340c10f1983836040518363ffffffff1660e01b8152600401613d619291906148b9565b600060405180830381600087803b158015613d7b57600080fd5b505af1158015613d8f573d6000803e3d6000fd5b5050505080601560008473ffffffffffffffffffffffffffffffffffffffff1673ffffffffffffffffffffffffffffffffffffffff1681526020019081526020016000206000828254613de2919061470a565b925050819055508573ffffffffffffffffffffffffffffffffffffffff168273ffffffffffffffffffffffffffffffffffffffff167f6b34e5a4dcbc992c5815bf8d0f03397ec7ecc2d9e760776d9de0c5e1d391905683604051613e469190613ff1565b60405180910390a35b505b50505b505050505050505b5050565b60018081905550565b6000808203613e8257670de0b6b3a76400009050613f06565b600082670de0b6b3a764000085613e999190614668565b613ea391906146d9565b90506000670de0b6b3a76400008283613ebc9190614668565b613ec691906146d9565b90506714d1120d7b160000811115613ee4576714d1120d7b16000090505b67016345785d8a0000811015613f005767016345785d8a000090505b80925050505b92915050565b60008060009054906101000a900473ffffffffffffffffffffffffffffffffffffffff169050816000806101000a81548173ffffffffffffffffffffffffffffffffffffffff021916908373ffffffffffffffffffffffffffffffffffffffff1602179055508173ffffffffffffffffffffffffffffffffffffffff168173ffffffffffffffffffffffffffffffffffffffff167f8be0079c531659141344cd1fd0a4f28419497f9722a3daafe3b4186f6b6457e060405160405180910390a35050565b600033905090565b6000819050919050565b613feb81613fd8565b82525050565b60006020820190506140066000830184613fe2565b92915050565b600080fd5b600073ffffffffffffffffffffffffffffffffffffffff82169050919050565b600061403c82614011565b9050919050565b61404c81614031565b811461405757600080fd5b50565b60008135905061406981614043565b92915050565b6000602082840312156140855761408461400c565b5b60006140938482850161405a565b91505092915050565b7f4e487b7100000000000000000000000000000000000000000000000000000000600052602160045260246000fd5b600481106140dc576140db61409c565b5b50565b60008190506140ed826140cb565b919050565b60006140fd826140df565b9050919050565b61410d816140f2565b82525050565b600060a0820190506141286000830188614104565b6141356020830187613fe2565b6141426040830186613fe2565b61414f6060830185613fe2565b61415c6080830184613fe2565b9695505050505050565b600060808201905061417b6000830187613fe2565b6141886020830186613fe2565b6141956040830185613fe2565b6141a26060830184613fe2565b95945050505050565b6000819050919050565b6141be816141ab565b82525050565b60006020820190506141d960008301846141b5565b92915050565b600060c0820190506141f46000830189613fe2565b6142016020830188613fe2565b61420e6040830187613fe2565b61421b6060830186613fe2565b6142286080830185613fe2565b61423560a0830184613fe2565b979650505050505050565b6000819050919050565b600061426561426061425b84614011565b614240565b614011565b9050919050565b60006142778261424a565b9050919050565b60006142898261426c565b9050919050565b6142998161427e565b82525050565b60006020820190506142b46000830184614290565b92915050565b60006142c58261426c565b9050919050565b6142d5816142ba565b82525050565b60006020820190506142f060008301846142cc565b92915050565b6142ff81613fd8565b811461430a57600080fd5b50565b60008135905061431c816142f6565b92915050565b60008060006060848603121561433b5761433a61400c565b5b60006143498682870161430d565b935050602061435a8682870161430d565b925050604061436b8682870161430d565b9150509250925092565b60006143808261426c565b9050919050565b61439081614375565b82525050565b60006020820190506143ab6000830184614387565b92915050565b600060a0820190506143c66000830188613fe2565b6143d36020830187613fe2565b6143e06040830186613fe2565b6143ed6060830185613fe2565b6143fa6080830184613fe2565b9695505050505050565b60006060820190506144196000830186614104565b6144266020830185613fe2565b6144336040830184613fe2565b949350505050565b600061010082019050614451600083018b613fe2565b61445e602083018a613fe2565b61446b6040830189613fe2565b6144786060830188613fe2565b6144856080830187613fe2565b61449260a0830186613fe2565b61449f60c0830185613fe2565b6144ac60e0830184613fe2565b9998505050505050505050565b60006144c48261426c565b9050919050565b6144d4816144b9565b82525050565b60006020820190506144ef60008301846144cb565b92915050565b6144fe81614031565b82525050565b600060208201905061451960008301846144f5565b92915050565b600061452a8261426c565b9050919050565b61453a8161451f565b82525050565b60006020820190506145556000830184614531565b92915050565b6000602082840312156145715761457061400c565b5b600061457f8482850161430d565b91505092915050565b600082825260208201905092915050565b7f496e76616c696420616464726573730000000000000000000000000000000000600082015250565b60006145cf600f83614588565b91506145da82614599565b602082019050919050565b600060208201905081810360008301526145fe816145c2565b9050919050565b7f4e487b7100000000000000000000000000000000000000000000000000000000600052601160045260246000fd5b600061463f82613fd8565b915061464a83613fd8565b925082820390508181111561466257614661614605565b5b92915050565b600061467382613fd8565b915061467e83613fd8565b925082820261468c81613fd8565b915082820484148315176146a3576146a2614605565b5b5092915050565b7f4e487b7100000000000000000000000000000000000000000000000000000000600052601260045260246000fd5b60006146e482613fd8565b91506146ef83613fd8565b9250826146ff576146fe6146aa565b5b828204905092915050565b600061471582613fd8565b915061472083613fd8565b925082820190508082111561473857614737614605565b5b92915050565b7f496e76616c696420707269636573000000000000000000000000000000000000600082015250565b6000614774600e83614588565b915061477f8261473e565b602082019050919050565b600060208201905081810360008301526147a381614767565b9050919050565b60006060820190506147bf6000830186613fe2565b6147cc6020830185613fe2565b6147d96040830184613fe2565b949350505050565b7f4e6f7468696e6720746f20686172766573740000000000000000000000000000600082015250565b6000614817601283614588565b9150614822826147e1565b602082019050919050565b600060208201905081810360008301526148468161480a565b9050919050565b7f4d696e696e672063617020726561636865640000000000000000000000000000600082015250565b6000614883601283614588565b915061488e8261484d565b602082019050919050565b600060208201905081810360008301526148b281614876565b9050919050565b60006040820190506148ce60008301856144f5565b6148db6020830184613fe2565b9392505050565b60006040820190506148f76000830185613fe2565b6149046020830184613fe2565b9392505050565b60008151905061491a81614043565b92915050565b6000602082840312156149365761493561400c565b5b60006149448482850161490b565b91505092915050565b7f4e6f7420626f6e64206f776e6572000000000000000000000000000000000000600082015250565b6000614983600e83614588565b915061498e8261494d565b602082019050919050565b600060208201905081810360008301526149b281614976565b9050919050565b7f4e6f2070656e64696e6720726577617264730000000000000000000000000000600082015250565b60006149ef601283614588565b91506149fa826149b9565b602082019050919050565b60006020820190508181036000830152614a1e816149e2565b9050919050565b600081519050614a34816142f6565b92915050565b600060208284031215614a5057614a4f61400c565b5b6000614a5e84828501614a25565b91505092915050565b7f4f7261636c65207072696365206973207a65726f000000000000000000000000600082015250565b6000614a9d601483614588565b9150614aa882614a67565b602082019050919050565b60006020820190508181036000830152614acc81614a90565b9050919050565b7f4e6f7468696e6720766573746564000000000000000000000000000000000000600082015250565b6000614b09600e83614588565b9150614b1482614ad3565b602082019050919050565b60006020820190508181036000830152614b3881614afc565b9050919050565b7f56657374696e67206e6f74207374617274656400000000000000000000000000600082015250565b6000614b75601383614588565b9150614b8082614b3f565b602082019050919050565b60006020820190508181036000830152614ba481614b68565b9050919050565b7f4e6f7468696e6720746f20636c61696d00000000000000000000000000000000600082015250565b6000614be1601083614588565b9150614bec82614bab565b602082019050919050565b60006020820190508181036000830152614c1081614bd4565b9050919050565b60008115159050919050565b614c2c81614c17565b8114614c3757600080fd5b50565b600081519050614c4981614c23565b92915050565b600060208284031215614c6557614c6461400c565b5b6000614c7384828501614c3a565b91505092915050565b6000614c87826141ab565b9150614c92836141ab565b9250828203905081811260008412168282136000851215161715614cb957614cb8614605565b5b92915050565b6000614cca826141ab565b9150614cd5836141ab565b9250828202614ce3816141ab565b91507f80000000000000000000000000000000000000000000000000000000000000008414600084121615614d1b57614d1a614605565b5b8282058414831517614d3057614d2f614605565b5b5092915050565b6000614d42826141ab565b9150614d4d836141ab565b925082614d5d57614d5c6146aa565b5b600160000383147f800000000000000000000000000000000000000000000000000000000000000083141615614d9657614d95614605565b5b828205905092915050565b7f427265616b6572206e6f74206163746976650000000000000000000000000000600082015250565b6000614dd7601283614588565b9150614de282614da1565b602082019050919050565b60006020820190508181036000830152614e0681614dca565b9050919050565b7f436f6f6c646f776e206e6f7420636f6d706c6574650000000000000000000000600082015250565b6000614e43601583614588565b9150614e4e82614e0d565b602082019050919050565b60006020820190508181036000830152614e7281614e36565b9050919050565b6000602082019050614e8e6000830184614104565b92915050565b7f4e6f7468696e6720746f2063617368206f757400000000000000000000000000600082015250565b6000614eca601383614588565b9150614ed582614e94565b602082019050919050565b60006020820190508181036000830152614ef981614ebd565b9050919050565b6000614f0b82613fd8565b91507fffffffffffffffffffffffffffffffffffffffffffffffffffffffffffffffff8203614f3d57614f3c614605565b5b600182019050919050565b6000819050919050565b6000614f6d614f68614f6384614f48565b614240565b613fd8565b9050919050565b614f7d81614f52565b82525050565b6000604082019050614f986000830185613fe2565b614fa56020830184614f74565b9392505050565b6000819050919050565b6000614fd1614fcc614fc784614fac565b614240565b613fd8565b9050919050565b614fe181614fb6565b82525050565b6000604082019050614ffc6000830185613fe2565b6150096020830184614fd8565b939250505056fea2646970667358221220fcf1ab172836f56c2bae7d4beb54d4ba5fff9c3ba216d3fe0c9c1bb3fb527a8f64736f6c63430008140033",
  "linkReferences": {},
  "deployedLinkReferences": {}
}