{
  "_format": "hh-sol-artifact-1",
  "contractName": "IvyCore",
  "sourceName": "contracts/IvyCore.sol",
  "abi": [
    {
      "inputs": [
        {
          "internalType": "address",
          "name": "_ivyToken",
          "type": "address"
        }
      ],
      "stateMutability": "nonpayable",
      "type": "constructor"
    },
    {
      "inputs": [
        {
          "internalType": "address",
          "name": "owner",
          "type": "address"
        }
      ],
      "name": "OwnableInvalidOwner",
      "type": "error"
    },
    {
      "inputs": [
        {
          "internalType": "address",
          "name": "account",
          "type": "address"
        }
      ],
      "name": "OwnableUnauthorizedAccount",
      "type": "error"
    },
    {
      "inputs": [],
      "name": "ReentrancyGuardReentrantCall",
      "type": "error"
    },
    {
      "anonymous": false,
      "inputs": [
        {
          "indexed": false,
          "internalType": "enum IvyCore.BreakerLevel",
          "name": "previousLevel",
          "type": "uint8"
        }
      ],
      "name": "CircuitBreakerReset",
      "type": "event"
    },
    {
      "anonymous": false,
      "inputs": [
        {
          "indexed": false,
          "internalType": "enum IvyCore.BreakerLevel",
          "name": "level",
          "type": "uint8"
        },
        {
          "indexed": false,
          "internalType": "uint256",
          "name": "activationTime",
          "type": "uint256"
        },
        {
          "indexed": false,
          "internalType": "uint256",
          "name": "activationPrice",
          "type": "uint256"
        }
      ],
      "name": "CircuitBreakerTriggered",
      "type": "event"
    },
    {
      "anonymous": false,
      "inputs": [
        {
          "indexed": false,
          "internalType": "uint256",
          "name": "newEmissionFactor",
          "type": "uint256"
        },
        {
          "indexed": false,
          "internalType": "uint256",
          "name": "totalMinted",
          "type": "uint256"
        }
      ],
      "name": "HalvingOccurred",
      "type": "event"
    },
    {
      "anonymous": false,
      "inputs": [
        {
          "indexed": true,
          "internalType": "address",
          "name": "user",
          "type": "address"
        },
        {
          "indexed": false,
          "internalType": "uint256",
          "name": "received",
          "type": "uint256"
        },
        {
          "indexed": false,
          "internalType": "uint256",
          "name": "burned",
          "type": "uint256"
        }
      ],
      "name": "InstantCashOut",
      "type": "event"
    },
    {
      "anonymous": false,
      "inputs": [
        {
          "indexed": true,
          "internalType": "address",
          "name": "previousOwner",
          "type": "address"
        },
        {
          "indexed": true,
          "internalType": "address",
          "name": "newOwner",
          "type": "address"
        }
      ],
      "name": "OwnershipTransferred",
      "type": "event"
    },
    {
      "anonymous": false,
      "inputs": [
        {
          "indexed": true,
          "internalType": "address",
          "name": "receiver",
          "type": "address"
        },
        {
          "indexed": true,
          "internalType": "address",
          "name": "capturer",
          "type": "address"
        },
        {
          "indexed": false,
          "internalType": "uint256",
          "name": "amount",
          "type": "uint256"
        }
      ],
      "name": "PeerBonusPaid",
      "type": "event"
    },
    {
      "anonymous": false,
      "inputs": [
        {
          "indexed": false,
          "internalType": "uint256",
          "name": "accIvyPerShare",
          "type": "uint256"
        },
        {
          "indexed": false,
          "internalType": "uint256",
          "name": "lastRewardTime",
          "type": "uint256"
        },
        {
          "indexed": false,
          "internalType": "uint256",
          "name": "totalPoolBondPower",
          "type": "uint256"
        }
      ],
      "name": "PoolUpdated",
      "type": "event"
    },
    {
      "anonymous": false,
      "inputs": [
        {
          "indexed": false,
          "internalType": "uint256",
          "name": "currentPrice",
          "type": "uint256"
        },
        {
          "indexed": false,
          "internalType": "uint256",
          "name": "ma30Price",
          "type": "uint256"
        },
        {
          "indexed": false,
          "internalType": "uint256",
          "name": "price1hAgo",
          "type": "uint256"
        }
      ],
      "name": "PriceUpdated",
      "type": "event"
    },
    {
      "anonymous": false,
      "inputs": [
        {
          "indexed": true,
          "internalType": "address",
          "name": "referrer",
          "type": "address"
        },
        {
          "indexed": true,
          "internalType": "address",
          "name": "from",
          "type": "address"
        },
        {
          "indexed": false,
          "internalType": "uint256",
          "name": "amount",
          "type": "uint256"
        },
        {
          "indexed": false,
          "internalType": "uint256",
          "name": "level",
          "type": "uint256"
        }
      ],
      "name": "ReferralRewardPaid",
      "type": "event"
    },
    {
      "anonymous": false,
      "inputs": [
        {
          "indexed": true,
          "internalType": "address",
          "name": "user",
          "type": "address"
        },
        {
          "indexed": false,
          "internalType": "uint256",
          "name": "amount",
          "type": "uint256"
        }
      ],
      "name": "RewardsHarvested",
      "type": "event"
    },
    {
      "anonymous": false,
      "inputs": [
        {
          "indexed": true,
          "internalType": "address",
          "name": "capturer",
          "type": "address"
        },
        {
          "indexed": true,
          "internalType": "address",
          "name": "blockedUpline",
          "type": "address"
        },
        {
          "indexed": false,
          "internalType": "uint256",
          "name": "amount",
          "type": "uint256"
        },
        {
          "indexed": false,
          "internalType": "uint256",
          "name": "depth",
          "type": "uint256"
        }
      ],
      "name": "TeamBonusCaptured",
      "type": "event"
    },
    {
      "anonymous": false,
      "inputs": [
        {
          "indexed": true,
          "internalType": "address",
          "name": "user",
          "type": "address"
        },
        {
          "indexed": false,
          "internalType": "uint256",
          "name": "bondPower",
          "type": "uint256"
        },
        {
          "indexed": false,
          "internalType": "uint256",
          "name": "rewardDebt",
          "type": "uint256"
        }
      ],
      "name": "UserSynced",
      "type": "event"
    },
    {
      "anonymous": false,
      "inputs": [
        {
          "indexed": true,
          "internalType": "address",
          "name": "user",
          "type": "address"
        },
        {
          "indexed": false,
          "internalType": "uint256",
          "name": "amount",
          "type": "uint256"
        }
      ],
      "name": "VestingClaimed",
      "type": "event"
    },
    {
      "anonymous": false,
      "inputs": [
        {
          "indexed": true,
          "internalType": "address",
          "name": "user",
          "type": "address"
        },
        {
          "indexed": false,
          "internalType": "uint256",
          "name": "amount",
          "type": "uint256"
        },
        {
          "indexed": false,
          "internalType": "uint256",
          "name": "startTime",
          "type": "uint256"
        }
      ],
      "name": "VestingStarted",
      "type": "event"
    },
    {
      "inputs": [],
      "name": "ACC_IVY_PRECISION",
      "outputs": [
        {
          "internalType": "uint256",
          "name": "",
          "type": "uint256"
        }
      ],
      "stateMutability": "view",
      "type": "function"
    },
    {
      "inputs": [],
      "name": "ALPHA_L1",
      "outputs": [
        {
          "internalType": "uint256",
          "name": "",
          "type": "uint256"
        }
      ],
      "stateMutability": "view",
      "type": "function"
    },
    {
      "inputs": [],
      "name": "ALPHA_L2",
      "outputs": [
        {
          "internalType": "uint256",
          "name": "",
          "type": "uint256"
        }
      ],
      "stateMutability": "view",
      "type": "function"
    },
    {
      "inputs": [],
      "name": "ALPHA_L3",
      "outputs": [
        {
          "internalType": "uint256",
          "name": "",
          "type": "uint256"
        }
      ],
      "stateMutability": "view",
      "type": "function"
    },
    {
      "inputs": [],
      "name": "BASE_DAILY_EMISSION",
      "outputs": [
        {
          "internalType": "uint256",
          "name": "",
          "type": "uint256"
        }
      ],
      "stateMutability": "view",
      "type": "function"
    },
    {
      "inputs": [],
      "name": "BASIS_POINTS",
      "outputs": [
        {
          "internalType": "uint256",
          "name": "",
          "type": "uint256"
        }
      ],
      "stateMutability": "view",
      "type": "function"
    },
    {
      "inputs": [],
      "name": "COOLDOWN_L1",
      "outputs": [
        {
          "internalType": "uint256",
          "name": "",
          "type": "uint256"
        }
      ],
      "stateMutability": "view",
      "type": "function"
    },
    {
      "inputs": [],
      "name": "COOLDOWN_L2",
      "outputs": [
        {
          "internalType": "uint256",
          "name": "",
          "type": "uint256"
        }
      ],
      "stateMutability": "view",
      "type": "function"
    },
    {
      "inputs": [],
      "name": "COOLDOWN_L3",
      "outputs": [
        {
          "internalType": "uint256",
          "name": "",
          "type": "uint256"
        }
      ],
      "stateMutability": "view",
      "type": "function"
    },
    {
      "inputs": [],
      "name": "DROP_L1",
      "outputs": [
        {
          "internalType": "int256",
          "name": "",
          "type": "int256"
        }
      ],
      "stateMutability": "view",
      "type": "function"
    },
    {
      "inputs": [],
      "name": "DROP_L2",
      "outputs": [
        {
          "internalType": "int256",
          "name": "",
          "type": "int256"
        }
      ],
      "stateMutability": "view",
      "type": "function"
    },
    {
      "inputs": [],
      "name": "DROP_L3",
      "outputs": [
        {
          "internalType": "int256",
          "name": "",
          "type": "int256"
        }
      ],
      "stateMutability": "view",
      "type": "function"
    },
    {
      "inputs": [],
      "name": "EMISSION_PER_SECOND",
      "outputs": [
        {
          "internalType": "uint256",
          "name": "",
          "type": "uint256"
        }
      ],
      "stateMutability": "view",
      "type": "function"
    },
    {
      "inputs": [],
      "name": "HALVING_DECAY",
      "outputs": [
        {
          "internalType": "uint256",
          "name": "",
          "type": "uint256"
        }
      ],
      "stateMutability": "view",
      "type": "function"
    },
    {
      "inputs": [],
      "name": "HALVING_THRESHOLD",
      "outputs": [
        {
          "internalType": "uint256",
          "name": "",
          "type": "uint256"
        }
      ],
      "stateMutability": "view",
      "type": "function"
    },
    {
      "inputs": [],
      "name": "HARD_CAP",
      "outputs": [
        {
          "internalType": "uint256",
          "name": "",
          "type": "uint256"
        }
      ],
      "stateMutability": "view",
      "type": "function"
    },
    {
      "inputs": [],
      "name": "INFINITE_RATE",
      "outputs": [
        {
          "internalType": "uint256",
          "name": "",
          "type": "uint256"
        }
      ],
      "stateMutability": "view",
      "type": "function"
    },
    {
      "inputs": [],
      "name": "INSTANT_CASH_PENALTY",
      "outputs": [
        {
          "internalType": "uint256",
          "name": "",
          "type": "uint256"
        }
      ],
      "stateMutability": "view",
      "type": "function"
    },
    {
      "inputs": [],
      "name": "L1_RATE",
      "outputs": [
        {
          "internalType": "uint256",
          "name": "",
          "type": "uint256"
        }
      ],
      "stateMutability": "view",
      "type": "function"
    },
    {
      "inputs": [],
      "name": "L2_RATE",
      "outputs": [
        {
          "internalType": "uint256",
          "name": "",
          "type": "uint256"
        }
      ],
      "stateMutability": "view",
      "type": "function"
    },
    {
      "inputs": [],
      "name": "MAX_REFERRAL_DEPTH",
      "outputs": [
        {
          "internalType": "uint256",
          "name": "",
          "type": "uint256"
        }
      ],
      "stateMutability": "view",
      "type": "function"
    },
    {
      "inputs": [],
      "name": "MINING_CAP",
      "outputs": [
        {
          "internalType": "uint256",
          "name": "",
          "type": "uint256"
        }
      ],
      "stateMutability": "view",
      "type": "function"
    },
    {
      "inputs": [],
      "name": "PEER_BONUS_RATE",
      "outputs": [
        {
          "internalType": "uint256",
          "name": "",
          "type": "uint256"
        }
      ],
      "stateMutability": "view",
      "type": "function"
    },
    {
      "inputs": [],
      "name": "PID_CAP",
      "outputs": [
        {
          "internalType": "uint256",
          "name": "",
          "type": "uint256"
        }
      ],
      "stateMutability": "view",
      "type": "function"
    },
    {
      "inputs": [],
      "name": "PID_FLOOR",
      "outputs": [
        {
          "internalType": "uint256",
          "name": "",
          "type": "uint256"
        }
      ],
      "stateMutability": "view",
      "type": "function"
    },
    {
      "inputs": [],
      "name": "PID_K",
      "outputs": [
        {
          "internalType": "uint256",
          "name": "",
          "type": "uint256"
        }
      ],
      "stateMutability": "view",
      "type": "function"
    },
    {
      "inputs": [],
      "name": "VESTING_PERIOD",
      "outputs": [
        {
          "internalType": "uint256",
          "name": "",
          "type": "uint256"
        }
      ],
      "stateMutability": "view",
      "type": "function"
    },
    {
      "inputs": [],
      "name": "accIvyPerShare",
      "outputs": [
        {
          "internalType": "uint256",
          "name": "",
          "type": "uint256"
        }
      ],
      "stateMutability": "view",
      "type": "function"
    },
    {
      "inputs": [],
      "name": "breakerState",
      "outputs": [
        {
          "internalType": "enum IvyCore.BreakerLevel",
          "name": "currentLevel",
          "type": "uint8"
        },
        {
          "internalType": "uint256",
          "name": "activationTime",
          "type": "uint256"
        },
        {
          "internalType": "uint256",
          "name": "activationPrice",
          "type": "uint256"
        }
      ],
      "stateMutability": "view",
      "type": "function"
    },
    {
      "inputs": [],
      "name": "checkCircuitBreaker",
      "outputs": [],
      "stateMutability": "nonpayable",
      "type": "function"
    },
    {
      "inputs": [],
      "name": "claimVested",
      "outputs": [],
      "stateMutability": "nonpayable",
      "type": "function"
    },
    {
      "inputs": [],
      "name": "currentDailyEmission",
      "outputs": [
        {
          "internalType": "uint256",
          "name": "",
          "type": "uint256"
        }
      ],
      "stateMutability": "view",
      "type": "function"
    },
    {
      "inputs": [],
      "name": "currentPrice",
      "outputs": [
        {
          "internalType": "uint256",
          "name": "",
          "type": "uint256"
        }
      ],
      "stateMutability": "view",
      "type": "function"
    },
    {
      "inputs": [],
      "name": "emissionFactor",
      "outputs": [
        {
          "internalType": "uint256",
          "name": "",
          "type": "uint256"
        }
      ],
      "stateMutability": "view",
      "type": "function"
    },
    {
      "inputs": [],
      "name": "genesisNode",
      "outputs": [
        {
          "internalType": "contract IGenesisNode",
          "name": "",
          "type": "address"
        }
      ],
      "stateMutability": "view",
      "type": "function"
    },
    {
      "inputs": [],
      "name": "getBreakerStatus",
      "outputs": [
        {
          "internalType": "enum IvyCore.BreakerLevel",
          "name": "level",
          "type": "uint8"
        },
        {
          "internalType": "uint256",
          "name": "activationTime",
          "type": "uint256"
        },
        {
          "internalType": "uint256",
          "name": "activationPrice",
          "type": "uint256"
        },
        {
          "internalType": "uint256",
          "name": "timeRemaining",
          "type": "uint256"
        },
        {
          "internalType": "uint256",
          "name": "forcedAlpha",
          "type": "uint256"
        }
      ],
      "stateMutability": "view",
      "type": "function"
    },
    {
      "inputs": [],
      "name": "getFinalMultiplier",
      "outputs": [
        {
          "internalType": "uint256",
          "name": "",
          "type": "uint256"
        }
      ],
      "stateMutability": "view",
      "type": "function"
    },
    {
      "inputs": [],
      "name": "getHalvingInfo",
      "outputs": [
        {
          "internalType": "uint256",
          "name": "_halvingCount",
          "type": "uint256"
        },
        {
          "internalType": "uint256",
          "name": "_emissionFactor",
          "type": "uint256"
        },
        {
          "internalType": "uint256",
          "name": "_nextHalvingAt",
          "type": "uint256"
        },
        {
          "internalType": "uint256",
          "name": "_progressToNextHalving",
          "type": "uint256"
        }
      ],
      "stateMutability": "view",
      "type": "function"
    },
    {
      "inputs": [],
      "name": "getPIDAlpha",
      "outputs": [
        {
          "internalType": "uint256",
          "name": "",
          "type": "uint256"
        }
      ],
      "stateMutability": "view",
      "type": "function"
    },
    {
      "inputs": [],
      "name": "getProtocolStats",
      "outputs": [
        {
          "internalType": "uint256",
          "name": "_totalMinted",
          "type": "uint256"
        },
        {
          "internalType": "uint256",
          "name": "_miningCap",
          "type": "uint256"
        },
        {
          "internalType": "uint256",
          "name": "_emissionFactor",
          "type": "uint256"
        },
        {
          "internalType": "uint256",
          "name": "_finalMultiplier",
          "type": "uint256"
        },
        {
          "internalType": "uint256",
          "name": "_totalPoolBondPower",
          "type": "uint256"
        },
        {
          "internalType": "uint256",
          "name": "_emissionPerSecond",
          "type": "uint256"
        },
        {
          "internalType": "uint256",
          "name": "_currentDailyEmission",
          "type": "uint256"
        },
        {
          "internalType": "uint256",
          "name": "_halvingCount",
          "type": "uint256"
        }
      ],
      "stateMutability": "view",
      "type": "function"
    },
    {
      "inputs": [
        {
          "internalType": "address",
          "name": "user",
          "type": "address"
        }
      ],
      "name": "getUserMiningStats",
      "outputs": [
        {
          "internalType": "uint256",
          "name": "bondPower",
          "type": "uint256"
        },
        {
          "internalType": "uint256",
          "name": "pendingRewards",
          "type": "uint256"
        },
        {
          "internalType": "uint256",
          "name": "totalVested",
          "type": "uint256"
        },
        {
          "internalType": "uint256",
          "name": "totalClaimed",
          "type": "uint256"
        },
        {
          "internalType": "uint256",
          "name": "claimableNow",
          "type": "uint256"
        }
      ],
      "stateMutability": "view",
      "type": "function"
    },
    {
      "inputs": [
        {
          "internalType": "address",
          "name": "user",
          "type": "address"
        }
      ],
      "name": "getVestingInfo",
      "outputs": [
        {
          "internalType": "uint256",
          "name": "totalVested",
          "type": "uint256"
        },
        {
          "internalType": "uint256",
          "name": "totalClaimed",
          "type": "uint256"
        },
        {
          "internalType": "uint256",
          "name": "vestingStartTime",
          "type": "uint256"
        },
        {
          "internalType": "uint256",
          "name": "claimableNow",
          "type": "uint256"
        },
        {
          "internalType": "uint256",
          "name": "remainingLocked",
          "type": "uint256"
        },
        {
          "internalType": "uint256",
          "name": "vestingProgress",
          "type": "uint256"
        }
      ],
      "stateMutability": "view",
      "type": "function"
    },
    {
      "inputs": [],
      "name": "halvingCount",
      "outputs": [
        {
          "internalType": "uint256",
          "name": "",
          "type": "uint256"
        }
      ],
      "stateMutability": "view",
      "type": "function"
    },
    {
      "inputs": [],
      "name": "harvest",
      "outputs": [],
      "stateMutability": "nonpayable",
      "type": "function"
    },
    {
      "inputs": [],
      "name": "instantCashOut",
      "outputs": [],
      "stateMutability": "nonpayable",
      "type": "function"
    },
    {
      "inputs": [],
      "name": "ivyBond",
      "outputs": [
        {
          "internalType": "contract IIvyBond",
          "name": "",
          "type": "address"
        }
      ],
      "stateMutability": "view",
      "type": "function"
    },
    {
      "inputs": [],
      "name": "ivyToken",
      "outputs": [
        {
          "internalType": "contract IvyToken",
          "name": "",
          "type": "address"
        }
      ],
      "stateMutability": "view",
      "type": "function"
    },
    {
      "inputs": [],
      "name": "lastHalvingMinted",
      "outputs": [
        {
          "internalType": "uint256",
          "name": "",
          "type": "uint256"
        }
      ],
      "stateMutability": "view",
      "type": "function"
    },
    {
      "inputs": [],
      "name": "lastRewardTime",
      "outputs": [
        {
          "internalType": "uint256",
          "name": "",
          "type": "uint256"
        }
      ],
      "stateMutability": "view",
      "type": "function"
    },
    {
      "inputs": [],
      "name": "ma30Price",
      "outputs": [
        {
          "internalType": "uint256",
          "name": "",
          "type": "uint256"
        }
      ],
      "stateMutability": "view",
      "type": "function"
    },
    {
      "inputs": [],
      "name": "owner",
      "outputs": [
        {
          "internalType": "address",
          "name": "",
          "type": "address"
        }
      ],
      "stateMutability": "view",
      "type": "function"
    },
    {
      "inputs": [
        {
          "internalType": "address",
          "name": "user",
          "type": "address"
        }
      ],
      "name": "pendingIvy",
      "outputs": [
        {
          "internalType": "uint256",
          "name": "",
          "type": "uint256"
        }
      ],
      "stateMutability": "view",
      "type": "function"
    },
    {
      "inputs": [],
      "name": "price1hAgo",
      "outputs": [
        {
          "internalType": "uint256",
          "name": "",
          "type": "uint256"
        }
      ],
      "stateMutability": "view",
      "type": "function"
    },
    {
      "inputs": [
        {
          "internalType": "address",
          "name": "",
          "type": "address"
        }
      ],
      "name": "referralRewardsEarned",
      "outputs": [
        {
          "internalType": "uint256",
          "name": "",
          "type": "uint256"
        }
      ],
      "stateMutability": "view",
      "type": "function"
    },
    {
      "inputs": [],
      "name": "renounceOwnership",
      "outputs": [],
      "stateMutability": "nonpayable",
      "type": "function"
    },
    {
      "inputs": [],
      "name": "resetCircuitBreaker",
      "outputs": [],
      "stateMutability": "nonpayable",
      "type": "function"
    },
    {
      "inputs": [
        {
          "internalType": "address",
          "name": "_genesisNode",
          "type": "address"
        }
      ],
      "name": "setGenesisNode",
      "outputs": [],
      "stateMutability": "nonpayable",
      "type": "function"
    },
    {
      "inputs": [
        {
          "internalType": "address",
          "name": "_ivyBond",
          "type": "address"
        }
      ],
      "name": "setIvyBond",
      "outputs": [],
      "stateMutability": "nonpayable",
      "type": "function"
    },
    {
      "inputs": [
        {
          "internalType": "address",
          "name": "user",
          "type": "address"
        }
      ],
      "name": "syncUser",
      "outputs": [],
      "stateMutability": "nonpayable",
      "type": "function"
    },
    {
      "inputs": [],
      "name": "totalMinted",
      "outputs": [
        {
          "internalType": "uint256",
          "name": "",
          "type": "uint256"
        }
      ],
      "stateMutability": "view",
      "type": "function"
    },
    {
      "inputs": [],
      "name": "totalPoolBondPower",
      "outputs": [
        {
          "internalType": "uint256",
          "name": "",
          "type": "uint256"
        }
      ],
      "stateMutability": "view",
      "type": "function"
    },
    {
      "inputs": [
        {
          "internalType": "address",
          "name": "newOwner",
          "type": "address"
        }
      ],
      "name": "transferOwnership",
      "outputs": [],
      "stateMutability": "nonpayable",
      "type": "function"
    },
    {
      "inputs": [],
      "name": "updatePool",
      "outputs": [],
      "stateMutability": "nonpayable",
      "type": "function"
    },
    {
      "inputs": [
        {
          "internalType": "uint256",
          "name": "_currentPrice",
          "type": "uint256"
        },
        {
          "internalType": "uint256",
          "name": "_ma30Price",
          "type": "uint256"
        },
        {
          "internalType": "uint256",
          "name": "_price1hAgo",
          "type": "uint256"
        }
      ],
      "name": "updatePrices",
      "outputs": [],
      "stateMutability": "nonpayable",
      "type": "function"
    },
    {
      "inputs": [
        {
          "internalType": "address",
          "name": "",
          "type": "address"
        }
      ],
      "name": "userInfo",
      "outputs": [
        {
          "internalType": "uint256",
          "name": "bondPower",
          "type": "uint256"
        },
        {
          "internalType": "uint256",
          "name": "rewardDebt",
          "type": "uint256"
        },
        {
          "internalType": "uint256",
          "name": "pendingVested",
          "type": "uint256"
        },
        {
          "internalType": "uint256",
          "name": "vestingStartTime",
          "type": "uint256"
        },
        {
          "internalType": "uint256",
          "name": "totalVested",
          "type": "uint256"
        },
        {
          "internalType": "uint256",
          "name": "totalClaimed",
          "type": "uint256"
        }
      ],
      "stateMutability": "view",
      "type": "function"
    }
  ],
  "bytecode": "0x6080604052670de0b6b3a7640000600b55670de0b6b3a7640000600f55670de0b6b3a7640000601055670de0b6b3a76400006011553480156200004157600080fd5b506040516200499138038062004991833981810160405281019062000067919062000273565b33600073ffffffffffffffffffffffffffffffffffffffff168173ffffffffffffffffffffffffffffffffffffffff1603620000dd5760006040517f1e4fbdf7000000000000000000000000000000000000000000000000000000008152600401620000d49190620002b6565b60405180910390fd5b620000ee816200014560201b60201c565b506001808190555080600460006101000a81548173ffffffffffffffffffffffffffffffffffffffff021916908373ffffffffffffffffffffffffffffffffffffffff1602179055504260098190555050620002d3565b60008060009054906101000a900473ffffffffffffffffffffffffffffffffffffffff169050816000806101000a81548173ffffffffffffffffffffffffffffffffffffffff021916908373ffffffffffffffffffffffffffffffffffffffff1602179055508173ffffffffffffffffffffffffffffffffffffffff168173ffffffffffffffffffffffffffffffffffffffff167f8be0079c531659141344cd1fd0a4f28419497f9722a3daafe3b4186f6b6457e060405160405180910390a35050565b600080fd5b600073ffffffffffffffffffffffffffffffffffffffff82169050919050565b60006200023b826200020e565b9050919050565b6200024d816200022e565b81146200025957600080fd5b50565b6000815190506200026d8162000242565b92915050565b6000602082840312156200028c576200028b62000209565b5b60006200029c848285016200025c565b91505092915050565b620002b0816200022e565b82525050565b6000602082019050620002cd6000830184620002a5565b92915050565b6146ae80620002e36000396000f3fe608060405234801561001057600080fd5b50600436106103db5760003560e01c8063983d896e1161020a578063da6510b411610125578063e88067e8116100b8578063f2fde38b11610087578063f2fde38b14610ab5578063f706555b14610ad1578063f864233114610aef578063fb897ce414610b0d578063fc84d91314610b42576103db565b8063e88067e814610a53578063e979ca4a14610a6f578063eacf59c814610a79578063eef1be2c14610a97576103db565b8063e1f1c4a7116100f4578063e1f1c4a7146109dd578063e3161ddd146109fb578063e4147ca214610a05578063e4941c3914610a23576103db565b8063da6510b414610979578063dcebf68114610997578063de5f8d93146109b5578063e0c9bc62146109bf576103db565b8063a29a7ab01161019d578063ce28c1bf1161016c578063ce28c1bf14610929578063d01c44cd14610947578063d2121b4e14610951578063d2522baa1461096f576103db565b8063a29a7ab01461089f578063a95d5a60146108cf578063b3def2f5146108ed578063cda80bfa1461090b576103db565b80639d1b464a116101d95780639d1b464a146108275780639f55d64c14610845578063a2309ff814610863578063a28aee1514610881576103db565b8063983d896e146107af5780639b565faa146107cd5780639c41ee67146107eb5780639d14b2a214610809576103db565b80633ed620a4116102fa578063763f62061161028d5780638e8b6c881161025c5780638e8b6c88146107395780639231cf7414610755578063934b7c5414610773578063945c3ebd14610791576103db565b8063763f6206146106b8578063771aceef146106d857806389e59ea0146106fd5780638da5cb5b1461071b576103db565b806352aa8a5e116102c957806352aa8a5e1461063e5780635e147f901461065c578063715018a61461067a57806374c7773e14610684576103db565b80633ed620a4146105dc578063458f8f94146105f85780634641257d146106165780634897fffb14610620576103db565b80631959a002116103725780632b5615d2116103415780632b5615d21461056457806336be3538146105825780633a03171c146105a05780633eceb63e146105be576103db565b80631959a002146104d557806321cccba21461050a578063277c19b0146105285780632914655514610546576103db565b8063091075a9116103ae578063091075a91461045a5780630c2330a51461047857806310d60dc414610496578063123d1179146104b7576103db565b80630197d972146103e0578063033d30fe146103fe57806303e45a4b1461041a5780630420bace1461043c575b600080fd5b6103e8610b60565b6040516103f59190613842565b60405180910390f35b610418600480360381019061041391906138c0565b610b67565b005b610422610c22565b604051610433959493929190613964565b60405180910390f35b610444610d6f565b6040516104519190613842565b60405180910390f35b610462610d7b565b60405161046f9190613842565b60405180910390f35b610480610dcb565b60405161048d9190613842565b60405180910390f35b61049e610dd1565b6040516104ae94939291906139b7565b60405180910390f35b6104bf610e5f565b6040516104cc9190613a15565b60405180910390f35b6104ef60048036038101906104ea91906138c0565b610e83565b60405161050196959493929190613a30565b60405180910390f35b610512610ebf565b60405161051f9190613842565b60405180910390f35b610530610ecb565b60405161053d9190613842565b60405180910390f35b61054e610ed0565b60405161055b9190613af0565b60405180910390f35b61056c610ef6565b6040516105799190613842565b60405180910390f35b61058a610f02565b6040516105979190613842565b60405180910390f35b6105a8610f08565b6040516105b59190613842565b60405180910390f35b6105c6610f17565b6040516105d39190613842565b60405180910390f35b6105f660048036038101906105f19190613b37565b610f1d565b005b610600610fd5565b60405161060d9190613842565b60405180910390f35b61061e610fde565b005b6106286112ae565b6040516106359190613bab565b60405180910390f35b6106466112d4565b6040516106539190613842565b60405180910390f35b6106646112e9565b6040516106719190613a15565b60405180910390f35b61068261130d565b005b61069e600480360381019061069991906138c0565b611321565b6040516106af959493929190613bc6565b60405180910390f35b6106c0611427565b6040516106cf93929190613c19565b60405180910390f35b6106e061144c565b6040516106f4989796959493929190613c50565b60405180910390f35b6107056114e8565b6040516107129190613842565b60405180910390f35b6107236114ed565b6040516107309190613cdd565b60405180910390f35b610753600480360381019061074e91906138c0565b611516565b005b61075d611522565b60405161076a9190613842565b60405180910390f35b61077b611528565b6040516107889190613842565b60405180910390f35b61079961152e565b6040516107a69190613842565b60405180910390f35b6107b761153c565b6040516107c49190613842565b60405180910390f35b6107d5611541565b6040516107e29190613d19565b60405180910390f35b6107f3611567565b6040516108009190613842565b60405180910390f35b61081161156c565b60405161081e9190613842565b60405180910390f35b61082f611572565b60405161083c9190613842565b60405180910390f35b61084d611578565b60405161085a9190613842565b60405180910390f35b61086b611587565b6040516108789190613842565b60405180910390f35b61088961158d565b6040516108969190613842565b60405180910390f35b6108b960048036038101906108b491906138c0565b6115a9565b6040516108c69190613842565b60405180910390f35b6108d76115c1565b6040516108e49190613842565b60405180910390f35b6108f56115cd565b6040516109029190613842565b60405180910390f35b6109136115d3565b6040516109209190613842565b60405180910390f35b6109316115de565b60405161093e9190613842565b60405180910390f35b61094f6115ed565b005b610959611888565b6040516109669190613842565b60405180910390f35b61097761188e565b005b610981611a20565b60405161098e9190613842565b60405180910390f35b61099f611a26565b6040516109ac9190613842565b60405180910390f35b6109bd611a32565b005b6109c7611c3b565b6040516109d49190613a15565b60405180910390f35b6109e5611c5f565b6040516109f29190613842565b60405180910390f35b610a03611c65565b005b610a0d611de3565b604051610a1a9190613842565b60405180910390f35b610a3d6004803603810190610a3891906138c0565b611f64565b604051610a4a9190613842565b60405180910390f35b610a6d6004803603810190610a6891906138c0565b6120c8565b005b610a77612183565b005b610a81612414565b604051610a8e9190613842565b60405180910390f35b610a9f61241b565b604051610aac9190613842565b60405180910390f35b610acf6004803603810190610aca91906138c0565b612421565b005b610ad96124a7565b604051610ae69190613842565b60405180910390f35b610af76124ad565b604051610b049190613842565b60405180910390f35b610b276004803603810190610b2291906138c0565b6124b3565b604051610b3996959493929190613a30565b60405180910390f35b610b4a6125e5565b604051610b579190613842565b60405180910390f35b62278d0081565b610b6f6125eb565b600073ffffffffffffffffffffffffffffffffffffffff168173ffffffffffffffffffffffffffffffffffffffff1603610bde576040517f08c379a0000000000000000000000000000000000000000000000000000000008152600401610bd590613d91565b60405180910390fd5b80600360006101000a81548173ffffffffffffffffffffffffffffffffffffffff021916908373ffffffffffffffffffffffffffffffffffffffff16021790555050565b6000806000806000600560000160009054906101000a900460ff1694506005600101549350600560020154925060006003811115610c6357610c626138ed565b5b856003811115610c7657610c756138ed565b5b03610c9857846000806000610c89611de3565b94509450945094509450610d68565b600060056001015442610cab9190613de0565b9050600080600380811115610cc357610cc26138ed565b5b886003811115610cd657610cd56138ed565b5b03610cf05762015180915066b1a2bc2ec500009050610d43565b60026003811115610d0457610d036138ed565b5b886003811115610d1757610d166138ed565b5b03610d315761a8c091506702c68af0bb1400009050610d42565b61384091506706f05b59d3b2000090505b5b81831015610d5c578282610d579190613de0565b610d5f565b60005b94508093505050505b9091929394565b6706f05b59d3b2000081565b600080610d86611de3565b90506ec097ce7bc90715b34b9f100000000081600b5469065a4da25d3016c00000610db19190613e14565b610dbb9190613e14565b610dc59190613e85565b91505090565b61138881565b600080600080600e549350600b5492506a05ca4ec2a79a7f670000006001600e54610dfc9190613eb6565b610e069190613e14565b915060006a05ca4ec2a79a7f67000000600e54610e239190613e14565b600c54610e309190613de0565b90506a05ca4ec2a79a7f6700000061271082610e4c9190613e14565b610e569190613e85565b91505090919293565b7fffffffffffffffffffffffffffffffffffffffffffffffffffffffffffffffe781565b60126020528060005260406000206000915090508060000154908060010154908060020154908060030154908060040154908060050154905086565b6714d1120d7b16000081565b60c881565b600360009054906101000a900473ffffffffffffffffffffffffffffffffffffffff1681565b67016345785d8a000081565b61384081565b6a52b7d2dcc80cd2e400000081565b61a8c081565b610f256125eb565b600083118015610f355750600082115b8015610f415750600081115b610f80576040517f08c379a0000000000000000000000000000000000000000000000000000000008152600401610f7790613f36565b60405180910390fd5b82600f8190555081601081905550806011819055507f15819dd2fd9f6418b142e798d08a18d0bf06ea368f4480b7b0d3f75bd966bc48838383604051610fc893929190613f56565b60405180910390a1505050565b64e8d4a5100081565b610fe6612672565b6000339050610ff4816126b8565b6000601260008373ffffffffffffffffffffffffffffffffffffffff1673ffffffffffffffffffffffffffffffffffffffff168152602001908152602001600020905060008160020154905060008111611083576040517f08c379a000000000000000000000000000000000000000000000000000000000815260040161107a90613fd9565b60405180910390fd5b6a39e7139a8c08fa06000000600c54106110d2576040517f08c379a00000000000000000000000000000000000000000000000000000000081526004016110c990614045565b60405180910390fd5b6a39e7139a8c08fa0600000081600c546110ec9190613eb6565b111561110e57600c546a39e7139a8c08fa0600000061110b9190613de0565b90505b600082600201819055508082600401600082825461112c9190613eb6565b925050819055506000826003015403611149574282600301819055505b80600c600082825461115b9190613eb6565b92505081905550600460009054906101000a900473ffffffffffffffffffffffffffffffffffffffff1673ffffffffffffffffffffffffffffffffffffffff166340c10f1930836040518363ffffffff1660e01b81526004016111bf929190614065565b600060405180830381600087803b1580156111d957600080fd5b505af11580156111ed573d6000803e3d6000fd5b505050506111f9612a2f565b6112038382612af9565b8273ffffffffffffffffffffffffffffffffffffffff167fbc8fb63d817de4fabea2108e9b7eefca87245899f4b357636c26b5cad02ec5b4826040516112499190613842565b60405180910390a28273ffffffffffffffffffffffffffffffffffffffff167f8fe19f160f86d04fb1a90dde93e5e1a47df0810685adf4b990153c107d7b3924824260405161129992919061408e565b60405180910390a25050506112ac6136b1565b565b600460009054906101000a900473ffffffffffffffffffffffffffffffffffffffff1681565b60006112e4600f546010546136ba565b905090565b7ffffffffffffffffffffffffffffffffffffffffffffffffffffffffffffffff681565b6113156125eb565b61131f600061375d565b565b600080600080600080601260008873ffffffffffffffffffffffffffffffffffffffff1673ffffffffffffffffffffffffffffffffffffffff16815260200190815260200160002090508060000154955061137b87611f64565b94508060040154935080600501549250600081600301541180156113a3575060008160040154115b1561141d5760008160030154426113ba9190613de0565b9050600062278d0082106113d457826004015490506113f5565b62278d008284600401546113e89190613e14565b6113f29190613e85565b90505b82600501548111611407576000611418565b8260050154816114179190613de0565b5b935050505b5091939590929450565b60058060000160009054906101000a900460ff16908060010154908060020154905083565b600080600080600080600080600c5497506a39e7139a8c08fa060000009650600b549550611478611de3565b9450600a5493506201518069065a4da25d3016c000006114989190613e85565b92506ec097ce7bc90715b34b9f100000000085600b5469065a4da25d3016c000006114c39190613e14565b6114cd9190613e14565b6114d79190613e85565b9150600e5490509091929394959697565b601481565b60008060009054906101000a900473ffffffffffffffffffffffffffffffffffffffff16905090565b61151f816126b8565b50565b60095481565b600d5481565b69065a4da25d3016c0000081565b605f81565b600260009054906101000a900473ffffffffffffffffffffffffffffffffffffffff1681565b603281565b600a5481565b600f5481565b6a05ca4ec2a79a7f6700000081565b600c5481565b6201518069065a4da25d3016c000006115a69190613e85565b81565b60136020528060005260406000206000915090505481565b6702c68af0bb14000081565b600b5481565b66b1a2bc2ec5000081565b6a39e7139a8c08fa0600000081565b6115f5612672565b60003390506000601260008373ffffffffffffffffffffffffffffffffffffffff1673ffffffffffffffffffffffffffffffffffffffff16815260200190815260200160002090506000816004015411611684576040517f08c379a000000000000000000000000000000000000000000000000000000000815260040161167b90614103565b60405180910390fd5b60008160030154116116cb576040517f08c379a00000000000000000000000000000000000000000000000000000000081526004016116c29061416f565b60405180910390fd5b60008160030154426116dd9190613de0565b9050600062278d0082106116f75782600401549050611718565b62278d0082846004015461170b9190613e14565b6117159190613e85565b90505b600083600501548261172a9190613de0565b90506000811161176f576040517f08c379a0000000000000000000000000000000000000000000000000000000008152600401611766906141db565b60405180910390fd5b808460050160008282546117839190613eb6565b92505081905550600460009054906101000a900473ffffffffffffffffffffffffffffffffffffffff1673ffffffffffffffffffffffffffffffffffffffff1663a9059cbb86836040518363ffffffff1660e01b81526004016117e7929190614065565b6020604051808303816000875af1158015611806573d6000803e3d6000fd5b505050506040513d601f19601f8201168201806040525081019061182a9190614233565b508473ffffffffffffffffffffffffffffffffffffffff167f9fe9b7be9d151c7a8b6de49a1312ff27a15096d0d1d12999af85fe4310e0b125826040516118719190613842565b60405180910390a250505050506118866136b1565b565b60105481565b60006011540315611a1e576000601154600f546118ab9190614260565b905060006011546064836118bf91906142a3565b6118c9919061431b565b905060007fffffffffffffffffffffffffffffffffffffffffffffffffffffffffffffffe782136118fd576003905061195b565b7ffffffffffffffffffffffffffffffffffffffffffffffffffffffffffffffff1821361192d576002905061195a565b7ffffffffffffffffffffffffffffffffffffffffffffffffffffffffffffffff6821361195957600190505b5b5b600560000160009054906101000a900460ff1660038111156119805761197f6138ed565b5b816003811115611993576119926138ed565b5b1115611a1a5780600560000160006101000a81548160ff021916908360038111156119c1576119c06138ed565b5b021790555042600560010181905550600f546005600201819055507f4fa52a45d7e5a216674f536c9e84f867dce6e9a6c6b5fe88f640855bf92256818142600f54604051611a1193929190613c19565b60405180910390a15b5050505b565b6101f481565b671bc16d674ec8000081565b611a3a6125eb565b60006003811115611a4e57611a4d6138ed565b5b600560000160009054906101000a900460ff166003811115611a7357611a726138ed565b5b03611ab3576040517f08c379a0000000000000000000000000000000000000000000000000000000008152600401611aaa906143d1565b60405180910390fd5b600060056001015442611ac69190613de0565b90506000600380811115611add57611adc6138ed565b5b600560000160009054906101000a900460ff166003811115611b0257611b016138ed565b5b03611b1257620151809050611b61565b60026003811115611b2657611b256138ed565b5b600560000160009054906101000a900460ff166003811115611b4b57611b4a6138ed565b5b03611b5a5761a8c09050611b60565b61384090505b5b80821015611ba4576040517f08c379a0000000000000000000000000000000000000000000000000000000008152600401611b9b9061443d565b60405180910390fd5b6000600560000160009054906101000a900460ff1690506000600560000160006101000a81548160ff02191690836003811115611be457611be36138ed565b5b0217905550600060056001018190555060006005600201819055507f07130c8b39a90581223fe2d149b6458e7d26925c0ea5c3156721b96e564c365981604051611c2e919061445d565b60405180910390a1505050565b7ffffffffffffffffffffffffffffffffffffffffffffffffffffffffffffffff181565b61271081565b600954421115611de1576000600a5403611c855742600981905550611de1565b600060095442611c959190613de0565b90506000611ca1611de3565b905060006ec097ce7bc90715b34b9f100000000082600b546201518069065a4da25d3016c00000611cd29190613e85565b86611cdd9190613e14565b611ce79190613e14565b611cf19190613e14565b611cfb9190613e85565b90506a39e7139a8c08fa0600000081600c54611d179190613eb6565b1115611d5557600c546a39e7139a8c08fa0600000011611d38576000611d52565b600c546a39e7139a8c08fa06000000611d519190613de0565b5b90505b6000811115611d9557600a5464e8d4a5100082611d729190613e14565b611d7c9190613e85565b60086000828254611d8d9190613eb6565b925050819055505b426009819055507f17b8644f386d1c7c7138ef98b3c8035622bbe94d7be9b26f71d2654a547c2943600854600954600a54604051611dd593929190613f56565b60405180910390a15050505b565b6000806003811115611df857611df76138ed565b5b600560000160009054906101000a900460ff166003811115611e1d57611e1c6138ed565b5b14611f5057600060056001015442611e359190613de0565b9050600380811115611e4a57611e496138ed565b5b600560000160009054906101000a900460ff166003811115611e6f57611e6e6138ed565b5b03611e945762015180811015611e8f5766b1a2bc2ec50000915050611f61565b611f4e565b60026003811115611ea857611ea76138ed565b5b600560000160009054906101000a900460ff166003811115611ecd57611ecc6138ed565b5b03611ef25761a8c0811015611eed576702c68af0bb140000915050611f61565b611f4d565b60016003811115611f0657611f056138ed565b5b600560000160009054906101000a900460ff166003811115611f2b57611f2a6138ed565b5b03611f4c57613840811015611f4b576706f05b59d3b20000915050611f61565b5b5b5b505b611f5e600f546010546136ba565b90505b90565b600080601260008473ffffffffffffffffffffffffffffffffffffffff1673ffffffffffffffffffffffffffffffffffffffff16815260200190815260200160002090506000600854905060095442118015611fc257506000600a54115b1561206e57600060095442611fd79190613de0565b90506000611fe3611de3565b905060006ec097ce7bc90715b34b9f100000000082600b546201518069065a4da25d3016c000006120149190613e85565b8661201f9190613e14565b6120299190613e14565b6120339190613e14565b61203d9190613e85565b9050600a5464e8d4a51000826120539190613e14565b61205d9190613e85565b846120689190613eb6565b93505050505b600080836000015411156120ae57826001015464e8d4a510008385600001546120979190613e14565b6120a19190613e85565b6120ab9190613de0565b90505b8260020154816120be9190613eb6565b9350505050919050565b6120d06125eb565b600073ffffffffffffffffffffffffffffffffffffffff168173ffffffffffffffffffffffffffffffffffffffff160361213f576040517f08c379a000000000000000000000000000000000000000000000000000000000815260040161213690613d91565b60405180910390fd5b80600260006101000a81548173ffffffffffffffffffffffffffffffffffffffff021916908373ffffffffffffffffffffffffffffffffffffffff16021790555050565b61218b612672565b60003390506000601260008373ffffffffffffffffffffffffffffffffffffffff1673ffffffffffffffffffffffffffffffffffffffff1681526020019081526020016000209050806005015481600401541161221d576040517f08c379a0000000000000000000000000000000000000000000000000000000008152600401612214906144c4565b60405180910390fd5b6000816005015482600401546122339190613de0565b90506000612710611388836122489190613e14565b6122529190613e85565b9050600081836122629190613de0565b905083600401548460050181905550600460009054906101000a900473ffffffffffffffffffffffffffffffffffffffff1673ffffffffffffffffffffffffffffffffffffffff1663a9059cbb86836040518363ffffffff1660e01b81526004016122ce929190614065565b6020604051808303816000875af11580156122ed573d6000803e3d6000fd5b505050506040513d601f19601f820116820180604052508101906123119190614233565b50600460009054906101000a900473ffffffffffffffffffffffffffffffffffffffff1673ffffffffffffffffffffffffffffffffffffffff1663a9059cbb61dead846040518363ffffffff1660e01b8152600401612371929190614065565b6020604051808303816000875af1158015612390573d6000803e3d6000fd5b505050506040513d601f19601f820116820180604052508101906123b49190614233565b508473ffffffffffffffffffffffffffffffffffffffff167f92207ec016968e0ee608b41c92470ff10e9f810a8dec5f40901974ac75ed498e82846040516123fd92919061408e565b60405180910390a250505050506124126136b1565b565b6201518081565b60085481565b6124296125eb565b600073ffffffffffffffffffffffffffffffffffffffff168173ffffffffffffffffffffffffffffffffffffffff160361249b5760006040517f1e4fbdf70000000000000000000000000000000000000000000000000000000081526004016124929190613cdd565b60405180910390fd5b6124a48161375d565b50565b6103e881565b60115481565b6000806000806000806000601260008973ffffffffffffffffffffffffffffffffffffffff1673ffffffffffffffffffffffffffffffffffffffff16815260200190815260200160002090508060040154965080600501549550806003015494506000816003015411801561252c575060008160040154115b156125db5760008160030154426125439190613de0565b9050600062278d008210612562578260040154905061271093506125a1565b62278d008284600401546125769190613e14565b6125809190613e85565b905062278d00612710836125949190613e14565b61259e9190613e85565b93505b826005015481116125b35760006125c4565b8260050154816125c39190613de0565b5b95508083600401546125d69190613de0565b945050505b5091939550919395565b600e5481565b6125f3613821565b73ffffffffffffffffffffffffffffffffffffffff166126116114ed565b73ffffffffffffffffffffffffffffffffffffffff161461267057612634613821565b6040517f118cdaa70000000000000000000000000000000000000000000000000000000081526004016126679190613cdd565b60405180910390fd5b565b6002600154036126ae576040517f3ee5aeb500000000000000000000000000000000000000000000000000000000815260040160405180910390fd5b6002600181905550565b6126c0611c65565b6000601260008373ffffffffffffffffffffffffffffffffffffffff1673ffffffffffffffffffffffffffffffffffffffff168152602001908152602001600020905060008073ffffffffffffffffffffffffffffffffffffffff16600360009054906101000a900473ffffffffffffffffffffffffffffffffffffffff1673ffffffffffffffffffffffffffffffffffffffff16146127f957600360009054906101000a900473ffffffffffffffffffffffffffffffffffffffff1673ffffffffffffffffffffffffffffffffffffffff1663ab0229a0846040518263ffffffff1660e01b81526004016127b59190613cdd565b602060405180830381865afa1580156127d2573d6000803e3d6000fd5b505050506040513d601f19601f820116820180604052508101906127f691906144f9565b90505b60008073ffffffffffffffffffffffffffffffffffffffff16600260009054906101000a900473ffffffffffffffffffffffffffffffffffffffff1673ffffffffffffffffffffffffffffffffffffffff16146128ef57600260009054906101000a900473ffffffffffffffffffffffffffffffffffffffff1673ffffffffffffffffffffffffffffffffffffffff166304d1334f856040518263ffffffff1660e01b81526004016128ab9190613cdd565b602060405180830381865afa1580156128c8573d6000803e3d6000fd5b505050506040513d601f19601f820116820180604052508101906128ec91906144f9565b90505b6000612710826127106129029190613eb6565b8461290d9190613e14565b6129179190613e85565b9050600084600001541115612982576000846001015464e8d4a5100060085487600001546129459190613e14565b61294f9190613e85565b6129599190613de0565b9050600081111561298057808560020160008282546129789190613eb6565b925050819055505b505b808460000154600a546129959190613de0565b61299f9190613eb6565b600a8190555080846000018190555064e8d4a51000600854826129c29190613e14565b6129cc9190613e85565b84600101819055508473ffffffffffffffffffffffffffffffffffffffff167fdfc331ca16b8c4320a402867e832423d16ad3de953e474a499baf3697aa9e894828660010154604051612a2092919061408e565b60405180910390a25050505050565b5b6a05ca4ec2a79a7f670000006001600e54612a4b9190613eb6565b612a559190613e14565b600c5410612af7576064605f600b54612a6e9190613e14565b612a789190613e85565b600b81905550600e6000815480929190612a9190614526565b91905055506a05ca4ec2a79a7f67000000600e54612aaf9190613e14565b600d819055507fde141711fef892cdaea55f1f6a85e241382fcefc69efdb496eff235992a18ed4600b54600c54604051612aea92919061408e565b60405180910390a1612a30565b565b600073ffffffffffffffffffffffffffffffffffffffff16600260009054906101000a900473ffffffffffffffffffffffffffffffffffffffff1673ffffffffffffffffffffffffffffffffffffffff1603156136ad576000600260009054906101000a900473ffffffffffffffffffffffffffffffffffffffff1673ffffffffffffffffffffffffffffffffffffffff16634a9fefc7846040518263ffffffff1660e01b8152600401612bad9190613cdd565b602060405180830381865afa158015612bca573d6000803e3d6000fd5b505050506040513d601f19601f82011682018060405250810190612bee9190614583565b9050600073ffffffffffffffffffffffffffffffffffffffff168173ffffffffffffffffffffffffffffffffffffffff1603612c2a57506136ad565b60006127106103e884612c3d9190613e14565b612c479190613e85565b90506000811115612db95780600c6000828254612c649190613eb6565b92505081905550600460009054906101000a900473ffffffffffffffffffffffffffffffffffffffff1673ffffffffffffffffffffffffffffffffffffffff166340c10f1983836040518363ffffffff1660e01b8152600401612cc8929190614065565b600060405180830381600087803b158015612ce257600080fd5b505af1158015612cf6573d6000803e3d6000fd5b5050505080601360008473ffffffffffffffffffffffffffffffffffffffff1673ffffffffffffffffffffffffffffffffffffffff1681526020019081526020016000206000828254612d499190613eb6565b925050819055508373ffffffffffffffffffffffffffffffffffffffff168273ffffffffffffffffffffffffffffffffffffffff167fe679beb5d98a54fda65331587d36d13358e8bf295be15e932c482164f8fde95e836001604051612db09291906145eb565b60405180910390a35b6000600260009054906101000a900473ffffffffffffffffffffffffffffffffffffffff1673ffffffffffffffffffffffffffffffffffffffff16634a9fefc7846040518263ffffffff1660e01b8152600401612e169190613cdd565b602060405180830381865afa158015612e33573d6000803e3d6000fd5b505050506040513d601f19601f82011682018060405250810190612e579190614583565b9050600073ffffffffffffffffffffffffffffffffffffffff168173ffffffffffffffffffffffffffffffffffffffff161461301e5760006127106101f486612ea09190613e14565b612eaa9190613e85565b9050600081111561301c5780600c6000828254612ec79190613eb6565b92505081905550600460009054906101000a900473ffffffffffffffffffffffffffffffffffffffff1673ffffffffffffffffffffffffffffffffffffffff166340c10f1983836040518363ffffffff1660e01b8152600401612f2b929190614065565b600060405180830381600087803b158015612f4557600080fd5b505af1158015612f59573d6000803e3d6000fd5b5050505080601360008473ffffffffffffffffffffffffffffffffffffffff1673ffffffffffffffffffffffffffffffffffffffff1681526020019081526020016000206000828254612fac9190613eb6565b925050819055508573ffffffffffffffffffffffffffffffffffffffff168273ffffffffffffffffffffffffffffffffffffffff167fe679beb5d98a54fda65331587d36d13358e8bf295be15e932c482164f8fde95e83600260405161301392919061464f565b60405180910390a35b505b600083905060008060005b600073ffffffffffffffffffffffffffffffffffffffff168473ffffffffffffffffffffffffffffffffffffffff16141580156130665750601481105b156131d7576000600260009054906101000a900473ffffffffffffffffffffffffffffffffffffffff1673ffffffffffffffffffffffffffffffffffffffff166370a08231866040518263ffffffff1660e01b81526004016130c89190613cdd565b602060405180830381865afa1580156130e5573d6000803e3d6000fd5b505050506040513d601f19601f8201168201806040525081019061310991906144f9565b11156131265783925060018161311f9190613eb6565b91506131d7565b600260009054906101000a900473ffffffffffffffffffffffffffffffffffffffff1673ffffffffffffffffffffffffffffffffffffffff16634a9fefc7856040518263ffffffff1660e01b81526004016131819190613cdd565b602060405180830381865afa15801561319e573d6000803e3d6000fd5b505050506040513d601f19601f820116820180604052508101906131c29190614583565b935080806131cf90614526565b915050613029565b600073ffffffffffffffffffffffffffffffffffffffff168373ffffffffffffffffffffffffffffffffffffffff16146136a557600061271060c88a61321d9190613e14565b6132279190613e85565b905060008111156133985780600c60008282546132449190613eb6565b92505081905550600460009054906101000a900473ffffffffffffffffffffffffffffffffffffffff1673ffffffffffffffffffffffffffffffffffffffff166340c10f1985836040518363ffffffff1660e01b81526004016132a8929190614065565b600060405180830381600087803b1580156132c257600080fd5b505af11580156132d6573d6000803e3d6000fd5b5050505080601360008673ffffffffffffffffffffffffffffffffffffffff1673ffffffffffffffffffffffffffffffffffffffff16815260200190815260200160002060008282546133299190613eb6565b925050819055508973ffffffffffffffffffffffffffffffffffffffff168473ffffffffffffffffffffffffffffffffffffffff167ff3e533e84b42dfb4015d2211af267b5d34a1aa0f60c4da1a9dd25698150868d8838660405161338f92919061408e565b60405180910390a35b6000600260009054906101000a900473ffffffffffffffffffffffffffffffffffffffff1673ffffffffffffffffffffffffffffffffffffffff16634a9fefc7866040518263ffffffff1660e01b81526004016133f59190613cdd565b602060405180830381865afa158015613412573d6000803e3d6000fd5b505050506040513d601f19601f820116820180604052508101906134369190614583565b9050600073ffffffffffffffffffffffffffffffffffffffff168173ffffffffffffffffffffffffffffffffffffffff161415801561351057506000600260009054906101000a900473ffffffffffffffffffffffffffffffffffffffff1673ffffffffffffffffffffffffffffffffffffffff166370a08231836040518263ffffffff1660e01b81526004016134cd9190613cdd565b602060405180830381865afa1580156134ea573d6000803e3d6000fd5b505050506040513d601f19601f8201168201806040525081019061350e91906144f9565b115b156136a257600061271060328c6135279190613e14565b6135319190613e85565b905060008111156136a05780600c600082825461354e9190613eb6565b92505081905550600460009054906101000a900473ffffffffffffffffffffffffffffffffffffffff1673ffffffffffffffffffffffffffffffffffffffff166340c10f1983836040518363ffffffff1660e01b81526004016135b2929190614065565b600060405180830381600087803b1580156135cc57600080fd5b505af11580156135e0573d6000803e3d6000fd5b5050505080601360008473ffffffffffffffffffffffffffffffffffffffff1673ffffffffffffffffffffffffffffffffffffffff16815260200190815260200160002060008282546136339190613eb6565b925050819055508573ffffffffffffffffffffffffffffffffffffffff168273ffffffffffffffffffffffffffffffffffffffff167f6b34e5a4dcbc992c5815bf8d0f03397ec7ecc2d9e760776d9de0c5e1d3919056836040516136979190613842565b60405180910390a35b505b50505b505050505050505b5050565b60018081905550565b60008082036136d357670de0b6b3a76400009050613757565b600082670de0b6b3a7640000856136ea9190613e14565b6136f49190613e85565b90506000670de0b6b3a7640000828361370d9190613e14565b6137179190613e85565b90506714d1120d7b160000811115613735576714d1120d7b16000090505b67016345785d8a00008110156137515767016345785d8a000090505b80925050505b92915050565b60008060009054906101000a900473ffffffffffffffffffffffffffffffffffffffff169050816000806101000a81548173ffffffffffffffffffffffffffffffffffffffff021916908373ffffffffffffffffffffffffffffffffffffffff1602179055508173ffffffffffffffffffffffffffffffffffffffff168173ffffffffffffffffffffffffffffffffffffffff167f8be0079c531659141344cd1fd0a4f28419497f9722a3daafe3b4186f6b6457e060405160405180910390a35050565b600033905090565b6000819050919050565b61383c81613829565b82525050565b60006020820190506138576000830184613833565b92915050565b600080fd5b600073ffffffffffffffffffffffffffffffffffffffff82169050919050565b600061388d82613862565b9050919050565b61389d81613882565b81146138a857600080fd5b50565b6000813590506138ba81613894565b92915050565b6000602082840312156138d6576138d561385d565b5b60006138e4848285016138ab565b91505092915050565b7f4e487b7100000000000000000000000000000000000000000000000000000000600052602160045260246000fd5b6004811061392d5761392c6138ed565b5b50565b600081905061393e8261391c565b919050565b600061394e82613930565b9050919050565b61395e81613943565b82525050565b600060a0820190506139796000830188613955565b6139866020830187613833565b6139936040830186613833565b6139a06060830185613833565b6139ad6080830184613833565b9695505050505050565b60006080820190506139cc6000830187613833565b6139d96020830186613833565b6139e66040830185613833565b6139f36060830184613833565b95945050505050565b6000819050919050565b613a0f816139fc565b82525050565b6000602082019050613a2a6000830184613a06565b92915050565b600060c082019050613a456000830189613833565b613a526020830188613833565b613a5f6040830187613833565b613a6c6060830186613833565b613a796080830185613833565b613a8660a0830184613833565b979650505050505050565b6000819050919050565b6000613ab6613ab1613aac84613862565b613a91565b613862565b9050919050565b6000613ac882613a9b565b9050919050565b6000613ada82613abd565b9050919050565b613aea81613acf565b82525050565b6000602082019050613b056000830184613ae1565b92915050565b613b1481613829565b8114613b1f57600080fd5b50565b600081359050613b3181613b0b565b92915050565b600080600060608486031215613b5057613b4f61385d565b5b6000613b5e86828701613b22565b9350506020613b6f86828701613b22565b9250506040613b8086828701613b22565b9150509250925092565b6000613b9582613abd565b9050919050565b613ba581613b8a565b82525050565b6000602082019050613bc06000830184613b9c565b92915050565b600060a082019050613bdb6000830188613833565b613be86020830187613833565b613bf56040830186613833565b613c026060830185613833565b613c0f6080830184613833565b9695505050505050565b6000606082019050613c2e6000830186613955565b613c3b6020830185613833565b613c486040830184613833565b949350505050565b600061010082019050613c66600083018b613833565b613c73602083018a613833565b613c806040830189613833565b613c8d6060830188613833565b613c9a6080830187613833565b613ca760a0830186613833565b613cb460c0830185613833565b613cc160e0830184613833565b9998505050505050505050565b613cd781613882565b82525050565b6000602082019050613cf26000830184613cce565b92915050565b6000613d0382613abd565b9050919050565b613d1381613cf8565b82525050565b6000602082019050613d2e6000830184613d0a565b92915050565b600082825260208201905092915050565b7f496e76616c696420616464726573730000000000000000000000000000000000600082015250565b6000613d7b600f83613d34565b9150613d8682613d45565b602082019050919050565b60006020820190508181036000830152613daa81613d6e565b9050919050565b7f4e487b7100000000000000000000000000000000000000000000000000000000600052601160045260246000fd5b6000613deb82613829565b9150613df683613829565b9250828203905081811115613e0e57613e0d613db1565b5b92915050565b6000613e1f82613829565b9150613e2a83613829565b9250828202613e3881613829565b91508282048414831517613e4f57613e4e613db1565b5b5092915050565b7f4e487b7100000000000000000000000000000000000000000000000000000000600052601260045260246000fd5b6000613e9082613829565b9150613e9b83613829565b925082613eab57613eaa613e56565b5b828204905092915050565b6000613ec182613829565b9150613ecc83613829565b9250828201905080821115613ee457613ee3613db1565b5b92915050565b7f496e76616c696420707269636573000000000000000000000000000000000000600082015250565b6000613f20600e83613d34565b9150613f2b82613eea565b602082019050919050565b60006020820190508181036000830152613f4f81613f13565b9050919050565b6000606082019050613f6b6000830186613833565b613f786020830185613833565b613f856040830184613833565b949350505050565b7f4e6f7468696e6720746f20686172766573740000000000000000000000000000600082015250565b6000613fc3601283613d34565b9150613fce82613f8d565b602082019050919050565b60006020820190508181036000830152613ff281613fb6565b9050919050565b7f4d696e696e672063617020726561636865640000000000000000000000000000600082015250565b600061402f601283613d34565b915061403a82613ff9565b602082019050919050565b6000602082019050818103600083015261405e81614022565b9050919050565b600060408201905061407a6000830185613cce565b6140876020830184613833565b9392505050565b60006040820190506140a36000830185613833565b6140b06020830184613833565b9392505050565b7f4e6f7468696e6720766573746564000000000000000000000000000000000000600082015250565b60006140ed600e83613d34565b91506140f8826140b7565b602082019050919050565b6000602082019050818103600083015261411c816140e0565b9050919050565b7f56657374696e67206e6f74207374617274656400000000000000000000000000600082015250565b6000614159601383613d34565b915061416482614123565b602082019050919050565b600060208201905081810360008301526141888161414c565b9050919050565b7f4e6f7468696e6720746f20636c61696d00000000000000000000000000000000600082015250565b60006141c5601083613d34565b91506141d08261418f565b602082019050919050565b600060208201905081810360008301526141f4816141b8565b9050919050565b60008115159050919050565b614210816141fb565b811461421b57600080fd5b50565b60008151905061422d81614207565b92915050565b6000602082840312156142495761424861385d565b5b60006142578482850161421e565b91505092915050565b600061426b826139fc565b9150614276836139fc565b925082820390508181126000841216828213600085121516171561429d5761429c613db1565b5b92915050565b60006142ae826139fc565b91506142b9836139fc565b92508282026142c7816139fc565b91507f800000000000000000000000000000000000000000000000000000000000000084146000841216156142ff576142fe613db1565b5b828205841483151761431457614313613db1565b5b5092915050565b6000614326826139fc565b9150614331836139fc565b92508261434157614340613e56565b5b600160000383147f80000000000000000000000000000000000000000000000000000000000000008314161561437a57614379613db1565b5b828205905092915050565b7f427265616b6572206e6f74206163746976650000000000000000000000000000600082015250565b60006143bb601283613d34565b91506143c682614385565b602082019050919050565b600060208201905081810360008301526143ea816143ae565b9050919050565b7f436f6f6c646f776e206e6f7420636f6d706c6574650000000000000000000000600082015250565b6000614427601583613d34565b9150614432826143f1565b602082019050919050565b600060208201905081810360008301526144568161441a565b9050919050565b60006020820190506144726000830184613955565b92915050565b7f4e6f7468696e6720746f2063617368206f757400000000000000000000000000600082015250565b60006144ae601383613d34565b91506144b982614478565b602082019050919050565b600060208201905081810360008301526144dd816144a1565b9050919050565b6000815190506144f381613b0b565b92915050565b60006020828403121561450f5761450e61385d565b5b600061451d848285016144e4565b91505092915050565b600061453182613829565b91507fffffffffffffffffffffffffffffffffffffffffffffffffffffffffffffffff820361456357614562613db1565b5b600182019050919050565b60008151905061457d81613894565b92915050565b6000602082840312156145995761459861385d565b5b60006145a78482850161456e565b91505092915050565b6000819050919050565b60006145d56145d06145cb846145b0565b613a91565b613829565b9050919050565b6145e5816145ba565b82525050565b60006040820190506146006000830185613833565b61460d60208301846145dc565b9392505050565b6000819050919050565b600061463961463461462f84614614565b613a91565b613829565b9050919050565b6146498161461e565b82525050565b60006040820190506146646000830185613833565b6146716020830184614640565b939250505056fea2646970667358221220ff08d527e4be3bd1a43739233897fa069dae3c96fe4c5ca1cc8b5283e642516464736f6c63430008140033",
  "linkReferences": {},
  "deployedLinkReferences": {}
}