{
  "_format": "hh-sol-artifact-1",
  "contractName": "IvyCore",
  "sourceName": "contracts/IvyCore.sol",
  "abi": [
    {
      "inputs": [
        {
          "internalType": "address",
          "name": "_ivyToken",
          "type": "address"
        }
      ],
      "stateMutability": "nonpayable",
      "type": "constructor"
    },
    {
      "inputs": [
        {
          "internalType": "address",
          "name": "owner",
          "type": "address"
        }
      ],
      "name": "OwnableInvalidOwner",
      "type": "error"
    },
    {
      "inputs": [
        {
          "internalType": "address",
          "name": "account",
          "type": "address"
        }
      ],
      "name": "OwnableUnauthorizedAccount",
      "type": "error"
    },
    {
      "inputs": [],
      "name": "ReentrancyGuardReentrantCall",
      "type": "error"
    },
    {
      "anonymous": false,
      "inputs": [
        {
          "indexed": false,
          "internalType": "enum IvyCore.BreakerLevel",
          "name": "previousLevel",
          "type": "uint8"
        }
      ],
      "name": "CircuitBreakerReset",
      "type": "event"
    },
    {
      "anonymous": false,
      "inputs": [
        {
          "indexed": false,
          "internalType": "enum IvyCore.BreakerLevel",
          "name": "level",
          "type": "uint8"
        },
        {
          "indexed": false,
          "internalType": "uint256",
          "name": "activationTime",
          "type": "uint256"
        },
        {
          "indexed": false,
          "internalType": "uint256",
          "name": "activationPrice",
          "type": "uint256"
        }
      ],
      "name": "CircuitBreakerTriggered",
      "type": "event"
    },
    {
      "anonymous": false,
      "inputs": [
        {
          "indexed": false,
          "internalType": "uint256",
          "name": "newEmissionFactor",
          "type": "uint256"
        },
        {
          "indexed": false,
          "internalType": "uint256",
          "name": "totalMinted",
          "type": "uint256"
        }
      ],
      "name": "HalvingOccurred",
      "type": "event"
    },
    {
      "anonymous": false,
      "inputs": [
        {
          "indexed": true,
          "internalType": "address",
          "name": "user",
          "type": "address"
        },
        {
          "indexed": false,
          "internalType": "uint256",
          "name": "received",
          "type": "uint256"
        },
        {
          "indexed": false,
          "internalType": "uint256",
          "name": "burned",
          "type": "uint256"
        }
      ],
      "name": "InstantCashOut",
      "type": "event"
    },
    {
      "anonymous": false,
      "inputs": [
        {
          "indexed": true,
          "internalType": "address",
          "name": "previousOwner",
          "type": "address"
        },
        {
          "indexed": true,
          "internalType": "address",
          "name": "newOwner",
          "type": "address"
        }
      ],
      "name": "OwnershipTransferred",
      "type": "event"
    },
    {
      "anonymous": false,
      "inputs": [
        {
          "indexed": true,
          "internalType": "address",
          "name": "receiver",
          "type": "address"
        },
        {
          "indexed": true,
          "internalType": "address",
          "name": "capturer",
          "type": "address"
        },
        {
          "indexed": false,
          "internalType": "uint256",
          "name": "amount",
          "type": "uint256"
        }
      ],
      "name": "PeerBonusPaid",
      "type": "event"
    },
    {
      "anonymous": false,
      "inputs": [
        {
          "indexed": false,
          "internalType": "uint256",
          "name": "accIvyPerShare",
          "type": "uint256"
        },
        {
          "indexed": false,
          "internalType": "uint256",
          "name": "lastRewardTime",
          "type": "uint256"
        },
        {
          "indexed": false,
          "internalType": "uint256",
          "name": "totalPoolBondPower",
          "type": "uint256"
        }
      ],
      "name": "PoolUpdated",
      "type": "event"
    },
    {
      "anonymous": false,
      "inputs": [
        {
          "indexed": true,
          "internalType": "address",
          "name": "oracle",
          "type": "address"
        }
      ],
      "name": "PriceOracleSet",
      "type": "event"
    },
    {
      "anonymous": false,
      "inputs": [
        {
          "indexed": false,
          "internalType": "uint256",
          "name": "currentPrice",
          "type": "uint256"
        },
        {
          "indexed": false,
          "internalType": "uint256",
          "name": "ma30Price",
          "type": "uint256"
        },
        {
          "indexed": false,
          "internalType": "uint256",
          "name": "price1hAgo",
          "type": "uint256"
        }
      ],
      "name": "PriceUpdated",
      "type": "event"
    },
    {
      "anonymous": false,
      "inputs": [
        {
          "indexed": true,
          "internalType": "address",
          "name": "referrer",
          "type": "address"
        },
        {
          "indexed": true,
          "internalType": "address",
          "name": "from",
          "type": "address"
        },
        {
          "indexed": false,
          "internalType": "uint256",
          "name": "amount",
          "type": "uint256"
        },
        {
          "indexed": false,
          "internalType": "uint256",
          "name": "level",
          "type": "uint256"
        }
      ],
      "name": "ReferralRewardPaid",
      "type": "event"
    },
    {
      "anonymous": false,
      "inputs": [
        {
          "indexed": true,
          "internalType": "address",
          "name": "user",
          "type": "address"
        },
        {
          "indexed": false,
          "internalType": "uint256",
          "name": "amount",
          "type": "uint256"
        }
      ],
      "name": "RewardsHarvested",
      "type": "event"
    },
    {
      "anonymous": false,
      "inputs": [
        {
          "indexed": true,
          "internalType": "address",
          "name": "capturer",
          "type": "address"
        },
        {
          "indexed": true,
          "internalType": "address",
          "name": "blockedUpline",
          "type": "address"
        },
        {
          "indexed": false,
          "internalType": "uint256",
          "name": "amount",
          "type": "uint256"
        },
        {
          "indexed": false,
          "internalType": "uint256",
          "name": "depth",
          "type": "uint256"
        }
      ],
      "name": "TeamBonusCaptured",
      "type": "event"
    },
    {
      "anonymous": false,
      "inputs": [
        {
          "indexed": false,
          "internalType": "bool",
          "name": "testMode",
          "type": "bool"
        }
      ],
      "name": "TestModeChanged",
      "type": "event"
    },
    {
      "anonymous": false,
      "inputs": [
        {
          "indexed": true,
          "internalType": "address",
          "name": "user",
          "type": "address"
        },
        {
          "indexed": false,
          "internalType": "uint256",
          "name": "bondPower",
          "type": "uint256"
        },
        {
          "indexed": false,
          "internalType": "uint256",
          "name": "rewardDebt",
          "type": "uint256"
        }
      ],
      "name": "UserSynced",
      "type": "event"
    },
    {
      "anonymous": false,
      "inputs": [
        {
          "indexed": true,
          "internalType": "address",
          "name": "user",
          "type": "address"
        },
        {
          "indexed": true,
          "internalType": "uint256",
          "name": "tokenId",
          "type": "uint256"
        },
        {
          "indexed": false,
          "internalType": "uint256",
          "name": "pendingIvy",
          "type": "uint256"
        },
        {
          "indexed": false,
          "internalType": "uint256",
          "name": "bonusPower",
          "type": "uint256"
        }
      ],
      "name": "VestedCompounded",
      "type": "event"
    },
    {
      "anonymous": false,
      "inputs": [
        {
          "indexed": true,
          "internalType": "address",
          "name": "user",
          "type": "address"
        },
        {
          "indexed": false,
          "internalType": "uint256",
          "name": "amount",
          "type": "uint256"
        }
      ],
      "name": "VestingClaimed",
      "type": "event"
    },
    {
      "anonymous": false,
      "inputs": [
        {
          "indexed": true,
          "internalType": "address",
          "name": "user",
          "type": "address"
        },
        {
          "indexed": false,
          "internalType": "uint256",
          "name": "amount",
          "type": "uint256"
        },
        {
          "indexed": false,
          "internalType": "uint256",
          "name": "startTime",
          "type": "uint256"
        }
      ],
      "name": "VestingStarted",
      "type": "event"
    },
    {
      "inputs": [],
      "name": "ACC_IVY_PRECISION",
      "outputs": [
        {
          "internalType": "uint256",
          "name": "",
          "type": "uint256"
        }
      ],
      "stateMutability": "view",
      "type": "function"
    },
    {
      "inputs": [],
      "name": "ALPHA_L1",
      "outputs": [
        {
          "internalType": "uint256",
          "name": "",
          "type": "uint256"
        }
      ],
      "stateMutability": "view",
      "type": "function"
    },
    {
      "inputs": [],
      "name": "ALPHA_L2",
      "outputs": [
        {
          "internalType": "uint256",
          "name": "",
          "type": "uint256"
        }
      ],
      "stateMutability": "view",
      "type": "function"
    },
    {
      "inputs": [],
      "name": "ALPHA_L3",
      "outputs": [
        {
          "internalType": "uint256",
          "name": "",
          "type": "uint256"
        }
      ],
      "stateMutability": "view",
      "type": "function"
    },
    {
      "inputs": [],
      "name": "BASE_DAILY_EMISSION",
      "outputs": [
        {
          "internalType": "uint256",
          "name": "",
          "type": "uint256"
        }
      ],
      "stateMutability": "view",
      "type": "function"
    },
    {
      "inputs": [],
      "name": "BASIS_POINTS",
      "outputs": [
        {
          "internalType": "uint256",
          "name": "",
          "type": "uint256"
        }
      ],
      "stateMutability": "view",
      "type": "function"
    },
    {
      "inputs": [],
      "name": "COOLDOWN_L1",
      "outputs": [
        {
          "internalType": "uint256",
          "name": "",
          "type": "uint256"
        }
      ],
      "stateMutability": "view",
      "type": "function"
    },
    {
      "inputs": [],
      "name": "COOLDOWN_L2",
      "outputs": [
        {
          "internalType": "uint256",
          "name": "",
          "type": "uint256"
        }
      ],
      "stateMutability": "view",
      "type": "function"
    },
    {
      "inputs": [],
      "name": "COOLDOWN_L3",
      "outputs": [
        {
          "internalType": "uint256",
          "name": "",
          "type": "uint256"
        }
      ],
      "stateMutability": "view",
      "type": "function"
    },
    {
      "inputs": [],
      "name": "DROP_L1",
      "outputs": [
        {
          "internalType": "int256",
          "name": "",
          "type": "int256"
        }
      ],
      "stateMutability": "view",
      "type": "function"
    },
    {
      "inputs": [],
      "name": "DROP_L2",
      "outputs": [
        {
          "internalType": "int256",
          "name": "",
          "type": "int256"
        }
      ],
      "stateMutability": "view",
      "type": "function"
    },
    {
      "inputs": [],
      "name": "DROP_L3",
      "outputs": [
        {
          "internalType": "int256",
          "name": "",
          "type": "int256"
        }
      ],
      "stateMutability": "view",
      "type": "function"
    },
    {
      "inputs": [],
      "name": "EMISSION_PER_SECOND",
      "outputs": [
        {
          "internalType": "uint256",
          "name": "",
          "type": "uint256"
        }
      ],
      "stateMutability": "view",
      "type": "function"
    },
    {
      "inputs": [],
      "name": "HALVING_DECAY",
      "outputs": [
        {
          "internalType": "uint256",
          "name": "",
          "type": "uint256"
        }
      ],
      "stateMutability": "view",
      "type": "function"
    },
    {
      "inputs": [],
      "name": "HALVING_THRESHOLD",
      "outputs": [
        {
          "internalType": "uint256",
          "name": "",
          "type": "uint256"
        }
      ],
      "stateMutability": "view",
      "type": "function"
    },
    {
      "inputs": [],
      "name": "HARD_CAP",
      "outputs": [
        {
          "internalType": "uint256",
          "name": "",
          "type": "uint256"
        }
      ],
      "stateMutability": "view",
      "type": "function"
    },
    {
      "inputs": [],
      "name": "INFINITE_RATE",
      "outputs": [
        {
          "internalType": "uint256",
          "name": "",
          "type": "uint256"
        }
      ],
      "stateMutability": "view",
      "type": "function"
    },
    {
      "inputs": [],
      "name": "INSTANT_CASH_PENALTY",
      "outputs": [
        {
          "internalType": "uint256",
          "name": "",
          "type": "uint256"
        }
      ],
      "stateMutability": "view",
      "type": "function"
    },
    {
      "inputs": [],
      "name": "L1_RATE",
      "outputs": [
        {
          "internalType": "uint256",
          "name": "",
          "type": "uint256"
        }
      ],
      "stateMutability": "view",
      "type": "function"
    },
    {
      "inputs": [],
      "name": "L2_RATE",
      "outputs": [
        {
          "internalType": "uint256",
          "name": "",
          "type": "uint256"
        }
      ],
      "stateMutability": "view",
      "type": "function"
    },
    {
      "inputs": [],
      "name": "MAX_PRICE_CHANGE_PERCENT",
      "outputs": [
        {
          "internalType": "uint256",
          "name": "",
          "type": "uint256"
        }
      ],
      "stateMutability": "view",
      "type": "function"
    },
    {
      "inputs": [],
      "name": "MAX_REFERRAL_DEPTH",
      "outputs": [
        {
          "internalType": "uint256",
          "name": "",
          "type": "uint256"
        }
      ],
      "stateMutability": "view",
      "type": "function"
    },
    {
      "inputs": [],
      "name": "MINING_CAP",
      "outputs": [
        {
          "internalType": "uint256",
          "name": "",
          "type": "uint256"
        }
      ],
      "stateMutability": "view",
      "type": "function"
    },
    {
      "inputs": [],
      "name": "PEER_BONUS_RATE",
      "outputs": [
        {
          "internalType": "uint256",
          "name": "",
          "type": "uint256"
        }
      ],
      "stateMutability": "view",
      "type": "function"
    },
    {
      "inputs": [],
      "name": "PID_CAP",
      "outputs": [
        {
          "internalType": "uint256",
          "name": "",
          "type": "uint256"
        }
      ],
      "stateMutability": "view",
      "type": "function"
    },
    {
      "inputs": [],
      "name": "PID_FLOOR",
      "outputs": [
        {
          "internalType": "uint256",
          "name": "",
          "type": "uint256"
        }
      ],
      "stateMutability": "view",
      "type": "function"
    },
    {
      "inputs": [],
      "name": "PID_K",
      "outputs": [
        {
          "internalType": "uint256",
          "name": "",
          "type": "uint256"
        }
      ],
      "stateMutability": "view",
      "type": "function"
    },
    {
      "inputs": [],
      "name": "VESTING_PERIOD",
      "outputs": [
        {
          "internalType": "uint256",
          "name": "",
          "type": "uint256"
        }
      ],
      "stateMutability": "view",
      "type": "function"
    },
    {
      "inputs": [],
      "name": "accIvyPerShare",
      "outputs": [
        {
          "internalType": "uint256",
          "name": "",
          "type": "uint256"
        }
      ],
      "stateMutability": "view",
      "type": "function"
    },
    {
      "inputs": [],
      "name": "breakerState",
      "outputs": [
        {
          "internalType": "enum IvyCore.BreakerLevel",
          "name": "currentLevel",
          "type": "uint8"
        },
        {
          "internalType": "uint256",
          "name": "activationTime",
          "type": "uint256"
        },
        {
          "internalType": "uint256",
          "name": "activationPrice",
          "type": "uint256"
        }
      ],
      "stateMutability": "view",
      "type": "function"
    },
    {
      "inputs": [],
      "name": "checkCircuitBreaker",
      "outputs": [],
      "stateMutability": "nonpayable",
      "type": "function"
    },
    {
      "inputs": [],
      "name": "claimVested",
      "outputs": [],
      "stateMutability": "nonpayable",
      "type": "function"
    },
    {
      "inputs": [
        {
          "internalType": "uint256",
          "name": "tokenId",
          "type": "uint256"
        }
      ],
      "name": "compoundVested",
      "outputs": [],
      "stateMutability": "nonpayable",
      "type": "function"
    },
    {
      "inputs": [],
      "name": "currentDailyEmission",
      "outputs": [
        {
          "internalType": "uint256",
          "name": "",
          "type": "uint256"
        }
      ],
      "stateMutability": "view",
      "type": "function"
    },
    {
      "inputs": [],
      "name": "currentPrice",
      "outputs": [
        {
          "internalType": "uint256",
          "name": "",
          "type": "uint256"
        }
      ],
      "stateMutability": "view",
      "type": "function"
    },
    {
      "inputs": [],
      "name": "dividendPool",
      "outputs": [
        {
          "internalType": "contract IDividendPool",
          "name": "",
          "type": "address"
        }
      ],
      "stateMutability": "view",
      "type": "function"
    },
    {
      "inputs": [],
      "name": "emissionFactor",
      "outputs": [
        {
          "internalType": "uint256",
          "name": "",
          "type": "uint256"
        }
      ],
      "stateMutability": "view",
      "type": "function"
    },
    {
      "inputs": [],
      "name": "genesisNode",
      "outputs": [
        {
          "internalType": "contract IGenesisNode",
          "name": "",
          "type": "address"
        }
      ],
      "stateMutability": "view",
      "type": "function"
    },
    {
      "inputs": [],
      "name": "getBreakerStatus",
      "outputs": [
        {
          "internalType": "enum IvyCore.BreakerLevel",
          "name": "level",
          "type": "uint8"
        },
        {
          "internalType": "uint256",
          "name": "activationTime",
          "type": "uint256"
        },
        {
          "internalType": "uint256",
          "name": "activationPrice",
          "type": "uint256"
        },
        {
          "internalType": "uint256",
          "name": "timeRemaining",
          "type": "uint256"
        },
        {
          "internalType": "uint256",
          "name": "forcedAlpha",
          "type": "uint256"
        }
      ],
      "stateMutability": "view",
      "type": "function"
    },
    {
      "inputs": [],
      "name": "getFinalMultiplier",
      "outputs": [
        {
          "internalType": "uint256",
          "name": "",
          "type": "uint256"
        }
      ],
      "stateMutability": "view",
      "type": "function"
    },
    {
      "inputs": [],
      "name": "getHalvingInfo",
      "outputs": [
        {
          "internalType": "uint256",
          "name": "_halvingCount",
          "type": "uint256"
        },
        {
          "internalType": "uint256",
          "name": "_emissionFactor",
          "type": "uint256"
        },
        {
          "internalType": "uint256",
          "name": "_nextHalvingAt",
          "type": "uint256"
        },
        {
          "internalType": "uint256",
          "name": "_progressToNextHalving",
          "type": "uint256"
        }
      ],
      "stateMutability": "view",
      "type": "function"
    },
    {
      "inputs": [],
      "name": "getPIDAlpha",
      "outputs": [
        {
          "internalType": "uint256",
          "name": "",
          "type": "uint256"
        }
      ],
      "stateMutability": "view",
      "type": "function"
    },
    {
      "inputs": [],
      "name": "getProtocolStats",
      "outputs": [
        {
          "internalType": "uint256",
          "name": "_totalMinted",
          "type": "uint256"
        },
        {
          "internalType": "uint256",
          "name": "_miningCap",
          "type": "uint256"
        },
        {
          "internalType": "uint256",
          "name": "_emissionFactor",
          "type": "uint256"
        },
        {
          "internalType": "uint256",
          "name": "_finalMultiplier",
          "type": "uint256"
        },
        {
          "internalType": "uint256",
          "name": "_totalPoolBondPower",
          "type": "uint256"
        },
        {
          "internalType": "uint256",
          "name": "_emissionPerSecond",
          "type": "uint256"
        },
        {
          "internalType": "uint256",
          "name": "_currentDailyEmission",
          "type": "uint256"
        },
        {
          "internalType": "uint256",
          "name": "_halvingCount",
          "type": "uint256"
        }
      ],
      "stateMutability": "view",
      "type": "function"
    },
    {
      "inputs": [
        {
          "internalType": "address",
          "name": "user",
          "type": "address"
        }
      ],
      "name": "getUserMiningStats",
      "outputs": [
        {
          "internalType": "uint256",
          "name": "bondPower",
          "type": "uint256"
        },
        {
          "internalType": "uint256",
          "name": "pendingRewards",
          "type": "uint256"
        },
        {
          "internalType": "uint256",
          "name": "totalVested",
          "type": "uint256"
        },
        {
          "internalType": "uint256",
          "name": "totalClaimed",
          "type": "uint256"
        },
        {
          "internalType": "uint256",
          "name": "claimableNow",
          "type": "uint256"
        }
      ],
      "stateMutability": "view",
      "type": "function"
    },
    {
      "inputs": [
        {
          "internalType": "address",
          "name": "user",
          "type": "address"
        }
      ],
      "name": "getVestingInfo",
      "outputs": [
        {
          "internalType": "uint256",
          "name": "totalVested",
          "type": "uint256"
        },
        {
          "internalType": "uint256",
          "name": "totalClaimed",
          "type": "uint256"
        },
        {
          "internalType": "uint256",
          "name": "vestingStartTime",
          "type": "uint256"
        },
        {
          "internalType": "uint256",
          "name": "claimableNow",
          "type": "uint256"
        },
        {
          "internalType": "uint256",
          "name": "remainingLocked",
          "type": "uint256"
        },
        {
          "internalType": "uint256",
          "name": "vestingProgress",
          "type": "uint256"
        }
      ],
      "stateMutability": "view",
      "type": "function"
    },
    {
      "inputs": [],
      "name": "halvingCount",
      "outputs": [
        {
          "internalType": "uint256",
          "name": "",
          "type": "uint256"
        }
      ],
      "stateMutability": "view",
      "type": "function"
    },
    {
      "inputs": [],
      "name": "harvest",
      "outputs": [],
      "stateMutability": "nonpayable",
      "type": "function"
    },
    {
      "inputs": [],
      "name": "instantCashOut",
      "outputs": [],
      "stateMutability": "nonpayable",
      "type": "function"
    },
    {
      "inputs": [],
      "name": "ivyBond",
      "outputs": [
        {
          "internalType": "contract IIvyBond",
          "name": "",
          "type": "address"
        }
      ],
      "stateMutability": "view",
      "type": "function"
    },
    {
      "inputs": [],
      "name": "ivyToken",
      "outputs": [
        {
          "internalType": "contract IvyToken",
          "name": "",
          "type": "address"
        }
      ],
      "stateMutability": "view",
      "type": "function"
    },
    {
      "inputs": [],
      "name": "lastHalvingMinted",
      "outputs": [
        {
          "internalType": "uint256",
          "name": "",
          "type": "uint256"
        }
      ],
      "stateMutability": "view",
      "type": "function"
    },
    {
      "inputs": [],
      "name": "lastPriceUpdateTime",
      "outputs": [
        {
          "internalType": "uint256",
          "name": "",
          "type": "uint256"
        }
      ],
      "stateMutability": "view",
      "type": "function"
    },
    {
      "inputs": [],
      "name": "lastRewardTime",
      "outputs": [
        {
          "internalType": "uint256",
          "name": "",
          "type": "uint256"
        }
      ],
      "stateMutability": "view",
      "type": "function"
    },
    {
      "inputs": [],
      "name": "ma30Price",
      "outputs": [
        {
          "internalType": "uint256",
          "name": "",
          "type": "uint256"
        }
      ],
      "stateMutability": "view",
      "type": "function"
    },
    {
      "inputs": [],
      "name": "oracle",
      "outputs": [
        {
          "internalType": "contract IPriceOracle",
          "name": "",
          "type": "address"
        }
      ],
      "stateMutability": "view",
      "type": "function"
    },
    {
      "inputs": [],
      "name": "owner",
      "outputs": [
        {
          "internalType": "address",
          "name": "",
          "type": "address"
        }
      ],
      "stateMutability": "view",
      "type": "function"
    },
    {
      "inputs": [
        {
          "internalType": "address",
          "name": "user",
          "type": "address"
        }
      ],
      "name": "pendingIvy",
      "outputs": [
        {
          "internalType": "uint256",
          "name": "",
          "type": "uint256"
        }
      ],
      "stateMutability": "view",
      "type": "function"
    },
    {
      "inputs": [],
      "name": "price1hAgo",
      "outputs": [
        {
          "internalType": "uint256",
          "name": "",
          "type": "uint256"
        }
      ],
      "stateMutability": "view",
      "type": "function"
    },
    {
      "inputs": [
        {
          "internalType": "address",
          "name": "",
          "type": "address"
        }
      ],
      "name": "referralRewardsEarned",
      "outputs": [
        {
          "internalType": "uint256",
          "name": "",
          "type": "uint256"
        }
      ],
      "stateMutability": "view",
      "type": "function"
    },
    {
      "inputs": [],
      "name": "renounceOwnership",
      "outputs": [],
      "stateMutability": "nonpayable",
      "type": "function"
    },
    {
      "inputs": [],
      "name": "resetCircuitBreaker",
      "outputs": [],
      "stateMutability": "nonpayable",
      "type": "function"
    },
    {
      "inputs": [
        {
          "internalType": "address",
          "name": "_dividendPool",
          "type": "address"
        }
      ],
      "name": "setDividendPool",
      "outputs": [],
      "stateMutability": "nonpayable",
      "type": "function"
    },
    {
      "inputs": [
        {
          "internalType": "address",
          "name": "_genesisNode",
          "type": "address"
        }
      ],
      "name": "setGenesisNode",
      "outputs": [],
      "stateMutability": "nonpayable",
      "type": "function"
    },
    {
      "inputs": [
        {
          "internalType": "address",
          "name": "_ivyBond",
          "type": "address"
        }
      ],
      "name": "setIvyBond",
      "outputs": [],
      "stateMutability": "nonpayable",
      "type": "function"
    },
    {
      "inputs": [
        {
          "internalType": "address",
          "name": "_oracle",
          "type": "address"
        }
      ],
      "name": "setOracle",
      "outputs": [],
      "stateMutability": "nonpayable",
      "type": "function"
    },
    {
      "inputs": [
        {
          "internalType": "bool",
          "name": "_testMode",
          "type": "bool"
        }
      ],
      "name": "setTestMode",
      "outputs": [],
      "stateMutability": "nonpayable",
      "type": "function"
    },
    {
      "inputs": [
        {
          "internalType": "address",
          "name": "user",
          "type": "address"
        }
      ],
      "name": "syncUser",
      "outputs": [],
      "stateMutability": "nonpayable",
      "type": "function"
    },
    {
      "inputs": [],
      "name": "testMode",
      "outputs": [
        {
          "internalType": "bool",
          "name": "",
          "type": "bool"
        }
      ],
      "stateMutability": "view",
      "type": "function"
    },
    {
      "inputs": [],
      "name": "totalMinted",
      "outputs": [
        {
          "internalType": "uint256",
          "name": "",
          "type": "uint256"
        }
      ],
      "stateMutability": "view",
      "type": "function"
    },
    {
      "inputs": [],
      "name": "totalPoolBondPower",
      "outputs": [
        {
          "internalType": "uint256",
          "name": "",
          "type": "uint256"
        }
      ],
      "stateMutability": "view",
      "type": "function"
    },
    {
      "inputs": [
        {
          "internalType": "address",
          "name": "newOwner",
          "type": "address"
        }
      ],
      "name": "transferOwnership",
      "outputs": [],
      "stateMutability": "nonpayable",
      "type": "function"
    },
    {
      "inputs": [],
      "name": "updatePool",
      "outputs": [],
      "stateMutability": "nonpayable",
      "type": "function"
    },
    {
      "inputs": [
        {
          "internalType": "uint256",
          "name": "_currentPrice",
          "type": "uint256"
        },
        {
          "internalType": "uint256",
          "name": "_ma30Price",
          "type": "uint256"
        },
        {
          "internalType": "uint256",
          "name": "_price1hAgo",
          "type": "uint256"
        }
      ],
      "name": "updatePrices",
      "outputs": [],
      "stateMutability": "nonpayable",
      "type": "function"
    },
    {
      "inputs": [
        {
          "internalType": "address",
          "name": "",
          "type": "address"
        }
      ],
      "name": "userInfo",
      "outputs": [
        {
          "internalType": "uint256",
          "name": "bondPower",
          "type": "uint256"
        },
        {
          "internalType": "uint256",
          "name": "rewardDebt",
          "type": "uint256"
        },
        {
          "internalType": "uint256",
          "name": "pendingVested",
          "type": "uint256"
        },
        {
          "internalType": "uint256",
          "name": "vestingStartTime",
          "type": "uint256"
        },
        {
          "internalType": "uint256",
          "name": "totalVested",
          "type": "uint256"
        },
        {
          "internalType": "uint256",
          "name": "totalClaimed",
          "type": "uint256"
        }
      ],
      "stateMutability": "view",
      "type": "function"
    }
  ],
  "bytecode": "0x6080604052670de0b6b3a7640000600d55670de0b6b3a7640000601155670de0b6b3a7640000601255670de0b6b3a76400006013556001601460006101000a81548160ff0219169083151502179055503480156200005c57600080fd5b5060405162005c9b38038062005c9b83398181016040528101906200008291906200028e565b33600073ffffffffffffffffffffffffffffffffffffffff168173ffffffffffffffffffffffffffffffffffffffff1603620000f85760006040517f1e4fbdf7000000000000000000000000000000000000000000000000000000008152600401620000ef9190620002d1565b60405180910390fd5b62000109816200016060201b60201c565b506001808190555080600460006101000a81548173ffffffffffffffffffffffffffffffffffffffff021916908373ffffffffffffffffffffffffffffffffffffffff16021790555042600b8190555050620002ee565b60008060009054906101000a900473ffffffffffffffffffffffffffffffffffffffff169050816000806101000a81548173ffffffffffffffffffffffffffffffffffffffff021916908373ffffffffffffffffffffffffffffffffffffffff1602179055508173ffffffffffffffffffffffffffffffffffffffff168173ffffffffffffffffffffffffffffffffffffffff167f8be0079c531659141344cd1fd0a4f28419497f9722a3daafe3b4186f6b6457e060405160405180910390a35050565b600080fd5b600073ffffffffffffffffffffffffffffffffffffffff82169050919050565b6000620002568262000229565b9050919050565b620002688162000249565b81146200027457600080fd5b50565b60008151905062000288816200025d565b92915050565b600060208284031215620002a757620002a662000224565b5b6000620002b78482850162000277565b91505092915050565b620002cb8162000249565b82525050565b6000602082019050620002e86000830184620002c0565b92915050565b61599d80620002fe6000396000f3fe608060405234801561001057600080fd5b506004361061043e5760003560e01c8063945c3ebd11610236578063d2121b4e1161013b578063e4941c39116100c3578063f2fde38b11610087578063f2fde38b14610c1e578063f706555b14610c3a578063f864233114610c58578063fb897ce414610c76578063fc84d91314610cab5761043e565b8063e4941c3914610b8c578063e88067e814610bbc578063e979ca4a14610bd8578063eacf59c814610be2578063eef1be2c14610c005761043e565b8063de5f8d931161010a578063de5f8d9314610b1e578063e0c9bc6214610b28578063e1f1c4a714610b46578063e3161ddd14610b64578063e4147ca214610b6e5761043e565b8063d2121b4e14610aba578063d2522baa14610ad8578063da6510b414610ae2578063dcebf68114610b005761043e565b8063a29a7ab0116101be578063b3def2f51161018d578063b3def2f514610a38578063cd9ea34214610a56578063cda80bfa14610a74578063ce28c1bf14610a92578063d01c44cd14610ab05761043e565b8063a29a7ab0146109b2578063a7bd3e9d146109e2578063a95d5a60146109fe578063af77063d14610a1c5761043e565b80639d14b2a2116102055780639d14b2a21461091c5780639d1b464a1461093a5780639f55d64c14610958578063a2309ff814610976578063a28aee15146109945761043e565b8063945c3ebd146108a4578063983d896e146108c25780639b565faa146108e05780639c41ee67146108fe5761043e565b80633ed620a41161034757806375beb7b1116102cf57806389e59ea01161029357806389e59ea0146108105780638da5cb5b1461082e5780638e8b6c881461084c5780639231cf7414610868578063934b7c54146108865761043e565b806375beb7b114610773578063763f620614610791578063771aceef146107b15780637adbf973146107d65780637dc0d1d0146107f25761043e565b806349b9a7af1161031657806349b9a7af146106db57806352aa8a5e146106f95780635e147f9014610717578063715018a61461073557806374c7773e1461073f5761043e565b80633ed620a414610679578063458f8f94146106955780634641257d146106b35780634897fffb146106bd5761043e565b80631ff1292f116103ca5780632b5615d2116103995780632b5615d2146105e357806330d172d51461060157806336be35381461061f5780633a03171c1461063d5780633eceb63e1461065b5761043e565b80631ff1292f1461056d57806321cccba214610589578063277c19b0146105a757806329146555146105c55761043e565b8063091075a911610411578063091075a9146104bd5780630c2330a5146104db57806310d60dc4146104f9578063123d11791461051a5780631959a002146105385761043e565b80630197d97214610443578063033d30fe1461046157806303e45a4b1461047d5780630420bace1461049f575b600080fd5b61044b610cc9565b6040516104589190614576565b60405180910390f35b61047b600480360381019061047691906145f4565b610cd0565b005b610485610d8b565b604051610496959493929190614698565b60405180910390f35b6104a7610ed8565b6040516104b49190614576565b60405180910390f35b6104c5610ee4565b6040516104d29190614576565b60405180910390f35b6104e3610f34565b6040516104f09190614576565b60405180910390f35b610501610f3a565b60405161051194939291906146eb565b60405180910390f35b610522610fc8565b60405161052f9190614749565b60405180910390f35b610552600480360381019061054d91906145f4565b610fec565b60405161056496959493929190614764565b60405180910390f35b610587600480360381019061058291906147fd565b611028565b005b610591611170565b60405161059e9190614576565b60405180910390f35b6105af61117c565b6040516105bc9190614576565b60405180910390f35b6105cd611181565b6040516105da9190614889565b60405180910390f35b6105eb6111a7565b6040516105f89190614576565b60405180910390f35b6106096111b3565b60405161061691906148c5565b60405180910390f35b6106276111d9565b6040516106349190614576565b60405180910390f35b6106456111df565b6040516106529190614576565b60405180910390f35b6106636111ee565b6040516106709190614576565b60405180910390f35b610693600480360381019061068e919061490c565b6111f4565b005b61069d611629565b6040516106aa9190614576565b60405180910390f35b6106bb611632565b005b6106c5611989565b6040516106d29190614980565b60405180910390f35b6106e36119af565b6040516106f09190614576565b60405180910390f35b6107016119b5565b60405161070e9190614576565b60405180910390f35b61071f6119ca565b60405161072c9190614749565b60405180910390f35b61073d6119ee565b005b610759600480360381019061075491906145f4565b611a02565b60405161076a95949392919061499b565b60405180910390f35b61077b611b08565b6040516107889190614576565b60405180910390f35b610799611b0d565b6040516107a8939291906149ee565b60405180910390f35b6107b9611b32565b6040516107cd989796959493929190614a25565b60405180910390f35b6107f060048036038101906107eb91906145f4565b611bce565b005b6107fa611ccc565b6040516108079190614ac4565b60405180910390f35b610818611cf2565b6040516108259190614576565b60405180910390f35b610836611cf7565b6040516108439190614aee565b60405180910390f35b610866600480360381019061086191906145f4565b611d20565b005b610870611d2c565b60405161087d9190614576565b60405180910390f35b61088e611d32565b60405161089b9190614576565b60405180910390f35b6108ac611d38565b6040516108b99190614576565b60405180910390f35b6108ca611d46565b6040516108d79190614576565b60405180910390f35b6108e8611d4b565b6040516108f59190614b2a565b60405180910390f35b610906611d71565b6040516109139190614576565b60405180910390f35b610924611d76565b6040516109319190614576565b60405180910390f35b610942611d7c565b60405161094f9190614576565b60405180910390f35b610960611d82565b60405161096d9190614576565b60405180910390f35b61097e611d91565b60405161098b9190614576565b60405180910390f35b61099c611d97565b6040516109a99190614576565b60405180910390f35b6109cc60048036038101906109c791906145f4565b611db3565b6040516109d99190614576565b60405180910390f35b6109fc60048036038101906109f791906145f4565b611dcb565b005b610a06611e86565b604051610a139190614576565b60405180910390f35b610a366004803603810190610a319190614b45565b611e92565b005b610a406122e4565b604051610a4d9190614576565b60405180910390f35b610a5e6122ea565b604051610a6b9190614b81565b60405180910390f35b610a7c6122fd565b604051610a899190614576565b60405180910390f35b610a9a612308565b604051610aa79190614576565b60405180910390f35b610ab8612317565b005b610ac26125b2565b604051610acf9190614576565b60405180910390f35b610ae06125b8565b005b610aea61274a565b604051610af79190614576565b60405180910390f35b610b08612750565b604051610b159190614576565b60405180910390f35b610b2661275c565b005b610b30612965565b604051610b3d9190614749565b60405180910390f35b610b4e612989565b604051610b5b9190614576565b60405180910390f35b610b6c61298f565b005b610b76612b0d565b604051610b839190614576565b60405180910390f35b610ba66004803603810190610ba191906145f4565b612c8e565b604051610bb39190614576565b60405180910390f35b610bd66004803603810190610bd191906145f4565b612df2565b005b610be0612ead565b005b610bea613148565b604051610bf79190614576565b60405180910390f35b610c0861314f565b604051610c159190614576565b60405180910390f35b610c386004803603810190610c3391906145f4565b613155565b005b610c426131db565b604051610c4f9190614576565b60405180910390f35b610c606131e1565b604051610c6d9190614576565b60405180910390f35b610c906004803603810190610c8b91906145f4565b6131e7565b604051610ca296959493929190614764565b60405180910390f35b610cb3613319565b604051610cc09190614576565b60405180910390f35b62278d0081565b610cd861331f565b600073ffffffffffffffffffffffffffffffffffffffff168173ffffffffffffffffffffffffffffffffffffffff1603610d47576040517f08c379a0000000000000000000000000000000000000000000000000000000008152600401610d3e90614bf9565b60405180910390fd5b80600360006101000a81548173ffffffffffffffffffffffffffffffffffffffff021916908373ffffffffffffffffffffffffffffffffffffffff16021790555050565b6000806000806000600760000160009054906101000a900460ff1694506007600101549350600760020154925060006003811115610dcc57610dcb614621565b5b856003811115610ddf57610dde614621565b5b03610e0157846000806000610df2612b0d565b94509450945094509450610ed1565b600060076001015442610e149190614c48565b9050600080600380811115610e2c57610e2b614621565b5b886003811115610e3f57610e3e614621565b5b03610e595762015180915066b1a2bc2ec500009050610eac565b60026003811115610e6d57610e6c614621565b5b886003811115610e8057610e7f614621565b5b03610e9a5761a8c091506702c68af0bb1400009050610eab565b61384091506706f05b59d3b2000090505b5b81831015610ec5578282610ec09190614c48565b610ec8565b60005b94508093505050505b9091929394565b6706f05b59d3b2000081565b600080610eef612b0d565b90506ec097ce7bc90715b34b9f100000000081600d5469065a4da25d3016c00000610f1a9190614c7c565b610f249190614c7c565b610f2e9190614ced565b91505090565b61138881565b6000806000806010549350600d5492506a05ca4ec2a79a7f670000006001601054610f659190614d1e565b610f6f9190614c7c565b915060006a05ca4ec2a79a7f67000000601054610f8c9190614c7c565b600e54610f999190614c48565b90506a05ca4ec2a79a7f6700000061271082610fb59190614c7c565b610fbf9190614ced565b91505090919293565b7fffffffffffffffffffffffffffffffffffffffffffffffffffffffffffffffe781565b60166020528060005260406000206000915090508060000154908060010154908060020154908060030154908060040154908060050154905086565b61103061331f565b801515601460009054906101000a900460ff16151503611085576040517f08c379a000000000000000000000000000000000000000000000000000000000815260040161107c90614d9e565b60405180910390fd5b8061111c57600073ffffffffffffffffffffffffffffffffffffffff16600560009054906101000a900473ffffffffffffffffffffffffffffffffffffffff1673ffffffffffffffffffffffffffffffffffffffff160361111b576040517f08c379a000000000000000000000000000000000000000000000000000000000815260040161111290614e30565b60405180910390fd5b5b80601460006101000a81548160ff0219169083151502179055507f3aa6186db6afba61ec3731f16e23fdea8dfa0dfe10d7c05942d11fdb365db031816040516111659190614b81565b60405180910390a150565b6714d1120d7b16000081565b60c881565b600360009054906101000a900473ffffffffffffffffffffffffffffffffffffffff1681565b67016345785d8a000081565b600660009054906101000a900473ffffffffffffffffffffffffffffffffffffffff1681565b61384081565b6a52b7d2dcc80cd2e400000081565b61a8c081565b6000831180156112045750600082115b80156112105750600081115b61124f576040517f08c379a000000000000000000000000000000000000000000000000000000000815260040161124690614e9c565b60405180910390fd5b601460009054906101000a900460ff161561143c5761126c611cf7565b73ffffffffffffffffffffffffffffffffffffffff163373ffffffffffffffffffffffffffffffffffffffff16146112d9576040517f08c379a00000000000000000000000000000000000000000000000000000000081526004016112d090614f08565b60405180910390fd5b610e106015546112e99190614d1e565b42101561132b576040517f08c379a000000000000000000000000000000000000000000000000000000000815260040161132290614f9a565b60405180910390fd5b600060115411156113e0576000606460326011546113499190614c7c565b6113539190614ced565b6011546113609190614d1e565b90506000606460326011546113759190614c7c565b61137f9190614ced565b60115461138c9190614c48565b905080851015801561139e5750818511155b6113dd576040517f08c379a00000000000000000000000000000000000000000000000000000000081526004016113d49061502c565b60405180910390fd5b50505b826011819055508160128190555080601381905550426015819055507f15819dd2fd9f6418b142e798d08a18d0bf06ea368f4480b7b0d3f75bd966bc4883838360405161142f9392919061504c565b60405180910390a1611624565b600073ffffffffffffffffffffffffffffffffffffffff16600560009054906101000a900473ffffffffffffffffffffffffffffffffffffffff1673ffffffffffffffffffffffffffffffffffffffff16036114cd576040517f08c379a00000000000000000000000000000000000000000000000000000000081526004016114c4906150cf565b60405180910390fd5b6000600560009054906101000a900473ffffffffffffffffffffffffffffffffffffffff1673ffffffffffffffffffffffffffffffffffffffff1663b3596f07600460009054906101000a900473ffffffffffffffffffffffffffffffffffffffff166040518263ffffffff1660e01b815260040161154c9190614aee565b602060405180830381865afa158015611569573d6000803e3d6000fd5b505050506040513d601f19601f8201168201806040525081019061158d9190615104565b9050600081116115d2576040517f08c379a00000000000000000000000000000000000000000000000000000000081526004016115c99061517d565b60405180910390fd5b8060118190555082601281905550816013819055507f15819dd2fd9f6418b142e798d08a18d0bf06ea368f4480b7b0d3f75bd966bc4881848460405161161a9392919061504c565b60405180910390a1505b505050565b64e8d4a5100081565b61163a6133a6565b6000339050611648816133ec565b6000601660008373ffffffffffffffffffffffffffffffffffffffff1673ffffffffffffffffffffffffffffffffffffffff1681526020019081526020016000209050600081600201549050600081116116d7576040517f08c379a00000000000000000000000000000000000000000000000000000000081526004016116ce906151e9565b60405180910390fd5b6a39e7139a8c08fa06000000600e5410611726576040517f08c379a000000000000000000000000000000000000000000000000000000000815260040161171d90615255565b60405180910390fd5b6000603260c86101f46103e861173c9190614d1e565b6117469190614d1e565b6117509190614d1e565b9050600061271082846117639190614c7c565b61176d9190614ced565b90506000818461177d9190614d1e565b90506a39e7139a8c08fa0600000081600e546117999190614d1e565b11156117e6576000600e546a39e7139a8c08fa060000006117ba9190614c48565b9050836127106117ca9190614d1e565b612710826117d89190614c7c565b6117e29190614ced565b9450505b60008560020181905550838560040160008282546118049190614d1e565b925050819055506000856003015403611821574285600301819055505b83600e60008282546118339190614d1e565b92505081905550600460009054906101000a900473ffffffffffffffffffffffffffffffffffffffff1673ffffffffffffffffffffffffffffffffffffffff166340c10f1930866040518363ffffffff1660e01b8152600401611897929190615275565b600060405180830381600087803b1580156118b157600080fd5b505af11580156118c5573d6000803e3d6000fd5b505050506118d1613763565b6118db868561382d565b8573ffffffffffffffffffffffffffffffffffffffff167fbc8fb63d817de4fabea2108e9b7eefca87245899f4b357636c26b5cad02ec5b4856040516119219190614576565b60405180910390a28573ffffffffffffffffffffffffffffffffffffffff167f8fe19f160f86d04fb1a90dde93e5e1a47df0810685adf4b990153c107d7b3924854260405161197192919061529e565b60405180910390a25050505050506119876143e5565b565b600460009054906101000a900473ffffffffffffffffffffffffffffffffffffffff1681565b60155481565b60006119c56011546012546143ee565b905090565b7ffffffffffffffffffffffffffffffffffffffffffffffffffffffffffffffff681565b6119f661331f565b611a006000614491565b565b600080600080600080601660008873ffffffffffffffffffffffffffffffffffffffff1673ffffffffffffffffffffffffffffffffffffffff168152602001908152602001600020905080600001549550611a5c87612c8e565b9450806004015493508060050154925060008160030154118015611a84575060008160040154115b15611afe576000816003015442611a9b9190614c48565b9050600062278d008210611ab55782600401549050611ad6565b62278d00828460040154611ac99190614c7c565b611ad39190614ced565b90505b82600501548111611ae8576000611af9565b826005015481611af89190614c48565b5b935050505b5091939590929450565b603281565b60078060000160009054906101000a900460ff16908060010154908060020154905083565b600080600080600080600080600e5497506a39e7139a8c08fa060000009650600d549550611b5e612b0d565b9450600c5493506201518069065a4da25d3016c00000611b7e9190614ced565b92506ec097ce7bc90715b34b9f100000000085600d5469065a4da25d3016c00000611ba99190614c7c565b611bb39190614c7c565b611bbd9190614ced565b915060105490509091929394959697565b611bd661331f565b600073ffffffffffffffffffffffffffffffffffffffff168173ffffffffffffffffffffffffffffffffffffffff1603611c45576040517f08c379a0000000000000000000000000000000000000000000000000000000008152600401611c3c90614bf9565b60405180910390fd5b80600560006101000a81548173ffffffffffffffffffffffffffffffffffffffff021916908373ffffffffffffffffffffffffffffffffffffffff1602179055508073ffffffffffffffffffffffffffffffffffffffff167f6536690106168bdf4ba72c128a053d817999b1db90cae23f139b293bf862cb7560405160405180910390a250565b600560009054906101000a900473ffffffffffffffffffffffffffffffffffffffff1681565b601481565b60008060009054906101000a900473ffffffffffffffffffffffffffffffffffffffff16905090565b611d29816133ec565b50565b600b5481565b600f5481565b69065a4da25d3016c0000081565b605f81565b600260009054906101000a900473ffffffffffffffffffffffffffffffffffffffff1681565b603281565b600c5481565b60115481565b6a05ca4ec2a79a7f6700000081565b600e5481565b6201518069065a4da25d3016c00000611db09190614ced565b81565b60176020528060005260406000206000915090505481565b611dd361331f565b600073ffffffffffffffffffffffffffffffffffffffff168173ffffffffffffffffffffffffffffffffffffffff1603611e42576040517f08c379a0000000000000000000000000000000000000000000000000000000008152600401611e3990614bf9565b60405180910390fd5b80600660006101000a81548173ffffffffffffffffffffffffffffffffffffffff021916908373ffffffffffffffffffffffffffffffffffffffff16021790555050565b6702c68af0bb14000081565b611e9a6133a6565b3373ffffffffffffffffffffffffffffffffffffffff16600360009054906101000a900473ffffffffffffffffffffffffffffffffffffffff1673ffffffffffffffffffffffffffffffffffffffff1663331f5dcf836040518263ffffffff1660e01b8152600401611f0c9190614576565b602060405180830381865afa158015611f29573d6000803e3d6000fd5b505050506040513d601f19601f82011682018060405250810190611f4d91906152dc565b73ffffffffffffffffffffffffffffffffffffffff1614611fa3576040517f08c379a0000000000000000000000000000000000000000000000000000000008152600401611f9a90615355565b60405180910390fd5b611fab61298f565b6000601660003373ffffffffffffffffffffffffffffffffffffffff1673ffffffffffffffffffffffffffffffffffffffff16815260200190815260200160002090506000816001015464e8d4a51000600a54846000015461200d9190614c7c565b6120179190614ced565b6120219190614c48565b905060008260020154826120359190614d1e565b90506000811161207a576040517f08c379a0000000000000000000000000000000000000000000000000000000008152600401612071906153c1565b60405180910390fd5b64e8d4a51000600a5484600001546120929190614c7c565b61209c9190614ced565b8360010181905550600083600201819055506000600560009054906101000a900473ffffffffffffffffffffffffffffffffffffffff1673ffffffffffffffffffffffffffffffffffffffff1663b3596f07600460009054906101000a900473ffffffffffffffffffffffffffffffffffffffff166040518263ffffffff1660e01b815260040161212d9190614aee565b602060405180830381865afa15801561214a573d6000803e3d6000fd5b505050506040513d601f19601f8201168201806040525081019061216e9190615104565b9050600081116121b3576040517f08c379a00000000000000000000000000000000000000000000000000000000081526004016121aa9061542d565b60405180910390fd5b6000670de0b6b3a764000082846121ca9190614c7c565b6121d49190614ced565b905060006064606e836121e79190614c7c565b6121f19190614ced565b9050600360009054906101000a900473ffffffffffffffffffffffffffffffffffffffff1673ffffffffffffffffffffffffffffffffffffffff1663341186c288836040518363ffffffff1660e01b815260040161225092919061529e565b600060405180830381600087803b15801561226a57600080fd5b505af115801561227e573d6000803e3d6000fd5b50505050863373ffffffffffffffffffffffffffffffffffffffff167fa78b9a656c956dc5f492315beb888731d0142b384ffc2b15834ea73d69fb76bb86846040516122cb92919061529e565b60405180910390a35050505050506122e16143e5565b50565b600d5481565b601460009054906101000a900460ff1681565b66b1a2bc2ec5000081565b6a39e7139a8c08fa0600000081565b61231f6133a6565b60003390506000601660008373ffffffffffffffffffffffffffffffffffffffff1673ffffffffffffffffffffffffffffffffffffffff168152602001908152602001600020905060008160040154116123ae576040517f08c379a00000000000000000000000000000000000000000000000000000000081526004016123a590615499565b60405180910390fd5b60008160030154116123f5576040517f08c379a00000000000000000000000000000000000000000000000000000000081526004016123ec90615505565b60405180910390fd5b60008160030154426124079190614c48565b9050600062278d0082106124215782600401549050612442565b62278d008284600401546124359190614c7c565b61243f9190614ced565b90505b60008360050154826124549190614c48565b905060008111612499576040517f08c379a000000000000000000000000000000000000000000000000000000000815260040161249090615571565b60405180910390fd5b808460050160008282546124ad9190614d1e565b92505081905550600460009054906101000a900473ffffffffffffffffffffffffffffffffffffffff1673ffffffffffffffffffffffffffffffffffffffff1663a9059cbb86836040518363ffffffff1660e01b8152600401612511929190615275565b6020604051808303816000875af1158015612530573d6000803e3d6000fd5b505050506040513d601f19601f8201168201806040525081019061255491906155a6565b508473ffffffffffffffffffffffffffffffffffffffff167f9fe9b7be9d151c7a8b6de49a1312ff27a15096d0d1d12999af85fe4310e0b1258260405161259b9190614576565b60405180910390a250505050506125b06143e5565b565b60125481565b600060135403156127485760006013546011546125d591906155d3565b905060006013546064836125e99190615616565b6125f3919061568e565b905060007fffffffffffffffffffffffffffffffffffffffffffffffffffffffffffffffe782136126275760039050612685565b7ffffffffffffffffffffffffffffffffffffffffffffffffffffffffffffffff182136126575760029050612684565b7ffffffffffffffffffffffffffffffffffffffffffffffffffffffffffffffff6821361268357600190505b5b5b600760000160009054906101000a900460ff1660038111156126aa576126a9614621565b5b8160038111156126bd576126bc614621565b5b11156127445780600760000160006101000a81548160ff021916908360038111156126eb576126ea614621565b5b0217905550426007600101819055506011546007600201819055507f4fa52a45d7e5a216674f536c9e84f867dce6e9a6c6b5fe88f640855bf9225681814260115460405161273b939291906149ee565b60405180910390a15b5050505b565b6101f481565b671bc16d674ec8000081565b61276461331f565b6000600381111561277857612777614621565b5b600760000160009054906101000a900460ff16600381111561279d5761279c614621565b5b036127dd576040517f08c379a00000000000000000000000000000000000000000000000000000000081526004016127d490615744565b60405180910390fd5b6000600760010154426127f09190614c48565b9050600060038081111561280757612806614621565b5b600760000160009054906101000a900460ff16600381111561282c5761282b614621565b5b0361283c5762015180905061288b565b600260038111156128505761284f614621565b5b600760000160009054906101000a900460ff16600381111561287557612874614621565b5b036128845761a8c0905061288a565b61384090505b5b808210156128ce576040517f08c379a00000000000000000000000000000000000000000000000000000000081526004016128c5906157b0565b60405180910390fd5b6000600760000160009054906101000a900460ff1690506000600760000160006101000a81548160ff0219169083600381111561290e5761290d614621565b5b0217905550600060076001018190555060006007600201819055507f07130c8b39a90581223fe2d149b6458e7d26925c0ea5c3156721b96e564c36598160405161295891906157d0565b60405180910390a1505050565b7ffffffffffffffffffffffffffffffffffffffffffffffffffffffffffffffff181565b61271081565b600b54421115612b0b576000600c54036129af5742600b81905550612b0b565b6000600b54426129bf9190614c48565b905060006129cb612b0d565b905060006ec097ce7bc90715b34b9f100000000082600d546201518069065a4da25d3016c000006129fc9190614ced565b86612a079190614c7c565b612a119190614c7c565b612a1b9190614c7c565b612a259190614ced565b90506a39e7139a8c08fa0600000081600e54612a419190614d1e565b1115612a7f57600e546a39e7139a8c08fa0600000011612a62576000612a7c565b600e546a39e7139a8c08fa06000000612a7b9190614c48565b5b90505b6000811115612abf57600c5464e8d4a5100082612a9c9190614c7c565b612aa69190614ced565b600a6000828254612ab79190614d1e565b925050819055505b42600b819055507f17b8644f386d1c7c7138ef98b3c8035622bbe94d7be9b26f71d2654a547c2943600a54600b54600c54604051612aff9392919061504c565b60405180910390a15050505b565b6000806003811115612b2257612b21614621565b5b600760000160009054906101000a900460ff166003811115612b4757612b46614621565b5b14612c7a57600060076001015442612b5f9190614c48565b9050600380811115612b7457612b73614621565b5b600760000160009054906101000a900460ff166003811115612b9957612b98614621565b5b03612bbe5762015180811015612bb95766b1a2bc2ec50000915050612c8b565b612c78565b60026003811115612bd257612bd1614621565b5b600760000160009054906101000a900460ff166003811115612bf757612bf6614621565b5b03612c1c5761a8c0811015612c17576702c68af0bb140000915050612c8b565b612c77565b60016003811115612c3057612c2f614621565b5b600760000160009054906101000a900460ff166003811115612c5557612c54614621565b5b03612c7657613840811015612c75576706f05b59d3b20000915050612c8b565b5b5b5b505b612c886011546012546143ee565b90505b90565b600080601660008473ffffffffffffffffffffffffffffffffffffffff1673ffffffffffffffffffffffffffffffffffffffff16815260200190815260200160002090506000600a549050600b5442118015612cec57506000600c54115b15612d98576000600b5442612d019190614c48565b90506000612d0d612b0d565b905060006ec097ce7bc90715b34b9f100000000082600d546201518069065a4da25d3016c00000612d3e9190614ced565b86612d499190614c7c565b612d539190614c7c565b612d5d9190614c7c565b612d679190614ced565b9050600c5464e8d4a5100082612d7d9190614c7c565b612d879190614ced565b84612d929190614d1e565b93505050505b60008083600001541115612dd857826001015464e8d4a51000838560000154612dc19190614c7c565b612dcb9190614ced565b612dd59190614c48565b90505b826002015481612de89190614d1e565b9350505050919050565b612dfa61331f565b600073ffffffffffffffffffffffffffffffffffffffff168173ffffffffffffffffffffffffffffffffffffffff1603612e69576040517f08c379a0000000000000000000000000000000000000000000000000000000008152600401612e6090614bf9565b60405180910390fd5b80600260006101000a81548173ffffffffffffffffffffffffffffffffffffffff021916908373ffffffffffffffffffffffffffffffffffffffff16021790555050565b612eb56133a6565b60003390506000601660008373ffffffffffffffffffffffffffffffffffffffff1673ffffffffffffffffffffffffffffffffffffffff16815260200190815260200160002090508060050154816004015411612f47576040517f08c379a0000000000000000000000000000000000000000000000000000000008152600401612f3e90615837565b60405180910390fd5b600081600501548260040154612f5d9190614c48565b9050600061271061138883612f729190614c7c565b612f7c9190614ced565b905060008183612f8c9190614c48565b905083600401548460050181905550600460009054906101000a900473ffffffffffffffffffffffffffffffffffffffff1673ffffffffffffffffffffffffffffffffffffffff1663a9059cbb86836040518363ffffffff1660e01b8152600401612ff8929190615275565b6020604051808303816000875af1158015613017573d6000803e3d6000fd5b505050506040513d601f19601f8201168201806040525081019061303b91906155a6565b5060008211156130e957600460009054906101000a900473ffffffffffffffffffffffffffffffffffffffff1673ffffffffffffffffffffffffffffffffffffffff1663a9059cbb61dead846040518363ffffffff1660e01b81526004016130a4929190615275565b6020604051808303816000875af11580156130c3573d6000803e3d6000fd5b505050506040513d601f19601f820116820180604052508101906130e791906155a6565b505b8473ffffffffffffffffffffffffffffffffffffffff167f92207ec016968e0ee608b41c92470ff10e9f810a8dec5f40901974ac75ed498e828460405161313192919061529e565b60405180910390a250505050506131466143e5565b565b6201518081565b600a5481565b61315d61331f565b600073ffffffffffffffffffffffffffffffffffffffff168173ffffffffffffffffffffffffffffffffffffffff16036131cf5760006040517f1e4fbdf70000000000000000000000000000000000000000000000000000000081526004016131c69190614aee565b60405180910390fd5b6131d881614491565b50565b6103e881565b60135481565b6000806000806000806000601660008973ffffffffffffffffffffffffffffffffffffffff1673ffffffffffffffffffffffffffffffffffffffff168152602001908152602001600020905080600401549650806005015495508060030154945060008160030154118015613260575060008160040154115b1561330f5760008160030154426132779190614c48565b9050600062278d008210613296578260040154905061271093506132d5565b62278d008284600401546132aa9190614c7c565b6132b49190614ced565b905062278d00612710836132c89190614c7c565b6132d29190614ced565b93505b826005015481116132e75760006132f8565b8260050154816132f79190614c48565b5b955080836004015461330a9190614c48565b945050505b5091939550919395565b60105481565b613327614555565b73ffffffffffffffffffffffffffffffffffffffff16613345611cf7565b73ffffffffffffffffffffffffffffffffffffffff16146133a457613368614555565b6040517f118cdaa700000000000000000000000000000000000000000000000000000000815260040161339b9190614aee565b60405180910390fd5b565b6002600154036133e2576040517f3ee5aeb500000000000000000000000000000000000000000000000000000000815260040160405180910390fd5b6002600181905550565b6133f461298f565b6000601660008373ffffffffffffffffffffffffffffffffffffffff1673ffffffffffffffffffffffffffffffffffffffff168152602001908152602001600020905060008073ffffffffffffffffffffffffffffffffffffffff16600360009054906101000a900473ffffffffffffffffffffffffffffffffffffffff1673ffffffffffffffffffffffffffffffffffffffff161461352d57600360009054906101000a900473ffffffffffffffffffffffffffffffffffffffff1673ffffffffffffffffffffffffffffffffffffffff1663ab0229a0846040518263ffffffff1660e01b81526004016134e99190614aee565b602060405180830381865afa158015613506573d6000803e3d6000fd5b505050506040513d601f19601f8201168201806040525081019061352a9190615104565b90505b60008073ffffffffffffffffffffffffffffffffffffffff16600260009054906101000a900473ffffffffffffffffffffffffffffffffffffffff1673ffffffffffffffffffffffffffffffffffffffff161461362357600260009054906101000a900473ffffffffffffffffffffffffffffffffffffffff1673ffffffffffffffffffffffffffffffffffffffff166304d1334f856040518263ffffffff1660e01b81526004016135df9190614aee565b602060405180830381865afa1580156135fc573d6000803e3d6000fd5b505050506040513d601f19601f820116820180604052508101906136209190615104565b90505b6000612710826127106136369190614d1e565b846136419190614c7c565b61364b9190614ced565b90506000846000015411156136b6576000846001015464e8d4a51000600a5487600001546136799190614c7c565b6136839190614ced565b61368d9190614c48565b905060008111156136b457808560020160008282546136ac9190614d1e565b925050819055505b505b808460000154600c546136c99190614c48565b6136d39190614d1e565b600c8190555080846000018190555064e8d4a51000600a54826136f69190614c7c565b6137009190614ced565b84600101819055508473ffffffffffffffffffffffffffffffffffffffff167fdfc331ca16b8c4320a402867e832423d16ad3de953e474a499baf3697aa9e89482866001015460405161375492919061529e565b60405180910390a25050505050565b5b6a05ca4ec2a79a7f67000000600160105461377f9190614d1e565b6137899190614c7c565b600e541061382b576064605f600d546137a29190614c7c565b6137ac9190614ced565b600d81905550601060008154809291906137c590615857565b91905055506a05ca4ec2a79a7f670000006010546137e39190614c7c565b600f819055507fde141711fef892cdaea55f1f6a85e241382fcefc69efdb496eff235992a18ed4600d54600e5460405161381e92919061529e565b60405180910390a1613764565b565b600073ffffffffffffffffffffffffffffffffffffffff16600260009054906101000a900473ffffffffffffffffffffffffffffffffffffffff1673ffffffffffffffffffffffffffffffffffffffff1603156143e1576000600260009054906101000a900473ffffffffffffffffffffffffffffffffffffffff1673ffffffffffffffffffffffffffffffffffffffff16634a9fefc7846040518263ffffffff1660e01b81526004016138e19190614aee565b602060405180830381865afa1580156138fe573d6000803e3d6000fd5b505050506040513d601f19601f8201168201806040525081019061392291906152dc565b9050600073ffffffffffffffffffffffffffffffffffffffff168173ffffffffffffffffffffffffffffffffffffffff160361395e57506143e1565b60006127106103e8846139719190614c7c565b61397b9190614ced565b90506000811115613aed5780600e60008282546139989190614d1e565b92505081905550600460009054906101000a900473ffffffffffffffffffffffffffffffffffffffff1673ffffffffffffffffffffffffffffffffffffffff166340c10f1983836040518363ffffffff1660e01b81526004016139fc929190615275565b600060405180830381600087803b158015613a1657600080fd5b505af1158015613a2a573d6000803e3d6000fd5b5050505080601760008473ffffffffffffffffffffffffffffffffffffffff1673ffffffffffffffffffffffffffffffffffffffff1681526020019081526020016000206000828254613a7d9190614d1e565b925050819055508373ffffffffffffffffffffffffffffffffffffffff168273ffffffffffffffffffffffffffffffffffffffff167fe679beb5d98a54fda65331587d36d13358e8bf295be15e932c482164f8fde95e836001604051613ae49291906158da565b60405180910390a35b6000600260009054906101000a900473ffffffffffffffffffffffffffffffffffffffff1673ffffffffffffffffffffffffffffffffffffffff16634a9fefc7846040518263ffffffff1660e01b8152600401613b4a9190614aee565b602060405180830381865afa158015613b67573d6000803e3d6000fd5b505050506040513d601f19601f82011682018060405250810190613b8b91906152dc565b9050600073ffffffffffffffffffffffffffffffffffffffff168173ffffffffffffffffffffffffffffffffffffffff1614613d525760006127106101f486613bd49190614c7c565b613bde9190614ced565b90506000811115613d505780600e6000828254613bfb9190614d1e565b92505081905550600460009054906101000a900473ffffffffffffffffffffffffffffffffffffffff1673ffffffffffffffffffffffffffffffffffffffff166340c10f1983836040518363ffffffff1660e01b8152600401613c5f929190615275565b600060405180830381600087803b158015613c7957600080fd5b505af1158015613c8d573d6000803e3d6000fd5b5050505080601760008473ffffffffffffffffffffffffffffffffffffffff1673ffffffffffffffffffffffffffffffffffffffff1681526020019081526020016000206000828254613ce09190614d1e565b925050819055508573ffffffffffffffffffffffffffffffffffffffff168273ffffffffffffffffffffffffffffffffffffffff167fe679beb5d98a54fda65331587d36d13358e8bf295be15e932c482164f8fde95e836002604051613d4792919061593e565b60405180910390a35b505b600083905060008060005b600073ffffffffffffffffffffffffffffffffffffffff168473ffffffffffffffffffffffffffffffffffffffff1614158015613d9a5750601481105b15613f0b576000600260009054906101000a900473ffffffffffffffffffffffffffffffffffffffff1673ffffffffffffffffffffffffffffffffffffffff166370a08231866040518263ffffffff1660e01b8152600401613dfc9190614aee565b602060405180830381865afa158015613e19573d6000803e3d6000fd5b505050506040513d601f19601f82011682018060405250810190613e3d9190615104565b1115613e5a57839250600181613e539190614d1e565b9150613f0b565b600260009054906101000a900473ffffffffffffffffffffffffffffffffffffffff1673ffffffffffffffffffffffffffffffffffffffff16634a9fefc7856040518263ffffffff1660e01b8152600401613eb59190614aee565b602060405180830381865afa158015613ed2573d6000803e3d6000fd5b505050506040513d601f19601f82011682018060405250810190613ef691906152dc565b93508080613f0390615857565b915050613d5d565b600073ffffffffffffffffffffffffffffffffffffffff168373ffffffffffffffffffffffffffffffffffffffff16146143d957600061271060c88a613f519190614c7c565b613f5b9190614ced565b905060008111156140cc5780600e6000828254613f789190614d1e565b92505081905550600460009054906101000a900473ffffffffffffffffffffffffffffffffffffffff1673ffffffffffffffffffffffffffffffffffffffff166340c10f1985836040518363ffffffff1660e01b8152600401613fdc929190615275565b600060405180830381600087803b158015613ff657600080fd5b505af115801561400a573d6000803e3d6000fd5b5050505080601760008673ffffffffffffffffffffffffffffffffffffffff1673ffffffffffffffffffffffffffffffffffffffff168152602001908152602001600020600082825461405d9190614d1e565b925050819055508973ffffffffffffffffffffffffffffffffffffffff168473ffffffffffffffffffffffffffffffffffffffff167ff3e533e84b42dfb4015d2211af267b5d34a1aa0f60c4da1a9dd25698150868d883866040516140c392919061529e565b60405180910390a35b6000600260009054906101000a900473ffffffffffffffffffffffffffffffffffffffff1673ffffffffffffffffffffffffffffffffffffffff16634a9fefc7866040518263ffffffff1660e01b81526004016141299190614aee565b602060405180830381865afa158015614146573d6000803e3d6000fd5b505050506040513d601f19601f8201168201806040525081019061416a91906152dc565b9050600073ffffffffffffffffffffffffffffffffffffffff168173ffffffffffffffffffffffffffffffffffffffff161415801561424457506000600260009054906101000a900473ffffffffffffffffffffffffffffffffffffffff1673ffffffffffffffffffffffffffffffffffffffff166370a08231836040518263ffffffff1660e01b81526004016142019190614aee565b602060405180830381865afa15801561421e573d6000803e3d6000fd5b505050506040513d601f19601f820116820180604052508101906142429190615104565b115b156143d657600061271060328c61425b9190614c7c565b6142659190614ced565b905060008111156143d45780600e60008282546142829190614d1e565b92505081905550600460009054906101000a900473ffffffffffffffffffffffffffffffffffffffff1673ffffffffffffffffffffffffffffffffffffffff166340c10f1983836040518363ffffffff1660e01b81526004016142e6929190615275565b600060405180830381600087803b15801561430057600080fd5b505af1158015614314573d6000803e3d6000fd5b5050505080601760008473ffffffffffffffffffffffffffffffffffffffff1673ffffffffffffffffffffffffffffffffffffffff16815260200190815260200160002060008282546143679190614d1e565b925050819055508573ffffffffffffffffffffffffffffffffffffffff168273ffffffffffffffffffffffffffffffffffffffff167f6b34e5a4dcbc992c5815bf8d0f03397ec7ecc2d9e760776d9de0c5e1d3919056836040516143cb9190614576565b60405180910390a35b505b50505b505050505050505b5050565b60018081905550565b600080820361440757670de0b6b3a7640000905061448b565b600082670de0b6b3a76400008561441e9190614c7c565b6144289190614ced565b90506000670de0b6b3a764000082836144419190614c7c565b61444b9190614ced565b90506714d1120d7b160000811115614469576714d1120d7b16000090505b67016345785d8a00008110156144855767016345785d8a000090505b80925050505b92915050565b60008060009054906101000a900473ffffffffffffffffffffffffffffffffffffffff169050816000806101000a81548173ffffffffffffffffffffffffffffffffffffffff021916908373ffffffffffffffffffffffffffffffffffffffff1602179055508173ffffffffffffffffffffffffffffffffffffffff168173ffffffffffffffffffffffffffffffffffffffff167f8be0079c531659141344cd1fd0a4f28419497f9722a3daafe3b4186f6b6457e060405160405180910390a35050565b600033905090565b6000819050919050565b6145708161455d565b82525050565b600060208201905061458b6000830184614567565b92915050565b600080fd5b600073ffffffffffffffffffffffffffffffffffffffff82169050919050565b60006145c182614596565b9050919050565b6145d1816145b6565b81146145dc57600080fd5b50565b6000813590506145ee816145c8565b92915050565b60006020828403121561460a57614609614591565b5b6000614618848285016145df565b91505092915050565b7f4e487b7100000000000000000000000000000000000000000000000000000000600052602160045260246000fd5b6004811061466157614660614621565b5b50565b600081905061467282614650565b919050565b600061468282614664565b9050919050565b61469281614677565b82525050565b600060a0820190506146ad6000830188614689565b6146ba6020830187614567565b6146c76040830186614567565b6146d46060830185614567565b6146e16080830184614567565b9695505050505050565b60006080820190506147006000830187614567565b61470d6020830186614567565b61471a6040830185614567565b6147276060830184614567565b95945050505050565b6000819050919050565b61474381614730565b82525050565b600060208201905061475e600083018461473a565b92915050565b600060c0820190506147796000830189614567565b6147866020830188614567565b6147936040830187614567565b6147a06060830186614567565b6147ad6080830185614567565b6147ba60a0830184614567565b979650505050505050565b60008115159050919050565b6147da816147c5565b81146147e557600080fd5b50565b6000813590506147f7816147d1565b92915050565b60006020828403121561481357614812614591565b5b6000614821848285016147e8565b91505092915050565b6000819050919050565b600061484f61484a61484584614596565b61482a565b614596565b9050919050565b600061486182614834565b9050919050565b600061487382614856565b9050919050565b61488381614868565b82525050565b600060208201905061489e600083018461487a565b92915050565b60006148af82614856565b9050919050565b6148bf816148a4565b82525050565b60006020820190506148da60008301846148b6565b92915050565b6148e98161455d565b81146148f457600080fd5b50565b600081359050614906816148e0565b92915050565b60008060006060848603121561492557614924614591565b5b6000614933868287016148f7565b9350506020614944868287016148f7565b9250506040614955868287016148f7565b9150509250925092565b600061496a82614856565b9050919050565b61497a8161495f565b82525050565b60006020820190506149956000830184614971565b92915050565b600060a0820190506149b06000830188614567565b6149bd6020830187614567565b6149ca6040830186614567565b6149d76060830185614567565b6149e46080830184614567565b9695505050505050565b6000606082019050614a036000830186614689565b614a106020830185614567565b614a1d6040830184614567565b949350505050565b600061010082019050614a3b600083018b614567565b614a48602083018a614567565b614a556040830189614567565b614a626060830188614567565b614a6f6080830187614567565b614a7c60a0830186614567565b614a8960c0830185614567565b614a9660e0830184614567565b9998505050505050505050565b6000614aae82614856565b9050919050565b614abe81614aa3565b82525050565b6000602082019050614ad96000830184614ab5565b92915050565b614ae8816145b6565b82525050565b6000602082019050614b036000830184614adf565b92915050565b6000614b1482614856565b9050919050565b614b2481614b09565b82525050565b6000602082019050614b3f6000830184614b1b565b92915050565b600060208284031215614b5b57614b5a614591565b5b6000614b69848285016148f7565b91505092915050565b614b7b816147c5565b82525050565b6000602082019050614b966000830184614b72565b92915050565b600082825260208201905092915050565b7f496e76616c696420616464726573730000000000000000000000000000000000600082015250565b6000614be3600f83614b9c565b9150614bee82614bad565b602082019050919050565b60006020820190508181036000830152614c1281614bd6565b9050919050565b7f4e487b7100000000000000000000000000000000000000000000000000000000600052601160045260246000fd5b6000614c538261455d565b9150614c5e8361455d565b9250828203905081811115614c7657614c75614c19565b5b92915050565b6000614c878261455d565b9150614c928361455d565b9250828202614ca08161455d565b91508282048414831517614cb757614cb6614c19565b5b5092915050565b7f4e487b7100000000000000000000000000000000000000000000000000000000600052601260045260246000fd5b6000614cf88261455d565b9150614d038361455d565b925082614d1357614d12614cbe565b5b828204905092915050565b6000614d298261455d565b9150614d348361455d565b9250828201905080821115614d4c57614d4b614c19565b5b92915050565b7f416c726561647920696e2074686973206d6f6465000000000000000000000000600082015250565b6000614d88601483614b9c565b9150614d9382614d52565b602082019050919050565b60006020820190508181036000830152614db781614d7b565b9050919050565b7f4d75737420736574206f7261636c65206265666f72652064697361626c696e6760008201527f2074657374206d6f646500000000000000000000000000000000000000000000602082015250565b6000614e1a602a83614b9c565b9150614e2582614dbe565b604082019050919050565b60006020820190508181036000830152614e4981614e0d565b9050919050565b7f496e76616c696420707269636573000000000000000000000000000000000000600082015250565b6000614e86600e83614b9c565b9150614e9182614e50565b602082019050919050565b60006020820190508181036000830152614eb581614e79565b9050919050565b7f54657374206d6f64653a206f6e6c79206f776e65722063616e20757064617465600082015250565b6000614ef2602083614b9c565b9150614efd82614ebc565b602082019050919050565b60006020820190508181036000830152614f2181614ee5565b9050919050565b7f54657374206d6f64653a206d7573742077616974203120686f7572206265747760008201527f65656e2075706461746573000000000000000000000000000000000000000000602082015250565b6000614f84602b83614b9c565b9150614f8f82614f28565b604082019050919050565b60006020820190508181036000830152614fb381614f77565b9050919050565b7f54657374206d6f64653a207072696365206368616e676520657863656564732060008201527f353025206c696d69740000000000000000000000000000000000000000000000602082015250565b6000615016602983614b9c565b915061502182614fba565b604082019050919050565b6000602082019050818103600083015261504581615009565b9050919050565b60006060820190506150616000830186614567565b61506e6020830185614567565b61507b6040830184614567565b949350505050565b7f4f7261636c65206e6f7420736574000000000000000000000000000000000000600082015250565b60006150b9600e83614b9c565b91506150c482615083565b602082019050919050565b600060208201905081810360008301526150e8816150ac565b9050919050565b6000815190506150fe816148e0565b92915050565b60006020828403121561511a57615119614591565b5b6000615128848285016150ef565b91505092915050565b7f4f7261636c652072657475726e656420696e76616c6964207072696365000000600082015250565b6000615167601d83614b9c565b915061517282615131565b602082019050919050565b600060208201905081810360008301526151968161515a565b9050919050565b7f4e6f7468696e6720746f20686172766573740000000000000000000000000000600082015250565b60006151d3601283614b9c565b91506151de8261519d565b602082019050919050565b60006020820190508181036000830152615202816151c6565b9050919050565b7f4d696e696e672063617020726561636865640000000000000000000000000000600082015250565b600061523f601283614b9c565b915061524a82615209565b602082019050919050565b6000602082019050818103600083015261526e81615232565b9050919050565b600060408201905061528a6000830185614adf565b6152976020830184614567565b9392505050565b60006040820190506152b36000830185614567565b6152c06020830184614567565b9392505050565b6000815190506152d6816145c8565b92915050565b6000602082840312156152f2576152f1614591565b5b6000615300848285016152c7565b91505092915050565b7f4e6f7420626f6e64206f776e6572000000000000000000000000000000000000600082015250565b600061533f600e83614b9c565b915061534a82615309565b602082019050919050565b6000602082019050818103600083015261536e81615332565b9050919050565b7f4e6f2070656e64696e6720726577617264730000000000000000000000000000600082015250565b60006153ab601283614b9c565b91506153b682615375565b602082019050919050565b600060208201905081810360008301526153da8161539e565b9050919050565b7f4f7261636c65207072696365206973207a65726f000000000000000000000000600082015250565b6000615417601483614b9c565b9150615422826153e1565b602082019050919050565b600060208201905081810360008301526154468161540a565b9050919050565b7f4e6f7468696e6720766573746564000000000000000000000000000000000000600082015250565b6000615483600e83614b9c565b915061548e8261544d565b602082019050919050565b600060208201905081810360008301526154b281615476565b9050919050565b7f56657374696e67206e6f74207374617274656400000000000000000000000000600082015250565b60006154ef601383614b9c565b91506154fa826154b9565b602082019050919050565b6000602082019050818103600083015261551e816154e2565b9050919050565b7f4e6f7468696e6720746f20636c61696d00000000000000000000000000000000600082015250565b600061555b601083614b9c565b915061556682615525565b602082019050919050565b6000602082019050818103600083015261558a8161554e565b9050919050565b6000815190506155a0816147d1565b92915050565b6000602082840312156155bc576155bb614591565b5b60006155ca84828501615591565b91505092915050565b60006155de82614730565b91506155e983614730565b92508282039050818112600084121682821360008512151617156156105761560f614c19565b5b92915050565b600061562182614730565b915061562c83614730565b925082820261563a81614730565b91507f8000000000000000000000000000000000000000000000000000000000000000841460008412161561567257615671614c19565b5b828205841483151761568757615686614c19565b5b5092915050565b600061569982614730565b91506156a483614730565b9250826156b4576156b3614cbe565b5b600160000383147f8000000000000000000000000000000000000000000000000000000000000000831416156156ed576156ec614c19565b5b828205905092915050565b7f427265616b6572206e6f74206163746976650000000000000000000000000000600082015250565b600061572e601283614b9c565b9150615739826156f8565b602082019050919050565b6000602082019050818103600083015261575d81615721565b9050919050565b7f436f6f6c646f776e206e6f7420636f6d706c6574650000000000000000000000600082015250565b600061579a601583614b9c565b91506157a582615764565b602082019050919050565b600060208201905081810360008301526157c98161578d565b9050919050565b60006020820190506157e56000830184614689565b92915050565b7f4e6f7468696e6720746f2063617368206f757400000000000000000000000000600082015250565b6000615821601383614b9c565b915061582c826157eb565b602082019050919050565b6000602082019050818103600083015261585081615814565b9050919050565b60006158628261455d565b91507fffffffffffffffffffffffffffffffffffffffffffffffffffffffffffffffff820361589457615893614c19565b5b600182019050919050565b6000819050919050565b60006158c46158bf6158ba8461589f565b61482a565b61455d565b9050919050565b6158d4816158a9565b82525050565b60006040820190506158ef6000830185614567565b6158fc60208301846158cb565b9392505050565b6000819050919050565b600061592861592361591e84615903565b61482a565b61455d565b9050919050565b6159388161590d565b82525050565b60006040820190506159536000830185614567565b615960602083018461592f565b939250505056fea2646970667358221220e67b038b500108af6eb909d9de75b0ee89a76dec8d89254e0d2d58317b7e8c8e64736f6c63430008140033",
  "linkReferences": {},
  "deployedLinkReferences": {}
}