{
  "_format": "hh-sol-artifact-1",
  "contractName": "IvyCore",
  "sourceName": "contracts/IvyCore.sol",
  "abi": [
    {
      "inputs": [
        {
          "internalType": "address",
          "name": "_ivyToken",
          "type": "address"
        }
      ],
      "stateMutability": "nonpayable",
      "type": "constructor"
    },
    {
      "inputs": [
        {
          "internalType": "address",
          "name": "owner",
          "type": "address"
        }
      ],
      "name": "OwnableInvalidOwner",
      "type": "error"
    },
    {
      "inputs": [
        {
          "internalType": "address",
          "name": "account",
          "type": "address"
        }
      ],
      "name": "OwnableUnauthorizedAccount",
      "type": "error"
    },
    {
      "inputs": [],
      "name": "ReentrancyGuardReentrantCall",
      "type": "error"
    },
    {
      "anonymous": false,
      "inputs": [
        {
          "indexed": false,
          "internalType": "uint256",
          "name": "newEmissionFactor",
          "type": "uint256"
        },
        {
          "indexed": false,
          "internalType": "uint256",
          "name": "totalMinted",
          "type": "uint256"
        }
      ],
      "name": "HalvingOccurred",
      "type": "event"
    },
    {
      "anonymous": false,
      "inputs": [
        {
          "indexed": true,
          "internalType": "address",
          "name": "user",
          "type": "address"
        },
        {
          "indexed": false,
          "internalType": "uint256",
          "name": "received",
          "type": "uint256"
        },
        {
          "indexed": false,
          "internalType": "uint256",
          "name": "burned",
          "type": "uint256"
        }
      ],
      "name": "InstantCashOut",
      "type": "event"
    },
    {
      "anonymous": false,
      "inputs": [
        {
          "indexed": true,
          "internalType": "address",
          "name": "previousOwner",
          "type": "address"
        },
        {
          "indexed": true,
          "internalType": "address",
          "name": "newOwner",
          "type": "address"
        }
      ],
      "name": "OwnershipTransferred",
      "type": "event"
    },
    {
      "anonymous": false,
      "inputs": [
        {
          "indexed": false,
          "internalType": "uint256",
          "name": "newMultiplier",
          "type": "uint256"
        }
      ],
      "name": "PidMultiplierUpdated",
      "type": "event"
    },
    {
      "anonymous": false,
      "inputs": [
        {
          "indexed": false,
          "internalType": "uint256",
          "name": "accIvyPerShare",
          "type": "uint256"
        },
        {
          "indexed": false,
          "internalType": "uint256",
          "name": "lastRewardTime",
          "type": "uint256"
        },
        {
          "indexed": false,
          "internalType": "uint256",
          "name": "totalPoolBondPower",
          "type": "uint256"
        }
      ],
      "name": "PoolUpdated",
      "type": "event"
    },
    {
      "anonymous": false,
      "inputs": [
        {
          "indexed": true,
          "internalType": "address",
          "name": "referrer",
          "type": "address"
        },
        {
          "indexed": true,
          "internalType": "address",
          "name": "from",
          "type": "address"
        },
        {
          "indexed": false,
          "internalType": "uint256",
          "name": "amount",
          "type": "uint256"
        },
        {
          "indexed": false,
          "internalType": "uint256",
          "name": "level",
          "type": "uint256"
        }
      ],
      "name": "ReferralRewardPaid",
      "type": "event"
    },
    {
      "anonymous": false,
      "inputs": [
        {
          "indexed": true,
          "internalType": "address",
          "name": "user",
          "type": "address"
        },
        {
          "indexed": false,
          "internalType": "uint256",
          "name": "amount",
          "type": "uint256"
        }
      ],
      "name": "RewardsHarvested",
      "type": "event"
    },
    {
      "anonymous": false,
      "inputs": [
        {
          "indexed": true,
          "internalType": "address",
          "name": "user",
          "type": "address"
        },
        {
          "indexed": false,
          "internalType": "uint256",
          "name": "bondPower",
          "type": "uint256"
        },
        {
          "indexed": false,
          "internalType": "uint256",
          "name": "rewardDebt",
          "type": "uint256"
        }
      ],
      "name": "UserSynced",
      "type": "event"
    },
    {
      "anonymous": false,
      "inputs": [
        {
          "indexed": true,
          "internalType": "address",
          "name": "user",
          "type": "address"
        },
        {
          "indexed": false,
          "internalType": "uint256",
          "name": "amount",
          "type": "uint256"
        }
      ],
      "name": "VestingClaimed",
      "type": "event"
    },
    {
      "anonymous": false,
      "inputs": [
        {
          "indexed": true,
          "internalType": "address",
          "name": "user",
          "type": "address"
        },
        {
          "indexed": false,
          "internalType": "uint256",
          "name": "amount",
          "type": "uint256"
        },
        {
          "indexed": false,
          "internalType": "uint256",
          "name": "startTime",
          "type": "uint256"
        }
      ],
      "name": "VestingStarted",
      "type": "event"
    },
    {
      "inputs": [],
      "name": "ACC_IVY_PRECISION",
      "outputs": [
        {
          "internalType": "uint256",
          "name": "",
          "type": "uint256"
        }
      ],
      "stateMutability": "view",
      "type": "function"
    },
    {
      "inputs": [],
      "name": "BASE_DAILY_EMISSION",
      "outputs": [
        {
          "internalType": "uint256",
          "name": "",
          "type": "uint256"
        }
      ],
      "stateMutability": "view",
      "type": "function"
    },
    {
      "inputs": [],
      "name": "BASIS_POINTS",
      "outputs": [
        {
          "internalType": "uint256",
          "name": "",
          "type": "uint256"
        }
      ],
      "stateMutability": "view",
      "type": "function"
    },
    {
      "inputs": [],
      "name": "EMISSION_PER_SECOND",
      "outputs": [
        {
          "internalType": "uint256",
          "name": "",
          "type": "uint256"
        }
      ],
      "stateMutability": "view",
      "type": "function"
    },
    {
      "inputs": [],
      "name": "HALVING_DECAY",
      "outputs": [
        {
          "internalType": "uint256",
          "name": "",
          "type": "uint256"
        }
      ],
      "stateMutability": "view",
      "type": "function"
    },
    {
      "inputs": [],
      "name": "HALVING_THRESHOLD",
      "outputs": [
        {
          "internalType": "uint256",
          "name": "",
          "type": "uint256"
        }
      ],
      "stateMutability": "view",
      "type": "function"
    },
    {
      "inputs": [],
      "name": "HARD_CAP",
      "outputs": [
        {
          "internalType": "uint256",
          "name": "",
          "type": "uint256"
        }
      ],
      "stateMutability": "view",
      "type": "function"
    },
    {
      "inputs": [],
      "name": "INFINITE_RATE",
      "outputs": [
        {
          "internalType": "uint256",
          "name": "",
          "type": "uint256"
        }
      ],
      "stateMutability": "view",
      "type": "function"
    },
    {
      "inputs": [],
      "name": "INSTANT_CASH_PENALTY",
      "outputs": [
        {
          "internalType": "uint256",
          "name": "",
          "type": "uint256"
        }
      ],
      "stateMutability": "view",
      "type": "function"
    },
    {
      "inputs": [],
      "name": "L1_RATE",
      "outputs": [
        {
          "internalType": "uint256",
          "name": "",
          "type": "uint256"
        }
      ],
      "stateMutability": "view",
      "type": "function"
    },
    {
      "inputs": [],
      "name": "L2_RATE",
      "outputs": [
        {
          "internalType": "uint256",
          "name": "",
          "type": "uint256"
        }
      ],
      "stateMutability": "view",
      "type": "function"
    },
    {
      "inputs": [],
      "name": "MAX_REFERRAL_DEPTH",
      "outputs": [
        {
          "internalType": "uint256",
          "name": "",
          "type": "uint256"
        }
      ],
      "stateMutability": "view",
      "type": "function"
    },
    {
      "inputs": [],
      "name": "VESTING_PERIOD",
      "outputs": [
        {
          "internalType": "uint256",
          "name": "",
          "type": "uint256"
        }
      ],
      "stateMutability": "view",
      "type": "function"
    },
    {
      "inputs": [],
      "name": "accIvyPerShare",
      "outputs": [
        {
          "internalType": "uint256",
          "name": "",
          "type": "uint256"
        }
      ],
      "stateMutability": "view",
      "type": "function"
    },
    {
      "inputs": [],
      "name": "claimVested",
      "outputs": [],
      "stateMutability": "nonpayable",
      "type": "function"
    },
    {
      "inputs": [],
      "name": "currentDailyEmission",
      "outputs": [
        {
          "internalType": "uint256",
          "name": "",
          "type": "uint256"
        }
      ],
      "stateMutability": "view",
      "type": "function"
    },
    {
      "inputs": [],
      "name": "emissionFactor",
      "outputs": [
        {
          "internalType": "uint256",
          "name": "",
          "type": "uint256"
        }
      ],
      "stateMutability": "view",
      "type": "function"
    },
    {
      "inputs": [],
      "name": "genesisNode",
      "outputs": [
        {
          "internalType": "contract IGenesisNode",
          "name": "",
          "type": "address"
        }
      ],
      "stateMutability": "view",
      "type": "function"
    },
    {
      "inputs": [],
      "name": "getProtocolStats",
      "outputs": [
        {
          "internalType": "uint256",
          "name": "_totalMinted",
          "type": "uint256"
        },
        {
          "internalType": "uint256",
          "name": "_hardCap",
          "type": "uint256"
        },
        {
          "internalType": "uint256",
          "name": "_emissionFactor",
          "type": "uint256"
        },
        {
          "internalType": "uint256",
          "name": "_pidMultiplier",
          "type": "uint256"
        },
        {
          "internalType": "uint256",
          "name": "_totalPoolBondPower",
          "type": "uint256"
        },
        {
          "internalType": "uint256",
          "name": "_emissionPerSecond",
          "type": "uint256"
        }
      ],
      "stateMutability": "view",
      "type": "function"
    },
    {
      "inputs": [
        {
          "internalType": "address",
          "name": "user",
          "type": "address"
        }
      ],
      "name": "getUserMiningStats",
      "outputs": [
        {
          "internalType": "uint256",
          "name": "_pendingReward",
          "type": "uint256"
        },
        {
          "internalType": "uint256",
          "name": "_totalClaimed",
          "type": "uint256"
        },
        {
          "internalType": "uint256",
          "name": "_referralEarnings",
          "type": "uint256"
        },
        {
          "internalType": "uint256",
          "name": "_vestedAmount",
          "type": "uint256"
        },
        {
          "internalType": "uint256",
          "name": "_claimableVested",
          "type": "uint256"
        },
        {
          "internalType": "uint256",
          "name": "_bondPower",
          "type": "uint256"
        }
      ],
      "stateMutability": "view",
      "type": "function"
    },
    {
      "inputs": [
        {
          "internalType": "address",
          "name": "user",
          "type": "address"
        }
      ],
      "name": "getVestingInfo",
      "outputs": [
        {
          "internalType": "uint256",
          "name": "totalVested",
          "type": "uint256"
        },
        {
          "internalType": "uint256",
          "name": "totalClaimed",
          "type": "uint256"
        },
        {
          "internalType": "uint256",
          "name": "claimable",
          "type": "uint256"
        },
        {
          "internalType": "uint256",
          "name": "vestingStartTime",
          "type": "uint256"
        },
        {
          "internalType": "uint256",
          "name": "vestingEndTime",
          "type": "uint256"
        },
        {
          "internalType": "uint256",
          "name": "percentVested",
          "type": "uint256"
        }
      ],
      "stateMutability": "view",
      "type": "function"
    },
    {
      "inputs": [],
      "name": "harvest",
      "outputs": [],
      "stateMutability": "nonpayable",
      "type": "function"
    },
    {
      "inputs": [],
      "name": "instantCashOut",
      "outputs": [],
      "stateMutability": "nonpayable",
      "type": "function"
    },
    {
      "inputs": [],
      "name": "ivyBond",
      "outputs": [
        {
          "internalType": "contract IIvyBond",
          "name": "",
          "type": "address"
        }
      ],
      "stateMutability": "view",
      "type": "function"
    },
    {
      "inputs": [],
      "name": "ivyToken",
      "outputs": [
        {
          "internalType": "contract IvyToken",
          "name": "",
          "type": "address"
        }
      ],
      "stateMutability": "view",
      "type": "function"
    },
    {
      "inputs": [],
      "name": "lastHalvingMinted",
      "outputs": [
        {
          "internalType": "uint256",
          "name": "",
          "type": "uint256"
        }
      ],
      "stateMutability": "view",
      "type": "function"
    },
    {
      "inputs": [],
      "name": "lastRewardTime",
      "outputs": [
        {
          "internalType": "uint256",
          "name": "",
          "type": "uint256"
        }
      ],
      "stateMutability": "view",
      "type": "function"
    },
    {
      "inputs": [],
      "name": "owner",
      "outputs": [
        {
          "internalType": "address",
          "name": "",
          "type": "address"
        }
      ],
      "stateMutability": "view",
      "type": "function"
    },
    {
      "inputs": [
        {
          "internalType": "address",
          "name": "user",
          "type": "address"
        }
      ],
      "name": "pendingIvy",
      "outputs": [
        {
          "internalType": "uint256",
          "name": "",
          "type": "uint256"
        }
      ],
      "stateMutability": "view",
      "type": "function"
    },
    {
      "inputs": [],
      "name": "pidMultiplier",
      "outputs": [
        {
          "internalType": "uint256",
          "name": "",
          "type": "uint256"
        }
      ],
      "stateMutability": "view",
      "type": "function"
    },
    {
      "inputs": [
        {
          "internalType": "address",
          "name": "",
          "type": "address"
        }
      ],
      "name": "referralRewardsEarned",
      "outputs": [
        {
          "internalType": "uint256",
          "name": "",
          "type": "uint256"
        }
      ],
      "stateMutability": "view",
      "type": "function"
    },
    {
      "inputs": [],
      "name": "renounceOwnership",
      "outputs": [],
      "stateMutability": "nonpayable",
      "type": "function"
    },
    {
      "inputs": [
        {
          "internalType": "address",
          "name": "_genesisNode",
          "type": "address"
        }
      ],
      "name": "setGenesisNode",
      "outputs": [],
      "stateMutability": "nonpayable",
      "type": "function"
    },
    {
      "inputs": [
        {
          "internalType": "address",
          "name": "_ivyBond",
          "type": "address"
        }
      ],
      "name": "setIvyBond",
      "outputs": [],
      "stateMutability": "nonpayable",
      "type": "function"
    },
    {
      "inputs": [
        {
          "internalType": "uint256",
          "name": "_multiplier",
          "type": "uint256"
        }
      ],
      "name": "setPidMultiplier",
      "outputs": [],
      "stateMutability": "nonpayable",
      "type": "function"
    },
    {
      "inputs": [
        {
          "internalType": "address",
          "name": "user",
          "type": "address"
        }
      ],
      "name": "syncUser",
      "outputs": [],
      "stateMutability": "nonpayable",
      "type": "function"
    },
    {
      "inputs": [],
      "name": "totalMinted",
      "outputs": [
        {
          "internalType": "uint256",
          "name": "",
          "type": "uint256"
        }
      ],
      "stateMutability": "view",
      "type": "function"
    },
    {
      "inputs": [],
      "name": "totalPoolBondPower",
      "outputs": [
        {
          "internalType": "uint256",
          "name": "",
          "type": "uint256"
        }
      ],
      "stateMutability": "view",
      "type": "function"
    },
    {
      "inputs": [
        {
          "internalType": "address",
          "name": "newOwner",
          "type": "address"
        }
      ],
      "name": "transferOwnership",
      "outputs": [],
      "stateMutability": "nonpayable",
      "type": "function"
    },
    {
      "inputs": [],
      "name": "updatePool",
      "outputs": [],
      "stateMutability": "nonpayable",
      "type": "function"
    },
    {
      "inputs": [
        {
          "internalType": "address",
          "name": "",
          "type": "address"
        }
      ],
      "name": "userInfo",
      "outputs": [
        {
          "internalType": "uint256",
          "name": "bondPower",
          "type": "uint256"
        },
        {
          "internalType": "uint256",
          "name": "rewardDebt",
          "type": "uint256"
        },
        {
          "internalType": "uint256",
          "name": "pendingVested",
          "type": "uint256"
        },
        {
          "internalType": "uint256",
          "name": "vestingStartTime",
          "type": "uint256"
        },
        {
          "internalType": "uint256",
          "name": "totalVested",
          "type": "uint256"
        },
        {
          "internalType": "uint256",
          "name": "totalClaimed",
          "type": "uint256"
        }
      ],
      "stateMutability": "view",
      "type": "function"
    }
  ],
  "bytecode": "0x6080604052670de0b6b3a7640000600855670de0b6b3a7640000600b553480156200002957600080fd5b50604051620034b8380380620034b883398181016040528101906200004f91906200025b565b33600073ffffffffffffffffffffffffffffffffffffffff168173ffffffffffffffffffffffffffffffffffffffff1603620000c55760006040517f1e4fbdf7000000000000000000000000000000000000000000000000000000008152600401620000bc91906200029e565b60405180910390fd5b620000d6816200012d60201b60201c565b506001808190555080600460006101000a81548173ffffffffffffffffffffffffffffffffffffffff021916908373ffffffffffffffffffffffffffffffffffffffff1602179055504260068190555050620002bb565b60008060009054906101000a900473ffffffffffffffffffffffffffffffffffffffff169050816000806101000a81548173ffffffffffffffffffffffffffffffffffffffff021916908373ffffffffffffffffffffffffffffffffffffffff1602179055508173ffffffffffffffffffffffffffffffffffffffff168173ffffffffffffffffffffffffffffffffffffffff167f8be0079c531659141344cd1fd0a4f28419497f9722a3daafe3b4186f6b6457e060405160405180910390a35050565b600080fd5b600073ffffffffffffffffffffffffffffffffffffffff82169050919050565b60006200022382620001f6565b9050919050565b620002358162000216565b81146200024157600080fd5b50565b60008151905062000255816200022a565b92915050565b600060208284031215620002745762000273620001f1565b5b6000620002848482850162000244565b91505092915050565b620002988162000216565b82525050565b6000602082019050620002b560008301846200028d565b92915050565b6131ed80620002cb6000396000f3fe608060405234801561001057600080fd5b50600436106102535760003560e01c8063945c3ebd11610146578063d01c44cd116100c3578063e88067e811610087578063e88067e814610673578063e979ca4a1461068f578063eef1be2c14610699578063f2fde38b146106b7578063f706555b146106d3578063fb897ce4146106f157610253565b8063d01c44cd146105f3578063da6510b4146105fd578063e1f1c4a71461061b578063e3161ddd14610639578063e4941c391461064357610253565b8063a2309ff81161010a578063a2309ff81461054d578063a28aee151461056b578063a29a7ab014610589578063b3def2f5146105b9578063c4c126ad146105d757610253565b8063945c3ebd146104b7578063983d896e146104d55780639b565faa146104f35780639d14b2a2146105115780639f55d64c1461052f57610253565b80634897fffb116101d457806389e59ea01161019857806389e59ea0146104235780638da5cb5b146104415780638e8b6c881461045f5780639231cf741461047b578063934b7c541461049957610253565b80634897fffb14610385578063617eb858146103a3578063715018a6146103c157806374c7773e146103cb578063771aceef1461040057610253565b8063277c19b01161021b578063277c19b01461030357806329146555146103215780633a03171c1461033f578063458f8f941461035d5780634641257d1461037b57610253565b80630197d97214610258578063033d30fe14610276578063091075a9146102925780630c2330a5146102b05780631959a002146102ce575b600080fd5b610260610726565b60405161026d9190612812565b60405180910390f35b610290600480360381019061028b9190612890565b61072d565b005b61029a6107e8565b6040516102a79190612812565b60405180910390f35b6102b861082e565b6040516102c59190612812565b60405180910390f35b6102e860048036038101906102e39190612890565b610834565b6040516102fa969594939291906128bd565b60405180910390f35b61030b610870565b6040516103189190612812565b60405180910390f35b610329610875565b604051610336919061297d565b60405180910390f35b61034761089b565b6040516103549190612812565b60405180910390f35b6103656108aa565b6040516103729190612812565b60405180910390f35b6103836108b3565b005b61038d610b46565b60405161039a91906129b9565b60405180910390f35b6103ab610b6c565b6040516103b89190612812565b60405180910390f35b6103c9610b72565b005b6103e560048036038101906103e09190612890565b610b86565b6040516103f7969594939291906128bd565b60405180910390f35b610408610cd0565b60405161041a969594939291906128bd565b60405180910390f35b61042b610d1e565b6040516104389190612812565b60405180910390f35b610449610d23565b60405161045691906129e3565b60405180910390f35b61047960048036038101906104749190612890565b610d4c565b005b610483610d58565b6040516104909190612812565b60405180910390f35b6104a1610d5e565b6040516104ae9190612812565b60405180910390f35b6104bf610d64565b6040516104cc9190612812565b60405180910390f35b6104dd610d72565b6040516104ea9190612812565b60405180910390f35b6104fb610d77565b6040516105089190612a1f565b60405180910390f35b610519610d9d565b6040516105269190612812565b60405180910390f35b610537610da3565b6040516105449190612812565b60405180910390f35b610555610db2565b6040516105629190612812565b60405180910390f35b610573610db8565b6040516105809190612812565b60405180910390f35b6105a3600480360381019061059e9190612890565b610dd4565b6040516105b09190612812565b60405180910390f35b6105c1610dec565b6040516105ce9190612812565b60405180910390f35b6105f160048036038101906105ec9190612a66565b610df2565b005b6105fb610e9a565b005b6106056110ee565b6040516106129190612812565b60405180910390f35b6106236110f4565b6040516106309190612812565b60405180910390f35b6106416110fa565b005b61065d60048036038101906106589190612890565b611251565b60405161066a9190612812565b60405180910390f35b61068d60048036038101906106889190612890565b6113d9565b005b610697611494565b005b6106a161171e565b6040516106ae9190612812565b60405180910390f35b6106d160048036038101906106cc9190612890565b611724565b005b6106db6117aa565b6040516106e89190612812565b60405180910390f35b61070b60048036038101906107069190612890565b6117b0565b60405161071d969594939291906128bd565b60405180910390f35b62278d0081565b6107356118e5565b600073ffffffffffffffffffffffffffffffffffffffff168173ffffffffffffffffffffffffffffffffffffffff16036107a4576040517f08c379a000000000000000000000000000000000000000000000000000000000815260040161079b90612af0565b60405180910390fd5b80600360006101000a81548173ffffffffffffffffffffffffffffffffffffffff021916908373ffffffffffffffffffffffffffffffffffffffff16021790555050565b60006ec097ce7bc90715b34b9f1000000000600b5460085469065a4da25d3016c000006108159190612b3f565b61081f9190612b3f565b6108299190612bb0565b905090565b61138881565b600c6020528060005260406000206000915090508060000154908060010154908060020154908060030154908060040154908060050154905086565b60c881565b600360009054906101000a900473ffffffffffffffffffffffffffffffffffffffff1681565b6a52b7d2dcc80cd2e400000081565b64e8d4a5100081565b6108bb61196c565b60003390506108c9816119b2565b6000600c60008373ffffffffffffffffffffffffffffffffffffffff1673ffffffffffffffffffffffffffffffffffffffff168152602001908152602001600020905060008160020154905060008111610958576040517f08c379a000000000000000000000000000000000000000000000000000000000815260040161094f90612c2d565b60405180910390fd5b6a52b7d2dcc80cd2e4000000816009546109729190612c4d565b11156109b3576040517f08c379a00000000000000000000000000000000000000000000000000000000081526004016109aa90612ccd565b60405180910390fd5b808260040160008282546109c79190612c4d565b9250508190555042826003018190555060008260020181905550600460009054906101000a900473ffffffffffffffffffffffffffffffffffffffff1673ffffffffffffffffffffffffffffffffffffffff166340c10f1930836040518363ffffffff1660e01b8152600401610a3e929190612ced565b600060405180830381600087803b158015610a5857600080fd5b505af1158015610a6c573d6000803e3d6000fd5b505050508060096000828254610a829190612c4d565b925050819055508273ffffffffffffffffffffffffffffffffffffffff167f8fe19f160f86d04fb1a90dde93e5e1a47df0810685adf4b990153c107d7b39248242604051610ad1929190612d16565b60405180910390a28273ffffffffffffffffffffffffffffffffffffffff167fbc8fb63d817de4fabea2108e9b7eefca87245899f4b357636c26b5cad02ec5b482604051610b1f9190612812565b60405180910390a2610b318382611d29565b610b39612699565b505050610b44612724565b565b600460009054906101000a900473ffffffffffffffffffffffffffffffffffffffff1681565b600b5481565b610b7a6118e5565b610b84600061272d565b565b6000806000806000806000600c60008973ffffffffffffffffffffffffffffffffffffffff1673ffffffffffffffffffffffffffffffffffffffff1681526020019081526020016000209050610bdb88611251565b965080600501549550600d60008973ffffffffffffffffffffffffffffffffffffffff1673ffffffffffffffffffffffffffffffffffffffff1681526020019081526020016000205494508060040154935060008160040154118015610c45575060008160030154115b15610cbf576000816003015442610c5c9190612d3f565b9050600062278d008210610c765782600401549050610c97565b62278d00828460040154610c8a9190612b3f565b610c949190612bb0565b90505b82600501548111610ca9576000610cba565b826005015481610cb99190612d3f565b5b945050505b806000015491505091939550919395565b6000806000806000806009546a52b7d2dcc80cd2e4000000600854600b546007546201518069065a4da25d3016c00000610d0a9190612bb0565b955095509550955095509550909192939495565b601481565b60008060009054906101000a900473ffffffffffffffffffffffffffffffffffffffff16905090565b610d55816119b2565b50565b60065481565b600a5481565b69065a4da25d3016c0000081565b605f81565b600260009054906101000a900473ffffffffffffffffffffffffffffffffffffffff1681565b60075481565b6a05ca4ec2a79a7f6700000081565b60095481565b6201518069065a4da25d3016c00000610dd19190612bb0565b81565b600d6020528060005260406000206000915090505481565b60085481565b610dfa6118e5565b6706f05b59d3b200008110158015610e1a5750671bc16d674ec800008111155b610e59576040517f08c379a0000000000000000000000000000000000000000000000000000000008152600401610e5090612dbf565b60405180910390fd5b80600b819055507f244c07c1ccf23528bb6ddda94fe242debdee96508ed4b527ffd3d0d44e5355f481604051610e8f9190612812565b60405180910390a150565b610ea261196c565b60003390506000600c60008373ffffffffffffffffffffffffffffffffffffffff1673ffffffffffffffffffffffffffffffffffffffff16815260200190815260200160002090506000816004015411610f31576040517f08c379a0000000000000000000000000000000000000000000000000000000008152600401610f2890612e2b565b60405180910390fd5b6000816003015442610f439190612d3f565b9050600062278d008210610f5d5782600401549050610f7e565b62278d00828460040154610f719190612b3f565b610f7b9190612bb0565b90505b6000836005015482610f909190612d3f565b905060008111610fd5576040517f08c379a0000000000000000000000000000000000000000000000000000000008152600401610fcc90612e97565b60405180910390fd5b80846005016000828254610fe99190612c4d565b92505081905550600460009054906101000a900473ffffffffffffffffffffffffffffffffffffffff1673ffffffffffffffffffffffffffffffffffffffff1663a9059cbb86836040518363ffffffff1660e01b815260040161104d929190612ced565b6020604051808303816000875af115801561106c573d6000803e3d6000fd5b505050506040513d601f19601f820116820180604052508101906110909190612eef565b508473ffffffffffffffffffffffffffffffffffffffff167f9fe9b7be9d151c7a8b6de49a1312ff27a15096d0d1d12999af85fe4310e0b125826040516110d79190612812565b60405180910390a250505050506110ec612724565b565b6101f481565b61271081565b60065442111561124f5760006007540361111a574260068190555061124f565b60006006544261112a9190612d3f565b905060006ec097ce7bc90715b34b9f1000000000600b546008546201518069065a4da25d3016c0000061115d9190612bb0565b856111689190612b3f565b6111729190612b3f565b61117c9190612b3f565b6111869190612bb0565b90506a52b7d2dcc80cd2e4000000816009546111a29190612c4d565b11156111c4576009546a52b7d2dcc80cd2e40000006111c19190612d3f565b90505b60008111156112045760075464e8d4a51000826111e19190612b3f565b6111eb9190612bb0565b600560008282546111fc9190612c4d565b925050819055505b426006819055507f17b8644f386d1c7c7138ef98b3c8035622bbe94d7be9b26f71d2654a547c294360055460065460075460405161124493929190612f1c565b60405180910390a150505b565b600080600c60008473ffffffffffffffffffffffffffffffffffffffff1673ffffffffffffffffffffffffffffffffffffffff168152602001908152602001600020905060006005549050600654421180156112af57506000600754115b1561138c576000600654426112c49190612d3f565b905060006ec097ce7bc90715b34b9f1000000000600b546008546201518069065a4da25d3016c000006112f79190612bb0565b856113029190612b3f565b61130c9190612b3f565b6113169190612b3f565b6113209190612bb0565b90506a52b7d2dcc80cd2e40000008160095461133c9190612c4d565b111561135e576009546a52b7d2dcc80cd2e400000061135b9190612d3f565b90505b60075464e8d4a51000826113729190612b3f565b61137c9190612bb0565b836113879190612c4d565b925050505b6000826001015464e8d4a510008385600001546113a99190612b3f565b6113b39190612bb0565b6113bd9190612d3f565b90508260020154816113cf9190612c4d565b9350505050919050565b6113e16118e5565b600073ffffffffffffffffffffffffffffffffffffffff168173ffffffffffffffffffffffffffffffffffffffff1603611450576040517f08c379a000000000000000000000000000000000000000000000000000000000815260040161144790612af0565b60405180910390fd5b80600260006101000a81548173ffffffffffffffffffffffffffffffffffffffff021916908373ffffffffffffffffffffffffffffffffffffffff16021790555050565b61149c61196c565b60003390506000600c60008373ffffffffffffffffffffffffffffffffffffffff1673ffffffffffffffffffffffffffffffffffffffff16815260200190815260200160002090506000816005015482600401546114fa9190612d3f565b90506000811161153f576040517f08c379a000000000000000000000000000000000000000000000000000000000815260040161153690612f9f565b60405180910390fd5b6000612710611388836115529190612b3f565b61155c9190612bb0565b90506000818361156c9190612d3f565b905083600401548460050181905550600460009054906101000a900473ffffffffffffffffffffffffffffffffffffffff1673ffffffffffffffffffffffffffffffffffffffff1663a9059cbb86836040518363ffffffff1660e01b81526004016115d8929190612ced565b6020604051808303816000875af11580156115f7573d6000803e3d6000fd5b505050506040513d601f19601f8201168201806040525081019061161b9190612eef565b50600460009054906101000a900473ffffffffffffffffffffffffffffffffffffffff1673ffffffffffffffffffffffffffffffffffffffff1663a9059cbb61dead846040518363ffffffff1660e01b815260040161167b929190612ced565b6020604051808303816000875af115801561169a573d6000803e3d6000fd5b505050506040513d601f19601f820116820180604052508101906116be9190612eef565b508473ffffffffffffffffffffffffffffffffffffffff167f92207ec016968e0ee608b41c92470ff10e9f810a8dec5f40901974ac75ed498e8284604051611707929190612d16565b60405180910390a2505050505061171c612724565b565b60055481565b61172c6118e5565b600073ffffffffffffffffffffffffffffffffffffffff168173ffffffffffffffffffffffffffffffffffffffff160361179e5760006040517f1e4fbdf700000000000000000000000000000000000000000000000000000000815260040161179591906129e3565b60405180910390fd5b6117a78161272d565b50565b6103e881565b6000806000806000806000600c60008973ffffffffffffffffffffffffffffffffffffffff1673ffffffffffffffffffffffffffffffffffffffff168152602001908152602001600020905080600401549650806005015495508060030154935062278d0081600301546118249190612c4d565b92506000816004015411801561183e575060008160030154115b156118db5760008160030154426118559190612d3f565b9050600062278d008210611874578260040154905061271093506118b3565b62278d008284600401546118889190612b3f565b6118929190612bb0565b905062278d00612710836118a69190612b3f565b6118b09190612bb0565b93505b826005015481116118c55760006118d6565b8260050154816118d59190612d3f565b5b965050505b5091939550919395565b6118ed6127f1565b73ffffffffffffffffffffffffffffffffffffffff1661190b610d23565b73ffffffffffffffffffffffffffffffffffffffff161461196a5761192e6127f1565b6040517f118cdaa700000000000000000000000000000000000000000000000000000000815260040161196191906129e3565b60405180910390fd5b565b6002600154036119a8576040517f3ee5aeb500000000000000000000000000000000000000000000000000000000815260040160405180910390fd5b6002600181905550565b6119ba6110fa565b6000600c60008373ffffffffffffffffffffffffffffffffffffffff1673ffffffffffffffffffffffffffffffffffffffff168152602001908152602001600020905060008073ffffffffffffffffffffffffffffffffffffffff16600360009054906101000a900473ffffffffffffffffffffffffffffffffffffffff1673ffffffffffffffffffffffffffffffffffffffff1614611af357600360009054906101000a900473ffffffffffffffffffffffffffffffffffffffff1673ffffffffffffffffffffffffffffffffffffffff1663ab0229a0846040518263ffffffff1660e01b8152600401611aaf91906129e3565b602060405180830381865afa158015611acc573d6000803e3d6000fd5b505050506040513d601f19601f82011682018060405250810190611af09190612fd4565b90505b60008073ffffffffffffffffffffffffffffffffffffffff16600260009054906101000a900473ffffffffffffffffffffffffffffffffffffffff1673ffffffffffffffffffffffffffffffffffffffff1614611be957600260009054906101000a900473ffffffffffffffffffffffffffffffffffffffff1673ffffffffffffffffffffffffffffffffffffffff166304d1334f856040518263ffffffff1660e01b8152600401611ba591906129e3565b602060405180830381865afa158015611bc2573d6000803e3d6000fd5b505050506040513d601f19601f82011682018060405250810190611be69190612fd4565b90505b600061271082612710611bfc9190612c4d565b84611c079190612b3f565b611c119190612bb0565b9050600084600001541115611c7c576000846001015464e8d4a510006005548760000154611c3f9190612b3f565b611c499190612bb0565b611c539190612d3f565b90506000811115611c7a5780856002016000828254611c729190612c4d565b925050819055505b505b808460000154600754611c8f9190612d3f565b611c999190612c4d565b60078190555080846000018190555064e8d4a5100060055482611cbc9190612b3f565b611cc69190612bb0565b84600101819055508473ffffffffffffffffffffffffffffffffffffffff167fdfc331ca16b8c4320a402867e832423d16ad3de953e474a499baf3697aa9e894828660010154604051611d1a929190612d16565b60405180910390a25050505050565b600073ffffffffffffffffffffffffffffffffffffffff16600260009054906101000a900473ffffffffffffffffffffffffffffffffffffffff1673ffffffffffffffffffffffffffffffffffffffff160315612695576000600260009054906101000a900473ffffffffffffffffffffffffffffffffffffffff1673ffffffffffffffffffffffffffffffffffffffff16634a9fefc7846040518263ffffffff1660e01b8152600401611ddd91906129e3565b602060405180830381865afa158015611dfa573d6000803e3d6000fd5b505050506040513d601f19601f82011682018060405250810190611e1e9190613016565b9050600073ffffffffffffffffffffffffffffffffffffffff168173ffffffffffffffffffffffffffffffffffffffff1603611e5a5750612695565b60006127106103e884611e6d9190612b3f565b611e779190612bb0565b9050600081118015611ea157506a52b7d2dcc80cd2e400000081600954611e9e9190612c4d565b11155b1561200d57600460009054906101000a900473ffffffffffffffffffffffffffffffffffffffff1673ffffffffffffffffffffffffffffffffffffffff166340c10f1983836040518363ffffffff1660e01b8152600401611f03929190612ced565b600060405180830381600087803b158015611f1d57600080fd5b505af1158015611f31573d6000803e3d6000fd5b505050508060096000828254611f479190612c4d565b9250508190555080600d60008473ffffffffffffffffffffffffffffffffffffffff1673ffffffffffffffffffffffffffffffffffffffff1681526020019081526020016000206000828254611f9d9190612c4d565b925050819055508373ffffffffffffffffffffffffffffffffffffffff168273ffffffffffffffffffffffffffffffffffffffff167fe679beb5d98a54fda65331587d36d13358e8bf295be15e932c482164f8fde95e83600160405161200492919061307e565b60405180910390a35b6000600260009054906101000a900473ffffffffffffffffffffffffffffffffffffffff1673ffffffffffffffffffffffffffffffffffffffff16634a9fefc7846040518263ffffffff1660e01b815260040161206a91906129e3565b602060405180830381865afa158015612087573d6000803e3d6000fd5b505050506040513d601f19601f820116820180604052508101906120ab9190613016565b9050600073ffffffffffffffffffffffffffffffffffffffff168173ffffffffffffffffffffffffffffffffffffffff16036120e957505050612695565b60006127106101f4866120fc9190612b3f565b6121069190612bb0565b905060008111801561213057506a52b7d2dcc80cd2e40000008160095461212d9190612c4d565b11155b1561229c57600460009054906101000a900473ffffffffffffffffffffffffffffffffffffffff1673ffffffffffffffffffffffffffffffffffffffff166340c10f1983836040518363ffffffff1660e01b8152600401612192929190612ced565b600060405180830381600087803b1580156121ac57600080fd5b505af11580156121c0573d6000803e3d6000fd5b5050505080600960008282546121d69190612c4d565b9250508190555080600d60008473ffffffffffffffffffffffffffffffffffffffff1673ffffffffffffffffffffffffffffffffffffffff168152602001908152602001600020600082825461222c9190612c4d565b925050819055508573ffffffffffffffffffffffffffffffffffffffff168273ffffffffffffffffffffffffffffffffffffffff167fe679beb5d98a54fda65331587d36d13358e8bf295be15e932c482164f8fde95e8360026040516122939291906130e2565b60405180910390a35b6000600260009054906101000a900473ffffffffffffffffffffffffffffffffffffffff1673ffffffffffffffffffffffffffffffffffffffff16634a9fefc7846040518263ffffffff1660e01b81526004016122f991906129e3565b602060405180830381865afa158015612316573d6000803e3d6000fd5b505050506040513d601f19601f8201168201806040525081019061233a9190613016565b905060005b600073ffffffffffffffffffffffffffffffffffffffff168273ffffffffffffffffffffffffffffffffffffffff161415801561237c5750601481105b1561268e576000600260009054906101000a900473ffffffffffffffffffffffffffffffffffffffff1673ffffffffffffffffffffffffffffffffffffffff166370a08231846040518263ffffffff1660e01b81526004016123de91906129e3565b602060405180830381865afa1580156123fb573d6000803e3d6000fd5b505050506040513d601f19601f8201168201806040525081019061241f9190612fd4565b11156125dd57600061271060c8896124379190612b3f565b6124419190612bb0565b905060008111801561246b57506a52b7d2dcc80cd2e4000000816009546124689190612c4d565b11155b156125d757600460009054906101000a900473ffffffffffffffffffffffffffffffffffffffff1673ffffffffffffffffffffffffffffffffffffffff166340c10f1984836040518363ffffffff1660e01b81526004016124cd929190612ced565b600060405180830381600087803b1580156124e757600080fd5b505af11580156124fb573d6000803e3d6000fd5b5050505080600960008282546125119190612c4d565b9250508190555080600d60008573ffffffffffffffffffffffffffffffffffffffff1673ffffffffffffffffffffffffffffffffffffffff16815260200190815260200160002060008282546125679190612c4d565b925050819055508873ffffffffffffffffffffffffffffffffffffffff168373ffffffffffffffffffffffffffffffffffffffff167fe679beb5d98a54fda65331587d36d13358e8bf295be15e932c482164f8fde95e8360036040516125ce929190613146565b60405180910390a35b5061268e565b600260009054906101000a900473ffffffffffffffffffffffffffffffffffffffff1673ffffffffffffffffffffffffffffffffffffffff16634a9fefc7836040518263ffffffff1660e01b815260040161263891906129e3565b602060405180830381865afa158015612655573d6000803e3d6000fd5b505050506040513d601f19601f820116820180604052508101906126799190613016565b915080806126869061316f565b91505061233f565b5050505050505b5050565b6a05ca4ec2a79a7f67000000600a546009546126b59190612d3f565b10612722576064605f6008546126cb9190612b3f565b6126d59190612bb0565b600881905550600954600a819055507fde141711fef892cdaea55f1f6a85e241382fcefc69efdb496eff235992a18ed4600854600954604051612719929190612d16565b60405180910390a15b565b60018081905550565b60008060009054906101000a900473ffffffffffffffffffffffffffffffffffffffff169050816000806101000a81548173ffffffffffffffffffffffffffffffffffffffff021916908373ffffffffffffffffffffffffffffffffffffffff1602179055508173ffffffffffffffffffffffffffffffffffffffff168173ffffffffffffffffffffffffffffffffffffffff167f8be0079c531659141344cd1fd0a4f28419497f9722a3daafe3b4186f6b6457e060405160405180910390a35050565b600033905090565b6000819050919050565b61280c816127f9565b82525050565b60006020820190506128276000830184612803565b92915050565b600080fd5b600073ffffffffffffffffffffffffffffffffffffffff82169050919050565b600061285d82612832565b9050919050565b61286d81612852565b811461287857600080fd5b50565b60008135905061288a81612864565b92915050565b6000602082840312156128a6576128a561282d565b5b60006128b48482850161287b565b91505092915050565b600060c0820190506128d26000830189612803565b6128df6020830188612803565b6128ec6040830187612803565b6128f96060830186612803565b6129066080830185612803565b61291360a0830184612803565b979650505050505050565b6000819050919050565b600061294361293e61293984612832565b61291e565b612832565b9050919050565b600061295582612928565b9050919050565b60006129678261294a565b9050919050565b6129778161295c565b82525050565b6000602082019050612992600083018461296e565b92915050565b60006129a38261294a565b9050919050565b6129b381612998565b82525050565b60006020820190506129ce60008301846129aa565b92915050565b6129dd81612852565b82525050565b60006020820190506129f860008301846129d4565b92915050565b6000612a098261294a565b9050919050565b612a19816129fe565b82525050565b6000602082019050612a346000830184612a10565b92915050565b612a43816127f9565b8114612a4e57600080fd5b50565b600081359050612a6081612a3a565b92915050565b600060208284031215612a7c57612a7b61282d565b5b6000612a8a84828501612a51565b91505092915050565b600082825260208201905092915050565b7f496e76616c696420616464726573730000000000000000000000000000000000600082015250565b6000612ada600f83612a93565b9150612ae582612aa4565b602082019050919050565b60006020820190508181036000830152612b0981612acd565b9050919050565b7f4e487b7100000000000000000000000000000000000000000000000000000000600052601160045260246000fd5b6000612b4a826127f9565b9150612b55836127f9565b9250828202612b63816127f9565b91508282048414831517612b7a57612b79612b10565b5b5092915050565b7f4e487b7100000000000000000000000000000000000000000000000000000000600052601260045260246000fd5b6000612bbb826127f9565b9150612bc6836127f9565b925082612bd657612bd5612b81565b5b828204905092915050565b7f4e6f207265776172647320746f20686172766573740000000000000000000000600082015250565b6000612c17601583612a93565b9150612c2282612be1565b602082019050919050565b60006020820190508181036000830152612c4681612c0a565b9050919050565b6000612c58826127f9565b9150612c63836127f9565b9250828201905080821115612c7b57612c7a612b10565b5b92915050565b7f4861726420636170207265616368656400000000000000000000000000000000600082015250565b6000612cb7601083612a93565b9150612cc282612c81565b602082019050919050565b60006020820190508181036000830152612ce681612caa565b9050919050565b6000604082019050612d0260008301856129d4565b612d0f6020830184612803565b9392505050565b6000604082019050612d2b6000830185612803565b612d386020830184612803565b9392505050565b6000612d4a826127f9565b9150612d55836127f9565b9250828203905081811115612d6d57612d6c612b10565b5b92915050565b7f496e76616c6964206d756c7469706c6965720000000000000000000000000000600082015250565b6000612da9601283612a93565b9150612db482612d73565b602082019050919050565b60006020820190508181036000830152612dd881612d9c565b9050919050565b7f4e6f207665737465642072657761726473000000000000000000000000000000600082015250565b6000612e15601183612a93565b9150612e2082612ddf565b602082019050919050565b60006020820190508181036000830152612e4481612e08565b9050919050565b7f4e6f20636c61696d61626c652072657761726473000000000000000000000000600082015250565b6000612e81601483612a93565b9150612e8c82612e4b565b602082019050919050565b60006020820190508181036000830152612eb081612e74565b9050919050565b60008115159050919050565b612ecc81612eb7565b8114612ed757600080fd5b50565b600081519050612ee981612ec3565b92915050565b600060208284031215612f0557612f0461282d565b5b6000612f1384828501612eda565b91505092915050565b6000606082019050612f316000830186612803565b612f3e6020830185612803565b612f4b6040830184612803565b949350505050565b7f4e6f20766573746564207265776172647320746f2063617368206f7574000000600082015250565b6000612f89601d83612a93565b9150612f9482612f53565b602082019050919050565b60006020820190508181036000830152612fb881612f7c565b9050919050565b600081519050612fce81612a3a565b92915050565b600060208284031215612fea57612fe961282d565b5b6000612ff884828501612fbf565b91505092915050565b60008151905061301081612864565b92915050565b60006020828403121561302c5761302b61282d565b5b600061303a84828501613001565b91505092915050565b6000819050919050565b600061306861306361305e84613043565b61291e565b6127f9565b9050919050565b6130788161304d565b82525050565b60006040820190506130936000830185612803565b6130a0602083018461306f565b9392505050565b6000819050919050565b60006130cc6130c76130c2846130a7565b61291e565b6127f9565b9050919050565b6130dc816130b1565b82525050565b60006040820190506130f76000830185612803565b61310460208301846130d3565b9392505050565b6000819050919050565b600061313061312b6131268461310b565b61291e565b6127f9565b9050919050565b61314081613115565b82525050565b600060408201905061315b6000830185612803565b6131686020830184613137565b9392505050565b600061317a826127f9565b91507fffffffffffffffffffffffffffffffffffffffffffffffffffffffffffffffff82036131ac576131ab612b10565b5b60018201905091905056fea26469706673582212204d36114c7c187a8ff1dca82242ed00732ee82f769378d0baae0ac2f1a7ba3f7164736f6c63430008140033",
  "linkReferences": {},
  "deployedLinkReferences": {}
}