{
  "_format": "hh-sol-artifact-1",
  "contractName": "IvyCore",
  "sourceName": "contracts/IvyCore.sol",
  "abi": [
    {
      "inputs": [
        {
          "internalType": "address",
          "name": "_ivyToken",
          "type": "address"
        }
      ],
      "stateMutability": "nonpayable",
      "type": "constructor"
    },
    {
      "inputs": [
        {
          "internalType": "address",
          "name": "owner",
          "type": "address"
        }
      ],
      "name": "OwnableInvalidOwner",
      "type": "error"
    },
    {
      "inputs": [
        {
          "internalType": "address",
          "name": "account",
          "type": "address"
        }
      ],
      "name": "OwnableUnauthorizedAccount",
      "type": "error"
    },
    {
      "inputs": [],
      "name": "ReentrancyGuardReentrantCall",
      "type": "error"
    },
    {
      "anonymous": false,
      "inputs": [
        {
          "indexed": false,
          "internalType": "enum IvyCore.BreakerLevel",
          "name": "previousLevel",
          "type": "uint8"
        }
      ],
      "name": "CircuitBreakerReset",
      "type": "event"
    },
    {
      "anonymous": false,
      "inputs": [
        {
          "indexed": false,
          "internalType": "enum IvyCore.BreakerLevel",
          "name": "level",
          "type": "uint8"
        },
        {
          "indexed": false,
          "internalType": "uint256",
          "name": "activationTime",
          "type": "uint256"
        },
        {
          "indexed": false,
          "internalType": "uint256",
          "name": "activationPrice",
          "type": "uint256"
        }
      ],
      "name": "CircuitBreakerTriggered",
      "type": "event"
    },
    {
      "anonymous": false,
      "inputs": [
        {
          "indexed": false,
          "internalType": "uint256",
          "name": "newEmissionFactor",
          "type": "uint256"
        },
        {
          "indexed": false,
          "internalType": "uint256",
          "name": "totalMinted",
          "type": "uint256"
        }
      ],
      "name": "HalvingOccurred",
      "type": "event"
    },
    {
      "anonymous": false,
      "inputs": [
        {
          "indexed": true,
          "internalType": "address",
          "name": "user",
          "type": "address"
        },
        {
          "indexed": false,
          "internalType": "uint256",
          "name": "received",
          "type": "uint256"
        },
        {
          "indexed": false,
          "internalType": "uint256",
          "name": "burned",
          "type": "uint256"
        }
      ],
      "name": "InstantCashOut",
      "type": "event"
    },
    {
      "anonymous": false,
      "inputs": [
        {
          "indexed": true,
          "internalType": "address",
          "name": "previousOwner",
          "type": "address"
        },
        {
          "indexed": true,
          "internalType": "address",
          "name": "newOwner",
          "type": "address"
        }
      ],
      "name": "OwnershipTransferred",
      "type": "event"
    },
    {
      "anonymous": false,
      "inputs": [
        {
          "indexed": false,
          "internalType": "uint256",
          "name": "accIvyPerShare",
          "type": "uint256"
        },
        {
          "indexed": false,
          "internalType": "uint256",
          "name": "lastRewardTime",
          "type": "uint256"
        },
        {
          "indexed": false,
          "internalType": "uint256",
          "name": "totalPoolBondPower",
          "type": "uint256"
        }
      ],
      "name": "PoolUpdated",
      "type": "event"
    },
    {
      "anonymous": false,
      "inputs": [
        {
          "indexed": false,
          "internalType": "uint256",
          "name": "currentPrice",
          "type": "uint256"
        },
        {
          "indexed": false,
          "internalType": "uint256",
          "name": "ma30Price",
          "type": "uint256"
        },
        {
          "indexed": false,
          "internalType": "uint256",
          "name": "price1hAgo",
          "type": "uint256"
        }
      ],
      "name": "PriceUpdated",
      "type": "event"
    },
    {
      "anonymous": false,
      "inputs": [
        {
          "indexed": true,
          "internalType": "address",
          "name": "referrer",
          "type": "address"
        },
        {
          "indexed": true,
          "internalType": "address",
          "name": "from",
          "type": "address"
        },
        {
          "indexed": false,
          "internalType": "uint256",
          "name": "amount",
          "type": "uint256"
        },
        {
          "indexed": false,
          "internalType": "uint256",
          "name": "level",
          "type": "uint256"
        }
      ],
      "name": "ReferralRewardPaid",
      "type": "event"
    },
    {
      "anonymous": false,
      "inputs": [
        {
          "indexed": true,
          "internalType": "address",
          "name": "user",
          "type": "address"
        },
        {
          "indexed": false,
          "internalType": "uint256",
          "name": "amount",
          "type": "uint256"
        }
      ],
      "name": "RewardsHarvested",
      "type": "event"
    },
    {
      "anonymous": false,
      "inputs": [
        {
          "indexed": true,
          "internalType": "address",
          "name": "user",
          "type": "address"
        },
        {
          "indexed": false,
          "internalType": "uint256",
          "name": "bondPower",
          "type": "uint256"
        },
        {
          "indexed": false,
          "internalType": "uint256",
          "name": "rewardDebt",
          "type": "uint256"
        }
      ],
      "name": "UserSynced",
      "type": "event"
    },
    {
      "anonymous": false,
      "inputs": [
        {
          "indexed": true,
          "internalType": "address",
          "name": "user",
          "type": "address"
        },
        {
          "indexed": false,
          "internalType": "uint256",
          "name": "amount",
          "type": "uint256"
        }
      ],
      "name": "VestingClaimed",
      "type": "event"
    },
    {
      "anonymous": false,
      "inputs": [
        {
          "indexed": true,
          "internalType": "address",
          "name": "user",
          "type": "address"
        },
        {
          "indexed": false,
          "internalType": "uint256",
          "name": "amount",
          "type": "uint256"
        },
        {
          "indexed": false,
          "internalType": "uint256",
          "name": "startTime",
          "type": "uint256"
        }
      ],
      "name": "VestingStarted",
      "type": "event"
    },
    {
      "inputs": [],
      "name": "ACC_IVY_PRECISION",
      "outputs": [
        {
          "internalType": "uint256",
          "name": "",
          "type": "uint256"
        }
      ],
      "stateMutability": "view",
      "type": "function"
    },
    {
      "inputs": [],
      "name": "ALPHA_L1",
      "outputs": [
        {
          "internalType": "uint256",
          "name": "",
          "type": "uint256"
        }
      ],
      "stateMutability": "view",
      "type": "function"
    },
    {
      "inputs": [],
      "name": "ALPHA_L2",
      "outputs": [
        {
          "internalType": "uint256",
          "name": "",
          "type": "uint256"
        }
      ],
      "stateMutability": "view",
      "type": "function"
    },
    {
      "inputs": [],
      "name": "ALPHA_L3",
      "outputs": [
        {
          "internalType": "uint256",
          "name": "",
          "type": "uint256"
        }
      ],
      "stateMutability": "view",
      "type": "function"
    },
    {
      "inputs": [],
      "name": "BASE_DAILY_EMISSION",
      "outputs": [
        {
          "internalType": "uint256",
          "name": "",
          "type": "uint256"
        }
      ],
      "stateMutability": "view",
      "type": "function"
    },
    {
      "inputs": [],
      "name": "BASIS_POINTS",
      "outputs": [
        {
          "internalType": "uint256",
          "name": "",
          "type": "uint256"
        }
      ],
      "stateMutability": "view",
      "type": "function"
    },
    {
      "inputs": [],
      "name": "COOLDOWN_L1",
      "outputs": [
        {
          "internalType": "uint256",
          "name": "",
          "type": "uint256"
        }
      ],
      "stateMutability": "view",
      "type": "function"
    },
    {
      "inputs": [],
      "name": "COOLDOWN_L2",
      "outputs": [
        {
          "internalType": "uint256",
          "name": "",
          "type": "uint256"
        }
      ],
      "stateMutability": "view",
      "type": "function"
    },
    {
      "inputs": [],
      "name": "COOLDOWN_L3",
      "outputs": [
        {
          "internalType": "uint256",
          "name": "",
          "type": "uint256"
        }
      ],
      "stateMutability": "view",
      "type": "function"
    },
    {
      "inputs": [],
      "name": "DROP_L1",
      "outputs": [
        {
          "internalType": "int256",
          "name": "",
          "type": "int256"
        }
      ],
      "stateMutability": "view",
      "type": "function"
    },
    {
      "inputs": [],
      "name": "DROP_L2",
      "outputs": [
        {
          "internalType": "int256",
          "name": "",
          "type": "int256"
        }
      ],
      "stateMutability": "view",
      "type": "function"
    },
    {
      "inputs": [],
      "name": "DROP_L3",
      "outputs": [
        {
          "internalType": "int256",
          "name": "",
          "type": "int256"
        }
      ],
      "stateMutability": "view",
      "type": "function"
    },
    {
      "inputs": [],
      "name": "EMISSION_PER_SECOND",
      "outputs": [
        {
          "internalType": "uint256",
          "name": "",
          "type": "uint256"
        }
      ],
      "stateMutability": "view",
      "type": "function"
    },
    {
      "inputs": [],
      "name": "HALVING_DECAY",
      "outputs": [
        {
          "internalType": "uint256",
          "name": "",
          "type": "uint256"
        }
      ],
      "stateMutability": "view",
      "type": "function"
    },
    {
      "inputs": [],
      "name": "HALVING_THRESHOLD",
      "outputs": [
        {
          "internalType": "uint256",
          "name": "",
          "type": "uint256"
        }
      ],
      "stateMutability": "view",
      "type": "function"
    },
    {
      "inputs": [],
      "name": "HARD_CAP",
      "outputs": [
        {
          "internalType": "uint256",
          "name": "",
          "type": "uint256"
        }
      ],
      "stateMutability": "view",
      "type": "function"
    },
    {
      "inputs": [],
      "name": "INFINITE_RATE",
      "outputs": [
        {
          "internalType": "uint256",
          "name": "",
          "type": "uint256"
        }
      ],
      "stateMutability": "view",
      "type": "function"
    },
    {
      "inputs": [],
      "name": "INSTANT_CASH_PENALTY",
      "outputs": [
        {
          "internalType": "uint256",
          "name": "",
          "type": "uint256"
        }
      ],
      "stateMutability": "view",
      "type": "function"
    },
    {
      "inputs": [],
      "name": "L1_RATE",
      "outputs": [
        {
          "internalType": "uint256",
          "name": "",
          "type": "uint256"
        }
      ],
      "stateMutability": "view",
      "type": "function"
    },
    {
      "inputs": [],
      "name": "L2_RATE",
      "outputs": [
        {
          "internalType": "uint256",
          "name": "",
          "type": "uint256"
        }
      ],
      "stateMutability": "view",
      "type": "function"
    },
    {
      "inputs": [],
      "name": "MAX_REFERRAL_DEPTH",
      "outputs": [
        {
          "internalType": "uint256",
          "name": "",
          "type": "uint256"
        }
      ],
      "stateMutability": "view",
      "type": "function"
    },
    {
      "inputs": [],
      "name": "PID_CAP",
      "outputs": [
        {
          "internalType": "uint256",
          "name": "",
          "type": "uint256"
        }
      ],
      "stateMutability": "view",
      "type": "function"
    },
    {
      "inputs": [],
      "name": "PID_FLOOR",
      "outputs": [
        {
          "internalType": "uint256",
          "name": "",
          "type": "uint256"
        }
      ],
      "stateMutability": "view",
      "type": "function"
    },
    {
      "inputs": [],
      "name": "PID_K",
      "outputs": [
        {
          "internalType": "uint256",
          "name": "",
          "type": "uint256"
        }
      ],
      "stateMutability": "view",
      "type": "function"
    },
    {
      "inputs": [],
      "name": "VESTING_PERIOD",
      "outputs": [
        {
          "internalType": "uint256",
          "name": "",
          "type": "uint256"
        }
      ],
      "stateMutability": "view",
      "type": "function"
    },
    {
      "inputs": [],
      "name": "accIvyPerShare",
      "outputs": [
        {
          "internalType": "uint256",
          "name": "",
          "type": "uint256"
        }
      ],
      "stateMutability": "view",
      "type": "function"
    },
    {
      "inputs": [],
      "name": "breakerState",
      "outputs": [
        {
          "internalType": "enum IvyCore.BreakerLevel",
          "name": "currentLevel",
          "type": "uint8"
        },
        {
          "internalType": "uint256",
          "name": "activationTime",
          "type": "uint256"
        },
        {
          "internalType": "uint256",
          "name": "activationPrice",
          "type": "uint256"
        }
      ],
      "stateMutability": "view",
      "type": "function"
    },
    {
      "inputs": [],
      "name": "checkCircuitBreaker",
      "outputs": [],
      "stateMutability": "nonpayable",
      "type": "function"
    },
    {
      "inputs": [],
      "name": "claimVested",
      "outputs": [],
      "stateMutability": "nonpayable",
      "type": "function"
    },
    {
      "inputs": [],
      "name": "currentDailyEmission",
      "outputs": [
        {
          "internalType": "uint256",
          "name": "",
          "type": "uint256"
        }
      ],
      "stateMutability": "view",
      "type": "function"
    },
    {
      "inputs": [],
      "name": "currentPrice",
      "outputs": [
        {
          "internalType": "uint256",
          "name": "",
          "type": "uint256"
        }
      ],
      "stateMutability": "view",
      "type": "function"
    },
    {
      "inputs": [],
      "name": "emissionFactor",
      "outputs": [
        {
          "internalType": "uint256",
          "name": "",
          "type": "uint256"
        }
      ],
      "stateMutability": "view",
      "type": "function"
    },
    {
      "inputs": [],
      "name": "genesisNode",
      "outputs": [
        {
          "internalType": "contract IGenesisNode",
          "name": "",
          "type": "address"
        }
      ],
      "stateMutability": "view",
      "type": "function"
    },
    {
      "inputs": [],
      "name": "getBreakerStatus",
      "outputs": [
        {
          "internalType": "enum IvyCore.BreakerLevel",
          "name": "level",
          "type": "uint8"
        },
        {
          "internalType": "uint256",
          "name": "activationTime",
          "type": "uint256"
        },
        {
          "internalType": "uint256",
          "name": "activationPrice",
          "type": "uint256"
        },
        {
          "internalType": "uint256",
          "name": "timeRemaining",
          "type": "uint256"
        },
        {
          "internalType": "uint256",
          "name": "forcedAlpha",
          "type": "uint256"
        }
      ],
      "stateMutability": "view",
      "type": "function"
    },
    {
      "inputs": [],
      "name": "getFinalMultiplier",
      "outputs": [
        {
          "internalType": "uint256",
          "name": "",
          "type": "uint256"
        }
      ],
      "stateMutability": "view",
      "type": "function"
    },
    {
      "inputs": [],
      "name": "getPIDAlpha",
      "outputs": [
        {
          "internalType": "uint256",
          "name": "",
          "type": "uint256"
        }
      ],
      "stateMutability": "view",
      "type": "function"
    },
    {
      "inputs": [],
      "name": "getProtocolStats",
      "outputs": [
        {
          "internalType": "uint256",
          "name": "_totalMinted",
          "type": "uint256"
        },
        {
          "internalType": "uint256",
          "name": "_hardCap",
          "type": "uint256"
        },
        {
          "internalType": "uint256",
          "name": "_emissionFactor",
          "type": "uint256"
        },
        {
          "internalType": "uint256",
          "name": "_finalMultiplier",
          "type": "uint256"
        },
        {
          "internalType": "uint256",
          "name": "_totalPoolBondPower",
          "type": "uint256"
        },
        {
          "internalType": "uint256",
          "name": "_emissionPerSecond",
          "type": "uint256"
        },
        {
          "internalType": "uint256",
          "name": "_currentDailyEmission",
          "type": "uint256"
        }
      ],
      "stateMutability": "view",
      "type": "function"
    },
    {
      "inputs": [
        {
          "internalType": "address",
          "name": "user",
          "type": "address"
        }
      ],
      "name": "getUserMiningStats",
      "outputs": [
        {
          "internalType": "uint256",
          "name": "bondPower",
          "type": "uint256"
        },
        {
          "internalType": "uint256",
          "name": "pendingRewards",
          "type": "uint256"
        },
        {
          "internalType": "uint256",
          "name": "totalVested",
          "type": "uint256"
        },
        {
          "internalType": "uint256",
          "name": "totalClaimed",
          "type": "uint256"
        },
        {
          "internalType": "uint256",
          "name": "claimableNow",
          "type": "uint256"
        }
      ],
      "stateMutability": "view",
      "type": "function"
    },
    {
      "inputs": [
        {
          "internalType": "address",
          "name": "user",
          "type": "address"
        }
      ],
      "name": "getVestingInfo",
      "outputs": [
        {
          "internalType": "uint256",
          "name": "totalVested",
          "type": "uint256"
        },
        {
          "internalType": "uint256",
          "name": "totalClaimed",
          "type": "uint256"
        },
        {
          "internalType": "uint256",
          "name": "vestingStartTime",
          "type": "uint256"
        },
        {
          "internalType": "uint256",
          "name": "claimableNow",
          "type": "uint256"
        },
        {
          "internalType": "uint256",
          "name": "remainingLocked",
          "type": "uint256"
        },
        {
          "internalType": "uint256",
          "name": "vestingProgress",
          "type": "uint256"
        }
      ],
      "stateMutability": "view",
      "type": "function"
    },
    {
      "inputs": [],
      "name": "harvest",
      "outputs": [],
      "stateMutability": "nonpayable",
      "type": "function"
    },
    {
      "inputs": [],
      "name": "instantCashOut",
      "outputs": [],
      "stateMutability": "nonpayable",
      "type": "function"
    },
    {
      "inputs": [],
      "name": "ivyBond",
      "outputs": [
        {
          "internalType": "contract IIvyBond",
          "name": "",
          "type": "address"
        }
      ],
      "stateMutability": "view",
      "type": "function"
    },
    {
      "inputs": [],
      "name": "ivyToken",
      "outputs": [
        {
          "internalType": "contract IvyToken",
          "name": "",
          "type": "address"
        }
      ],
      "stateMutability": "view",
      "type": "function"
    },
    {
      "inputs": [],
      "name": "lastHalvingMinted",
      "outputs": [
        {
          "internalType": "uint256",
          "name": "",
          "type": "uint256"
        }
      ],
      "stateMutability": "view",
      "type": "function"
    },
    {
      "inputs": [],
      "name": "lastRewardTime",
      "outputs": [
        {
          "internalType": "uint256",
          "name": "",
          "type": "uint256"
        }
      ],
      "stateMutability": "view",
      "type": "function"
    },
    {
      "inputs": [],
      "name": "ma30Price",
      "outputs": [
        {
          "internalType": "uint256",
          "name": "",
          "type": "uint256"
        }
      ],
      "stateMutability": "view",
      "type": "function"
    },
    {
      "inputs": [],
      "name": "owner",
      "outputs": [
        {
          "internalType": "address",
          "name": "",
          "type": "address"
        }
      ],
      "stateMutability": "view",
      "type": "function"
    },
    {
      "inputs": [
        {
          "internalType": "address",
          "name": "user",
          "type": "address"
        }
      ],
      "name": "pendingIvy",
      "outputs": [
        {
          "internalType": "uint256",
          "name": "",
          "type": "uint256"
        }
      ],
      "stateMutability": "view",
      "type": "function"
    },
    {
      "inputs": [],
      "name": "price1hAgo",
      "outputs": [
        {
          "internalType": "uint256",
          "name": "",
          "type": "uint256"
        }
      ],
      "stateMutability": "view",
      "type": "function"
    },
    {
      "inputs": [
        {
          "internalType": "address",
          "name": "",
          "type": "address"
        }
      ],
      "name": "referralRewardsEarned",
      "outputs": [
        {
          "internalType": "uint256",
          "name": "",
          "type": "uint256"
        }
      ],
      "stateMutability": "view",
      "type": "function"
    },
    {
      "inputs": [],
      "name": "renounceOwnership",
      "outputs": [],
      "stateMutability": "nonpayable",
      "type": "function"
    },
    {
      "inputs": [],
      "name": "resetCircuitBreaker",
      "outputs": [],
      "stateMutability": "nonpayable",
      "type": "function"
    },
    {
      "inputs": [
        {
          "internalType": "address",
          "name": "_genesisNode",
          "type": "address"
        }
      ],
      "name": "setGenesisNode",
      "outputs": [],
      "stateMutability": "nonpayable",
      "type": "function"
    },
    {
      "inputs": [
        {
          "internalType": "address",
          "name": "_ivyBond",
          "type": "address"
        }
      ],
      "name": "setIvyBond",
      "outputs": [],
      "stateMutability": "nonpayable",
      "type": "function"
    },
    {
      "inputs": [
        {
          "internalType": "address",
          "name": "user",
          "type": "address"
        }
      ],
      "name": "syncUser",
      "outputs": [],
      "stateMutability": "nonpayable",
      "type": "function"
    },
    {
      "inputs": [],
      "name": "totalMinted",
      "outputs": [
        {
          "internalType": "uint256",
          "name": "",
          "type": "uint256"
        }
      ],
      "stateMutability": "view",
      "type": "function"
    },
    {
      "inputs": [],
      "name": "totalPoolBondPower",
      "outputs": [
        {
          "internalType": "uint256",
          "name": "",
          "type": "uint256"
        }
      ],
      "stateMutability": "view",
      "type": "function"
    },
    {
      "inputs": [
        {
          "internalType": "address",
          "name": "newOwner",
          "type": "address"
        }
      ],
      "name": "transferOwnership",
      "outputs": [],
      "stateMutability": "nonpayable",
      "type": "function"
    },
    {
      "inputs": [],
      "name": "updatePool",
      "outputs": [],
      "stateMutability": "nonpayable",
      "type": "function"
    },
    {
      "inputs": [
        {
          "internalType": "uint256",
          "name": "_currentPrice",
          "type": "uint256"
        },
        {
          "internalType": "uint256",
          "name": "_ma30Price",
          "type": "uint256"
        },
        {
          "internalType": "uint256",
          "name": "_price1hAgo",
          "type": "uint256"
        }
      ],
      "name": "updatePrices",
      "outputs": [],
      "stateMutability": "nonpayable",
      "type": "function"
    },
    {
      "inputs": [
        {
          "internalType": "address",
          "name": "",
          "type": "address"
        }
      ],
      "name": "userInfo",
      "outputs": [
        {
          "internalType": "uint256",
          "name": "bondPower",
          "type": "uint256"
        },
        {
          "internalType": "uint256",
          "name": "rewardDebt",
          "type": "uint256"
        },
        {
          "internalType": "uint256",
          "name": "pendingVested",
          "type": "uint256"
        },
        {
          "internalType": "uint256",
          "name": "vestingStartTime",
          "type": "uint256"
        },
        {
          "internalType": "uint256",
          "name": "totalVested",
          "type": "uint256"
        },
        {
          "internalType": "uint256",
          "name": "totalClaimed",
          "type": "uint256"
        }
      ],
      "stateMutability": "view",
      "type": "function"
    }
  ],
  "bytecode": "0x6080604052670de0b6b3a7640000600b55670de0b6b3a7640000600e55670de0b6b3a7640000600f55670de0b6b3a76400006010553480156200004157600080fd5b5060405162003f2838038062003f28833981810160405281019062000067919062000273565b33600073ffffffffffffffffffffffffffffffffffffffff168173ffffffffffffffffffffffffffffffffffffffff1603620000dd5760006040517f1e4fbdf7000000000000000000000000000000000000000000000000000000008152600401620000d49190620002b6565b60405180910390fd5b620000ee816200014560201b60201c565b506001808190555080600460006101000a81548173ffffffffffffffffffffffffffffffffffffffff021916908373ffffffffffffffffffffffffffffffffffffffff1602179055504260098190555050620002d3565b60008060009054906101000a900473ffffffffffffffffffffffffffffffffffffffff169050816000806101000a81548173ffffffffffffffffffffffffffffffffffffffff021916908373ffffffffffffffffffffffffffffffffffffffff1602179055508173ffffffffffffffffffffffffffffffffffffffff168173ffffffffffffffffffffffffffffffffffffffff167f8be0079c531659141344cd1fd0a4f28419497f9722a3daafe3b4186f6b6457e060405160405180910390a35050565b600080fd5b600073ffffffffffffffffffffffffffffffffffffffff82169050919050565b60006200023b826200020e565b9050919050565b6200024d816200022e565b81146200025957600080fd5b50565b6000815190506200026d8162000242565b92915050565b6000602082840312156200028c576200028b62000209565b5b60006200029c848285016200025c565b91505092915050565b620002b0816200022e565b82525050565b6000602082019050620002cd6000830184620002a5565b92915050565b613c4580620002e36000396000f3fe608060405234801561001057600080fd5b50600436106103af5760003560e01c8063945c3ebd116101f4578063da6510b41161011a578063e88067e8116100ad578063f2fde38b1161007c578063f2fde38b14610a2b578063f706555b14610a47578063f864233114610a65578063fb897ce414610a83576103af565b8063e88067e8146109c9578063e979ca4a146109e5578063eacf59c8146109ef578063eef1be2c14610a0d576103af565b8063e1f1c4a7116100e9578063e1f1c4a714610953578063e3161ddd14610971578063e4147ca21461097b578063e4941c3914610999576103af565b8063da6510b4146108ef578063dcebf6811461090d578063de5f8d931461092b578063e0c9bc6214610935576103af565b8063a28aee1511610192578063cda80bfa11610161578063cda80bfa1461089f578063d01c44cd146108bd578063d2121b4e146108c7578063d2522baa146108e5576103af565b8063a28aee1514610815578063a29a7ab014610833578063a95d5a6014610863578063b3def2f514610881576103af565b80639d14b2a2116101ce5780639d14b2a21461079d5780639d1b464a146107bb5780639f55d64c146107d9578063a2309ff8146107f7576103af565b8063945c3ebd14610743578063983d896e146107615780639b565faa1461077f576103af565b80633ed620a4116102d957806374c7773e116102775780638da5cb5b116102465780638da5cb5b146106cd5780638e8b6c88146106eb5780639231cf7414610707578063934b7c5414610725576103af565b806374c7773e14610637578063763f62061461066b578063771aceef1461068b57806389e59ea0146106af576103af565b80634897fffb116102b35780634897fffb146105d357806352aa8a5e146105f15780635e147f901461060f578063715018a61461062d576103af565b80633ed620a41461058f578063458f8f94146105ab5780634641257d146105c9576103af565b80631959a002116103515780632b5615d2116103205780632b5615d21461051757806336be3538146105355780633a03171c146105535780633eceb63e14610571576103af565b80631959a0021461048857806321cccba2146104bd578063277c19b0146104db57806329146555146104f9576103af565b80630420bace1161038d5780630420bace14610410578063091075a91461042e5780630c2330a51461044c578063123d11791461046a576103af565b80630197d972146103b4578063033d30fe146103d257806303e45a4b146103ee575b600080fd5b6103bc610ab8565b6040516103c99190612f61565b60405180910390f35b6103ec60048036038101906103e79190612fdf565b610abf565b005b6103f6610b7a565b604051610407959493929190613083565b60405180910390f35b610418610cc7565b6040516104259190612f61565b60405180910390f35b610436610cd3565b6040516104439190612f61565b60405180910390f35b610454610d23565b6040516104619190612f61565b60405180910390f35b610472610d29565b60405161047f91906130ef565b60405180910390f35b6104a2600480360381019061049d9190612fdf565b610d4d565b6040516104b49695949392919061310a565b60405180910390f35b6104c5610d89565b6040516104d29190612f61565b60405180910390f35b6104e3610d95565b6040516104f09190612f61565b60405180910390f35b610501610d9a565b60405161050e91906131ca565b60405180910390f35b61051f610dc0565b60405161052c9190612f61565b60405180910390f35b61053d610dcc565b60405161054a9190612f61565b60405180910390f35b61055b610dd2565b6040516105689190612f61565b60405180910390f35b610579610de1565b6040516105869190612f61565b60405180910390f35b6105a960048036038101906105a49190613211565b610de7565b005b6105b3610e9f565b6040516105c09190612f61565b60405180910390f35b6105d1610ea8565b005b6105db6110ed565b6040516105e89190613285565b60405180910390f35b6105f9611113565b6040516106069190612f61565b60405180910390f35b610617611128565b60405161062491906130ef565b60405180910390f35b61063561114c565b005b610651600480360381019061064c9190612fdf565b611160565b6040516106629594939291906132a0565b60405180910390f35b610673611266565b604051610682939291906132f3565b60405180910390f35b61069361128b565b6040516106a6979695949392919061332a565b60405180910390f35b6106b7611320565b6040516106c49190612f61565b60405180910390f35b6106d5611325565b6040516106e291906133a8565b60405180910390f35b61070560048036038101906107009190612fdf565b61134e565b005b61070f61135a565b60405161071c9190612f61565b60405180910390f35b61072d611360565b60405161073a9190612f61565b60405180910390f35b61074b611366565b6040516107589190612f61565b60405180910390f35b610769611374565b6040516107769190612f61565b60405180910390f35b610787611379565b60405161079491906133e4565b60405180910390f35b6107a561139f565b6040516107b29190612f61565b60405180910390f35b6107c36113a5565b6040516107d09190612f61565b60405180910390f35b6107e16113ab565b6040516107ee9190612f61565b60405180910390f35b6107ff6113ba565b60405161080c9190612f61565b60405180910390f35b61081d6113c0565b60405161082a9190612f61565b60405180910390f35b61084d60048036038101906108489190612fdf565b6113dc565b60405161085a9190612f61565b60405180910390f35b61086b6113f4565b6040516108789190612f61565b60405180910390f35b610889611400565b6040516108969190612f61565b60405180910390f35b6108a7611406565b6040516108b49190612f61565b60405180910390f35b6108c5611411565b005b6108cf6116ac565b6040516108dc9190612f61565b60405180910390f35b6108ed6116b2565b005b6108f7611844565b6040516109049190612f61565b60405180910390f35b61091561184a565b6040516109229190612f61565b60405180910390f35b610933611856565b005b61093d611a5f565b60405161094a91906130ef565b60405180910390f35b61095b611a83565b6040516109689190612f61565b60405180910390f35b610979611a89565b005b610983611beb565b6040516109909190612f61565b60405180910390f35b6109b360048036038101906109ae9190612fdf565b611d6c565b6040516109c09190612f61565b60405180910390f35b6109e360048036038101906109de9190612fdf565b611ed0565b005b6109ed611f8b565b005b6109f761221c565b604051610a049190612f61565b60405180910390f35b610a15612223565b604051610a229190612f61565b60405180910390f35b610a456004803603810190610a409190612fdf565b612229565b005b610a4f6122af565b604051610a5c9190612f61565b60405180910390f35b610a6d6122b5565b604051610a7a9190612f61565b60405180910390f35b610a9d6004803603810190610a989190612fdf565b6122bb565b604051610aaf9695949392919061310a565b60405180910390f35b62278d0081565b610ac76123ed565b600073ffffffffffffffffffffffffffffffffffffffff168173ffffffffffffffffffffffffffffffffffffffff1603610b36576040517f08c379a0000000000000000000000000000000000000000000000000000000008152600401610b2d9061345c565b60405180910390fd5b80600360006101000a81548173ffffffffffffffffffffffffffffffffffffffff021916908373ffffffffffffffffffffffffffffffffffffffff16021790555050565b6000806000806000600560000160009054906101000a900460ff1694506005600101549350600560020154925060006003811115610bbb57610bba61300c565b5b856003811115610bce57610bcd61300c565b5b03610bf057846000806000610be1611beb565b94509450945094509450610cc0565b600060056001015442610c0391906134ab565b9050600080600380811115610c1b57610c1a61300c565b5b886003811115610c2e57610c2d61300c565b5b03610c485762015180915066b1a2bc2ec500009050610c9b565b60026003811115610c5c57610c5b61300c565b5b886003811115610c6f57610c6e61300c565b5b03610c895761a8c091506702c68af0bb1400009050610c9a565b61384091506706f05b59d3b2000090505b5b81831015610cb4578282610caf91906134ab565b610cb7565b60005b94508093505050505b9091929394565b6706f05b59d3b2000081565b600080610cde611beb565b90506ec097ce7bc90715b34b9f100000000081600b5469065a4da25d3016c00000610d0991906134df565b610d1391906134df565b610d1d9190613550565b91505090565b61138881565b7fffffffffffffffffffffffffffffffffffffffffffffffffffffffffffffffe781565b60116020528060005260406000206000915090508060000154908060010154908060020154908060030154908060040154908060050154905086565b6714d1120d7b16000081565b60c881565b600360009054906101000a900473ffffffffffffffffffffffffffffffffffffffff1681565b67016345785d8a000081565b61384081565b6a52b7d2dcc80cd2e400000081565b61a8c081565b610def6123ed565b600083118015610dff5750600082115b8015610e0b5750600081115b610e4a576040517f08c379a0000000000000000000000000000000000000000000000000000000008152600401610e41906135cd565b60405180910390fd5b82600e8190555081600f81905550806010819055507f15819dd2fd9f6418b142e798d08a18d0bf06ea368f4480b7b0d3f75bd966bc48838383604051610e92939291906135ed565b60405180910390a1505050565b64e8d4a5100081565b610eb0612474565b6000339050610ebe816124ba565b6000601160008373ffffffffffffffffffffffffffffffffffffffff1673ffffffffffffffffffffffffffffffffffffffff168152602001908152602001600020905060008160020154905060008111610f4d576040517f08c379a0000000000000000000000000000000000000000000000000000000008152600401610f4490613670565b60405180910390fd5b6000826002018190555080826004016000828254610f6b9190613690565b925050819055506000826003015403610f88574282600301819055505b80600c6000828254610f9a9190613690565b92505081905550600460009054906101000a900473ffffffffffffffffffffffffffffffffffffffff1673ffffffffffffffffffffffffffffffffffffffff166340c10f1930836040518363ffffffff1660e01b8152600401610ffe9291906136c4565b600060405180830381600087803b15801561101857600080fd5b505af115801561102c573d6000803e3d6000fd5b50505050611038612831565b61104283826128bc565b8273ffffffffffffffffffffffffffffffffffffffff167fbc8fb63d817de4fabea2108e9b7eefca87245899f4b357636c26b5cad02ec5b4826040516110889190612f61565b60405180910390a28273ffffffffffffffffffffffffffffffffffffffff167f8fe19f160f86d04fb1a90dde93e5e1a47df0810685adf4b990153c107d7b392482426040516110d89291906136ed565b60405180910390a25050506110eb612dd0565b565b600460009054906101000a900473ffffffffffffffffffffffffffffffffffffffff1681565b6000611123600e54600f54612dd9565b905090565b7ffffffffffffffffffffffffffffffffffffffffffffffffffffffffffffffff681565b6111546123ed565b61115e6000612e7c565b565b600080600080600080601160008873ffffffffffffffffffffffffffffffffffffffff1673ffffffffffffffffffffffffffffffffffffffff1681526020019081526020016000209050806000015495506111ba87611d6c565b94508060040154935080600501549250600081600301541180156111e2575060008160040154115b1561125c5760008160030154426111f991906134ab565b9050600062278d0082106112135782600401549050611234565b62278d0082846004015461122791906134df565b6112319190613550565b90505b82600501548111611246576000611257565b82600501548161125691906134ab565b5b935050505b5091939590929450565b60058060000160009054906101000a900460ff16908060010154908060020154905083565b6000806000806000806000600c5496506a52b7d2dcc80cd2e40000009550600b5494506112b6611beb565b9350600a5492506201518069065a4da25d3016c000006112d69190613550565b91506ec097ce7bc90715b34b9f100000000084600b5469065a4da25d3016c0000061130191906134df565b61130b91906134df565b6113159190613550565b905090919293949596565b601481565b60008060009054906101000a900473ffffffffffffffffffffffffffffffffffffffff16905090565b611357816124ba565b50565b60095481565b600d5481565b69065a4da25d3016c0000081565b605f81565b600260009054906101000a900473ffffffffffffffffffffffffffffffffffffffff1681565b600a5481565b600e5481565b6a05ca4ec2a79a7f6700000081565b600c5481565b6201518069065a4da25d3016c000006113d99190613550565b81565b60126020528060005260406000206000915090505481565b6702c68af0bb14000081565b600b5481565b66b1a2bc2ec5000081565b611419612474565b60003390506000601160008373ffffffffffffffffffffffffffffffffffffffff1673ffffffffffffffffffffffffffffffffffffffff168152602001908152602001600020905060008160040154116114a8576040517f08c379a000000000000000000000000000000000000000000000000000000000815260040161149f90613762565b60405180910390fd5b60008160030154116114ef576040517f08c379a00000000000000000000000000000000000000000000000000000000081526004016114e6906137ce565b60405180910390fd5b600081600301544261150191906134ab565b9050600062278d00821061151b578260040154905061153c565b62278d0082846004015461152f91906134df565b6115399190613550565b90505b600083600501548261154e91906134ab565b905060008111611593576040517f08c379a000000000000000000000000000000000000000000000000000000000815260040161158a9061383a565b60405180910390fd5b808460050160008282546115a79190613690565b92505081905550600460009054906101000a900473ffffffffffffffffffffffffffffffffffffffff1673ffffffffffffffffffffffffffffffffffffffff1663a9059cbb86836040518363ffffffff1660e01b815260040161160b9291906136c4565b6020604051808303816000875af115801561162a573d6000803e3d6000fd5b505050506040513d601f19601f8201168201806040525081019061164e9190613892565b508473ffffffffffffffffffffffffffffffffffffffff167f9fe9b7be9d151c7a8b6de49a1312ff27a15096d0d1d12999af85fe4310e0b125826040516116959190612f61565b60405180910390a250505050506116aa612dd0565b565b600f5481565b60006010540315611842576000601054600e546116cf91906138bf565b905060006010546064836116e39190613902565b6116ed919061397a565b905060007fffffffffffffffffffffffffffffffffffffffffffffffffffffffffffffffe78213611721576003905061177f565b7ffffffffffffffffffffffffffffffffffffffffffffffffffffffffffffffff18213611751576002905061177e565b7ffffffffffffffffffffffffffffffffffffffffffffffffffffffffffffffff6821361177d57600190505b5b5b600560000160009054906101000a900460ff1660038111156117a4576117a361300c565b5b8160038111156117b7576117b661300c565b5b111561183e5780600560000160006101000a81548160ff021916908360038111156117e5576117e461300c565b5b021790555042600560010181905550600e546005600201819055507f4fa52a45d7e5a216674f536c9e84f867dce6e9a6c6b5fe88f640855bf92256818142600e54604051611835939291906132f3565b60405180910390a15b5050505b565b6101f481565b671bc16d674ec8000081565b61185e6123ed565b600060038111156118725761187161300c565b5b600560000160009054906101000a900460ff1660038111156118975761189661300c565b5b036118d7576040517f08c379a00000000000000000000000000000000000000000000000000000000081526004016118ce90613a30565b60405180910390fd5b6000600560010154426118ea91906134ab565b905060006003808111156119015761190061300c565b5b600560000160009054906101000a900460ff1660038111156119265761192561300c565b5b0361193657620151809050611985565b6002600381111561194a5761194961300c565b5b600560000160009054906101000a900460ff16600381111561196f5761196e61300c565b5b0361197e5761a8c09050611984565b61384090505b5b808210156119c8576040517f08c379a00000000000000000000000000000000000000000000000000000000081526004016119bf90613a9c565b60405180910390fd5b6000600560000160009054906101000a900460ff1690506000600560000160006101000a81548160ff02191690836003811115611a0857611a0761300c565b5b0217905550600060056001018190555060006005600201819055507f07130c8b39a90581223fe2d149b6458e7d26925c0ea5c3156721b96e564c365981604051611a529190613abc565b60405180910390a1505050565b7ffffffffffffffffffffffffffffffffffffffffffffffffffffffffffffffff181565b61271081565b600954421115611be9576000600a5403611aa95742600981905550611be9565b600060095442611ab991906134ab565b90506000611ac5611beb565b905060006ec097ce7bc90715b34b9f100000000082600b546201518069065a4da25d3016c00000611af69190613550565b86611b0191906134df565b611b0b91906134df565b611b1591906134df565b611b1f9190613550565b90506a52b7d2dcc80cd2e400000081600c54611b3b9190613690565b1115611b5d57600c546a52b7d2dcc80cd2e4000000611b5a91906134ab565b90505b6000811115611b9d57600a5464e8d4a5100082611b7a91906134df565b611b849190613550565b60086000828254611b959190613690565b925050819055505b426009819055507f17b8644f386d1c7c7138ef98b3c8035622bbe94d7be9b26f71d2654a547c2943600854600954600a54604051611bdd939291906135ed565b60405180910390a15050505b565b6000806003811115611c0057611bff61300c565b5b600560000160009054906101000a900460ff166003811115611c2557611c2461300c565b5b14611d5857600060056001015442611c3d91906134ab565b9050600380811115611c5257611c5161300c565b5b600560000160009054906101000a900460ff166003811115611c7757611c7661300c565b5b03611c9c5762015180811015611c975766b1a2bc2ec50000915050611d69565b611d56565b60026003811115611cb057611caf61300c565b5b600560000160009054906101000a900460ff166003811115611cd557611cd461300c565b5b03611cfa5761a8c0811015611cf5576702c68af0bb140000915050611d69565b611d55565b60016003811115611d0e57611d0d61300c565b5b600560000160009054906101000a900460ff166003811115611d3357611d3261300c565b5b03611d5457613840811015611d53576706f05b59d3b20000915050611d69565b5b5b5b505b611d66600e54600f54612dd9565b90505b90565b600080601160008473ffffffffffffffffffffffffffffffffffffffff1673ffffffffffffffffffffffffffffffffffffffff16815260200190815260200160002090506000600854905060095442118015611dca57506000600a54115b15611e7657600060095442611ddf91906134ab565b90506000611deb611beb565b905060006ec097ce7bc90715b34b9f100000000082600b546201518069065a4da25d3016c00000611e1c9190613550565b86611e2791906134df565b611e3191906134df565b611e3b91906134df565b611e459190613550565b9050600a5464e8d4a5100082611e5b91906134df565b611e659190613550565b84611e709190613690565b93505050505b60008083600001541115611eb657826001015464e8d4a51000838560000154611e9f91906134df565b611ea99190613550565b611eb391906134ab565b90505b826002015481611ec69190613690565b9350505050919050565b611ed86123ed565b600073ffffffffffffffffffffffffffffffffffffffff168173ffffffffffffffffffffffffffffffffffffffff1603611f47576040517f08c379a0000000000000000000000000000000000000000000000000000000008152600401611f3e9061345c565b60405180910390fd5b80600260006101000a81548173ffffffffffffffffffffffffffffffffffffffff021916908373ffffffffffffffffffffffffffffffffffffffff16021790555050565b611f93612474565b60003390506000601160008373ffffffffffffffffffffffffffffffffffffffff1673ffffffffffffffffffffffffffffffffffffffff16815260200190815260200160002090508060050154816004015411612025576040517f08c379a000000000000000000000000000000000000000000000000000000000815260040161201c90613b23565b60405180910390fd5b60008160050154826004015461203b91906134ab565b905060006127106113888361205091906134df565b61205a9190613550565b90506000818361206a91906134ab565b905083600401548460050181905550600460009054906101000a900473ffffffffffffffffffffffffffffffffffffffff1673ffffffffffffffffffffffffffffffffffffffff1663a9059cbb86836040518363ffffffff1660e01b81526004016120d69291906136c4565b6020604051808303816000875af11580156120f5573d6000803e3d6000fd5b505050506040513d601f19601f820116820180604052508101906121199190613892565b50600460009054906101000a900473ffffffffffffffffffffffffffffffffffffffff1673ffffffffffffffffffffffffffffffffffffffff1663a9059cbb61dead846040518363ffffffff1660e01b81526004016121799291906136c4565b6020604051808303816000875af1158015612198573d6000803e3d6000fd5b505050506040513d601f19601f820116820180604052508101906121bc9190613892565b508473ffffffffffffffffffffffffffffffffffffffff167f92207ec016968e0ee608b41c92470ff10e9f810a8dec5f40901974ac75ed498e82846040516122059291906136ed565b60405180910390a2505050505061221a612dd0565b565b6201518081565b60085481565b6122316123ed565b600073ffffffffffffffffffffffffffffffffffffffff168173ffffffffffffffffffffffffffffffffffffffff16036122a35760006040517f1e4fbdf700000000000000000000000000000000000000000000000000000000815260040161229a91906133a8565b60405180910390fd5b6122ac81612e7c565b50565b6103e881565b60105481565b6000806000806000806000601160008973ffffffffffffffffffffffffffffffffffffffff1673ffffffffffffffffffffffffffffffffffffffff168152602001908152602001600020905080600401549650806005015495508060030154945060008160030154118015612334575060008160040154115b156123e357600081600301544261234b91906134ab565b9050600062278d00821061236a578260040154905061271093506123a9565b62278d0082846004015461237e91906134df565b6123889190613550565b905062278d006127108361239c91906134df565b6123a69190613550565b93505b826005015481116123bb5760006123cc565b8260050154816123cb91906134ab565b5b95508083600401546123de91906134ab565b945050505b5091939550919395565b6123f5612f40565b73ffffffffffffffffffffffffffffffffffffffff16612413611325565b73ffffffffffffffffffffffffffffffffffffffff161461247257612436612f40565b6040517f118cdaa700000000000000000000000000000000000000000000000000000000815260040161246991906133a8565b60405180910390fd5b565b6002600154036124b0576040517f3ee5aeb500000000000000000000000000000000000000000000000000000000815260040160405180910390fd5b6002600181905550565b6124c2611a89565b6000601160008373ffffffffffffffffffffffffffffffffffffffff1673ffffffffffffffffffffffffffffffffffffffff168152602001908152602001600020905060008073ffffffffffffffffffffffffffffffffffffffff16600360009054906101000a900473ffffffffffffffffffffffffffffffffffffffff1673ffffffffffffffffffffffffffffffffffffffff16146125fb57600360009054906101000a900473ffffffffffffffffffffffffffffffffffffffff1673ffffffffffffffffffffffffffffffffffffffff1663ab0229a0846040518263ffffffff1660e01b81526004016125b791906133a8565b602060405180830381865afa1580156125d4573d6000803e3d6000fd5b505050506040513d601f19601f820116820180604052508101906125f89190613b58565b90505b60008073ffffffffffffffffffffffffffffffffffffffff16600260009054906101000a900473ffffffffffffffffffffffffffffffffffffffff1673ffffffffffffffffffffffffffffffffffffffff16146126f157600260009054906101000a900473ffffffffffffffffffffffffffffffffffffffff1673ffffffffffffffffffffffffffffffffffffffff166304d1334f856040518263ffffffff1660e01b81526004016126ad91906133a8565b602060405180830381865afa1580156126ca573d6000803e3d6000fd5b505050506040513d601f19601f820116820180604052508101906126ee9190613b58565b90505b6000612710826127106127049190613690565b8461270f91906134df565b6127199190613550565b9050600084600001541115612784576000846001015464e8d4a51000600854876000015461274791906134df565b6127519190613550565b61275b91906134ab565b90506000811115612782578085600201600082825461277a9190613690565b925050819055505b505b808460000154600a5461279791906134ab565b6127a19190613690565b600a8190555080846000018190555064e8d4a51000600854826127c491906134df565b6127ce9190613550565b84600101819055508473ffffffffffffffffffffffffffffffffffffffff167fdfc331ca16b8c4320a402867e832423d16ad3de953e474a499baf3697aa9e8948286600101546040516128229291906136ed565b60405180910390a25050505050565b6a05ca4ec2a79a7f67000000600d54600c5461284d91906134ab565b106128ba576064605f600b5461286391906134df565b61286d9190613550565b600b81905550600c54600d819055507fde141711fef892cdaea55f1f6a85e241382fcefc69efdb496eff235992a18ed4600b54600c546040516128b19291906136ed565b60405180910390a15b565b600073ffffffffffffffffffffffffffffffffffffffff16600260009054906101000a900473ffffffffffffffffffffffffffffffffffffffff1673ffffffffffffffffffffffffffffffffffffffff160315612dcc576000600260009054906101000a900473ffffffffffffffffffffffffffffffffffffffff1673ffffffffffffffffffffffffffffffffffffffff16634a9fefc7846040518263ffffffff1660e01b815260040161297091906133a8565b602060405180830381865afa15801561298d573d6000803e3d6000fd5b505050506040513d601f19601f820116820180604052508101906129b19190613b9a565b905060005b600073ffffffffffffffffffffffffffffffffffffffff168273ffffffffffffffffffffffffffffffffffffffff16141580156129f35750601481105b15612dc9576000808203612a0b576103e89050612b7e565b60018203612a1d576101f49050612b7d565b6000600260009054906101000a900473ffffffffffffffffffffffffffffffffffffffff1673ffffffffffffffffffffffffffffffffffffffff166370a08231856040518263ffffffff1660e01b8152600401612a7a91906133a8565b602060405180830381865afa158015612a97573d6000803e3d6000fd5b505050506040513d601f19601f82011682018060405250810190612abb9190613b58565b1115612aca5760c89050612b7c565b600260009054906101000a900473ffffffffffffffffffffffffffffffffffffffff1673ffffffffffffffffffffffffffffffffffffffff16634a9fefc7846040518263ffffffff1660e01b8152600401612b2591906133a8565b602060405180830381865afa158015612b42573d6000803e3d6000fd5b505050506040513d601f19601f82011682018060405250810190612b669190613b9a565b92508180612b7390613bc7565b925050506129b6565b5b5b60006127108286612b8f91906134df565b612b999190613550565b90506000811115612d165780600c6000828254612bb69190613690565b92505081905550600460009054906101000a900473ffffffffffffffffffffffffffffffffffffffff1673ffffffffffffffffffffffffffffffffffffffff166340c10f1985836040518363ffffffff1660e01b8152600401612c1a9291906136c4565b600060405180830381600087803b158015612c3457600080fd5b505af1158015612c48573d6000803e3d6000fd5b5050505080601260008673ffffffffffffffffffffffffffffffffffffffff1673ffffffffffffffffffffffffffffffffffffffff1681526020019081526020016000206000828254612c9b9190613690565b925050819055508573ffffffffffffffffffffffffffffffffffffffff168473ffffffffffffffffffffffffffffffffffffffff167fe679beb5d98a54fda65331587d36d13358e8bf295be15e932c482164f8fde95e83600187612cff9190613690565b604051612d0d9291906136ed565b60405180910390a35b600260009054906101000a900473ffffffffffffffffffffffffffffffffffffffff1673ffffffffffffffffffffffffffffffffffffffff16634a9fefc7856040518263ffffffff1660e01b8152600401612d7191906133a8565b602060405180830381865afa158015612d8e573d6000803e3d6000fd5b505050506040513d601f19601f82011682018060405250810190612db29190613b9a565b93508280612dbf90613bc7565b93505050506129b6565b50505b5050565b60018081905550565b6000808203612df257670de0b6b3a76400009050612e76565b600082670de0b6b3a764000085612e0991906134df565b612e139190613550565b90506000670de0b6b3a76400008283612e2c91906134df565b612e369190613550565b90506714d1120d7b160000811115612e54576714d1120d7b16000090505b67016345785d8a0000811015612e705767016345785d8a000090505b80925050505b92915050565b60008060009054906101000a900473ffffffffffffffffffffffffffffffffffffffff169050816000806101000a81548173ffffffffffffffffffffffffffffffffffffffff021916908373ffffffffffffffffffffffffffffffffffffffff1602179055508173ffffffffffffffffffffffffffffffffffffffff168173ffffffffffffffffffffffffffffffffffffffff167f8be0079c531659141344cd1fd0a4f28419497f9722a3daafe3b4186f6b6457e060405160405180910390a35050565b600033905090565b6000819050919050565b612f5b81612f48565b82525050565b6000602082019050612f766000830184612f52565b92915050565b600080fd5b600073ffffffffffffffffffffffffffffffffffffffff82169050919050565b6000612fac82612f81565b9050919050565b612fbc81612fa1565b8114612fc757600080fd5b50565b600081359050612fd981612fb3565b92915050565b600060208284031215612ff557612ff4612f7c565b5b600061300384828501612fca565b91505092915050565b7f4e487b7100000000000000000000000000000000000000000000000000000000600052602160045260246000fd5b6004811061304c5761304b61300c565b5b50565b600081905061305d8261303b565b919050565b600061306d8261304f565b9050919050565b61307d81613062565b82525050565b600060a0820190506130986000830188613074565b6130a56020830187612f52565b6130b26040830186612f52565b6130bf6060830185612f52565b6130cc6080830184612f52565b9695505050505050565b6000819050919050565b6130e9816130d6565b82525050565b600060208201905061310460008301846130e0565b92915050565b600060c08201905061311f6000830189612f52565b61312c6020830188612f52565b6131396040830187612f52565b6131466060830186612f52565b6131536080830185612f52565b61316060a0830184612f52565b979650505050505050565b6000819050919050565b600061319061318b61318684612f81565b61316b565b612f81565b9050919050565b60006131a282613175565b9050919050565b60006131b482613197565b9050919050565b6131c4816131a9565b82525050565b60006020820190506131df60008301846131bb565b92915050565b6131ee81612f48565b81146131f957600080fd5b50565b60008135905061320b816131e5565b92915050565b60008060006060848603121561322a57613229612f7c565b5b6000613238868287016131fc565b9350506020613249868287016131fc565b925050604061325a868287016131fc565b9150509250925092565b600061326f82613197565b9050919050565b61327f81613264565b82525050565b600060208201905061329a6000830184613276565b92915050565b600060a0820190506132b56000830188612f52565b6132c26020830187612f52565b6132cf6040830186612f52565b6132dc6060830185612f52565b6132e96080830184612f52565b9695505050505050565b60006060820190506133086000830186613074565b6133156020830185612f52565b6133226040830184612f52565b949350505050565b600060e08201905061333f600083018a612f52565b61334c6020830189612f52565b6133596040830188612f52565b6133666060830187612f52565b6133736080830186612f52565b61338060a0830185612f52565b61338d60c0830184612f52565b98975050505050505050565b6133a281612fa1565b82525050565b60006020820190506133bd6000830184613399565b92915050565b60006133ce82613197565b9050919050565b6133de816133c3565b82525050565b60006020820190506133f960008301846133d5565b92915050565b600082825260208201905092915050565b7f496e76616c696420616464726573730000000000000000000000000000000000600082015250565b6000613446600f836133ff565b915061345182613410565b602082019050919050565b6000602082019050818103600083015261347581613439565b9050919050565b7f4e487b7100000000000000000000000000000000000000000000000000000000600052601160045260246000fd5b60006134b682612f48565b91506134c183612f48565b92508282039050818111156134d9576134d861347c565b5b92915050565b60006134ea82612f48565b91506134f583612f48565b925082820261350381612f48565b9150828204841483151761351a5761351961347c565b5b5092915050565b7f4e487b7100000000000000000000000000000000000000000000000000000000600052601260045260246000fd5b600061355b82612f48565b915061356683612f48565b92508261357657613575613521565b5b828204905092915050565b7f496e76616c696420707269636573000000000000000000000000000000000000600082015250565b60006135b7600e836133ff565b91506135c282613581565b602082019050919050565b600060208201905081810360008301526135e6816135aa565b9050919050565b60006060820190506136026000830186612f52565b61360f6020830185612f52565b61361c6040830184612f52565b949350505050565b7f4e6f7468696e6720746f20686172766573740000000000000000000000000000600082015250565b600061365a6012836133ff565b915061366582613624565b602082019050919050565b600060208201905081810360008301526136898161364d565b9050919050565b600061369b82612f48565b91506136a683612f48565b92508282019050808211156136be576136bd61347c565b5b92915050565b60006040820190506136d96000830185613399565b6136e66020830184612f52565b9392505050565b60006040820190506137026000830185612f52565b61370f6020830184612f52565b9392505050565b7f4e6f7468696e6720766573746564000000000000000000000000000000000000600082015250565b600061374c600e836133ff565b915061375782613716565b602082019050919050565b6000602082019050818103600083015261377b8161373f565b9050919050565b7f56657374696e67206e6f74207374617274656400000000000000000000000000600082015250565b60006137b86013836133ff565b91506137c382613782565b602082019050919050565b600060208201905081810360008301526137e7816137ab565b9050919050565b7f4e6f7468696e6720746f20636c61696d00000000000000000000000000000000600082015250565b60006138246010836133ff565b915061382f826137ee565b602082019050919050565b6000602082019050818103600083015261385381613817565b9050919050565b60008115159050919050565b61386f8161385a565b811461387a57600080fd5b50565b60008151905061388c81613866565b92915050565b6000602082840312156138a8576138a7612f7c565b5b60006138b68482850161387d565b91505092915050565b60006138ca826130d6565b91506138d5836130d6565b92508282039050818112600084121682821360008512151617156138fc576138fb61347c565b5b92915050565b600061390d826130d6565b9150613918836130d6565b9250828202613926816130d6565b91507f8000000000000000000000000000000000000000000000000000000000000000841460008412161561395e5761395d61347c565b5b82820584148315176139735761397261347c565b5b5092915050565b6000613985826130d6565b9150613990836130d6565b9250826139a05761399f613521565b5b600160000383147f8000000000000000000000000000000000000000000000000000000000000000831416156139d9576139d861347c565b5b828205905092915050565b7f427265616b6572206e6f74206163746976650000000000000000000000000000600082015250565b6000613a1a6012836133ff565b9150613a25826139e4565b602082019050919050565b60006020820190508181036000830152613a4981613a0d565b9050919050565b7f436f6f6c646f776e206e6f7420636f6d706c6574650000000000000000000000600082015250565b6000613a866015836133ff565b9150613a9182613a50565b602082019050919050565b60006020820190508181036000830152613ab581613a79565b9050919050565b6000602082019050613ad16000830184613074565b92915050565b7f4e6f7468696e6720746f2063617368206f757400000000000000000000000000600082015250565b6000613b0d6013836133ff565b9150613b1882613ad7565b602082019050919050565b60006020820190508181036000830152613b3c81613b00565b9050919050565b600081519050613b52816131e5565b92915050565b600060208284031215613b6e57613b6d612f7c565b5b6000613b7c84828501613b43565b91505092915050565b600081519050613b9481612fb3565b92915050565b600060208284031215613bb057613baf612f7c565b5b6000613bbe84828501613b85565b91505092915050565b6000613bd282612f48565b91507fffffffffffffffffffffffffffffffffffffffffffffffffffffffffffffffff8203613c0457613c0361347c565b5b60018201905091905056fea26469706673582212208ee401442ac8505248d7951cb58757ce962608e4f5b76ec06d932071074d44db64736f6c63430008140033",
  "linkReferences": {},
  "deployedLinkReferences": {}
}