{
  "_format": "hh-sol-artifact-1",
  "contractName": "IvyCore",
  "sourceName": "contracts/IvyCore.sol",
  "abi": [
    {
      "inputs": [
        {
          "internalType": "address",
          "name": "_ivyToken",
          "type": "address"
        }
      ],
      "stateMutability": "nonpayable",
      "type": "constructor"
    },
    {
      "inputs": [
        {
          "internalType": "address",
          "name": "owner",
          "type": "address"
        }
      ],
      "name": "OwnableInvalidOwner",
      "type": "error"
    },
    {
      "inputs": [
        {
          "internalType": "address",
          "name": "account",
          "type": "address"
        }
      ],
      "name": "OwnableUnauthorizedAccount",
      "type": "error"
    },
    {
      "inputs": [],
      "name": "ReentrancyGuardReentrantCall",
      "type": "error"
    },
    {
      "anonymous": false,
      "inputs": [
        {
          "indexed": false,
          "internalType": "enum IvyCore.BreakerLevel",
          "name": "previousLevel",
          "type": "uint8"
        }
      ],
      "name": "CircuitBreakerReset",
      "type": "event"
    },
    {
      "anonymous": false,
      "inputs": [
        {
          "indexed": false,
          "internalType": "enum IvyCore.BreakerLevel",
          "name": "level",
          "type": "uint8"
        },
        {
          "indexed": false,
          "internalType": "uint256",
          "name": "activationTime",
          "type": "uint256"
        },
        {
          "indexed": false,
          "internalType": "uint256",
          "name": "activationPrice",
          "type": "uint256"
        }
      ],
      "name": "CircuitBreakerTriggered",
      "type": "event"
    },
    {
      "anonymous": false,
      "inputs": [
        {
          "indexed": false,
          "internalType": "uint256",
          "name": "newEmissionFactor",
          "type": "uint256"
        },
        {
          "indexed": false,
          "internalType": "uint256",
          "name": "totalMinted",
          "type": "uint256"
        }
      ],
      "name": "HalvingOccurred",
      "type": "event"
    },
    {
      "anonymous": false,
      "inputs": [
        {
          "indexed": true,
          "internalType": "address",
          "name": "user",
          "type": "address"
        },
        {
          "indexed": false,
          "internalType": "uint256",
          "name": "received",
          "type": "uint256"
        },
        {
          "indexed": false,
          "internalType": "uint256",
          "name": "burned",
          "type": "uint256"
        }
      ],
      "name": "InstantCashOut",
      "type": "event"
    },
    {
      "anonymous": false,
      "inputs": [
        {
          "indexed": true,
          "internalType": "address",
          "name": "previousOwner",
          "type": "address"
        },
        {
          "indexed": true,
          "internalType": "address",
          "name": "newOwner",
          "type": "address"
        }
      ],
      "name": "OwnershipTransferred",
      "type": "event"
    },
    {
      "anonymous": false,
      "inputs": [
        {
          "indexed": false,
          "internalType": "uint256",
          "name": "accIvyPerShare",
          "type": "uint256"
        },
        {
          "indexed": false,
          "internalType": "uint256",
          "name": "lastRewardTime",
          "type": "uint256"
        },
        {
          "indexed": false,
          "internalType": "uint256",
          "name": "totalPoolBondPower",
          "type": "uint256"
        }
      ],
      "name": "PoolUpdated",
      "type": "event"
    },
    {
      "anonymous": false,
      "inputs": [
        {
          "indexed": false,
          "internalType": "uint256",
          "name": "currentPrice",
          "type": "uint256"
        },
        {
          "indexed": false,
          "internalType": "uint256",
          "name": "ma30Price",
          "type": "uint256"
        },
        {
          "indexed": false,
          "internalType": "uint256",
          "name": "price1hAgo",
          "type": "uint256"
        }
      ],
      "name": "PriceUpdated",
      "type": "event"
    },
    {
      "anonymous": false,
      "inputs": [
        {
          "indexed": true,
          "internalType": "address",
          "name": "referrer",
          "type": "address"
        },
        {
          "indexed": true,
          "internalType": "address",
          "name": "from",
          "type": "address"
        },
        {
          "indexed": false,
          "internalType": "uint256",
          "name": "amount",
          "type": "uint256"
        },
        {
          "indexed": false,
          "internalType": "uint256",
          "name": "level",
          "type": "uint256"
        }
      ],
      "name": "ReferralRewardPaid",
      "type": "event"
    },
    {
      "anonymous": false,
      "inputs": [
        {
          "indexed": true,
          "internalType": "address",
          "name": "user",
          "type": "address"
        },
        {
          "indexed": false,
          "internalType": "uint256",
          "name": "amount",
          "type": "uint256"
        }
      ],
      "name": "RewardsHarvested",
      "type": "event"
    },
    {
      "anonymous": false,
      "inputs": [
        {
          "indexed": true,
          "internalType": "address",
          "name": "user",
          "type": "address"
        },
        {
          "indexed": false,
          "internalType": "uint256",
          "name": "bondPower",
          "type": "uint256"
        },
        {
          "indexed": false,
          "internalType": "uint256",
          "name": "rewardDebt",
          "type": "uint256"
        }
      ],
      "name": "UserSynced",
      "type": "event"
    },
    {
      "anonymous": false,
      "inputs": [
        {
          "indexed": true,
          "internalType": "address",
          "name": "user",
          "type": "address"
        },
        {
          "indexed": false,
          "internalType": "uint256",
          "name": "amount",
          "type": "uint256"
        }
      ],
      "name": "VestingClaimed",
      "type": "event"
    },
    {
      "anonymous": false,
      "inputs": [
        {
          "indexed": true,
          "internalType": "address",
          "name": "user",
          "type": "address"
        },
        {
          "indexed": false,
          "internalType": "uint256",
          "name": "amount",
          "type": "uint256"
        },
        {
          "indexed": false,
          "internalType": "uint256",
          "name": "startTime",
          "type": "uint256"
        }
      ],
      "name": "VestingStarted",
      "type": "event"
    },
    {
      "inputs": [],
      "name": "ACC_IVY_PRECISION",
      "outputs": [
        {
          "internalType": "uint256",
          "name": "",
          "type": "uint256"
        }
      ],
      "stateMutability": "view",
      "type": "function"
    },
    {
      "inputs": [],
      "name": "ALPHA_L1",
      "outputs": [
        {
          "internalType": "uint256",
          "name": "",
          "type": "uint256"
        }
      ],
      "stateMutability": "view",
      "type": "function"
    },
    {
      "inputs": [],
      "name": "ALPHA_L2",
      "outputs": [
        {
          "internalType": "uint256",
          "name": "",
          "type": "uint256"
        }
      ],
      "stateMutability": "view",
      "type": "function"
    },
    {
      "inputs": [],
      "name": "ALPHA_L3",
      "outputs": [
        {
          "internalType": "uint256",
          "name": "",
          "type": "uint256"
        }
      ],
      "stateMutability": "view",
      "type": "function"
    },
    {
      "inputs": [],
      "name": "BASE_DAILY_EMISSION",
      "outputs": [
        {
          "internalType": "uint256",
          "name": "",
          "type": "uint256"
        }
      ],
      "stateMutability": "view",
      "type": "function"
    },
    {
      "inputs": [],
      "name": "BASIS_POINTS",
      "outputs": [
        {
          "internalType": "uint256",
          "name": "",
          "type": "uint256"
        }
      ],
      "stateMutability": "view",
      "type": "function"
    },
    {
      "inputs": [],
      "name": "COOLDOWN_L1",
      "outputs": [
        {
          "internalType": "uint256",
          "name": "",
          "type": "uint256"
        }
      ],
      "stateMutability": "view",
      "type": "function"
    },
    {
      "inputs": [],
      "name": "COOLDOWN_L2",
      "outputs": [
        {
          "internalType": "uint256",
          "name": "",
          "type": "uint256"
        }
      ],
      "stateMutability": "view",
      "type": "function"
    },
    {
      "inputs": [],
      "name": "COOLDOWN_L3",
      "outputs": [
        {
          "internalType": "uint256",
          "name": "",
          "type": "uint256"
        }
      ],
      "stateMutability": "view",
      "type": "function"
    },
    {
      "inputs": [],
      "name": "DROP_L1",
      "outputs": [
        {
          "internalType": "int256",
          "name": "",
          "type": "int256"
        }
      ],
      "stateMutability": "view",
      "type": "function"
    },
    {
      "inputs": [],
      "name": "DROP_L2",
      "outputs": [
        {
          "internalType": "int256",
          "name": "",
          "type": "int256"
        }
      ],
      "stateMutability": "view",
      "type": "function"
    },
    {
      "inputs": [],
      "name": "DROP_L3",
      "outputs": [
        {
          "internalType": "int256",
          "name": "",
          "type": "int256"
        }
      ],
      "stateMutability": "view",
      "type": "function"
    },
    {
      "inputs": [],
      "name": "EMISSION_PER_SECOND",
      "outputs": [
        {
          "internalType": "uint256",
          "name": "",
          "type": "uint256"
        }
      ],
      "stateMutability": "view",
      "type": "function"
    },
    {
      "inputs": [],
      "name": "HALVING_DECAY",
      "outputs": [
        {
          "internalType": "uint256",
          "name": "",
          "type": "uint256"
        }
      ],
      "stateMutability": "view",
      "type": "function"
    },
    {
      "inputs": [],
      "name": "HALVING_THRESHOLD",
      "outputs": [
        {
          "internalType": "uint256",
          "name": "",
          "type": "uint256"
        }
      ],
      "stateMutability": "view",
      "type": "function"
    },
    {
      "inputs": [],
      "name": "HARD_CAP",
      "outputs": [
        {
          "internalType": "uint256",
          "name": "",
          "type": "uint256"
        }
      ],
      "stateMutability": "view",
      "type": "function"
    },
    {
      "inputs": [],
      "name": "INFINITE_RATE",
      "outputs": [
        {
          "internalType": "uint256",
          "name": "",
          "type": "uint256"
        }
      ],
      "stateMutability": "view",
      "type": "function"
    },
    {
      "inputs": [],
      "name": "INSTANT_CASH_PENALTY",
      "outputs": [
        {
          "internalType": "uint256",
          "name": "",
          "type": "uint256"
        }
      ],
      "stateMutability": "view",
      "type": "function"
    },
    {
      "inputs": [],
      "name": "L1_RATE",
      "outputs": [
        {
          "internalType": "uint256",
          "name": "",
          "type": "uint256"
        }
      ],
      "stateMutability": "view",
      "type": "function"
    },
    {
      "inputs": [],
      "name": "L2_RATE",
      "outputs": [
        {
          "internalType": "uint256",
          "name": "",
          "type": "uint256"
        }
      ],
      "stateMutability": "view",
      "type": "function"
    },
    {
      "inputs": [],
      "name": "MAX_REFERRAL_DEPTH",
      "outputs": [
        {
          "internalType": "uint256",
          "name": "",
          "type": "uint256"
        }
      ],
      "stateMutability": "view",
      "type": "function"
    },
    {
      "inputs": [],
      "name": "PID_CAP",
      "outputs": [
        {
          "internalType": "uint256",
          "name": "",
          "type": "uint256"
        }
      ],
      "stateMutability": "view",
      "type": "function"
    },
    {
      "inputs": [],
      "name": "PID_FLOOR",
      "outputs": [
        {
          "internalType": "uint256",
          "name": "",
          "type": "uint256"
        }
      ],
      "stateMutability": "view",
      "type": "function"
    },
    {
      "inputs": [],
      "name": "PID_K",
      "outputs": [
        {
          "internalType": "uint256",
          "name": "",
          "type": "uint256"
        }
      ],
      "stateMutability": "view",
      "type": "function"
    },
    {
      "inputs": [],
      "name": "VESTING_PERIOD",
      "outputs": [
        {
          "internalType": "uint256",
          "name": "",
          "type": "uint256"
        }
      ],
      "stateMutability": "view",
      "type": "function"
    },
    {
      "inputs": [],
      "name": "accIvyPerShare",
      "outputs": [
        {
          "internalType": "uint256",
          "name": "",
          "type": "uint256"
        }
      ],
      "stateMutability": "view",
      "type": "function"
    },
    {
      "inputs": [],
      "name": "breakerState",
      "outputs": [
        {
          "internalType": "enum IvyCore.BreakerLevel",
          "name": "currentLevel",
          "type": "uint8"
        },
        {
          "internalType": "uint256",
          "name": "activationTime",
          "type": "uint256"
        },
        {
          "internalType": "uint256",
          "name": "activationPrice",
          "type": "uint256"
        }
      ],
      "stateMutability": "view",
      "type": "function"
    },
    {
      "inputs": [],
      "name": "checkCircuitBreaker",
      "outputs": [],
      "stateMutability": "nonpayable",
      "type": "function"
    },
    {
      "inputs": [],
      "name": "claimVested",
      "outputs": [],
      "stateMutability": "nonpayable",
      "type": "function"
    },
    {
      "inputs": [],
      "name": "currentDailyEmission",
      "outputs": [
        {
          "internalType": "uint256",
          "name": "",
          "type": "uint256"
        }
      ],
      "stateMutability": "view",
      "type": "function"
    },
    {
      "inputs": [],
      "name": "currentPrice",
      "outputs": [
        {
          "internalType": "uint256",
          "name": "",
          "type": "uint256"
        }
      ],
      "stateMutability": "view",
      "type": "function"
    },
    {
      "inputs": [],
      "name": "emissionFactor",
      "outputs": [
        {
          "internalType": "uint256",
          "name": "",
          "type": "uint256"
        }
      ],
      "stateMutability": "view",
      "type": "function"
    },
    {
      "inputs": [],
      "name": "genesisNode",
      "outputs": [
        {
          "internalType": "contract IGenesisNode",
          "name": "",
          "type": "address"
        }
      ],
      "stateMutability": "view",
      "type": "function"
    },
    {
      "inputs": [],
      "name": "getBreakerStatus",
      "outputs": [
        {
          "internalType": "enum IvyCore.BreakerLevel",
          "name": "level",
          "type": "uint8"
        },
        {
          "internalType": "uint256",
          "name": "activationTime",
          "type": "uint256"
        },
        {
          "internalType": "uint256",
          "name": "activationPrice",
          "type": "uint256"
        },
        {
          "internalType": "uint256",
          "name": "timeRemaining",
          "type": "uint256"
        },
        {
          "internalType": "uint256",
          "name": "forcedAlpha",
          "type": "uint256"
        }
      ],
      "stateMutability": "view",
      "type": "function"
    },
    {
      "inputs": [],
      "name": "getFinalMultiplier",
      "outputs": [
        {
          "internalType": "uint256",
          "name": "",
          "type": "uint256"
        }
      ],
      "stateMutability": "view",
      "type": "function"
    },
    {
      "inputs": [],
      "name": "getHalvingInfo",
      "outputs": [
        {
          "internalType": "uint256",
          "name": "_halvingCount",
          "type": "uint256"
        },
        {
          "internalType": "uint256",
          "name": "_emissionFactor",
          "type": "uint256"
        },
        {
          "internalType": "uint256",
          "name": "_nextHalvingAt",
          "type": "uint256"
        },
        {
          "internalType": "uint256",
          "name": "_progressToNextHalving",
          "type": "uint256"
        }
      ],
      "stateMutability": "view",
      "type": "function"
    },
    {
      "inputs": [],
      "name": "getPIDAlpha",
      "outputs": [
        {
          "internalType": "uint256",
          "name": "",
          "type": "uint256"
        }
      ],
      "stateMutability": "view",
      "type": "function"
    },
    {
      "inputs": [],
      "name": "getProtocolStats",
      "outputs": [
        {
          "internalType": "uint256",
          "name": "_totalMinted",
          "type": "uint256"
        },
        {
          "internalType": "uint256",
          "name": "_hardCap",
          "type": "uint256"
        },
        {
          "internalType": "uint256",
          "name": "_emissionFactor",
          "type": "uint256"
        },
        {
          "internalType": "uint256",
          "name": "_finalMultiplier",
          "type": "uint256"
        },
        {
          "internalType": "uint256",
          "name": "_totalPoolBondPower",
          "type": "uint256"
        },
        {
          "internalType": "uint256",
          "name": "_emissionPerSecond",
          "type": "uint256"
        },
        {
          "internalType": "uint256",
          "name": "_currentDailyEmission",
          "type": "uint256"
        },
        {
          "internalType": "uint256",
          "name": "_halvingCount",
          "type": "uint256"
        }
      ],
      "stateMutability": "view",
      "type": "function"
    },
    {
      "inputs": [
        {
          "internalType": "address",
          "name": "user",
          "type": "address"
        }
      ],
      "name": "getUserMiningStats",
      "outputs": [
        {
          "internalType": "uint256",
          "name": "bondPower",
          "type": "uint256"
        },
        {
          "internalType": "uint256",
          "name": "pendingRewards",
          "type": "uint256"
        },
        {
          "internalType": "uint256",
          "name": "totalVested",
          "type": "uint256"
        },
        {
          "internalType": "uint256",
          "name": "totalClaimed",
          "type": "uint256"
        },
        {
          "internalType": "uint256",
          "name": "claimableNow",
          "type": "uint256"
        }
      ],
      "stateMutability": "view",
      "type": "function"
    },
    {
      "inputs": [
        {
          "internalType": "address",
          "name": "user",
          "type": "address"
        }
      ],
      "name": "getVestingInfo",
      "outputs": [
        {
          "internalType": "uint256",
          "name": "totalVested",
          "type": "uint256"
        },
        {
          "internalType": "uint256",
          "name": "totalClaimed",
          "type": "uint256"
        },
        {
          "internalType": "uint256",
          "name": "vestingStartTime",
          "type": "uint256"
        },
        {
          "internalType": "uint256",
          "name": "claimableNow",
          "type": "uint256"
        },
        {
          "internalType": "uint256",
          "name": "remainingLocked",
          "type": "uint256"
        },
        {
          "internalType": "uint256",
          "name": "vestingProgress",
          "type": "uint256"
        }
      ],
      "stateMutability": "view",
      "type": "function"
    },
    {
      "inputs": [],
      "name": "halvingCount",
      "outputs": [
        {
          "internalType": "uint256",
          "name": "",
          "type": "uint256"
        }
      ],
      "stateMutability": "view",
      "type": "function"
    },
    {
      "inputs": [],
      "name": "harvest",
      "outputs": [],
      "stateMutability": "nonpayable",
      "type": "function"
    },
    {
      "inputs": [],
      "name": "instantCashOut",
      "outputs": [],
      "stateMutability": "nonpayable",
      "type": "function"
    },
    {
      "inputs": [],
      "name": "ivyBond",
      "outputs": [
        {
          "internalType": "contract IIvyBond",
          "name": "",
          "type": "address"
        }
      ],
      "stateMutability": "view",
      "type": "function"
    },
    {
      "inputs": [],
      "name": "ivyToken",
      "outputs": [
        {
          "internalType": "contract IvyToken",
          "name": "",
          "type": "address"
        }
      ],
      "stateMutability": "view",
      "type": "function"
    },
    {
      "inputs": [],
      "name": "lastHalvingMinted",
      "outputs": [
        {
          "internalType": "uint256",
          "name": "",
          "type": "uint256"
        }
      ],
      "stateMutability": "view",
      "type": "function"
    },
    {
      "inputs": [],
      "name": "lastRewardTime",
      "outputs": [
        {
          "internalType": "uint256",
          "name": "",
          "type": "uint256"
        }
      ],
      "stateMutability": "view",
      "type": "function"
    },
    {
      "inputs": [],
      "name": "ma30Price",
      "outputs": [
        {
          "internalType": "uint256",
          "name": "",
          "type": "uint256"
        }
      ],
      "stateMutability": "view",
      "type": "function"
    },
    {
      "inputs": [],
      "name": "owner",
      "outputs": [
        {
          "internalType": "address",
          "name": "",
          "type": "address"
        }
      ],
      "stateMutability": "view",
      "type": "function"
    },
    {
      "inputs": [
        {
          "internalType": "address",
          "name": "user",
          "type": "address"
        }
      ],
      "name": "pendingIvy",
      "outputs": [
        {
          "internalType": "uint256",
          "name": "",
          "type": "uint256"
        }
      ],
      "stateMutability": "view",
      "type": "function"
    },
    {
      "inputs": [],
      "name": "price1hAgo",
      "outputs": [
        {
          "internalType": "uint256",
          "name": "",
          "type": "uint256"
        }
      ],
      "stateMutability": "view",
      "type": "function"
    },
    {
      "inputs": [
        {
          "internalType": "address",
          "name": "",
          "type": "address"
        }
      ],
      "name": "referralRewardsEarned",
      "outputs": [
        {
          "internalType": "uint256",
          "name": "",
          "type": "uint256"
        }
      ],
      "stateMutability": "view",
      "type": "function"
    },
    {
      "inputs": [],
      "name": "renounceOwnership",
      "outputs": [],
      "stateMutability": "nonpayable",
      "type": "function"
    },
    {
      "inputs": [],
      "name": "resetCircuitBreaker",
      "outputs": [],
      "stateMutability": "nonpayable",
      "type": "function"
    },
    {
      "inputs": [
        {
          "internalType": "address",
          "name": "_genesisNode",
          "type": "address"
        }
      ],
      "name": "setGenesisNode",
      "outputs": [],
      "stateMutability": "nonpayable",
      "type": "function"
    },
    {
      "inputs": [
        {
          "internalType": "address",
          "name": "_ivyBond",
          "type": "address"
        }
      ],
      "name": "setIvyBond",
      "outputs": [],
      "stateMutability": "nonpayable",
      "type": "function"
    },
    {
      "inputs": [
        {
          "internalType": "address",
          "name": "user",
          "type": "address"
        }
      ],
      "name": "syncUser",
      "outputs": [],
      "stateMutability": "nonpayable",
      "type": "function"
    },
    {
      "inputs": [],
      "name": "totalMinted",
      "outputs": [
        {
          "internalType": "uint256",
          "name": "",
          "type": "uint256"
        }
      ],
      "stateMutability": "view",
      "type": "function"
    },
    {
      "inputs": [],
      "name": "totalPoolBondPower",
      "outputs": [
        {
          "internalType": "uint256",
          "name": "",
          "type": "uint256"
        }
      ],
      "stateMutability": "view",
      "type": "function"
    },
    {
      "inputs": [
        {
          "internalType": "address",
          "name": "newOwner",
          "type": "address"
        }
      ],
      "name": "transferOwnership",
      "outputs": [],
      "stateMutability": "nonpayable",
      "type": "function"
    },
    {
      "inputs": [],
      "name": "updatePool",
      "outputs": [],
      "stateMutability": "nonpayable",
      "type": "function"
    },
    {
      "inputs": [
        {
          "internalType": "uint256",
          "name": "_currentPrice",
          "type": "uint256"
        },
        {
          "internalType": "uint256",
          "name": "_ma30Price",
          "type": "uint256"
        },
        {
          "internalType": "uint256",
          "name": "_price1hAgo",
          "type": "uint256"
        }
      ],
      "name": "updatePrices",
      "outputs": [],
      "stateMutability": "nonpayable",
      "type": "function"
    },
    {
      "inputs": [
        {
          "internalType": "address",
          "name": "",
          "type": "address"
        }
      ],
      "name": "userInfo",
      "outputs": [
        {
          "internalType": "uint256",
          "name": "bondPower",
          "type": "uint256"
        },
        {
          "internalType": "uint256",
          "name": "rewardDebt",
          "type": "uint256"
        },
        {
          "internalType": "uint256",
          "name": "pendingVested",
          "type": "uint256"
        },
        {
          "internalType": "uint256",
          "name": "vestingStartTime",
          "type": "uint256"
        },
        {
          "internalType": "uint256",
          "name": "totalVested",
          "type": "uint256"
        },
        {
          "internalType": "uint256",
          "name": "totalClaimed",
          "type": "uint256"
        }
      ],
      "stateMutability": "view",
      "type": "function"
    }
  ],
  "bytecode": "0x6080604052670de0b6b3a7640000600b55670de0b6b3a7640000600f55670de0b6b3a7640000601055670de0b6b3a76400006011553480156200004157600080fd5b50604051620040ac380380620040ac833981810160405281019062000067919062000273565b33600073ffffffffffffffffffffffffffffffffffffffff168173ffffffffffffffffffffffffffffffffffffffff1603620000dd5760006040517f1e4fbdf7000000000000000000000000000000000000000000000000000000008152600401620000d49190620002b6565b60405180910390fd5b620000ee816200014560201b60201c565b506001808190555080600460006101000a81548173ffffffffffffffffffffffffffffffffffffffff021916908373ffffffffffffffffffffffffffffffffffffffff1602179055504260098190555050620002d3565b60008060009054906101000a900473ffffffffffffffffffffffffffffffffffffffff169050816000806101000a81548173ffffffffffffffffffffffffffffffffffffffff021916908373ffffffffffffffffffffffffffffffffffffffff1602179055508173ffffffffffffffffffffffffffffffffffffffff168173ffffffffffffffffffffffffffffffffffffffff167f8be0079c531659141344cd1fd0a4f28419497f9722a3daafe3b4186f6b6457e060405160405180910390a35050565b600080fd5b600073ffffffffffffffffffffffffffffffffffffffff82169050919050565b60006200023b826200020e565b9050919050565b6200024d816200022e565b81146200025957600080fd5b50565b6000815190506200026d8162000242565b92915050565b6000602082840312156200028c576200028b62000209565b5b60006200029c848285016200025c565b91505092915050565b620002b0816200022e565b82525050565b6000602082019050620002cd6000830184620002a5565b92915050565b613dc980620002e36000396000f3fe608060405234801561001057600080fd5b50600436106103c55760003560e01c8063945c3ebd116101ff578063dcebf6811161011a578063e979ca4a116100ad578063f706555b1161007c578063f706555b14610a7f578063f864233114610a9d578063fb897ce414610abb578063fc84d91314610af0576103c5565b8063e979ca4a14610a1d578063eacf59c814610a27578063eef1be2c14610a45578063f2fde38b14610a63576103c5565b8063e3161ddd116100e9578063e3161ddd146109a9578063e4147ca2146109b3578063e4941c39146109d1578063e88067e814610a01576103c5565b8063dcebf68114610945578063de5f8d9314610963578063e0c9bc621461096d578063e1f1c4a71461098b576103c5565b8063a29a7ab011610192578063d01c44cd11610161578063d01c44cd146108f5578063d2121b4e146108ff578063d2522baa1461091d578063da6510b414610927576103c5565b8063a29a7ab01461086b578063a95d5a601461089b578063b3def2f5146108b9578063cda80bfa146108d7576103c5565b80639d1b464a116101ce5780639d1b464a146107f35780639f55d64c14610811578063a2309ff81461082f578063a28aee151461084d576103c5565b8063945c3ebd1461077b578063983d896e146107995780639b565faa146107b75780639d14b2a2146107d5576103c5565b80633eceb63e116102ef57806374c7773e116102825780638da5cb5b116102515780638da5cb5b146107055780638e8b6c88146107235780639231cf741461073f578063934b7c541461075d576103c5565b806374c7773e1461066e578063763f6206146106a2578063771aceef146106c257806389e59ea0146106e7576103c5565b80634897fffb116102be5780634897fffb1461060a57806352aa8a5e146106285780635e147f9014610646578063715018a614610664576103c5565b80633eceb63e146105a85780633ed620a4146105c6578063458f8f94146105e25780634641257d14610600576103c5565b8063123d117911610367578063291465551161033657806329146555146105305780632b5615d21461054e57806336be35381461056c5780633a03171c1461058a576103c5565b8063123d1179146104a15780631959a002146104bf57806321cccba2146104f4578063277c19b014610512576103c5565b80630420bace116103a35780630420bace14610426578063091075a9146104445780630c2330a51461046257806310d60dc414610480576103c5565b80630197d972146103ca578063033d30fe146103e857806303e45a4b14610404575b600080fd5b6103d2610b0e565b6040516103df9190613091565b60405180910390f35b61040260048036038101906103fd919061310f565b610b15565b005b61040c610bd0565b60405161041d9594939291906131b3565b60405180910390f35b61042e610d1d565b60405161043b9190613091565b60405180910390f35b61044c610d29565b6040516104599190613091565b60405180910390f35b61046a610d79565b6040516104779190613091565b60405180910390f35b610488610d7f565b6040516104989493929190613206565b60405180910390f35b6104a9610e0d565b6040516104b69190613264565b60405180910390f35b6104d960048036038101906104d4919061310f565b610e31565b6040516104eb9695949392919061327f565b60405180910390f35b6104fc610e6d565b6040516105099190613091565b60405180910390f35b61051a610e79565b6040516105279190613091565b60405180910390f35b610538610e7e565b604051610545919061333f565b60405180910390f35b610556610ea4565b6040516105639190613091565b60405180910390f35b610574610eb0565b6040516105819190613091565b60405180910390f35b610592610eb6565b60405161059f9190613091565b60405180910390f35b6105b0610ec5565b6040516105bd9190613091565b60405180910390f35b6105e060048036038101906105db9190613386565b610ecb565b005b6105ea610f83565b6040516105f79190613091565b60405180910390f35b610608610f8c565b005b6106126111d1565b60405161061f91906133fa565b60405180910390f35b6106306111f7565b60405161063d9190613091565b60405180910390f35b61064e61120c565b60405161065b9190613264565b60405180910390f35b61066c611230565b005b6106886004803603810190610683919061310f565b611244565b604051610699959493929190613415565b60405180910390f35b6106aa61134a565b6040516106b993929190613468565b60405180910390f35b6106ca61136f565b6040516106de98979695949392919061349f565b60405180910390f35b6106ef61140b565b6040516106fc9190613091565b60405180910390f35b61070d611410565b60405161071a919061352c565b60405180910390f35b61073d6004803603810190610738919061310f565b611439565b005b610747611445565b6040516107549190613091565b60405180910390f35b61076561144b565b6040516107729190613091565b60405180910390f35b610783611451565b6040516107909190613091565b60405180910390f35b6107a161145f565b6040516107ae9190613091565b60405180910390f35b6107bf611464565b6040516107cc9190613568565b60405180910390f35b6107dd61148a565b6040516107ea9190613091565b60405180910390f35b6107fb611490565b6040516108089190613091565b60405180910390f35b610819611496565b6040516108269190613091565b60405180910390f35b6108376114a5565b6040516108449190613091565b60405180910390f35b6108556114ab565b6040516108629190613091565b60405180910390f35b6108856004803603810190610880919061310f565b6114c7565b6040516108929190613091565b60405180910390f35b6108a36114df565b6040516108b09190613091565b60405180910390f35b6108c16114eb565b6040516108ce9190613091565b60405180910390f35b6108df6114f1565b6040516108ec9190613091565b60405180910390f35b6108fd6114fc565b005b610907611797565b6040516109149190613091565b60405180910390f35b61092561179d565b005b61092f61192f565b60405161093c9190613091565b60405180910390f35b61094d611935565b60405161095a9190613091565b60405180910390f35b61096b611941565b005b610975611b4a565b6040516109829190613264565b60405180910390f35b610993611b6e565b6040516109a09190613091565b60405180910390f35b6109b1611b74565b005b6109bb611cd6565b6040516109c89190613091565b60405180910390f35b6109eb60048036038101906109e6919061310f565b611e57565b6040516109f89190613091565b60405180910390f35b610a1b6004803603810190610a16919061310f565b611fbb565b005b610a25612076565b005b610a2f612307565b604051610a3c9190613091565b60405180910390f35b610a4d61230e565b604051610a5a9190613091565b60405180910390f35b610a7d6004803603810190610a78919061310f565b612314565b005b610a8761239a565b604051610a949190613091565b60405180910390f35b610aa56123a0565b604051610ab29190613091565b60405180910390f35b610ad56004803603810190610ad0919061310f565b6123a6565b604051610ae79695949392919061327f565b60405180910390f35b610af86124d8565b604051610b059190613091565b60405180910390f35b62278d0081565b610b1d6124de565b600073ffffffffffffffffffffffffffffffffffffffff168173ffffffffffffffffffffffffffffffffffffffff1603610b8c576040517f08c379a0000000000000000000000000000000000000000000000000000000008152600401610b83906135e0565b60405180910390fd5b80600360006101000a81548173ffffffffffffffffffffffffffffffffffffffff021916908373ffffffffffffffffffffffffffffffffffffffff16021790555050565b6000806000806000600560000160009054906101000a900460ff1694506005600101549350600560020154925060006003811115610c1157610c1061313c565b5b856003811115610c2457610c2361313c565b5b03610c4657846000806000610c37611cd6565b94509450945094509450610d16565b600060056001015442610c59919061362f565b9050600080600380811115610c7157610c7061313c565b5b886003811115610c8457610c8361313c565b5b03610c9e5762015180915066b1a2bc2ec500009050610cf1565b60026003811115610cb257610cb161313c565b5b886003811115610cc557610cc461313c565b5b03610cdf5761a8c091506702c68af0bb1400009050610cf0565b61384091506706f05b59d3b2000090505b5b81831015610d0a578282610d05919061362f565b610d0d565b60005b94508093505050505b9091929394565b6706f05b59d3b2000081565b600080610d34611cd6565b90506ec097ce7bc90715b34b9f100000000081600b5469065a4da25d3016c00000610d5f9190613663565b610d699190613663565b610d7391906136d4565b91505090565b61138881565b600080600080600e549350600b5492506a05ca4ec2a79a7f670000006001600e54610daa9190613705565b610db49190613663565b915060006a05ca4ec2a79a7f67000000600e54610dd19190613663565b600c54610dde919061362f565b90506a05ca4ec2a79a7f6700000061271082610dfa9190613663565b610e0491906136d4565b91505090919293565b7fffffffffffffffffffffffffffffffffffffffffffffffffffffffffffffffe781565b60126020528060005260406000206000915090508060000154908060010154908060020154908060030154908060040154908060050154905086565b6714d1120d7b16000081565b60c881565b600360009054906101000a900473ffffffffffffffffffffffffffffffffffffffff1681565b67016345785d8a000081565b61384081565b6a52b7d2dcc80cd2e400000081565b61a8c081565b610ed36124de565b600083118015610ee35750600082115b8015610eef5750600081115b610f2e576040517f08c379a0000000000000000000000000000000000000000000000000000000008152600401610f2590613785565b60405180910390fd5b82600f8190555081601081905550806011819055507f15819dd2fd9f6418b142e798d08a18d0bf06ea368f4480b7b0d3f75bd966bc48838383604051610f76939291906137a5565b60405180910390a1505050565b64e8d4a5100081565b610f94612565565b6000339050610fa2816125ab565b6000601260008373ffffffffffffffffffffffffffffffffffffffff1673ffffffffffffffffffffffffffffffffffffffff168152602001908152602001600020905060008160020154905060008111611031576040517f08c379a000000000000000000000000000000000000000000000000000000000815260040161102890613828565b60405180910390fd5b600082600201819055508082600401600082825461104f9190613705565b92505081905550600082600301540361106c574282600301819055505b80600c600082825461107e9190613705565b92505081905550600460009054906101000a900473ffffffffffffffffffffffffffffffffffffffff1673ffffffffffffffffffffffffffffffffffffffff166340c10f1930836040518363ffffffff1660e01b81526004016110e2929190613848565b600060405180830381600087803b1580156110fc57600080fd5b505af1158015611110573d6000803e3d6000fd5b5050505061111c612922565b61112683826129ec565b8273ffffffffffffffffffffffffffffffffffffffff167fbc8fb63d817de4fabea2108e9b7eefca87245899f4b357636c26b5cad02ec5b48260405161116c9190613091565b60405180910390a28273ffffffffffffffffffffffffffffffffffffffff167f8fe19f160f86d04fb1a90dde93e5e1a47df0810685adf4b990153c107d7b392482426040516111bc929190613871565b60405180910390a25050506111cf612f00565b565b600460009054906101000a900473ffffffffffffffffffffffffffffffffffffffff1681565b6000611207600f54601054612f09565b905090565b7ffffffffffffffffffffffffffffffffffffffffffffffffffffffffffffffff681565b6112386124de565b6112426000612fac565b565b600080600080600080601260008873ffffffffffffffffffffffffffffffffffffffff1673ffffffffffffffffffffffffffffffffffffffff16815260200190815260200160002090508060000154955061129e87611e57565b94508060040154935080600501549250600081600301541180156112c6575060008160040154115b156113405760008160030154426112dd919061362f565b9050600062278d0082106112f75782600401549050611318565b62278d0082846004015461130b9190613663565b61131591906136d4565b90505b8260050154811161132a57600061133b565b82600501548161133a919061362f565b5b935050505b5091939590929450565b60058060000160009054906101000a900460ff16908060010154908060020154905083565b600080600080600080600080600c5497506a52b7d2dcc80cd2e40000009650600b54955061139b611cd6565b9450600a5493506201518069065a4da25d3016c000006113bb91906136d4565b92506ec097ce7bc90715b34b9f100000000085600b5469065a4da25d3016c000006113e69190613663565b6113f09190613663565b6113fa91906136d4565b9150600e5490509091929394959697565b601481565b60008060009054906101000a900473ffffffffffffffffffffffffffffffffffffffff16905090565b611442816125ab565b50565b60095481565b600d5481565b69065a4da25d3016c0000081565b605f81565b600260009054906101000a900473ffffffffffffffffffffffffffffffffffffffff1681565b600a5481565b600f5481565b6a05ca4ec2a79a7f6700000081565b600c5481565b6201518069065a4da25d3016c000006114c491906136d4565b81565b60136020528060005260406000206000915090505481565b6702c68af0bb14000081565b600b5481565b66b1a2bc2ec5000081565b611504612565565b60003390506000601260008373ffffffffffffffffffffffffffffffffffffffff1673ffffffffffffffffffffffffffffffffffffffff16815260200190815260200160002090506000816004015411611593576040517f08c379a000000000000000000000000000000000000000000000000000000000815260040161158a906138e6565b60405180910390fd5b60008160030154116115da576040517f08c379a00000000000000000000000000000000000000000000000000000000081526004016115d190613952565b60405180910390fd5b60008160030154426115ec919061362f565b9050600062278d0082106116065782600401549050611627565b62278d0082846004015461161a9190613663565b61162491906136d4565b90505b6000836005015482611639919061362f565b90506000811161167e576040517f08c379a0000000000000000000000000000000000000000000000000000000008152600401611675906139be565b60405180910390fd5b808460050160008282546116929190613705565b92505081905550600460009054906101000a900473ffffffffffffffffffffffffffffffffffffffff1673ffffffffffffffffffffffffffffffffffffffff1663a9059cbb86836040518363ffffffff1660e01b81526004016116f6929190613848565b6020604051808303816000875af1158015611715573d6000803e3d6000fd5b505050506040513d601f19601f820116820180604052508101906117399190613a16565b508473ffffffffffffffffffffffffffffffffffffffff167f9fe9b7be9d151c7a8b6de49a1312ff27a15096d0d1d12999af85fe4310e0b125826040516117809190613091565b60405180910390a25050505050611795612f00565b565b60105481565b6000601154031561192d576000601154600f546117ba9190613a43565b905060006011546064836117ce9190613a86565b6117d89190613afe565b905060007fffffffffffffffffffffffffffffffffffffffffffffffffffffffffffffffe7821361180c576003905061186a565b7ffffffffffffffffffffffffffffffffffffffffffffffffffffffffffffffff1821361183c5760029050611869565b7ffffffffffffffffffffffffffffffffffffffffffffffffffffffffffffffff6821361186857600190505b5b5b600560000160009054906101000a900460ff16600381111561188f5761188e61313c565b5b8160038111156118a2576118a161313c565b5b11156119295780600560000160006101000a81548160ff021916908360038111156118d0576118cf61313c565b5b021790555042600560010181905550600f546005600201819055507f4fa52a45d7e5a216674f536c9e84f867dce6e9a6c6b5fe88f640855bf92256818142600f5460405161192093929190613468565b60405180910390a15b5050505b565b6101f481565b671bc16d674ec8000081565b6119496124de565b6000600381111561195d5761195c61313c565b5b600560000160009054906101000a900460ff1660038111156119825761198161313c565b5b036119c2576040517f08c379a00000000000000000000000000000000000000000000000000000000081526004016119b990613bb4565b60405180910390fd5b6000600560010154426119d5919061362f565b905060006003808111156119ec576119eb61313c565b5b600560000160009054906101000a900460ff166003811115611a1157611a1061313c565b5b03611a2157620151809050611a70565b60026003811115611a3557611a3461313c565b5b600560000160009054906101000a900460ff166003811115611a5a57611a5961313c565b5b03611a695761a8c09050611a6f565b61384090505b5b80821015611ab3576040517f08c379a0000000000000000000000000000000000000000000000000000000008152600401611aaa90613c20565b60405180910390fd5b6000600560000160009054906101000a900460ff1690506000600560000160006101000a81548160ff02191690836003811115611af357611af261313c565b5b0217905550600060056001018190555060006005600201819055507f07130c8b39a90581223fe2d149b6458e7d26925c0ea5c3156721b96e564c365981604051611b3d9190613c40565b60405180910390a1505050565b7ffffffffffffffffffffffffffffffffffffffffffffffffffffffffffffffff181565b61271081565b600954421115611cd4576000600a5403611b945742600981905550611cd4565b600060095442611ba4919061362f565b90506000611bb0611cd6565b905060006ec097ce7bc90715b34b9f100000000082600b546201518069065a4da25d3016c00000611be191906136d4565b86611bec9190613663565b611bf69190613663565b611c009190613663565b611c0a91906136d4565b90506a52b7d2dcc80cd2e400000081600c54611c269190613705565b1115611c4857600c546a52b7d2dcc80cd2e4000000611c45919061362f565b90505b6000811115611c8857600a5464e8d4a5100082611c659190613663565b611c6f91906136d4565b60086000828254611c809190613705565b925050819055505b426009819055507f17b8644f386d1c7c7138ef98b3c8035622bbe94d7be9b26f71d2654a547c2943600854600954600a54604051611cc8939291906137a5565b60405180910390a15050505b565b6000806003811115611ceb57611cea61313c565b5b600560000160009054906101000a900460ff166003811115611d1057611d0f61313c565b5b14611e4357600060056001015442611d28919061362f565b9050600380811115611d3d57611d3c61313c565b5b600560000160009054906101000a900460ff166003811115611d6257611d6161313c565b5b03611d875762015180811015611d825766b1a2bc2ec50000915050611e54565b611e41565b60026003811115611d9b57611d9a61313c565b5b600560000160009054906101000a900460ff166003811115611dc057611dbf61313c565b5b03611de55761a8c0811015611de0576702c68af0bb140000915050611e54565b611e40565b60016003811115611df957611df861313c565b5b600560000160009054906101000a900460ff166003811115611e1e57611e1d61313c565b5b03611e3f57613840811015611e3e576706f05b59d3b20000915050611e54565b5b5b5b505b611e51600f54601054612f09565b90505b90565b600080601260008473ffffffffffffffffffffffffffffffffffffffff1673ffffffffffffffffffffffffffffffffffffffff16815260200190815260200160002090506000600854905060095442118015611eb557506000600a54115b15611f6157600060095442611eca919061362f565b90506000611ed6611cd6565b905060006ec097ce7bc90715b34b9f100000000082600b546201518069065a4da25d3016c00000611f0791906136d4565b86611f129190613663565b611f1c9190613663565b611f269190613663565b611f3091906136d4565b9050600a5464e8d4a5100082611f469190613663565b611f5091906136d4565b84611f5b9190613705565b93505050505b60008083600001541115611fa157826001015464e8d4a51000838560000154611f8a9190613663565b611f9491906136d4565b611f9e919061362f565b90505b826002015481611fb19190613705565b9350505050919050565b611fc36124de565b600073ffffffffffffffffffffffffffffffffffffffff168173ffffffffffffffffffffffffffffffffffffffff1603612032576040517f08c379a0000000000000000000000000000000000000000000000000000000008152600401612029906135e0565b60405180910390fd5b80600260006101000a81548173ffffffffffffffffffffffffffffffffffffffff021916908373ffffffffffffffffffffffffffffffffffffffff16021790555050565b61207e612565565b60003390506000601260008373ffffffffffffffffffffffffffffffffffffffff1673ffffffffffffffffffffffffffffffffffffffff16815260200190815260200160002090508060050154816004015411612110576040517f08c379a000000000000000000000000000000000000000000000000000000000815260040161210790613ca7565b60405180910390fd5b600081600501548260040154612126919061362f565b905060006127106113888361213b9190613663565b61214591906136d4565b905060008183612155919061362f565b905083600401548460050181905550600460009054906101000a900473ffffffffffffffffffffffffffffffffffffffff1673ffffffffffffffffffffffffffffffffffffffff1663a9059cbb86836040518363ffffffff1660e01b81526004016121c1929190613848565b6020604051808303816000875af11580156121e0573d6000803e3d6000fd5b505050506040513d601f19601f820116820180604052508101906122049190613a16565b50600460009054906101000a900473ffffffffffffffffffffffffffffffffffffffff1673ffffffffffffffffffffffffffffffffffffffff1663a9059cbb61dead846040518363ffffffff1660e01b8152600401612264929190613848565b6020604051808303816000875af1158015612283573d6000803e3d6000fd5b505050506040513d601f19601f820116820180604052508101906122a79190613a16565b508473ffffffffffffffffffffffffffffffffffffffff167f92207ec016968e0ee608b41c92470ff10e9f810a8dec5f40901974ac75ed498e82846040516122f0929190613871565b60405180910390a25050505050612305612f00565b565b6201518081565b60085481565b61231c6124de565b600073ffffffffffffffffffffffffffffffffffffffff168173ffffffffffffffffffffffffffffffffffffffff160361238e5760006040517f1e4fbdf7000000000000000000000000000000000000000000000000000000008152600401612385919061352c565b60405180910390fd5b61239781612fac565b50565b6103e881565b60115481565b6000806000806000806000601260008973ffffffffffffffffffffffffffffffffffffffff1673ffffffffffffffffffffffffffffffffffffffff16815260200190815260200160002090508060040154965080600501549550806003015494506000816003015411801561241f575060008160040154115b156124ce576000816003015442612436919061362f565b9050600062278d00821061245557826004015490506127109350612494565b62278d008284600401546124699190613663565b61247391906136d4565b905062278d00612710836124879190613663565b61249191906136d4565b93505b826005015481116124a65760006124b7565b8260050154816124b6919061362f565b5b95508083600401546124c9919061362f565b945050505b5091939550919395565b600e5481565b6124e6613070565b73ffffffffffffffffffffffffffffffffffffffff16612504611410565b73ffffffffffffffffffffffffffffffffffffffff161461256357612527613070565b6040517f118cdaa700000000000000000000000000000000000000000000000000000000815260040161255a919061352c565b60405180910390fd5b565b6002600154036125a1576040517f3ee5aeb500000000000000000000000000000000000000000000000000000000815260040160405180910390fd5b6002600181905550565b6125b3611b74565b6000601260008373ffffffffffffffffffffffffffffffffffffffff1673ffffffffffffffffffffffffffffffffffffffff168152602001908152602001600020905060008073ffffffffffffffffffffffffffffffffffffffff16600360009054906101000a900473ffffffffffffffffffffffffffffffffffffffff1673ffffffffffffffffffffffffffffffffffffffff16146126ec57600360009054906101000a900473ffffffffffffffffffffffffffffffffffffffff1673ffffffffffffffffffffffffffffffffffffffff1663ab0229a0846040518263ffffffff1660e01b81526004016126a8919061352c565b602060405180830381865afa1580156126c5573d6000803e3d6000fd5b505050506040513d601f19601f820116820180604052508101906126e99190613cdc565b90505b60008073ffffffffffffffffffffffffffffffffffffffff16600260009054906101000a900473ffffffffffffffffffffffffffffffffffffffff1673ffffffffffffffffffffffffffffffffffffffff16146127e257600260009054906101000a900473ffffffffffffffffffffffffffffffffffffffff1673ffffffffffffffffffffffffffffffffffffffff166304d1334f856040518263ffffffff1660e01b815260040161279e919061352c565b602060405180830381865afa1580156127bb573d6000803e3d6000fd5b505050506040513d601f19601f820116820180604052508101906127df9190613cdc565b90505b6000612710826127106127f59190613705565b846128009190613663565b61280a91906136d4565b9050600084600001541115612875576000846001015464e8d4a5100060085487600001546128389190613663565b61284291906136d4565b61284c919061362f565b90506000811115612873578085600201600082825461286b9190613705565b925050819055505b505b808460000154600a54612888919061362f565b6128929190613705565b600a8190555080846000018190555064e8d4a51000600854826128b59190613663565b6128bf91906136d4565b84600101819055508473ffffffffffffffffffffffffffffffffffffffff167fdfc331ca16b8c4320a402867e832423d16ad3de953e474a499baf3697aa9e894828660010154604051612913929190613871565b60405180910390a25050505050565b5b6a05ca4ec2a79a7f670000006001600e5461293e9190613705565b6129489190613663565b600c54106129ea576064605f600b546129619190613663565b61296b91906136d4565b600b81905550600e600081548092919061298490613d09565b91905055506a05ca4ec2a79a7f67000000600e546129a29190613663565b600d819055507fde141711fef892cdaea55f1f6a85e241382fcefc69efdb496eff235992a18ed4600b54600c546040516129dd929190613871565b60405180910390a1612923565b565b600073ffffffffffffffffffffffffffffffffffffffff16600260009054906101000a900473ffffffffffffffffffffffffffffffffffffffff1673ffffffffffffffffffffffffffffffffffffffff160315612efc576000600260009054906101000a900473ffffffffffffffffffffffffffffffffffffffff1673ffffffffffffffffffffffffffffffffffffffff16634a9fefc7846040518263ffffffff1660e01b8152600401612aa0919061352c565b602060405180830381865afa158015612abd573d6000803e3d6000fd5b505050506040513d601f19601f82011682018060405250810190612ae19190613d66565b905060005b600073ffffffffffffffffffffffffffffffffffffffff168273ffffffffffffffffffffffffffffffffffffffff1614158015612b235750601481105b15612ef9576000808203612b3b576103e89050612cae565b60018203612b4d576101f49050612cad565b6000600260009054906101000a900473ffffffffffffffffffffffffffffffffffffffff1673ffffffffffffffffffffffffffffffffffffffff166370a08231856040518263ffffffff1660e01b8152600401612baa919061352c565b602060405180830381865afa158015612bc7573d6000803e3d6000fd5b505050506040513d601f19601f82011682018060405250810190612beb9190613cdc565b1115612bfa5760c89050612cac565b600260009054906101000a900473ffffffffffffffffffffffffffffffffffffffff1673ffffffffffffffffffffffffffffffffffffffff16634a9fefc7846040518263ffffffff1660e01b8152600401612c55919061352c565b602060405180830381865afa158015612c72573d6000803e3d6000fd5b505050506040513d601f19601f82011682018060405250810190612c969190613d66565b92508180612ca390613d09565b92505050612ae6565b5b5b60006127108286612cbf9190613663565b612cc991906136d4565b90506000811115612e465780600c6000828254612ce69190613705565b92505081905550600460009054906101000a900473ffffffffffffffffffffffffffffffffffffffff1673ffffffffffffffffffffffffffffffffffffffff166340c10f1985836040518363ffffffff1660e01b8152600401612d4a929190613848565b600060405180830381600087803b158015612d6457600080fd5b505af1158015612d78573d6000803e3d6000fd5b5050505080601360008673ffffffffffffffffffffffffffffffffffffffff1673ffffffffffffffffffffffffffffffffffffffff1681526020019081526020016000206000828254612dcb9190613705565b925050819055508573ffffffffffffffffffffffffffffffffffffffff168473ffffffffffffffffffffffffffffffffffffffff167fe679beb5d98a54fda65331587d36d13358e8bf295be15e932c482164f8fde95e83600187612e2f9190613705565b604051612e3d929190613871565b60405180910390a35b600260009054906101000a900473ffffffffffffffffffffffffffffffffffffffff1673ffffffffffffffffffffffffffffffffffffffff16634a9fefc7856040518263ffffffff1660e01b8152600401612ea1919061352c565b602060405180830381865afa158015612ebe573d6000803e3d6000fd5b505050506040513d601f19601f82011682018060405250810190612ee29190613d66565b93508280612eef90613d09565b9350505050612ae6565b50505b5050565b60018081905550565b6000808203612f2257670de0b6b3a76400009050612fa6565b600082670de0b6b3a764000085612f399190613663565b612f4391906136d4565b90506000670de0b6b3a76400008283612f5c9190613663565b612f6691906136d4565b90506714d1120d7b160000811115612f84576714d1120d7b16000090505b67016345785d8a0000811015612fa05767016345785d8a000090505b80925050505b92915050565b60008060009054906101000a900473ffffffffffffffffffffffffffffffffffffffff169050816000806101000a81548173ffffffffffffffffffffffffffffffffffffffff021916908373ffffffffffffffffffffffffffffffffffffffff1602179055508173ffffffffffffffffffffffffffffffffffffffff168173ffffffffffffffffffffffffffffffffffffffff167f8be0079c531659141344cd1fd0a4f28419497f9722a3daafe3b4186f6b6457e060405160405180910390a35050565b600033905090565b6000819050919050565b61308b81613078565b82525050565b60006020820190506130a66000830184613082565b92915050565b600080fd5b600073ffffffffffffffffffffffffffffffffffffffff82169050919050565b60006130dc826130b1565b9050919050565b6130ec816130d1565b81146130f757600080fd5b50565b600081359050613109816130e3565b92915050565b600060208284031215613125576131246130ac565b5b6000613133848285016130fa565b91505092915050565b7f4e487b7100000000000000000000000000000000000000000000000000000000600052602160045260246000fd5b6004811061317c5761317b61313c565b5b50565b600081905061318d8261316b565b919050565b600061319d8261317f565b9050919050565b6131ad81613192565b82525050565b600060a0820190506131c860008301886131a4565b6131d56020830187613082565b6131e26040830186613082565b6131ef6060830185613082565b6131fc6080830184613082565b9695505050505050565b600060808201905061321b6000830187613082565b6132286020830186613082565b6132356040830185613082565b6132426060830184613082565b95945050505050565b6000819050919050565b61325e8161324b565b82525050565b60006020820190506132796000830184613255565b92915050565b600060c0820190506132946000830189613082565b6132a16020830188613082565b6132ae6040830187613082565b6132bb6060830186613082565b6132c86080830185613082565b6132d560a0830184613082565b979650505050505050565b6000819050919050565b60006133056133006132fb846130b1565b6132e0565b6130b1565b9050919050565b6000613317826132ea565b9050919050565b60006133298261330c565b9050919050565b6133398161331e565b82525050565b60006020820190506133546000830184613330565b92915050565b61336381613078565b811461336e57600080fd5b50565b6000813590506133808161335a565b92915050565b60008060006060848603121561339f5761339e6130ac565b5b60006133ad86828701613371565b93505060206133be86828701613371565b92505060406133cf86828701613371565b9150509250925092565b60006133e48261330c565b9050919050565b6133f4816133d9565b82525050565b600060208201905061340f60008301846133eb565b92915050565b600060a08201905061342a6000830188613082565b6134376020830187613082565b6134446040830186613082565b6134516060830185613082565b61345e6080830184613082565b9695505050505050565b600060608201905061347d60008301866131a4565b61348a6020830185613082565b6134976040830184613082565b949350505050565b6000610100820190506134b5600083018b613082565b6134c2602083018a613082565b6134cf6040830189613082565b6134dc6060830188613082565b6134e96080830187613082565b6134f660a0830186613082565b61350360c0830185613082565b61351060e0830184613082565b9998505050505050505050565b613526816130d1565b82525050565b6000602082019050613541600083018461351d565b92915050565b60006135528261330c565b9050919050565b61356281613547565b82525050565b600060208201905061357d6000830184613559565b92915050565b600082825260208201905092915050565b7f496e76616c696420616464726573730000000000000000000000000000000000600082015250565b60006135ca600f83613583565b91506135d582613594565b602082019050919050565b600060208201905081810360008301526135f9816135bd565b9050919050565b7f4e487b7100000000000000000000000000000000000000000000000000000000600052601160045260246000fd5b600061363a82613078565b915061364583613078565b925082820390508181111561365d5761365c613600565b5b92915050565b600061366e82613078565b915061367983613078565b925082820261368781613078565b9150828204841483151761369e5761369d613600565b5b5092915050565b7f4e487b7100000000000000000000000000000000000000000000000000000000600052601260045260246000fd5b60006136df82613078565b91506136ea83613078565b9250826136fa576136f96136a5565b5b828204905092915050565b600061371082613078565b915061371b83613078565b925082820190508082111561373357613732613600565b5b92915050565b7f496e76616c696420707269636573000000000000000000000000000000000000600082015250565b600061376f600e83613583565b915061377a82613739565b602082019050919050565b6000602082019050818103600083015261379e81613762565b9050919050565b60006060820190506137ba6000830186613082565b6137c76020830185613082565b6137d46040830184613082565b949350505050565b7f4e6f7468696e6720746f20686172766573740000000000000000000000000000600082015250565b6000613812601283613583565b915061381d826137dc565b602082019050919050565b6000602082019050818103600083015261384181613805565b9050919050565b600060408201905061385d600083018561351d565b61386a6020830184613082565b9392505050565b60006040820190506138866000830185613082565b6138936020830184613082565b9392505050565b7f4e6f7468696e6720766573746564000000000000000000000000000000000000600082015250565b60006138d0600e83613583565b91506138db8261389a565b602082019050919050565b600060208201905081810360008301526138ff816138c3565b9050919050565b7f56657374696e67206e6f74207374617274656400000000000000000000000000600082015250565b600061393c601383613583565b915061394782613906565b602082019050919050565b6000602082019050818103600083015261396b8161392f565b9050919050565b7f4e6f7468696e6720746f20636c61696d00000000000000000000000000000000600082015250565b60006139a8601083613583565b91506139b382613972565b602082019050919050565b600060208201905081810360008301526139d78161399b565b9050919050565b60008115159050919050565b6139f3816139de565b81146139fe57600080fd5b50565b600081519050613a10816139ea565b92915050565b600060208284031215613a2c57613a2b6130ac565b5b6000613a3a84828501613a01565b91505092915050565b6000613a4e8261324b565b9150613a598361324b565b9250828203905081811260008412168282136000851215161715613a8057613a7f613600565b5b92915050565b6000613a918261324b565b9150613a9c8361324b565b9250828202613aaa8161324b565b91507f80000000000000000000000000000000000000000000000000000000000000008414600084121615613ae257613ae1613600565b5b8282058414831517613af757613af6613600565b5b5092915050565b6000613b098261324b565b9150613b148361324b565b925082613b2457613b236136a5565b5b600160000383147f800000000000000000000000000000000000000000000000000000000000000083141615613b5d57613b5c613600565b5b828205905092915050565b7f427265616b6572206e6f74206163746976650000000000000000000000000000600082015250565b6000613b9e601283613583565b9150613ba982613b68565b602082019050919050565b60006020820190508181036000830152613bcd81613b91565b9050919050565b7f436f6f6c646f776e206e6f7420636f6d706c6574650000000000000000000000600082015250565b6000613c0a601583613583565b9150613c1582613bd4565b602082019050919050565b60006020820190508181036000830152613c3981613bfd565b9050919050565b6000602082019050613c5560008301846131a4565b92915050565b7f4e6f7468696e6720746f2063617368206f757400000000000000000000000000600082015250565b6000613c91601383613583565b9150613c9c82613c5b565b602082019050919050565b60006020820190508181036000830152613cc081613c84565b9050919050565b600081519050613cd68161335a565b92915050565b600060208284031215613cf257613cf16130ac565b5b6000613d0084828501613cc7565b91505092915050565b6000613d1482613078565b91507fffffffffffffffffffffffffffffffffffffffffffffffffffffffffffffffff8203613d4657613d45613600565b5b600182019050919050565b600081519050613d60816130e3565b92915050565b600060208284031215613d7c57613d7b6130ac565b5b6000613d8a84828501613d51565b9150509291505056fea26469706673582212209e459ba5b8ea650408c61a00d24c714552ead1ad283e61138647ff5c6d625ec664736f6c63430008140033",
  "linkReferences": {},
  "deployedLinkReferences": {}
}