{
  "_format": "hh-sol-artifact-1",
  "contractName": "IvyCore",
  "sourceName": "contracts/IvyCore.sol",
  "abi": [
    {
      "inputs": [
        {
          "internalType": "address",
          "name": "_ivyToken",
          "type": "address"
        }
      ],
      "stateMutability": "nonpayable",
      "type": "constructor"
    },
    {
      "inputs": [
        {
          "internalType": "address",
          "name": "owner",
          "type": "address"
        }
      ],
      "name": "OwnableInvalidOwner",
      "type": "error"
    },
    {
      "inputs": [
        {
          "internalType": "address",
          "name": "account",
          "type": "address"
        }
      ],
      "name": "OwnableUnauthorizedAccount",
      "type": "error"
    },
    {
      "inputs": [],
      "name": "ReentrancyGuardReentrantCall",
      "type": "error"
    },
    {
      "anonymous": false,
      "inputs": [
        {
          "indexed": false,
          "internalType": "enum IvyCore.BreakerLevel",
          "name": "previousLevel",
          "type": "uint8"
        }
      ],
      "name": "CircuitBreakerReset",
      "type": "event"
    },
    {
      "anonymous": false,
      "inputs": [
        {
          "indexed": false,
          "internalType": "enum IvyCore.BreakerLevel",
          "name": "level",
          "type": "uint8"
        },
        {
          "indexed": false,
          "internalType": "uint256",
          "name": "activationTime",
          "type": "uint256"
        },
        {
          "indexed": false,
          "internalType": "uint256",
          "name": "activationPrice",
          "type": "uint256"
        }
      ],
      "name": "CircuitBreakerTriggered",
      "type": "event"
    },
    {
      "anonymous": false,
      "inputs": [
        {
          "indexed": false,
          "internalType": "uint256",
          "name": "newEmissionFactor",
          "type": "uint256"
        },
        {
          "indexed": false,
          "internalType": "uint256",
          "name": "totalMinted",
          "type": "uint256"
        }
      ],
      "name": "HalvingOccurred",
      "type": "event"
    },
    {
      "anonymous": false,
      "inputs": [
        {
          "indexed": true,
          "internalType": "address",
          "name": "user",
          "type": "address"
        },
        {
          "indexed": false,
          "internalType": "uint256",
          "name": "received",
          "type": "uint256"
        },
        {
          "indexed": false,
          "internalType": "uint256",
          "name": "burned",
          "type": "uint256"
        }
      ],
      "name": "InstantCashOut",
      "type": "event"
    },
    {
      "anonymous": false,
      "inputs": [
        {
          "indexed": true,
          "internalType": "address",
          "name": "previousOwner",
          "type": "address"
        },
        {
          "indexed": true,
          "internalType": "address",
          "name": "newOwner",
          "type": "address"
        }
      ],
      "name": "OwnershipTransferred",
      "type": "event"
    },
    {
      "anonymous": false,
      "inputs": [
        {
          "indexed": true,
          "internalType": "address",
          "name": "receiver",
          "type": "address"
        },
        {
          "indexed": true,
          "internalType": "address",
          "name": "capturer",
          "type": "address"
        },
        {
          "indexed": false,
          "internalType": "uint256",
          "name": "amount",
          "type": "uint256"
        }
      ],
      "name": "PeerBonusPaid",
      "type": "event"
    },
    {
      "anonymous": false,
      "inputs": [
        {
          "indexed": false,
          "internalType": "uint256",
          "name": "accIvyPerShare",
          "type": "uint256"
        },
        {
          "indexed": false,
          "internalType": "uint256",
          "name": "lastRewardTime",
          "type": "uint256"
        },
        {
          "indexed": false,
          "internalType": "uint256",
          "name": "totalPoolBondPower",
          "type": "uint256"
        }
      ],
      "name": "PoolUpdated",
      "type": "event"
    },
    {
      "anonymous": false,
      "inputs": [
        {
          "indexed": true,
          "internalType": "address",
          "name": "oracle",
          "type": "address"
        }
      ],
      "name": "PriceOracleSet",
      "type": "event"
    },
    {
      "anonymous": false,
      "inputs": [
        {
          "indexed": false,
          "internalType": "uint256",
          "name": "currentPrice",
          "type": "uint256"
        },
        {
          "indexed": false,
          "internalType": "uint256",
          "name": "ma30Price",
          "type": "uint256"
        },
        {
          "indexed": false,
          "internalType": "uint256",
          "name": "price1hAgo",
          "type": "uint256"
        }
      ],
      "name": "PriceUpdated",
      "type": "event"
    },
    {
      "anonymous": false,
      "inputs": [
        {
          "indexed": true,
          "internalType": "address",
          "name": "referrer",
          "type": "address"
        },
        {
          "indexed": true,
          "internalType": "address",
          "name": "from",
          "type": "address"
        },
        {
          "indexed": false,
          "internalType": "uint256",
          "name": "amount",
          "type": "uint256"
        },
        {
          "indexed": false,
          "internalType": "uint256",
          "name": "level",
          "type": "uint256"
        }
      ],
      "name": "ReferralRewardPaid",
      "type": "event"
    },
    {
      "anonymous": false,
      "inputs": [
        {
          "indexed": true,
          "internalType": "address",
          "name": "referrer",
          "type": "address"
        },
        {
          "indexed": true,
          "internalType": "address",
          "name": "from",
          "type": "address"
        },
        {
          "indexed": false,
          "internalType": "uint256",
          "name": "amount",
          "type": "uint256"
        },
        {
          "indexed": false,
          "internalType": "uint256",
          "name": "level",
          "type": "uint256"
        }
      ],
      "name": "ReferralRewardsAccumulated",
      "type": "event"
    },
    {
      "anonymous": false,
      "inputs": [
        {
          "indexed": true,
          "internalType": "address",
          "name": "user",
          "type": "address"
        },
        {
          "indexed": true,
          "internalType": "uint256",
          "name": "tokenId",
          "type": "uint256"
        },
        {
          "indexed": false,
          "internalType": "uint256",
          "name": "amount",
          "type": "uint256"
        },
        {
          "indexed": false,
          "internalType": "uint256",
          "name": "powerAdded",
          "type": "uint256"
        }
      ],
      "name": "ReferralRewardsCompounded",
      "type": "event"
    },
    {
      "anonymous": false,
      "inputs": [
        {
          "indexed": true,
          "internalType": "address",
          "name": "user",
          "type": "address"
        },
        {
          "indexed": false,
          "internalType": "uint256",
          "name": "amount",
          "type": "uint256"
        }
      ],
      "name": "ReferralRewardsHarvested",
      "type": "event"
    },
    {
      "anonymous": false,
      "inputs": [
        {
          "indexed": true,
          "internalType": "address",
          "name": "user",
          "type": "address"
        },
        {
          "indexed": false,
          "internalType": "uint256",
          "name": "amount",
          "type": "uint256"
        }
      ],
      "name": "RewardsHarvested",
      "type": "event"
    },
    {
      "anonymous": false,
      "inputs": [
        {
          "indexed": true,
          "internalType": "address",
          "name": "capturer",
          "type": "address"
        },
        {
          "indexed": true,
          "internalType": "address",
          "name": "blockedUpline",
          "type": "address"
        },
        {
          "indexed": false,
          "internalType": "uint256",
          "name": "amount",
          "type": "uint256"
        },
        {
          "indexed": false,
          "internalType": "uint256",
          "name": "depth",
          "type": "uint256"
        }
      ],
      "name": "TeamBonusCaptured",
      "type": "event"
    },
    {
      "anonymous": false,
      "inputs": [
        {
          "indexed": false,
          "internalType": "bool",
          "name": "testMode",
          "type": "bool"
        }
      ],
      "name": "TestModeChanged",
      "type": "event"
    },
    {
      "anonymous": false,
      "inputs": [],
      "name": "TestModePermanentlyDisabled",
      "type": "event"
    },
    {
      "anonymous": false,
      "inputs": [
        {
          "indexed": true,
          "internalType": "address",
          "name": "user",
          "type": "address"
        },
        {
          "indexed": false,
          "internalType": "uint256",
          "name": "bondPower",
          "type": "uint256"
        },
        {
          "indexed": false,
          "internalType": "uint256",
          "name": "rewardDebt",
          "type": "uint256"
        }
      ],
      "name": "UserSynced",
      "type": "event"
    },
    {
      "anonymous": false,
      "inputs": [
        {
          "indexed": true,
          "internalType": "address",
          "name": "user",
          "type": "address"
        },
        {
          "indexed": true,
          "internalType": "uint256",
          "name": "tokenId",
          "type": "uint256"
        },
        {
          "indexed": false,
          "internalType": "uint256",
          "name": "pendingIvy",
          "type": "uint256"
        },
        {
          "indexed": false,
          "internalType": "uint256",
          "name": "bonusPower",
          "type": "uint256"
        }
      ],
      "name": "VestedCompounded",
      "type": "event"
    },
    {
      "anonymous": false,
      "inputs": [
        {
          "indexed": true,
          "internalType": "address",
          "name": "user",
          "type": "address"
        },
        {
          "indexed": false,
          "internalType": "uint256",
          "name": "amount",
          "type": "uint256"
        }
      ],
      "name": "VestingClaimed",
      "type": "event"
    },
    {
      "anonymous": false,
      "inputs": [
        {
          "indexed": true,
          "internalType": "address",
          "name": "user",
          "type": "address"
        },
        {
          "indexed": false,
          "internalType": "uint256",
          "name": "amount",
          "type": "uint256"
        },
        {
          "indexed": false,
          "internalType": "uint256",
          "name": "startTime",
          "type": "uint256"
        }
      ],
      "name": "VestingStarted",
      "type": "event"
    },
    {
      "inputs": [],
      "name": "ACC_IVY_PRECISION",
      "outputs": [
        {
          "internalType": "uint256",
          "name": "",
          "type": "uint256"
        }
      ],
      "stateMutability": "view",
      "type": "function"
    },
    {
      "inputs": [],
      "name": "ALPHA_L1",
      "outputs": [
        {
          "internalType": "uint256",
          "name": "",
          "type": "uint256"
        }
      ],
      "stateMutability": "view",
      "type": "function"
    },
    {
      "inputs": [],
      "name": "ALPHA_L2",
      "outputs": [
        {
          "internalType": "uint256",
          "name": "",
          "type": "uint256"
        }
      ],
      "stateMutability": "view",
      "type": "function"
    },
    {
      "inputs": [],
      "name": "ALPHA_L3",
      "outputs": [
        {
          "internalType": "uint256",
          "name": "",
          "type": "uint256"
        }
      ],
      "stateMutability": "view",
      "type": "function"
    },
    {
      "inputs": [],
      "name": "BASE_DAILY_EMISSION",
      "outputs": [
        {
          "internalType": "uint256",
          "name": "",
          "type": "uint256"
        }
      ],
      "stateMutability": "view",
      "type": "function"
    },
    {
      "inputs": [],
      "name": "BASIS_POINTS",
      "outputs": [
        {
          "internalType": "uint256",
          "name": "",
          "type": "uint256"
        }
      ],
      "stateMutability": "view",
      "type": "function"
    },
    {
      "inputs": [],
      "name": "COOLDOWN_L1",
      "outputs": [
        {
          "internalType": "uint256",
          "name": "",
          "type": "uint256"
        }
      ],
      "stateMutability": "view",
      "type": "function"
    },
    {
      "inputs": [],
      "name": "COOLDOWN_L2",
      "outputs": [
        {
          "internalType": "uint256",
          "name": "",
          "type": "uint256"
        }
      ],
      "stateMutability": "view",
      "type": "function"
    },
    {
      "inputs": [],
      "name": "COOLDOWN_L3",
      "outputs": [
        {
          "internalType": "uint256",
          "name": "",
          "type": "uint256"
        }
      ],
      "stateMutability": "view",
      "type": "function"
    },
    {
      "inputs": [],
      "name": "DROP_L1",
      "outputs": [
        {
          "internalType": "int256",
          "name": "",
          "type": "int256"
        }
      ],
      "stateMutability": "view",
      "type": "function"
    },
    {
      "inputs": [],
      "name": "DROP_L2",
      "outputs": [
        {
          "internalType": "int256",
          "name": "",
          "type": "int256"
        }
      ],
      "stateMutability": "view",
      "type": "function"
    },
    {
      "inputs": [],
      "name": "DROP_L3",
      "outputs": [
        {
          "internalType": "int256",
          "name": "",
          "type": "int256"
        }
      ],
      "stateMutability": "view",
      "type": "function"
    },
    {
      "inputs": [],
      "name": "EMISSION_PER_SECOND",
      "outputs": [
        {
          "internalType": "uint256",
          "name": "",
          "type": "uint256"
        }
      ],
      "stateMutability": "view",
      "type": "function"
    },
    {
      "inputs": [],
      "name": "HALVING_DECAY",
      "outputs": [
        {
          "internalType": "uint256",
          "name": "",
          "type": "uint256"
        }
      ],
      "stateMutability": "view",
      "type": "function"
    },
    {
      "inputs": [],
      "name": "HALVING_THRESHOLD",
      "outputs": [
        {
          "internalType": "uint256",
          "name": "",
          "type": "uint256"
        }
      ],
      "stateMutability": "view",
      "type": "function"
    },
    {
      "inputs": [],
      "name": "HARD_CAP",
      "outputs": [
        {
          "internalType": "uint256",
          "name": "",
          "type": "uint256"
        }
      ],
      "stateMutability": "view",
      "type": "function"
    },
    {
      "inputs": [],
      "name": "INFINITE_RATE",
      "outputs": [
        {
          "internalType": "uint256",
          "name": "",
          "type": "uint256"
        }
      ],
      "stateMutability": "view",
      "type": "function"
    },
    {
      "inputs": [],
      "name": "INSTANT_CASH_PENALTY",
      "outputs": [
        {
          "internalType": "uint256",
          "name": "",
          "type": "uint256"
        }
      ],
      "stateMutability": "view",
      "type": "function"
    },
    {
      "inputs": [],
      "name": "L1_RATE",
      "outputs": [
        {
          "internalType": "uint256",
          "name": "",
          "type": "uint256"
        }
      ],
      "stateMutability": "view",
      "type": "function"
    },
    {
      "inputs": [],
      "name": "L2_RATE",
      "outputs": [
        {
          "internalType": "uint256",
          "name": "",
          "type": "uint256"
        }
      ],
      "stateMutability": "view",
      "type": "function"
    },
    {
      "inputs": [],
      "name": "MAX_PRICE_CHANGE_PERCENT",
      "outputs": [
        {
          "internalType": "uint256",
          "name": "",
          "type": "uint256"
        }
      ],
      "stateMutability": "view",
      "type": "function"
    },
    {
      "inputs": [],
      "name": "MAX_REFERRAL_DEPTH",
      "outputs": [
        {
          "internalType": "uint256",
          "name": "",
          "type": "uint256"
        }
      ],
      "stateMutability": "view",
      "type": "function"
    },
    {
      "inputs": [],
      "name": "MINING_CAP",
      "outputs": [
        {
          "internalType": "uint256",
          "name": "",
          "type": "uint256"
        }
      ],
      "stateMutability": "view",
      "type": "function"
    },
    {
      "inputs": [],
      "name": "PEER_BONUS_RATE",
      "outputs": [
        {
          "internalType": "uint256",
          "name": "",
          "type": "uint256"
        }
      ],
      "stateMutability": "view",
      "type": "function"
    },
    {
      "inputs": [],
      "name": "PID_CAP",
      "outputs": [
        {
          "internalType": "uint256",
          "name": "",
          "type": "uint256"
        }
      ],
      "stateMutability": "view",
      "type": "function"
    },
    {
      "inputs": [],
      "name": "PID_FLOOR",
      "outputs": [
        {
          "internalType": "uint256",
          "name": "",
          "type": "uint256"
        }
      ],
      "stateMutability": "view",
      "type": "function"
    },
    {
      "inputs": [],
      "name": "PID_K",
      "outputs": [
        {
          "internalType": "uint256",
          "name": "",
          "type": "uint256"
        }
      ],
      "stateMutability": "view",
      "type": "function"
    },
    {
      "inputs": [],
      "name": "TEAM_STATS_MAX_DEPTH",
      "outputs": [
        {
          "internalType": "uint256",
          "name": "",
          "type": "uint256"
        }
      ],
      "stateMutability": "view",
      "type": "function"
    },
    {
      "inputs": [],
      "name": "VESTING_PERIOD",
      "outputs": [
        {
          "internalType": "uint256",
          "name": "",
          "type": "uint256"
        }
      ],
      "stateMutability": "view",
      "type": "function"
    },
    {
      "inputs": [],
      "name": "accIvyPerShare",
      "outputs": [
        {
          "internalType": "uint256",
          "name": "",
          "type": "uint256"
        }
      ],
      "stateMutability": "view",
      "type": "function"
    },
    {
      "inputs": [],
      "name": "breakerState",
      "outputs": [
        {
          "internalType": "enum IvyCore.BreakerLevel",
          "name": "currentLevel",
          "type": "uint8"
        },
        {
          "internalType": "uint256",
          "name": "activationTime",
          "type": "uint256"
        },
        {
          "internalType": "uint256",
          "name": "activationPrice",
          "type": "uint256"
        }
      ],
      "stateMutability": "view",
      "type": "function"
    },
    {
      "inputs": [],
      "name": "checkCircuitBreaker",
      "outputs": [],
      "stateMutability": "nonpayable",
      "type": "function"
    },
    {
      "inputs": [],
      "name": "claimVested",
      "outputs": [],
      "stateMutability": "nonpayable",
      "type": "function"
    },
    {
      "inputs": [
        {
          "internalType": "uint256",
          "name": "tokenId",
          "type": "uint256"
        }
      ],
      "name": "compoundReferralRewards",
      "outputs": [],
      "stateMutability": "nonpayable",
      "type": "function"
    },
    {
      "inputs": [
        {
          "internalType": "uint256",
          "name": "tokenId",
          "type": "uint256"
        }
      ],
      "name": "compoundVested",
      "outputs": [],
      "stateMutability": "nonpayable",
      "type": "function"
    },
    {
      "inputs": [
        {
          "internalType": "uint256",
          "name": "tokenId",
          "type": "uint256"
        },
        {
          "internalType": "uint256",
          "name": "amount",
          "type": "uint256"
        }
      ],
      "name": "compoundVestedPartial",
      "outputs": [],
      "stateMutability": "nonpayable",
      "type": "function"
    },
    {
      "inputs": [],
      "name": "currentDailyEmission",
      "outputs": [
        {
          "internalType": "uint256",
          "name": "",
          "type": "uint256"
        }
      ],
      "stateMutability": "view",
      "type": "function"
    },
    {
      "inputs": [],
      "name": "currentPrice",
      "outputs": [
        {
          "internalType": "uint256",
          "name": "",
          "type": "uint256"
        }
      ],
      "stateMutability": "view",
      "type": "function"
    },
    {
      "inputs": [
        {
          "internalType": "address",
          "name": "",
          "type": "address"
        },
        {
          "internalType": "uint256",
          "name": "",
          "type": "uint256"
        }
      ],
      "name": "directReferrals",
      "outputs": [
        {
          "internalType": "address",
          "name": "",
          "type": "address"
        }
      ],
      "stateMutability": "view",
      "type": "function"
    },
    {
      "inputs": [],
      "name": "dividendPool",
      "outputs": [
        {
          "internalType": "contract IDividendPool",
          "name": "",
          "type": "address"
        }
      ],
      "stateMutability": "view",
      "type": "function"
    },
    {
      "inputs": [],
      "name": "emissionFactor",
      "outputs": [
        {
          "internalType": "uint256",
          "name": "",
          "type": "uint256"
        }
      ],
      "stateMutability": "view",
      "type": "function"
    },
    {
      "inputs": [],
      "name": "genesisNode",
      "outputs": [
        {
          "internalType": "contract IGenesisNode",
          "name": "",
          "type": "address"
        }
      ],
      "stateMutability": "view",
      "type": "function"
    },
    {
      "inputs": [],
      "name": "getBreakerStatus",
      "outputs": [
        {
          "internalType": "enum IvyCore.BreakerLevel",
          "name": "level",
          "type": "uint8"
        },
        {
          "internalType": "uint256",
          "name": "activationTime",
          "type": "uint256"
        },
        {
          "internalType": "uint256",
          "name": "activationPrice",
          "type": "uint256"
        },
        {
          "internalType": "uint256",
          "name": "timeRemaining",
          "type": "uint256"
        },
        {
          "internalType": "uint256",
          "name": "forcedAlpha",
          "type": "uint256"
        }
      ],
      "stateMutability": "view",
      "type": "function"
    },
    {
      "inputs": [
        {
          "internalType": "address",
          "name": "user",
          "type": "address"
        }
      ],
      "name": "getDirectReferrals",
      "outputs": [
        {
          "internalType": "address[]",
          "name": "referrals",
          "type": "address[]"
        },
        {
          "internalType": "uint256[]",
          "name": "bondPowers",
          "type": "uint256[]"
        },
        {
          "internalType": "uint256[]",
          "name": "totalRewards",
          "type": "uint256[]"
        }
      ],
      "stateMutability": "view",
      "type": "function"
    },
    {
      "inputs": [],
      "name": "getFinalMultiplier",
      "outputs": [
        {
          "internalType": "uint256",
          "name": "",
          "type": "uint256"
        }
      ],
      "stateMutability": "view",
      "type": "function"
    },
    {
      "inputs": [],
      "name": "getHalvingInfo",
      "outputs": [
        {
          "internalType": "uint256",
          "name": "_halvingCount",
          "type": "uint256"
        },
        {
          "internalType": "uint256",
          "name": "_emissionFactor",
          "type": "uint256"
        },
        {
          "internalType": "uint256",
          "name": "_nextHalvingAt",
          "type": "uint256"
        },
        {
          "internalType": "uint256",
          "name": "_progressToNextHalving",
          "type": "uint256"
        }
      ],
      "stateMutability": "view",
      "type": "function"
    },
    {
      "inputs": [],
      "name": "getPIDAlpha",
      "outputs": [
        {
          "internalType": "uint256",
          "name": "",
          "type": "uint256"
        }
      ],
      "stateMutability": "view",
      "type": "function"
    },
    {
      "inputs": [
        {
          "internalType": "address",
          "name": "user",
          "type": "address"
        }
      ],
      "name": "getPendingReferralRewards",
      "outputs": [
        {
          "internalType": "uint256",
          "name": "pending",
          "type": "uint256"
        }
      ],
      "stateMutability": "view",
      "type": "function"
    },
    {
      "inputs": [],
      "name": "getProtocolStats",
      "outputs": [
        {
          "internalType": "uint256",
          "name": "_totalMinted",
          "type": "uint256"
        },
        {
          "internalType": "uint256",
          "name": "_miningCap",
          "type": "uint256"
        },
        {
          "internalType": "uint256",
          "name": "_emissionFactor",
          "type": "uint256"
        },
        {
          "internalType": "uint256",
          "name": "_finalMultiplier",
          "type": "uint256"
        },
        {
          "internalType": "uint256",
          "name": "_totalPoolBondPower",
          "type": "uint256"
        },
        {
          "internalType": "uint256",
          "name": "_emissionPerSecond",
          "type": "uint256"
        },
        {
          "internalType": "uint256",
          "name": "_currentDailyEmission",
          "type": "uint256"
        },
        {
          "internalType": "uint256",
          "name": "_halvingCount",
          "type": "uint256"
        }
      ],
      "stateMutability": "view",
      "type": "function"
    },
    {
      "inputs": [
        {
          "internalType": "address",
          "name": "user",
          "type": "address"
        },
        {
          "internalType": "uint256",
          "name": "offset",
          "type": "uint256"
        },
        {
          "internalType": "uint256",
          "name": "limit",
          "type": "uint256"
        }
      ],
      "name": "getReferralRewardHistory",
      "outputs": [
        {
          "components": [
            {
              "internalType": "uint256",
              "name": "timestamp",
              "type": "uint256"
            },
            {
              "internalType": "uint256",
              "name": "amount",
              "type": "uint256"
            },
            {
              "internalType": "uint8",
              "name": "level",
              "type": "uint8"
            },
            {
              "internalType": "address",
              "name": "fromUser",
              "type": "address"
            }
          ],
          "internalType": "struct IvyCore.ReferralRewardRecord[]",
          "name": "records",
          "type": "tuple[]"
        },
        {
          "internalType": "uint256",
          "name": "total",
          "type": "uint256"
        }
      ],
      "stateMutability": "view",
      "type": "function"
    },
    {
      "inputs": [
        {
          "internalType": "address",
          "name": "user",
          "type": "address"
        }
      ],
      "name": "getTeamPerformance",
      "outputs": [
        {
          "internalType": "uint256",
          "name": "rank",
          "type": "uint256"
        },
        {
          "internalType": "uint256",
          "name": "teamBondPower",
          "type": "uint256"
        },
        {
          "internalType": "uint256",
          "name": "teamActiveRate",
          "type": "uint256"
        },
        {
          "internalType": "uint256",
          "name": "avgBondPower",
          "type": "uint256"
        }
      ],
      "stateMutability": "view",
      "type": "function"
    },
    {
      "inputs": [
        {
          "internalType": "address",
          "name": "user",
          "type": "address"
        }
      ],
      "name": "getTeamStats",
      "outputs": [
        {
          "internalType": "uint256",
          "name": "totalMembers",
          "type": "uint256"
        },
        {
          "internalType": "uint256",
          "name": "totalBondPower",
          "type": "uint256"
        },
        {
          "internalType": "uint256",
          "name": "activeMembers",
          "type": "uint256"
        },
        {
          "internalType": "uint256",
          "name": "directCount",
          "type": "uint256"
        }
      ],
      "stateMutability": "view",
      "type": "function"
    },
    {
      "inputs": [
        {
          "internalType": "address",
          "name": "user",
          "type": "address"
        }
      ],
      "name": "getUserMiningStats",
      "outputs": [
        {
          "internalType": "uint256",
          "name": "bondPower",
          "type": "uint256"
        },
        {
          "internalType": "uint256",
          "name": "pendingRewards",
          "type": "uint256"
        },
        {
          "internalType": "uint256",
          "name": "totalVested",
          "type": "uint256"
        },
        {
          "internalType": "uint256",
          "name": "totalClaimed",
          "type": "uint256"
        },
        {
          "internalType": "uint256",
          "name": "claimableNow",
          "type": "uint256"
        }
      ],
      "stateMutability": "view",
      "type": "function"
    },
    {
      "inputs": [
        {
          "internalType": "address",
          "name": "user",
          "type": "address"
        }
      ],
      "name": "getUserReferralSummary",
      "outputs": [
        {
          "internalType": "uint256",
          "name": "directReferralCount",
          "type": "uint256"
        },
        {
          "internalType": "uint256",
          "name": "totalTeamSize",
          "type": "uint256"
        },
        {
          "internalType": "uint256",
          "name": "totalReferralRewards",
          "type": "uint256"
        },
        {
          "internalType": "uint256",
          "name": "rewardHistoryCount",
          "type": "uint256"
        },
        {
          "internalType": "bool",
          "name": "hasGenesisNode",
          "type": "bool"
        }
      ],
      "stateMutability": "view",
      "type": "function"
    },
    {
      "inputs": [
        {
          "internalType": "address",
          "name": "user",
          "type": "address"
        }
      ],
      "name": "getVestingInfo",
      "outputs": [
        {
          "internalType": "uint256",
          "name": "totalVested",
          "type": "uint256"
        },
        {
          "internalType": "uint256",
          "name": "totalClaimed",
          "type": "uint256"
        },
        {
          "internalType": "uint256",
          "name": "vestingStartTime",
          "type": "uint256"
        },
        {
          "internalType": "uint256",
          "name": "claimableNow",
          "type": "uint256"
        },
        {
          "internalType": "uint256",
          "name": "remainingLocked",
          "type": "uint256"
        },
        {
          "internalType": "uint256",
          "name": "vestingProgress",
          "type": "uint256"
        }
      ],
      "stateMutability": "view",
      "type": "function"
    },
    {
      "inputs": [],
      "name": "halvingCount",
      "outputs": [
        {
          "internalType": "uint256",
          "name": "",
          "type": "uint256"
        }
      ],
      "stateMutability": "view",
      "type": "function"
    },
    {
      "inputs": [],
      "name": "harvest",
      "outputs": [],
      "stateMutability": "nonpayable",
      "type": "function"
    },
    {
      "inputs": [
        {
          "internalType": "uint256",
          "name": "amount",
          "type": "uint256"
        }
      ],
      "name": "harvestPartial",
      "outputs": [],
      "stateMutability": "nonpayable",
      "type": "function"
    },
    {
      "inputs": [],
      "name": "harvestReferralRewards",
      "outputs": [],
      "stateMutability": "nonpayable",
      "type": "function"
    },
    {
      "inputs": [],
      "name": "instantCashOut",
      "outputs": [],
      "stateMutability": "nonpayable",
      "type": "function"
    },
    {
      "inputs": [],
      "name": "isFullyDecentralized",
      "outputs": [
        {
          "internalType": "bool",
          "name": "",
          "type": "bool"
        }
      ],
      "stateMutability": "view",
      "type": "function"
    },
    {
      "inputs": [],
      "name": "ivyBond",
      "outputs": [
        {
          "internalType": "contract IIvyBond",
          "name": "",
          "type": "address"
        }
      ],
      "stateMutability": "view",
      "type": "function"
    },
    {
      "inputs": [],
      "name": "ivyToken",
      "outputs": [
        {
          "internalType": "contract IvyToken",
          "name": "",
          "type": "address"
        }
      ],
      "stateMutability": "view",
      "type": "function"
    },
    {
      "inputs": [],
      "name": "lastHalvingMinted",
      "outputs": [
        {
          "internalType": "uint256",
          "name": "",
          "type": "uint256"
        }
      ],
      "stateMutability": "view",
      "type": "function"
    },
    {
      "inputs": [],
      "name": "lastPriceUpdateTime",
      "outputs": [
        {
          "internalType": "uint256",
          "name": "",
          "type": "uint256"
        }
      ],
      "stateMutability": "view",
      "type": "function"
    },
    {
      "inputs": [],
      "name": "lastRewardTime",
      "outputs": [
        {
          "internalType": "uint256",
          "name": "",
          "type": "uint256"
        }
      ],
      "stateMutability": "view",
      "type": "function"
    },
    {
      "inputs": [],
      "name": "ma30Price",
      "outputs": [
        {
          "internalType": "uint256",
          "name": "",
          "type": "uint256"
        }
      ],
      "stateMutability": "view",
      "type": "function"
    },
    {
      "inputs": [],
      "name": "oracle",
      "outputs": [
        {
          "internalType": "contract IPriceOracle",
          "name": "",
          "type": "address"
        }
      ],
      "stateMutability": "view",
      "type": "function"
    },
    {
      "inputs": [],
      "name": "owner",
      "outputs": [
        {
          "internalType": "address",
          "name": "",
          "type": "address"
        }
      ],
      "stateMutability": "view",
      "type": "function"
    },
    {
      "inputs": [
        {
          "internalType": "address",
          "name": "user",
          "type": "address"
        }
      ],
      "name": "pendingIvy",
      "outputs": [
        {
          "internalType": "uint256",
          "name": "",
          "type": "uint256"
        }
      ],
      "stateMutability": "view",
      "type": "function"
    },
    {
      "inputs": [
        {
          "internalType": "address",
          "name": "",
          "type": "address"
        }
      ],
      "name": "pendingReferralRewards",
      "outputs": [
        {
          "internalType": "uint256",
          "name": "",
          "type": "uint256"
        }
      ],
      "stateMutability": "view",
      "type": "function"
    },
    {
      "inputs": [],
      "name": "price1hAgo",
      "outputs": [
        {
          "internalType": "uint256",
          "name": "",
          "type": "uint256"
        }
      ],
      "stateMutability": "view",
      "type": "function"
    },
    {
      "inputs": [
        {
          "internalType": "address",
          "name": "",
          "type": "address"
        },
        {
          "internalType": "address",
          "name": "",
          "type": "address"
        }
      ],
      "name": "referralBasisCredited",
      "outputs": [
        {
          "internalType": "uint256",
          "name": "",
          "type": "uint256"
        }
      ],
      "stateMutability": "view",
      "type": "function"
    },
    {
      "inputs": [
        {
          "internalType": "address",
          "name": "",
          "type": "address"
        },
        {
          "internalType": "uint256",
          "name": "",
          "type": "uint256"
        }
      ],
      "name": "referralRewardHistory",
      "outputs": [
        {
          "internalType": "uint256",
          "name": "timestamp",
          "type": "uint256"
        },
        {
          "internalType": "uint256",
          "name": "amount",
          "type": "uint256"
        },
        {
          "internalType": "uint8",
          "name": "level",
          "type": "uint8"
        },
        {
          "internalType": "address",
          "name": "fromUser",
          "type": "address"
        }
      ],
      "stateMutability": "view",
      "type": "function"
    },
    {
      "inputs": [
        {
          "internalType": "address",
          "name": "",
          "type": "address"
        }
      ],
      "name": "referralRewardsEarned",
      "outputs": [
        {
          "internalType": "uint256",
          "name": "",
          "type": "uint256"
        }
      ],
      "stateMutability": "view",
      "type": "function"
    },
    {
      "inputs": [],
      "name": "renounceOwnership",
      "outputs": [],
      "stateMutability": "nonpayable",
      "type": "function"
    },
    {
      "inputs": [],
      "name": "resetCircuitBreaker",
      "outputs": [],
      "stateMutability": "nonpayable",
      "type": "function"
    },
    {
      "inputs": [
        {
          "internalType": "address",
          "name": "_dividendPool",
          "type": "address"
        }
      ],
      "name": "setDividendPool",
      "outputs": [],
      "stateMutability": "nonpayable",
      "type": "function"
    },
    {
      "inputs": [
        {
          "internalType": "address",
          "name": "_genesisNode",
          "type": "address"
        }
      ],
      "name": "setGenesisNode",
      "outputs": [],
      "stateMutability": "nonpayable",
      "type": "function"
    },
    {
      "inputs": [
        {
          "internalType": "address",
          "name": "_ivyBond",
          "type": "address"
        }
      ],
      "name": "setIvyBond",
      "outputs": [],
      "stateMutability": "nonpayable",
      "type": "function"
    },
    {
      "inputs": [
        {
          "internalType": "address",
          "name": "_oracle",
          "type": "address"
        }
      ],
      "name": "setOracle",
      "outputs": [],
      "stateMutability": "nonpayable",
      "type": "function"
    },
    {
      "inputs": [
        {
          "internalType": "bool",
          "name": "_testMode",
          "type": "bool"
        }
      ],
      "name": "setTestMode",
      "outputs": [],
      "stateMutability": "nonpayable",
      "type": "function"
    },
    {
      "inputs": [
        {
          "internalType": "address",
          "name": "user",
          "type": "address"
        }
      ],
      "name": "syncUser",
      "outputs": [],
      "stateMutability": "nonpayable",
      "type": "function"
    },
    {
      "inputs": [
        {
          "internalType": "address",
          "name": "",
          "type": "address"
        }
      ],
      "name": "teamStatsCache",
      "outputs": [
        {
          "internalType": "uint256",
          "name": "totalMembers",
          "type": "uint256"
        },
        {
          "internalType": "uint256",
          "name": "totalBondPower",
          "type": "uint256"
        },
        {
          "internalType": "uint256",
          "name": "activeMembers",
          "type": "uint256"
        },
        {
          "internalType": "uint256",
          "name": "lastUpdateTime",
          "type": "uint256"
        }
      ],
      "stateMutability": "view",
      "type": "function"
    },
    {
      "inputs": [],
      "name": "testMode",
      "outputs": [
        {
          "internalType": "bool",
          "name": "",
          "type": "bool"
        }
      ],
      "stateMutability": "view",
      "type": "function"
    },
    {
      "inputs": [],
      "name": "testModeDisabledPermanently",
      "outputs": [
        {
          "internalType": "bool",
          "name": "",
          "type": "bool"
        }
      ],
      "stateMutability": "view",
      "type": "function"
    },
    {
      "inputs": [],
      "name": "totalMinted",
      "outputs": [
        {
          "internalType": "uint256",
          "name": "",
          "type": "uint256"
        }
      ],
      "stateMutability": "view",
      "type": "function"
    },
    {
      "inputs": [],
      "name": "totalPoolBondPower",
      "outputs": [
        {
          "internalType": "uint256",
          "name": "",
          "type": "uint256"
        }
      ],
      "stateMutability": "view",
      "type": "function"
    },
    {
      "inputs": [
        {
          "internalType": "address",
          "name": "",
          "type": "address"
        }
      ],
      "name": "totalRewardsEarned",
      "outputs": [
        {
          "internalType": "uint256",
          "name": "",
          "type": "uint256"
        }
      ],
      "stateMutability": "view",
      "type": "function"
    },
    {
      "inputs": [
        {
          "internalType": "address",
          "name": "newOwner",
          "type": "address"
        }
      ],
      "name": "transferOwnership",
      "outputs": [],
      "stateMutability": "nonpayable",
      "type": "function"
    },
    {
      "inputs": [],
      "name": "updatePool",
      "outputs": [],
      "stateMutability": "nonpayable",
      "type": "function"
    },
    {
      "inputs": [
        {
          "internalType": "uint256",
          "name": "_currentPrice",
          "type": "uint256"
        },
        {
          "internalType": "uint256",
          "name": "_ma30Price",
          "type": "uint256"
        },
        {
          "internalType": "uint256",
          "name": "_price1hAgo",
          "type": "uint256"
        }
      ],
      "name": "updatePrices",
      "outputs": [],
      "stateMutability": "nonpayable",
      "type": "function"
    },
    {
      "inputs": [
        {
          "internalType": "address",
          "name": "",
          "type": "address"
        }
      ],
      "name": "userInfo",
      "outputs": [
        {
          "internalType": "uint256",
          "name": "bondPower",
          "type": "uint256"
        },
        {
          "internalType": "uint256",
          "name": "rewardDebt",
          "type": "uint256"
        },
        {
          "internalType": "uint256",
          "name": "pendingVested",
          "type": "uint256"
        },
        {
          "internalType": "uint256",
          "name": "vestingStartTime",
          "type": "uint256"
        },
        {
          "internalType": "uint256",
          "name": "totalVested",
          "type": "uint256"
        },
        {
          "internalType": "uint256",
          "name": "totalClaimed",
          "type": "uint256"
        }
      ],
      "stateMutability": "view",
      "type": "function"
    }
  ],
  "bytecode": "0x6080604052670de0b6b3a7640000600d819055601181905560128190556013556014805460ff191660011790553480156200003957600080fd5b50604051620056bf380380620056bf8339810160408190526200005c916200010d565b33806200008357604051631e4fbdf760e01b81526000600482015260240160405180910390fd5b6200008e81620000bd565b5060018055600480546001600160a01b0319166001600160a01b039290921691909117905542600b556200013f565b600080546001600160a01b038381166001600160a01b0319831681178455604051919092169283917f8be0079c531659141344cd1fd0a4f28419497f9722a3daafe3b4186f6b6457e09190a35050565b6000602082840312156200012057600080fd5b81516001600160a01b03811681146200013857600080fd5b9392505050565b615570806200014f6000396000f3fe608060405234801561001057600080fd5b506004361061050f5760003560e01c80639b565faa116102a4578063d2c8e0e511610172578063e4f24cb0116100d9578063f2fde38b11610092578063f2fde38b14610ba6578063f706555b14610bb9578063f864233114610bc2578063f89f83fb14610bcb578063fb897ce414610bec578063fc84d91314610bff57600080fd5b8063e4f24cb014610b45578063e88067e814610b65578063e979ca4a14610b78578063eacf59c814610b80578063eef1be2c14610b8a578063f2eef31614610b9357600080fd5b8063e0c9bc621161012b578063e0c9bc6214610b08578063e1179f3d14610b11578063e1f1c4a714610b19578063e3161ddd14610b22578063e4147ca214610b2a578063e4941c3914610b3257600080fd5b8063d2c8e0e514610a76578063d63636e414610a98578063da6510b414610ad5578063dc2828e014610ade578063dcebf68114610af1578063de5f8d9314610b0057600080fd5b8063a95d5a6011610216578063cda80bfa116101cf578063cda80bfa14610a12578063ce28c1bf14610a20578063d01c44cd14610a32578063d087af9e14610a3a578063d2121b4e14610a65578063d2522baa14610a6e57600080fd5b8063a95d5a6014610992578063aa4a442c146109a1578063af77063d146109d6578063afce88ec146109e9578063b3def2f5146109fc578063cd9ea34214610a0557600080fd5b80639f55d64c116102685780639f55d64c1461093c578063a2309ff81461094e578063a28aee1514610957578063a29a7ab01461095f578063a2f27944146108ad578063a7bd3e9d1461097f57600080fd5b80639b565faa146109045780639c41ee67146108185780639d14b2a2146109175780639d1b464a146109205780639eb473481461092957600080fd5b80634641257d116103e157806375beb7b1116103535780638da5cb5b1161030c5780638da5cb5b146108b55780638e8b6c88146108c65780639231cf74146108d9578063934b7c54146108e2578063945c3ebd146108eb578063983d896e146108fc57600080fd5b806375beb7b114610818578063763f620614610820578063771aceef146108445780637adbf973146108875780637dc0d1d01461089a57806389e59ea0146108ad57600080fd5b806352aa8a5e116103a557806352aa8a5e1461079e5780635e147f90146107a65780636a87734f146107af5780636e8ba9f6146107c2578063715018a6146107d557806374c7773e146107dd57600080fd5b80634641257d1461072a5780634897fffb1461073257806349b9a7af1461074557806349cea1621461074e5780634a08c7dd1461075957600080fd5b80631ff1292f116104855780633469336d1161043e5780633469336d146106c757806336be3538146106e75780633a03171c146106f05780633eceb63e146107025780633ed620a41461070b578063458f8f941461071e57600080fd5b80631ff1292f1461066857806321cccba21461067b578063277c19b01461068a57806329146555146106925780632b5615d2146106a557806330d172d5146106b457600080fd5b8063091075a9116104d7578063091075a9146105995780630c2330a5146105a157806310d60dc4146105aa578063123d1179146105d257806318c3b674146105db5780631959a002146105f857600080fd5b80630197d97214610514578063033d30fe1461053157806303e45a4b146105465780630420bace1461055f57806305ad39351461056e575b600080fd5b61051e62278d0081565b6040519081526020015b60405180910390f35b61054461053f366004614f5f565b610c08565b005b61054e610c61565b604051610528959493929190614fbb565b61051e6706f05b59d3b2000081565b61058161057c366004614feb565b610d4f565b6040516001600160a01b039091168152602001610528565b61051e610d87565b61051e61138881565b6105b2610dd7565b604080519485526020850193909352918301526060820152608001610528565b61051e60181981565b6016546105e89060ff1681565b6040519015158152602001610528565b61063b610606366004614f5f565b601760205260009081526040902080546001820154600283015460038401546004850154600590950154939492939192909186565b604080519687526020870195909552938501929092526060840152608083015260a082015260c001610528565b610544610676366004615025565b610e58565b61051e6714d1120d7b16000081565b61051e60c881565b600354610581906001600160a01b031681565b61051e67016345785d8a000081565b600654610581906001600160a01b031681565b61051e6106d5366004614f5f565b601f6020526000908152604090205481565b61051e61384081565b61051e6a52b7d2dcc80cd2e400000081565b61051e61a8c081565b610544610719366004615042565b611034565b61051e64e8d4a5100081565b6105446113f6565b600454610581906001600160a01b031681565b61051e60155481565b60165460ff166105e8565b61076c610767366004614feb565b61147f565b6040516105289493929190938452602084019290925260ff1660408301526001600160a01b0316606082015260800190565b61051e6114d4565b61051e60091981565b6105446107bd36600461506e565b6114e9565b61051e6107d0366004614f5f565b611942565b6105446119e7565b6107f06107eb366004614f5f565b6119f9565b604080519586526020860194909452928401919091526060830152608082015260a001610528565b61051e603281565b6007546008546009546108359260ff16919083565b60405161052893929190615087565b61084c611a9b565b604080519889526020890197909752958701949094526060860192909252608085015260a084015260c083015260e082015261010001610528565b610544610895366004614f5f565b611b2b565b600554610581906001600160a01b031681565b61051e601481565b6000546001600160a01b0316610581565b6105446108d4366004614f5f565b611ba3565b61051e600b5481565b61051e600f5481565b61051e69065a4da25d3016c0000081565b61051e605f81565b600254610581906001600160a01b031681565b61051e600c5481565b61051e60115481565b61054461093736600461506e565b611bac565b61051e6a05ca4ec2a79a7f6700000081565b61051e600e5481565b61051e611c83565b61051e61096d366004614f5f565b60186020526000908152604090205481565b61054461098d366004614f5f565b611c9d565b61051e6702c68af0bb14000081565b6105b26109af366004614f5f565b601c6020526000908152604090208054600182015460028301546003909301549192909184565b6105446109e436600461506e565b611ced565b6105b26109f7366004614f5f565b61218f565b61051e600d5481565b6014546105e89060ff1681565b61051e66b1a2bc2ec5000081565b61051e6a39e7139a8c08fa0600000081565b610544612246565b61051e610a483660046150a6565b601e60209081526000928352604080842090915290825290205481565b61051e60125481565b610544612489565b610a89610a84366004614f5f565b61258d565b6040516105289392919061511a565b610aab610aa6366004614f5f565b612831565b6040805195865260208601949094529284019190915260608301521515608082015260a001610528565b61051e6101f481565b610544610aec36600461518f565b6128fa565b61051e671bc16d674ec8000081565b610544612e13565b61051e600e1981565b610544612f72565b61051e61271081565b6105446132b1565b61051e61341e565b61051e610b40366004614f5f565b613509565b61051e610b53366004614f5f565b601d6020526000908152604090205481565b610544610b73366004614f5f565b613632565b610544613682565b61051e6201518081565b61051e600a5481565b6105b2610ba1366004614f5f565b613876565b610544610bb4366004614f5f565b613934565b61051e6103e881565b61051e60135481565b610bde610bd93660046151b1565b61396f565b6040516105289291906151e6565b61063b610bfa366004614f5f565b613b5e565b61051e60105481565b610c10613c54565b6001600160a01b038116610c3f5760405162461bcd60e51b8152600401610c369061525c565b60405180910390fd5b600380546001600160a01b0319166001600160a01b0392909216919091179055565b60075460085460095460ff9092169160008080856003811115610c8657610c86614f83565b03610ca857846000806000610c9961341e565b94509450945094509450610d48565b600854600090610cb8904261529b565b90506000806003886003811115610cd157610cd1614f83565b03610cea575062015180905066b1a2bc2ec50000610d27565b6002886003811115610cfe57610cfe614f83565b03610d17575061a8c090506702c68af0bb140000610d27565b5061384090506706f05b59d3b200005b81831015610d3e57610d39838361529b565b610d41565b60005b9450925050505b9091929394565b601a6020528160005260406000208181548110610d6b57600080fd5b6000918252602090912001546001600160a01b03169150829050565b600080610d9261341e565b90506ec097ce7bc90715b34b9f100000000081600d5469065a4da25d3016c00000610dbd91906152ae565b610dc791906152ae565b610dd191906152db565b91505090565b601054600d546000806a05ca4ec2a79a7f67000000610df78560016152ef565b610e0191906152ae565b915060006a05ca4ec2a79a7f67000000601054610e1e91906152ae565b600e54610e2b919061529b565b90506a05ca4ec2a79a7f67000000610e45826127106152ae565b610e4f91906152db565b91505090919293565b610e60613c54565b60145481151560ff909116151503610eb15760405162461bcd60e51b8152602060048201526014602482015273416c726561647920696e2074686973206d6f646560601b6044820152606401610c36565b80610f9a576005546001600160a01b0316610f215760405162461bcd60e51b815260206004820152602a60248201527f4d75737420736574206f7261636c65206265666f72652064697361626c696e676044820152692074657374206d6f646560b01b6064820152608401610c36565b60168054600160ff1991821617909155601480549091169055604051600081527f3aa6186db6afba61ec3731f16e23fdea8dfa0dfe10d7c05942d11fdb365db0319060200160405180910390a16040517f7b953117c0b198733758d75ae32e08fc7c05c91df4a53764487b88bb7309d1a690600090a150565b60165460ff1615610fed5760405162461bcd60e51b815260206004820152601e60248201527f54657374206d6f6465207065726d616e656e746c792064697361626c656400006044820152606401610c36565b6014805460ff191660019081179091556040519081527f3aa6186db6afba61ec3731f16e23fdea8dfa0dfe10d7c05942d11fdb365db0319060200160405180910390a15b50565b6000831180156110445750600082115b80156110505750600081115b61108d5760405162461bcd60e51b815260206004820152600e60248201526d496e76616c69642070726963657360901b6044820152606401610c36565b60145460ff161561128f576000546001600160a01b031633146110f25760405162461bcd60e51b815260206004820181905260248201527f54657374206d6f64653a206f6e6c79206f776e65722063616e207570646174656044820152606401610c36565b60155461110190610e106152ef565b4210156111645760405162461bcd60e51b815260206004820152602b60248201527f54657374206d6f64653a206d7573742077616974203120686f7572206265747760448201526a65656e207570646174657360a81b6064820152608401610c36565b601154156112355760006064603260115461117f91906152ae565b61118991906152db565b60115461119691906152ef565b90506000606460326011546111ab91906152ae565b6111b591906152db565b6011546111c2919061529b565b90508085101580156111d45750818511155b6112325760405162461bcd60e51b815260206004820152602960248201527f54657374206d6f64653a207072696365206368616e67652065786365656473206044820152680d4c09481b1a5b5a5d60ba1b6064820152608401610c36565b50505b6011839055601282905560138190554260155560408051848152602081018490529081018290527f15819dd2fd9f6418b142e798d08a18d0bf06ea368f4480b7b0d3f75bd966bc48906060015b60405180910390a1505050565b6005546001600160a01b03166112d85760405162461bcd60e51b815260206004820152600e60248201526d13dc9858db19481b9bdd081cd95d60921b6044820152606401610c36565b6005546004805460405163b3596f0760e01b81526001600160a01b0391821692810192909252600092169063b3596f0790602401602060405180830381865afa158015611329573d6000803e3d6000fd5b505050506040513d601f19601f8201168201806040525081019061134d9190615302565b90506000811161139f5760405162461bcd60e51b815260206004820152601d60248201527f4f7261636c652072657475726e656420696e76616c69642070726963650000006044820152606401610c36565b60118190556012839055601382905560408051828152602081018590529081018390527f15819dd2fd9f6418b142e798d08a18d0bf06ea368f4480b7b0d3f75bd966bc489060600160405180910390a1505b505050565b6113fe613c81565b3361140881613cab565b6001600160a01b03811660009081526017602052604090206002810154806114675760405162461bcd60e51b8152602060048201526012602482015271139bdd1a1a5b99c81d1bc81a185c9d995cdd60721b6044820152606401610c36565b6114718382614059565b50505061147d60018055565b565b6019602052816000526040600020818154811061149b57600080fd5b600091825260209091206003909102018054600182015460029092015490935090915060ff81169061010090046001600160a01b031684565b60006114e460115460125461427e565b905090565b6114f1613c81565b60035460405163331f5dcf60e01b815260048101839052339182916001600160a01b039091169063331f5dcf90602401602060405180830381865afa15801561153e573d6000803e3d6000fd5b505050506040513d601f19601f82011682018060405250810190611562919061531b565b6001600160a01b0316146115885760405162461bcd60e51b8152600401610c3690615338565b6001600160a01b0381166000908152601f6020526040902054806115ee5760405162461bcd60e51b815260206004820152601b60248201527f4e6f2070656e64696e6720726566657272616c207265776172647300000000006044820152606401610c36565b600e5481906a39e7139a8c08fa060000009061160b9083906152ef565b111561166657600e546a39e7139a8c08fa060000001161162c576000611644565b600e54611644906a39e7139a8c08fa0600000061529b565b9050600081116116665760405162461bcd60e51b8152600401610c3690615360565b6001600160a01b0383166000908152601f60205260408120805483929061168e90849061529b565b90915550506001600160a01b0383166000908152601d6020526040812080548392906116bb9084906152ef565b9250508190555080600e60008282546116d491906152ef565b9091555050600480546040516340c10f1960e01b81526001600160a01b03909116916340c10f199161170a91309186910161538c565b600060405180830381600087803b15801561172457600080fd5b505af1158015611738573d6000803e3d6000fd5b50506005546004805460405163b3596f0760e01b81526001600160a01b039182169281019290925260009450909116915063b3596f0790602401602060405180830381865afa15801561178f573d6000803e3d6000fd5b505050506040513d601f19601f820116820180604052508101906117b39190615302565b9050600081116117d55760405162461bcd60e51b8152600401610c36906153a5565b6000670de0b6b3a76400006117ea83856152ae565b6117f491906152db565b90506000606461180583606e6152ae565b61180f91906152db565b6004805460405163a9059cbb60e01b81529293506001600160a01b03169163a9059cbb916118439161dead9189910161538c565b6020604051808303816000875af1158015611862573d6000803e3d6000fd5b505050506040513d601f19601f8201168201806040525081019061188691906153d3565b50600354604051631a08c36160e11b815260048101899052602481018390526001600160a01b039091169063341186c290604401600060405180830381600087803b1580156118d457600080fd5b505af11580156118e8573d6000803e3d6000fd5b505060408051878152602081018590528a93506001600160a01b038a1692507f5b78e4bad5dfb68d5e204e37811f490d3b6102723a3b22c6073e255b21e2c3f691015b60405180910390a350505050505061103160018055565b6001600160a01b0381166000908152601f6020908152604080832054601a909252822090915b81548110156119e0576000828281548110611985576119856153f0565b60009182526020822001546001600160a01b031691506119a482613509565b90506127106119b56103e8836152ae565b6119bf91906152db565b6119c990866152ef565b9450505080806119d890615406565b915050611968565b5050919050565b6119ef613c54565b61147d6000614378565b6001600160a01b038116600090815260176020526040812080549190819081908190611a2487613509565b9450806004015493508060050154925060008160030154118015611a4c575060008160040154115b15611a91576000816003015442611a63919061529b565b905062278d008110611a8a5781600501548260040154611a83919061529b565b9250611a8f565b600092505b505b5091939590929450565b600e54600d546a39e7139a8c08fa0600000090600080808080611abc61341e565b600c549095509350611adb6201518069065a4da25d3016c000006152db565b92506ec097ce7bc90715b34b9f100000000085600d5469065a4da25d3016c00000611b0691906152ae565b611b1091906152ae565b611b1a91906152db565b915060105490509091929394959697565b611b33613c54565b6001600160a01b038116611b595760405162461bcd60e51b8152600401610c369061525c565b600580546001600160a01b0319166001600160a01b0383169081179091556040517f6536690106168bdf4ba72c128a053d817999b1db90cae23f139b293bf862cb7590600090a250565b61103181613cab565b611bb4613c81565b33611bbe81613cab565b6001600160a01b0381166000908152601760205260409020600281015483611c1d5760405162461bcd60e51b81526020600482015260126024820152710416d6f756e74206d757374206265203e20360741b6044820152606401610c36565b80841115611c6d5760405162461bcd60e51b815260206004820152601b60248201527f416d6f756e7420657863656564732070656e64696e67207649565900000000006044820152606401610c36565b611c778385614059565b50505061103160018055565b611c9a6201518069065a4da25d3016c000006152db565b81565b611ca5613c54565b6001600160a01b038116611ccb5760405162461bcd60e51b8152600401610c369061525c565b600680546001600160a01b0319166001600160a01b0392909216919091179055565b611cf5613c81565b60035460405163331f5dcf60e01b81526004810183905233916001600160a01b03169063331f5dcf90602401602060405180830381865afa158015611d3e573d6000803e3d6000fd5b505050506040513d601f19601f82011682018060405250810190611d62919061531b565b6001600160a01b031614611d885760405162461bcd60e51b8152600401610c3690615338565b611d906132b1565b3360009081526017602052604081206001810154600a54825492939264e8d4a5100091611dbc916152ae565b611dc691906152db565b611dd0919061529b565b90506000826002015482611de491906152ef565b905060008111611e2b5760405162461bcd60e51b81526020600482015260126024820152714e6f2070656e64696e67207265776172647360701b6044820152606401610c36565b600a54835464e8d4a5100091611e40916152ae565b611e4a91906152db565b600184015560006002840155600e546a39e7139a8c08fa0600000090611e719083906152ef565b1115611f0857600e546a39e7139a8c08fa0600000011611e92576000611eaa565b600e54611eaa906a39e7139a8c08fa0600000061529b565b905060008111611f085760405162461bcd60e51b815260206004820152602360248201527f4d696e696e672063617020726561636865642c2063616e6e6f7420636f6d706f6044820152621d5b9960ea1b6064820152608401610c36565b80600e6000828254611f1a91906152ef565b9091555050600480546040516340c10f1960e01b81526001600160a01b03909116916340c10f1991611f5091309186910161538c565b600060405180830381600087803b158015611f6a57600080fd5b505af1158015611f7e573d6000803e3d6000fd5b5050336000908152601d602052604081208054859450909250611fa29084906152ef565b90915550506005546004805460405163b3596f0760e01b81526001600160a01b0391821692810192909252600092169063b3596f0790602401602060405180830381865afa158015611ff8573d6000803e3d6000fd5b505050506040513d601f19601f8201168201806040525081019061201c9190615302565b90506000811161203e5760405162461bcd60e51b8152600401610c36906153a5565b6000670de0b6b3a764000061205383856152ae565b61205d91906152db565b90506000606461206e83606e6152ae565b61207891906152db565b6004805460405163a9059cbb60e01b81529293506001600160a01b03169163a9059cbb916120ac9161dead9189910161538c565b6020604051808303816000875af11580156120cb573d6000803e3d6000fd5b505050506040513d601f19601f820116820180604052508101906120ef91906153d3565b50600354604051631a08c36160e11b815260048101899052602481018390526001600160a01b039091169063341186c290604401600060405180830381600087803b15801561213d57600080fd5b505af1158015612151573d6000803e3d6000fd5b505060408051878152602081018590528a93503392507fa78b9a656c956dc5f492315beb888731d0142b384ffc2b15834ea73d69fb76bb910161192b565b6002546000908190819081906001600160a01b03166121b95750600092508291508190508061223f565b506001600160a01b0384166000908152601a6020908152604080832054601c83529281902081516080810183528154815260018201549381019390935260028101549183019190915260030154606082018190521561222a578051602082015160408301519196509450925061223d565b6122358660006143c8565b919650945092505b505b9193509193565b61224e613c81565b336000818152601760205260409020600481015461229f5760405162461bcd60e51b815260206004820152600e60248201526d139bdd1a1a5b99c81d995cdd195960921b6044820152606401610c36565b60008160030154116122e95760405162461bcd60e51b815260206004820152601360248201527215995cdd1a5b99c81b9bdd081cdd185c9d1959606a1b6044820152606401610c36565b60008160030154426122fb919061529b565b905062278d008110156123505760405162461bcd60e51b815260206004820181905260248201527f56657374696e6720706572696f64206e6f7420636f6d706c65746564207965746044820152606401610c36565b600082600501548360040154612366919061529b565b9050600081116123ab5760405162461bcd60e51b815260206004820152601060248201526f4e6f7468696e6720746f20636c61696d60801b6044820152606401610c36565b808360050160008282546123bf91906152ef565b90915550506004805460405163a9059cbb60e01b81526001600160a01b039091169163a9059cbb916123f591889186910161538c565b6020604051808303816000875af1158015612414573d6000803e3d6000fd5b505050506040513d601f19601f8201168201806040525081019061243891906153d3565b50836001600160a01b03167f9fe9b7be9d151c7a8b6de49a1312ff27a15096d0d1d12999af85fe4310e0b1258260405161247491815260200190565b60405180910390a25050505061147d60018055565b612491613c54565b6013541561147d5760006013546011546124ab919061541f565b905060006013548260646124bf9190615446565b6124c99190615476565b9050600060181982136124de575060036124fc565b600e1982136124ef575060026124fc565b60091982136124fc575060015b60075460ff16600381111561251357612513614f83565b81600381111561252557612525614f83565b11156113f1576007805482919060ff1916600183600381111561254a5761254a614f83565b021790555042600881905560115460098190556040517f4fa52a45d7e5a216674f536c9e84f867dce6e9a6c6b5fe88f640855bf922568192611282928592615087565b6060806060601a6000856001600160a01b03166001600160a01b0316815260200190815260200160002080548060200260200160405190810160405280929190818152602001828054801561260b57602002820191906000526020600020905b81546001600160a01b031681526001909101906020018083116125ed575b50508351939650839250505067ffffffffffffffff81111561262f5761262f6154a4565b604051908082528060200260200182016040528015612658578160200160208202803683370190505b5092508067ffffffffffffffff811115612674576126746154a4565b60405190808252806020026020018201604052801561269d578160200160208202803683370190505b50915060005b818110156128285760008582815181106126bf576126bf6153f0565b6020026020010151905060176000826001600160a01b03166001600160a01b0316815260200190815260200160002060000154858381518110612704576127046153f0565b6020908102919091018101919091526001600160a01b0388166000908152601990915260408120815b81548110156127f257836001600160a01b0316828281548110612752576127526153f0565b600091825260209091206003909102016002015461010090046001600160a01b03161480156127a9575081818154811061278e5761278e6153f0565b600091825260209091206002600390920201015460ff166001145b156127e0578181815481106127c0576127c06153f0565b906000526020600020906003020160010154836127dd91906152ef565b92505b806127ea81615406565b91505061272d565b5081868581518110612806576128066153f0565b602002602001018181525050505050808061282090615406565b9150506126a3565b50509193909250565b6001600160a01b038082166000908152601a6020908152604080832054601883528184205460199093529083205460025491949091849116156128f1576002546040516370a0823160e01b81526001600160a01b03888116600483015260009216906370a0823190602401602060405180830381865afa1580156128b9573d6000803e3d6000fd5b505050506040513d601f19601f820116820180604052508101906128dd9190615302565b1190506128eb8660006143c8565b50909450505b91939590929450565b612902613c81565b60035460405163331f5dcf60e01b81526004810184905233916001600160a01b03169063331f5dcf90602401602060405180830381865afa15801561294b573d6000803e3d6000fd5b505050506040513d601f19601f8201168201806040525081019061296f919061531b565b6001600160a01b0316146129955760405162461bcd60e51b8152600401610c3690615338565b600081116129da5760405162461bcd60e51b81526020600482015260126024820152710416d6f756e74206d757374206265203e20360741b6044820152606401610c36565b6129e26132b1565b336000908152601760205260408120600a54815491929164e8d4a5100091612a09916152ae565b612a1391906152db565b905060008260010154821115612a35576001830154612a32908361529b565b90505b6000836002015482612a4791906152ef565b905080851115612a995760405162461bcd60e51b815260206004820152601960248201527f496e73756666696369656e7420764956592062616c616e6365000000000000006044820152606401610c36565b83600201548511612ac35784846002016000828254612ab8919061529b565b90915550612afc9050565b6000846002015486612ad5919061529b565b90506000856002018190555080856001016000828254612af591906152ef565b9091555050505b600e5485906a39e7139a8c08fa0600000090612b199083906152ef565b1115612b7457600e546a39e7139a8c08fa0600000011612b3a576000612b52565b600e54612b52906a39e7139a8c08fa0600000061529b565b905060008111612b745760405162461bcd60e51b8152600401610c3690615360565b80600e6000828254612b8691906152ef565b9091555050600480546040516340c10f1960e01b81526001600160a01b03909116916340c10f1991612bbc91309186910161538c565b600060405180830381600087803b158015612bd657600080fd5b505af1158015612bea573d6000803e3d6000fd5b5050336000908152601d602052604081208054859450909250612c0e9084906152ef565b90915550506005546004805460405163b3596f0760e01b81526001600160a01b0391821692810192909252600092169063b3596f0790602401602060405180830381865afa158015612c64573d6000803e3d6000fd5b505050506040513d601f19601f82011682018060405250810190612c889190615302565b905060008111612caa5760405162461bcd60e51b8152600401610c36906153a5565b6000670de0b6b3a7640000612cbf83856152ae565b612cc991906152db565b905060006064612cda83606e6152ae565b612ce491906152db565b6004805460405163a9059cbb60e01b81529293506001600160a01b03169163a9059cbb91612d189161dead9189910161538c565b6020604051808303816000875af1158015612d37573d6000803e3d6000fd5b505050506040513d601f19601f82011682018060405250810190612d5b91906153d3565b50600354604051631a08c36160e11b8152600481018c9052602481018390526001600160a01b039091169063341186c290604401600060405180830381600087803b158015612da957600080fd5b505af1158015612dbd573d6000803e3d6000fd5b505060408051878152602081018590528d93503392507fa78b9a656c956dc5f492315beb888731d0142b384ffc2b15834ea73d69fb76bb910160405180910390a35050505050505050612e0f60018055565b5050565b612e1b613c54565b600060075460ff166003811115612e3457612e34614f83565b03612e765760405162461bcd60e51b8152602060048201526012602482015271427265616b6572206e6f742061637469766560701b6044820152606401610c36565b600854600090612e86904261529b565b90506000600360075460ff166003811115612ea357612ea3614f83565b03612eb2575062015180612ede565b600260075460ff166003811115612ecb57612ecb614f83565b03612ed9575061a8c0612ede565b506138405b80821015612f265760405162461bcd60e51b8152602060048201526015602482015274436f6f6c646f776e206e6f7420636f6d706c65746560581b6044820152606401610c36565b6007805460ff1981169091556000600881905560095560405160ff909116907f07130c8b39a90581223fe2d149b6458e7d26925c0ea5c3156721b96e564c3659906112829083906154ba565b612f7a613c81565b336000818152601f602052604090205480612fd75760405162461bcd60e51b815260206004820152601b60248201527f4e6f2070656e64696e6720726566657272616c207265776172647300000000006044820152606401610c36565b6a39e7139a8c08fa06000000600e54106130035760405162461bcd60e51b8152600401610c3690615360565b806000603260c86130186101f46103e86152ef565b61302291906152ef565b61302c91906152ef565b9050600061271061303d83856152ae565b61304791906152db565b9050600061305582856152ef565b90506a39e7139a8c08fa0600000081600e5461307191906152ef565b11156130ba576000600e546a39e7139a8c08fa06000000613092919061529b565b90506130a0846127106152ef565b6130ac612710836152ae565b6130b691906152db565b9450505b6001600160a01b0386166000908152601f6020526040812080548692906130e290849061529b565b90915550506001600160a01b0386166000908152601d60205260408120805486929061310f9084906152ef565b90915550506001600160a01b0386166000908152601760205260408120600481018054919287926131419084906152ef565b90915550506003810154600003613159574260038201555b84600e600082825461316b91906152ef565b9091555050600480546040516340c10f1960e01b81526001600160a01b03909116916340c10f19916131a19130918a910161538c565b600060405180830381600087803b1580156131bb57600080fd5b505af11580156131cf573d6000803e3d6000fd5b505050506131db614526565b6001600160a01b03878116600090815260196020908152604080832081516080810183524281528084018b815292810185815260608201868152835460018082018655948852959096209151600390950290910193845591519083015551600290910180549251909316610100026001600160a81b031990921660ff90911617179055866001600160a01b03167fc3705e0fa4a3b6c54764a242ccc26d720a8109cdda17f150d7f6e6c3c57265e28660405161329991815260200190565b60405180910390a25050505050505061147d60018055565b600b5442116132bc57565b600c546000036132cc5742600b55565b6000600b54426132dc919061529b565b905060006132e861341e565b905060006ec097ce7bc90715b34b9f100000000082600d546201518069065a4da25d3016c0000061331991906152db565b61332390876152ae565b61332d91906152ae565b61333791906152ae565b61334191906152db565b90506a39e7139a8c08fa0600000081600e5461335d91906152ef565b111561339957600e546a39e7139a8c08fa060000001161337e576000613396565b600e54613396906a39e7139a8c08fa0600000061529b565b90505b80156133d257600c546133b164e8d4a51000836152ae565b6133bb91906152db565b600a60008282546133cc91906152ef565b90915550505b42600b819055600a54600c54604080519283526020830193909352918101919091527f17b8644f386d1c7c7138ef98b3c8035622bbe94d7be9b26f71d2654a547c294390606001611282565b60008060075460ff16600381111561343857613438614f83565b146134fb5760085460009061344d904261529b565b9050600360075460ff16600381111561346857613468614f83565b0361348b57620151808110156134865766b1a2bc2ec5000091505090565b6134f9565b600260075460ff1660038111156134a4576134a4614f83565b036134c25761a8c0811015613486576702c68af0bb14000091505090565b600160075460ff1660038111156134db576134db614f83565b036134f9576138408110156134f9576706f05b59d3b2000091505090565b505b6114e460115460125461427e565b6001600160a01b0381166000908152601760205260408120600a54600b544211801561353757506000600c54115b156135e0576000600b544261354c919061529b565b9050600061355861341e565b905060006ec097ce7bc90715b34b9f100000000082600d546201518069065a4da25d3016c0000061358991906152db565b61359390876152ae565b61359d91906152ae565b6135a791906152ae565b6135b191906152db565b600c549091506135c664e8d4a51000836152ae565b6135d091906152db565b6135da90856152ef565b93505050505b81546000901561361a576001830154835464e8d4a51000906136039085906152ae565b61360d91906152db565b613617919061529b565b90505b600283015461362990826152ef565b95945050505050565b61363a613c54565b6001600160a01b0381166136605760405162461bcd60e51b8152600401610c369061525c565b600280546001600160a01b0319166001600160a01b0392909216919091179055565b61368a613c81565b33600081815260176020526040902060058101546004820154116136e65760405162461bcd60e51b8152602060048201526013602482015272139bdd1a1a5b99c81d1bc818d85cda081bdd5d606a1b6044820152606401610c36565b6000816005015482600401546136fc919061529b565b9050600061271061370f611388846152ae565b61371991906152db565b90506000613727828461529b565b6004808601546005870155805460405163a9059cbb60e01b81529293506001600160a01b03169163a9059cbb9161376291899186910161538c565b6020604051808303816000875af1158015613781573d6000803e3d6000fd5b505050506040513d601f19601f820116820180604052508101906137a591906153d3565b508115613824576004805460405163a9059cbb60e01b81526001600160a01b039091169163a9059cbb916137df9161dead9187910161538c565b6020604051808303816000875af11580156137fe573d6000803e3d6000fd5b505050506040513d601f19601f8201168201806040525081019061382291906153d3565b505b60408051828152602081018490526001600160a01b038716917f92207ec016968e0ee608b41c92470ff10e9f810a8dec5f40901974ac75ed498e910160405180910390a2505050505061147d60018055565b604051632bf3a23b60e21b81526001600160a01b0382166004820152600090819081908190819081908190309063afce88ec90602401608060405180830381865afa1580156138c9573d6000803e3d6000fd5b505050506040513d601f19601f820116820180604052508101906138ed91906154c8565b5092509250925060009650819550600083111561392a5782613911612710836152ae565b61391b91906152db565b945061392783836152db565b93505b5050509193509193565b61393c613c54565b6001600160a01b03811661396657604051631e4fbdf760e01b815260006004820152602401610c36565b61103181614378565b6001600160a01b0383166000908152601960205260409020546060908084106139e45760408051600080825260208201909252906139dc565b6040805160808101825260008082526020808301829052928201819052606082015282526000199092019101816139a85790505b509150613b56565b60006139f084866152ef565b9050818111156139fd5750805b6000613a09868361529b565b90508067ffffffffffffffff811115613a2457613a246154a4565b604051908082528060200260200182016040528015613a7657816020015b604080516080810182526000808252602080830182905292820181905260608201528252600019909201910181613a425790505b50935060005b81811015613b52576001600160a01b03881660009081526019602052604090208188613aa960018861529b565b613ab3919061529b565b613abd919061529b565b81548110613acd57613acd6153f0565b6000918252602091829020604080516080810182526003939093029091018054835260018101549383019390935260029092015460ff8116928201929092526101009091046001600160a01b031660608201528551869083908110613b3457613b346153f0565b60200260200101819052508080613b4a90615406565b915050613a7c565b5050505b935093915050565b6001600160a01b038116600090815260176020526040812060048101546005820154600383015491939092819081908415801590613ba0575060008160040154115b15613c4a576000816003015442613bb7919061529b565b9050600062278d008210613bd5575060048201546127109350613c12565b62278d00828460040154613be991906152ae565b613bf391906152db565b905062278d00613c05836127106152ae565b613c0f91906152db565b93505b82600501548111613c24576000613c33565b6005830154613c33908261529b565b9550808360040154613c45919061529b565b945050505b5091939550919395565b6000546001600160a01b0316331461147d5760405163118cdaa760e01b8152336004820152602401610c36565b600260015403613ca457604051633ee5aeb560e01b815260040160405180910390fd5b6002600155565b613cb36132b1565b6001600160a01b038082166000908152601760205260408120600354909282911615613dba57600354604051632c5bf31360e11b81526001600160a01b038681166004830152909116906358b7e62690602401602060405180830381865afa158015613d23573d6000803e3d6000fd5b505050506040513d601f19601f82011682018060405250810190613d479190615302565b600354604051630558114d60e51b81526001600160a01b03878116600483015292945091169063ab0229a090602401602060405180830381865afa158015613d93573d6000803e3d6000fd5b505050506040513d601f19601f82011682018060405250810190613db79190615302565b90505b6000828211613dca576000613dd4565b613dd4838361529b565b6002549091506000906001600160a01b031615613e5c576002546040516304d1334f60e01b81526001600160a01b038881166004830152909116906304d1334f90602401602060405180830381865afa158015613e35573d6000803e3d6000fd5b505050506040513d601f19601f82011682018060405250810190613e599190615302565b90505b6000612710613e6b83826152ef565b613e7590876152ae565b613e7f91906152db565b90506000613e8d84836152ef565b8754909150158015613e9f5750600081115b8015613eb557506002546001600160a01b031615155b15613f4657600254604051634a9fefc760e01b81526001600160a01b038a811660048301526000921690634a9fefc790602401602060405180830381865afa158015613f05573d6000803e3d6000fd5b505050506040513d601f19601f82011682018060405250810190613f29919061531b565b90506001600160a01b03811615613f4457613f44818a6145ec565b505b865415613fae576000876001015464e8d4a51000600a548a60000154613f6c91906152ae565b613f7691906152db565b613f80919061529b565b90508015613fac5780886002016000828254613f9c91906152ef565b90915550613fac9050898261467b565b505b8654600c548291613fbe9161529b565b613fc891906152ef565b600c558654818855600a5464e8d4a5100090613fe490846152ae565b613fee91906152db565b6001890155613ffe898284614c8b565b886001600160a01b03167fdfc331ca16b8c4320a402867e832423d16ad3de953e474a499baf3697aa9e894838a60010154604051614046929190918252602082015260400190565b60405180910390a2505050505050505050565b6001600160a01b0382166000908152601760205260409020600e546a39e7139a8c08fa060000001161409d5760405162461bcd60e51b8152600401610c3690615360565b600e5482906a39e7139a8c08fa06000000906140ba9083906152ef565b11156140fa57600e546140d8906a39e7139a8c08fa0600000061529b565b9050600081116140fa5760405162461bcd60e51b8152600401610c3690615360565b8282600201600082825461410e919061529b565b925050819055508082600401600082825461412991906152ef565b90915550506003820154600003614141574260038301555b6001600160a01b0384166000908152601d6020526040812080548392906141699084906152ef565b9250508190555080600e600082825461418291906152ef565b9091555050600480546040516340c10f1960e01b81526001600160a01b03909116916340c10f19916141b891309186910161538c565b600060405180830381600087803b1580156141d257600080fd5b505af11580156141e6573d6000803e3d6000fd5b505050506141f2614526565b836001600160a01b03167fbc8fb63d817de4fabea2108e9b7eefca87245899f4b357636c26b5cad02ec5b48260405161422d91815260200190565b60405180910390a2604080518281524260208201526001600160a01b038616917f8fe19f160f86d04fb1a90dde93e5e1a47df0810685adf4b990153c107d7b3924910160405180910390a250505050565b6000662386f26fc10000683635c9adc5dea000008185108061429f57508085115b156142b657670de0b6b3a764000092505050614372565b818410806142c357508084115b156142da57670de0b6b3a764000092505050614372565b836000036142f457670de0b6b3a764000092505050614372565b60008461430987670de0b6b3a76400006152ae565b61431391906152db565b90506000670de0b6b3a764000061432a83806152ae565b61433491906152db565b90506714d1120d7b16000081111561435157506714d1120d7b1600005b67016345785d8a000081101561436c575067016345785d8a00005b93505050505b92915050565b600080546001600160a01b038381166001600160a01b0319831681178455604051919092169283917f8be0079c531659141344cd1fd0a4f28419497f9722a3daafe3b4186f6b6457e09190a35050565b6000806000601484106143e35750600091508190508061451f565b6001600160a01b0385166000908152601a602090815260408083208054825181850281018501909352808352919290919083018282801561444d57602002820191906000526020600020905b81546001600160a01b0316815260019091019060200180831161442f575b505050505090508051935060005b815181101561451c576000828281518110614478576144786153f0565b6020908102919091018101516001600160a01b038116600090815260179092526040909120549091506144ab81876152ef565b955080156144c157846144bd81615406565b9550505b600080806144d9856144d48d60016152ef565b6143c8565b919450925090506144ea838b6152ef565b99506144f6828a6152ef565b985061450281896152ef565b97505050505050808061451490615406565b91505061445b565b50505b9250925092565b6a05ca4ec2a79a7f67000000601054600161454191906152ef565b61454b91906152ae565b600e541061147d576064605f600d5461456491906152ae565b61456e91906152db565b600d556010805490600061458183615406565b91905055506a05ca4ec2a79a7f6700000060105461459f91906152ae565b600f55600d54600e546040517fde141711fef892cdaea55f1f6a85e241382fcefc69efdb496eff235992a18ed4926145df92908252602082015260400190565b60405180910390a1614526565b6001600160a01b038083166000908152601b602090815260408083209385168352929052205460ff16612e0f576001600160a01b039182166000818152601a602090815260408083208054600180820183559185528385200180546001600160a01b03191696909716958617909655928252601b8152828220938252929092529020805460ff19169091179055565b6002546001600160a01b031661468f575050565b600254604051634a9fefc760e01b81526001600160a01b0384811660048301526000921690634a9fefc790602401602060405180830381865afa1580156146da573d6000803e3d6000fd5b505050506040513d601f19601f820116820180604052508101906146fe919061531b565b90506001600160a01b03811661471357505050565b60006127106147246103e8856152ae565b61472e91906152db565b905080156147c8576001600160a01b0382166000908152601f60205260408120805483929061475e9084906152ef565b90915550506001600160a01b0382166000908152601860205260408120805483929061478b9084906152ef565b909155505060408051828152600160208201526001600160a01b03808716929085169160008051602061551b833981519152910160405180910390a35b600254604051634a9fefc760e01b81526001600160a01b0384811660048301526000921690634a9fefc790602401602060405180830381865afa158015614813573d6000803e3d6000fd5b505050506040513d601f19601f82011682018060405250810190614837919061531b565b90506001600160a01b038116156148ff5760006127106148596101f4876152ae565b61486391906152db565b905080156148fd576001600160a01b0382166000908152601f6020526040812080548392906148939084906152ef565b90915550506001600160a01b038216600090815260186020526040812080548392906148c09084906152ef565b909155505060408051828152600260208201526001600160a01b03808916929085169160008051602061551b833981519152910160405180910390a35b505b8260005b6001600160a01b0382161580159061491b5750601481105b15614c82576002546040516370a0823160e01b81526001600160a01b03848116600483015260009216906370a0823190602401602060405180830381865afa15801561496b573d6000803e3d6000fd5b505050506040513d601f19601f8201168201806040525081019061498f9190615302565b1115614c005760006127106149a560c8896152ae565b6149af91906152db565b90508015614bfa576001600160a01b0383166000908152601f6020526040812080548392906149df9084906152ef565b90915550506001600160a01b03831660009081526018602052604081208054839290614a0c9084906152ef565b909155505060408051828152600360208201526001600160a01b03808b16929086169160008051602061551b833981519152910160405180910390a3600254604051634a9fefc760e01b81526001600160a01b0385811660048301526000921690634a9fefc790602401602060405180830381865afa158015614a93573d6000803e3d6000fd5b505050506040513d601f19601f82011682018060405250810190614ab7919061531b565b90506001600160a01b03811615801590614b3d57506002546040516370a0823160e01b81526001600160a01b03838116600483015260009216906370a0823190602401602060405180830381865afa158015614b17573d6000803e3d6000fd5b505050506040513d601f19601f82011682018060405250810190614b3b9190615302565b115b15614bf8576000612710614b5260328b6152ae565b614b5c91906152db565b90508015614bf6576001600160a01b0382166000908152601f602052604081208054839290614b8c9084906152ef565b90915550506001600160a01b03821660009081526018602052604081208054839290614bb99084906152ef565b909155505060408051828152600460208201526001600160a01b03808d16929085169160008051602061551b833981519152910160405180910390a35b505b505b50614c82565b600254604051634a9fefc760e01b81526001600160a01b03848116600483015290911690634a9fefc790602401602060405180830381865afa158015614c4a573d6000803e3d6000fd5b505050506040513d601f19601f82011682018060405250810190614c6e919061531b565b915080614c7a81615406565b915050614903565b50505050505050565b6002546001600160a01b0316614ca057505050565b600254604051634a9fefc760e01b81526001600160a01b0385811660048301526000921690634a9fefc790602401602060405180830381865afa158015614ceb573d6000803e3d6000fd5b505050506040513d601f19601f82011682018060405250810190614d0f919061531b565b905060008084158015614d225750600084115b905060008086118015614d33575084155b90506000614d41878761541f565b90505b6001600160a01b03851615801590614d5c5750601484105b15614f40576001600160a01b0385166000908152601c602052604090208315614dbb576001816000016000828254614d9491906152ef565b925050819055506001816002016000828254614db091906152ef565b90915550614e459050565b8215614de557600281015415614de0576001816002016000828254614db0919061529b565b614e45565b87158015614df35750600087115b15614e0d576001816002016000828254614db091906152ef565b600088118015614e1b575086155b15614e4557600281015415614e45576001816002016000828254614e3f919061529b565b90915550505b6000821315614e6d5781816001016000828254614e6291906152ef565b90915550614eb79050565b6000821215614eb7576000614e81836154fe565b905080826001015410614ead5780826001016000828254614ea2919061529b565b90915550614eb59050565b600060018301555b505b426003820155600254604051634a9fefc760e01b81526001600160a01b03888116600483015290911690634a9fefc790602401602060405180830381865afa158015614f07573d6000803e3d6000fd5b505050506040513d601f19601f82011682018060405250810190614f2b919061531b565b955084614f3781615406565b95505050614d44565b5050505050505050565b6001600160a01b038116811461103157600080fd5b600060208284031215614f7157600080fd5b8135614f7c81614f4a565b9392505050565b634e487b7160e01b600052602160045260246000fd5b60048110614fb757634e487b7160e01b600052602160045260246000fd5b9052565b60a08101614fc98288614f99565b8560208301528460408301528360608301528260808301529695505050505050565b60008060408385031215614ffe57600080fd5b823561500981614f4a565b946020939093013593505050565b801515811461103157600080fd5b60006020828403121561503757600080fd5b8135614f7c81615017565b60008060006060848603121561505757600080fd5b505081359360208301359350604090920135919050565b60006020828403121561508057600080fd5b5035919050565b606081016150958286614f99565b602082019390935260400152919050565b600080604083850312156150b957600080fd5b82356150c481614f4a565b915060208301356150d481614f4a565b809150509250929050565b600081518084526020808501945080840160005b8381101561510f578151875295820195908201906001016150f3565b509495945050505050565b606080825284519082018190526000906020906080840190828801845b8281101561515c5781516001600160a01b031684529284019290840190600101615137565b5050508381038285015261517081876150df565b915050828103604084015261518581856150df565b9695505050505050565b600080604083850312156151a257600080fd5b50508035926020909101359150565b6000806000606084860312156151c657600080fd5b83356151d181614f4a565b95602085013595506040909401359392505050565b6040808252835182820181905260009190606090818501906020808901865b838110156152485781518051865283810151848701528781015160ff16888701528601516001600160a01b03168686015260809094019390820190600101615205565b505095909501959095525092949350505050565b6020808252600f908201526e496e76616c6964206164647265737360881b604082015260600190565b634e487b7160e01b600052601160045260246000fd5b8181038181111561437257614372615285565b808202811582820484141761437257614372615285565b634e487b7160e01b600052601260045260246000fd5b6000826152ea576152ea6152c5565b500490565b8082018082111561437257614372615285565b60006020828403121561531457600080fd5b5051919050565b60006020828403121561532d57600080fd5b8151614f7c81614f4a565b6020808252600e908201526d2737ba103137b7321037bbb732b960911b604082015260600190565b602080825260129082015271135a5b9a5b99c818d85c081c995858da195960721b604082015260600190565b6001600160a01b03929092168252602082015260400190565b6020808252601490820152734f7261636c65207072696365206973207a65726f60601b604082015260600190565b6000602082840312156153e557600080fd5b8151614f7c81615017565b634e487b7160e01b600052603260045260246000fd5b60006001820161541857615418615285565b5060010190565b818103600083128015838313168383128216171561543f5761543f615285565b5092915050565b80820260008212600160ff1b8414161561546257615462615285565b818105831482151761437257614372615285565b600082615485576154856152c5565b600160ff1b82146000198414161561549f5761549f615285565b500590565b634e487b7160e01b600052604160045260246000fd5b602081016143728284614f99565b600080600080608085870312156154de57600080fd5b505082516020840151604085015160609095015191969095509092509050565b6000600160ff1b820161551357615513615285565b506000039056fe19226f61078c7410595a15960ea54541a2633e17bb0a067f5221c6c791cdbf44a26469706673582212200268a5f1c1265d57365f36c173971f89f934c6386e93bae2f9db06cc1e0a71e864736f6c63430008140033",
  "linkReferences": {},
  "deployedLinkReferences": {}
}