{
  "_format": "hh-sol-artifact-1",
  "contractName": "IvyCore",
  "sourceName": "contracts/IvyCore.sol",
  "abi": [
    {
      "inputs": [
        {
          "internalType": "address",
          "name": "_ivyToken",
          "type": "address"
        }
      ],
      "stateMutability": "nonpayable",
      "type": "constructor"
    },
    {
      "inputs": [
        {
          "internalType": "address",
          "name": "owner",
          "type": "address"
        }
      ],
      "name": "OwnableInvalidOwner",
      "type": "error"
    },
    {
      "inputs": [
        {
          "internalType": "address",
          "name": "account",
          "type": "address"
        }
      ],
      "name": "OwnableUnauthorizedAccount",
      "type": "error"
    },
    {
      "inputs": [],
      "name": "ReentrancyGuardReentrantCall",
      "type": "error"
    },
    {
      "anonymous": false,
      "inputs": [
        {
          "indexed": false,
          "internalType": "enum IvyCore.BreakerLevel",
          "name": "previousLevel",
          "type": "uint8"
        }
      ],
      "name": "CircuitBreakerReset",
      "type": "event"
    },
    {
      "anonymous": false,
      "inputs": [
        {
          "indexed": false,
          "internalType": "enum IvyCore.BreakerLevel",
          "name": "level",
          "type": "uint8"
        },
        {
          "indexed": false,
          "internalType": "uint256",
          "name": "activationTime",
          "type": "uint256"
        },
        {
          "indexed": false,
          "internalType": "uint256",
          "name": "activationPrice",
          "type": "uint256"
        }
      ],
      "name": "CircuitBreakerTriggered",
      "type": "event"
    },
    {
      "anonymous": false,
      "inputs": [
        {
          "indexed": false,
          "internalType": "uint256",
          "name": "newEmissionFactor",
          "type": "uint256"
        },
        {
          "indexed": false,
          "internalType": "uint256",
          "name": "totalMinted",
          "type": "uint256"
        }
      ],
      "name": "HalvingOccurred",
      "type": "event"
    },
    {
      "anonymous": false,
      "inputs": [
        {
          "indexed": true,
          "internalType": "address",
          "name": "user",
          "type": "address"
        },
        {
          "indexed": false,
          "internalType": "uint256",
          "name": "received",
          "type": "uint256"
        },
        {
          "indexed": false,
          "internalType": "uint256",
          "name": "burned",
          "type": "uint256"
        }
      ],
      "name": "InstantCashOut",
      "type": "event"
    },
    {
      "anonymous": false,
      "inputs": [
        {
          "indexed": true,
          "internalType": "address",
          "name": "previousOwner",
          "type": "address"
        },
        {
          "indexed": true,
          "internalType": "address",
          "name": "newOwner",
          "type": "address"
        }
      ],
      "name": "OwnershipTransferred",
      "type": "event"
    },
    {
      "anonymous": false,
      "inputs": [
        {
          "indexed": true,
          "internalType": "address",
          "name": "receiver",
          "type": "address"
        },
        {
          "indexed": true,
          "internalType": "address",
          "name": "capturer",
          "type": "address"
        },
        {
          "indexed": false,
          "internalType": "uint256",
          "name": "amount",
          "type": "uint256"
        }
      ],
      "name": "PeerBonusPaid",
      "type": "event"
    },
    {
      "anonymous": false,
      "inputs": [
        {
          "indexed": false,
          "internalType": "uint256",
          "name": "accIvyPerShare",
          "type": "uint256"
        },
        {
          "indexed": false,
          "internalType": "uint256",
          "name": "lastRewardTime",
          "type": "uint256"
        },
        {
          "indexed": false,
          "internalType": "uint256",
          "name": "totalPoolBondPower",
          "type": "uint256"
        }
      ],
      "name": "PoolUpdated",
      "type": "event"
    },
    {
      "anonymous": false,
      "inputs": [
        {
          "indexed": true,
          "internalType": "address",
          "name": "oracle",
          "type": "address"
        }
      ],
      "name": "PriceOracleSet",
      "type": "event"
    },
    {
      "anonymous": false,
      "inputs": [
        {
          "indexed": false,
          "internalType": "uint256",
          "name": "currentPrice",
          "type": "uint256"
        },
        {
          "indexed": false,
          "internalType": "uint256",
          "name": "ma30Price",
          "type": "uint256"
        },
        {
          "indexed": false,
          "internalType": "uint256",
          "name": "price1hAgo",
          "type": "uint256"
        }
      ],
      "name": "PriceUpdated",
      "type": "event"
    },
    {
      "anonymous": false,
      "inputs": [
        {
          "indexed": true,
          "internalType": "address",
          "name": "referrer",
          "type": "address"
        },
        {
          "indexed": true,
          "internalType": "address",
          "name": "from",
          "type": "address"
        },
        {
          "indexed": false,
          "internalType": "uint256",
          "name": "amount",
          "type": "uint256"
        },
        {
          "indexed": false,
          "internalType": "uint256",
          "name": "level",
          "type": "uint256"
        }
      ],
      "name": "ReferralRewardPaid",
      "type": "event"
    },
    {
      "anonymous": false,
      "inputs": [
        {
          "indexed": true,
          "internalType": "address",
          "name": "user",
          "type": "address"
        },
        {
          "indexed": false,
          "internalType": "uint256",
          "name": "amount",
          "type": "uint256"
        }
      ],
      "name": "RewardsHarvested",
      "type": "event"
    },
    {
      "anonymous": false,
      "inputs": [
        {
          "indexed": true,
          "internalType": "address",
          "name": "capturer",
          "type": "address"
        },
        {
          "indexed": true,
          "internalType": "address",
          "name": "blockedUpline",
          "type": "address"
        },
        {
          "indexed": false,
          "internalType": "uint256",
          "name": "amount",
          "type": "uint256"
        },
        {
          "indexed": false,
          "internalType": "uint256",
          "name": "depth",
          "type": "uint256"
        }
      ],
      "name": "TeamBonusCaptured",
      "type": "event"
    },
    {
      "anonymous": false,
      "inputs": [
        {
          "indexed": true,
          "internalType": "address",
          "name": "user",
          "type": "address"
        },
        {
          "indexed": false,
          "internalType": "uint256",
          "name": "bondPower",
          "type": "uint256"
        },
        {
          "indexed": false,
          "internalType": "uint256",
          "name": "rewardDebt",
          "type": "uint256"
        }
      ],
      "name": "UserSynced",
      "type": "event"
    },
    {
      "anonymous": false,
      "inputs": [
        {
          "indexed": true,
          "internalType": "address",
          "name": "user",
          "type": "address"
        },
        {
          "indexed": true,
          "internalType": "uint256",
          "name": "tokenId",
          "type": "uint256"
        },
        {
          "indexed": false,
          "internalType": "uint256",
          "name": "pendingIvy",
          "type": "uint256"
        },
        {
          "indexed": false,
          "internalType": "uint256",
          "name": "bonusPower",
          "type": "uint256"
        }
      ],
      "name": "VestedCompounded",
      "type": "event"
    },
    {
      "anonymous": false,
      "inputs": [
        {
          "indexed": true,
          "internalType": "address",
          "name": "user",
          "type": "address"
        },
        {
          "indexed": false,
          "internalType": "uint256",
          "name": "amount",
          "type": "uint256"
        }
      ],
      "name": "VestingClaimed",
      "type": "event"
    },
    {
      "anonymous": false,
      "inputs": [
        {
          "indexed": true,
          "internalType": "address",
          "name": "user",
          "type": "address"
        },
        {
          "indexed": false,
          "internalType": "uint256",
          "name": "amount",
          "type": "uint256"
        },
        {
          "indexed": false,
          "internalType": "uint256",
          "name": "startTime",
          "type": "uint256"
        }
      ],
      "name": "VestingStarted",
      "type": "event"
    },
    {
      "inputs": [],
      "name": "ACC_IVY_PRECISION",
      "outputs": [
        {
          "internalType": "uint256",
          "name": "",
          "type": "uint256"
        }
      ],
      "stateMutability": "view",
      "type": "function"
    },
    {
      "inputs": [],
      "name": "ALPHA_L1",
      "outputs": [
        {
          "internalType": "uint256",
          "name": "",
          "type": "uint256"
        }
      ],
      "stateMutability": "view",
      "type": "function"
    },
    {
      "inputs": [],
      "name": "ALPHA_L2",
      "outputs": [
        {
          "internalType": "uint256",
          "name": "",
          "type": "uint256"
        }
      ],
      "stateMutability": "view",
      "type": "function"
    },
    {
      "inputs": [],
      "name": "ALPHA_L3",
      "outputs": [
        {
          "internalType": "uint256",
          "name": "",
          "type": "uint256"
        }
      ],
      "stateMutability": "view",
      "type": "function"
    },
    {
      "inputs": [],
      "name": "BASE_DAILY_EMISSION",
      "outputs": [
        {
          "internalType": "uint256",
          "name": "",
          "type": "uint256"
        }
      ],
      "stateMutability": "view",
      "type": "function"
    },
    {
      "inputs": [],
      "name": "BASIS_POINTS",
      "outputs": [
        {
          "internalType": "uint256",
          "name": "",
          "type": "uint256"
        }
      ],
      "stateMutability": "view",
      "type": "function"
    },
    {
      "inputs": [],
      "name": "COOLDOWN_L1",
      "outputs": [
        {
          "internalType": "uint256",
          "name": "",
          "type": "uint256"
        }
      ],
      "stateMutability": "view",
      "type": "function"
    },
    {
      "inputs": [],
      "name": "COOLDOWN_L2",
      "outputs": [
        {
          "internalType": "uint256",
          "name": "",
          "type": "uint256"
        }
      ],
      "stateMutability": "view",
      "type": "function"
    },
    {
      "inputs": [],
      "name": "COOLDOWN_L3",
      "outputs": [
        {
          "internalType": "uint256",
          "name": "",
          "type": "uint256"
        }
      ],
      "stateMutability": "view",
      "type": "function"
    },
    {
      "inputs": [],
      "name": "DROP_L1",
      "outputs": [
        {
          "internalType": "int256",
          "name": "",
          "type": "int256"
        }
      ],
      "stateMutability": "view",
      "type": "function"
    },
    {
      "inputs": [],
      "name": "DROP_L2",
      "outputs": [
        {
          "internalType": "int256",
          "name": "",
          "type": "int256"
        }
      ],
      "stateMutability": "view",
      "type": "function"
    },
    {
      "inputs": [],
      "name": "DROP_L3",
      "outputs": [
        {
          "internalType": "int256",
          "name": "",
          "type": "int256"
        }
      ],
      "stateMutability": "view",
      "type": "function"
    },
    {
      "inputs": [],
      "name": "EMISSION_PER_SECOND",
      "outputs": [
        {
          "internalType": "uint256",
          "name": "",
          "type": "uint256"
        }
      ],
      "stateMutability": "view",
      "type": "function"
    },
    {
      "inputs": [],
      "name": "HALVING_DECAY",
      "outputs": [
        {
          "internalType": "uint256",
          "name": "",
          "type": "uint256"
        }
      ],
      "stateMutability": "view",
      "type": "function"
    },
    {
      "inputs": [],
      "name": "HALVING_THRESHOLD",
      "outputs": [
        {
          "internalType": "uint256",
          "name": "",
          "type": "uint256"
        }
      ],
      "stateMutability": "view",
      "type": "function"
    },
    {
      "inputs": [],
      "name": "HARD_CAP",
      "outputs": [
        {
          "internalType": "uint256",
          "name": "",
          "type": "uint256"
        }
      ],
      "stateMutability": "view",
      "type": "function"
    },
    {
      "inputs": [],
      "name": "INFINITE_RATE",
      "outputs": [
        {
          "internalType": "uint256",
          "name": "",
          "type": "uint256"
        }
      ],
      "stateMutability": "view",
      "type": "function"
    },
    {
      "inputs": [],
      "name": "INSTANT_CASH_PENALTY",
      "outputs": [
        {
          "internalType": "uint256",
          "name": "",
          "type": "uint256"
        }
      ],
      "stateMutability": "view",
      "type": "function"
    },
    {
      "inputs": [],
      "name": "L1_RATE",
      "outputs": [
        {
          "internalType": "uint256",
          "name": "",
          "type": "uint256"
        }
      ],
      "stateMutability": "view",
      "type": "function"
    },
    {
      "inputs": [],
      "name": "L2_RATE",
      "outputs": [
        {
          "internalType": "uint256",
          "name": "",
          "type": "uint256"
        }
      ],
      "stateMutability": "view",
      "type": "function"
    },
    {
      "inputs": [],
      "name": "MAX_REFERRAL_DEPTH",
      "outputs": [
        {
          "internalType": "uint256",
          "name": "",
          "type": "uint256"
        }
      ],
      "stateMutability": "view",
      "type": "function"
    },
    {
      "inputs": [],
      "name": "MINING_CAP",
      "outputs": [
        {
          "internalType": "uint256",
          "name": "",
          "type": "uint256"
        }
      ],
      "stateMutability": "view",
      "type": "function"
    },
    {
      "inputs": [],
      "name": "PEER_BONUS_RATE",
      "outputs": [
        {
          "internalType": "uint256",
          "name": "",
          "type": "uint256"
        }
      ],
      "stateMutability": "view",
      "type": "function"
    },
    {
      "inputs": [],
      "name": "PID_CAP",
      "outputs": [
        {
          "internalType": "uint256",
          "name": "",
          "type": "uint256"
        }
      ],
      "stateMutability": "view",
      "type": "function"
    },
    {
      "inputs": [],
      "name": "PID_FLOOR",
      "outputs": [
        {
          "internalType": "uint256",
          "name": "",
          "type": "uint256"
        }
      ],
      "stateMutability": "view",
      "type": "function"
    },
    {
      "inputs": [],
      "name": "PID_K",
      "outputs": [
        {
          "internalType": "uint256",
          "name": "",
          "type": "uint256"
        }
      ],
      "stateMutability": "view",
      "type": "function"
    },
    {
      "inputs": [],
      "name": "VESTING_PERIOD",
      "outputs": [
        {
          "internalType": "uint256",
          "name": "",
          "type": "uint256"
        }
      ],
      "stateMutability": "view",
      "type": "function"
    },
    {
      "inputs": [],
      "name": "accIvyPerShare",
      "outputs": [
        {
          "internalType": "uint256",
          "name": "",
          "type": "uint256"
        }
      ],
      "stateMutability": "view",
      "type": "function"
    },
    {
      "inputs": [],
      "name": "breakerState",
      "outputs": [
        {
          "internalType": "enum IvyCore.BreakerLevel",
          "name": "currentLevel",
          "type": "uint8"
        },
        {
          "internalType": "uint256",
          "name": "activationTime",
          "type": "uint256"
        },
        {
          "internalType": "uint256",
          "name": "activationPrice",
          "type": "uint256"
        }
      ],
      "stateMutability": "view",
      "type": "function"
    },
    {
      "inputs": [],
      "name": "checkCircuitBreaker",
      "outputs": [],
      "stateMutability": "nonpayable",
      "type": "function"
    },
    {
      "inputs": [],
      "name": "claimVested",
      "outputs": [],
      "stateMutability": "nonpayable",
      "type": "function"
    },
    {
      "inputs": [
        {
          "internalType": "uint256",
          "name": "tokenId",
          "type": "uint256"
        }
      ],
      "name": "compoundVested",
      "outputs": [],
      "stateMutability": "nonpayable",
      "type": "function"
    },
    {
      "inputs": [],
      "name": "currentDailyEmission",
      "outputs": [
        {
          "internalType": "uint256",
          "name": "",
          "type": "uint256"
        }
      ],
      "stateMutability": "view",
      "type": "function"
    },
    {
      "inputs": [],
      "name": "currentPrice",
      "outputs": [
        {
          "internalType": "uint256",
          "name": "",
          "type": "uint256"
        }
      ],
      "stateMutability": "view",
      "type": "function"
    },
    {
      "inputs": [],
      "name": "emissionFactor",
      "outputs": [
        {
          "internalType": "uint256",
          "name": "",
          "type": "uint256"
        }
      ],
      "stateMutability": "view",
      "type": "function"
    },
    {
      "inputs": [],
      "name": "genesisNode",
      "outputs": [
        {
          "internalType": "contract IGenesisNode",
          "name": "",
          "type": "address"
        }
      ],
      "stateMutability": "view",
      "type": "function"
    },
    {
      "inputs": [],
      "name": "getBreakerStatus",
      "outputs": [
        {
          "internalType": "enum IvyCore.BreakerLevel",
          "name": "level",
          "type": "uint8"
        },
        {
          "internalType": "uint256",
          "name": "activationTime",
          "type": "uint256"
        },
        {
          "internalType": "uint256",
          "name": "activationPrice",
          "type": "uint256"
        },
        {
          "internalType": "uint256",
          "name": "timeRemaining",
          "type": "uint256"
        },
        {
          "internalType": "uint256",
          "name": "forcedAlpha",
          "type": "uint256"
        }
      ],
      "stateMutability": "view",
      "type": "function"
    },
    {
      "inputs": [],
      "name": "getFinalMultiplier",
      "outputs": [
        {
          "internalType": "uint256",
          "name": "",
          "type": "uint256"
        }
      ],
      "stateMutability": "view",
      "type": "function"
    },
    {
      "inputs": [],
      "name": "getHalvingInfo",
      "outputs": [
        {
          "internalType": "uint256",
          "name": "_halvingCount",
          "type": "uint256"
        },
        {
          "internalType": "uint256",
          "name": "_emissionFactor",
          "type": "uint256"
        },
        {
          "internalType": "uint256",
          "name": "_nextHalvingAt",
          "type": "uint256"
        },
        {
          "internalType": "uint256",
          "name": "_progressToNextHalving",
          "type": "uint256"
        }
      ],
      "stateMutability": "view",
      "type": "function"
    },
    {
      "inputs": [],
      "name": "getPIDAlpha",
      "outputs": [
        {
          "internalType": "uint256",
          "name": "",
          "type": "uint256"
        }
      ],
      "stateMutability": "view",
      "type": "function"
    },
    {
      "inputs": [],
      "name": "getProtocolStats",
      "outputs": [
        {
          "internalType": "uint256",
          "name": "_totalMinted",
          "type": "uint256"
        },
        {
          "internalType": "uint256",
          "name": "_miningCap",
          "type": "uint256"
        },
        {
          "internalType": "uint256",
          "name": "_emissionFactor",
          "type": "uint256"
        },
        {
          "internalType": "uint256",
          "name": "_finalMultiplier",
          "type": "uint256"
        },
        {
          "internalType": "uint256",
          "name": "_totalPoolBondPower",
          "type": "uint256"
        },
        {
          "internalType": "uint256",
          "name": "_emissionPerSecond",
          "type": "uint256"
        },
        {
          "internalType": "uint256",
          "name": "_currentDailyEmission",
          "type": "uint256"
        },
        {
          "internalType": "uint256",
          "name": "_halvingCount",
          "type": "uint256"
        }
      ],
      "stateMutability": "view",
      "type": "function"
    },
    {
      "inputs": [
        {
          "internalType": "address",
          "name": "user",
          "type": "address"
        }
      ],
      "name": "getUserMiningStats",
      "outputs": [
        {
          "internalType": "uint256",
          "name": "bondPower",
          "type": "uint256"
        },
        {
          "internalType": "uint256",
          "name": "pendingRewards",
          "type": "uint256"
        },
        {
          "internalType": "uint256",
          "name": "totalVested",
          "type": "uint256"
        },
        {
          "internalType": "uint256",
          "name": "totalClaimed",
          "type": "uint256"
        },
        {
          "internalType": "uint256",
          "name": "claimableNow",
          "type": "uint256"
        }
      ],
      "stateMutability": "view",
      "type": "function"
    },
    {
      "inputs": [
        {
          "internalType": "address",
          "name": "user",
          "type": "address"
        }
      ],
      "name": "getVestingInfo",
      "outputs": [
        {
          "internalType": "uint256",
          "name": "totalVested",
          "type": "uint256"
        },
        {
          "internalType": "uint256",
          "name": "totalClaimed",
          "type": "uint256"
        },
        {
          "internalType": "uint256",
          "name": "vestingStartTime",
          "type": "uint256"
        },
        {
          "internalType": "uint256",
          "name": "claimableNow",
          "type": "uint256"
        },
        {
          "internalType": "uint256",
          "name": "remainingLocked",
          "type": "uint256"
        },
        {
          "internalType": "uint256",
          "name": "vestingProgress",
          "type": "uint256"
        }
      ],
      "stateMutability": "view",
      "type": "function"
    },
    {
      "inputs": [],
      "name": "halvingCount",
      "outputs": [
        {
          "internalType": "uint256",
          "name": "",
          "type": "uint256"
        }
      ],
      "stateMutability": "view",
      "type": "function"
    },
    {
      "inputs": [],
      "name": "harvest",
      "outputs": [],
      "stateMutability": "nonpayable",
      "type": "function"
    },
    {
      "inputs": [],
      "name": "instantCashOut",
      "outputs": [],
      "stateMutability": "nonpayable",
      "type": "function"
    },
    {
      "inputs": [],
      "name": "ivyBond",
      "outputs": [
        {
          "internalType": "contract IIvyBond",
          "name": "",
          "type": "address"
        }
      ],
      "stateMutability": "view",
      "type": "function"
    },
    {
      "inputs": [],
      "name": "ivyToken",
      "outputs": [
        {
          "internalType": "contract IvyToken",
          "name": "",
          "type": "address"
        }
      ],
      "stateMutability": "view",
      "type": "function"
    },
    {
      "inputs": [],
      "name": "lastHalvingMinted",
      "outputs": [
        {
          "internalType": "uint256",
          "name": "",
          "type": "uint256"
        }
      ],
      "stateMutability": "view",
      "type": "function"
    },
    {
      "inputs": [],
      "name": "lastRewardTime",
      "outputs": [
        {
          "internalType": "uint256",
          "name": "",
          "type": "uint256"
        }
      ],
      "stateMutability": "view",
      "type": "function"
    },
    {
      "inputs": [],
      "name": "ma30Price",
      "outputs": [
        {
          "internalType": "uint256",
          "name": "",
          "type": "uint256"
        }
      ],
      "stateMutability": "view",
      "type": "function"
    },
    {
      "inputs": [],
      "name": "oracle",
      "outputs": [
        {
          "internalType": "contract IPriceOracle",
          "name": "",
          "type": "address"
        }
      ],
      "stateMutability": "view",
      "type": "function"
    },
    {
      "inputs": [],
      "name": "owner",
      "outputs": [
        {
          "internalType": "address",
          "name": "",
          "type": "address"
        }
      ],
      "stateMutability": "view",
      "type": "function"
    },
    {
      "inputs": [
        {
          "internalType": "address",
          "name": "user",
          "type": "address"
        }
      ],
      "name": "pendingIvy",
      "outputs": [
        {
          "internalType": "uint256",
          "name": "",
          "type": "uint256"
        }
      ],
      "stateMutability": "view",
      "type": "function"
    },
    {
      "inputs": [],
      "name": "price1hAgo",
      "outputs": [
        {
          "internalType": "uint256",
          "name": "",
          "type": "uint256"
        }
      ],
      "stateMutability": "view",
      "type": "function"
    },
    {
      "inputs": [
        {
          "internalType": "address",
          "name": "",
          "type": "address"
        }
      ],
      "name": "referralRewardsEarned",
      "outputs": [
        {
          "internalType": "uint256",
          "name": "",
          "type": "uint256"
        }
      ],
      "stateMutability": "view",
      "type": "function"
    },
    {
      "inputs": [],
      "name": "renounceOwnership",
      "outputs": [],
      "stateMutability": "nonpayable",
      "type": "function"
    },
    {
      "inputs": [],
      "name": "resetCircuitBreaker",
      "outputs": [],
      "stateMutability": "nonpayable",
      "type": "function"
    },
    {
      "inputs": [
        {
          "internalType": "address",
          "name": "_genesisNode",
          "type": "address"
        }
      ],
      "name": "setGenesisNode",
      "outputs": [],
      "stateMutability": "nonpayable",
      "type": "function"
    },
    {
      "inputs": [
        {
          "internalType": "address",
          "name": "_ivyBond",
          "type": "address"
        }
      ],
      "name": "setIvyBond",
      "outputs": [],
      "stateMutability": "nonpayable",
      "type": "function"
    },
    {
      "inputs": [
        {
          "internalType": "address",
          "name": "_oracle",
          "type": "address"
        }
      ],
      "name": "setOracle",
      "outputs": [],
      "stateMutability": "nonpayable",
      "type": "function"
    },
    {
      "inputs": [
        {
          "internalType": "address",
          "name": "user",
          "type": "address"
        }
      ],
      "name": "syncUser",
      "outputs": [],
      "stateMutability": "nonpayable",
      "type": "function"
    },
    {
      "inputs": [],
      "name": "totalMinted",
      "outputs": [
        {
          "internalType": "uint256",
          "name": "",
          "type": "uint256"
        }
      ],
      "stateMutability": "view",
      "type": "function"
    },
    {
      "inputs": [],
      "name": "totalPoolBondPower",
      "outputs": [
        {
          "internalType": "uint256",
          "name": "",
          "type": "uint256"
        }
      ],
      "stateMutability": "view",
      "type": "function"
    },
    {
      "inputs": [
        {
          "internalType": "address",
          "name": "newOwner",
          "type": "address"
        }
      ],
      "name": "transferOwnership",
      "outputs": [],
      "stateMutability": "nonpayable",
      "type": "function"
    },
    {
      "inputs": [],
      "name": "updatePool",
      "outputs": [],
      "stateMutability": "nonpayable",
      "type": "function"
    },
    {
      "inputs": [
        {
          "internalType": "uint256",
          "name": "_currentPrice",
          "type": "uint256"
        },
        {
          "internalType": "uint256",
          "name": "_ma30Price",
          "type": "uint256"
        },
        {
          "internalType": "uint256",
          "name": "_price1hAgo",
          "type": "uint256"
        }
      ],
      "name": "updatePrices",
      "outputs": [],
      "stateMutability": "nonpayable",
      "type": "function"
    },
    {
      "inputs": [
        {
          "internalType": "address",
          "name": "",
          "type": "address"
        }
      ],
      "name": "userInfo",
      "outputs": [
        {
          "internalType": "uint256",
          "name": "bondPower",
          "type": "uint256"
        },
        {
          "internalType": "uint256",
          "name": "rewardDebt",
          "type": "uint256"
        },
        {
          "internalType": "uint256",
          "name": "pendingVested",
          "type": "uint256"
        },
        {
          "internalType": "uint256",
          "name": "vestingStartTime",
          "type": "uint256"
        },
        {
          "internalType": "uint256",
          "name": "totalVested",
          "type": "uint256"
        },
        {
          "internalType": "uint256",
          "name": "totalClaimed",
          "type": "uint256"
        }
      ],
      "stateMutability": "view",
      "type": "function"
    }
  ],
  "bytecode": "0x6080604052670de0b6b3a7640000600c55670de0b6b3a7640000601055670de0b6b3a7640000601155670de0b6b3a76400006012553480156200004157600080fd5b506040516200512b3803806200512b833981810160405281019062000067919062000273565b33600073ffffffffffffffffffffffffffffffffffffffff168173ffffffffffffffffffffffffffffffffffffffff1603620000dd5760006040517f1e4fbdf7000000000000000000000000000000000000000000000000000000008152600401620000d49190620002b6565b60405180910390fd5b620000ee816200014560201b60201c565b506001808190555080600460006101000a81548173ffffffffffffffffffffffffffffffffffffffff021916908373ffffffffffffffffffffffffffffffffffffffff16021790555042600a8190555050620002d3565b60008060009054906101000a900473ffffffffffffffffffffffffffffffffffffffff169050816000806101000a81548173ffffffffffffffffffffffffffffffffffffffff021916908373ffffffffffffffffffffffffffffffffffffffff1602179055508173ffffffffffffffffffffffffffffffffffffffff168173ffffffffffffffffffffffffffffffffffffffff167f8be0079c531659141344cd1fd0a4f28419497f9722a3daafe3b4186f6b6457e060405160405180910390a35050565b600080fd5b600073ffffffffffffffffffffffffffffffffffffffff82169050919050565b60006200023b826200020e565b9050919050565b6200024d816200022e565b81146200025957600080fd5b50565b6000815190506200026d8162000242565b92915050565b6000602082840312156200028c576200028b62000209565b5b60006200029c848285016200025c565b91505092915050565b620002b0816200022e565b82525050565b6000602082019050620002cd6000830184620002a5565b92915050565b614e4880620002e36000396000f3fe608060405234801561001057600080fd5b50600436106103fc5760003560e01c8063983d896e11610215578063da6510b411610125578063e88067e8116100b8578063f2fde38b11610087578063f2fde38b14610b2c578063f706555b14610b48578063f864233114610b66578063fb897ce414610b84578063fc84d91314610bb9576103fc565b8063e88067e814610aca578063e979ca4a14610ae6578063eacf59c814610af0578063eef1be2c14610b0e576103fc565b8063e1f1c4a7116100f4578063e1f1c4a714610a54578063e3161ddd14610a72578063e4147ca214610a7c578063e4941c3914610a9a576103fc565b8063da6510b4146109f0578063dcebf68114610a0e578063de5f8d9314610a2c578063e0c9bc6214610a36576103fc565b8063a29a7ab0116101a8578063cda80bfa11610177578063cda80bfa14610982578063ce28c1bf146109a0578063d01c44cd146109be578063d2121b4e146109c8578063d2522baa146109e6576103fc565b8063a29a7ab0146108fa578063a95d5a601461092a578063af77063d14610948578063b3def2f514610964576103fc565b80639d1b464a116101e45780639d1b464a146108825780639f55d64c146108a0578063a2309ff8146108be578063a28aee15146108dc576103fc565b8063983d896e1461080a5780639b565faa146108285780639c41ee67146108465780639d14b2a214610864576103fc565b8063458f8f9411610310578063771aceef116102a35780638da5cb5b116102725780638da5cb5b146107765780638e8b6c88146107945780639231cf74146107b0578063934b7c54146107ce578063945c3ebd146107ec576103fc565b8063771aceef146106f95780637adbf9731461071e5780637dc0d1d01461073a57806389e59ea014610758576103fc565b80635e147f90116102df5780635e147f901461067d578063715018a61461069b57806374c7773e146106a5578063763f6206146106d9576103fc565b8063458f8f94146106195780634641257d146106375780634897fffb1461064157806352aa8a5e1461065f576103fc565b80631959a002116103935780632b5615d2116103625780632b5615d21461058557806336be3538146105a35780633a03171c146105c15780633eceb63e146105df5780633ed620a4146105fd576103fc565b80631959a002146104f657806321cccba21461052b578063277c19b0146105495780632914655514610567576103fc565b8063091075a9116103cf578063091075a91461047b5780630c2330a51461049957806310d60dc4146104b7578063123d1179146104d8576103fc565b80630197d97214610401578063033d30fe1461041f57806303e45a4b1461043b5780630420bace1461045d575b600080fd5b610409610bd7565b6040516104169190613e2f565b60405180910390f35b61043960048036038101906104349190613ead565b610bde565b005b610443610c99565b604051610454959493929190613f51565b60405180910390f35b610465610de6565b6040516104729190613e2f565b60405180910390f35b610483610df2565b6040516104909190613e2f565b60405180910390f35b6104a1610e42565b6040516104ae9190613e2f565b60405180910390f35b6104bf610e48565b6040516104cf9493929190613fa4565b60405180910390f35b6104e0610ed6565b6040516104ed9190614002565b60405180910390f35b610510600480360381019061050b9190613ead565b610efa565b6040516105229695949392919061401d565b60405180910390f35b610533610f36565b6040516105409190613e2f565b60405180910390f35b610551610f42565b60405161055e9190613e2f565b60405180910390f35b61056f610f47565b60405161057c91906140dd565b60405180910390f35b61058d610f6d565b60405161059a9190613e2f565b60405180910390f35b6105ab610f79565b6040516105b89190613e2f565b60405180910390f35b6105c9610f7f565b6040516105d69190613e2f565b60405180910390f35b6105e7610f8e565b6040516105f49190613e2f565b60405180910390f35b61061760048036038101906106129190614124565b610f94565b005b61062161104c565b60405161062e9190613e2f565b60405180910390f35b61063f611055565b005b610649611325565b6040516106569190614198565b60405180910390f35b61066761134b565b6040516106749190613e2f565b60405180910390f35b610685611360565b6040516106929190614002565b60405180910390f35b6106a3611384565b005b6106bf60048036038101906106ba9190613ead565b611398565b6040516106d09594939291906141b3565b60405180910390f35b6106e161149e565b6040516106f093929190614206565b60405180910390f35b6107016114c3565b60405161071598979695949392919061423d565b60405180910390f35b61073860048036038101906107339190613ead565b61155f565b005b61074261165d565b60405161074f91906142dc565b60405180910390f35b610760611683565b60405161076d9190613e2f565b60405180910390f35b61077e611688565b60405161078b9190614306565b60405180910390f35b6107ae60048036038101906107a99190613ead565b6116b1565b005b6107b86116bd565b6040516107c59190613e2f565b60405180910390f35b6107d66116c3565b6040516107e39190613e2f565b60405180910390f35b6107f46116c9565b6040516108019190613e2f565b60405180910390f35b6108126116d7565b60405161081f9190613e2f565b60405180910390f35b6108306116dc565b60405161083d9190614342565b60405180910390f35b61084e611702565b60405161085b9190613e2f565b60405180910390f35b61086c611707565b6040516108799190613e2f565b60405180910390f35b61088a61170d565b6040516108979190613e2f565b60405180910390f35b6108a8611713565b6040516108b59190613e2f565b60405180910390f35b6108c6611722565b6040516108d39190613e2f565b60405180910390f35b6108e4611728565b6040516108f19190613e2f565b60405180910390f35b610914600480360381019061090f9190613ead565b611744565b6040516109219190613e2f565b60405180910390f35b61093261175c565b60405161093f9190613e2f565b60405180910390f35b610962600480360381019061095d919061435d565b611768565b005b61096c611bba565b6040516109799190613e2f565b60405180910390f35b61098a611bc0565b6040516109979190613e2f565b60405180910390f35b6109a8611bcb565b6040516109b59190613e2f565b60405180910390f35b6109c6611bda565b005b6109d0611e75565b6040516109dd9190613e2f565b60405180910390f35b6109ee611e7b565b005b6109f861200d565b604051610a059190613e2f565b60405180910390f35b610a16612013565b604051610a239190613e2f565b60405180910390f35b610a3461201f565b005b610a3e612228565b604051610a4b9190614002565b60405180910390f35b610a5c61224c565b604051610a699190613e2f565b60405180910390f35b610a7a612252565b005b610a846123d0565b604051610a919190613e2f565b60405180910390f35b610ab46004803603810190610aaf9190613ead565b612551565b604051610ac19190613e2f565b60405180910390f35b610ae46004803603810190610adf9190613ead565b6126b5565b005b610aee612770565b005b610af8612a01565b604051610b059190613e2f565b60405180910390f35b610b16612a08565b604051610b239190613e2f565b60405180910390f35b610b466004803603810190610b419190613ead565b612a0e565b005b610b50612a94565b604051610b5d9190613e2f565b60405180910390f35b610b6e612a9a565b604051610b7b9190613e2f565b60405180910390f35b610b9e6004803603810190610b999190613ead565b612aa0565b604051610bb09695949392919061401d565b60405180910390f35b610bc1612bd2565b604051610bce9190613e2f565b60405180910390f35b62278d0081565b610be6612bd8565b600073ffffffffffffffffffffffffffffffffffffffff168173ffffffffffffffffffffffffffffffffffffffff1603610c55576040517f08c379a0000000000000000000000000000000000000000000000000000000008152600401610c4c906143e7565b60405180910390fd5b80600360006101000a81548173ffffffffffffffffffffffffffffffffffffffff021916908373ffffffffffffffffffffffffffffffffffffffff16021790555050565b6000806000806000600660000160009054906101000a900460ff1694506006600101549350600660020154925060006003811115610cda57610cd9613eda565b5b856003811115610ced57610cec613eda565b5b03610d0f57846000806000610d006123d0565b94509450945094509450610ddf565b600060066001015442610d229190614436565b9050600080600380811115610d3a57610d39613eda565b5b886003811115610d4d57610d4c613eda565b5b03610d675762015180915066b1a2bc2ec500009050610dba565b60026003811115610d7b57610d7a613eda565b5b886003811115610d8e57610d8d613eda565b5b03610da85761a8c091506702c68af0bb1400009050610db9565b61384091506706f05b59d3b2000090505b5b81831015610dd3578282610dce9190614436565b610dd6565b60005b94508093505050505b9091929394565b6706f05b59d3b2000081565b600080610dfd6123d0565b90506ec097ce7bc90715b34b9f100000000081600c5469065a4da25d3016c00000610e28919061446a565b610e32919061446a565b610e3c91906144db565b91505090565b61138881565b600080600080600f549350600c5492506a05ca4ec2a79a7f670000006001600f54610e73919061450c565b610e7d919061446a565b915060006a05ca4ec2a79a7f67000000600f54610e9a919061446a565b600d54610ea79190614436565b90506a05ca4ec2a79a7f6700000061271082610ec3919061446a565b610ecd91906144db565b91505090919293565b7fffffffffffffffffffffffffffffffffffffffffffffffffffffffffffffffe781565b60136020528060005260406000206000915090508060000154908060010154908060020154908060030154908060040154908060050154905086565b6714d1120d7b16000081565b60c881565b600360009054906101000a900473ffffffffffffffffffffffffffffffffffffffff1681565b67016345785d8a000081565b61384081565b6a52b7d2dcc80cd2e400000081565b61a8c081565b610f9c612bd8565b600083118015610fac5750600082115b8015610fb85750600081115b610ff7576040517f08c379a0000000000000000000000000000000000000000000000000000000008152600401610fee9061458c565b60405180910390fd5b8260108190555081601181905550806012819055507f15819dd2fd9f6418b142e798d08a18d0bf06ea368f4480b7b0d3f75bd966bc4883838360405161103f939291906145ac565b60405180910390a1505050565b64e8d4a5100081565b61105d612c5f565b600033905061106b81612ca5565b6000601360008373ffffffffffffffffffffffffffffffffffffffff1673ffffffffffffffffffffffffffffffffffffffff1681526020019081526020016000209050600081600201549050600081116110fa576040517f08c379a00000000000000000000000000000000000000000000000000000000081526004016110f19061462f565b60405180910390fd5b6a39e7139a8c08fa06000000600d5410611149576040517f08c379a00000000000000000000000000000000000000000000000000000000081526004016111409061469b565b60405180910390fd5b6a39e7139a8c08fa0600000081600d54611163919061450c565b111561118557600d546a39e7139a8c08fa060000006111829190614436565b90505b60008260020181905550808260040160008282546111a3919061450c565b9250508190555060008260030154036111c0574282600301819055505b80600d60008282546111d2919061450c565b92505081905550600460009054906101000a900473ffffffffffffffffffffffffffffffffffffffff1673ffffffffffffffffffffffffffffffffffffffff166340c10f1930836040518363ffffffff1660e01b81526004016112369291906146bb565b600060405180830381600087803b15801561125057600080fd5b505af1158015611264573d6000803e3d6000fd5b5050505061127061301c565b61127a83826130e6565b8273ffffffffffffffffffffffffffffffffffffffff167fbc8fb63d817de4fabea2108e9b7eefca87245899f4b357636c26b5cad02ec5b4826040516112c09190613e2f565b60405180910390a28273ffffffffffffffffffffffffffffffffffffffff167f8fe19f160f86d04fb1a90dde93e5e1a47df0810685adf4b990153c107d7b392482426040516113109291906146e4565b60405180910390a2505050611323613c9e565b565b600460009054906101000a900473ffffffffffffffffffffffffffffffffffffffff1681565b600061135b601054601154613ca7565b905090565b7ffffffffffffffffffffffffffffffffffffffffffffffffffffffffffffffff681565b61138c612bd8565b6113966000613d4a565b565b600080600080600080601360008873ffffffffffffffffffffffffffffffffffffffff1673ffffffffffffffffffffffffffffffffffffffff1681526020019081526020016000209050806000015495506113f287612551565b945080600401549350806005015492506000816003015411801561141a575060008160040154115b156114945760008160030154426114319190614436565b9050600062278d00821061144b578260040154905061146c565b62278d0082846004015461145f919061446a565b61146991906144db565b90505b8260050154811161147e57600061148f565b82600501548161148e9190614436565b5b935050505b5091939590929450565b60068060000160009054906101000a900460ff16908060010154908060020154905083565b600080600080600080600080600d5497506a39e7139a8c08fa060000009650600c5495506114ef6123d0565b9450600b5493506201518069065a4da25d3016c0000061150f91906144db565b92506ec097ce7bc90715b34b9f100000000085600c5469065a4da25d3016c0000061153a919061446a565b611544919061446a565b61154e91906144db565b9150600f5490509091929394959697565b611567612bd8565b600073ffffffffffffffffffffffffffffffffffffffff168173ffffffffffffffffffffffffffffffffffffffff16036115d6576040517f08c379a00000000000000000000000000000000000000000000000000000000081526004016115cd906143e7565b60405180910390fd5b80600560006101000a81548173ffffffffffffffffffffffffffffffffffffffff021916908373ffffffffffffffffffffffffffffffffffffffff1602179055508073ffffffffffffffffffffffffffffffffffffffff167f6536690106168bdf4ba72c128a053d817999b1db90cae23f139b293bf862cb7560405160405180910390a250565b600560009054906101000a900473ffffffffffffffffffffffffffffffffffffffff1681565b601481565b60008060009054906101000a900473ffffffffffffffffffffffffffffffffffffffff16905090565b6116ba81612ca5565b50565b600a5481565b600e5481565b69065a4da25d3016c0000081565b605f81565b600260009054906101000a900473ffffffffffffffffffffffffffffffffffffffff1681565b603281565b600b5481565b60105481565b6a05ca4ec2a79a7f6700000081565b600d5481565b6201518069065a4da25d3016c0000061174191906144db565b81565b60146020528060005260406000206000915090505481565b6702c68af0bb14000081565b611770612c5f565b3373ffffffffffffffffffffffffffffffffffffffff16600360009054906101000a900473ffffffffffffffffffffffffffffffffffffffff1673ffffffffffffffffffffffffffffffffffffffff1663331f5dcf836040518263ffffffff1660e01b81526004016117e29190613e2f565b602060405180830381865afa1580156117ff573d6000803e3d6000fd5b505050506040513d601f19601f820116820180604052508101906118239190614722565b73ffffffffffffffffffffffffffffffffffffffff1614611879576040517f08c379a00000000000000000000000000000000000000000000000000000000081526004016118709061479b565b60405180910390fd5b611881612252565b6000601360003373ffffffffffffffffffffffffffffffffffffffff1673ffffffffffffffffffffffffffffffffffffffff16815260200190815260200160002090506000816001015464e8d4a5100060095484600001546118e3919061446a565b6118ed91906144db565b6118f79190614436565b9050600082600201548261190b919061450c565b905060008111611950576040517f08c379a000000000000000000000000000000000000000000000000000000000815260040161194790614807565b60405180910390fd5b64e8d4a510006009548460000154611968919061446a565b61197291906144db565b8360010181905550600083600201819055506000600560009054906101000a900473ffffffffffffffffffffffffffffffffffffffff1673ffffffffffffffffffffffffffffffffffffffff1663b3596f07600460009054906101000a900473ffffffffffffffffffffffffffffffffffffffff166040518263ffffffff1660e01b8152600401611a039190614306565b602060405180830381865afa158015611a20573d6000803e3d6000fd5b505050506040513d601f19601f82011682018060405250810190611a44919061483c565b905060008111611a89576040517f08c379a0000000000000000000000000000000000000000000000000000000008152600401611a80906148b5565b60405180910390fd5b6000670de0b6b3a76400008284611aa0919061446a565b611aaa91906144db565b905060006064606e83611abd919061446a565b611ac791906144db565b9050600360009054906101000a900473ffffffffffffffffffffffffffffffffffffffff1673ffffffffffffffffffffffffffffffffffffffff1663341186c288836040518363ffffffff1660e01b8152600401611b269291906146e4565b600060405180830381600087803b158015611b4057600080fd5b505af1158015611b54573d6000803e3d6000fd5b50505050863373ffffffffffffffffffffffffffffffffffffffff167fa78b9a656c956dc5f492315beb888731d0142b384ffc2b15834ea73d69fb76bb8684604051611ba19291906146e4565b60405180910390a3505050505050611bb7613c9e565b50565b600c5481565b66b1a2bc2ec5000081565b6a39e7139a8c08fa0600000081565b611be2612c5f565b60003390506000601360008373ffffffffffffffffffffffffffffffffffffffff1673ffffffffffffffffffffffffffffffffffffffff16815260200190815260200160002090506000816004015411611c71576040517f08c379a0000000000000000000000000000000000000000000000000000000008152600401611c6890614921565b60405180910390fd5b6000816003015411611cb8576040517f08c379a0000000000000000000000000000000000000000000000000000000008152600401611caf9061498d565b60405180910390fd5b6000816003015442611cca9190614436565b9050600062278d008210611ce45782600401549050611d05565b62278d00828460040154611cf8919061446a565b611d0291906144db565b90505b6000836005015482611d179190614436565b905060008111611d5c576040517f08c379a0000000000000000000000000000000000000000000000000000000008152600401611d53906149f9565b60405180910390fd5b80846005016000828254611d70919061450c565b92505081905550600460009054906101000a900473ffffffffffffffffffffffffffffffffffffffff1673ffffffffffffffffffffffffffffffffffffffff1663a9059cbb86836040518363ffffffff1660e01b8152600401611dd49291906146bb565b6020604051808303816000875af1158015611df3573d6000803e3d6000fd5b505050506040513d601f19601f82011682018060405250810190611e179190614a51565b508473ffffffffffffffffffffffffffffffffffffffff167f9fe9b7be9d151c7a8b6de49a1312ff27a15096d0d1d12999af85fe4310e0b12582604051611e5e9190613e2f565b60405180910390a25050505050611e73613c9e565b565b60115481565b6000601254031561200b576000601254601054611e989190614a7e565b90506000601254606483611eac9190614ac1565b611eb69190614b39565b905060007fffffffffffffffffffffffffffffffffffffffffffffffffffffffffffffffe78213611eea5760039050611f48565b7ffffffffffffffffffffffffffffffffffffffffffffffffffffffffffffffff18213611f1a5760029050611f47565b7ffffffffffffffffffffffffffffffffffffffffffffffffffffffffffffffff68213611f4657600190505b5b5b600660000160009054906101000a900460ff166003811115611f6d57611f6c613eda565b5b816003811115611f8057611f7f613eda565b5b11156120075780600660000160006101000a81548160ff02191690836003811115611fae57611fad613eda565b5b0217905550426006600101819055506010546006600201819055507f4fa52a45d7e5a216674f536c9e84f867dce6e9a6c6b5fe88f640855bf92256818142601054604051611ffe93929190614206565b60405180910390a15b5050505b565b6101f481565b671bc16d674ec8000081565b612027612bd8565b6000600381111561203b5761203a613eda565b5b600660000160009054906101000a900460ff1660038111156120605761205f613eda565b5b036120a0576040517f08c379a000000000000000000000000000000000000000000000000000000000815260040161209790614bef565b60405180910390fd5b6000600660010154426120b39190614436565b905060006003808111156120ca576120c9613eda565b5b600660000160009054906101000a900460ff1660038111156120ef576120ee613eda565b5b036120ff5762015180905061214e565b6002600381111561211357612112613eda565b5b600660000160009054906101000a900460ff16600381111561213857612137613eda565b5b036121475761a8c0905061214d565b61384090505b5b80821015612191576040517f08c379a000000000000000000000000000000000000000000000000000000000815260040161218890614c5b565b60405180910390fd5b6000600660000160009054906101000a900460ff1690506000600660000160006101000a81548160ff021916908360038111156121d1576121d0613eda565b5b0217905550600060066001018190555060006006600201819055507f07130c8b39a90581223fe2d149b6458e7d26925c0ea5c3156721b96e564c36598160405161221b9190614c7b565b60405180910390a1505050565b7ffffffffffffffffffffffffffffffffffffffffffffffffffffffffffffffff181565b61271081565b600a544211156123ce576000600b54036122725742600a819055506123ce565b6000600a54426122829190614436565b9050600061228e6123d0565b905060006ec097ce7bc90715b34b9f100000000082600c546201518069065a4da25d3016c000006122bf91906144db565b866122ca919061446a565b6122d4919061446a565b6122de919061446a565b6122e891906144db565b90506a39e7139a8c08fa0600000081600d54612304919061450c565b111561234257600d546a39e7139a8c08fa060000001161232557600061233f565b600d546a39e7139a8c08fa0600000061233e9190614436565b5b90505b600081111561238257600b5464e8d4a510008261235f919061446a565b61236991906144db565b6009600082825461237a919061450c565b925050819055505b42600a819055507f17b8644f386d1c7c7138ef98b3c8035622bbe94d7be9b26f71d2654a547c2943600954600a54600b546040516123c2939291906145ac565b60405180910390a15050505b565b60008060038111156123e5576123e4613eda565b5b600660000160009054906101000a900460ff16600381111561240a57612409613eda565b5b1461253d576000600660010154426124229190614436565b905060038081111561243757612436613eda565b5b600660000160009054906101000a900460ff16600381111561245c5761245b613eda565b5b03612481576201518081101561247c5766b1a2bc2ec5000091505061254e565b61253b565b6002600381111561249557612494613eda565b5b600660000160009054906101000a900460ff1660038111156124ba576124b9613eda565b5b036124df5761a8c08110156124da576702c68af0bb14000091505061254e565b61253a565b600160038111156124f3576124f2613eda565b5b600660000160009054906101000a900460ff16600381111561251857612517613eda565b5b0361253957613840811015612538576706f05b59d3b2000091505061254e565b5b5b5b505b61254b601054601154613ca7565b90505b90565b600080601360008473ffffffffffffffffffffffffffffffffffffffff1673ffffffffffffffffffffffffffffffffffffffff168152602001908152602001600020905060006009549050600a54421180156125af57506000600b54115b1561265b576000600a54426125c49190614436565b905060006125d06123d0565b905060006ec097ce7bc90715b34b9f100000000082600c546201518069065a4da25d3016c0000061260191906144db565b8661260c919061446a565b612616919061446a565b612620919061446a565b61262a91906144db565b9050600b5464e8d4a5100082612640919061446a565b61264a91906144db565b84612655919061450c565b93505050505b6000808360000154111561269b57826001015464e8d4a51000838560000154612684919061446a565b61268e91906144db565b6126989190614436565b90505b8260020154816126ab919061450c565b9350505050919050565b6126bd612bd8565b600073ffffffffffffffffffffffffffffffffffffffff168173ffffffffffffffffffffffffffffffffffffffff160361272c576040517f08c379a0000000000000000000000000000000000000000000000000000000008152600401612723906143e7565b60405180910390fd5b80600260006101000a81548173ffffffffffffffffffffffffffffffffffffffff021916908373ffffffffffffffffffffffffffffffffffffffff16021790555050565b612778612c5f565b60003390506000601360008373ffffffffffffffffffffffffffffffffffffffff1673ffffffffffffffffffffffffffffffffffffffff1681526020019081526020016000209050806005015481600401541161280a576040517f08c379a000000000000000000000000000000000000000000000000000000000815260040161280190614ce2565b60405180910390fd5b6000816005015482600401546128209190614436565b9050600061271061138883612835919061446a565b61283f91906144db565b90506000818361284f9190614436565b905083600401548460050181905550600460009054906101000a900473ffffffffffffffffffffffffffffffffffffffff1673ffffffffffffffffffffffffffffffffffffffff1663a9059cbb86836040518363ffffffff1660e01b81526004016128bb9291906146bb565b6020604051808303816000875af11580156128da573d6000803e3d6000fd5b505050506040513d601f19601f820116820180604052508101906128fe9190614a51565b50600460009054906101000a900473ffffffffffffffffffffffffffffffffffffffff1673ffffffffffffffffffffffffffffffffffffffff1663a9059cbb61dead846040518363ffffffff1660e01b815260040161295e9291906146bb565b6020604051808303816000875af115801561297d573d6000803e3d6000fd5b505050506040513d601f19601f820116820180604052508101906129a19190614a51565b508473ffffffffffffffffffffffffffffffffffffffff167f92207ec016968e0ee608b41c92470ff10e9f810a8dec5f40901974ac75ed498e82846040516129ea9291906146e4565b60405180910390a250505050506129ff613c9e565b565b6201518081565b60095481565b612a16612bd8565b600073ffffffffffffffffffffffffffffffffffffffff168173ffffffffffffffffffffffffffffffffffffffff1603612a885760006040517f1e4fbdf7000000000000000000000000000000000000000000000000000000008152600401612a7f9190614306565b60405180910390fd5b612a9181613d4a565b50565b6103e881565b60125481565b6000806000806000806000601360008973ffffffffffffffffffffffffffffffffffffffff1673ffffffffffffffffffffffffffffffffffffffff168152602001908152602001600020905080600401549650806005015495508060030154945060008160030154118015612b19575060008160040154115b15612bc8576000816003015442612b309190614436565b9050600062278d008210612b4f57826004015490506127109350612b8e565b62278d00828460040154612b63919061446a565b612b6d91906144db565b905062278d0061271083612b81919061446a565b612b8b91906144db565b93505b82600501548111612ba0576000612bb1565b826005015481612bb09190614436565b5b9550808360040154612bc39190614436565b945050505b5091939550919395565b600f5481565b612be0613e0e565b73ffffffffffffffffffffffffffffffffffffffff16612bfe611688565b73ffffffffffffffffffffffffffffffffffffffff1614612c5d57612c21613e0e565b6040517f118cdaa7000000000000000000000000000000000000000000000000000000008152600401612c549190614306565b60405180910390fd5b565b600260015403612c9b576040517f3ee5aeb500000000000000000000000000000000000000000000000000000000815260040160405180910390fd5b6002600181905550565b612cad612252565b6000601360008373ffffffffffffffffffffffffffffffffffffffff1673ffffffffffffffffffffffffffffffffffffffff168152602001908152602001600020905060008073ffffffffffffffffffffffffffffffffffffffff16600360009054906101000a900473ffffffffffffffffffffffffffffffffffffffff1673ffffffffffffffffffffffffffffffffffffffff1614612de657600360009054906101000a900473ffffffffffffffffffffffffffffffffffffffff1673ffffffffffffffffffffffffffffffffffffffff1663ab0229a0846040518263ffffffff1660e01b8152600401612da29190614306565b602060405180830381865afa158015612dbf573d6000803e3d6000fd5b505050506040513d601f19601f82011682018060405250810190612de3919061483c565b90505b60008073ffffffffffffffffffffffffffffffffffffffff16600260009054906101000a900473ffffffffffffffffffffffffffffffffffffffff1673ffffffffffffffffffffffffffffffffffffffff1614612edc57600260009054906101000a900473ffffffffffffffffffffffffffffffffffffffff1673ffffffffffffffffffffffffffffffffffffffff166304d1334f856040518263ffffffff1660e01b8152600401612e989190614306565b602060405180830381865afa158015612eb5573d6000803e3d6000fd5b505050506040513d601f19601f82011682018060405250810190612ed9919061483c565b90505b600061271082612710612eef919061450c565b84612efa919061446a565b612f0491906144db565b9050600084600001541115612f6f576000846001015464e8d4a510006009548760000154612f32919061446a565b612f3c91906144db565b612f469190614436565b90506000811115612f6d5780856002016000828254612f65919061450c565b925050819055505b505b808460000154600b54612f829190614436565b612f8c919061450c565b600b8190555080846000018190555064e8d4a5100060095482612faf919061446a565b612fb991906144db565b84600101819055508473ffffffffffffffffffffffffffffffffffffffff167fdfc331ca16b8c4320a402867e832423d16ad3de953e474a499baf3697aa9e89482866001015460405161300d9291906146e4565b60405180910390a25050505050565b5b6a05ca4ec2a79a7f670000006001600f54613038919061450c565b613042919061446a565b600d54106130e4576064605f600c5461305b919061446a565b61306591906144db565b600c81905550600f600081548092919061307e90614d02565b91905055506a05ca4ec2a79a7f67000000600f5461309c919061446a565b600e819055507fde141711fef892cdaea55f1f6a85e241382fcefc69efdb496eff235992a18ed4600c54600d546040516130d79291906146e4565b60405180910390a161301d565b565b600073ffffffffffffffffffffffffffffffffffffffff16600260009054906101000a900473ffffffffffffffffffffffffffffffffffffffff1673ffffffffffffffffffffffffffffffffffffffff160315613c9a576000600260009054906101000a900473ffffffffffffffffffffffffffffffffffffffff1673ffffffffffffffffffffffffffffffffffffffff16634a9fefc7846040518263ffffffff1660e01b815260040161319a9190614306565b602060405180830381865afa1580156131b7573d6000803e3d6000fd5b505050506040513d601f19601f820116820180604052508101906131db9190614722565b9050600073ffffffffffffffffffffffffffffffffffffffff168173ffffffffffffffffffffffffffffffffffffffff16036132175750613c9a565b60006127106103e88461322a919061446a565b61323491906144db565b905060008111156133a65780600d6000828254613251919061450c565b92505081905550600460009054906101000a900473ffffffffffffffffffffffffffffffffffffffff1673ffffffffffffffffffffffffffffffffffffffff166340c10f1983836040518363ffffffff1660e01b81526004016132b59291906146bb565b600060405180830381600087803b1580156132cf57600080fd5b505af11580156132e3573d6000803e3d6000fd5b5050505080601460008473ffffffffffffffffffffffffffffffffffffffff1673ffffffffffffffffffffffffffffffffffffffff1681526020019081526020016000206000828254613336919061450c565b925050819055508373ffffffffffffffffffffffffffffffffffffffff168273ffffffffffffffffffffffffffffffffffffffff167fe679beb5d98a54fda65331587d36d13358e8bf295be15e932c482164f8fde95e83600160405161339d929190614d85565b60405180910390a35b6000600260009054906101000a900473ffffffffffffffffffffffffffffffffffffffff1673ffffffffffffffffffffffffffffffffffffffff16634a9fefc7846040518263ffffffff1660e01b81526004016134039190614306565b602060405180830381865afa158015613420573d6000803e3d6000fd5b505050506040513d601f19601f820116820180604052508101906134449190614722565b9050600073ffffffffffffffffffffffffffffffffffffffff168173ffffffffffffffffffffffffffffffffffffffff161461360b5760006127106101f48661348d919061446a565b61349791906144db565b905060008111156136095780600d60008282546134b4919061450c565b92505081905550600460009054906101000a900473ffffffffffffffffffffffffffffffffffffffff1673ffffffffffffffffffffffffffffffffffffffff166340c10f1983836040518363ffffffff1660e01b81526004016135189291906146bb565b600060405180830381600087803b15801561353257600080fd5b505af1158015613546573d6000803e3d6000fd5b5050505080601460008473ffffffffffffffffffffffffffffffffffffffff1673ffffffffffffffffffffffffffffffffffffffff1681526020019081526020016000206000828254613599919061450c565b925050819055508573ffffffffffffffffffffffffffffffffffffffff168273ffffffffffffffffffffffffffffffffffffffff167fe679beb5d98a54fda65331587d36d13358e8bf295be15e932c482164f8fde95e836002604051613600929190614de9565b60405180910390a35b505b600083905060008060005b600073ffffffffffffffffffffffffffffffffffffffff168473ffffffffffffffffffffffffffffffffffffffff16141580156136535750601481105b156137c4576000600260009054906101000a900473ffffffffffffffffffffffffffffffffffffffff1673ffffffffffffffffffffffffffffffffffffffff166370a08231866040518263ffffffff1660e01b81526004016136b59190614306565b602060405180830381865afa1580156136d2573d6000803e3d6000fd5b505050506040513d601f19601f820116820180604052508101906136f6919061483c565b11156137135783925060018161370c919061450c565b91506137c4565b600260009054906101000a900473ffffffffffffffffffffffffffffffffffffffff1673ffffffffffffffffffffffffffffffffffffffff16634a9fefc7856040518263ffffffff1660e01b815260040161376e9190614306565b602060405180830381865afa15801561378b573d6000803e3d6000fd5b505050506040513d601f19601f820116820180604052508101906137af9190614722565b935080806137bc90614d02565b915050613616565b600073ffffffffffffffffffffffffffffffffffffffff168373ffffffffffffffffffffffffffffffffffffffff1614613c9257600061271060c88a61380a919061446a565b61381491906144db565b905060008111156139855780600d6000828254613831919061450c565b92505081905550600460009054906101000a900473ffffffffffffffffffffffffffffffffffffffff1673ffffffffffffffffffffffffffffffffffffffff166340c10f1985836040518363ffffffff1660e01b81526004016138959291906146bb565b600060405180830381600087803b1580156138af57600080fd5b505af11580156138c3573d6000803e3d6000fd5b5050505080601460008673ffffffffffffffffffffffffffffffffffffffff1673ffffffffffffffffffffffffffffffffffffffff1681526020019081526020016000206000828254613916919061450c565b925050819055508973ffffffffffffffffffffffffffffffffffffffff168473ffffffffffffffffffffffffffffffffffffffff167ff3e533e84b42dfb4015d2211af267b5d34a1aa0f60c4da1a9dd25698150868d8838660405161397c9291906146e4565b60405180910390a35b6000600260009054906101000a900473ffffffffffffffffffffffffffffffffffffffff1673ffffffffffffffffffffffffffffffffffffffff16634a9fefc7866040518263ffffffff1660e01b81526004016139e29190614306565b602060405180830381865afa1580156139ff573d6000803e3d6000fd5b505050506040513d601f19601f82011682018060405250810190613a239190614722565b9050600073ffffffffffffffffffffffffffffffffffffffff168173ffffffffffffffffffffffffffffffffffffffff1614158015613afd57506000600260009054906101000a900473ffffffffffffffffffffffffffffffffffffffff1673ffffffffffffffffffffffffffffffffffffffff166370a08231836040518263ffffffff1660e01b8152600401613aba9190614306565b602060405180830381865afa158015613ad7573d6000803e3d6000fd5b505050506040513d601f19601f82011682018060405250810190613afb919061483c565b115b15613c8f57600061271060328c613b14919061446a565b613b1e91906144db565b90506000811115613c8d5780600d6000828254613b3b919061450c565b92505081905550600460009054906101000a900473ffffffffffffffffffffffffffffffffffffffff1673ffffffffffffffffffffffffffffffffffffffff166340c10f1983836040518363ffffffff1660e01b8152600401613b9f9291906146bb565b600060405180830381600087803b158015613bb957600080fd5b505af1158015613bcd573d6000803e3d6000fd5b5050505080601460008473ffffffffffffffffffffffffffffffffffffffff1673ffffffffffffffffffffffffffffffffffffffff1681526020019081526020016000206000828254613c20919061450c565b925050819055508573ffffffffffffffffffffffffffffffffffffffff168273ffffffffffffffffffffffffffffffffffffffff167f6b34e5a4dcbc992c5815bf8d0f03397ec7ecc2d9e760776d9de0c5e1d391905683604051613c849190613e2f565b60405180910390a35b505b50505b505050505050505b5050565b60018081905550565b6000808203613cc057670de0b6b3a76400009050613d44565b600082670de0b6b3a764000085613cd7919061446a565b613ce191906144db565b90506000670de0b6b3a76400008283613cfa919061446a565b613d0491906144db565b90506714d1120d7b160000811115613d22576714d1120d7b16000090505b67016345785d8a0000811015613d3e5767016345785d8a000090505b80925050505b92915050565b60008060009054906101000a900473ffffffffffffffffffffffffffffffffffffffff169050816000806101000a81548173ffffffffffffffffffffffffffffffffffffffff021916908373ffffffffffffffffffffffffffffffffffffffff1602179055508173ffffffffffffffffffffffffffffffffffffffff168173ffffffffffffffffffffffffffffffffffffffff167f8be0079c531659141344cd1fd0a4f28419497f9722a3daafe3b4186f6b6457e060405160405180910390a35050565b600033905090565b6000819050919050565b613e2981613e16565b82525050565b6000602082019050613e446000830184613e20565b92915050565b600080fd5b600073ffffffffffffffffffffffffffffffffffffffff82169050919050565b6000613e7a82613e4f565b9050919050565b613e8a81613e6f565b8114613e9557600080fd5b50565b600081359050613ea781613e81565b92915050565b600060208284031215613ec357613ec2613e4a565b5b6000613ed184828501613e98565b91505092915050565b7f4e487b7100000000000000000000000000000000000000000000000000000000600052602160045260246000fd5b60048110613f1a57613f19613eda565b5b50565b6000819050613f2b82613f09565b919050565b6000613f3b82613f1d565b9050919050565b613f4b81613f30565b82525050565b600060a082019050613f666000830188613f42565b613f736020830187613e20565b613f806040830186613e20565b613f8d6060830185613e20565b613f9a6080830184613e20565b9695505050505050565b6000608082019050613fb96000830187613e20565b613fc66020830186613e20565b613fd36040830185613e20565b613fe06060830184613e20565b95945050505050565b6000819050919050565b613ffc81613fe9565b82525050565b60006020820190506140176000830184613ff3565b92915050565b600060c0820190506140326000830189613e20565b61403f6020830188613e20565b61404c6040830187613e20565b6140596060830186613e20565b6140666080830185613e20565b61407360a0830184613e20565b979650505050505050565b6000819050919050565b60006140a361409e61409984613e4f565b61407e565b613e4f565b9050919050565b60006140b582614088565b9050919050565b60006140c7826140aa565b9050919050565b6140d7816140bc565b82525050565b60006020820190506140f260008301846140ce565b92915050565b61410181613e16565b811461410c57600080fd5b50565b60008135905061411e816140f8565b92915050565b60008060006060848603121561413d5761413c613e4a565b5b600061414b8682870161410f565b935050602061415c8682870161410f565b925050604061416d8682870161410f565b9150509250925092565b6000614182826140aa565b9050919050565b61419281614177565b82525050565b60006020820190506141ad6000830184614189565b92915050565b600060a0820190506141c86000830188613e20565b6141d56020830187613e20565b6141e26040830186613e20565b6141ef6060830185613e20565b6141fc6080830184613e20565b9695505050505050565b600060608201905061421b6000830186613f42565b6142286020830185613e20565b6142356040830184613e20565b949350505050565b600061010082019050614253600083018b613e20565b614260602083018a613e20565b61426d6040830189613e20565b61427a6060830188613e20565b6142876080830187613e20565b61429460a0830186613e20565b6142a160c0830185613e20565b6142ae60e0830184613e20565b9998505050505050505050565b60006142c6826140aa565b9050919050565b6142d6816142bb565b82525050565b60006020820190506142f160008301846142cd565b92915050565b61430081613e6f565b82525050565b600060208201905061431b60008301846142f7565b92915050565b600061432c826140aa565b9050919050565b61433c81614321565b82525050565b60006020820190506143576000830184614333565b92915050565b60006020828403121561437357614372613e4a565b5b60006143818482850161410f565b91505092915050565b600082825260208201905092915050565b7f496e76616c696420616464726573730000000000000000000000000000000000600082015250565b60006143d1600f8361438a565b91506143dc8261439b565b602082019050919050565b60006020820190508181036000830152614400816143c4565b9050919050565b7f4e487b7100000000000000000000000000000000000000000000000000000000600052601160045260246000fd5b600061444182613e16565b915061444c83613e16565b925082820390508181111561446457614463614407565b5b92915050565b600061447582613e16565b915061448083613e16565b925082820261448e81613e16565b915082820484148315176144a5576144a4614407565b5b5092915050565b7f4e487b7100000000000000000000000000000000000000000000000000000000600052601260045260246000fd5b60006144e682613e16565b91506144f183613e16565b925082614501576145006144ac565b5b828204905092915050565b600061451782613e16565b915061452283613e16565b925082820190508082111561453a57614539614407565b5b92915050565b7f496e76616c696420707269636573000000000000000000000000000000000000600082015250565b6000614576600e8361438a565b915061458182614540565b602082019050919050565b600060208201905081810360008301526145a581614569565b9050919050565b60006060820190506145c16000830186613e20565b6145ce6020830185613e20565b6145db6040830184613e20565b949350505050565b7f4e6f7468696e6720746f20686172766573740000000000000000000000000000600082015250565b600061461960128361438a565b9150614624826145e3565b602082019050919050565b600060208201905081810360008301526146488161460c565b9050919050565b7f4d696e696e672063617020726561636865640000000000000000000000000000600082015250565b600061468560128361438a565b91506146908261464f565b602082019050919050565b600060208201905081810360008301526146b481614678565b9050919050565b60006040820190506146d060008301856142f7565b6146dd6020830184613e20565b9392505050565b60006040820190506146f96000830185613e20565b6147066020830184613e20565b9392505050565b60008151905061471c81613e81565b92915050565b60006020828403121561473857614737613e4a565b5b60006147468482850161470d565b91505092915050565b7f4e6f7420626f6e64206f776e6572000000000000000000000000000000000000600082015250565b6000614785600e8361438a565b91506147908261474f565b602082019050919050565b600060208201905081810360008301526147b481614778565b9050919050565b7f4e6f2070656e64696e6720726577617264730000000000000000000000000000600082015250565b60006147f160128361438a565b91506147fc826147bb565b602082019050919050565b60006020820190508181036000830152614820816147e4565b9050919050565b600081519050614836816140f8565b92915050565b60006020828403121561485257614851613e4a565b5b600061486084828501614827565b91505092915050565b7f4f7261636c65207072696365206973207a65726f000000000000000000000000600082015250565b600061489f60148361438a565b91506148aa82614869565b602082019050919050565b600060208201905081810360008301526148ce81614892565b9050919050565b7f4e6f7468696e6720766573746564000000000000000000000000000000000000600082015250565b600061490b600e8361438a565b9150614916826148d5565b602082019050919050565b6000602082019050818103600083015261493a816148fe565b9050919050565b7f56657374696e67206e6f74207374617274656400000000000000000000000000600082015250565b600061497760138361438a565b915061498282614941565b602082019050919050565b600060208201905081810360008301526149a68161496a565b9050919050565b7f4e6f7468696e6720746f20636c61696d00000000000000000000000000000000600082015250565b60006149e360108361438a565b91506149ee826149ad565b602082019050919050565b60006020820190508181036000830152614a12816149d6565b9050919050565b60008115159050919050565b614a2e81614a19565b8114614a3957600080fd5b50565b600081519050614a4b81614a25565b92915050565b600060208284031215614a6757614a66613e4a565b5b6000614a7584828501614a3c565b91505092915050565b6000614a8982613fe9565b9150614a9483613fe9565b9250828203905081811260008412168282136000851215161715614abb57614aba614407565b5b92915050565b6000614acc82613fe9565b9150614ad783613fe9565b9250828202614ae581613fe9565b91507f80000000000000000000000000000000000000000000000000000000000000008414600084121615614b1d57614b1c614407565b5b8282058414831517614b3257614b31614407565b5b5092915050565b6000614b4482613fe9565b9150614b4f83613fe9565b925082614b5f57614b5e6144ac565b5b600160000383147f800000000000000000000000000000000000000000000000000000000000000083141615614b9857614b97614407565b5b828205905092915050565b7f427265616b6572206e6f74206163746976650000000000000000000000000000600082015250565b6000614bd960128361438a565b9150614be482614ba3565b602082019050919050565b60006020820190508181036000830152614c0881614bcc565b9050919050565b7f436f6f6c646f776e206e6f7420636f6d706c6574650000000000000000000000600082015250565b6000614c4560158361438a565b9150614c5082614c0f565b602082019050919050565b60006020820190508181036000830152614c7481614c38565b9050919050565b6000602082019050614c906000830184613f42565b92915050565b7f4e6f7468696e6720746f2063617368206f757400000000000000000000000000600082015250565b6000614ccc60138361438a565b9150614cd782614c96565b602082019050919050565b60006020820190508181036000830152614cfb81614cbf565b9050919050565b6000614d0d82613e16565b91507fffffffffffffffffffffffffffffffffffffffffffffffffffffffffffffffff8203614d3f57614d3e614407565b5b600182019050919050565b6000819050919050565b6000614d6f614d6a614d6584614d4a565b61407e565b613e16565b9050919050565b614d7f81614d54565b82525050565b6000604082019050614d9a6000830185613e20565b614da76020830184614d76565b9392505050565b6000819050919050565b6000614dd3614dce614dc984614dae565b61407e565b613e16565b9050919050565b614de381614db8565b82525050565b6000604082019050614dfe6000830185613e20565b614e0b6020830184614dda565b939250505056fea264697066735822122068b9a19501539522600c718292d7db817962ec872f904a46f04c4e16ab298d3164736f6c63430008140033",
  "linkReferences": {},
  "deployedLinkReferences": {}
}