{
  "_format": "hh-sol-artifact-1",
  "contractName": "IvyCore",
  "sourceName": "contracts/IvyCore.sol",
  "abi": [
    {
      "inputs": [
        {
          "internalType": "address",
          "name": "_ivyToken",
          "type": "address"
        }
      ],
      "stateMutability": "nonpayable",
      "type": "constructor"
    },
    {
      "inputs": [
        {
          "internalType": "address",
          "name": "owner",
          "type": "address"
        }
      ],
      "name": "OwnableInvalidOwner",
      "type": "error"
    },
    {
      "inputs": [
        {
          "internalType": "address",
          "name": "account",
          "type": "address"
        }
      ],
      "name": "OwnableUnauthorizedAccount",
      "type": "error"
    },
    {
      "inputs": [],
      "name": "ReentrancyGuardReentrantCall",
      "type": "error"
    },
    {
      "anonymous": false,
      "inputs": [
        {
          "indexed": false,
          "internalType": "enum IvyCore.BreakerLevel",
          "name": "previousLevel",
          "type": "uint8"
        }
      ],
      "name": "CircuitBreakerReset",
      "type": "event"
    },
    {
      "anonymous": false,
      "inputs": [
        {
          "indexed": false,
          "internalType": "enum IvyCore.BreakerLevel",
          "name": "level",
          "type": "uint8"
        },
        {
          "indexed": false,
          "internalType": "uint256",
          "name": "activationTime",
          "type": "uint256"
        },
        {
          "indexed": false,
          "internalType": "uint256",
          "name": "activationPrice",
          "type": "uint256"
        }
      ],
      "name": "CircuitBreakerTriggered",
      "type": "event"
    },
    {
      "anonymous": false,
      "inputs": [
        {
          "indexed": false,
          "internalType": "uint256",
          "name": "newEmissionFactor",
          "type": "uint256"
        },
        {
          "indexed": false,
          "internalType": "uint256",
          "name": "totalMinted",
          "type": "uint256"
        }
      ],
      "name": "HalvingOccurred",
      "type": "event"
    },
    {
      "anonymous": false,
      "inputs": [
        {
          "indexed": true,
          "internalType": "address",
          "name": "user",
          "type": "address"
        },
        {
          "indexed": false,
          "internalType": "uint256",
          "name": "received",
          "type": "uint256"
        },
        {
          "indexed": false,
          "internalType": "uint256",
          "name": "burned",
          "type": "uint256"
        }
      ],
      "name": "InstantCashOut",
      "type": "event"
    },
    {
      "anonymous": false,
      "inputs": [
        {
          "indexed": true,
          "internalType": "address",
          "name": "previousOwner",
          "type": "address"
        },
        {
          "indexed": true,
          "internalType": "address",
          "name": "newOwner",
          "type": "address"
        }
      ],
      "name": "OwnershipTransferred",
      "type": "event"
    },
    {
      "anonymous": false,
      "inputs": [
        {
          "indexed": true,
          "internalType": "address",
          "name": "receiver",
          "type": "address"
        },
        {
          "indexed": true,
          "internalType": "address",
          "name": "capturer",
          "type": "address"
        },
        {
          "indexed": false,
          "internalType": "uint256",
          "name": "amount",
          "type": "uint256"
        }
      ],
      "name": "PeerBonusPaid",
      "type": "event"
    },
    {
      "anonymous": false,
      "inputs": [
        {
          "indexed": false,
          "internalType": "uint256",
          "name": "accIvyPerShare",
          "type": "uint256"
        },
        {
          "indexed": false,
          "internalType": "uint256",
          "name": "lastRewardTime",
          "type": "uint256"
        },
        {
          "indexed": false,
          "internalType": "uint256",
          "name": "totalPoolBondPower",
          "type": "uint256"
        }
      ],
      "name": "PoolUpdated",
      "type": "event"
    },
    {
      "anonymous": false,
      "inputs": [
        {
          "indexed": false,
          "internalType": "uint256",
          "name": "currentPrice",
          "type": "uint256"
        },
        {
          "indexed": false,
          "internalType": "uint256",
          "name": "ma30Price",
          "type": "uint256"
        },
        {
          "indexed": false,
          "internalType": "uint256",
          "name": "price1hAgo",
          "type": "uint256"
        }
      ],
      "name": "PriceUpdated",
      "type": "event"
    },
    {
      "anonymous": false,
      "inputs": [
        {
          "indexed": true,
          "internalType": "address",
          "name": "referrer",
          "type": "address"
        },
        {
          "indexed": true,
          "internalType": "address",
          "name": "from",
          "type": "address"
        },
        {
          "indexed": false,
          "internalType": "uint256",
          "name": "amount",
          "type": "uint256"
        },
        {
          "indexed": false,
          "internalType": "uint256",
          "name": "level",
          "type": "uint256"
        }
      ],
      "name": "ReferralRewardPaid",
      "type": "event"
    },
    {
      "anonymous": false,
      "inputs": [
        {
          "indexed": true,
          "internalType": "address",
          "name": "user",
          "type": "address"
        },
        {
          "indexed": false,
          "internalType": "uint256",
          "name": "amount",
          "type": "uint256"
        }
      ],
      "name": "RewardsHarvested",
      "type": "event"
    },
    {
      "anonymous": false,
      "inputs": [
        {
          "indexed": true,
          "internalType": "address",
          "name": "capturer",
          "type": "address"
        },
        {
          "indexed": true,
          "internalType": "address",
          "name": "blockedUpline",
          "type": "address"
        },
        {
          "indexed": false,
          "internalType": "uint256",
          "name": "amount",
          "type": "uint256"
        },
        {
          "indexed": false,
          "internalType": "uint256",
          "name": "depth",
          "type": "uint256"
        }
      ],
      "name": "TeamBonusCaptured",
      "type": "event"
    },
    {
      "anonymous": false,
      "inputs": [
        {
          "indexed": true,
          "internalType": "address",
          "name": "user",
          "type": "address"
        },
        {
          "indexed": false,
          "internalType": "uint256",
          "name": "bondPower",
          "type": "uint256"
        },
        {
          "indexed": false,
          "internalType": "uint256",
          "name": "rewardDebt",
          "type": "uint256"
        }
      ],
      "name": "UserSynced",
      "type": "event"
    },
    {
      "anonymous": false,
      "inputs": [
        {
          "indexed": true,
          "internalType": "address",
          "name": "user",
          "type": "address"
        },
        {
          "indexed": false,
          "internalType": "uint256",
          "name": "amount",
          "type": "uint256"
        }
      ],
      "name": "VestingClaimed",
      "type": "event"
    },
    {
      "anonymous": false,
      "inputs": [
        {
          "indexed": true,
          "internalType": "address",
          "name": "user",
          "type": "address"
        },
        {
          "indexed": false,
          "internalType": "uint256",
          "name": "amount",
          "type": "uint256"
        },
        {
          "indexed": false,
          "internalType": "uint256",
          "name": "startTime",
          "type": "uint256"
        }
      ],
      "name": "VestingStarted",
      "type": "event"
    },
    {
      "inputs": [],
      "name": "ACC_IVY_PRECISION",
      "outputs": [
        {
          "internalType": "uint256",
          "name": "",
          "type": "uint256"
        }
      ],
      "stateMutability": "view",
      "type": "function"
    },
    {
      "inputs": [],
      "name": "ALPHA_L1",
      "outputs": [
        {
          "internalType": "uint256",
          "name": "",
          "type": "uint256"
        }
      ],
      "stateMutability": "view",
      "type": "function"
    },
    {
      "inputs": [],
      "name": "ALPHA_L2",
      "outputs": [
        {
          "internalType": "uint256",
          "name": "",
          "type": "uint256"
        }
      ],
      "stateMutability": "view",
      "type": "function"
    },
    {
      "inputs": [],
      "name": "ALPHA_L3",
      "outputs": [
        {
          "internalType": "uint256",
          "name": "",
          "type": "uint256"
        }
      ],
      "stateMutability": "view",
      "type": "function"
    },
    {
      "inputs": [],
      "name": "BASE_DAILY_EMISSION",
      "outputs": [
        {
          "internalType": "uint256",
          "name": "",
          "type": "uint256"
        }
      ],
      "stateMutability": "view",
      "type": "function"
    },
    {
      "inputs": [],
      "name": "BASIS_POINTS",
      "outputs": [
        {
          "internalType": "uint256",
          "name": "",
          "type": "uint256"
        }
      ],
      "stateMutability": "view",
      "type": "function"
    },
    {
      "inputs": [],
      "name": "COOLDOWN_L1",
      "outputs": [
        {
          "internalType": "uint256",
          "name": "",
          "type": "uint256"
        }
      ],
      "stateMutability": "view",
      "type": "function"
    },
    {
      "inputs": [],
      "name": "COOLDOWN_L2",
      "outputs": [
        {
          "internalType": "uint256",
          "name": "",
          "type": "uint256"
        }
      ],
      "stateMutability": "view",
      "type": "function"
    },
    {
      "inputs": [],
      "name": "COOLDOWN_L3",
      "outputs": [
        {
          "internalType": "uint256",
          "name": "",
          "type": "uint256"
        }
      ],
      "stateMutability": "view",
      "type": "function"
    },
    {
      "inputs": [],
      "name": "DROP_L1",
      "outputs": [
        {
          "internalType": "int256",
          "name": "",
          "type": "int256"
        }
      ],
      "stateMutability": "view",
      "type": "function"
    },
    {
      "inputs": [],
      "name": "DROP_L2",
      "outputs": [
        {
          "internalType": "int256",
          "name": "",
          "type": "int256"
        }
      ],
      "stateMutability": "view",
      "type": "function"
    },
    {
      "inputs": [],
      "name": "DROP_L3",
      "outputs": [
        {
          "internalType": "int256",
          "name": "",
          "type": "int256"
        }
      ],
      "stateMutability": "view",
      "type": "function"
    },
    {
      "inputs": [],
      "name": "EMISSION_PER_SECOND",
      "outputs": [
        {
          "internalType": "uint256",
          "name": "",
          "type": "uint256"
        }
      ],
      "stateMutability": "view",
      "type": "function"
    },
    {
      "inputs": [],
      "name": "HALVING_DECAY",
      "outputs": [
        {
          "internalType": "uint256",
          "name": "",
          "type": "uint256"
        }
      ],
      "stateMutability": "view",
      "type": "function"
    },
    {
      "inputs": [],
      "name": "HALVING_THRESHOLD",
      "outputs": [
        {
          "internalType": "uint256",
          "name": "",
          "type": "uint256"
        }
      ],
      "stateMutability": "view",
      "type": "function"
    },
    {
      "inputs": [],
      "name": "HARD_CAP",
      "outputs": [
        {
          "internalType": "uint256",
          "name": "",
          "type": "uint256"
        }
      ],
      "stateMutability": "view",
      "type": "function"
    },
    {
      "inputs": [],
      "name": "INFINITE_RATE",
      "outputs": [
        {
          "internalType": "uint256",
          "name": "",
          "type": "uint256"
        }
      ],
      "stateMutability": "view",
      "type": "function"
    },
    {
      "inputs": [],
      "name": "INSTANT_CASH_PENALTY",
      "outputs": [
        {
          "internalType": "uint256",
          "name": "",
          "type": "uint256"
        }
      ],
      "stateMutability": "view",
      "type": "function"
    },
    {
      "inputs": [],
      "name": "L1_RATE",
      "outputs": [
        {
          "internalType": "uint256",
          "name": "",
          "type": "uint256"
        }
      ],
      "stateMutability": "view",
      "type": "function"
    },
    {
      "inputs": [],
      "name": "L2_RATE",
      "outputs": [
        {
          "internalType": "uint256",
          "name": "",
          "type": "uint256"
        }
      ],
      "stateMutability": "view",
      "type": "function"
    },
    {
      "inputs": [],
      "name": "MAX_REFERRAL_DEPTH",
      "outputs": [
        {
          "internalType": "uint256",
          "name": "",
          "type": "uint256"
        }
      ],
      "stateMutability": "view",
      "type": "function"
    },
    {
      "inputs": [],
      "name": "PEER_BONUS_RATE",
      "outputs": [
        {
          "internalType": "uint256",
          "name": "",
          "type": "uint256"
        }
      ],
      "stateMutability": "view",
      "type": "function"
    },
    {
      "inputs": [],
      "name": "PID_CAP",
      "outputs": [
        {
          "internalType": "uint256",
          "name": "",
          "type": "uint256"
        }
      ],
      "stateMutability": "view",
      "type": "function"
    },
    {
      "inputs": [],
      "name": "PID_FLOOR",
      "outputs": [
        {
          "internalType": "uint256",
          "name": "",
          "type": "uint256"
        }
      ],
      "stateMutability": "view",
      "type": "function"
    },
    {
      "inputs": [],
      "name": "PID_K",
      "outputs": [
        {
          "internalType": "uint256",
          "name": "",
          "type": "uint256"
        }
      ],
      "stateMutability": "view",
      "type": "function"
    },
    {
      "inputs": [],
      "name": "VESTING_PERIOD",
      "outputs": [
        {
          "internalType": "uint256",
          "name": "",
          "type": "uint256"
        }
      ],
      "stateMutability": "view",
      "type": "function"
    },
    {
      "inputs": [],
      "name": "accIvyPerShare",
      "outputs": [
        {
          "internalType": "uint256",
          "name": "",
          "type": "uint256"
        }
      ],
      "stateMutability": "view",
      "type": "function"
    },
    {
      "inputs": [],
      "name": "breakerState",
      "outputs": [
        {
          "internalType": "enum IvyCore.BreakerLevel",
          "name": "currentLevel",
          "type": "uint8"
        },
        {
          "internalType": "uint256",
          "name": "activationTime",
          "type": "uint256"
        },
        {
          "internalType": "uint256",
          "name": "activationPrice",
          "type": "uint256"
        }
      ],
      "stateMutability": "view",
      "type": "function"
    },
    {
      "inputs": [],
      "name": "checkCircuitBreaker",
      "outputs": [],
      "stateMutability": "nonpayable",
      "type": "function"
    },
    {
      "inputs": [],
      "name": "claimVested",
      "outputs": [],
      "stateMutability": "nonpayable",
      "type": "function"
    },
    {
      "inputs": [],
      "name": "currentDailyEmission",
      "outputs": [
        {
          "internalType": "uint256",
          "name": "",
          "type": "uint256"
        }
      ],
      "stateMutability": "view",
      "type": "function"
    },
    {
      "inputs": [],
      "name": "currentPrice",
      "outputs": [
        {
          "internalType": "uint256",
          "name": "",
          "type": "uint256"
        }
      ],
      "stateMutability": "view",
      "type": "function"
    },
    {
      "inputs": [],
      "name": "emissionFactor",
      "outputs": [
        {
          "internalType": "uint256",
          "name": "",
          "type": "uint256"
        }
      ],
      "stateMutability": "view",
      "type": "function"
    },
    {
      "inputs": [],
      "name": "genesisNode",
      "outputs": [
        {
          "internalType": "contract IGenesisNode",
          "name": "",
          "type": "address"
        }
      ],
      "stateMutability": "view",
      "type": "function"
    },
    {
      "inputs": [],
      "name": "getBreakerStatus",
      "outputs": [
        {
          "internalType": "enum IvyCore.BreakerLevel",
          "name": "level",
          "type": "uint8"
        },
        {
          "internalType": "uint256",
          "name": "activationTime",
          "type": "uint256"
        },
        {
          "internalType": "uint256",
          "name": "activationPrice",
          "type": "uint256"
        },
        {
          "internalType": "uint256",
          "name": "timeRemaining",
          "type": "uint256"
        },
        {
          "internalType": "uint256",
          "name": "forcedAlpha",
          "type": "uint256"
        }
      ],
      "stateMutability": "view",
      "type": "function"
    },
    {
      "inputs": [],
      "name": "getFinalMultiplier",
      "outputs": [
        {
          "internalType": "uint256",
          "name": "",
          "type": "uint256"
        }
      ],
      "stateMutability": "view",
      "type": "function"
    },
    {
      "inputs": [],
      "name": "getHalvingInfo",
      "outputs": [
        {
          "internalType": "uint256",
          "name": "_halvingCount",
          "type": "uint256"
        },
        {
          "internalType": "uint256",
          "name": "_emissionFactor",
          "type": "uint256"
        },
        {
          "internalType": "uint256",
          "name": "_nextHalvingAt",
          "type": "uint256"
        },
        {
          "internalType": "uint256",
          "name": "_progressToNextHalving",
          "type": "uint256"
        }
      ],
      "stateMutability": "view",
      "type": "function"
    },
    {
      "inputs": [],
      "name": "getPIDAlpha",
      "outputs": [
        {
          "internalType": "uint256",
          "name": "",
          "type": "uint256"
        }
      ],
      "stateMutability": "view",
      "type": "function"
    },
    {
      "inputs": [],
      "name": "getProtocolStats",
      "outputs": [
        {
          "internalType": "uint256",
          "name": "_totalMinted",
          "type": "uint256"
        },
        {
          "internalType": "uint256",
          "name": "_hardCap",
          "type": "uint256"
        },
        {
          "internalType": "uint256",
          "name": "_emissionFactor",
          "type": "uint256"
        },
        {
          "internalType": "uint256",
          "name": "_finalMultiplier",
          "type": "uint256"
        },
        {
          "internalType": "uint256",
          "name": "_totalPoolBondPower",
          "type": "uint256"
        },
        {
          "internalType": "uint256",
          "name": "_emissionPerSecond",
          "type": "uint256"
        },
        {
          "internalType": "uint256",
          "name": "_currentDailyEmission",
          "type": "uint256"
        },
        {
          "internalType": "uint256",
          "name": "_halvingCount",
          "type": "uint256"
        }
      ],
      "stateMutability": "view",
      "type": "function"
    },
    {
      "inputs": [
        {
          "internalType": "address",
          "name": "user",
          "type": "address"
        }
      ],
      "name": "getUserMiningStats",
      "outputs": [
        {
          "internalType": "uint256",
          "name": "bondPower",
          "type": "uint256"
        },
        {
          "internalType": "uint256",
          "name": "pendingRewards",
          "type": "uint256"
        },
        {
          "internalType": "uint256",
          "name": "totalVested",
          "type": "uint256"
        },
        {
          "internalType": "uint256",
          "name": "totalClaimed",
          "type": "uint256"
        },
        {
          "internalType": "uint256",
          "name": "claimableNow",
          "type": "uint256"
        }
      ],
      "stateMutability": "view",
      "type": "function"
    },
    {
      "inputs": [
        {
          "internalType": "address",
          "name": "user",
          "type": "address"
        }
      ],
      "name": "getVestingInfo",
      "outputs": [
        {
          "internalType": "uint256",
          "name": "totalVested",
          "type": "uint256"
        },
        {
          "internalType": "uint256",
          "name": "totalClaimed",
          "type": "uint256"
        },
        {
          "internalType": "uint256",
          "name": "vestingStartTime",
          "type": "uint256"
        },
        {
          "internalType": "uint256",
          "name": "claimableNow",
          "type": "uint256"
        },
        {
          "internalType": "uint256",
          "name": "remainingLocked",
          "type": "uint256"
        },
        {
          "internalType": "uint256",
          "name": "vestingProgress",
          "type": "uint256"
        }
      ],
      "stateMutability": "view",
      "type": "function"
    },
    {
      "inputs": [],
      "name": "halvingCount",
      "outputs": [
        {
          "internalType": "uint256",
          "name": "",
          "type": "uint256"
        }
      ],
      "stateMutability": "view",
      "type": "function"
    },
    {
      "inputs": [],
      "name": "harvest",
      "outputs": [],
      "stateMutability": "nonpayable",
      "type": "function"
    },
    {
      "inputs": [],
      "name": "instantCashOut",
      "outputs": [],
      "stateMutability": "nonpayable",
      "type": "function"
    },
    {
      "inputs": [],
      "name": "ivyBond",
      "outputs": [
        {
          "internalType": "contract IIvyBond",
          "name": "",
          "type": "address"
        }
      ],
      "stateMutability": "view",
      "type": "function"
    },
    {
      "inputs": [],
      "name": "ivyToken",
      "outputs": [
        {
          "internalType": "contract IvyToken",
          "name": "",
          "type": "address"
        }
      ],
      "stateMutability": "view",
      "type": "function"
    },
    {
      "inputs": [],
      "name": "lastHalvingMinted",
      "outputs": [
        {
          "internalType": "uint256",
          "name": "",
          "type": "uint256"
        }
      ],
      "stateMutability": "view",
      "type": "function"
    },
    {
      "inputs": [],
      "name": "lastRewardTime",
      "outputs": [
        {
          "internalType": "uint256",
          "name": "",
          "type": "uint256"
        }
      ],
      "stateMutability": "view",
      "type": "function"
    },
    {
      "inputs": [],
      "name": "ma30Price",
      "outputs": [
        {
          "internalType": "uint256",
          "name": "",
          "type": "uint256"
        }
      ],
      "stateMutability": "view",
      "type": "function"
    },
    {
      "inputs": [],
      "name": "owner",
      "outputs": [
        {
          "internalType": "address",
          "name": "",
          "type": "address"
        }
      ],
      "stateMutability": "view",
      "type": "function"
    },
    {
      "inputs": [
        {
          "internalType": "address",
          "name": "user",
          "type": "address"
        }
      ],
      "name": "pendingIvy",
      "outputs": [
        {
          "internalType": "uint256",
          "name": "",
          "type": "uint256"
        }
      ],
      "stateMutability": "view",
      "type": "function"
    },
    {
      "inputs": [],
      "name": "price1hAgo",
      "outputs": [
        {
          "internalType": "uint256",
          "name": "",
          "type": "uint256"
        }
      ],
      "stateMutability": "view",
      "type": "function"
    },
    {
      "inputs": [
        {
          "internalType": "address",
          "name": "",
          "type": "address"
        }
      ],
      "name": "referralRewardsEarned",
      "outputs": [
        {
          "internalType": "uint256",
          "name": "",
          "type": "uint256"
        }
      ],
      "stateMutability": "view",
      "type": "function"
    },
    {
      "inputs": [],
      "name": "renounceOwnership",
      "outputs": [],
      "stateMutability": "nonpayable",
      "type": "function"
    },
    {
      "inputs": [],
      "name": "resetCircuitBreaker",
      "outputs": [],
      "stateMutability": "nonpayable",
      "type": "function"
    },
    {
      "inputs": [
        {
          "internalType": "address",
          "name": "_genesisNode",
          "type": "address"
        }
      ],
      "name": "setGenesisNode",
      "outputs": [],
      "stateMutability": "nonpayable",
      "type": "function"
    },
    {
      "inputs": [
        {
          "internalType": "address",
          "name": "_ivyBond",
          "type": "address"
        }
      ],
      "name": "setIvyBond",
      "outputs": [],
      "stateMutability": "nonpayable",
      "type": "function"
    },
    {
      "inputs": [
        {
          "internalType": "address",
          "name": "user",
          "type": "address"
        }
      ],
      "name": "syncUser",
      "outputs": [],
      "stateMutability": "nonpayable",
      "type": "function"
    },
    {
      "inputs": [],
      "name": "totalMinted",
      "outputs": [
        {
          "internalType": "uint256",
          "name": "",
          "type": "uint256"
        }
      ],
      "stateMutability": "view",
      "type": "function"
    },
    {
      "inputs": [],
      "name": "totalPoolBondPower",
      "outputs": [
        {
          "internalType": "uint256",
          "name": "",
          "type": "uint256"
        }
      ],
      "stateMutability": "view",
      "type": "function"
    },
    {
      "inputs": [
        {
          "internalType": "address",
          "name": "newOwner",
          "type": "address"
        }
      ],
      "name": "transferOwnership",
      "outputs": [],
      "stateMutability": "nonpayable",
      "type": "function"
    },
    {
      "inputs": [],
      "name": "updatePool",
      "outputs": [],
      "stateMutability": "nonpayable",
      "type": "function"
    },
    {
      "inputs": [
        {
          "internalType": "uint256",
          "name": "_currentPrice",
          "type": "uint256"
        },
        {
          "internalType": "uint256",
          "name": "_ma30Price",
          "type": "uint256"
        },
        {
          "internalType": "uint256",
          "name": "_price1hAgo",
          "type": "uint256"
        }
      ],
      "name": "updatePrices",
      "outputs": [],
      "stateMutability": "nonpayable",
      "type": "function"
    },
    {
      "inputs": [
        {
          "internalType": "address",
          "name": "",
          "type": "address"
        }
      ],
      "name": "userInfo",
      "outputs": [
        {
          "internalType": "uint256",
          "name": "bondPower",
          "type": "uint256"
        },
        {
          "internalType": "uint256",
          "name": "rewardDebt",
          "type": "uint256"
        },
        {
          "internalType": "uint256",
          "name": "pendingVested",
          "type": "uint256"
        },
        {
          "internalType": "uint256",
          "name": "vestingStartTime",
          "type": "uint256"
        },
        {
          "internalType": "uint256",
          "name": "totalVested",
          "type": "uint256"
        },
        {
          "internalType": "uint256",
          "name": "totalClaimed",
          "type": "uint256"
        }
      ],
      "stateMutability": "view",
      "type": "function"
    }
  ],
  "bytecode": "0x6080604052670de0b6b3a7640000600b55670de0b6b3a7640000600f55670de0b6b3a7640000601055670de0b6b3a76400006011553480156200004157600080fd5b506040516200484638038062004846833981810160405281019062000067919062000273565b33600073ffffffffffffffffffffffffffffffffffffffff168173ffffffffffffffffffffffffffffffffffffffff1603620000dd5760006040517f1e4fbdf7000000000000000000000000000000000000000000000000000000008152600401620000d49190620002b6565b60405180910390fd5b620000ee816200014560201b60201c565b506001808190555080600460006101000a81548173ffffffffffffffffffffffffffffffffffffffff021916908373ffffffffffffffffffffffffffffffffffffffff1602179055504260098190555050620002d3565b60008060009054906101000a900473ffffffffffffffffffffffffffffffffffffffff169050816000806101000a81548173ffffffffffffffffffffffffffffffffffffffff021916908373ffffffffffffffffffffffffffffffffffffffff1602179055508173ffffffffffffffffffffffffffffffffffffffff168173ffffffffffffffffffffffffffffffffffffffff167f8be0079c531659141344cd1fd0a4f28419497f9722a3daafe3b4186f6b6457e060405160405180910390a35050565b600080fd5b600073ffffffffffffffffffffffffffffffffffffffff82169050919050565b60006200023b826200020e565b9050919050565b6200024d816200022e565b81146200025957600080fd5b50565b6000815190506200026d8162000242565b92915050565b6000602082840312156200028c576200028b62000209565b5b60006200029c848285016200025c565b91505092915050565b620002b0816200022e565b82525050565b6000602082019050620002cd6000830184620002a5565b92915050565b61456380620002e36000396000f3fe608060405234801561001057600080fd5b50600436106103d05760003560e01c8063983d896e116101ff578063dcebf6811161011a578063e979ca4a116100ad578063f706555b1161007c578063f706555b14610aa8578063f864233114610ac6578063fb897ce414610ae4578063fc84d91314610b19576103d0565b8063e979ca4a14610a46578063eacf59c814610a50578063eef1be2c14610a6e578063f2fde38b14610a8c576103d0565b8063e3161ddd116100e9578063e3161ddd146109d2578063e4147ca2146109dc578063e4941c39146109fa578063e88067e814610a2a576103d0565b8063dcebf6811461096e578063de5f8d931461098c578063e0c9bc6214610996578063e1f1c4a7146109b4576103d0565b8063a29a7ab011610192578063d01c44cd11610161578063d01c44cd1461091e578063d2121b4e14610928578063d2522baa14610946578063da6510b414610950576103d0565b8063a29a7ab014610894578063a95d5a60146108c4578063b3def2f5146108e2578063cda80bfa14610900576103d0565b80639d1b464a116101ce5780639d1b464a1461081c5780639f55d64c1461083a578063a2309ff814610858578063a28aee1514610876576103d0565b8063983d896e146107a45780639b565faa146107c25780639c41ee67146107e05780639d14b2a2146107fe576103d0565b80633ed620a4116102ef578063763f6206116102825780638e8b6c88116102515780638e8b6c881461072e5780639231cf741461074a578063934b7c5414610768578063945c3ebd14610786576103d0565b8063763f6206146106ad578063771aceef146106cd57806389e59ea0146106f25780638da5cb5b14610710576103d0565b806352aa8a5e116102be57806352aa8a5e146106335780635e147f9014610651578063715018a61461066f57806374c7773e14610679576103d0565b80633ed620a4146105d1578063458f8f94146105ed5780634641257d1461060b5780634897fffb14610615576103d0565b80631959a002116103675780632b5615d2116103365780632b5615d21461055957806336be3538146105775780633a03171c146105955780633eceb63e146105b3576103d0565b80631959a002146104ca57806321cccba2146104ff578063277c19b01461051d578063291465551461053b576103d0565b8063091075a9116103a3578063091075a91461044f5780630c2330a51461046d57806310d60dc41461048b578063123d1179146104ac576103d0565b80630197d972146103d5578063033d30fe146103f357806303e45a4b1461040f5780630420bace14610431575b600080fd5b6103dd610b37565b6040516103ea9190613763565b60405180910390f35b61040d600480360381019061040891906137e1565b610b3e565b005b610417610bf9565b604051610428959493929190613885565b60405180910390f35b610439610d46565b6040516104469190613763565b60405180910390f35b610457610d52565b6040516104649190613763565b60405180910390f35b610475610da2565b6040516104829190613763565b60405180910390f35b610493610da8565b6040516104a394939291906138d8565b60405180910390f35b6104b4610e36565b6040516104c19190613936565b60405180910390f35b6104e460048036038101906104df91906137e1565b610e5a565b6040516104f696959493929190613951565b60405180910390f35b610507610e96565b6040516105149190613763565b60405180910390f35b610525610ea2565b6040516105329190613763565b60405180910390f35b610543610ea7565b6040516105509190613a11565b60405180910390f35b610561610ecd565b60405161056e9190613763565b60405180910390f35b61057f610ed9565b60405161058c9190613763565b60405180910390f35b61059d610edf565b6040516105aa9190613763565b60405180910390f35b6105bb610eee565b6040516105c89190613763565b60405180910390f35b6105eb60048036038101906105e69190613a58565b610ef4565b005b6105f5610fac565b6040516106029190613763565b60405180910390f35b610613610fb5565b005b61061d6111fa565b60405161062a9190613acc565b60405180910390f35b61063b611220565b6040516106489190613763565b60405180910390f35b610659611235565b6040516106669190613936565b60405180910390f35b610677611259565b005b610693600480360381019061068e91906137e1565b61126d565b6040516106a4959493929190613ae7565b60405180910390f35b6106b5611373565b6040516106c493929190613b3a565b60405180910390f35b6106d5611398565b6040516106e9989796959493929190613b71565b60405180910390f35b6106fa611434565b6040516107079190613763565b60405180910390f35b610718611439565b6040516107259190613bfe565b60405180910390f35b610748600480360381019061074391906137e1565b611462565b005b61075261146e565b60405161075f9190613763565b60405180910390f35b610770611474565b60405161077d9190613763565b60405180910390f35b61078e61147a565b60405161079b9190613763565b60405180910390f35b6107ac611488565b6040516107b99190613763565b60405180910390f35b6107ca61148d565b6040516107d79190613c3a565b60405180910390f35b6107e86114b3565b6040516107f59190613763565b60405180910390f35b6108066114b8565b6040516108139190613763565b60405180910390f35b6108246114be565b6040516108319190613763565b60405180910390f35b6108426114c4565b60405161084f9190613763565b60405180910390f35b6108606114d3565b60405161086d9190613763565b60405180910390f35b61087e6114d9565b60405161088b9190613763565b60405180910390f35b6108ae60048036038101906108a991906137e1565b6114f5565b6040516108bb9190613763565b60405180910390f35b6108cc61150d565b6040516108d99190613763565b60405180910390f35b6108ea611519565b6040516108f79190613763565b60405180910390f35b61090861151f565b6040516109159190613763565b60405180910390f35b61092661152a565b005b6109306117c5565b60405161093d9190613763565b60405180910390f35b61094e6117cb565b005b61095861195d565b6040516109659190613763565b60405180910390f35b610976611963565b6040516109839190613763565b60405180910390f35b61099461196f565b005b61099e611b78565b6040516109ab9190613936565b60405180910390f35b6109bc611b9c565b6040516109c99190613763565b60405180910390f35b6109da611ba2565b005b6109e4611d04565b6040516109f19190613763565b60405180910390f35b610a146004803603810190610a0f91906137e1565b611e85565b604051610a219190613763565b60405180910390f35b610a446004803603810190610a3f91906137e1565b611fe9565b005b610a4e6120a4565b005b610a58612335565b604051610a659190613763565b60405180910390f35b610a7661233c565b604051610a839190613763565b60405180910390f35b610aa66004803603810190610aa191906137e1565b612342565b005b610ab06123c8565b604051610abd9190613763565b60405180910390f35b610ace6123ce565b604051610adb9190613763565b60405180910390f35b610afe6004803603810190610af991906137e1565b6123d4565b604051610b1096959493929190613951565b60405180910390f35b610b21612506565b604051610b2e9190613763565b60405180910390f35b62278d0081565b610b4661250c565b600073ffffffffffffffffffffffffffffffffffffffff168173ffffffffffffffffffffffffffffffffffffffff1603610bb5576040517f08c379a0000000000000000000000000000000000000000000000000000000008152600401610bac90613cb2565b60405180910390fd5b80600360006101000a81548173ffffffffffffffffffffffffffffffffffffffff021916908373ffffffffffffffffffffffffffffffffffffffff16021790555050565b6000806000806000600560000160009054906101000a900460ff1694506005600101549350600560020154925060006003811115610c3a57610c3961380e565b5b856003811115610c4d57610c4c61380e565b5b03610c6f57846000806000610c60611d04565b94509450945094509450610d3f565b600060056001015442610c829190613d01565b9050600080600380811115610c9a57610c9961380e565b5b886003811115610cad57610cac61380e565b5b03610cc75762015180915066b1a2bc2ec500009050610d1a565b60026003811115610cdb57610cda61380e565b5b886003811115610cee57610ced61380e565b5b03610d085761a8c091506702c68af0bb1400009050610d19565b61384091506706f05b59d3b2000090505b5b81831015610d33578282610d2e9190613d01565b610d36565b60005b94508093505050505b9091929394565b6706f05b59d3b2000081565b600080610d5d611d04565b90506ec097ce7bc90715b34b9f100000000081600b5469065a4da25d3016c00000610d889190613d35565b610d929190613d35565b610d9c9190613da6565b91505090565b61138881565b600080600080600e549350600b5492506a05ca4ec2a79a7f670000006001600e54610dd39190613dd7565b610ddd9190613d35565b915060006a05ca4ec2a79a7f67000000600e54610dfa9190613d35565b600c54610e079190613d01565b90506a05ca4ec2a79a7f6700000061271082610e239190613d35565b610e2d9190613da6565b91505090919293565b7fffffffffffffffffffffffffffffffffffffffffffffffffffffffffffffffe781565b60126020528060005260406000206000915090508060000154908060010154908060020154908060030154908060040154908060050154905086565b6714d1120d7b16000081565b60c881565b600360009054906101000a900473ffffffffffffffffffffffffffffffffffffffff1681565b67016345785d8a000081565b61384081565b6a52b7d2dcc80cd2e400000081565b61a8c081565b610efc61250c565b600083118015610f0c5750600082115b8015610f185750600081115b610f57576040517f08c379a0000000000000000000000000000000000000000000000000000000008152600401610f4e90613e57565b60405180910390fd5b82600f8190555081601081905550806011819055507f15819dd2fd9f6418b142e798d08a18d0bf06ea368f4480b7b0d3f75bd966bc48838383604051610f9f93929190613e77565b60405180910390a1505050565b64e8d4a5100081565b610fbd612593565b6000339050610fcb816125d9565b6000601260008373ffffffffffffffffffffffffffffffffffffffff1673ffffffffffffffffffffffffffffffffffffffff16815260200190815260200160002090506000816002015490506000811161105a576040517f08c379a000000000000000000000000000000000000000000000000000000000815260040161105190613efa565b60405180910390fd5b60008260020181905550808260040160008282546110789190613dd7565b925050819055506000826003015403611095574282600301819055505b80600c60008282546110a79190613dd7565b92505081905550600460009054906101000a900473ffffffffffffffffffffffffffffffffffffffff1673ffffffffffffffffffffffffffffffffffffffff166340c10f1930836040518363ffffffff1660e01b815260040161110b929190613f1a565b600060405180830381600087803b15801561112557600080fd5b505af1158015611139573d6000803e3d6000fd5b50505050611145612950565b61114f8382612a1a565b8273ffffffffffffffffffffffffffffffffffffffff167fbc8fb63d817de4fabea2108e9b7eefca87245899f4b357636c26b5cad02ec5b4826040516111959190613763565b60405180910390a28273ffffffffffffffffffffffffffffffffffffffff167f8fe19f160f86d04fb1a90dde93e5e1a47df0810685adf4b990153c107d7b392482426040516111e5929190613f43565b60405180910390a25050506111f86135d2565b565b600460009054906101000a900473ffffffffffffffffffffffffffffffffffffffff1681565b6000611230600f546010546135db565b905090565b7ffffffffffffffffffffffffffffffffffffffffffffffffffffffffffffffff681565b61126161250c565b61126b600061367e565b565b600080600080600080601260008873ffffffffffffffffffffffffffffffffffffffff1673ffffffffffffffffffffffffffffffffffffffff1681526020019081526020016000209050806000015495506112c787611e85565b94508060040154935080600501549250600081600301541180156112ef575060008160040154115b156113695760008160030154426113069190613d01565b9050600062278d0082106113205782600401549050611341565b62278d008284600401546113349190613d35565b61133e9190613da6565b90505b82600501548111611353576000611364565b8260050154816113639190613d01565b5b935050505b5091939590929450565b60058060000160009054906101000a900460ff16908060010154908060020154905083565b600080600080600080600080600c5497506a52b7d2dcc80cd2e40000009650600b5495506113c4611d04565b9450600a5493506201518069065a4da25d3016c000006113e49190613da6565b92506ec097ce7bc90715b34b9f100000000085600b5469065a4da25d3016c0000061140f9190613d35565b6114199190613d35565b6114239190613da6565b9150600e5490509091929394959697565b601481565b60008060009054906101000a900473ffffffffffffffffffffffffffffffffffffffff16905090565b61146b816125d9565b50565b60095481565b600d5481565b69065a4da25d3016c0000081565b605f81565b600260009054906101000a900473ffffffffffffffffffffffffffffffffffffffff1681565b603281565b600a5481565b600f5481565b6a05ca4ec2a79a7f6700000081565b600c5481565b6201518069065a4da25d3016c000006114f29190613da6565b81565b60136020528060005260406000206000915090505481565b6702c68af0bb14000081565b600b5481565b66b1a2bc2ec5000081565b611532612593565b60003390506000601260008373ffffffffffffffffffffffffffffffffffffffff1673ffffffffffffffffffffffffffffffffffffffff168152602001908152602001600020905060008160040154116115c1576040517f08c379a00000000000000000000000000000000000000000000000000000000081526004016115b890613fb8565b60405180910390fd5b6000816003015411611608576040517f08c379a00000000000000000000000000000000000000000000000000000000081526004016115ff90614024565b60405180910390fd5b600081600301544261161a9190613d01565b9050600062278d0082106116345782600401549050611655565b62278d008284600401546116489190613d35565b6116529190613da6565b90505b60008360050154826116679190613d01565b9050600081116116ac576040517f08c379a00000000000000000000000000000000000000000000000000000000081526004016116a390614090565b60405180910390fd5b808460050160008282546116c09190613dd7565b92505081905550600460009054906101000a900473ffffffffffffffffffffffffffffffffffffffff1673ffffffffffffffffffffffffffffffffffffffff1663a9059cbb86836040518363ffffffff1660e01b8152600401611724929190613f1a565b6020604051808303816000875af1158015611743573d6000803e3d6000fd5b505050506040513d601f19601f8201168201806040525081019061176791906140e8565b508473ffffffffffffffffffffffffffffffffffffffff167f9fe9b7be9d151c7a8b6de49a1312ff27a15096d0d1d12999af85fe4310e0b125826040516117ae9190613763565b60405180910390a250505050506117c36135d2565b565b60105481565b6000601154031561195b576000601154600f546117e89190614115565b905060006011546064836117fc9190614158565b61180691906141d0565b905060007fffffffffffffffffffffffffffffffffffffffffffffffffffffffffffffffe7821361183a5760039050611898565b7ffffffffffffffffffffffffffffffffffffffffffffffffffffffffffffffff1821361186a5760029050611897565b7ffffffffffffffffffffffffffffffffffffffffffffffffffffffffffffffff6821361189657600190505b5b5b600560000160009054906101000a900460ff1660038111156118bd576118bc61380e565b5b8160038111156118d0576118cf61380e565b5b11156119575780600560000160006101000a81548160ff021916908360038111156118fe576118fd61380e565b5b021790555042600560010181905550600f546005600201819055507f4fa52a45d7e5a216674f536c9e84f867dce6e9a6c6b5fe88f640855bf92256818142600f5460405161194e93929190613b3a565b60405180910390a15b5050505b565b6101f481565b671bc16d674ec8000081565b61197761250c565b6000600381111561198b5761198a61380e565b5b600560000160009054906101000a900460ff1660038111156119b0576119af61380e565b5b036119f0576040517f08c379a00000000000000000000000000000000000000000000000000000000081526004016119e790614286565b60405180910390fd5b600060056001015442611a039190613d01565b90506000600380811115611a1a57611a1961380e565b5b600560000160009054906101000a900460ff166003811115611a3f57611a3e61380e565b5b03611a4f57620151809050611a9e565b60026003811115611a6357611a6261380e565b5b600560000160009054906101000a900460ff166003811115611a8857611a8761380e565b5b03611a975761a8c09050611a9d565b61384090505b5b80821015611ae1576040517f08c379a0000000000000000000000000000000000000000000000000000000008152600401611ad8906142f2565b60405180910390fd5b6000600560000160009054906101000a900460ff1690506000600560000160006101000a81548160ff02191690836003811115611b2157611b2061380e565b5b0217905550600060056001018190555060006005600201819055507f07130c8b39a90581223fe2d149b6458e7d26925c0ea5c3156721b96e564c365981604051611b6b9190614312565b60405180910390a1505050565b7ffffffffffffffffffffffffffffffffffffffffffffffffffffffffffffffff181565b61271081565b600954421115611d02576000600a5403611bc25742600981905550611d02565b600060095442611bd29190613d01565b90506000611bde611d04565b905060006ec097ce7bc90715b34b9f100000000082600b546201518069065a4da25d3016c00000611c0f9190613da6565b86611c1a9190613d35565b611c249190613d35565b611c2e9190613d35565b611c389190613da6565b90506a52b7d2dcc80cd2e400000081600c54611c549190613dd7565b1115611c7657600c546a52b7d2dcc80cd2e4000000611c739190613d01565b90505b6000811115611cb657600a5464e8d4a5100082611c939190613d35565b611c9d9190613da6565b60086000828254611cae9190613dd7565b925050819055505b426009819055507f17b8644f386d1c7c7138ef98b3c8035622bbe94d7be9b26f71d2654a547c2943600854600954600a54604051611cf693929190613e77565b60405180910390a15050505b565b6000806003811115611d1957611d1861380e565b5b600560000160009054906101000a900460ff166003811115611d3e57611d3d61380e565b5b14611e7157600060056001015442611d569190613d01565b9050600380811115611d6b57611d6a61380e565b5b600560000160009054906101000a900460ff166003811115611d9057611d8f61380e565b5b03611db55762015180811015611db05766b1a2bc2ec50000915050611e82565b611e6f565b60026003811115611dc957611dc861380e565b5b600560000160009054906101000a900460ff166003811115611dee57611ded61380e565b5b03611e135761a8c0811015611e0e576702c68af0bb140000915050611e82565b611e6e565b60016003811115611e2757611e2661380e565b5b600560000160009054906101000a900460ff166003811115611e4c57611e4b61380e565b5b03611e6d57613840811015611e6c576706f05b59d3b20000915050611e82565b5b5b5b505b611e7f600f546010546135db565b90505b90565b600080601260008473ffffffffffffffffffffffffffffffffffffffff1673ffffffffffffffffffffffffffffffffffffffff16815260200190815260200160002090506000600854905060095442118015611ee357506000600a54115b15611f8f57600060095442611ef89190613d01565b90506000611f04611d04565b905060006ec097ce7bc90715b34b9f100000000082600b546201518069065a4da25d3016c00000611f359190613da6565b86611f409190613d35565b611f4a9190613d35565b611f549190613d35565b611f5e9190613da6565b9050600a5464e8d4a5100082611f749190613d35565b611f7e9190613da6565b84611f899190613dd7565b93505050505b60008083600001541115611fcf57826001015464e8d4a51000838560000154611fb89190613d35565b611fc29190613da6565b611fcc9190613d01565b90505b826002015481611fdf9190613dd7565b9350505050919050565b611ff161250c565b600073ffffffffffffffffffffffffffffffffffffffff168173ffffffffffffffffffffffffffffffffffffffff1603612060576040517f08c379a000000000000000000000000000000000000000000000000000000000815260040161205790613cb2565b60405180910390fd5b80600260006101000a81548173ffffffffffffffffffffffffffffffffffffffff021916908373ffffffffffffffffffffffffffffffffffffffff16021790555050565b6120ac612593565b60003390506000601260008373ffffffffffffffffffffffffffffffffffffffff1673ffffffffffffffffffffffffffffffffffffffff1681526020019081526020016000209050806005015481600401541161213e576040517f08c379a000000000000000000000000000000000000000000000000000000000815260040161213590614379565b60405180910390fd5b6000816005015482600401546121549190613d01565b90506000612710611388836121699190613d35565b6121739190613da6565b9050600081836121839190613d01565b905083600401548460050181905550600460009054906101000a900473ffffffffffffffffffffffffffffffffffffffff1673ffffffffffffffffffffffffffffffffffffffff1663a9059cbb86836040518363ffffffff1660e01b81526004016121ef929190613f1a565b6020604051808303816000875af115801561220e573d6000803e3d6000fd5b505050506040513d601f19601f8201168201806040525081019061223291906140e8565b50600460009054906101000a900473ffffffffffffffffffffffffffffffffffffffff1673ffffffffffffffffffffffffffffffffffffffff1663a9059cbb61dead846040518363ffffffff1660e01b8152600401612292929190613f1a565b6020604051808303816000875af11580156122b1573d6000803e3d6000fd5b505050506040513d601f19601f820116820180604052508101906122d591906140e8565b508473ffffffffffffffffffffffffffffffffffffffff167f92207ec016968e0ee608b41c92470ff10e9f810a8dec5f40901974ac75ed498e828460405161231e929190613f43565b60405180910390a250505050506123336135d2565b565b6201518081565b60085481565b61234a61250c565b600073ffffffffffffffffffffffffffffffffffffffff168173ffffffffffffffffffffffffffffffffffffffff16036123bc5760006040517f1e4fbdf70000000000000000000000000000000000000000000000000000000081526004016123b39190613bfe565b60405180910390fd5b6123c58161367e565b50565b6103e881565b60115481565b6000806000806000806000601260008973ffffffffffffffffffffffffffffffffffffffff1673ffffffffffffffffffffffffffffffffffffffff16815260200190815260200160002090508060040154965080600501549550806003015494506000816003015411801561244d575060008160040154115b156124fc5760008160030154426124649190613d01565b9050600062278d008210612483578260040154905061271093506124c2565b62278d008284600401546124979190613d35565b6124a19190613da6565b905062278d00612710836124b59190613d35565b6124bf9190613da6565b93505b826005015481116124d45760006124e5565b8260050154816124e49190613d01565b5b95508083600401546124f79190613d01565b945050505b5091939550919395565b600e5481565b612514613742565b73ffffffffffffffffffffffffffffffffffffffff16612532611439565b73ffffffffffffffffffffffffffffffffffffffff161461259157612555613742565b6040517f118cdaa70000000000000000000000000000000000000000000000000000000081526004016125889190613bfe565b60405180910390fd5b565b6002600154036125cf576040517f3ee5aeb500000000000000000000000000000000000000000000000000000000815260040160405180910390fd5b6002600181905550565b6125e1611ba2565b6000601260008373ffffffffffffffffffffffffffffffffffffffff1673ffffffffffffffffffffffffffffffffffffffff168152602001908152602001600020905060008073ffffffffffffffffffffffffffffffffffffffff16600360009054906101000a900473ffffffffffffffffffffffffffffffffffffffff1673ffffffffffffffffffffffffffffffffffffffff161461271a57600360009054906101000a900473ffffffffffffffffffffffffffffffffffffffff1673ffffffffffffffffffffffffffffffffffffffff1663ab0229a0846040518263ffffffff1660e01b81526004016126d69190613bfe565b602060405180830381865afa1580156126f3573d6000803e3d6000fd5b505050506040513d601f19601f8201168201806040525081019061271791906143ae565b90505b60008073ffffffffffffffffffffffffffffffffffffffff16600260009054906101000a900473ffffffffffffffffffffffffffffffffffffffff1673ffffffffffffffffffffffffffffffffffffffff161461281057600260009054906101000a900473ffffffffffffffffffffffffffffffffffffffff1673ffffffffffffffffffffffffffffffffffffffff166304d1334f856040518263ffffffff1660e01b81526004016127cc9190613bfe565b602060405180830381865afa1580156127e9573d6000803e3d6000fd5b505050506040513d601f19601f8201168201806040525081019061280d91906143ae565b90505b6000612710826127106128239190613dd7565b8461282e9190613d35565b6128389190613da6565b90506000846000015411156128a3576000846001015464e8d4a5100060085487600001546128669190613d35565b6128709190613da6565b61287a9190613d01565b905060008111156128a157808560020160008282546128999190613dd7565b925050819055505b505b808460000154600a546128b69190613d01565b6128c09190613dd7565b600a8190555080846000018190555064e8d4a51000600854826128e39190613d35565b6128ed9190613da6565b84600101819055508473ffffffffffffffffffffffffffffffffffffffff167fdfc331ca16b8c4320a402867e832423d16ad3de953e474a499baf3697aa9e894828660010154604051612941929190613f43565b60405180910390a25050505050565b5b6a05ca4ec2a79a7f670000006001600e5461296c9190613dd7565b6129769190613d35565b600c5410612a18576064605f600b5461298f9190613d35565b6129999190613da6565b600b81905550600e60008154809291906129b2906143db565b91905055506a05ca4ec2a79a7f67000000600e546129d09190613d35565b600d819055507fde141711fef892cdaea55f1f6a85e241382fcefc69efdb496eff235992a18ed4600b54600c54604051612a0b929190613f43565b60405180910390a1612951565b565b600073ffffffffffffffffffffffffffffffffffffffff16600260009054906101000a900473ffffffffffffffffffffffffffffffffffffffff1673ffffffffffffffffffffffffffffffffffffffff1603156135ce576000600260009054906101000a900473ffffffffffffffffffffffffffffffffffffffff1673ffffffffffffffffffffffffffffffffffffffff16634a9fefc7846040518263ffffffff1660e01b8152600401612ace9190613bfe565b602060405180830381865afa158015612aeb573d6000803e3d6000fd5b505050506040513d601f19601f82011682018060405250810190612b0f9190614438565b9050600073ffffffffffffffffffffffffffffffffffffffff168173ffffffffffffffffffffffffffffffffffffffff1603612b4b57506135ce565b60006127106103e884612b5e9190613d35565b612b689190613da6565b90506000811115612cda5780600c6000828254612b859190613dd7565b92505081905550600460009054906101000a900473ffffffffffffffffffffffffffffffffffffffff1673ffffffffffffffffffffffffffffffffffffffff166340c10f1983836040518363ffffffff1660e01b8152600401612be9929190613f1a565b600060405180830381600087803b158015612c0357600080fd5b505af1158015612c17573d6000803e3d6000fd5b5050505080601360008473ffffffffffffffffffffffffffffffffffffffff1673ffffffffffffffffffffffffffffffffffffffff1681526020019081526020016000206000828254612c6a9190613dd7565b925050819055508373ffffffffffffffffffffffffffffffffffffffff168273ffffffffffffffffffffffffffffffffffffffff167fe679beb5d98a54fda65331587d36d13358e8bf295be15e932c482164f8fde95e836001604051612cd19291906144a0565b60405180910390a35b6000600260009054906101000a900473ffffffffffffffffffffffffffffffffffffffff1673ffffffffffffffffffffffffffffffffffffffff16634a9fefc7846040518263ffffffff1660e01b8152600401612d379190613bfe565b602060405180830381865afa158015612d54573d6000803e3d6000fd5b505050506040513d601f19601f82011682018060405250810190612d789190614438565b9050600073ffffffffffffffffffffffffffffffffffffffff168173ffffffffffffffffffffffffffffffffffffffff1614612f3f5760006127106101f486612dc19190613d35565b612dcb9190613da6565b90506000811115612f3d5780600c6000828254612de89190613dd7565b92505081905550600460009054906101000a900473ffffffffffffffffffffffffffffffffffffffff1673ffffffffffffffffffffffffffffffffffffffff166340c10f1983836040518363ffffffff1660e01b8152600401612e4c929190613f1a565b600060405180830381600087803b158015612e6657600080fd5b505af1158015612e7a573d6000803e3d6000fd5b5050505080601360008473ffffffffffffffffffffffffffffffffffffffff1673ffffffffffffffffffffffffffffffffffffffff1681526020019081526020016000206000828254612ecd9190613dd7565b925050819055508573ffffffffffffffffffffffffffffffffffffffff168273ffffffffffffffffffffffffffffffffffffffff167fe679beb5d98a54fda65331587d36d13358e8bf295be15e932c482164f8fde95e836002604051612f34929190614504565b60405180910390a35b505b600083905060008060005b600073ffffffffffffffffffffffffffffffffffffffff168473ffffffffffffffffffffffffffffffffffffffff1614158015612f875750601481105b156130f8576000600260009054906101000a900473ffffffffffffffffffffffffffffffffffffffff1673ffffffffffffffffffffffffffffffffffffffff166370a08231866040518263ffffffff1660e01b8152600401612fe99190613bfe565b602060405180830381865afa158015613006573d6000803e3d6000fd5b505050506040513d601f19601f8201168201806040525081019061302a91906143ae565b1115613047578392506001816130409190613dd7565b91506130f8565b600260009054906101000a900473ffffffffffffffffffffffffffffffffffffffff1673ffffffffffffffffffffffffffffffffffffffff16634a9fefc7856040518263ffffffff1660e01b81526004016130a29190613bfe565b602060405180830381865afa1580156130bf573d6000803e3d6000fd5b505050506040513d601f19601f820116820180604052508101906130e39190614438565b935080806130f0906143db565b915050612f4a565b600073ffffffffffffffffffffffffffffffffffffffff168373ffffffffffffffffffffffffffffffffffffffff16146135c657600061271060c88a61313e9190613d35565b6131489190613da6565b905060008111156132b95780600c60008282546131659190613dd7565b92505081905550600460009054906101000a900473ffffffffffffffffffffffffffffffffffffffff1673ffffffffffffffffffffffffffffffffffffffff166340c10f1985836040518363ffffffff1660e01b81526004016131c9929190613f1a565b600060405180830381600087803b1580156131e357600080fd5b505af11580156131f7573d6000803e3d6000fd5b5050505080601360008673ffffffffffffffffffffffffffffffffffffffff1673ffffffffffffffffffffffffffffffffffffffff168152602001908152602001600020600082825461324a9190613dd7565b925050819055508973ffffffffffffffffffffffffffffffffffffffff168473ffffffffffffffffffffffffffffffffffffffff167ff3e533e84b42dfb4015d2211af267b5d34a1aa0f60c4da1a9dd25698150868d883866040516132b0929190613f43565b60405180910390a35b6000600260009054906101000a900473ffffffffffffffffffffffffffffffffffffffff1673ffffffffffffffffffffffffffffffffffffffff16634a9fefc7866040518263ffffffff1660e01b81526004016133169190613bfe565b602060405180830381865afa158015613333573d6000803e3d6000fd5b505050506040513d601f19601f820116820180604052508101906133579190614438565b9050600073ffffffffffffffffffffffffffffffffffffffff168173ffffffffffffffffffffffffffffffffffffffff161415801561343157506000600260009054906101000a900473ffffffffffffffffffffffffffffffffffffffff1673ffffffffffffffffffffffffffffffffffffffff166370a08231836040518263ffffffff1660e01b81526004016133ee9190613bfe565b602060405180830381865afa15801561340b573d6000803e3d6000fd5b505050506040513d601f19601f8201168201806040525081019061342f91906143ae565b115b156135c357600061271060328c6134489190613d35565b6134529190613da6565b905060008111156135c15780600c600082825461346f9190613dd7565b92505081905550600460009054906101000a900473ffffffffffffffffffffffffffffffffffffffff1673ffffffffffffffffffffffffffffffffffffffff166340c10f1983836040518363ffffffff1660e01b81526004016134d3929190613f1a565b600060405180830381600087803b1580156134ed57600080fd5b505af1158015613501573d6000803e3d6000fd5b5050505080601360008473ffffffffffffffffffffffffffffffffffffffff1673ffffffffffffffffffffffffffffffffffffffff16815260200190815260200160002060008282546135549190613dd7565b925050819055508573ffffffffffffffffffffffffffffffffffffffff168273ffffffffffffffffffffffffffffffffffffffff167f6b34e5a4dcbc992c5815bf8d0f03397ec7ecc2d9e760776d9de0c5e1d3919056836040516135b89190613763565b60405180910390a35b505b50505b505050505050505b5050565b60018081905550565b60008082036135f457670de0b6b3a76400009050613678565b600082670de0b6b3a76400008561360b9190613d35565b6136159190613da6565b90506000670de0b6b3a7640000828361362e9190613d35565b6136389190613da6565b90506714d1120d7b160000811115613656576714d1120d7b16000090505b67016345785d8a00008110156136725767016345785d8a000090505b80925050505b92915050565b60008060009054906101000a900473ffffffffffffffffffffffffffffffffffffffff169050816000806101000a81548173ffffffffffffffffffffffffffffffffffffffff021916908373ffffffffffffffffffffffffffffffffffffffff1602179055508173ffffffffffffffffffffffffffffffffffffffff168173ffffffffffffffffffffffffffffffffffffffff167f8be0079c531659141344cd1fd0a4f28419497f9722a3daafe3b4186f6b6457e060405160405180910390a35050565b600033905090565b6000819050919050565b61375d8161374a565b82525050565b60006020820190506137786000830184613754565b92915050565b600080fd5b600073ffffffffffffffffffffffffffffffffffffffff82169050919050565b60006137ae82613783565b9050919050565b6137be816137a3565b81146137c957600080fd5b50565b6000813590506137db816137b5565b92915050565b6000602082840312156137f7576137f661377e565b5b6000613805848285016137cc565b91505092915050565b7f4e487b7100000000000000000000000000000000000000000000000000000000600052602160045260246000fd5b6004811061384e5761384d61380e565b5b50565b600081905061385f8261383d565b919050565b600061386f82613851565b9050919050565b61387f81613864565b82525050565b600060a08201905061389a6000830188613876565b6138a76020830187613754565b6138b46040830186613754565b6138c16060830185613754565b6138ce6080830184613754565b9695505050505050565b60006080820190506138ed6000830187613754565b6138fa6020830186613754565b6139076040830185613754565b6139146060830184613754565b95945050505050565b6000819050919050565b6139308161391d565b82525050565b600060208201905061394b6000830184613927565b92915050565b600060c0820190506139666000830189613754565b6139736020830188613754565b6139806040830187613754565b61398d6060830186613754565b61399a6080830185613754565b6139a760a0830184613754565b979650505050505050565b6000819050919050565b60006139d76139d26139cd84613783565b6139b2565b613783565b9050919050565b60006139e9826139bc565b9050919050565b60006139fb826139de565b9050919050565b613a0b816139f0565b82525050565b6000602082019050613a266000830184613a02565b92915050565b613a358161374a565b8114613a4057600080fd5b50565b600081359050613a5281613a2c565b92915050565b600080600060608486031215613a7157613a7061377e565b5b6000613a7f86828701613a43565b9350506020613a9086828701613a43565b9250506040613aa186828701613a43565b9150509250925092565b6000613ab6826139de565b9050919050565b613ac681613aab565b82525050565b6000602082019050613ae16000830184613abd565b92915050565b600060a082019050613afc6000830188613754565b613b096020830187613754565b613b166040830186613754565b613b236060830185613754565b613b306080830184613754565b9695505050505050565b6000606082019050613b4f6000830186613876565b613b5c6020830185613754565b613b696040830184613754565b949350505050565b600061010082019050613b87600083018b613754565b613b94602083018a613754565b613ba16040830189613754565b613bae6060830188613754565b613bbb6080830187613754565b613bc860a0830186613754565b613bd560c0830185613754565b613be260e0830184613754565b9998505050505050505050565b613bf8816137a3565b82525050565b6000602082019050613c136000830184613bef565b92915050565b6000613c24826139de565b9050919050565b613c3481613c19565b82525050565b6000602082019050613c4f6000830184613c2b565b92915050565b600082825260208201905092915050565b7f496e76616c696420616464726573730000000000000000000000000000000000600082015250565b6000613c9c600f83613c55565b9150613ca782613c66565b602082019050919050565b60006020820190508181036000830152613ccb81613c8f565b9050919050565b7f4e487b7100000000000000000000000000000000000000000000000000000000600052601160045260246000fd5b6000613d0c8261374a565b9150613d178361374a565b9250828203905081811115613d2f57613d2e613cd2565b5b92915050565b6000613d408261374a565b9150613d4b8361374a565b9250828202613d598161374a565b91508282048414831517613d7057613d6f613cd2565b5b5092915050565b7f4e487b7100000000000000000000000000000000000000000000000000000000600052601260045260246000fd5b6000613db18261374a565b9150613dbc8361374a565b925082613dcc57613dcb613d77565b5b828204905092915050565b6000613de28261374a565b9150613ded8361374a565b9250828201905080821115613e0557613e04613cd2565b5b92915050565b7f496e76616c696420707269636573000000000000000000000000000000000000600082015250565b6000613e41600e83613c55565b9150613e4c82613e0b565b602082019050919050565b60006020820190508181036000830152613e7081613e34565b9050919050565b6000606082019050613e8c6000830186613754565b613e996020830185613754565b613ea66040830184613754565b949350505050565b7f4e6f7468696e6720746f20686172766573740000000000000000000000000000600082015250565b6000613ee4601283613c55565b9150613eef82613eae565b602082019050919050565b60006020820190508181036000830152613f1381613ed7565b9050919050565b6000604082019050613f2f6000830185613bef565b613f3c6020830184613754565b9392505050565b6000604082019050613f586000830185613754565b613f656020830184613754565b9392505050565b7f4e6f7468696e6720766573746564000000000000000000000000000000000000600082015250565b6000613fa2600e83613c55565b9150613fad82613f6c565b602082019050919050565b60006020820190508181036000830152613fd181613f95565b9050919050565b7f56657374696e67206e6f74207374617274656400000000000000000000000000600082015250565b600061400e601383613c55565b915061401982613fd8565b602082019050919050565b6000602082019050818103600083015261403d81614001565b9050919050565b7f4e6f7468696e6720746f20636c61696d00000000000000000000000000000000600082015250565b600061407a601083613c55565b915061408582614044565b602082019050919050565b600060208201905081810360008301526140a98161406d565b9050919050565b60008115159050919050565b6140c5816140b0565b81146140d057600080fd5b50565b6000815190506140e2816140bc565b92915050565b6000602082840312156140fe576140fd61377e565b5b600061410c848285016140d3565b91505092915050565b60006141208261391d565b915061412b8361391d565b925082820390508181126000841216828213600085121516171561415257614151613cd2565b5b92915050565b60006141638261391d565b915061416e8361391d565b925082820261417c8161391d565b91507f800000000000000000000000000000000000000000000000000000000000000084146000841216156141b4576141b3613cd2565b5b82820584148315176141c9576141c8613cd2565b5b5092915050565b60006141db8261391d565b91506141e68361391d565b9250826141f6576141f5613d77565b5b600160000383147f80000000000000000000000000000000000000000000000000000000000000008314161561422f5761422e613cd2565b5b828205905092915050565b7f427265616b6572206e6f74206163746976650000000000000000000000000000600082015250565b6000614270601283613c55565b915061427b8261423a565b602082019050919050565b6000602082019050818103600083015261429f81614263565b9050919050565b7f436f6f6c646f776e206e6f7420636f6d706c6574650000000000000000000000600082015250565b60006142dc601583613c55565b91506142e7826142a6565b602082019050919050565b6000602082019050818103600083015261430b816142cf565b9050919050565b60006020820190506143276000830184613876565b92915050565b7f4e6f7468696e6720746f2063617368206f757400000000000000000000000000600082015250565b6000614363601383613c55565b915061436e8261432d565b602082019050919050565b6000602082019050818103600083015261439281614356565b9050919050565b6000815190506143a881613a2c565b92915050565b6000602082840312156143c4576143c361377e565b5b60006143d284828501614399565b91505092915050565b60006143e68261374a565b91507fffffffffffffffffffffffffffffffffffffffffffffffffffffffffffffffff820361441857614417613cd2565b5b600182019050919050565b600081519050614432816137b5565b92915050565b60006020828403121561444e5761444d61377e565b5b600061445c84828501614423565b91505092915050565b6000819050919050565b600061448a61448561448084614465565b6139b2565b61374a565b9050919050565b61449a8161446f565b82525050565b60006040820190506144b56000830185613754565b6144c26020830184614491565b9392505050565b6000819050919050565b60006144ee6144e96144e4846144c9565b6139b2565b61374a565b9050919050565b6144fe816144d3565b82525050565b60006040820190506145196000830185613754565b61452660208301846144f5565b939250505056fea26469706673582212200e9f2a9fdee63da2ec1c036f3be670d74e1de940c8cbcf70584d7588ee1aeac664736f6c63430008140033",
  "linkReferences": {},
  "deployedLinkReferences": {}
}