{
  "_format": "hh-sol-artifact-1",
  "contractName": "IvyCore",
  "sourceName": "contracts/IvyCore.sol",
  "abi": [
    {
      "inputs": [
        {
          "internalType": "address",
          "name": "_ivyToken",
          "type": "address"
        }
      ],
      "stateMutability": "nonpayable",
      "type": "constructor"
    },
    {
      "inputs": [
        {
          "internalType": "address",
          "name": "owner",
          "type": "address"
        }
      ],
      "name": "OwnableInvalidOwner",
      "type": "error"
    },
    {
      "inputs": [
        {
          "internalType": "address",
          "name": "account",
          "type": "address"
        }
      ],
      "name": "OwnableUnauthorizedAccount",
      "type": "error"
    },
    {
      "inputs": [],
      "name": "ReentrancyGuardReentrantCall",
      "type": "error"
    },
    {
      "anonymous": false,
      "inputs": [
        {
          "indexed": false,
          "internalType": "enum IvyCore.BreakerLevel",
          "name": "previousLevel",
          "type": "uint8"
        }
      ],
      "name": "CircuitBreakerReset",
      "type": "event"
    },
    {
      "anonymous": false,
      "inputs": [
        {
          "indexed": false,
          "internalType": "enum IvyCore.BreakerLevel",
          "name": "level",
          "type": "uint8"
        },
        {
          "indexed": false,
          "internalType": "uint256",
          "name": "activationTime",
          "type": "uint256"
        },
        {
          "indexed": false,
          "internalType": "uint256",
          "name": "activationPrice",
          "type": "uint256"
        }
      ],
      "name": "CircuitBreakerTriggered",
      "type": "event"
    },
    {
      "anonymous": false,
      "inputs": [
        {
          "indexed": false,
          "internalType": "uint256",
          "name": "newEmissionFactor",
          "type": "uint256"
        },
        {
          "indexed": false,
          "internalType": "uint256",
          "name": "totalMinted",
          "type": "uint256"
        }
      ],
      "name": "HalvingOccurred",
      "type": "event"
    },
    {
      "anonymous": false,
      "inputs": [
        {
          "indexed": true,
          "internalType": "address",
          "name": "user",
          "type": "address"
        },
        {
          "indexed": false,
          "internalType": "uint256",
          "name": "received",
          "type": "uint256"
        },
        {
          "indexed": false,
          "internalType": "uint256",
          "name": "burned",
          "type": "uint256"
        }
      ],
      "name": "InstantCashOut",
      "type": "event"
    },
    {
      "anonymous": false,
      "inputs": [
        {
          "indexed": true,
          "internalType": "address",
          "name": "previousOwner",
          "type": "address"
        },
        {
          "indexed": true,
          "internalType": "address",
          "name": "newOwner",
          "type": "address"
        }
      ],
      "name": "OwnershipTransferred",
      "type": "event"
    },
    {
      "anonymous": false,
      "inputs": [
        {
          "indexed": true,
          "internalType": "address",
          "name": "receiver",
          "type": "address"
        },
        {
          "indexed": true,
          "internalType": "address",
          "name": "capturer",
          "type": "address"
        },
        {
          "indexed": false,
          "internalType": "uint256",
          "name": "amount",
          "type": "uint256"
        }
      ],
      "name": "PeerBonusPaid",
      "type": "event"
    },
    {
      "anonymous": false,
      "inputs": [
        {
          "indexed": false,
          "internalType": "uint256",
          "name": "accIvyPerShare",
          "type": "uint256"
        },
        {
          "indexed": false,
          "internalType": "uint256",
          "name": "lastRewardTime",
          "type": "uint256"
        },
        {
          "indexed": false,
          "internalType": "uint256",
          "name": "totalPoolBondPower",
          "type": "uint256"
        }
      ],
      "name": "PoolUpdated",
      "type": "event"
    },
    {
      "anonymous": false,
      "inputs": [
        {
          "indexed": true,
          "internalType": "address",
          "name": "oracle",
          "type": "address"
        }
      ],
      "name": "PriceOracleSet",
      "type": "event"
    },
    {
      "anonymous": false,
      "inputs": [
        {
          "indexed": false,
          "internalType": "uint256",
          "name": "currentPrice",
          "type": "uint256"
        },
        {
          "indexed": false,
          "internalType": "uint256",
          "name": "ma30Price",
          "type": "uint256"
        },
        {
          "indexed": false,
          "internalType": "uint256",
          "name": "price1hAgo",
          "type": "uint256"
        }
      ],
      "name": "PriceUpdated",
      "type": "event"
    },
    {
      "anonymous": false,
      "inputs": [
        {
          "indexed": true,
          "internalType": "address",
          "name": "referrer",
          "type": "address"
        },
        {
          "indexed": true,
          "internalType": "address",
          "name": "from",
          "type": "address"
        },
        {
          "indexed": false,
          "internalType": "uint256",
          "name": "amount",
          "type": "uint256"
        },
        {
          "indexed": false,
          "internalType": "uint256",
          "name": "level",
          "type": "uint256"
        }
      ],
      "name": "ReferralRewardPaid",
      "type": "event"
    },
    {
      "anonymous": false,
      "inputs": [
        {
          "indexed": true,
          "internalType": "address",
          "name": "user",
          "type": "address"
        },
        {
          "indexed": false,
          "internalType": "uint256",
          "name": "amount",
          "type": "uint256"
        }
      ],
      "name": "RewardsHarvested",
      "type": "event"
    },
    {
      "anonymous": false,
      "inputs": [
        {
          "indexed": true,
          "internalType": "address",
          "name": "capturer",
          "type": "address"
        },
        {
          "indexed": true,
          "internalType": "address",
          "name": "blockedUpline",
          "type": "address"
        },
        {
          "indexed": false,
          "internalType": "uint256",
          "name": "amount",
          "type": "uint256"
        },
        {
          "indexed": false,
          "internalType": "uint256",
          "name": "depth",
          "type": "uint256"
        }
      ],
      "name": "TeamBonusCaptured",
      "type": "event"
    },
    {
      "anonymous": false,
      "inputs": [
        {
          "indexed": false,
          "internalType": "bool",
          "name": "testMode",
          "type": "bool"
        }
      ],
      "name": "TestModeChanged",
      "type": "event"
    },
    {
      "anonymous": false,
      "inputs": [],
      "name": "TestModePermanentlyDisabled",
      "type": "event"
    },
    {
      "anonymous": false,
      "inputs": [
        {
          "indexed": true,
          "internalType": "address",
          "name": "user",
          "type": "address"
        },
        {
          "indexed": false,
          "internalType": "uint256",
          "name": "bondPower",
          "type": "uint256"
        },
        {
          "indexed": false,
          "internalType": "uint256",
          "name": "rewardDebt",
          "type": "uint256"
        }
      ],
      "name": "UserSynced",
      "type": "event"
    },
    {
      "anonymous": false,
      "inputs": [
        {
          "indexed": true,
          "internalType": "address",
          "name": "user",
          "type": "address"
        },
        {
          "indexed": true,
          "internalType": "uint256",
          "name": "tokenId",
          "type": "uint256"
        },
        {
          "indexed": false,
          "internalType": "uint256",
          "name": "pendingIvy",
          "type": "uint256"
        },
        {
          "indexed": false,
          "internalType": "uint256",
          "name": "bonusPower",
          "type": "uint256"
        }
      ],
      "name": "VestedCompounded",
      "type": "event"
    },
    {
      "anonymous": false,
      "inputs": [
        {
          "indexed": true,
          "internalType": "address",
          "name": "user",
          "type": "address"
        },
        {
          "indexed": false,
          "internalType": "uint256",
          "name": "amount",
          "type": "uint256"
        }
      ],
      "name": "VestingClaimed",
      "type": "event"
    },
    {
      "anonymous": false,
      "inputs": [
        {
          "indexed": true,
          "internalType": "address",
          "name": "user",
          "type": "address"
        },
        {
          "indexed": false,
          "internalType": "uint256",
          "name": "amount",
          "type": "uint256"
        },
        {
          "indexed": false,
          "internalType": "uint256",
          "name": "startTime",
          "type": "uint256"
        }
      ],
      "name": "VestingStarted",
      "type": "event"
    },
    {
      "inputs": [],
      "name": "ACC_IVY_PRECISION",
      "outputs": [
        {
          "internalType": "uint256",
          "name": "",
          "type": "uint256"
        }
      ],
      "stateMutability": "view",
      "type": "function"
    },
    {
      "inputs": [],
      "name": "ALPHA_L1",
      "outputs": [
        {
          "internalType": "uint256",
          "name": "",
          "type": "uint256"
        }
      ],
      "stateMutability": "view",
      "type": "function"
    },
    {
      "inputs": [],
      "name": "ALPHA_L2",
      "outputs": [
        {
          "internalType": "uint256",
          "name": "",
          "type": "uint256"
        }
      ],
      "stateMutability": "view",
      "type": "function"
    },
    {
      "inputs": [],
      "name": "ALPHA_L3",
      "outputs": [
        {
          "internalType": "uint256",
          "name": "",
          "type": "uint256"
        }
      ],
      "stateMutability": "view",
      "type": "function"
    },
    {
      "inputs": [],
      "name": "BASE_DAILY_EMISSION",
      "outputs": [
        {
          "internalType": "uint256",
          "name": "",
          "type": "uint256"
        }
      ],
      "stateMutability": "view",
      "type": "function"
    },
    {
      "inputs": [],
      "name": "BASIS_POINTS",
      "outputs": [
        {
          "internalType": "uint256",
          "name": "",
          "type": "uint256"
        }
      ],
      "stateMutability": "view",
      "type": "function"
    },
    {
      "inputs": [],
      "name": "COOLDOWN_L1",
      "outputs": [
        {
          "internalType": "uint256",
          "name": "",
          "type": "uint256"
        }
      ],
      "stateMutability": "view",
      "type": "function"
    },
    {
      "inputs": [],
      "name": "COOLDOWN_L2",
      "outputs": [
        {
          "internalType": "uint256",
          "name": "",
          "type": "uint256"
        }
      ],
      "stateMutability": "view",
      "type": "function"
    },
    {
      "inputs": [],
      "name": "COOLDOWN_L3",
      "outputs": [
        {
          "internalType": "uint256",
          "name": "",
          "type": "uint256"
        }
      ],
      "stateMutability": "view",
      "type": "function"
    },
    {
      "inputs": [],
      "name": "DROP_L1",
      "outputs": [
        {
          "internalType": "int256",
          "name": "",
          "type": "int256"
        }
      ],
      "stateMutability": "view",
      "type": "function"
    },
    {
      "inputs": [],
      "name": "DROP_L2",
      "outputs": [
        {
          "internalType": "int256",
          "name": "",
          "type": "int256"
        }
      ],
      "stateMutability": "view",
      "type": "function"
    },
    {
      "inputs": [],
      "name": "DROP_L3",
      "outputs": [
        {
          "internalType": "int256",
          "name": "",
          "type": "int256"
        }
      ],
      "stateMutability": "view",
      "type": "function"
    },
    {
      "inputs": [],
      "name": "EMISSION_PER_SECOND",
      "outputs": [
        {
          "internalType": "uint256",
          "name": "",
          "type": "uint256"
        }
      ],
      "stateMutability": "view",
      "type": "function"
    },
    {
      "inputs": [],
      "name": "HALVING_DECAY",
      "outputs": [
        {
          "internalType": "uint256",
          "name": "",
          "type": "uint256"
        }
      ],
      "stateMutability": "view",
      "type": "function"
    },
    {
      "inputs": [],
      "name": "HALVING_THRESHOLD",
      "outputs": [
        {
          "internalType": "uint256",
          "name": "",
          "type": "uint256"
        }
      ],
      "stateMutability": "view",
      "type": "function"
    },
    {
      "inputs": [],
      "name": "HARD_CAP",
      "outputs": [
        {
          "internalType": "uint256",
          "name": "",
          "type": "uint256"
        }
      ],
      "stateMutability": "view",
      "type": "function"
    },
    {
      "inputs": [],
      "name": "INFINITE_RATE",
      "outputs": [
        {
          "internalType": "uint256",
          "name": "",
          "type": "uint256"
        }
      ],
      "stateMutability": "view",
      "type": "function"
    },
    {
      "inputs": [],
      "name": "INSTANT_CASH_PENALTY",
      "outputs": [
        {
          "internalType": "uint256",
          "name": "",
          "type": "uint256"
        }
      ],
      "stateMutability": "view",
      "type": "function"
    },
    {
      "inputs": [],
      "name": "L1_RATE",
      "outputs": [
        {
          "internalType": "uint256",
          "name": "",
          "type": "uint256"
        }
      ],
      "stateMutability": "view",
      "type": "function"
    },
    {
      "inputs": [],
      "name": "L2_RATE",
      "outputs": [
        {
          "internalType": "uint256",
          "name": "",
          "type": "uint256"
        }
      ],
      "stateMutability": "view",
      "type": "function"
    },
    {
      "inputs": [],
      "name": "MAX_PRICE_CHANGE_PERCENT",
      "outputs": [
        {
          "internalType": "uint256",
          "name": "",
          "type": "uint256"
        }
      ],
      "stateMutability": "view",
      "type": "function"
    },
    {
      "inputs": [],
      "name": "MAX_REFERRAL_DEPTH",
      "outputs": [
        {
          "internalType": "uint256",
          "name": "",
          "type": "uint256"
        }
      ],
      "stateMutability": "view",
      "type": "function"
    },
    {
      "inputs": [],
      "name": "MINING_CAP",
      "outputs": [
        {
          "internalType": "uint256",
          "name": "",
          "type": "uint256"
        }
      ],
      "stateMutability": "view",
      "type": "function"
    },
    {
      "inputs": [],
      "name": "PEER_BONUS_RATE",
      "outputs": [
        {
          "internalType": "uint256",
          "name": "",
          "type": "uint256"
        }
      ],
      "stateMutability": "view",
      "type": "function"
    },
    {
      "inputs": [],
      "name": "PID_CAP",
      "outputs": [
        {
          "internalType": "uint256",
          "name": "",
          "type": "uint256"
        }
      ],
      "stateMutability": "view",
      "type": "function"
    },
    {
      "inputs": [],
      "name": "PID_FLOOR",
      "outputs": [
        {
          "internalType": "uint256",
          "name": "",
          "type": "uint256"
        }
      ],
      "stateMutability": "view",
      "type": "function"
    },
    {
      "inputs": [],
      "name": "PID_K",
      "outputs": [
        {
          "internalType": "uint256",
          "name": "",
          "type": "uint256"
        }
      ],
      "stateMutability": "view",
      "type": "function"
    },
    {
      "inputs": [],
      "name": "VESTING_PERIOD",
      "outputs": [
        {
          "internalType": "uint256",
          "name": "",
          "type": "uint256"
        }
      ],
      "stateMutability": "view",
      "type": "function"
    },
    {
      "inputs": [],
      "name": "accIvyPerShare",
      "outputs": [
        {
          "internalType": "uint256",
          "name": "",
          "type": "uint256"
        }
      ],
      "stateMutability": "view",
      "type": "function"
    },
    {
      "inputs": [],
      "name": "breakerState",
      "outputs": [
        {
          "internalType": "enum IvyCore.BreakerLevel",
          "name": "currentLevel",
          "type": "uint8"
        },
        {
          "internalType": "uint256",
          "name": "activationTime",
          "type": "uint256"
        },
        {
          "internalType": "uint256",
          "name": "activationPrice",
          "type": "uint256"
        }
      ],
      "stateMutability": "view",
      "type": "function"
    },
    {
      "inputs": [],
      "name": "checkCircuitBreaker",
      "outputs": [],
      "stateMutability": "nonpayable",
      "type": "function"
    },
    {
      "inputs": [],
      "name": "claimVested",
      "outputs": [],
      "stateMutability": "nonpayable",
      "type": "function"
    },
    {
      "inputs": [
        {
          "internalType": "uint256",
          "name": "tokenId",
          "type": "uint256"
        }
      ],
      "name": "compoundVested",
      "outputs": [],
      "stateMutability": "nonpayable",
      "type": "function"
    },
    {
      "inputs": [],
      "name": "currentDailyEmission",
      "outputs": [
        {
          "internalType": "uint256",
          "name": "",
          "type": "uint256"
        }
      ],
      "stateMutability": "view",
      "type": "function"
    },
    {
      "inputs": [],
      "name": "currentPrice",
      "outputs": [
        {
          "internalType": "uint256",
          "name": "",
          "type": "uint256"
        }
      ],
      "stateMutability": "view",
      "type": "function"
    },
    {
      "inputs": [
        {
          "internalType": "address",
          "name": "",
          "type": "address"
        },
        {
          "internalType": "uint256",
          "name": "",
          "type": "uint256"
        }
      ],
      "name": "directReferrals",
      "outputs": [
        {
          "internalType": "address",
          "name": "",
          "type": "address"
        }
      ],
      "stateMutability": "view",
      "type": "function"
    },
    {
      "inputs": [],
      "name": "dividendPool",
      "outputs": [
        {
          "internalType": "contract IDividendPool",
          "name": "",
          "type": "address"
        }
      ],
      "stateMutability": "view",
      "type": "function"
    },
    {
      "inputs": [],
      "name": "emissionFactor",
      "outputs": [
        {
          "internalType": "uint256",
          "name": "",
          "type": "uint256"
        }
      ],
      "stateMutability": "view",
      "type": "function"
    },
    {
      "inputs": [],
      "name": "genesisNode",
      "outputs": [
        {
          "internalType": "contract IGenesisNode",
          "name": "",
          "type": "address"
        }
      ],
      "stateMutability": "view",
      "type": "function"
    },
    {
      "inputs": [],
      "name": "getBreakerStatus",
      "outputs": [
        {
          "internalType": "enum IvyCore.BreakerLevel",
          "name": "level",
          "type": "uint8"
        },
        {
          "internalType": "uint256",
          "name": "activationTime",
          "type": "uint256"
        },
        {
          "internalType": "uint256",
          "name": "activationPrice",
          "type": "uint256"
        },
        {
          "internalType": "uint256",
          "name": "timeRemaining",
          "type": "uint256"
        },
        {
          "internalType": "uint256",
          "name": "forcedAlpha",
          "type": "uint256"
        }
      ],
      "stateMutability": "view",
      "type": "function"
    },
    {
      "inputs": [
        {
          "internalType": "address",
          "name": "user",
          "type": "address"
        }
      ],
      "name": "getDirectReferrals",
      "outputs": [
        {
          "internalType": "address[]",
          "name": "referrals",
          "type": "address[]"
        },
        {
          "internalType": "uint256[]",
          "name": "bondPowers",
          "type": "uint256[]"
        },
        {
          "internalType": "uint256[]",
          "name": "totalRewards",
          "type": "uint256[]"
        }
      ],
      "stateMutability": "view",
      "type": "function"
    },
    {
      "inputs": [],
      "name": "getFinalMultiplier",
      "outputs": [
        {
          "internalType": "uint256",
          "name": "",
          "type": "uint256"
        }
      ],
      "stateMutability": "view",
      "type": "function"
    },
    {
      "inputs": [],
      "name": "getHalvingInfo",
      "outputs": [
        {
          "internalType": "uint256",
          "name": "_halvingCount",
          "type": "uint256"
        },
        {
          "internalType": "uint256",
          "name": "_emissionFactor",
          "type": "uint256"
        },
        {
          "internalType": "uint256",
          "name": "_nextHalvingAt",
          "type": "uint256"
        },
        {
          "internalType": "uint256",
          "name": "_progressToNextHalving",
          "type": "uint256"
        }
      ],
      "stateMutability": "view",
      "type": "function"
    },
    {
      "inputs": [],
      "name": "getPIDAlpha",
      "outputs": [
        {
          "internalType": "uint256",
          "name": "",
          "type": "uint256"
        }
      ],
      "stateMutability": "view",
      "type": "function"
    },
    {
      "inputs": [],
      "name": "getProtocolStats",
      "outputs": [
        {
          "internalType": "uint256",
          "name": "_totalMinted",
          "type": "uint256"
        },
        {
          "internalType": "uint256",
          "name": "_miningCap",
          "type": "uint256"
        },
        {
          "internalType": "uint256",
          "name": "_emissionFactor",
          "type": "uint256"
        },
        {
          "internalType": "uint256",
          "name": "_finalMultiplier",
          "type": "uint256"
        },
        {
          "internalType": "uint256",
          "name": "_totalPoolBondPower",
          "type": "uint256"
        },
        {
          "internalType": "uint256",
          "name": "_emissionPerSecond",
          "type": "uint256"
        },
        {
          "internalType": "uint256",
          "name": "_currentDailyEmission",
          "type": "uint256"
        },
        {
          "internalType": "uint256",
          "name": "_halvingCount",
          "type": "uint256"
        }
      ],
      "stateMutability": "view",
      "type": "function"
    },
    {
      "inputs": [
        {
          "internalType": "address",
          "name": "user",
          "type": "address"
        },
        {
          "internalType": "uint256",
          "name": "offset",
          "type": "uint256"
        },
        {
          "internalType": "uint256",
          "name": "limit",
          "type": "uint256"
        }
      ],
      "name": "getReferralRewardHistory",
      "outputs": [
        {
          "components": [
            {
              "internalType": "uint256",
              "name": "timestamp",
              "type": "uint256"
            },
            {
              "internalType": "uint256",
              "name": "amount",
              "type": "uint256"
            },
            {
              "internalType": "uint8",
              "name": "level",
              "type": "uint8"
            },
            {
              "internalType": "address",
              "name": "fromUser",
              "type": "address"
            }
          ],
          "internalType": "struct IvyCore.ReferralRewardRecord[]",
          "name": "records",
          "type": "tuple[]"
        },
        {
          "internalType": "uint256",
          "name": "total",
          "type": "uint256"
        }
      ],
      "stateMutability": "view",
      "type": "function"
    },
    {
      "inputs": [
        {
          "internalType": "address",
          "name": "user",
          "type": "address"
        }
      ],
      "name": "getTeamPerformance",
      "outputs": [
        {
          "internalType": "uint256",
          "name": "rank",
          "type": "uint256"
        },
        {
          "internalType": "uint256",
          "name": "teamBondPower",
          "type": "uint256"
        },
        {
          "internalType": "uint256",
          "name": "teamActiveRate",
          "type": "uint256"
        },
        {
          "internalType": "uint256",
          "name": "avgBondPower",
          "type": "uint256"
        }
      ],
      "stateMutability": "view",
      "type": "function"
    },
    {
      "inputs": [
        {
          "internalType": "address",
          "name": "user",
          "type": "address"
        }
      ],
      "name": "getTeamStats",
      "outputs": [
        {
          "internalType": "uint256",
          "name": "totalMembers",
          "type": "uint256"
        },
        {
          "internalType": "uint256",
          "name": "totalBondPower",
          "type": "uint256"
        },
        {
          "internalType": "uint256",
          "name": "activeMembers",
          "type": "uint256"
        },
        {
          "internalType": "uint256",
          "name": "directCount",
          "type": "uint256"
        }
      ],
      "stateMutability": "view",
      "type": "function"
    },
    {
      "inputs": [
        {
          "internalType": "address",
          "name": "user",
          "type": "address"
        }
      ],
      "name": "getUserMiningStats",
      "outputs": [
        {
          "internalType": "uint256",
          "name": "bondPower",
          "type": "uint256"
        },
        {
          "internalType": "uint256",
          "name": "pendingRewards",
          "type": "uint256"
        },
        {
          "internalType": "uint256",
          "name": "totalVested",
          "type": "uint256"
        },
        {
          "internalType": "uint256",
          "name": "totalClaimed",
          "type": "uint256"
        },
        {
          "internalType": "uint256",
          "name": "claimableNow",
          "type": "uint256"
        }
      ],
      "stateMutability": "view",
      "type": "function"
    },
    {
      "inputs": [
        {
          "internalType": "address",
          "name": "user",
          "type": "address"
        }
      ],
      "name": "getUserReferralSummary",
      "outputs": [
        {
          "internalType": "uint256",
          "name": "directReferralCount",
          "type": "uint256"
        },
        {
          "internalType": "uint256",
          "name": "totalTeamSize",
          "type": "uint256"
        },
        {
          "internalType": "uint256",
          "name": "totalReferralRewards",
          "type": "uint256"
        },
        {
          "internalType": "uint256",
          "name": "rewardHistoryCount",
          "type": "uint256"
        },
        {
          "internalType": "bool",
          "name": "hasGenesisNode",
          "type": "bool"
        }
      ],
      "stateMutability": "view",
      "type": "function"
    },
    {
      "inputs": [
        {
          "internalType": "address",
          "name": "user",
          "type": "address"
        }
      ],
      "name": "getVestingInfo",
      "outputs": [
        {
          "internalType": "uint256",
          "name": "totalVested",
          "type": "uint256"
        },
        {
          "internalType": "uint256",
          "name": "totalClaimed",
          "type": "uint256"
        },
        {
          "internalType": "uint256",
          "name": "vestingStartTime",
          "type": "uint256"
        },
        {
          "internalType": "uint256",
          "name": "claimableNow",
          "type": "uint256"
        },
        {
          "internalType": "uint256",
          "name": "remainingLocked",
          "type": "uint256"
        },
        {
          "internalType": "uint256",
          "name": "vestingProgress",
          "type": "uint256"
        }
      ],
      "stateMutability": "view",
      "type": "function"
    },
    {
      "inputs": [],
      "name": "halvingCount",
      "outputs": [
        {
          "internalType": "uint256",
          "name": "",
          "type": "uint256"
        }
      ],
      "stateMutability": "view",
      "type": "function"
    },
    {
      "inputs": [],
      "name": "harvest",
      "outputs": [],
      "stateMutability": "nonpayable",
      "type": "function"
    },
    {
      "inputs": [],
      "name": "instantCashOut",
      "outputs": [],
      "stateMutability": "nonpayable",
      "type": "function"
    },
    {
      "inputs": [],
      "name": "isFullyDecentralized",
      "outputs": [
        {
          "internalType": "bool",
          "name": "",
          "type": "bool"
        }
      ],
      "stateMutability": "view",
      "type": "function"
    },
    {
      "inputs": [],
      "name": "ivyBond",
      "outputs": [
        {
          "internalType": "contract IIvyBond",
          "name": "",
          "type": "address"
        }
      ],
      "stateMutability": "view",
      "type": "function"
    },
    {
      "inputs": [],
      "name": "ivyToken",
      "outputs": [
        {
          "internalType": "contract IvyToken",
          "name": "",
          "type": "address"
        }
      ],
      "stateMutability": "view",
      "type": "function"
    },
    {
      "inputs": [],
      "name": "lastHalvingMinted",
      "outputs": [
        {
          "internalType": "uint256",
          "name": "",
          "type": "uint256"
        }
      ],
      "stateMutability": "view",
      "type": "function"
    },
    {
      "inputs": [],
      "name": "lastPriceUpdateTime",
      "outputs": [
        {
          "internalType": "uint256",
          "name": "",
          "type": "uint256"
        }
      ],
      "stateMutability": "view",
      "type": "function"
    },
    {
      "inputs": [],
      "name": "lastRewardTime",
      "outputs": [
        {
          "internalType": "uint256",
          "name": "",
          "type": "uint256"
        }
      ],
      "stateMutability": "view",
      "type": "function"
    },
    {
      "inputs": [],
      "name": "ma30Price",
      "outputs": [
        {
          "internalType": "uint256",
          "name": "",
          "type": "uint256"
        }
      ],
      "stateMutability": "view",
      "type": "function"
    },
    {
      "inputs": [],
      "name": "oracle",
      "outputs": [
        {
          "internalType": "contract IPriceOracle",
          "name": "",
          "type": "address"
        }
      ],
      "stateMutability": "view",
      "type": "function"
    },
    {
      "inputs": [],
      "name": "owner",
      "outputs": [
        {
          "internalType": "address",
          "name": "",
          "type": "address"
        }
      ],
      "stateMutability": "view",
      "type": "function"
    },
    {
      "inputs": [
        {
          "internalType": "address",
          "name": "user",
          "type": "address"
        }
      ],
      "name": "pendingIvy",
      "outputs": [
        {
          "internalType": "uint256",
          "name": "",
          "type": "uint256"
        }
      ],
      "stateMutability": "view",
      "type": "function"
    },
    {
      "inputs": [],
      "name": "price1hAgo",
      "outputs": [
        {
          "internalType": "uint256",
          "name": "",
          "type": "uint256"
        }
      ],
      "stateMutability": "view",
      "type": "function"
    },
    {
      "inputs": [
        {
          "internalType": "address",
          "name": "",
          "type": "address"
        },
        {
          "internalType": "uint256",
          "name": "",
          "type": "uint256"
        }
      ],
      "name": "referralRewardHistory",
      "outputs": [
        {
          "internalType": "uint256",
          "name": "timestamp",
          "type": "uint256"
        },
        {
          "internalType": "uint256",
          "name": "amount",
          "type": "uint256"
        },
        {
          "internalType": "uint8",
          "name": "level",
          "type": "uint8"
        },
        {
          "internalType": "address",
          "name": "fromUser",
          "type": "address"
        }
      ],
      "stateMutability": "view",
      "type": "function"
    },
    {
      "inputs": [
        {
          "internalType": "address",
          "name": "",
          "type": "address"
        }
      ],
      "name": "referralRewardsEarned",
      "outputs": [
        {
          "internalType": "uint256",
          "name": "",
          "type": "uint256"
        }
      ],
      "stateMutability": "view",
      "type": "function"
    },
    {
      "inputs": [],
      "name": "renounceOwnership",
      "outputs": [],
      "stateMutability": "nonpayable",
      "type": "function"
    },
    {
      "inputs": [],
      "name": "resetCircuitBreaker",
      "outputs": [],
      "stateMutability": "nonpayable",
      "type": "function"
    },
    {
      "inputs": [
        {
          "internalType": "address",
          "name": "_dividendPool",
          "type": "address"
        }
      ],
      "name": "setDividendPool",
      "outputs": [],
      "stateMutability": "nonpayable",
      "type": "function"
    },
    {
      "inputs": [
        {
          "internalType": "address",
          "name": "_genesisNode",
          "type": "address"
        }
      ],
      "name": "setGenesisNode",
      "outputs": [],
      "stateMutability": "nonpayable",
      "type": "function"
    },
    {
      "inputs": [
        {
          "internalType": "address",
          "name": "_ivyBond",
          "type": "address"
        }
      ],
      "name": "setIvyBond",
      "outputs": [],
      "stateMutability": "nonpayable",
      "type": "function"
    },
    {
      "inputs": [
        {
          "internalType": "address",
          "name": "_oracle",
          "type": "address"
        }
      ],
      "name": "setOracle",
      "outputs": [],
      "stateMutability": "nonpayable",
      "type": "function"
    },
    {
      "inputs": [
        {
          "internalType": "bool",
          "name": "_testMode",
          "type": "bool"
        }
      ],
      "name": "setTestMode",
      "outputs": [],
      "stateMutability": "nonpayable",
      "type": "function"
    },
    {
      "inputs": [
        {
          "internalType": "address",
          "name": "user",
          "type": "address"
        }
      ],
      "name": "syncUser",
      "outputs": [],
      "stateMutability": "nonpayable",
      "type": "function"
    },
    {
      "inputs": [
        {
          "internalType": "address",
          "name": "",
          "type": "address"
        }
      ],
      "name": "teamStatsCache",
      "outputs": [
        {
          "internalType": "uint256",
          "name": "totalMembers",
          "type": "uint256"
        },
        {
          "internalType": "uint256",
          "name": "totalBondPower",
          "type": "uint256"
        },
        {
          "internalType": "uint256",
          "name": "activeMembers",
          "type": "uint256"
        },
        {
          "internalType": "uint256",
          "name": "lastUpdateTime",
          "type": "uint256"
        }
      ],
      "stateMutability": "view",
      "type": "function"
    },
    {
      "inputs": [],
      "name": "testMode",
      "outputs": [
        {
          "internalType": "bool",
          "name": "",
          "type": "bool"
        }
      ],
      "stateMutability": "view",
      "type": "function"
    },
    {
      "inputs": [],
      "name": "testModeDisabledPermanently",
      "outputs": [
        {
          "internalType": "bool",
          "name": "",
          "type": "bool"
        }
      ],
      "stateMutability": "view",
      "type": "function"
    },
    {
      "inputs": [],
      "name": "totalMinted",
      "outputs": [
        {
          "internalType": "uint256",
          "name": "",
          "type": "uint256"
        }
      ],
      "stateMutability": "view",
      "type": "function"
    },
    {
      "inputs": [],
      "name": "totalPoolBondPower",
      "outputs": [
        {
          "internalType": "uint256",
          "name": "",
          "type": "uint256"
        }
      ],
      "stateMutability": "view",
      "type": "function"
    },
    {
      "inputs": [
        {
          "internalType": "address",
          "name": "newOwner",
          "type": "address"
        }
      ],
      "name": "transferOwnership",
      "outputs": [],
      "stateMutability": "nonpayable",
      "type": "function"
    },
    {
      "inputs": [],
      "name": "updatePool",
      "outputs": [],
      "stateMutability": "nonpayable",
      "type": "function"
    },
    {
      "inputs": [
        {
          "internalType": "uint256",
          "name": "_currentPrice",
          "type": "uint256"
        },
        {
          "internalType": "uint256",
          "name": "_ma30Price",
          "type": "uint256"
        },
        {
          "internalType": "uint256",
          "name": "_price1hAgo",
          "type": "uint256"
        }
      ],
      "name": "updatePrices",
      "outputs": [],
      "stateMutability": "nonpayable",
      "type": "function"
    },
    {
      "inputs": [
        {
          "internalType": "address",
          "name": "",
          "type": "address"
        }
      ],
      "name": "userInfo",
      "outputs": [
        {
          "internalType": "uint256",
          "name": "bondPower",
          "type": "uint256"
        },
        {
          "internalType": "uint256",
          "name": "rewardDebt",
          "type": "uint256"
        },
        {
          "internalType": "uint256",
          "name": "pendingVested",
          "type": "uint256"
        },
        {
          "internalType": "uint256",
          "name": "vestingStartTime",
          "type": "uint256"
        },
        {
          "internalType": "uint256",
          "name": "totalVested",
          "type": "uint256"
        },
        {
          "internalType": "uint256",
          "name": "totalClaimed",
          "type": "uint256"
        }
      ],
      "stateMutability": "view",
      "type": "function"
    }
  ],
  "bytecode": "0x6080604052670de0b6b3a7640000600d55670de0b6b3a7640000601155670de0b6b3a7640000601255670de0b6b3a76400006013556001601460006101000a81548160ff0219169083151502179055503480156200005c57600080fd5b50604051620078853803806200788583398181016040528101906200008291906200028e565b33600073ffffffffffffffffffffffffffffffffffffffff168173ffffffffffffffffffffffffffffffffffffffff1603620000f85760006040517f1e4fbdf7000000000000000000000000000000000000000000000000000000008152600401620000ef9190620002d1565b60405180910390fd5b62000109816200016060201b60201c565b506001808190555080600460006101000a81548173ffffffffffffffffffffffffffffffffffffffff021916908373ffffffffffffffffffffffffffffffffffffffff16021790555042600b8190555050620002ee565b60008060009054906101000a900473ffffffffffffffffffffffffffffffffffffffff169050816000806101000a81548173ffffffffffffffffffffffffffffffffffffffff021916908373ffffffffffffffffffffffffffffffffffffffff1602179055508173ffffffffffffffffffffffffffffffffffffffff168173ffffffffffffffffffffffffffffffffffffffff167f8be0079c531659141344cd1fd0a4f28419497f9722a3daafe3b4186f6b6457e060405160405180910390a35050565b600080fd5b600073ffffffffffffffffffffffffffffffffffffffff82169050919050565b6000620002568262000229565b9050919050565b620002688162000249565b81146200027457600080fd5b50565b60008151905062000288816200025d565b92915050565b600060208284031215620002a757620002a662000224565b5b6000620002b78482850162000277565b91505092915050565b620002cb8162000249565b82525050565b6000602082019050620002e86000830184620002c0565b92915050565b61758780620002fe6000396000f3fe608060405234801561001057600080fd5b50600436106104ac5760003560e01c8063983d896e1161026d578063d2c8e0e511610151578063e88067e8116100ce578063f2fde38b11610092578063f2fde38b14610e2a578063f706555b14610e46578063f864233114610e64578063f89f83fb14610e82578063fb897ce414610eb3578063fc84d91314610ee8576104ac565b8063e88067e814610d95578063e979ca4a14610db1578063eacf59c814610dbb578063eef1be2c14610dd9578063f2eef31614610df7576104ac565b8063e0c9bc6211610115578063e0c9bc6214610d01578063e1f1c4a714610d1f578063e3161ddd14610d3d578063e4147ca214610d47578063e4941c3914610d65576104ac565b8063d2c8e0e514610c55578063d63636e414610c87578063da6510b414610cbb578063dcebf68114610cd9578063de5f8d9314610cf7576104ac565b8063a95d5a60116101ea578063cd9ea342116101ae578063cd9ea34214610bc9578063cda80bfa14610be7578063ce28c1bf14610c05578063d01c44cd14610c23578063d2121b4e14610c2d578063d2522baa14610c4b576104ac565b8063a95d5a6014610b0b578063aa4a442c14610b29578063af77063d14610b5c578063afce88ec14610b78578063b3def2f514610bab576104ac565b80639f55d64c116102315780639f55d64c14610a65578063a2309ff814610a83578063a28aee1514610aa1578063a29a7ab014610abf578063a7bd3e9d14610aef576104ac565b8063983d896e146109cf5780639b565faa146109ed5780639c41ee6714610a0b5780639d14b2a214610a295780639d1b464a14610a47576104ac565b8063458f8f941161039457806375beb7b11161031157806389e59ea0116102d557806389e59ea01461091d5780638da5cb5b1461093b5780638e8b6c88146109595780639231cf7414610975578063934b7c5414610993578063945c3ebd146109b1576104ac565b806375beb7b114610880578063763f62061461089e578063771aceef146108be5780637adbf973146108e35780637dc0d1d0146108ff576104ac565b80634a08c7dd116103585780634a08c7dd146107d357806352aa8a5e146108065780635e147f9014610824578063715018a61461084257806374c7773e1461084c576104ac565b8063458f8f94146107515780634641257d1461076f5780634897fffb1461077957806349b9a7af1461079757806349cea162146107b5576104ac565b80631959a0021161042d5780632b5615d2116103f15780632b5615d21461069f57806330d172d5146106bd57806336be3538146106db5780633a03171c146106f95780633eceb63e146107175780633ed620a414610735576104ac565b80631959a002146105f45780631ff1292f1461062957806321cccba214610645578063277c19b0146106635780632914655514610681576104ac565b8063091075a911610474578063091075a91461055b5780630c2330a51461057957806310d60dc414610597578063123d1179146105b857806318c3b674146105d6576104ac565b80630197d972146104b1578063033d30fe146104cf57806303e45a4b146104eb5780630420bace1461050d57806305ad39351461052b575b600080fd5b6104b9610f06565b6040516104c69190615adf565b60405180910390f35b6104e960048036038101906104e49190615b5d565b610f0d565b005b6104f3610fc8565b604051610504959493929190615c01565b60405180910390f35b610515611115565b6040516105229190615adf565b60405180910390f35b61054560048036038101906105409190615c80565b611121565b6040516105529190615ccf565b60405180910390f35b61056361116f565b6040516105709190615adf565b60405180910390f35b6105816111bf565b60405161058e9190615adf565b60405180910390f35b61059f6111c5565b6040516105af9493929190615cea565b60405180910390f35b6105c0611253565b6040516105cd9190615d48565b60405180910390f35b6105de611277565b6040516105eb9190615d7e565b60405180910390f35b61060e60048036038101906106099190615b5d565b61128a565b60405161062096959493929190615d99565b60405180910390f35b610643600480360381019061063e9190615e26565b6112c6565b005b61064d6114ff565b60405161065a9190615adf565b60405180910390f35b61066b61150b565b6040516106789190615adf565b60405180910390f35b610689611510565b6040516106969190615eb2565b60405180910390f35b6106a7611536565b6040516106b49190615adf565b60405180910390f35b6106c5611542565b6040516106d29190615eee565b60405180910390f35b6106e3611568565b6040516106f09190615adf565b60405180910390f35b61070161156e565b60405161070e9190615adf565b60405180910390f35b61071f61157d565b60405161072c9190615adf565b60405180910390f35b61074f600480360381019061074a9190615f09565b611583565b005b6107596119b8565b6040516107669190615adf565b60405180910390f35b6107776119c1565b005b610781611d18565b60405161078e9190615f7d565b60405180910390f35b61079f611d3e565b6040516107ac9190615adf565b60405180910390f35b6107bd611d44565b6040516107ca9190615d7e565b60405180910390f35b6107ed60048036038101906107e89190615c80565b611d5b565b6040516107fd9493929190615fb4565b60405180910390f35b61080e611dd5565b60405161081b9190615adf565b60405180910390f35b61082c611dea565b6040516108399190615d48565b60405180910390f35b61084a611e0e565b005b61086660048036038101906108619190615b5d565b611e22565b604051610877959493929190615ff9565b60405180910390f35b610888611ef3565b6040516108959190615adf565b60405180910390f35b6108a6611ef8565b6040516108b59392919061604c565b60405180910390f35b6108c6611f1d565b6040516108da989796959493929190616083565b60405180910390f35b6108fd60048036038101906108f89190615b5d565b611fb9565b005b6109076120b7565b6040516109149190616122565b60405180910390f35b6109256120dd565b6040516109329190615adf565b60405180910390f35b6109436120e2565b6040516109509190615ccf565b60405180910390f35b610973600480360381019061096e9190615b5d565b61210b565b005b61097d612117565b60405161098a9190615adf565b60405180910390f35b61099b61211d565b6040516109a89190615adf565b60405180910390f35b6109b9612123565b6040516109c69190615adf565b60405180910390f35b6109d7612131565b6040516109e49190615adf565b60405180910390f35b6109f5612136565b604051610a02919061615e565b60405180910390f35b610a1361215c565b604051610a209190615adf565b60405180910390f35b610a31612161565b604051610a3e9190615adf565b60405180910390f35b610a4f612167565b604051610a5c9190615adf565b60405180910390f35b610a6d61216d565b604051610a7a9190615adf565b60405180910390f35b610a8b61217c565b604051610a989190615adf565b60405180910390f35b610aa9612182565b604051610ab69190615adf565b60405180910390f35b610ad96004803603810190610ad49190615b5d565b61219e565b604051610ae69190615adf565b60405180910390f35b610b096004803603810190610b049190615b5d565b6121b6565b005b610b13612271565b604051610b209190615adf565b60405180910390f35b610b436004803603810190610b3e9190615b5d565b61227d565b604051610b539493929190615cea565b60405180910390f35b610b766004803603810190610b719190616179565b6122ad565b005b610b926004803603810190610b8d9190615b5d565b6128e5565b604051610ba29493929190615cea565b60405180910390f35b610bb36129b8565b604051610bc09190615adf565b60405180910390f35b610bd16129be565b604051610bde9190615d7e565b60405180910390f35b610bef6129d1565b604051610bfc9190615adf565b60405180910390f35b610c0d6129dc565b604051610c1a9190615adf565b60405180910390f35b610c2b6129eb565b005b610c35612c96565b604051610c429190615adf565b60405180910390f35b610c53612c9c565b005b610c6f6004803603810190610c6a9190615b5d565b612e2e565b604051610c7e93929190616322565b60405180910390f35b610ca16004803603810190610c9c9190615b5d565b6131b2565b604051610cb295949392919061636e565b60405180910390f35b610cc3613399565b604051610cd09190615adf565b60405180910390f35b610ce161339f565b604051610cee9190615adf565b60405180910390f35b610cff6133ab565b005b610d096135b4565b604051610d169190615d48565b60405180910390f35b610d276135d8565b604051610d349190615adf565b60405180910390f35b610d456135de565b005b610d4f61375c565b604051610d5c9190615adf565b60405180910390f35b610d7f6004803603810190610d7a9190615b5d565b6138dd565b604051610d8c9190615adf565b60405180910390f35b610daf6004803603810190610daa9190615b5d565b613a41565b005b610db9613afc565b005b610dc3613d97565b604051610dd09190615adf565b60405180910390f35b610de1613d9e565b604051610dee9190615adf565b60405180910390f35b610e116004803603810190610e0c9190615b5d565b613da4565b604051610e219493929190615cea565b60405180910390f35b610e446004803603810190610e3f9190615b5d565b613e74565b005b610e4e613efa565b604051610e5b9190615adf565b60405180910390f35b610e6c613f00565b604051610e799190615adf565b60405180910390f35b610e9c6004803603810190610e9791906163c1565b613f06565b604051610eaa929190616527565b60405180910390f35b610ecd6004803603810190610ec89190615b5d565b61418f565b604051610edf96959493929190615d99565b60405180910390f35b610ef06142c1565b604051610efd9190615adf565b60405180910390f35b62278d0081565b610f156142c7565b600073ffffffffffffffffffffffffffffffffffffffff168173ffffffffffffffffffffffffffffffffffffffff1603610f84576040517f08c379a0000000000000000000000000000000000000000000000000000000008152600401610f7b906165b4565b60405180910390fd5b80600360006101000a81548173ffffffffffffffffffffffffffffffffffffffff021916908373ffffffffffffffffffffffffffffffffffffffff16021790555050565b6000806000806000600760000160009054906101000a900460ff169450600760010154935060076002015492506000600381111561100957611008615b8a565b5b85600381111561101c5761101b615b8a565b5b0361103e5784600080600061102f61375c565b9450945094509450945061110e565b6000600760010154426110519190616603565b905060008060038081111561106957611068615b8a565b5b88600381111561107c5761107b615b8a565b5b036110965762015180915066b1a2bc2ec5000090506110e9565b600260038111156110aa576110a9615b8a565b5b8860038111156110bd576110bc615b8a565b5b036110d75761a8c091506702c68af0bb14000090506110e8565b61384091506706f05b59d3b2000090505b5b818310156111025782826110fd9190616603565b611105565b60005b94508093505050505b9091929394565b6706f05b59d3b2000081565b601a602052816000526040600020818154811061113d57600080fd5b906000526020600020016000915091509054906101000a900473ffffffffffffffffffffffffffffffffffffffff1681565b60008061117a61375c565b90506ec097ce7bc90715b34b9f100000000081600d5469065a4da25d3016c000006111a59190616637565b6111af9190616637565b6111b991906166a8565b91505090565b61138881565b6000806000806010549350600d5492506a05ca4ec2a79a7f6700000060016010546111f091906166d9565b6111fa9190616637565b915060006a05ca4ec2a79a7f670000006010546112179190616637565b600e546112249190616603565b90506a05ca4ec2a79a7f67000000612710826112409190616637565b61124a91906166a8565b91505090919293565b7fffffffffffffffffffffffffffffffffffffffffffffffffffffffffffffffe781565b601660009054906101000a900460ff1681565b60176020528060005260406000206000915090508060000154908060010154908060020154908060030154908060040154908060050154905086565b6112ce6142c7565b801515601460009054906101000a900460ff16151503611323576040517f08c379a000000000000000000000000000000000000000000000000000000000815260040161131a90616759565b60405180910390fd5b8061145857600073ffffffffffffffffffffffffffffffffffffffff16600560009054906101000a900473ffffffffffffffffffffffffffffffffffffffff1673ffffffffffffffffffffffffffffffffffffffff16036113b9576040517f08c379a00000000000000000000000000000000000000000000000000000000081526004016113b0906167eb565b60405180910390fd5b6001601660006101000a81548160ff0219169083151502179055506000601460006101000a81548160ff0219169083151502179055507f3aa6186db6afba61ec3731f16e23fdea8dfa0dfe10d7c05942d11fdb365db031600060405161141f9190615d7e565b60405180910390a17f7b953117c0b198733758d75ae32e08fc7c05c91df4a53764487b88bb7309d1a660405160405180910390a16114fc565b601660009054906101000a900460ff16156114a8576040517f08c379a000000000000000000000000000000000000000000000000000000000815260040161149f90616857565b60405180910390fd5b6001601460006101000a81548160ff0219169083151502179055507f3aa6186db6afba61ec3731f16e23fdea8dfa0dfe10d7c05942d11fdb365db03160016040516114f39190615d7e565b60405180910390a15b50565b6714d1120d7b16000081565b60c881565b600360009054906101000a900473ffffffffffffffffffffffffffffffffffffffff1681565b67016345785d8a000081565b600660009054906101000a900473ffffffffffffffffffffffffffffffffffffffff1681565b61384081565b6a52b7d2dcc80cd2e400000081565b61a8c081565b6000831180156115935750600082115b801561159f5750600081115b6115de576040517f08c379a00000000000000000000000000000000000000000000000000000000081526004016115d5906168c3565b60405180910390fd5b601460009054906101000a900460ff16156117cb576115fb6120e2565b73ffffffffffffffffffffffffffffffffffffffff163373ffffffffffffffffffffffffffffffffffffffff1614611668576040517f08c379a000000000000000000000000000000000000000000000000000000000815260040161165f9061692f565b60405180910390fd5b610e1060155461167891906166d9565b4210156116ba576040517f08c379a00000000000000000000000000000000000000000000000000000000081526004016116b1906169c1565b60405180910390fd5b6000601154111561176f576000606460326011546116d89190616637565b6116e291906166a8565b6011546116ef91906166d9565b90506000606460326011546117049190616637565b61170e91906166a8565b60115461171b9190616603565b905080851015801561172d5750818511155b61176c576040517f08c379a000000000000000000000000000000000000000000000000000000000815260040161176390616a53565b60405180910390fd5b50505b826011819055508160128190555080601381905550426015819055507f15819dd2fd9f6418b142e798d08a18d0bf06ea368f4480b7b0d3f75bd966bc488383836040516117be93929190616a73565b60405180910390a16119b3565b600073ffffffffffffffffffffffffffffffffffffffff16600560009054906101000a900473ffffffffffffffffffffffffffffffffffffffff1673ffffffffffffffffffffffffffffffffffffffff160361185c576040517f08c379a000000000000000000000000000000000000000000000000000000000815260040161185390616af6565b60405180910390fd5b6000600560009054906101000a900473ffffffffffffffffffffffffffffffffffffffff1673ffffffffffffffffffffffffffffffffffffffff1663b3596f07600460009054906101000a900473ffffffffffffffffffffffffffffffffffffffff166040518263ffffffff1660e01b81526004016118db9190615ccf565b602060405180830381865afa1580156118f8573d6000803e3d6000fd5b505050506040513d601f19601f8201168201806040525081019061191c9190616b2b565b905060008111611961576040517f08c379a000000000000000000000000000000000000000000000000000000000815260040161195890616ba4565b60405180910390fd5b8060118190555082601281905550816013819055507f15819dd2fd9f6418b142e798d08a18d0bf06ea368f4480b7b0d3f75bd966bc488184846040516119a993929190616a73565b60405180910390a1505b505050565b64e8d4a5100081565b6119c961434e565b60003390506119d781614394565b6000601760008373ffffffffffffffffffffffffffffffffffffffff1673ffffffffffffffffffffffffffffffffffffffff168152602001908152602001600020905060008160020154905060008111611a66576040517f08c379a0000000000000000000000000000000000000000000000000000000008152600401611a5d90616c10565b60405180910390fd5b6a39e7139a8c08fa06000000600e5410611ab5576040517f08c379a0000000000000000000000000000000000000000000000000000000008152600401611aac90616c7c565b60405180910390fd5b6000603260c86101f46103e8611acb91906166d9565b611ad591906166d9565b611adf91906166d9565b905060006127108284611af29190616637565b611afc91906166a8565b905060008184611b0c91906166d9565b90506a39e7139a8c08fa0600000081600e54611b2891906166d9565b1115611b75576000600e546a39e7139a8c08fa06000000611b499190616603565b905083612710611b5991906166d9565b61271082611b679190616637565b611b7191906166a8565b9450505b6000856002018190555083856004016000828254611b9391906166d9565b925050819055506000856003015403611bb0574285600301819055505b83600e6000828254611bc291906166d9565b92505081905550600460009054906101000a900473ffffffffffffffffffffffffffffffffffffffff1673ffffffffffffffffffffffffffffffffffffffff166340c10f1930866040518363ffffffff1660e01b8152600401611c26929190616c9c565b600060405180830381600087803b158015611c4057600080fd5b505af1158015611c54573d6000803e3d6000fd5b50505050611c6061470b565b611c6a86856147d5565b8573ffffffffffffffffffffffffffffffffffffffff167fbc8fb63d817de4fabea2108e9b7eefca87245899f4b357636c26b5cad02ec5b485604051611cb09190615adf565b60405180910390a28573ffffffffffffffffffffffffffffffffffffffff167f8fe19f160f86d04fb1a90dde93e5e1a47df0810685adf4b990153c107d7b39248542604051611d00929190616cc5565b60405180910390a2505050505050611d166153cb565b565b600460009054906101000a900473ffffffffffffffffffffffffffffffffffffffff1681565b60155481565b6000601660009054906101000a900460ff16905090565b60196020528160005260406000208181548110611d7757600080fd5b9060005260206000209060030201600091509150508060000154908060010154908060020160009054906101000a900460ff16908060020160019054906101000a900473ffffffffffffffffffffffffffffffffffffffff16905084565b6000611de56011546012546153d4565b905090565b7ffffffffffffffffffffffffffffffffffffffffffffffffffffffffffffffff681565b611e166142c7565b611e2060006154dd565b565b600080600080600080601760008873ffffffffffffffffffffffffffffffffffffffff1673ffffffffffffffffffffffffffffffffffffffff168152602001908152602001600020905080600001549550611e7c876138dd565b9450806004015493508060050154925060008160030154118015611ea4575060008160040154115b15611ee9576000816003015442611ebb9190616603565b905062278d008110611ee25781600501548260040154611edb9190616603565b9250611ee7565b600092505b505b5091939590929450565b603281565b60078060000160009054906101000a900460ff16908060010154908060020154905083565b600080600080600080600080600e5497506a39e7139a8c08fa060000009650600d549550611f4961375c565b9450600c5493506201518069065a4da25d3016c00000611f6991906166a8565b92506ec097ce7bc90715b34b9f100000000085600d5469065a4da25d3016c00000611f949190616637565b611f9e9190616637565b611fa891906166a8565b915060105490509091929394959697565b611fc16142c7565b600073ffffffffffffffffffffffffffffffffffffffff168173ffffffffffffffffffffffffffffffffffffffff1603612030576040517f08c379a0000000000000000000000000000000000000000000000000000000008152600401612027906165b4565b60405180910390fd5b80600560006101000a81548173ffffffffffffffffffffffffffffffffffffffff021916908373ffffffffffffffffffffffffffffffffffffffff1602179055508073ffffffffffffffffffffffffffffffffffffffff167f6536690106168bdf4ba72c128a053d817999b1db90cae23f139b293bf862cb7560405160405180910390a250565b600560009054906101000a900473ffffffffffffffffffffffffffffffffffffffff1681565b601481565b60008060009054906101000a900473ffffffffffffffffffffffffffffffffffffffff16905090565b61211481614394565b50565b600b5481565b600f5481565b69065a4da25d3016c0000081565b605f81565b600260009054906101000a900473ffffffffffffffffffffffffffffffffffffffff1681565b603281565b600c5481565b60115481565b6a05ca4ec2a79a7f6700000081565b600e5481565b6201518069065a4da25d3016c0000061219b91906166a8565b81565b60186020528060005260406000206000915090505481565b6121be6142c7565b600073ffffffffffffffffffffffffffffffffffffffff168173ffffffffffffffffffffffffffffffffffffffff160361222d576040517f08c379a0000000000000000000000000000000000000000000000000000000008152600401612224906165b4565b60405180910390fd5b80600660006101000a81548173ffffffffffffffffffffffffffffffffffffffff021916908373ffffffffffffffffffffffffffffffffffffffff16021790555050565b6702c68af0bb14000081565b601c6020528060005260406000206000915090508060000154908060010154908060020154908060030154905084565b6122b561434e565b3373ffffffffffffffffffffffffffffffffffffffff16600360009054906101000a900473ffffffffffffffffffffffffffffffffffffffff1673ffffffffffffffffffffffffffffffffffffffff1663331f5dcf836040518263ffffffff1660e01b81526004016123279190615adf565b602060405180830381865afa158015612344573d6000803e3d6000fd5b505050506040513d601f19601f820116820180604052508101906123689190616d03565b73ffffffffffffffffffffffffffffffffffffffff16146123be576040517f08c379a00000000000000000000000000000000000000000000000000000000081526004016123b590616d7c565b60405180910390fd5b6123c66135de565b6000601760003373ffffffffffffffffffffffffffffffffffffffff1673ffffffffffffffffffffffffffffffffffffffff16815260200190815260200160002090506000816001015464e8d4a51000600a5484600001546124289190616637565b61243291906166a8565b61243c9190616603565b9050600082600201548261245091906166d9565b905060008111612495576040517f08c379a000000000000000000000000000000000000000000000000000000000815260040161248c90616de8565b60405180910390fd5b64e8d4a51000600a5484600001546124ad9190616637565b6124b791906166a8565b8360010181905550600083600201819055506a39e7139a8c08fa0600000081600e546124e391906166d9565b111561256457600e546a39e7139a8c08fa060000001161250457600061251e565b600e546a39e7139a8c08fa0600000061251d9190616603565b5b905060008111612563576040517f08c379a000000000000000000000000000000000000000000000000000000000815260040161255a90616e7a565b60405180910390fd5b5b80600e600082825461257691906166d9565b92505081905550600460009054906101000a900473ffffffffffffffffffffffffffffffffffffffff1673ffffffffffffffffffffffffffffffffffffffff166340c10f1930836040518363ffffffff1660e01b81526004016125da929190616c9c565b600060405180830381600087803b1580156125f457600080fd5b505af1158015612608573d6000803e3d6000fd5b505050506000600560009054906101000a900473ffffffffffffffffffffffffffffffffffffffff1673ffffffffffffffffffffffffffffffffffffffff1663b3596f07600460009054906101000a900473ffffffffffffffffffffffffffffffffffffffff166040518263ffffffff1660e01b815260040161268b9190615ccf565b602060405180830381865afa1580156126a8573d6000803e3d6000fd5b505050506040513d601f19601f820116820180604052508101906126cc9190616b2b565b905060008111612711576040517f08c379a000000000000000000000000000000000000000000000000000000000815260040161270890616ee6565b60405180910390fd5b6000670de0b6b3a764000082846127289190616637565b61273291906166a8565b905060006064606e836127459190616637565b61274f91906166a8565b9050600460009054906101000a900473ffffffffffffffffffffffffffffffffffffffff1673ffffffffffffffffffffffffffffffffffffffff1663a9059cbb61dead866040518363ffffffff1660e01b81526004016127b0929190616c9c565b6020604051808303816000875af11580156127cf573d6000803e3d6000fd5b505050506040513d601f19601f820116820180604052508101906127f39190616f1b565b50600360009054906101000a900473ffffffffffffffffffffffffffffffffffffffff1673ffffffffffffffffffffffffffffffffffffffff1663341186c288836040518363ffffffff1660e01b8152600401612851929190616cc5565b600060405180830381600087803b15801561286b57600080fd5b505af115801561287f573d6000803e3d6000fd5b50505050863373ffffffffffffffffffffffffffffffffffffffff167fa78b9a656c956dc5f492315beb888731d0142b384ffc2b15834ea73d69fb76bb86846040516128cc929190616cc5565b60405180910390a35050505050506128e26153cb565b50565b600080600080600073ffffffffffffffffffffffffffffffffffffffff16600260009054906101000a900473ffffffffffffffffffffffffffffffffffffffff1673ffffffffffffffffffffffffffffffffffffffff16036129545760008060008093509350935093506129b1565b601a60008673ffffffffffffffffffffffffffffffffffffffff1673ffffffffffffffffffffffffffffffffffffffff1681526020019081526020016000208054905090506129a48560006155a1565b8094508195508296505050505b9193509193565b600d5481565b601460009054906101000a900460ff1681565b66b1a2bc2ec5000081565b6a39e7139a8c08fa0600000081565b6129f361434e565b60003390506000601760008373ffffffffffffffffffffffffffffffffffffffff1673ffffffffffffffffffffffffffffffffffffffff16815260200190815260200160002090506000816004015411612a82576040517f08c379a0000000000000000000000000000000000000000000000000000000008152600401612a7990616f94565b60405180910390fd5b6000816003015411612ac9576040517f08c379a0000000000000000000000000000000000000000000000000000000008152600401612ac090617000565b60405180910390fd5b6000816003015442612adb9190616603565b905062278d00811015612b23576040517f08c379a0000000000000000000000000000000000000000000000000000000008152600401612b1a9061706c565b60405180910390fd5b600082600501548360040154612b399190616603565b905060008111612b7e576040517f08c379a0000000000000000000000000000000000000000000000000000000008152600401612b75906170d8565b60405180910390fd5b80836005016000828254612b9291906166d9565b92505081905550600460009054906101000a900473ffffffffffffffffffffffffffffffffffffffff1673ffffffffffffffffffffffffffffffffffffffff1663a9059cbb85836040518363ffffffff1660e01b8152600401612bf6929190616c9c565b6020604051808303816000875af1158015612c15573d6000803e3d6000fd5b505050506040513d601f19601f82011682018060405250810190612c399190616f1b565b508373ffffffffffffffffffffffffffffffffffffffff167f9fe9b7be9d151c7a8b6de49a1312ff27a15096d0d1d12999af85fe4310e0b12582604051612c809190615adf565b60405180910390a250505050612c946153cb565b565b60125481565b60006013540315612e2c576000601354601154612cb991906170f8565b90506000601354606483612ccd919061713b565b612cd791906171b3565b905060007fffffffffffffffffffffffffffffffffffffffffffffffffffffffffffffffe78213612d0b5760039050612d69565b7ffffffffffffffffffffffffffffffffffffffffffffffffffffffffffffffff18213612d3b5760029050612d68565b7ffffffffffffffffffffffffffffffffffffffffffffffffffffffffffffffff68213612d6757600190505b5b5b600760000160009054906101000a900460ff166003811115612d8e57612d8d615b8a565b5b816003811115612da157612da0615b8a565b5b1115612e285780600760000160006101000a81548160ff02191690836003811115612dcf57612dce615b8a565b5b0217905550426007600101819055506011546007600201819055507f4fa52a45d7e5a216674f536c9e84f867dce6e9a6c6b5fe88f640855bf92256818142601154604051612e1f9392919061604c565b60405180910390a15b5050505b565b6060806060601a60008573ffffffffffffffffffffffffffffffffffffffff1673ffffffffffffffffffffffffffffffffffffffff168152602001908152602001600020805480602002602001604051908101604052809291908181526020018280548015612ef257602002820191906000526020600020905b8160009054906101000a900473ffffffffffffffffffffffffffffffffffffffff1673ffffffffffffffffffffffffffffffffffffffff1681526020019060010190808311612ea8575b505050505092506000835190508067ffffffffffffffff811115612f1957612f1861721d565b5b604051908082528060200260200182016040528015612f475781602001602082028036833780820191505090505b5092508067ffffffffffffffff811115612f6457612f6361721d565b5b604051908082528060200260200182016040528015612f925781602001602082028036833780820191505090505b50915060005b818110156131a9576000858281518110612fb557612fb461724c565b5b60200260200101519050601760008273ffffffffffffffffffffffffffffffffffffffff1673ffffffffffffffffffffffffffffffffffffffff168152602001908152602001600020600001548583815181106130155761301461724c565b5b602002602001018181525050600080601960008a73ffffffffffffffffffffffffffffffffffffffff1673ffffffffffffffffffffffffffffffffffffffff168152602001908152602001600020905060005b8180549050811015613172578373ffffffffffffffffffffffffffffffffffffffff1682828154811061309e5761309d61724c565b5b906000526020600020906003020160020160019054906101000a900473ffffffffffffffffffffffffffffffffffffffff1673ffffffffffffffffffffffffffffffffffffffff16148015613127575060018282815481106131035761310261724c565b5b906000526020600020906003020160020160009054906101000a900460ff1660ff16145b1561315f5781818154811061313f5761313e61724c565b5b9060005260206000209060030201600101548361315c91906166d9565b92505b808061316a9061727b565b915050613068565b50818685815181106131875761318661724c565b5b60200260200101818152505050505080806131a19061727b565b915050612f98565b50509193909250565b6000806000806000601a60008773ffffffffffffffffffffffffffffffffffffffff1673ffffffffffffffffffffffffffffffffffffffff168152602001908152602001600020805490509450601860008773ffffffffffffffffffffffffffffffffffffffff1673ffffffffffffffffffffffffffffffffffffffff168152602001908152602001600020549250601960008773ffffffffffffffffffffffffffffffffffffffff1673ffffffffffffffffffffffffffffffffffffffff168152602001908152602001600020805490509150600073ffffffffffffffffffffffffffffffffffffffff16600260009054906101000a900473ffffffffffffffffffffffffffffffffffffffff1673ffffffffffffffffffffffffffffffffffffffff1614613390576000600260009054906101000a900473ffffffffffffffffffffffffffffffffffffffff1673ffffffffffffffffffffffffffffffffffffffff166370a08231886040518263ffffffff1660e01b81526004016133399190615ccf565b602060405180830381865afa158015613356573d6000803e3d6000fd5b505050506040513d601f19601f8201168201806040525081019061337a9190616b2b565b1190506133888660006155a1565b905050809450505b91939590929450565b6101f481565b671bc16d674ec8000081565b6133b36142c7565b600060038111156133c7576133c6615b8a565b5b600760000160009054906101000a900460ff1660038111156133ec576133eb615b8a565b5b0361342c576040517f08c379a00000000000000000000000000000000000000000000000000000000081526004016134239061730f565b60405180910390fd5b60006007600101544261343f9190616603565b9050600060038081111561345657613455615b8a565b5b600760000160009054906101000a900460ff16600381111561347b5761347a615b8a565b5b0361348b576201518090506134da565b6002600381111561349f5761349e615b8a565b5b600760000160009054906101000a900460ff1660038111156134c4576134c3615b8a565b5b036134d35761a8c090506134d9565b61384090505b5b8082101561351d576040517f08c379a00000000000000000000000000000000000000000000000000000000081526004016135149061737b565b60405180910390fd5b6000600760000160009054906101000a900460ff1690506000600760000160006101000a81548160ff0219169083600381111561355d5761355c615b8a565b5b0217905550600060076001018190555060006007600201819055507f07130c8b39a90581223fe2d149b6458e7d26925c0ea5c3156721b96e564c3659816040516135a7919061739b565b60405180910390a1505050565b7ffffffffffffffffffffffffffffffffffffffffffffffffffffffffffffffff181565b61271081565b600b5442111561375a576000600c54036135fe5742600b8190555061375a565b6000600b544261360e9190616603565b9050600061361a61375c565b905060006ec097ce7bc90715b34b9f100000000082600d546201518069065a4da25d3016c0000061364b91906166a8565b866136569190616637565b6136609190616637565b61366a9190616637565b61367491906166a8565b90506a39e7139a8c08fa0600000081600e5461369091906166d9565b11156136ce57600e546a39e7139a8c08fa06000000116136b15760006136cb565b600e546a39e7139a8c08fa060000006136ca9190616603565b5b90505b600081111561370e57600c5464e8d4a51000826136eb9190616637565b6136f591906166a8565b600a600082825461370691906166d9565b925050819055505b42600b819055507f17b8644f386d1c7c7138ef98b3c8035622bbe94d7be9b26f71d2654a547c2943600a54600b54600c5460405161374e93929190616a73565b60405180910390a15050505b565b600080600381111561377157613770615b8a565b5b600760000160009054906101000a900460ff16600381111561379657613795615b8a565b5b146138c9576000600760010154426137ae9190616603565b90506003808111156137c3576137c2615b8a565b5b600760000160009054906101000a900460ff1660038111156137e8576137e7615b8a565b5b0361380d57620151808110156138085766b1a2bc2ec500009150506138da565b6138c7565b6002600381111561382157613820615b8a565b5b600760000160009054906101000a900460ff16600381111561384657613845615b8a565b5b0361386b5761a8c0811015613866576702c68af0bb1400009150506138da565b6138c6565b6001600381111561387f5761387e615b8a565b5b600760000160009054906101000a900460ff1660038111156138a4576138a3615b8a565b5b036138c5576138408110156138c4576706f05b59d3b200009150506138da565b5b5b5b505b6138d76011546012546153d4565b90505b90565b600080601760008473ffffffffffffffffffffffffffffffffffffffff1673ffffffffffffffffffffffffffffffffffffffff16815260200190815260200160002090506000600a549050600b544211801561393b57506000600c54115b156139e7576000600b54426139509190616603565b9050600061395c61375c565b905060006ec097ce7bc90715b34b9f100000000082600d546201518069065a4da25d3016c0000061398d91906166a8565b866139989190616637565b6139a29190616637565b6139ac9190616637565b6139b691906166a8565b9050600c5464e8d4a51000826139cc9190616637565b6139d691906166a8565b846139e191906166d9565b93505050505b60008083600001541115613a2757826001015464e8d4a51000838560000154613a109190616637565b613a1a91906166a8565b613a249190616603565b90505b826002015481613a3791906166d9565b9350505050919050565b613a496142c7565b600073ffffffffffffffffffffffffffffffffffffffff168173ffffffffffffffffffffffffffffffffffffffff1603613ab8576040517f08c379a0000000000000000000000000000000000000000000000000000000008152600401613aaf906165b4565b60405180910390fd5b80600260006101000a81548173ffffffffffffffffffffffffffffffffffffffff021916908373ffffffffffffffffffffffffffffffffffffffff16021790555050565b613b0461434e565b60003390506000601760008373ffffffffffffffffffffffffffffffffffffffff1673ffffffffffffffffffffffffffffffffffffffff16815260200190815260200160002090508060050154816004015411613b96576040517f08c379a0000000000000000000000000000000000000000000000000000000008152600401613b8d90617402565b60405180910390fd5b600081600501548260040154613bac9190616603565b9050600061271061138883613bc19190616637565b613bcb91906166a8565b905060008183613bdb9190616603565b905083600401548460050181905550600460009054906101000a900473ffffffffffffffffffffffffffffffffffffffff1673ffffffffffffffffffffffffffffffffffffffff1663a9059cbb86836040518363ffffffff1660e01b8152600401613c47929190616c9c565b6020604051808303816000875af1158015613c66573d6000803e3d6000fd5b505050506040513d601f19601f82011682018060405250810190613c8a9190616f1b565b506000821115613d3857600460009054906101000a900473ffffffffffffffffffffffffffffffffffffffff1673ffffffffffffffffffffffffffffffffffffffff1663a9059cbb61dead846040518363ffffffff1660e01b8152600401613cf3929190616c9c565b6020604051808303816000875af1158015613d12573d6000803e3d6000fd5b505050506040513d601f19601f82011682018060405250810190613d369190616f1b565b505b8473ffffffffffffffffffffffffffffffffffffffff167f92207ec016968e0ee608b41c92470ff10e9f810a8dec5f40901974ac75ed498e8284604051613d80929190616cc5565b60405180910390a25050505050613d956153cb565b565b6201518081565b600a5481565b60008060008060008060003073ffffffffffffffffffffffffffffffffffffffff1663afce88ec896040518263ffffffff1660e01b8152600401613de89190615ccf565b608060405180830381865afa158015613e05573d6000803e3d6000fd5b505050506040513d601f19601f82011682018060405250810190613e299190617422565b50925092509250600096508195506000831115613e6a578261271082613e4f9190616637565b613e5991906166a8565b94508282613e6791906166a8565b93505b5050509193509193565b613e7c6142c7565b600073ffffffffffffffffffffffffffffffffffffffff168173ffffffffffffffffffffffffffffffffffffffff1603613eee5760006040517f1e4fbdf7000000000000000000000000000000000000000000000000000000008152600401613ee59190615ccf565b60405180910390fd5b613ef7816154dd565b50565b6103e881565b60135481565b60606000601960008673ffffffffffffffffffffffffffffffffffffffff1673ffffffffffffffffffffffffffffffffffffffff168152602001908152602001600020805490509050808410613fb257600067ffffffffffffffff811115613f7157613f7061721d565b5b604051908082528060200260200182016040528015613faa57816020015b613f97615a85565b815260200190600190039081613f8f5790505b509150614187565b60008385613fc091906166d9565b905081811115613fce578190505b60008582613fdc9190616603565b90508067ffffffffffffffff811115613ff857613ff761721d565b5b60405190808252806020026020018201604052801561403157816020015b61401e615a85565b8152602001906001900390816140165790505b50935060005b8181101561418357601960008973ffffffffffffffffffffffffffffffffffffffff1673ffffffffffffffffffffffffffffffffffffffff168152602001908152602001600020818860018761408d9190616603565b6140979190616603565b6140a19190616603565b815481106140b2576140b161724c565b5b906000526020600020906003020160405180608001604052908160008201548152602001600182015481526020016002820160009054906101000a900460ff1660ff1660ff1681526020016002820160019054906101000a900473ffffffffffffffffffffffffffffffffffffffff1673ffffffffffffffffffffffffffffffffffffffff1673ffffffffffffffffffffffffffffffffffffffff16815250508582815181106141655761416461724c565b5b6020026020010181905250808061417b9061727b565b915050614037565b5050505b935093915050565b6000806000806000806000601760008973ffffffffffffffffffffffffffffffffffffffff1673ffffffffffffffffffffffffffffffffffffffff168152602001908152602001600020905080600401549650806005015495508060030154945060008160030154118015614208575060008160040154115b156142b757600081600301544261421f9190616603565b9050600062278d00821061423e5782600401549050612710935061427d565b62278d008284600401546142529190616637565b61425c91906166a8565b905062278d00612710836142709190616637565b61427a91906166a8565b93505b8260050154811161428f5760006142a0565b82600501548161429f9190616603565b5b95508083600401546142b29190616603565b945050505b5091939550919395565b60105481565b6142cf61578f565b73ffffffffffffffffffffffffffffffffffffffff166142ed6120e2565b73ffffffffffffffffffffffffffffffffffffffff161461434c5761431061578f565b6040517f118cdaa70000000000000000000000000000000000000000000000000000000081526004016143439190615ccf565b60405180910390fd5b565b60026001540361438a576040517f3ee5aeb500000000000000000000000000000000000000000000000000000000815260040160405180910390fd5b6002600181905550565b61439c6135de565b6000601760008373ffffffffffffffffffffffffffffffffffffffff1673ffffffffffffffffffffffffffffffffffffffff168152602001908152602001600020905060008073ffffffffffffffffffffffffffffffffffffffff16600360009054906101000a900473ffffffffffffffffffffffffffffffffffffffff1673ffffffffffffffffffffffffffffffffffffffff16146144d557600360009054906101000a900473ffffffffffffffffffffffffffffffffffffffff1673ffffffffffffffffffffffffffffffffffffffff1663ab0229a0846040518263ffffffff1660e01b81526004016144919190615ccf565b602060405180830381865afa1580156144ae573d6000803e3d6000fd5b505050506040513d601f19601f820116820180604052508101906144d29190616b2b565b90505b60008073ffffffffffffffffffffffffffffffffffffffff16600260009054906101000a900473ffffffffffffffffffffffffffffffffffffffff1673ffffffffffffffffffffffffffffffffffffffff16146145cb57600260009054906101000a900473ffffffffffffffffffffffffffffffffffffffff1673ffffffffffffffffffffffffffffffffffffffff166304d1334f856040518263ffffffff1660e01b81526004016145879190615ccf565b602060405180830381865afa1580156145a4573d6000803e3d6000fd5b505050506040513d601f19601f820116820180604052508101906145c89190616b2b565b90505b6000612710826127106145de91906166d9565b846145e99190616637565b6145f391906166a8565b905060008460000154111561465e576000846001015464e8d4a51000600a5487600001546146219190616637565b61462b91906166a8565b6146359190616603565b9050600081111561465c578085600201600082825461465491906166d9565b925050819055505b505b808460000154600c546146719190616603565b61467b91906166d9565b600c8190555080846000018190555064e8d4a51000600a548261469e9190616637565b6146a891906166a8565b84600101819055508473ffffffffffffffffffffffffffffffffffffffff167fdfc331ca16b8c4320a402867e832423d16ad3de953e474a499baf3697aa9e8948286600101546040516146fc929190616cc5565b60405180910390a25050505050565b5b6a05ca4ec2a79a7f67000000600160105461472791906166d9565b6147319190616637565b600e54106147d3576064605f600d5461474a9190616637565b61475491906166a8565b600d819055506010600081548092919061476d9061727b565b91905055506a05ca4ec2a79a7f6700000060105461478b9190616637565b600f819055507fde141711fef892cdaea55f1f6a85e241382fcefc69efdb496eff235992a18ed4600d54600e546040516147c6929190616cc5565b60405180910390a161470c565b565b600073ffffffffffffffffffffffffffffffffffffffff16600260009054906101000a900473ffffffffffffffffffffffffffffffffffffffff1673ffffffffffffffffffffffffffffffffffffffff1603156153c7576000600260009054906101000a900473ffffffffffffffffffffffffffffffffffffffff1673ffffffffffffffffffffffffffffffffffffffff16634a9fefc7846040518263ffffffff1660e01b81526004016148899190615ccf565b602060405180830381865afa1580156148a6573d6000803e3d6000fd5b505050506040513d601f19601f820116820180604052508101906148ca9190616d03565b9050600073ffffffffffffffffffffffffffffffffffffffff168173ffffffffffffffffffffffffffffffffffffffff160361490657506153c7565b60006127106103e8846149199190616637565b61492391906166a8565b90506000811115614aac5780600e600082825461494091906166d9565b92505081905550600460009054906101000a900473ffffffffffffffffffffffffffffffffffffffff1673ffffffffffffffffffffffffffffffffffffffff166340c10f1983836040518363ffffffff1660e01b81526004016149a4929190616c9c565b600060405180830381600087803b1580156149be57600080fd5b505af11580156149d2573d6000803e3d6000fd5b5050505080601860008473ffffffffffffffffffffffffffffffffffffffff1673ffffffffffffffffffffffffffffffffffffffff1681526020019081526020016000206000828254614a2591906166d9565b925050819055508373ffffffffffffffffffffffffffffffffffffffff168273ffffffffffffffffffffffffffffffffffffffff167fe679beb5d98a54fda65331587d36d13358e8bf295be15e932c482164f8fde95e836001604051614a8c9291906174c4565b60405180910390a3614aa18285836001615797565b614aab82856158bd565b5b6000600260009054906101000a900473ffffffffffffffffffffffffffffffffffffffff1673ffffffffffffffffffffffffffffffffffffffff16634a9fefc7846040518263ffffffff1660e01b8152600401614b099190615ccf565b602060405180830381865afa158015614b26573d6000803e3d6000fd5b505050506040513d601f19601f82011682018060405250810190614b4a9190616d03565b9050600073ffffffffffffffffffffffffffffffffffffffff168173ffffffffffffffffffffffffffffffffffffffff1614614d1e5760006127106101f486614b939190616637565b614b9d91906166a8565b90506000811115614d1c5780600e6000828254614bba91906166d9565b92505081905550600460009054906101000a900473ffffffffffffffffffffffffffffffffffffffff1673ffffffffffffffffffffffffffffffffffffffff166340c10f1983836040518363ffffffff1660e01b8152600401614c1e929190616c9c565b600060405180830381600087803b158015614c3857600080fd5b505af1158015614c4c573d6000803e3d6000fd5b5050505080601860008473ffffffffffffffffffffffffffffffffffffffff1673ffffffffffffffffffffffffffffffffffffffff1681526020019081526020016000206000828254614c9f91906166d9565b925050819055508573ffffffffffffffffffffffffffffffffffffffff168273ffffffffffffffffffffffffffffffffffffffff167fe679beb5d98a54fda65331587d36d13358e8bf295be15e932c482164f8fde95e836002604051614d06929190617528565b60405180910390a3614d1b8287836002615797565b5b505b600083905060008060005b600073ffffffffffffffffffffffffffffffffffffffff168473ffffffffffffffffffffffffffffffffffffffff1614158015614d665750601481105b15614ed7576000600260009054906101000a900473ffffffffffffffffffffffffffffffffffffffff1673ffffffffffffffffffffffffffffffffffffffff166370a08231866040518263ffffffff1660e01b8152600401614dc89190615ccf565b602060405180830381865afa158015614de5573d6000803e3d6000fd5b505050506040513d601f19601f82011682018060405250810190614e099190616b2b565b1115614e2657839250600181614e1f91906166d9565b9150614ed7565b600260009054906101000a900473ffffffffffffffffffffffffffffffffffffffff1673ffffffffffffffffffffffffffffffffffffffff16634a9fefc7856040518263ffffffff1660e01b8152600401614e819190615ccf565b602060405180830381865afa158015614e9e573d6000803e3d6000fd5b505050506040513d601f19601f82011682018060405250810190614ec29190616d03565b93508080614ecf9061727b565b915050614d29565b600073ffffffffffffffffffffffffffffffffffffffff168373ffffffffffffffffffffffffffffffffffffffff16146153bf57600061271060c88a614f1d9190616637565b614f2791906166a8565b905060008111156150a55780600e6000828254614f4491906166d9565b92505081905550600460009054906101000a900473ffffffffffffffffffffffffffffffffffffffff1673ffffffffffffffffffffffffffffffffffffffff166340c10f1985836040518363ffffffff1660e01b8152600401614fa8929190616c9c565b600060405180830381600087803b158015614fc257600080fd5b505af1158015614fd6573d6000803e3d6000fd5b5050505080601860008673ffffffffffffffffffffffffffffffffffffffff1673ffffffffffffffffffffffffffffffffffffffff168152602001908152602001600020600082825461502991906166d9565b925050819055508973ffffffffffffffffffffffffffffffffffffffff168473ffffffffffffffffffffffffffffffffffffffff167ff3e533e84b42dfb4015d2211af267b5d34a1aa0f60c4da1a9dd25698150868d8838660405161508f929190616cc5565b60405180910390a36150a4848b836003615797565b5b6000600260009054906101000a900473ffffffffffffffffffffffffffffffffffffffff1673ffffffffffffffffffffffffffffffffffffffff16634a9fefc7866040518263ffffffff1660e01b81526004016151029190615ccf565b602060405180830381865afa15801561511f573d6000803e3d6000fd5b505050506040513d601f19601f820116820180604052508101906151439190616d03565b9050600073ffffffffffffffffffffffffffffffffffffffff168173ffffffffffffffffffffffffffffffffffffffff161415801561521d57506000600260009054906101000a900473ffffffffffffffffffffffffffffffffffffffff1673ffffffffffffffffffffffffffffffffffffffff166370a08231836040518263ffffffff1660e01b81526004016151da9190615ccf565b602060405180830381865afa1580156151f7573d6000803e3d6000fd5b505050506040513d601f19601f8201168201806040525081019061521b9190616b2b565b115b156153bc57600061271060328c6152349190616637565b61523e91906166a8565b905060008111156153ba5780600e600082825461525b91906166d9565b92505081905550600460009054906101000a900473ffffffffffffffffffffffffffffffffffffffff1673ffffffffffffffffffffffffffffffffffffffff166340c10f1983836040518363ffffffff1660e01b81526004016152bf929190616c9c565b600060405180830381600087803b1580156152d957600080fd5b505af11580156152ed573d6000803e3d6000fd5b5050505080601860008473ffffffffffffffffffffffffffffffffffffffff1673ffffffffffffffffffffffffffffffffffffffff168152602001908152602001600020600082825461534091906166d9565b925050819055508573ffffffffffffffffffffffffffffffffffffffff168273ffffffffffffffffffffffffffffffffffffffff167f6b34e5a4dcbc992c5815bf8d0f03397ec7ecc2d9e760776d9de0c5e1d3919056836040516153a49190615adf565b60405180910390a36153b9828d836004615797565b5b505b50505b505050505050505b5050565b60018081905550565b600080662386f26fc1000090506000683635c9adc5dea000009050818510806153fc57508085115b1561541357670de0b6b3a7640000925050506154d7565b8184108061542057508084115b1561543757670de0b6b3a7640000925050506154d7565b6000840361545157670de0b6b3a7640000925050506154d7565b600084670de0b6b3a7640000876154689190616637565b61547291906166a8565b90506000670de0b6b3a7640000828361548b9190616637565b61549591906166a8565b90506714d1120d7b1600008111156154b3576714d1120d7b16000090505b67016345785d8a00008110156154cf5767016345785d8a000090505b809450505050505b92915050565b60008060009054906101000a900473ffffffffffffffffffffffffffffffffffffffff169050816000806101000a81548173ffffffffffffffffffffffffffffffffffffffff021916908373ffffffffffffffffffffffffffffffffffffffff1602179055508173ffffffffffffffffffffffffffffffffffffffff168173ffffffffffffffffffffffffffffffffffffffff167f8be0079c531659141344cd1fd0a4f28419497f9722a3daafe3b4186f6b6457e060405160405180910390a35050565b6000806000601484106155be576000806000925092509250615788565b6000601a60008773ffffffffffffffffffffffffffffffffffffffff1673ffffffffffffffffffffffffffffffffffffffff16815260200190815260200160002080548060200260200160405190810160405280929190818152602001828054801561567f57602002820191906000526020600020905b8160009054906101000a900473ffffffffffffffffffffffffffffffffffffffff1673ffffffffffffffffffffffffffffffffffffffff1681526020019060010190808311615635575b505050505090508051935060005b81518110156157855760008282815181106156ab576156aa61724c565b5b602002602001015190506000601760008373ffffffffffffffffffffffffffffffffffffffff1673ffffffffffffffffffffffffffffffffffffffff168152602001908152602001600020600001549050808661570891906166d9565b9550600081111561572257848061571e9061727b565b9550505b600080600061573d8560018d61573891906166d9565b6155a1565b925092509250828a61574f91906166d9565b9950818961575d91906166d9565b9850808861576b91906166d9565b97505050505050808061577d9061727b565b91505061568d565b50505b9250925092565b600033905090565b601960008573ffffffffffffffffffffffffffffffffffffffff1673ffffffffffffffffffffffffffffffffffffffff16815260200190815260200160002060405180608001604052804281526020018481526020018360ff1681526020018573ffffffffffffffffffffffffffffffffffffffff168152509080600181540180825580915050600190039060005260206000209060030201600090919091909150600082015181600001556020820151816001015560408201518160020160006101000a81548160ff021916908360ff16021790555060608201518160020160016101000a81548173ffffffffffffffffffffffffffffffffffffffff021916908373ffffffffffffffffffffffffffffffffffffffff160217905550505050505050565b601b60008373ffffffffffffffffffffffffffffffffffffffff1673ffffffffffffffffffffffffffffffffffffffff16815260200190815260200160002060008273ffffffffffffffffffffffffffffffffffffffff1673ffffffffffffffffffffffffffffffffffffffff16815260200190815260200160002060009054906101000a900460ff16615a8157601a60008373ffffffffffffffffffffffffffffffffffffffff1673ffffffffffffffffffffffffffffffffffffffff168152602001908152602001600020819080600181540180825580915050600190039060005260206000200160009091909190916101000a81548173ffffffffffffffffffffffffffffffffffffffff021916908373ffffffffffffffffffffffffffffffffffffffff1602179055506001601b60008473ffffffffffffffffffffffffffffffffffffffff1673ffffffffffffffffffffffffffffffffffffffff16815260200190815260200160002060008373ffffffffffffffffffffffffffffffffffffffff1673ffffffffffffffffffffffffffffffffffffffff16815260200190815260200160002060006101000a81548160ff0219169083151502179055505b5050565b60405180608001604052806000815260200160008152602001600060ff168152602001600073ffffffffffffffffffffffffffffffffffffffff1681525090565b6000819050919050565b615ad981615ac6565b82525050565b6000602082019050615af46000830184615ad0565b92915050565b600080fd5b600073ffffffffffffffffffffffffffffffffffffffff82169050919050565b6000615b2a82615aff565b9050919050565b615b3a81615b1f565b8114615b4557600080fd5b50565b600081359050615b5781615b31565b92915050565b600060208284031215615b7357615b72615afa565b5b6000615b8184828501615b48565b91505092915050565b7f4e487b7100000000000000000000000000000000000000000000000000000000600052602160045260246000fd5b60048110615bca57615bc9615b8a565b5b50565b6000819050615bdb82615bb9565b919050565b6000615beb82615bcd565b9050919050565b615bfb81615be0565b82525050565b600060a082019050615c166000830188615bf2565b615c236020830187615ad0565b615c306040830186615ad0565b615c3d6060830185615ad0565b615c4a6080830184615ad0565b9695505050505050565b615c5d81615ac6565b8114615c6857600080fd5b50565b600081359050615c7a81615c54565b92915050565b60008060408385031215615c9757615c96615afa565b5b6000615ca585828601615b48565b9250506020615cb685828601615c6b565b9150509250929050565b615cc981615b1f565b82525050565b6000602082019050615ce46000830184615cc0565b92915050565b6000608082019050615cff6000830187615ad0565b615d0c6020830186615ad0565b615d196040830185615ad0565b615d266060830184615ad0565b95945050505050565b6000819050919050565b615d4281615d2f565b82525050565b6000602082019050615d5d6000830184615d39565b92915050565b60008115159050919050565b615d7881615d63565b82525050565b6000602082019050615d936000830184615d6f565b92915050565b600060c082019050615dae6000830189615ad0565b615dbb6020830188615ad0565b615dc86040830187615ad0565b615dd56060830186615ad0565b615de26080830185615ad0565b615def60a0830184615ad0565b979650505050505050565b615e0381615d63565b8114615e0e57600080fd5b50565b600081359050615e2081615dfa565b92915050565b600060208284031215615e3c57615e3b615afa565b5b6000615e4a84828501615e11565b91505092915050565b6000819050919050565b6000615e78615e73615e6e84615aff565b615e53565b615aff565b9050919050565b6000615e8a82615e5d565b9050919050565b6000615e9c82615e7f565b9050919050565b615eac81615e91565b82525050565b6000602082019050615ec76000830184615ea3565b92915050565b6000615ed882615e7f565b9050919050565b615ee881615ecd565b82525050565b6000602082019050615f036000830184615edf565b92915050565b600080600060608486031215615f2257615f21615afa565b5b6000615f3086828701615c6b565b9350506020615f4186828701615c6b565b9250506040615f5286828701615c6b565b9150509250925092565b6000615f6782615e7f565b9050919050565b615f7781615f5c565b82525050565b6000602082019050615f926000830184615f6e565b92915050565b600060ff82169050919050565b615fae81615f98565b82525050565b6000608082019050615fc96000830187615ad0565b615fd66020830186615ad0565b615fe36040830185615fa5565b615ff06060830184615cc0565b95945050505050565b600060a08201905061600e6000830188615ad0565b61601b6020830187615ad0565b6160286040830186615ad0565b6160356060830185615ad0565b6160426080830184615ad0565b9695505050505050565b60006060820190506160616000830186615bf2565b61606e6020830185615ad0565b61607b6040830184615ad0565b949350505050565b600061010082019050616099600083018b615ad0565b6160a6602083018a615ad0565b6160b36040830189615ad0565b6160c06060830188615ad0565b6160cd6080830187615ad0565b6160da60a0830186615ad0565b6160e760c0830185615ad0565b6160f460e0830184615ad0565b9998505050505050505050565b600061610c82615e7f565b9050919050565b61611c81616101565b82525050565b60006020820190506161376000830184616113565b92915050565b600061614882615e7f565b9050919050565b6161588161613d565b82525050565b6000602082019050616173600083018461614f565b92915050565b60006020828403121561618f5761618e615afa565b5b600061619d84828501615c6b565b91505092915050565b600081519050919050565b600082825260208201905092915050565b6000819050602082019050919050565b6161db81615b1f565b82525050565b60006161ed83836161d2565b60208301905092915050565b6000602082019050919050565b6000616211826161a6565b61621b81856161b1565b9350616226836161c2565b8060005b8381101561625757815161623e88826161e1565b9750616249836161f9565b92505060018101905061622a565b5085935050505092915050565b600081519050919050565b600082825260208201905092915050565b6000819050602082019050919050565b61629981615ac6565b82525050565b60006162ab8383616290565b60208301905092915050565b6000602082019050919050565b60006162cf82616264565b6162d9818561626f565b93506162e483616280565b8060005b838110156163155781516162fc888261629f565b9750616307836162b7565b9250506001810190506162e8565b5085935050505092915050565b6000606082019050818103600083015261633c8186616206565b9050818103602083015261635081856162c4565b9050818103604083015261636481846162c4565b9050949350505050565b600060a0820190506163836000830188615ad0565b6163906020830187615ad0565b61639d6040830186615ad0565b6163aa6060830185615ad0565b6163b76080830184615d6f565b9695505050505050565b6000806000606084860312156163da576163d9615afa565b5b60006163e886828701615b48565b93505060206163f986828701615c6b565b925050604061640a86828701615c6b565b9150509250925092565b600081519050919050565b600082825260208201905092915050565b6000819050602082019050919050565b61644981615f98565b82525050565b6080820160008201516164656000850182616290565b5060208201516164786020850182616290565b50604082015161648b6040850182616440565b50606082015161649e60608501826161d2565b50505050565b60006164b0838361644f565b60808301905092915050565b6000602082019050919050565b60006164d482616414565b6164de818561641f565b93506164e983616430565b8060005b8381101561651a57815161650188826164a4565b975061650c836164bc565b9250506001810190506164ed565b5085935050505092915050565b6000604082019050818103600083015261654181856164c9565b90506165506020830184615ad0565b9392505050565b600082825260208201905092915050565b7f496e76616c696420616464726573730000000000000000000000000000000000600082015250565b600061659e600f83616557565b91506165a982616568565b602082019050919050565b600060208201905081810360008301526165cd81616591565b9050919050565b7f4e487b7100000000000000000000000000000000000000000000000000000000600052601160045260246000fd5b600061660e82615ac6565b915061661983615ac6565b9250828203905081811115616631576166306165d4565b5b92915050565b600061664282615ac6565b915061664d83615ac6565b925082820261665b81615ac6565b91508282048414831517616672576166716165d4565b5b5092915050565b7f4e487b7100000000000000000000000000000000000000000000000000000000600052601260045260246000fd5b60006166b382615ac6565b91506166be83615ac6565b9250826166ce576166cd616679565b5b828204905092915050565b60006166e482615ac6565b91506166ef83615ac6565b9250828201905080821115616707576167066165d4565b5b92915050565b7f416c726561647920696e2074686973206d6f6465000000000000000000000000600082015250565b6000616743601483616557565b915061674e8261670d565b602082019050919050565b6000602082019050818103600083015261677281616736565b9050919050565b7f4d75737420736574206f7261636c65206265666f72652064697361626c696e6760008201527f2074657374206d6f646500000000000000000000000000000000000000000000602082015250565b60006167d5602a83616557565b91506167e082616779565b604082019050919050565b60006020820190508181036000830152616804816167c8565b9050919050565b7f54657374206d6f6465207065726d616e656e746c792064697361626c65640000600082015250565b6000616841601e83616557565b915061684c8261680b565b602082019050919050565b6000602082019050818103600083015261687081616834565b9050919050565b7f496e76616c696420707269636573000000000000000000000000000000000000600082015250565b60006168ad600e83616557565b91506168b882616877565b602082019050919050565b600060208201905081810360008301526168dc816168a0565b9050919050565b7f54657374206d6f64653a206f6e6c79206f776e65722063616e20757064617465600082015250565b6000616919602083616557565b9150616924826168e3565b602082019050919050565b600060208201905081810360008301526169488161690c565b9050919050565b7f54657374206d6f64653a206d7573742077616974203120686f7572206265747760008201527f65656e2075706461746573000000000000000000000000000000000000000000602082015250565b60006169ab602b83616557565b91506169b68261694f565b604082019050919050565b600060208201905081810360008301526169da8161699e565b9050919050565b7f54657374206d6f64653a207072696365206368616e676520657863656564732060008201527f353025206c696d69740000000000000000000000000000000000000000000000602082015250565b6000616a3d602983616557565b9150616a48826169e1565b604082019050919050565b60006020820190508181036000830152616a6c81616a30565b9050919050565b6000606082019050616a886000830186615ad0565b616a956020830185615ad0565b616aa26040830184615ad0565b949350505050565b7f4f7261636c65206e6f7420736574000000000000000000000000000000000000600082015250565b6000616ae0600e83616557565b9150616aeb82616aaa565b602082019050919050565b60006020820190508181036000830152616b0f81616ad3565b9050919050565b600081519050616b2581615c54565b92915050565b600060208284031215616b4157616b40615afa565b5b6000616b4f84828501616b16565b91505092915050565b7f4f7261636c652072657475726e656420696e76616c6964207072696365000000600082015250565b6000616b8e601d83616557565b9150616b9982616b58565b602082019050919050565b60006020820190508181036000830152616bbd81616b81565b9050919050565b7f4e6f7468696e6720746f20686172766573740000000000000000000000000000600082015250565b6000616bfa601283616557565b9150616c0582616bc4565b602082019050919050565b60006020820190508181036000830152616c2981616bed565b9050919050565b7f4d696e696e672063617020726561636865640000000000000000000000000000600082015250565b6000616c66601283616557565b9150616c7182616c30565b602082019050919050565b60006020820190508181036000830152616c9581616c59565b9050919050565b6000604082019050616cb16000830185615cc0565b616cbe6020830184615ad0565b9392505050565b6000604082019050616cda6000830185615ad0565b616ce76020830184615ad0565b9392505050565b600081519050616cfd81615b31565b92915050565b600060208284031215616d1957616d18615afa565b5b6000616d2784828501616cee565b91505092915050565b7f4e6f7420626f6e64206f776e6572000000000000000000000000000000000000600082015250565b6000616d66600e83616557565b9150616d7182616d30565b602082019050919050565b60006020820190508181036000830152616d9581616d59565b9050919050565b7f4e6f2070656e64696e6720726577617264730000000000000000000000000000600082015250565b6000616dd2601283616557565b9150616ddd82616d9c565b602082019050919050565b60006020820190508181036000830152616e0181616dc5565b9050919050565b7f4d696e696e672063617020726561636865642c2063616e6e6f7420636f6d706f60008201527f756e640000000000000000000000000000000000000000000000000000000000602082015250565b6000616e64602383616557565b9150616e6f82616e08565b604082019050919050565b60006020820190508181036000830152616e9381616e57565b9050919050565b7f4f7261636c65207072696365206973207a65726f000000000000000000000000600082015250565b6000616ed0601483616557565b9150616edb82616e9a565b602082019050919050565b60006020820190508181036000830152616eff81616ec3565b9050919050565b600081519050616f1581615dfa565b92915050565b600060208284031215616f3157616f30615afa565b5b6000616f3f84828501616f06565b91505092915050565b7f4e6f7468696e6720766573746564000000000000000000000000000000000000600082015250565b6000616f7e600e83616557565b9150616f8982616f48565b602082019050919050565b60006020820190508181036000830152616fad81616f71565b9050919050565b7f56657374696e67206e6f74207374617274656400000000000000000000000000600082015250565b6000616fea601383616557565b9150616ff582616fb4565b602082019050919050565b6000602082019050818103600083015261701981616fdd565b9050919050565b7f56657374696e6720706572696f64206e6f7420636f6d706c6574656420796574600082015250565b6000617056602083616557565b915061706182617020565b602082019050919050565b6000602082019050818103600083015261708581617049565b9050919050565b7f4e6f7468696e6720746f20636c61696d00000000000000000000000000000000600082015250565b60006170c2601083616557565b91506170cd8261708c565b602082019050919050565b600060208201905081810360008301526170f1816170b5565b9050919050565b600061710382615d2f565b915061710e83615d2f565b9250828203905081811260008412168282136000851215161715617135576171346165d4565b5b92915050565b600061714682615d2f565b915061715183615d2f565b925082820261715f81615d2f565b91507f80000000000000000000000000000000000000000000000000000000000000008414600084121615617197576171966165d4565b5b82820584148315176171ac576171ab6165d4565b5b5092915050565b60006171be82615d2f565b91506171c983615d2f565b9250826171d9576171d8616679565b5b600160000383147f800000000000000000000000000000000000000000000000000000000000000083141615617212576172116165d4565b5b828205905092915050565b7f4e487b7100000000000000000000000000000000000000000000000000000000600052604160045260246000fd5b7f4e487b7100000000000000000000000000000000000000000000000000000000600052603260045260246000fd5b600061728682615ac6565b91507fffffffffffffffffffffffffffffffffffffffffffffffffffffffffffffffff82036172b8576172b76165d4565b5b600182019050919050565b7f427265616b6572206e6f74206163746976650000000000000000000000000000600082015250565b60006172f9601283616557565b9150617304826172c3565b602082019050919050565b60006020820190508181036000830152617328816172ec565b9050919050565b7f436f6f6c646f776e206e6f7420636f6d706c6574650000000000000000000000600082015250565b6000617365601583616557565b91506173708261732f565b602082019050919050565b6000602082019050818103600083015261739481617358565b9050919050565b60006020820190506173b06000830184615bf2565b92915050565b7f4e6f7468696e6720746f2063617368206f757400000000000000000000000000600082015250565b60006173ec601383616557565b91506173f7826173b6565b602082019050919050565b6000602082019050818103600083015261741b816173df565b9050919050565b6000806000806080858703121561743c5761743b615afa565b5b600061744a87828801616b16565b945050602061745b87828801616b16565b935050604061746c87828801616b16565b925050606061747d87828801616b16565b91505092959194509250565b6000819050919050565b60006174ae6174a96174a484617489565b615e53565b615ac6565b9050919050565b6174be81617493565b82525050565b60006040820190506174d96000830185615ad0565b6174e660208301846174b5565b9392505050565b6000819050919050565b600061751261750d617508846174ed565b615e53565b615ac6565b9050919050565b617522816174f7565b82525050565b600060408201905061753d6000830185615ad0565b61754a6020830184617519565b939250505056fea2646970667358221220d2e65f2ab80fe221e58443ea375a8ef39f027851cb4016aaf9bfcc7abf289b0864736f6c63430008140033",
  "linkReferences": {},
  "deployedLinkReferences": {}
}