{
  "_format": "hh-sol-artifact-1",
  "contractName": "IvyCore",
  "sourceName": "contracts/IvyCore.sol",
  "abi": [
    {
      "inputs": [
        {
          "internalType": "address",
          "name": "_genesisNode",
          "type": "address"
        },
        {
          "internalType": "address",
          "name": "_oracle",
          "type": "address"
        },
        {
          "internalType": "address",
          "name": "_ivyToken",
          "type": "address"
        }
      ],
      "stateMutability": "nonpayable",
      "type": "constructor"
    },
    {
      "inputs": [
        {
          "internalType": "address",
          "name": "owner",
          "type": "address"
        }
      ],
      "name": "OwnableInvalidOwner",
      "type": "error"
    },
    {
      "inputs": [
        {
          "internalType": "address",
          "name": "account",
          "type": "address"
        }
      ],
      "name": "OwnableUnauthorizedAccount",
      "type": "error"
    },
    {
      "anonymous": false,
      "inputs": [
        {
          "indexed": true,
          "internalType": "address",
          "name": "previousOwner",
          "type": "address"
        },
        {
          "indexed": true,
          "internalType": "address",
          "name": "newOwner",
          "type": "address"
        }
      ],
      "name": "OwnershipTransferred",
      "type": "event"
    },
    {
      "inputs": [],
      "name": "BASE_DAILY_MINT",
      "outputs": [
        {
          "internalType": "uint256",
          "name": "",
          "type": "uint256"
        }
      ],
      "stateMutability": "view",
      "type": "function"
    },
    {
      "inputs": [],
      "name": "HALVING_DECAY",
      "outputs": [
        {
          "internalType": "uint256",
          "name": "",
          "type": "uint256"
        }
      ],
      "stateMutability": "view",
      "type": "function"
    },
    {
      "inputs": [],
      "name": "HALVING_THRESHOLD",
      "outputs": [
        {
          "internalType": "uint256",
          "name": "",
          "type": "uint256"
        }
      ],
      "stateMutability": "view",
      "type": "function"
    },
    {
      "inputs": [],
      "name": "HARD_CAP",
      "outputs": [
        {
          "internalType": "uint256",
          "name": "",
          "type": "uint256"
        }
      ],
      "stateMutability": "view",
      "type": "function"
    },
    {
      "inputs": [],
      "name": "PID_K",
      "outputs": [
        {
          "internalType": "uint256",
          "name": "",
          "type": "uint256"
        }
      ],
      "stateMutability": "view",
      "type": "function"
    },
    {
      "inputs": [],
      "name": "PID_MAX",
      "outputs": [
        {
          "internalType": "uint256",
          "name": "",
          "type": "uint256"
        }
      ],
      "stateMutability": "view",
      "type": "function"
    },
    {
      "inputs": [],
      "name": "PID_MIN",
      "outputs": [
        {
          "internalType": "uint256",
          "name": "",
          "type": "uint256"
        }
      ],
      "stateMutability": "view",
      "type": "function"
    },
    {
      "inputs": [
        {
          "internalType": "address",
          "name": "user",
          "type": "address"
        }
      ],
      "name": "calculateDailyMint",
      "outputs": [
        {
          "internalType": "uint256",
          "name": "",
          "type": "uint256"
        }
      ],
      "stateMutability": "view",
      "type": "function"
    },
    {
      "inputs": [
        {
          "internalType": "uint256",
          "name": "",
          "type": "uint256"
        }
      ],
      "name": "candles",
      "outputs": [
        {
          "internalType": "uint256",
          "name": "open",
          "type": "uint256"
        },
        {
          "internalType": "uint256",
          "name": "close",
          "type": "uint256"
        },
        {
          "internalType": "uint256",
          "name": "high",
          "type": "uint256"
        },
        {
          "internalType": "uint256",
          "name": "low",
          "type": "uint256"
        },
        {
          "internalType": "bool",
          "name": "isFinalized",
          "type": "bool"
        }
      ],
      "stateMutability": "view",
      "type": "function"
    },
    {
      "inputs": [],
      "name": "cbStatus",
      "outputs": [
        {
          "internalType": "enum IvyCore.CircuitLevel",
          "name": "level",
          "type": "uint8"
        },
        {
          "internalType": "uint256",
          "name": "triggerTime",
          "type": "uint256"
        },
        {
          "internalType": "uint256",
          "name": "triggerPrice",
          "type": "uint256"
        },
        {
          "internalType": "uint256",
          "name": "forcedAlpha",
          "type": "uint256"
        },
        {
          "internalType": "bool",
          "name": "isActive",
          "type": "bool"
        }
      ],
      "stateMutability": "view",
      "type": "function"
    },
    {
      "inputs": [
        {
          "internalType": "uint256",
          "name": "currentPrice",
          "type": "uint256"
        },
        {
          "internalType": "uint256",
          "name": "referencePrice1H",
          "type": "uint256"
        }
      ],
      "name": "checkCircuitBreaker",
      "outputs": [],
      "stateMutability": "nonpayable",
      "type": "function"
    },
    {
      "inputs": [],
      "name": "currentCandleStartTime",
      "outputs": [
        {
          "internalType": "uint256",
          "name": "",
          "type": "uint256"
        }
      ],
      "stateMutability": "view",
      "type": "function"
    },
    {
      "inputs": [],
      "name": "currentEmissionFactor",
      "outputs": [
        {
          "internalType": "uint256",
          "name": "",
          "type": "uint256"
        }
      ],
      "stateMutability": "view",
      "type": "function"
    },
    {
      "inputs": [],
      "name": "genesisNode",
      "outputs": [
        {
          "internalType": "contract IGenesisNode",
          "name": "",
          "type": "address"
        }
      ],
      "stateMutability": "view",
      "type": "function"
    },
    {
      "inputs": [],
      "name": "getEffectiveAlpha",
      "outputs": [
        {
          "internalType": "uint256",
          "name": "",
          "type": "uint256"
        }
      ],
      "stateMutability": "view",
      "type": "function"
    },
    {
      "inputs": [],
      "name": "ivyToken",
      "outputs": [
        {
          "internalType": "contract IvyToken",
          "name": "",
          "type": "address"
        }
      ],
      "stateMutability": "view",
      "type": "function"
    },
    {
      "inputs": [],
      "name": "lastHalvingMintAmount",
      "outputs": [
        {
          "internalType": "uint256",
          "name": "",
          "type": "uint256"
        }
      ],
      "stateMutability": "view",
      "type": "function"
    },
    {
      "inputs": [
        {
          "internalType": "address",
          "name": "user",
          "type": "address"
        }
      ],
      "name": "mintDaily",
      "outputs": [],
      "stateMutability": "nonpayable",
      "type": "function"
    },
    {
      "inputs": [],
      "name": "oracle",
      "outputs": [
        {
          "internalType": "contract IPriceOracle",
          "name": "",
          "type": "address"
        }
      ],
      "stateMutability": "view",
      "type": "function"
    },
    {
      "inputs": [],
      "name": "owner",
      "outputs": [
        {
          "internalType": "address",
          "name": "",
          "type": "address"
        }
      ],
      "stateMutability": "view",
      "type": "function"
    },
    {
      "inputs": [],
      "name": "renounceOwnership",
      "outputs": [],
      "stateMutability": "nonpayable",
      "type": "function"
    },
    {
      "inputs": [],
      "name": "totalMinted",
      "outputs": [
        {
          "internalType": "uint256",
          "name": "",
          "type": "uint256"
        }
      ],
      "stateMutability": "view",
      "type": "function"
    },
    {
      "inputs": [
        {
          "internalType": "address",
          "name": "newOwner",
          "type": "address"
        }
      ],
      "name": "transferOwnership",
      "outputs": [],
      "stateMutability": "nonpayable",
      "type": "function"
    },
    {
      "inputs": [],
      "name": "tryUnlockCircuitBreaker",
      "outputs": [],
      "stateMutability": "nonpayable",
      "type": "function"
    },
    {
      "inputs": [
        {
          "internalType": "uint256",
          "name": "currentPrice",
          "type": "uint256"
        }
      ],
      "name": "updateCandle",
      "outputs": [],
      "stateMutability": "nonpayable",
      "type": "function"
    }
  ],
  "bytecode": "0x6080604052670de0b6b3a76400006002553480156200001d57600080fd5b5060405162001f7638038062001f768339818101604052810190620000439190620002c5565b33600073ffffffffffffffffffffffffffffffffffffffff168173ffffffffffffffffffffffffffffffffffffffff1603620000b95760006040517f1e4fbdf7000000000000000000000000000000000000000000000000000000008152600401620000b0919062000332565b60405180910390fd5b620000ca816200019760201b60201c565b5082600960006101000a81548173ffffffffffffffffffffffffffffffffffffffff021916908373ffffffffffffffffffffffffffffffffffffffff16021790555081600a60006101000a81548173ffffffffffffffffffffffffffffffffffffffff021916908373ffffffffffffffffffffffffffffffffffffffff16021790555080600b60006101000a81548173ffffffffffffffffffffffffffffffffffffffff021916908373ffffffffffffffffffffffffffffffffffffffff1602179055505050506200034f565b60008060009054906101000a900473ffffffffffffffffffffffffffffffffffffffff169050816000806101000a81548173ffffffffffffffffffffffffffffffffffffffff021916908373ffffffffffffffffffffffffffffffffffffffff1602179055508173ffffffffffffffffffffffffffffffffffffffff168173ffffffffffffffffffffffffffffffffffffffff167f8be0079c531659141344cd1fd0a4f28419497f9722a3daafe3b4186f6b6457e060405160405180910390a35050565b600080fd5b600073ffffffffffffffffffffffffffffffffffffffff82169050919050565b60006200028d8262000260565b9050919050565b6200029f8162000280565b8114620002ab57600080fd5b50565b600081519050620002bf8162000294565b92915050565b600080600060608486031215620002e157620002e06200025b565b5b6000620002f186828701620002ae565b93505060206200030486828701620002ae565b92505060406200031786828701620002ae565b9150509250925092565b6200032c8162000280565b82525050565b600060208201905062000349600083018462000321565b92915050565b611c17806200035f6000396000f3fe608060405234801561001057600080fd5b50600436106101735760003560e01c80637dc0d1d0116100de5780639b565faa11610097578063c4be1a0011610071578063c4be1a00146103ee578063d868254b1461040a578063dcebf68114610428578063f2fde38b1461044657610173565b80639b565faa146103945780639f55d64c146103b2578063a2309ff8146103d057610173565b80637dc0d1d0146102de5780637edfdc0b146102fc5780638510e1621461031e5780638bd8d9741461033c5780638da5cb5b14610358578063983d896e1461037657610173565b80634897fffb116101305780634897fffb1461025257806348cdec7c146102705780634a584a2c1461028e578063715018a6146102ac57806373b1bad0146102b657806373d8ca24146102d457610173565b80632825687a146101785780632e5af25c146101ac57806335800820146101dc57806337bb908b146101fa5780633a03171c146102165780634497743d14610234575b600080fd5b610192600480360381019061018d9190611330565b610462565b6040516101a3959493929190611387565b60405180910390f35b6101c660048036038101906101c19190611438565b6104a5565b6040516101d39190611465565b60405180910390f35b6101e46105e9565b6040516101f19190611465565b60405180910390f35b610214600480360381019061020f9190611480565b6105f5565b005b61021e61068b565b60405161022b9190611465565b60405180910390f35b61023c61069a565b6040516102499190611465565b60405180910390f35b61025a6106ce565b604051610267919061151f565b60405180910390f35b6102786106f4565b6040516102859190611465565b60405180910390f35b610296610700565b6040516102a39190611465565b60405180910390f35b6102b4610706565b005b6102be61071a565b6040516102cb9190611465565b60405180910390f35b6102dc610728565b005b6102e6610bec565b6040516102f3919061155b565b60405180910390f35b610304610c12565b6040516103159594939291906115ed565b60405180910390f35b610326610c50565b6040516103339190611465565b60405180910390f35b61035660048036038101906103519190611330565b610c56565b005b610360610da7565b60405161036d919061164f565b60405180910390f35b61037e610dd0565b60405161038b9190611465565b60405180910390f35b61039c610dd5565b6040516103a9919061168b565b60405180910390f35b6103ba610dfb565b6040516103c79190611465565b60405180910390f35b6103d8610e0a565b6040516103e59190611465565b60405180910390f35b61040860048036038101906104039190611438565b610e10565b005b610412610fff565b60405161041f9190611465565b60405180910390f35b610430611005565b60405161043d9190611465565b60405180910390f35b610460600480360381019061045b9190611438565b611011565b005b600c6020528060005260406000206000915090508060000154908060010154908060020154908060030154908060040160009054906101000a900460ff16905085565b60008069065a4da25d3016c0000090506000600254905060006104c661069a565b90506000600960009054906101000a900473ffffffffffffffffffffffffffffffffffffffff1673ffffffffffffffffffffffffffffffffffffffff16633633f3c0876040518263ffffffff1660e01b8152600401610525919061164f565b602060405180830381865afa158015610542573d6000803e3d6000fd5b505050506040513d601f19601f8201168201806040525081019061056691906116bb565b9050600067026db992a3b18000905060008183670de0b6b3a764000061058c9190611717565b6105969190611717565b9050760a70c3c40a64e6c51999090b65f67d9240000000000000818587896105be919061174b565b6105c8919061174b565b6105d2919061174b565b6105dc91906117bc565b9650505050505050919050565b67016345785d8a000081565b80821015610687576000816064848461060e91906117ed565b610618919061174b565b61062291906117bc565b9050601981106106445761063f600366b1a2bc2ec5000085611097565b610685565b600f81106106655761066060026702c68af0bb14000085611097565b610684565b600a8111156106835761068260016706f05b59d3b2000085611097565b5b5b5b505b5050565b6a52b7d2dcc80cd2e400000081565b60006004800160009054906101000a900460ff16156106c05760046003015490506106cb565b6106c861114b565b90505b90565b600b60009054906101000a900473ffffffffffffffffffffffffffffffffffffffff1681565b6714d1120d7b16000081565b600d5481565b61070e61115b565b61071860006111e2565b565b69065a4da25d3016c0000081565b6004800160009054906101000a900460ff16610779576040517f08c379a00000000000000000000000000000000000000000000000000000000081526004016107709061187e565b60405180910390fd5b60006004600101544261078c91906117ed565b90506000600a60009054906101000a900473ffffffffffffffffffffffffffffffffffffffff1673ffffffffffffffffffffffffffffffffffffffff16638e15f4736040518163ffffffff1660e01b8152600401602060405180830381865afa1580156107fd573d6000803e3d6000fd5b505050506040513d601f19601f8201168201806040525081019061082191906116bb565b90506001600381111561083757610836611576565b5b600460000160009054906101000a900460ff16600381111561085c5761085b611576565b5b036108fa576138408210156108a6576040517f08c379a000000000000000000000000000000000000000000000000000000000815260040161089d906118ea565b60405180910390fd5b60046002015481116108ed576040517f08c379a00000000000000000000000000000000000000000000000000000000081526004016108e490611956565b60405180910390fd5b6108f56112a6565b610be8565b6002600381111561090e5761090d611576565b5b600460000160009054906101000a900460ff16600381111561093357610932611576565b5b03610b5a5761a8c082101561097d576040517f08c379a0000000000000000000000000000000000000000000000000000000008152600401610974906119c2565b60405180910390fd5b6000610e10804261098e91906117bc565b610998919061174b565b90506000610e10826109aa91906117ed565b90506000611c20836109bc91906117ed565b90506000600c60008481526020019081526020016000206040518060a0016040529081600082015481526020016001820154815260200160028201548152602001600382015481526020016004820160009054906101000a900460ff16151515158152505090506000600c60008481526020019081526020016000206040518060a0016040529081600082015481526020016001820154815260200160028201548152602001600382015481526020016004820160009054906101000a900460ff161515151581525050905060008260000151118015610aa0575060008160000151115b610adf576040517f08c379a0000000000000000000000000000000000000000000000000000000008152600401610ad690611a2e565b60405180910390fd5b600082600001518360200151119050600082600001518360200151119050818015610b075750805b610b46576040517f08c379a0000000000000000000000000000000000000000000000000000000008152600401610b3d90611ac0565b60405180910390fd5b610b4e6112a6565b50505050505050610be7565b600380811115610b6d57610b6c611576565b5b600460000160009054906101000a900460ff166003811115610b9257610b91611576565b5b03610be65762015180821015610bdd576040517f08c379a0000000000000000000000000000000000000000000000000000000008152600401610bd490611b2c565b60405180910390fd5b610be56112a6565b5b5b5b5050565b600a60009054906101000a900473ffffffffffffffffffffffffffffffffffffffff1681565b60048060000160009054906101000a900460ff16908060010154908060020154908060030154908060040160009054906101000a900460ff16905085565b60025481565b60004290506000610e108083610c6c91906117bc565b610c76919061174b565b9050600d54811115610d52576000600d5414610cbe576001600c6000600d54815260200190815260200160002060040160006101000a81548160ff0219169083151502179055505b80600d819055506040518060a0016040528084815260200184815260200184815260200184815260200160001515815250600c60008381526020019081526020016000206000820151816000015560208201518160010155604082015181600201556060820151816003015560808201518160040160006101000a81548160ff021916908315150217905550905050610da2565b6000600c6000600d54815260200190815260200160002090508381600101819055508060020154841115610d8a578381600201819055505b8060030154841015610da0578381600301819055505b505b505050565b60008060009054906101000a900473ffffffffffffffffffffffffffffffffffffffff16905090565b605f81565b600960009054906101000a900473ffffffffffffffffffffffffffffffffffffffff1681565b6a05ca4ec2a79a7f6700000081565b60015481565b6000610e1b826104a5565b90506a52b7d2dcc80cd2e400000081600154610e379190611717565b1115610e78576040517f08c379a0000000000000000000000000000000000000000000000000000000008152600401610e6f90611b98565b60405180910390fd5b8060016000828254610e8a9190611717565b92505081905550600b60009054906101000a900473ffffffffffffffffffffffffffffffffffffffff1673ffffffffffffffffffffffffffffffffffffffff166340c10f1983836040518363ffffffff1660e01b8152600401610eee929190611bb8565b600060405180830381600087803b158015610f0857600080fd5b505af1158015610f1c573d6000803e3d6000fd5b50505050600960009054906101000a900473ffffffffffffffffffffffffffffffffffffffff1673ffffffffffffffffffffffffffffffffffffffff1663a8031a1d83836040518363ffffffff1660e01b8152600401610f7d929190611bb8565b600060405180830381600087803b158015610f9757600080fd5b505af1158015610fab573d6000803e3d6000fd5b505050506a05ca4ec2a79a7f67000000600354600154610fcb91906117ed565b10610ffb576064605f600254610fe1919061174b565b610feb91906117bc565b6002819055506001546003819055505b5050565b60035481565b671bc16d674ec8000081565b61101961115b565b600073ffffffffffffffffffffffffffffffffffffffff168173ffffffffffffffffffffffffffffffffffffffff160361108b5760006040517f1e4fbdf7000000000000000000000000000000000000000000000000000000008152600401611082919061164f565b60405180910390fd5b611094816111e2565b50565b6040518060a001604052808460038111156110b5576110b4611576565b5b815260200142815260200182815260200183815260200160011515815250600460008201518160000160006101000a81548160ff02191690836003811115611100576110ff611576565b5b021790555060208201518160010155604082015181600201556060820151816003015560808201518160040160006101000a81548160ff021916908315150217905550905050505050565b60006710a741a462780000905090565b6111636112ed565b73ffffffffffffffffffffffffffffffffffffffff16611181610da7565b73ffffffffffffffffffffffffffffffffffffffff16146111e0576111a46112ed565b6040517f118cdaa70000000000000000000000000000000000000000000000000000000081526004016111d7919061164f565b60405180910390fd5b565b60008060009054906101000a900473ffffffffffffffffffffffffffffffffffffffff169050816000806101000a81548173ffffffffffffffffffffffffffffffffffffffff021916908373ffffffffffffffffffffffffffffffffffffffff1602179055508173ffffffffffffffffffffffffffffffffffffffff168173ffffffffffffffffffffffffffffffffffffffff167f8be0079c531659141344cd1fd0a4f28419497f9722a3daafe3b4186f6b6457e060405160405180910390a35050565b6004600080820160006101000a81549060ff02191690556001820160009055600282016000905560038201600090556004820160006101000a81549060ff02191690555050565b600033905090565b600080fd5b6000819050919050565b61130d816112fa565b811461131857600080fd5b50565b60008135905061132a81611304565b92915050565b600060208284031215611346576113456112f5565b5b60006113548482850161131b565b91505092915050565b611366816112fa565b82525050565b60008115159050919050565b6113818161136c565b82525050565b600060a08201905061139c600083018861135d565b6113a9602083018761135d565b6113b6604083018661135d565b6113c3606083018561135d565b6113d06080830184611378565b9695505050505050565b600073ffffffffffffffffffffffffffffffffffffffff82169050919050565b6000611405826113da565b9050919050565b611415816113fa565b811461142057600080fd5b50565b6000813590506114328161140c565b92915050565b60006020828403121561144e5761144d6112f5565b5b600061145c84828501611423565b91505092915050565b600060208201905061147a600083018461135d565b92915050565b60008060408385031215611497576114966112f5565b5b60006114a58582860161131b565b92505060206114b68582860161131b565b9150509250929050565b6000819050919050565b60006114e56114e06114db846113da565b6114c0565b6113da565b9050919050565b60006114f7826114ca565b9050919050565b6000611509826114ec565b9050919050565b611519816114fe565b82525050565b60006020820190506115346000830184611510565b92915050565b6000611545826114ec565b9050919050565b6115558161153a565b82525050565b6000602082019050611570600083018461154c565b92915050565b7f4e487b7100000000000000000000000000000000000000000000000000000000600052602160045260246000fd5b600481106115b6576115b5611576565b5b50565b60008190506115c7826115a5565b919050565b60006115d7826115b9565b9050919050565b6115e7816115cc565b82525050565b600060a08201905061160260008301886115de565b61160f602083018761135d565b61161c604083018661135d565b611629606083018561135d565b6116366080830184611378565b9695505050505050565b611649816113fa565b82525050565b60006020820190506116646000830184611640565b92915050565b6000611675826114ec565b9050919050565b6116858161166a565b82525050565b60006020820190506116a0600083018461167c565b92915050565b6000815190506116b581611304565b92915050565b6000602082840312156116d1576116d06112f5565b5b60006116df848285016116a6565b91505092915050565b7f4e487b7100000000000000000000000000000000000000000000000000000000600052601160045260246000fd5b6000611722826112fa565b915061172d836112fa565b9250828201905080821115611745576117446116e8565b5b92915050565b6000611756826112fa565b9150611761836112fa565b925082820261176f816112fa565b91508282048414831517611786576117856116e8565b5b5092915050565b7f4e487b7100000000000000000000000000000000000000000000000000000000600052601260045260246000fd5b60006117c7826112fa565b91506117d2836112fa565b9250826117e2576117e161178d565b5b828204905092915050565b60006117f8826112fa565b9150611803836112fa565b925082820390508181111561181b5761181a6116e8565b5b92915050565b600082825260208201905092915050565b7f4342206e6f742061637469766500000000000000000000000000000000000000600082015250565b6000611868600d83611821565b915061187382611832565b602082019050919050565b600060208201905081810360008301526118978161185b565b9050919050565b7f4c313a204c6f636b656400000000000000000000000000000000000000000000600082015250565b60006118d4600a83611821565b91506118df8261189e565b602082019050919050565b60006020820190508181036000830152611903816118c7565b9050919050565b7f4c313a205072696365206e6f74207265636f7665726564000000000000000000600082015250565b6000611940601783611821565b915061194b8261190a565b602082019050919050565b6000602082019050818103600083015261196f81611933565b9050919050565b7f4c323a204c6f636b656400000000000000000000000000000000000000000000600082015250565b60006119ac600a83611821565b91506119b782611976565b602082019050919050565b600060208201905081810360008301526119db8161199f565b9050919050565b7f4c323a204e6f2063616e646c6520646174610000000000000000000000000000600082015250565b6000611a18601283611821565b9150611a23826119e2565b602082019050919050565b60006020820190508181036000830152611a4781611a0b565b9050919050565b7f4c323a204e656564203220636f6e736563757469766520314820677265656e2060008201527f63616e646c657300000000000000000000000000000000000000000000000000602082015250565b6000611aaa602783611821565b9150611ab582611a4e565b604082019050919050565b60006020820190508181036000830152611ad981611a9d565b9050919050565b7f4c333a2048617264204c6f636b65640000000000000000000000000000000000600082015250565b6000611b16600f83611821565b9150611b2182611ae0565b602082019050919050565b60006020820190508181036000830152611b4581611b09565b9050919050565b7f4861726420436170205265616368656400000000000000000000000000000000600082015250565b6000611b82601083611821565b9150611b8d82611b4c565b602082019050919050565b60006020820190508181036000830152611bb181611b75565b9050919050565b6000604082019050611bcd6000830185611640565b611bda602083018461135d565b939250505056fea26469706673582212209ff4439ef35345f0baf451d2aa15f57285714c2963abde3d0d7ccdf29975dca464736f6c63430008140033",
  "linkReferences": {},
  "deployedLinkReferences": {}
}