{
  "_format": "hh-sol-artifact-1",
  "contractName": "IvyCore",
  "sourceName": "contracts/IvyCore.sol",
  "abi": [
    {
      "inputs": [
        {
          "internalType": "address",
          "name": "_ivyToken",
          "type": "address"
        }
      ],
      "stateMutability": "nonpayable",
      "type": "constructor"
    },
    {
      "inputs": [
        {
          "internalType": "address",
          "name": "owner",
          "type": "address"
        }
      ],
      "name": "OwnableInvalidOwner",
      "type": "error"
    },
    {
      "inputs": [
        {
          "internalType": "address",
          "name": "account",
          "type": "address"
        }
      ],
      "name": "OwnableUnauthorizedAccount",
      "type": "error"
    },
    {
      "inputs": [],
      "name": "ReentrancyGuardReentrantCall",
      "type": "error"
    },
    {
      "anonymous": false,
      "inputs": [
        {
          "indexed": false,
          "internalType": "uint256",
          "name": "newEmissionFactor",
          "type": "uint256"
        },
        {
          "indexed": false,
          "internalType": "uint256",
          "name": "totalMinted",
          "type": "uint256"
        }
      ],
      "name": "HalvingOccurred",
      "type": "event"
    },
    {
      "anonymous": false,
      "inputs": [
        {
          "indexed": true,
          "internalType": "address",
          "name": "previousOwner",
          "type": "address"
        },
        {
          "indexed": true,
          "internalType": "address",
          "name": "newOwner",
          "type": "address"
        }
      ],
      "name": "OwnershipTransferred",
      "type": "event"
    },
    {
      "anonymous": false,
      "inputs": [
        {
          "indexed": true,
          "internalType": "address",
          "name": "referrer",
          "type": "address"
        },
        {
          "indexed": true,
          "internalType": "address",
          "name": "from",
          "type": "address"
        },
        {
          "indexed": false,
          "internalType": "uint256",
          "name": "amount",
          "type": "uint256"
        },
        {
          "indexed": false,
          "internalType": "uint256",
          "name": "level",
          "type": "uint256"
        }
      ],
      "name": "ReferralRewardPaid",
      "type": "event"
    },
    {
      "anonymous": false,
      "inputs": [
        {
          "indexed": true,
          "internalType": "address",
          "name": "user",
          "type": "address"
        },
        {
          "indexed": false,
          "internalType": "uint256",
          "name": "baseReward",
          "type": "uint256"
        },
        {
          "indexed": false,
          "internalType": "uint256",
          "name": "boostedReward",
          "type": "uint256"
        },
        {
          "indexed": false,
          "internalType": "uint256",
          "name": "timestamp",
          "type": "uint256"
        }
      ],
      "name": "RewardsClaimed",
      "type": "event"
    },
    {
      "inputs": [],
      "name": "BASE_DAILY_EMISSION",
      "outputs": [
        {
          "internalType": "uint256",
          "name": "",
          "type": "uint256"
        }
      ],
      "stateMutability": "view",
      "type": "function"
    },
    {
      "inputs": [],
      "name": "BASIS_POINTS",
      "outputs": [
        {
          "internalType": "uint256",
          "name": "",
          "type": "uint256"
        }
      ],
      "stateMutability": "view",
      "type": "function"
    },
    {
      "inputs": [],
      "name": "CLAIM_COOLDOWN",
      "outputs": [
        {
          "internalType": "uint256",
          "name": "",
          "type": "uint256"
        }
      ],
      "stateMutability": "view",
      "type": "function"
    },
    {
      "inputs": [],
      "name": "HALVING_DECAY",
      "outputs": [
        {
          "internalType": "uint256",
          "name": "",
          "type": "uint256"
        }
      ],
      "stateMutability": "view",
      "type": "function"
    },
    {
      "inputs": [],
      "name": "HALVING_THRESHOLD",
      "outputs": [
        {
          "internalType": "uint256",
          "name": "",
          "type": "uint256"
        }
      ],
      "stateMutability": "view",
      "type": "function"
    },
    {
      "inputs": [],
      "name": "HARD_CAP",
      "outputs": [
        {
          "internalType": "uint256",
          "name": "",
          "type": "uint256"
        }
      ],
      "stateMutability": "view",
      "type": "function"
    },
    {
      "inputs": [],
      "name": "INFINITE_RATE",
      "outputs": [
        {
          "internalType": "uint256",
          "name": "",
          "type": "uint256"
        }
      ],
      "stateMutability": "view",
      "type": "function"
    },
    {
      "inputs": [],
      "name": "L1_RATE",
      "outputs": [
        {
          "internalType": "uint256",
          "name": "",
          "type": "uint256"
        }
      ],
      "stateMutability": "view",
      "type": "function"
    },
    {
      "inputs": [],
      "name": "L2_RATE",
      "outputs": [
        {
          "internalType": "uint256",
          "name": "",
          "type": "uint256"
        }
      ],
      "stateMutability": "view",
      "type": "function"
    },
    {
      "inputs": [],
      "name": "MAX_REFERRAL_DEPTH",
      "outputs": [
        {
          "internalType": "uint256",
          "name": "",
          "type": "uint256"
        }
      ],
      "stateMutability": "view",
      "type": "function"
    },
    {
      "inputs": [
        {
          "internalType": "address",
          "name": "user",
          "type": "address"
        }
      ],
      "name": "calculateDailyReward",
      "outputs": [
        {
          "internalType": "uint256",
          "name": "",
          "type": "uint256"
        }
      ],
      "stateMutability": "view",
      "type": "function"
    },
    {
      "inputs": [
        {
          "internalType": "address",
          "name": "user",
          "type": "address"
        }
      ],
      "name": "canClaim",
      "outputs": [
        {
          "internalType": "bool",
          "name": "",
          "type": "bool"
        },
        {
          "internalType": "uint256",
          "name": "",
          "type": "uint256"
        }
      ],
      "stateMutability": "view",
      "type": "function"
    },
    {
      "inputs": [],
      "name": "claimRewards",
      "outputs": [],
      "stateMutability": "nonpayable",
      "type": "function"
    },
    {
      "inputs": [],
      "name": "emissionFactor",
      "outputs": [
        {
          "internalType": "uint256",
          "name": "",
          "type": "uint256"
        }
      ],
      "stateMutability": "view",
      "type": "function"
    },
    {
      "inputs": [],
      "name": "genesisNode",
      "outputs": [
        {
          "internalType": "contract IGenesisNode",
          "name": "",
          "type": "address"
        }
      ],
      "stateMutability": "view",
      "type": "function"
    },
    {
      "inputs": [],
      "name": "getProtocolStats",
      "outputs": [
        {
          "internalType": "uint256",
          "name": "_totalMinted",
          "type": "uint256"
        },
        {
          "internalType": "uint256",
          "name": "_hardCap",
          "type": "uint256"
        },
        {
          "internalType": "uint256",
          "name": "_emissionFactor",
          "type": "uint256"
        },
        {
          "internalType": "uint256",
          "name": "_nextHalvingAt",
          "type": "uint256"
        }
      ],
      "stateMutability": "view",
      "type": "function"
    },
    {
      "inputs": [
        {
          "internalType": "address",
          "name": "user",
          "type": "address"
        }
      ],
      "name": "getUserMiningStats",
      "outputs": [
        {
          "internalType": "uint256",
          "name": "pendingReward",
          "type": "uint256"
        },
        {
          "internalType": "uint256",
          "name": "totalClaimedAmount",
          "type": "uint256"
        },
        {
          "internalType": "uint256",
          "name": "referralEarnings",
          "type": "uint256"
        },
        {
          "internalType": "uint256",
          "name": "lastClaim",
          "type": "uint256"
        },
        {
          "internalType": "uint256",
          "name": "bondPower",
          "type": "uint256"
        },
        {
          "internalType": "uint256",
          "name": "totalBoost",
          "type": "uint256"
        }
      ],
      "stateMutability": "view",
      "type": "function"
    },
    {
      "inputs": [],
      "name": "ivyBond",
      "outputs": [
        {
          "internalType": "contract IIvyBond",
          "name": "",
          "type": "address"
        }
      ],
      "stateMutability": "view",
      "type": "function"
    },
    {
      "inputs": [],
      "name": "ivyToken",
      "outputs": [
        {
          "internalType": "contract IvyToken",
          "name": "",
          "type": "address"
        }
      ],
      "stateMutability": "view",
      "type": "function"
    },
    {
      "inputs": [
        {
          "internalType": "address",
          "name": "",
          "type": "address"
        }
      ],
      "name": "lastClaimTime",
      "outputs": [
        {
          "internalType": "uint256",
          "name": "",
          "type": "uint256"
        }
      ],
      "stateMutability": "view",
      "type": "function"
    },
    {
      "inputs": [],
      "name": "lastHalvingMinted",
      "outputs": [
        {
          "internalType": "uint256",
          "name": "",
          "type": "uint256"
        }
      ],
      "stateMutability": "view",
      "type": "function"
    },
    {
      "inputs": [],
      "name": "owner",
      "outputs": [
        {
          "internalType": "address",
          "name": "",
          "type": "address"
        }
      ],
      "stateMutability": "view",
      "type": "function"
    },
    {
      "inputs": [],
      "name": "priceOracle",
      "outputs": [
        {
          "internalType": "contract IPriceOracle",
          "name": "",
          "type": "address"
        }
      ],
      "stateMutability": "view",
      "type": "function"
    },
    {
      "inputs": [
        {
          "internalType": "address",
          "name": "",
          "type": "address"
        }
      ],
      "name": "referralRewardsEarned",
      "outputs": [
        {
          "internalType": "uint256",
          "name": "",
          "type": "uint256"
        }
      ],
      "stateMutability": "view",
      "type": "function"
    },
    {
      "inputs": [],
      "name": "renounceOwnership",
      "outputs": [],
      "stateMutability": "nonpayable",
      "type": "function"
    },
    {
      "inputs": [
        {
          "internalType": "address",
          "name": "_genesisNode",
          "type": "address"
        }
      ],
      "name": "setGenesisNode",
      "outputs": [],
      "stateMutability": "nonpayable",
      "type": "function"
    },
    {
      "inputs": [
        {
          "internalType": "address",
          "name": "_ivyBond",
          "type": "address"
        }
      ],
      "name": "setIvyBond",
      "outputs": [],
      "stateMutability": "nonpayable",
      "type": "function"
    },
    {
      "inputs": [
        {
          "internalType": "address",
          "name": "",
          "type": "address"
        }
      ],
      "name": "totalClaimed",
      "outputs": [
        {
          "internalType": "uint256",
          "name": "",
          "type": "uint256"
        }
      ],
      "stateMutability": "view",
      "type": "function"
    },
    {
      "inputs": [],
      "name": "totalMinted",
      "outputs": [
        {
          "internalType": "uint256",
          "name": "",
          "type": "uint256"
        }
      ],
      "stateMutability": "view",
      "type": "function"
    },
    {
      "inputs": [
        {
          "internalType": "address",
          "name": "newOwner",
          "type": "address"
        }
      ],
      "name": "transferOwnership",
      "outputs": [],
      "stateMutability": "nonpayable",
      "type": "function"
    }
  ],
  "bytecode": "0x6080604052670de0b6b3a76400006006553480156200001d57600080fd5b5060405162002a6638038062002a66833981810160405281019062000043919062000248565b33600073ffffffffffffffffffffffffffffffffffffffff168173ffffffffffffffffffffffffffffffffffffffff1603620000b95760006040517f1e4fbdf7000000000000000000000000000000000000000000000000000000008152600401620000b091906200028b565b60405180910390fd5b620000ca816200011a60201b60201c565b506001808190555080600460006101000a81548173ffffffffffffffffffffffffffffffffffffffff021916908373ffffffffffffffffffffffffffffffffffffffff16021790555050620002a8565b60008060009054906101000a900473ffffffffffffffffffffffffffffffffffffffff169050816000806101000a81548173ffffffffffffffffffffffffffffffffffffffff021916908373ffffffffffffffffffffffffffffffffffffffff1602179055508173ffffffffffffffffffffffffffffffffffffffff168173ffffffffffffffffffffffffffffffffffffffff167f8be0079c531659141344cd1fd0a4f28419497f9722a3daafe3b4186f6b6457e060405160405180910390a35050565b600080fd5b600073ffffffffffffffffffffffffffffffffffffffff82169050919050565b60006200021082620001e3565b9050919050565b620002228162000203565b81146200022e57600080fd5b50565b600081519050620002428162000217565b92915050565b600060208284031215620002615762000260620001de565b5b6000620002718482850162000231565b91505092915050565b620002858162000203565b82525050565b6000602082019050620002a260008301846200027a565b92915050565b6127ae80620002b86000396000f3fe608060405234801561001057600080fd5b50600436106101da5760003560e01c8063945c3ebd11610104578063b77cf9c6116100a2578063e88067e811610071578063e88067e814610524578063ef5d9ae814610540578063f2fde38b14610570578063f706555b1461058c576101da565b8063b77cf9c614610487578063bf3506c1146104b7578063da6510b4146104e8578063e1f1c4a714610506576101da565b80639f55d64c116100de5780639f55d64c146103fd578063a2309ff81461041b578063a29a7ab014610439578063b3def2f514610469576101da565b8063945c3ebd146103a3578063983d896e146103c15780639b565faa146103df576101da565b806340c4da461161017c578063771aceef1161014b578063771aceef1461032857806389e59ea0146103495780638da5cb5b14610367578063934b7c5414610385576101da565b806340c4da461461029b5780634897fffb146102cb578063715018a6146102e957806374c7773e146102f3576101da565b806329146555116101b85780632914655514610237578063372500ab1461025557806337c909ec1461025f5780633a03171c1461027d576101da565b8063033d30fe146101df5780632630c12f146101fb578063277c19b014610219575b600080fd5b6101f960048036038101906101f49190611eea565b6105aa565b005b610203610665565b6040516102109190611f76565b60405180910390f35b61022161068b565b60405161022e9190611faa565b60405180910390f35b61023f610690565b60405161024c9190611fe6565b60405180910390f35b61025d6106b6565b005b6102676109b0565b6040516102749190611faa565b60405180910390f35b6102856109b7565b6040516102929190611faa565b60405180910390f35b6102b560048036038101906102b09190611eea565b6109c6565b6040516102c29190611faa565b60405180910390f35b6102d3610cfe565b6040516102e09190612022565b60405180910390f35b6102f1610d24565b005b61030d60048036038101906103089190611eea565b610d38565b60405161031f9695949392919061203d565b60405180910390f35b610330611005565b604051610340949392919061209e565b60405180910390f35b610351611044565b60405161035e9190611faa565b60405180910390f35b61036f611049565b60405161037c91906120f2565b60405180910390f35b61038d611072565b60405161039a9190611faa565b60405180910390f35b6103ab611078565b6040516103b89190611faa565b60405180910390f35b6103c9611086565b6040516103d69190611faa565b60405180910390f35b6103e761108b565b6040516103f4919061212e565b60405180910390f35b6104056110b1565b6040516104129190611faa565b60405180910390f35b6104236110c0565b6040516104309190611faa565b60405180910390f35b610453600480360381019061044e9190611eea565b6110c6565b6040516104609190611faa565b60405180910390f35b6104716110de565b60405161047e9190611faa565b60405180910390f35b6104a1600480360381019061049c9190611eea565b6110e4565b6040516104ae9190611faa565b60405180910390f35b6104d160048036038101906104cc9190611eea565b6110fc565b6040516104df929190612164565b60405180910390f35b6104f061117f565b6040516104fd9190611faa565b60405180910390f35b61050e611185565b60405161051b9190611faa565b60405180910390f35b61053e60048036038101906105399190611eea565b61118b565b005b61055a60048036038101906105559190611eea565b611246565b6040516105679190611faa565b60405180910390f35b61058a60048036038101906105859190611eea565b61125e565b005b6105946112e4565b6040516105a19190611faa565b60405180910390f35b6105b26112ea565b600073ffffffffffffffffffffffffffffffffffffffff168173ffffffffffffffffffffffffffffffffffffffff1603610621576040517f08c379a0000000000000000000000000000000000000000000000000000000008152600401610618906121ea565b60405180910390fd5b80600360006101000a81548173ffffffffffffffffffffffffffffffffffffffff021916908373ffffffffffffffffffffffffffffffffffffffff16021790555050565b600560009054906101000a900473ffffffffffffffffffffffffffffffffffffffff1681565b60c881565b600360009054906101000a900473ffffffffffffffffffffffffffffffffffffffff1681565b6106be611371565b600033905062015180600960008373ffffffffffffffffffffffffffffffffffffffff1673ffffffffffffffffffffffffffffffffffffffff168152602001908152602001600020546107119190612239565b421015610753576040517f08c379a000000000000000000000000000000000000000000000000000000000815260040161074a906122b9565b60405180910390fd5b600061075e826109c6565b9050600081116107a3576040517f08c379a000000000000000000000000000000000000000000000000000000000815260040161079a90612325565b60405180910390fd5b6a52b7d2dcc80cd2e4000000816007546107bd9190612239565b11156107fe576040517f08c379a00000000000000000000000000000000000000000000000000000000081526004016107f590612391565b60405180910390fd5b42600960008473ffffffffffffffffffffffffffffffffffffffff1673ffffffffffffffffffffffffffffffffffffffff16815260200190815260200160002081905550600460009054906101000a900473ffffffffffffffffffffffffffffffffffffffff1673ffffffffffffffffffffffffffffffffffffffff166340c10f1983836040518363ffffffff1660e01b815260040161089f9291906123b1565b600060405180830381600087803b1580156108b957600080fd5b505af11580156108cd573d6000803e3d6000fd5b5050505080600760008282546108e39190612239565b9250508190555080600a60008473ffffffffffffffffffffffffffffffffffffffff1673ffffffffffffffffffffffffffffffffffffffff16815260200190815260200160002060008282546109399190612239565b925050819055508173ffffffffffffffffffffffffffffffffffffffff167f56253d287efacdb2c4cd76dd03624a4821c1ce721d1152e8f5f5718f6087c9bf82834260405161098a939291906123da565b60405180910390a261099c82826113b7565b6109a4611d27565b50506109ae611db2565b565b6201518081565b6a52b7d2dcc80cd2e400000081565b60008073ffffffffffffffffffffffffffffffffffffffff16600360009054906101000a900473ffffffffffffffffffffffffffffffffffffffff1673ffffffffffffffffffffffffffffffffffffffff161480610abd5750600360009054906101000a900473ffffffffffffffffffffffffffffffffffffffff1673ffffffffffffffffffffffffffffffffffffffff166385a43114836040518263ffffffff1660e01b8152600401610a7a91906120f2565b602060405180830381865afa158015610a97573d6000803e3d6000fd5b505050506040513d601f19601f82011682018060405250810190610abb919061243d565b155b15610acb5760009050610cf9565b6000600360009054906101000a900473ffffffffffffffffffffffffffffffffffffffff1673ffffffffffffffffffffffffffffffffffffffff1663ab0229a0846040518263ffffffff1660e01b8152600401610b2891906120f2565b602060405180830381865afa158015610b45573d6000803e3d6000fd5b505050506040513d601f19601f82011682018060405250810190610b699190612496565b905060008103610b7d576000915050610cf9565b60008073ffffffffffffffffffffffffffffffffffffffff16600260009054906101000a900473ffffffffffffffffffffffffffffffffffffffff1673ffffffffffffffffffffffffffffffffffffffff1614610c7357600260009054906101000a900473ffffffffffffffffffffffffffffffffffffffff1673ffffffffffffffffffffffffffffffffffffffff166304d1334f856040518263ffffffff1660e01b8152600401610c2f91906120f2565b602060405180830381865afa158015610c4c573d6000803e3d6000fd5b505050506040513d601f19601f82011682018060405250810190610c709190612496565b90505b6000683635c9adc5dea0000069065a4da25d3016c0000084610c9591906124c3565b610c9f9190612534565b9050600061271083612710610cb49190612239565b83610cbf91906124c3565b610cc99190612534565b90506000670de0b6b3a764000060065483610ce491906124c3565b610cee9190612534565b905080955050505050505b919050565b600460009054906101000a900473ffffffffffffffffffffffffffffffffffffffff1681565b610d2c6112ea565b610d366000611dbb565b565b600080600080600080610d4a876109c6565b9550600a60008873ffffffffffffffffffffffffffffffffffffffff1673ffffffffffffffffffffffffffffffffffffffff168152602001908152602001600020549450600b60008873ffffffffffffffffffffffffffffffffffffffff1673ffffffffffffffffffffffffffffffffffffffff168152602001908152602001600020549350600960008873ffffffffffffffffffffffffffffffffffffffff1673ffffffffffffffffffffffffffffffffffffffff168152602001908152602001600020549250600073ffffffffffffffffffffffffffffffffffffffff16600360009054906101000a900473ffffffffffffffffffffffffffffffffffffffff1673ffffffffffffffffffffffffffffffffffffffff1614610f0757600360009054906101000a900473ffffffffffffffffffffffffffffffffffffffff1673ffffffffffffffffffffffffffffffffffffffff1663ab0229a0886040518263ffffffff1660e01b8152600401610ec391906120f2565b602060405180830381865afa158015610ee0573d6000803e3d6000fd5b505050506040513d601f19601f82011682018060405250810190610f049190612496565b91505b600073ffffffffffffffffffffffffffffffffffffffff16600260009054906101000a900473ffffffffffffffffffffffffffffffffffffffff1673ffffffffffffffffffffffffffffffffffffffff1614610ffc57600260009054906101000a900473ffffffffffffffffffffffffffffffffffffffff1673ffffffffffffffffffffffffffffffffffffffff166304d1334f886040518263ffffffff1660e01b8152600401610fb891906120f2565b602060405180830381865afa158015610fd5573d6000803e3d6000fd5b505050506040513d601f19601f82011682018060405250810190610ff99190612496565b90505b91939550919395565b6000806000806007546a52b7d2dcc80cd2e40000006006546a05ca4ec2a79a7f670000006008546110369190612239565b935093509350935090919293565b601481565b60008060009054906101000a900473ffffffffffffffffffffffffffffffffffffffff16905090565b60085481565b69065a4da25d3016c0000081565b605f81565b600260009054906101000a900473ffffffffffffffffffffffffffffffffffffffff1681565b6a05ca4ec2a79a7f6700000081565b60075481565b600b6020528060005260406000206000915090505481565b60065481565b60096020528060005260406000206000915090505481565b600080600062015180600960008673ffffffffffffffffffffffffffffffffffffffff1673ffffffffffffffffffffffffffffffffffffffff1681526020019081526020016000205461114f9190612239565b90508042106111665760016000925092505061117a565b600042826111749190612565565b92509250505b915091565b6101f481565b61271081565b6111936112ea565b600073ffffffffffffffffffffffffffffffffffffffff168173ffffffffffffffffffffffffffffffffffffffff1603611202576040517f08c379a00000000000000000000000000000000000000000000000000000000081526004016111f9906121ea565b60405180910390fd5b80600260006101000a81548173ffffffffffffffffffffffffffffffffffffffff021916908373ffffffffffffffffffffffffffffffffffffffff16021790555050565b600a6020528060005260406000206000915090505481565b6112666112ea565b600073ffffffffffffffffffffffffffffffffffffffff168173ffffffffffffffffffffffffffffffffffffffff16036112d85760006040517f1e4fbdf70000000000000000000000000000000000000000000000000000000081526004016112cf91906120f2565b60405180910390fd5b6112e181611dbb565b50565b6103e881565b6112f2611e7f565b73ffffffffffffffffffffffffffffffffffffffff16611310611049565b73ffffffffffffffffffffffffffffffffffffffff161461136f57611333611e7f565b6040517f118cdaa700000000000000000000000000000000000000000000000000000000815260040161136691906120f2565b60405180910390fd5b565b6002600154036113ad576040517f3ee5aeb500000000000000000000000000000000000000000000000000000000815260040160405180910390fd5b6002600181905550565b600073ffffffffffffffffffffffffffffffffffffffff16600260009054906101000a900473ffffffffffffffffffffffffffffffffffffffff1673ffffffffffffffffffffffffffffffffffffffff160315611d23576000600260009054906101000a900473ffffffffffffffffffffffffffffffffffffffff1673ffffffffffffffffffffffffffffffffffffffff16634a9fefc7846040518263ffffffff1660e01b815260040161146b91906120f2565b602060405180830381865afa158015611488573d6000803e3d6000fd5b505050506040513d601f19601f820116820180604052508101906114ac91906125ae565b9050600073ffffffffffffffffffffffffffffffffffffffff168173ffffffffffffffffffffffffffffffffffffffff16036114e85750611d23565b60006127106103e8846114fb91906124c3565b6115059190612534565b905060008111801561152f57506a52b7d2dcc80cd2e40000008160075461152c9190612239565b11155b1561169b57600460009054906101000a900473ffffffffffffffffffffffffffffffffffffffff1673ffffffffffffffffffffffffffffffffffffffff166340c10f1983836040518363ffffffff1660e01b81526004016115919291906123b1565b600060405180830381600087803b1580156115ab57600080fd5b505af11580156115bf573d6000803e3d6000fd5b5050505080600760008282546115d59190612239565b9250508190555080600b60008473ffffffffffffffffffffffffffffffffffffffff1673ffffffffffffffffffffffffffffffffffffffff168152602001908152602001600020600082825461162b9190612239565b925050819055508373ffffffffffffffffffffffffffffffffffffffff168273ffffffffffffffffffffffffffffffffffffffff167fe679beb5d98a54fda65331587d36d13358e8bf295be15e932c482164f8fde95e836001604051611692929190612616565b60405180910390a35b6000600260009054906101000a900473ffffffffffffffffffffffffffffffffffffffff1673ffffffffffffffffffffffffffffffffffffffff16634a9fefc7846040518263ffffffff1660e01b81526004016116f891906120f2565b602060405180830381865afa158015611715573d6000803e3d6000fd5b505050506040513d601f19601f8201168201806040525081019061173991906125ae565b9050600073ffffffffffffffffffffffffffffffffffffffff168173ffffffffffffffffffffffffffffffffffffffff160361177757505050611d23565b60006127106101f48661178a91906124c3565b6117949190612534565b90506000811180156117be57506a52b7d2dcc80cd2e4000000816007546117bb9190612239565b11155b1561192a57600460009054906101000a900473ffffffffffffffffffffffffffffffffffffffff1673ffffffffffffffffffffffffffffffffffffffff166340c10f1983836040518363ffffffff1660e01b81526004016118209291906123b1565b600060405180830381600087803b15801561183a57600080fd5b505af115801561184e573d6000803e3d6000fd5b5050505080600760008282546118649190612239565b9250508190555080600b60008473ffffffffffffffffffffffffffffffffffffffff1673ffffffffffffffffffffffffffffffffffffffff16815260200190815260200160002060008282546118ba9190612239565b925050819055508573ffffffffffffffffffffffffffffffffffffffff168273ffffffffffffffffffffffffffffffffffffffff167fe679beb5d98a54fda65331587d36d13358e8bf295be15e932c482164f8fde95e83600260405161192192919061267a565b60405180910390a35b6000600260009054906101000a900473ffffffffffffffffffffffffffffffffffffffff1673ffffffffffffffffffffffffffffffffffffffff16634a9fefc7846040518263ffffffff1660e01b815260040161198791906120f2565b602060405180830381865afa1580156119a4573d6000803e3d6000fd5b505050506040513d601f19601f820116820180604052508101906119c891906125ae565b905060005b600073ffffffffffffffffffffffffffffffffffffffff168273ffffffffffffffffffffffffffffffffffffffff1614158015611a0a5750601481105b15611d1c576000600260009054906101000a900473ffffffffffffffffffffffffffffffffffffffff1673ffffffffffffffffffffffffffffffffffffffff166370a08231846040518263ffffffff1660e01b8152600401611a6c91906120f2565b602060405180830381865afa158015611a89573d6000803e3d6000fd5b505050506040513d601f19601f82011682018060405250810190611aad9190612496565b1115611c6b57600061271060c889611ac591906124c3565b611acf9190612534565b9050600081118015611af957506a52b7d2dcc80cd2e400000081600754611af69190612239565b11155b15611c6557600460009054906101000a900473ffffffffffffffffffffffffffffffffffffffff1673ffffffffffffffffffffffffffffffffffffffff166340c10f1984836040518363ffffffff1660e01b8152600401611b5b9291906123b1565b600060405180830381600087803b158015611b7557600080fd5b505af1158015611b89573d6000803e3d6000fd5b505050508060076000828254611b9f9190612239565b9250508190555080600b60008573ffffffffffffffffffffffffffffffffffffffff1673ffffffffffffffffffffffffffffffffffffffff1681526020019081526020016000206000828254611bf59190612239565b925050819055508873ffffffffffffffffffffffffffffffffffffffff168373ffffffffffffffffffffffffffffffffffffffff167fe679beb5d98a54fda65331587d36d13358e8bf295be15e932c482164f8fde95e836003604051611c5c9291906126de565b60405180910390a35b50611d1c565b600260009054906101000a900473ffffffffffffffffffffffffffffffffffffffff1673ffffffffffffffffffffffffffffffffffffffff16634a9fefc7836040518263ffffffff1660e01b8152600401611cc691906120f2565b602060405180830381865afa158015611ce3573d6000803e3d6000fd5b505050506040513d601f19601f82011682018060405250810190611d0791906125ae565b91508080611d1490612707565b9150506119cd565b5050505050505b5050565b6a05ca4ec2a79a7f67000000600854600754611d439190612565565b10611db0576064605f600654611d5991906124c3565b611d639190612534565b6006819055506007546008819055507fde141711fef892cdaea55f1f6a85e241382fcefc69efdb496eff235992a18ed4600654600754604051611da792919061274f565b60405180910390a15b565b60018081905550565b60008060009054906101000a900473ffffffffffffffffffffffffffffffffffffffff169050816000806101000a81548173ffffffffffffffffffffffffffffffffffffffff021916908373ffffffffffffffffffffffffffffffffffffffff1602179055508173ffffffffffffffffffffffffffffffffffffffff168173ffffffffffffffffffffffffffffffffffffffff167f8be0079c531659141344cd1fd0a4f28419497f9722a3daafe3b4186f6b6457e060405160405180910390a35050565b600033905090565b600080fd5b600073ffffffffffffffffffffffffffffffffffffffff82169050919050565b6000611eb782611e8c565b9050919050565b611ec781611eac565b8114611ed257600080fd5b50565b600081359050611ee481611ebe565b92915050565b600060208284031215611f0057611eff611e87565b5b6000611f0e84828501611ed5565b91505092915050565b6000819050919050565b6000611f3c611f37611f3284611e8c565b611f17565b611e8c565b9050919050565b6000611f4e82611f21565b9050919050565b6000611f6082611f43565b9050919050565b611f7081611f55565b82525050565b6000602082019050611f8b6000830184611f67565b92915050565b6000819050919050565b611fa481611f91565b82525050565b6000602082019050611fbf6000830184611f9b565b92915050565b6000611fd082611f43565b9050919050565b611fe081611fc5565b82525050565b6000602082019050611ffb6000830184611fd7565b92915050565b600061200c82611f43565b9050919050565b61201c81612001565b82525050565b60006020820190506120376000830184612013565b92915050565b600060c0820190506120526000830189611f9b565b61205f6020830188611f9b565b61206c6040830187611f9b565b6120796060830186611f9b565b6120866080830185611f9b565b61209360a0830184611f9b565b979650505050505050565b60006080820190506120b36000830187611f9b565b6120c06020830186611f9b565b6120cd6040830185611f9b565b6120da6060830184611f9b565b95945050505050565b6120ec81611eac565b82525050565b600060208201905061210760008301846120e3565b92915050565b600061211882611f43565b9050919050565b6121288161210d565b82525050565b6000602082019050612143600083018461211f565b92915050565b60008115159050919050565b61215e81612149565b82525050565b60006040820190506121796000830185612155565b6121866020830184611f9b565b9392505050565b600082825260208201905092915050565b7f496e76616c696420616464726573730000000000000000000000000000000000600082015250565b60006121d4600f8361218d565b91506121df8261219e565b602082019050919050565b60006020820190508181036000830152612203816121c7565b9050919050565b7f4e487b7100000000000000000000000000000000000000000000000000000000600052601160045260246000fd5b600061224482611f91565b915061224f83611f91565b92508282019050808211156122675761226661220a565b5b92915050565b7f436c61696d20636f6f6c646f776e206e6f7420656c6170736564000000000000600082015250565b60006122a3601a8361218d565b91506122ae8261226d565b602082019050919050565b600060208201905081810360008301526122d281612296565b9050919050565b7f4e6f207265776172647320746f20636c61696d00000000000000000000000000600082015250565b600061230f60138361218d565b915061231a826122d9565b602082019050919050565b6000602082019050818103600083015261233e81612302565b9050919050565b7f4861726420636170207265616368656400000000000000000000000000000000600082015250565b600061237b60108361218d565b915061238682612345565b602082019050919050565b600060208201905081810360008301526123aa8161236e565b9050919050565b60006040820190506123c660008301856120e3565b6123d36020830184611f9b565b9392505050565b60006060820190506123ef6000830186611f9b565b6123fc6020830185611f9b565b6124096040830184611f9b565b949350505050565b61241a81612149565b811461242557600080fd5b50565b60008151905061243781612411565b92915050565b60006020828403121561245357612452611e87565b5b600061246184828501612428565b91505092915050565b61247381611f91565b811461247e57600080fd5b50565b6000815190506124908161246a565b92915050565b6000602082840312156124ac576124ab611e87565b5b60006124ba84828501612481565b91505092915050565b60006124ce82611f91565b91506124d983611f91565b92508282026124e781611f91565b915082820484148315176124fe576124fd61220a565b5b5092915050565b7f4e487b7100000000000000000000000000000000000000000000000000000000600052601260045260246000fd5b600061253f82611f91565b915061254a83611f91565b92508261255a57612559612505565b5b828204905092915050565b600061257082611f91565b915061257b83611f91565b92508282039050818111156125935761259261220a565b5b92915050565b6000815190506125a881611ebe565b92915050565b6000602082840312156125c4576125c3611e87565b5b60006125d284828501612599565b91505092915050565b6000819050919050565b60006126006125fb6125f6846125db565b611f17565b611f91565b9050919050565b612610816125e5565b82525050565b600060408201905061262b6000830185611f9b565b6126386020830184612607565b9392505050565b6000819050919050565b600061266461265f61265a8461263f565b611f17565b611f91565b9050919050565b61267481612649565b82525050565b600060408201905061268f6000830185611f9b565b61269c602083018461266b565b9392505050565b6000819050919050565b60006126c86126c36126be846126a3565b611f17565b611f91565b9050919050565b6126d8816126ad565b82525050565b60006040820190506126f36000830185611f9b565b61270060208301846126cf565b9392505050565b600061271282611f91565b91507fffffffffffffffffffffffffffffffffffffffffffffffffffffffffffffffff82036127445761274361220a565b5b600182019050919050565b60006040820190506127646000830185611f9b565b6127716020830184611f9b565b939250505056fea26469706673582212209c9ce701b130ba7307ed5ecdbcdcbeb60ce5bce927e2ffb39030da920da50b2d64736f6c63430008140033",
  "linkReferences": {},
  "deployedLinkReferences": {}
}